{
  "address": "0x4D67BaB6B9DD25afe4f101CbD94f265e484175a1",
  "abi": [
    {
      "inputs": [
        {
          "internalType": "uint256",
          "name": "tokenId",
          "type": "uint256"
        },
        {
          "internalType": "uint256",
          "name": "vaultId",
          "type": "uint256"
        },
        {
          "internalType": "address",
          "name": "vToken",
          "type": "address"
        },
        {
          "internalType": "string",
          "name": "vTokenSymbol",
          "type": "string"
        },
        {
          "internalType": "uint256",
          "name": "vTokenBalance",
          "type": "uint256"
        },
        {
          "internalType": "uint256",
          "name": "wethBalance",
          "type": "uint256"
        },
        {
          "internalType": "uint256",
          "name": "timelockLeft",
          "type": "uint256"
        }
      ],
      "name": "renderSVG",
      "outputs": [
        {
          "internalType": "string",
          "name": "",
          "type": "string"
        }
      ],
      "stateMutability": "pure",
      "type": "function"
    },
    {
      "inputs": [
        {
          "internalType": "uint256",
          "name": "tokenId",
          "type": "uint256"
        },
        {
          "internalType": "uint256",
          "name": "vaultId",
          "type": "uint256"
        },
        {
          "internalType": "address",
          "name": "vToken",
          "type": "address"
        },
        {
          "internalType": "string",
          "name": "vTokenSymbol",
          "type": "string"
        },
        {
          "internalType": "uint256",
          "name": "vTokenBalance",
          "type": "uint256"
        },
        {
          "internalType": "uint256",
          "name": "wethBalance",
          "type": "uint256"
        },
        {
          "internalType": "uint256",
          "name": "timelockedUntil",
          "type": "uint256"
        }
      ],
      "name": "tokenURI",
      "outputs": [
        {
          "internalType": "string",
          "name": "",
          "type": "string"
        }
      ],
      "stateMutability": "view",
      "type": "function"
    }
  ],
  "transactionHash": "0xaa42b5642df64e5de2388131fb352cbed6adee1bd512a1eadf76d68fac34cb0e",
  "args": [],
  "numDeployments": 1,
  "solcInputHash": "816bf06b1ea057791101948398807f2c",
  "bytecode": "0x608060405234801561001057600080fd5b5061214b806100206000396000f3fe608060405234801561001057600080fd5b50600436106100365760003560e01c8063b23d5ca11461003b578063c43a24e214610064575b600080fd5b61004e610049366004610c48565b610077565b60405161005b9190610d43565b60405180910390f35b61004e610072366004610c48565b610134565b606060006100a56100a08b8b8b8b8b8b8b8b421161009957610072428d610d8c565b6000610134565b610292565b905061010687876100b58d6103f7565b6040516020016100c793929190610dce565b604051602081830303815290604052826100e08c6103f7565b6040516020016100f293929190610e0c565b604051602081830303815290604052610292565b6040516020016101169190610f8e565b60405160208183030381529060405291505098975050505050505050565b606061018061015a8873ffffffffffffffffffffffffffffffffffffffff166088610518565b61017b8973ffffffffffffffffffffffffffffffffffffffff166064610518565b61052e565b6101f560405180604001604052806002815260200161199960f11b81525060405180604001604052806002815260200161037360f41b8152506040518060400160405280600381526020016203230360ec1b81525060405180604001604052806002815260200161199960f11b815250610580565b604051806040016040528060018152602001600f60fb1b81525088886102548b8b8080601f0160208091040260200160405190810160405280939291908181526020018383808284376000920191909152508d92508c91506105999050565b61025f8f8f8a6106a3565b6040516020016102759796959493929190610fd3565b604051602081830303815290604052905098975050505050505050565b606081516000036102b157505060408051602081019091526000815290565b60006040518060600160405280604081526020016120ff60409139905060006003845160026102e091906111ff565b6102ea919061122d565b6102f5906004611241565b905060006103048260206111ff565b67ffffffffffffffff81111561031c5761031c611260565b6040519080825280601f01601f191660200182016040528015610346576020820181803683370190505b509050818152600183018586518101602084015b818310156103b2576003830192508251603f8160121c168501518253600182019150603f81600c1c168501518253600182019150603f8160061c168501518253600182019150603f811685015182535060010161035a565b6003895106600181146103cc57600281146103dd576103e9565b613d3d60f01b6001198301526103e9565b603d60f81b6000198301525b509398975050505050505050565b60608160000361041e5750506040805180820190915260018152600360fc1b602082015290565b8160005b8115610448578061043281611276565b91506104419050600a8361122d565b9150610422565b60008167ffffffffffffffff81111561046357610463611260565b6040519080825280601f01601f19166020018201604052801561048d576020820181803683370190505b5090505b8415610510576104a2600183610d8c565b91506104af600a8661128f565b6104ba9060306111ff565b60f81b8183815181106104cf576104cf6112a3565b60200101907effffffffffffffffffffffffffffffffffffffffffffffffffffffffffffff1916908160001a905350610509600a8661122d565b9450610491565b949350505050565b606061052783831c6003610822565b9392505050565b6060610544836040516020016100f291906112b9565b610558836040516020016100f291906113a1565b604051602001610569929190611455565b604051602081830303815290604052905092915050565b6060610590858585856000610925565b95945050505050565b606061061160405180604001604052806002815260200161199960f11b8152506040518060400160405280600381526020016203136360ec1b8152506040518060400160405280600381526020016203230360ec1b81525060405180604001604052806002815260200161189b60f11b815250610580565b6106376040518060400160405280600381526020016203138360ec1b81525085876109ab565b6106796040518060400160405280600381526020016203232360ec1b81525085604051806040016040528060048152602001630ae8aa8960e31b8152506109ab565b60405160200161068b93929190611b14565b60405160208183030381529060405290509392505050565b60606106ed604051806040016040528060038152602001620cce0d60ea1b81525060405180604001604052806002815260200161125160f21b8152506106e8876103f7565b610ae8565b61074b604051806040016040528060038152602001620d0c4d60ea1b8152506040518060400160405280600781526020017f5661756c744964000000000000000000000000000000000000000000000000008152506106e8876103f7565b610810604051806040016040528060038152602001620d0d0d60ea1b8152506040518060400160405280600881526020017f54696d656c6f636b000000000000000000000000000000000000000000000000815250600087116107e3576040518060400160405280600881526020017f556e6c6f636b6564000000000000000000000000000000000000000000000000815250610ae8565b6107ec876103f7565b6040516020016107fc9190611b83565b604051602081830303815290604052610ae8565b60405160200161068b93929190611bc4565b60606000610831836002611241565b67ffffffffffffffff81111561084957610849611260565b6040519080825280601f01601f191660200182016040528015610873576020820181803683370190505b5080519091505b801561091d577f303132333435363738396162636465660000000000000000000000000000000085600f16601081106108b5576108b56112a3565b1a60f81b826108c5600184610d8c565b815181106108d5576108d56112a3565b60200101907effffffffffffffffffffffffffffffffffffffffffffffffffffffffffffff1916908160001a90535060049490941c938061091581611c07565b91505061087a565b509392505050565b606084868315610944576040518060200160405280600081525061097b565b6040518060400160405280600f81526020017f27436f7572696572204e6577272c2000000000000000000000000000000000008152505b8686604051602001610991959493929190611c1e565b604051602081830303815290604052905095945050505050565b606060006109c1670de0b6b3a76400008561122d565b905060006109ce85610b75565b8051909150600c906014906010906000906064906109ed908490611241565b6109f8906064611241565b610a02919061122d565b600284610a0e89610c0e565b610a199060016111ff565b610a239190611241565b610a2d919061122d565b610a3790866111ff565b610a4191906111ff565b905089610a4d826103f7565b610aa0610a59876103f7565b60405180604001604052806002815260200161323160f01b8152506040518060400160405280600381526020016203130360ec1b815250610a99896103f7565b6001610925565b610aa9896103f7565b610ab2866103f7565b898d604051602001610aca9796959493929190611d6f565b60405160208183030381529060405296505050505050509392505050565b606083610b6060405180604001604052806002815260200161189960f11b81525060405180604001604052806002815260200161313760f01b8152506040518060400160405280600381526020016203130360ec1b81525060405180604001604052806002815260200161189960f11b815250610580565b848460405160200161068b9493929190611f44565b606060006305f5e100610b90670de0b6b3a76400008561128f565b610b9a919061122d565b9050600081600003610bae57506000610bc5565b610bb782610c0e565b610bc290600a610d8c565b90505b610bce826103f7565b925060005b81811015610c065783604051602001610bec91906120d5565b60408051601f198184030181529190529350600101610bd3565b505050919050565b600081600003610c2057506001919050565b8115610c4357610c2f81611276565b9050610c3c600a8361122d565b9150610c20565b919050565b60008060008060008060008060e0898b031215610c6457600080fd5b8835975060208901359650604089013573ffffffffffffffffffffffffffffffffffffffff81168114610c9657600080fd5b9550606089013567ffffffffffffffff80821115610cb357600080fd5b818b0191508b601f830112610cc757600080fd5b813581811115610cd657600080fd5b8c6020828501011115610ce857600080fd5b999c989b50969960209190910198976080820135975060a0820135965060c090910135945092505050565b60005b83811015610d2e578181015183820152602001610d16565b83811115610d3d576000848401525b50505050565b6020815260008251806020840152610d62816040850160208701610d13565b601f01601f19169190910160400192915050565b634e487b7160e01b600052601160045260246000fd5b600082821015610d9e57610d9e610d76565b500390565b81818437506000910190815290565b60008151610dc4818560208601610d13565b9290920192915050565b600f60fb1b815282846001830137600083820161202360f01b60018201528351610dff816003840160208801610d13565b0160030195945050505050565b7f7b226e616d65223a220000000000000000000000000000000000000000000000815260008451610e44816009850160208901610d13565b7f222c20226465736372697074696f6e223a2200000000000000000000000000006009918401918201527f784e465420726570726573656e74696e6720696e76656e746f7279207374616b601b8201527f696e6720706f736974696f6e206f6e204e465458000000000000000000000000603b8201527f222c2022696d616765223a202200000000000000000000000000000000000000604f8201527f646174613a696d6167652f7376672b786d6c3b6261736536342c000000000000605c8201528451610f19816076840160208901610d13565b7f222c202261747472696275746573223a205b7b2274726169745f74797065223a607692909101918201527f20225661756c744964222c202276616c7565223a2022000000000000000000006096820152610f7760ac820185610db2565b63227d5d7d60e01b81526004019695505050505050565b7f646174613a6170706c69636174696f6e2f6a736f6e3b6261736536342c000000815260008251610fc681601d850160208701610d13565b91909101601d0192915050565b7f3c7376672077696474683d2232393022206865696768743d223530302220766981527f6577426f783d2230203020323930203530302220786d6c6e733d22687474703a60208201527f2f2f7777772e77332e6f72672f323030302f7376672220786d6c6e733a786c6960408201527f6e6b3d22687474703a2f2f7777772e77332e6f72672f313939392f786c696e6b606082015261111f60f11b608082015260008851611088816082850160208d01610d13565b7f3c67206d61736b3d2275726c2823666164652d73796d626f6c29223e0000000060829184019182015288516110c581609e840160208d01610d13565b88519101906110db81609e840160208c01610d13565b6110eb609e82840101888a610da3565b915050611117817f3c2f746578743e000000000000000000000000000000000000000000000000009052565b6111cb6111c561112a6007840188610db2565b7f3c7265637420783d2231362220793d223136222077696474683d22323538222081527f6865696768743d22343638222072783d223236222072793d223236222066696c60208201527f6c3d227267626128302c302c302c302922207374726f6b653d2272676261283260408201527f35352c3235352c3235352c302e3229222f3e0000000000000000000000000000606082015260720190565b85610db2565b7f3c2f7376673e000000000000000000000000000000000000000000000000000081526006019a9950505050505050505050565b6000821982111561121257611212610d76565b500190565b634e487b7160e01b600052601260045260246000fd5b60008261123c5761123c611217565b500490565b600081600019048311821515161561125b5761125b610d76565b500290565b634e487b7160e01b600052604160045260246000fd5b60006001820161128857611288610d76565b5060010190565b60008261129e5761129e611217565b500690565b634e487b7160e01b600052603260045260246000fd5b7f3c7376672077696474683d2732393027206865696768743d273530302720766981527f6577426f783d2730203020323930203530302720786d6c6e733d27687474703a60208201527f2f2f7777772e77332e6f72672f323030302f737667273e3c636972636c65206360408201527f783d273136272063793d273233322720723d273132307078272066696c6c3d276060820152602360f81b60808201526000825161136d816081850160208701610d13565b7f272f3e3c2f7376673e00000000000000000000000000000000000000000000006081939091019283015250608a01919050565b7f3c7376672077696474683d2732393027206865696768743d273530302720766981527f6577426f783d2730203020323930203530302720786d6c6e733d27687474703a60208201527f2f2f7777772e77332e6f72672f323030302f737667273e3c636972636c65206360408201527f783d273230272063793d273130302720723d273133307078272066696c6c3d276060820152602360f81b60808201526000825161136d816081850160208701610d13565b7f3c646566733e000000000000000000000000000000000000000000000000000081527f3c66696c7465722069643d226631223e3c6665496d61676520726573756c743d60068201527f2270322220786c696e6b3a687265663d22646174613a696d6167652f7376672b60268201527f786d6c3b6261736536342c0000000000000000000000000000000000000000006046820152600083516114ff816051850160208801610d13565b7f222f3e3c6665496d61676520726573756c743d2270332220786c696e6b3a68726051918401918201527f65663d22646174613a696d6167652f7376672b786d6c3b6261736536342c00006071820152835161156281608f840160208801610d13565b7f222f3e3c6665426c656e64206d6f64653d226578636c7573696f6e2220696e329101608f8101919091527f3d227032222f3e3c6665426c656e64206d6f64653d226f7665726c617922206960af8201527f6e323d2270332220726573756c743d22626c656e644f7574222f3e3c6665476160cf8201527f75737369616e426c757220696e3d22626c656e644f757422207374644465766960ef8201527f6174696f6e3d223432222f3e3c2f66696c7465723e3c636c697050617468206961010f8201527f643d22636f726e657273223e3c726563742077696474683d223239302220686561012f8201527f696768743d22353030222072783d223432222072793d223432222f3e3c2f636c61014f8201527f6970506174683e3c66696c7465722069643d22746f702d726567696f6e2d626c61016f8201527f7572223e3c6665476175737369616e426c757220696e3d22536f75726365477261018f8201527f61706869632220737464446576696174696f6e3d223234222f3e3c2f66696c746101af8201527f65723e3c6c696e6561724772616469656e742069643d22677261642d73796d626101cf8201527f6f6c223e3c73746f70206f66667365743d22302e37222073746f702d636f6c6f6101ef8201527f723d227768697465222073746f702d6f7061636974793d2231222f3e3c73746f61020f8201527f70206f66667365743d222e3935222073746f702d636f6c6f723d22776869746561022f8201527f222073746f702d6f7061636974793d2230222f3e3c2f6c696e6561724772616461024f8201527f69656e743e3c6d61736b2069643d22666164652d73796d626f6c22206d61736b61026f8201527f436f6e74656e74556e6974733d227573657253706163654f6e557365223e3c7261028f8201527f6563742077696474683d22323930707822206865696768743d223230307078226102af8201527f2066696c6c3d2275726c2823677261642d73796d626f6c29222f3e3c2f6d61736102cf8201527f6b3e3c2f646566733e00000000000000000000000000000000000000000000006102ef8201527f3c6720636c69702d706174683d2275726c2823636f726e65727329223e3c72656102f88201527f63742066696c6c3d223263393731352220783d223070782220793d22307078226103188201527f2077696474683d22323930707822206865696768743d223530307078222f3e3c6103388201527f72656374207374796c653d2266696c7465723a2075726c28236631292220783d6103588201527f223070782220793d22307078222077696474683d2232393070782220686569676103788201527f68743d223530307078222f3e3c67207374796c653d2266696c7465723a75726c6103988201527f2823746f702d726567696f6e2d626c7572293b207472616e73666f726d3a73636103b88201527f616c6528312e35293b207472616e73666f726d2d6f726967696e3a63656e74656103d88201527f7220746f703b223e3c726563742066696c6c3d226e6f6e652220783d223070786103f88201527f2220793d22307078222077696474683d22323930707822206865696768743d226104188201527f3530307078222f3e3c656c6c697073652063783d22353025222063793d2230706104388201527f78222072783d223138307078222072793d223132307078222066696c6c3d22236104588201527f30303022206f7061636974793d22302e3835222f3e3c2f673e3c7265637420786104788201527f3d22302220793d2230222077696474683d2232393022206865696768743d22356104988201527f3030222072783d223432222072793d223432222066696c6c3d227267626128306104b88201527f2c302c302c302922207374726f6b653d2272676261283235352c3235352c32356104d88201527f352c302e3229222f3e3c2f673e000000000000000000000000000000000000006104f8820152610505810195945050505050565b60008451611b26818460208901610d13565b7f556e6465726c79696e672042616c616e63653c2f746578743e3c2f673e0000009083019081528451611b6081601d840160208901610d13565b8451910190611b7681601d840160208801610d13565b01601d0195945050505050565b60008251611b95818460208701610d13565b7f73206c6566740000000000000000000000000000000000000000000000000000920191825250600601919050565b60008451611bd6818460208901610d13565b845190830190611bea818360208901610d13565b8451910190611bfd818360208801610d13565b0195945050505050565b600081611c1657611c16610d76565b506000190190565b7f3c7465787420793d220000000000000000000000000000000000000000000000815260008651611c56816009850160208b01610d13565b7f70782220783d22000000000000000000000000000000000000000000000000006009918401918201528651611c93816010840160208b01610d13565b7f7078222066696c6c3d2277686974652220666f6e742d66616d696c793d220000601092909101918201528551611cd181602e840160208a01610d13565b7f6d6f6e6f73706163652220666f6e742d7765696768743d220000000000000000602e92909101918201528451611d0f816046840160208901610d13565b7f2220666f6e742d73697a653d2200000000000000000000000000000000000000604692909101918201528351611d4d816053840160208801610d13565b01611d616053820163383c111f60e11b9052565b605701979650505050505050565b7f3c67207374796c653d227472616e73666f726d3a7472616e736c6174652832398152630383c16160e51b60208201526000602482018951611db5818360208e01610d13565b7f707829223e3c726563742077696474683d22000000000000000000000000000091019081528851611dee816012840160208d01610d13565b7f707822206865696768743d2233307078222072783d22387078222072793d2238601292909101918201527f7078222066696c6c3d227267626128302c302c302c302e3629222f3e0000000060328201528751611e5281604e840160208c01610d13565b8751910190611e6881604e840160208b01610d13565b01611e95604e82017f2e3c747370616e20666f6e742d73697a653d22000000000000000000000000009052565b611ea26061820187610db2565b63383c111f60e11b81529050611f106111c5611ec16004840188610db2565b7f3c2f747370616e3e203c747370616e2066696c6c3d2272676261283235352c3281527f35352c3235352c302e3829223e000000000000000000000000000000000000006020820152602d0190565b7f3c2f747370616e3e3c2f746578743e3c2f673e0000000000000000000000000081526013019a9950505050505050505050565b7f3c67207374796c653d227472616e73666f726d3a7472616e736c6174652832398152630383c16160e51b60208201526000602482018651611f8a818360208b01610d13565b8082019150507f707829223e3c726563742077696474683d223938707822206865696768743d2281527f32367078222072783d22387078222072793d22387078222066696c6c3d22726760208201527f626128302c302c302c302e3629222f3e0000000000000000000000000000000060408201528551612012816050840160208a01610d13565b7f3c747370616e2066696c6c3d2272676261283235352c3235352c3235352c302e60509290910191820152631b14911f60e11b6070820152845161205d816074840160208901610d13565b7f3a203c2f747370616e3e0000000000000000000000000000000000000000000060749290910191820152835161209b81607e840160208801610d13565b016120c8607e82017f3c2f746578743e3c2f673e0000000000000000000000000000000000000000009052565b6089019695505050505050565b600360fc1b8152600082516120f1816001850160208701610d13565b919091016001019291505056fe4142434445464748494a4b4c4d4e4f505152535455565758595a6162636465666768696a6b6c6d6e6f707172737475767778797a303132333435363738392b2fa164736f6c634300080f000a",
  "devdoc": {
    "kind": "dev",
    "methods": {},
    "version": 1
  },
  "userdoc": {
    "kind": "user",
    "methods": {},
    "version": 1
  },
  "storageLayout": {
    "storage": [],
    "types": null
  }
}