{
  "address": "0x31cB832F661Cd90fc9Fca6fB70A39cA811a02aEd",
  "abi": [
    {
      "inputs": [
        {
          "internalType": "contract INFTXVaultFactoryV3",
          "name": "nftxVaultFactory_",
          "type": "address"
        },
        {
          "internalType": "address",
          "name": "universalRouter_",
          "type": "address"
        },
        {
          "internalType": "contract IPermitAllowanceTransfer",
          "name": "PERMIT2_",
          "type": "address"
        },
        {
          "internalType": "address",
          "name": "inventoryStaking_",
          "type": "address"
        },
        {
          "internalType": "contract IWETH9",
          "name": "WETH_",
          "type": "address"
        }
      ],
      "stateMutability": "nonpayable",
      "type": "constructor"
    },
    {
      "inputs": [],
      "name": "InsufficientWethForVaultFees",
      "type": "error"
    },
    {
      "inputs": [],
      "name": "NotEnoughFundsForRedeem",
      "type": "error"
    },
    {
      "inputs": [],
      "name": "NotNFTOwner",
      "type": "error"
    },
    {
      "inputs": [],
      "name": "SwapFailed",
      "type": "error"
    },
    {
      "inputs": [],
      "name": "UnableToSendETH",
      "type": "error"
    },
    {
      "inputs": [],
      "name": "UnableToSendETH",
      "type": "error"
    },
    {
      "inputs": [],
      "name": "WrongVaultType",
      "type": "error"
    },
    {
      "inputs": [],
      "name": "ZapPaused",
      "type": "error"
    },
    {
      "inputs": [],
      "name": "ZeroAddress",
      "type": "error"
    },
    {
      "anonymous": false,
      "inputs": [
        {
          "indexed": false,
          "internalType": "uint256",
          "name": "vaultId",
          "type": "uint256"
        },
        {
          "indexed": false,
          "internalType": "uint256[]",
          "name": "nftIds",
          "type": "uint256[]"
        },
        {
          "indexed": false,
          "internalType": "uint256",
          "name": "ethSpent",
          "type": "uint256"
        },
        {
          "indexed": false,
          "internalType": "address",
          "name": "to",
          "type": "address"
        },
        {
          "indexed": false,
          "internalType": "uint256",
          "name": "netRoyaltyAmount",
          "type": "uint256"
        }
      ],
      "name": "Buy",
      "type": "event"
    },
    {
      "anonymous": false,
      "inputs": [
        {
          "indexed": false,
          "internalType": "uint256",
          "name": "ethAmount",
          "type": "uint256"
        },
        {
          "indexed": false,
          "internalType": "uint256",
          "name": "vTokenAmount",
          "type": "uint256"
        },
        {
          "indexed": false,
          "internalType": "address",
          "name": "to",
          "type": "address"
        }
      ],
      "name": "DustReturned",
      "type": "event"
    },
    {
      "anonymous": false,
      "inputs": [
        {
          "indexed": false,
          "internalType": "uint256",
          "name": "dustThreshold",
          "type": "uint256"
        }
      ],
      "name": "NewDustThreshold",
      "type": "event"
    },
    {
      "anonymous": false,
      "inputs": [
        {
          "indexed": false,
          "internalType": "address",
          "name": "universalRouter",
          "type": "address"
        }
      ],
      "name": "NewUniversalRouter",
      "type": "event"
    },
    {
      "anonymous": false,
      "inputs": [
        {
          "indexed": true,
          "internalType": "address",
          "name": "previousOwner",
          "type": "address"
        },
        {
          "indexed": true,
          "internalType": "address",
          "name": "newOwner",
          "type": "address"
        }
      ],
      "name": "OwnershipTransferred",
      "type": "event"
    },
    {
      "anonymous": false,
      "inputs": [
        {
          "indexed": false,
          "internalType": "bool",
          "name": "status",
          "type": "bool"
        }
      ],
      "name": "Paused",
      "type": "event"
    },
    {
      "anonymous": false,
      "inputs": [
        {
          "indexed": false,
          "internalType": "uint256",
          "name": "vaultId",
          "type": "uint256"
        },
        {
          "indexed": false,
          "internalType": "uint256",
          "name": "count",
          "type": "uint256"
        },
        {
          "indexed": false,
          "internalType": "uint256",
          "name": "ethReceived",
          "type": "uint256"
        },
        {
          "indexed": false,
          "internalType": "address",
          "name": "to",
          "type": "address"
        },
        {
          "indexed": false,
          "internalType": "uint256",
          "name": "netRoyaltyAmount",
          "type": "uint256"
        },
        {
          "indexed": false,
          "internalType": "uint256",
          "name": "wethFees",
          "type": "uint256"
        }
      ],
      "name": "Sell",
      "type": "event"
    },
    {
      "anonymous": false,
      "inputs": [
        {
          "indexed": false,
          "internalType": "uint256",
          "name": "vaultId",
          "type": "uint256"
        },
        {
          "indexed": false,
          "internalType": "uint256[]",
          "name": "idsIn",
          "type": "uint256[]"
        },
        {
          "indexed": false,
          "internalType": "uint256[]",
          "name": "idsOut",
          "type": "uint256[]"
        },
        {
          "indexed": false,
          "internalType": "uint256",
          "name": "ethSpent",
          "type": "uint256"
        },
        {
          "indexed": false,
          "internalType": "address",
          "name": "to",
          "type": "address"
        }
      ],
      "name": "Swap",
      "type": "event"
    },
    {
      "anonymous": false,
      "inputs": [
        {
          "indexed": false,
          "internalType": "uint256",
          "name": "vaultId",
          "type": "uint256"
        },
        {
          "indexed": false,
          "internalType": "uint256[]",
          "name": "idsIn",
          "type": "uint256[]"
        },
        {
          "indexed": false,
          "internalType": "uint256[]",
          "name": "amounts",
          "type": "uint256[]"
        },
        {
          "indexed": false,
          "internalType": "uint256[]",
          "name": "idsOut",
          "type": "uint256[]"
        },
        {
          "indexed": false,
          "internalType": "uint256",
          "name": "ethSpent",
          "type": "uint256"
        },
        {
          "indexed": false,
          "internalType": "address",
          "name": "to",
          "type": "address"
        }
      ],
      "name": "Swap",
      "type": "event"
    },
    {
      "inputs": [],
      "name": "PERMIT2",
      "outputs": [
        {
          "internalType": "contract IPermitAllowanceTransfer",
          "name": "",
          "type": "address"
        }
      ],
      "stateMutability": "view",
      "type": "function"
    },
    {
      "inputs": [],
      "name": "WETH",
      "outputs": [
        {
          "internalType": "contract IWETH9",
          "name": "",
          "type": "address"
        }
      ],
      "stateMutability": "view",
      "type": "function"
    },
    {
      "inputs": [
        {
          "components": [
            {
              "internalType": "contract IERC20",
              "name": "tokenIn",
              "type": "address"
            },
            {
              "internalType": "uint256",
              "name": "amountIn",
              "type": "uint256"
            },
            {
              "internalType": "uint256",
              "name": "vaultId",
              "type": "uint256"
            },
            {
              "internalType": "uint256[]",
              "name": "idsOut",
              "type": "uint256[]"
            },
            {
              "internalType": "uint256",
              "name": "vTokenPremiumLimit",
              "type": "uint256"
            },
            {
              "internalType": "bytes",
              "name": "executeToWETHCallData",
              "type": "bytes"
            },
            {
              "internalType": "bytes",
              "name": "executeToVTokenCallData",
              "type": "bytes"
            },
            {
              "internalType": "address payable",
              "name": "to",
              "type": "address"
            },
            {
              "internalType": "bool",
              "name": "deductRoyalty",
              "type": "bool"
            }
          ],
          "internalType": "struct MarketplaceUniversalRouterZap.BuyNFTsWithERC20Params",
          "name": "params",
          "type": "tuple"
        }
      ],
      "name": "buyNFTsWithERC20",
      "outputs": [],
      "stateMutability": "nonpayable",
      "type": "function"
    },
    {
      "inputs": [
        {
          "components": [
            {
              "internalType": "contract IERC20",
              "name": "tokenIn",
              "type": "address"
            },
            {
              "internalType": "uint256",
              "name": "amountIn",
              "type": "uint256"
            },
            {
              "internalType": "uint256",
              "name": "vaultId",
              "type": "uint256"
            },
            {
              "internalType": "uint256[]",
              "name": "idsOut",
              "type": "uint256[]"
            },
            {
              "internalType": "uint256",
              "name": "vTokenPremiumLimit",
              "type": "uint256"
            },
            {
              "internalType": "bytes",
              "name": "executeToWETHCallData",
              "type": "bytes"
            },
            {
              "internalType": "bytes",
              "name": "executeToVTokenCallData",
              "type": "bytes"
            },
            {
              "internalType": "address payable",
              "name": "to",
              "type": "address"
            },
            {
              "internalType": "bool",
              "name": "deductRoyalty",
              "type": "bool"
            }
          ],
          "internalType": "struct MarketplaceUniversalRouterZap.BuyNFTsWithERC20Params",
          "name": "params",
          "type": "tuple"
        },
        {
          "internalType": "bytes",
          "name": "encodedPermit2",
          "type": "bytes"
        }
      ],
      "name": "buyNFTsWithERC20WithPermit2",
      "outputs": [],
      "stateMutability": "nonpayable",
      "type": "function"
    },
    {
      "inputs": [
        {
          "internalType": "uint256",
          "name": "vaultId",
          "type": "uint256"
        },
        {
          "internalType": "uint256[]",
          "name": "idsOut",
          "type": "uint256[]"
        },
        {
          "internalType": "bytes",
          "name": "executeCallData",
          "type": "bytes"
        },
        {
          "internalType": "address payable",
          "name": "to",
          "type": "address"
        },
        {
          "internalType": "uint256",
          "name": "vTokenPremiumLimit",
          "type": "uint256"
        },
        {
          "internalType": "bool",
          "name": "deductRoyalty",
          "type": "bool"
        }
      ],
      "name": "buyNFTsWithETH",
      "outputs": [],
      "stateMutability": "payable",
      "type": "function"
    },
    {
      "inputs": [],
      "name": "dustThreshold",
      "outputs": [
        {
          "internalType": "uint256",
          "name": "",
          "type": "uint256"
        }
      ],
      "stateMutability": "view",
      "type": "function"
    },
    {
      "inputs": [],
      "name": "inventoryStaking",
      "outputs": [
        {
          "internalType": "address",
          "name": "",
          "type": "address"
        }
      ],
      "stateMutability": "view",
      "type": "function"
    },
    {
      "inputs": [],
      "name": "nftxVaultFactory",
      "outputs": [
        {
          "internalType": "contract INFTXVaultFactoryV3",
          "name": "",
          "type": "address"
        }
      ],
      "stateMutability": "view",
      "type": "function"
    },
    {
      "inputs": [
        {
          "internalType": "address",
          "name": "",
          "type": "address"
        },
        {
          "internalType": "address",
          "name": "",
          "type": "address"
        },
        {
          "internalType": "uint256[]",
          "name": "",
          "type": "uint256[]"
        },
        {
          "internalType": "uint256[]",
          "name": "",
          "type": "uint256[]"
        },
        {
          "internalType": "bytes",
          "name": "",
          "type": "bytes"
        }
      ],
      "name": "onERC1155BatchReceived",
      "outputs": [
        {
          "internalType": "bytes4",
          "name": "",
          "type": "bytes4"
        }
      ],
      "stateMutability": "nonpayable",
      "type": "function"
    },
    {
      "inputs": [
        {
          "internalType": "address",
          "name": "",
          "type": "address"
        },
        {
          "internalType": "address",
          "name": "",
          "type": "address"
        },
        {
          "internalType": "uint256",
          "name": "",
          "type": "uint256"
        },
        {
          "internalType": "uint256",
          "name": "",
          "type": "uint256"
        },
        {
          "internalType": "bytes",
          "name": "",
          "type": "bytes"
        }
      ],
      "name": "onERC1155Received",
      "outputs": [
        {
          "internalType": "bytes4",
          "name": "",
          "type": "bytes4"
        }
      ],
      "stateMutability": "nonpayable",
      "type": "function"
    },
    {
      "inputs": [
        {
          "internalType": "address",
          "name": "",
          "type": "address"
        },
        {
          "internalType": "address",
          "name": "",
          "type": "address"
        },
        {
          "internalType": "uint256",
          "name": "",
          "type": "uint256"
        },
        {
          "internalType": "bytes",
          "name": "",
          "type": "bytes"
        }
      ],
      "name": "onERC721Received",
      "outputs": [
        {
          "internalType": "bytes4",
          "name": "",
          "type": "bytes4"
        }
      ],
      "stateMutability": "nonpayable",
      "type": "function"
    },
    {
      "inputs": [],
      "name": "owner",
      "outputs": [
        {
          "internalType": "address",
          "name": "",
          "type": "address"
        }
      ],
      "stateMutability": "view",
      "type": "function"
    },
    {
      "inputs": [
        {
          "internalType": "bool",
          "name": "paused_",
          "type": "bool"
        }
      ],
      "name": "pause",
      "outputs": [],
      "stateMutability": "nonpayable",
      "type": "function"
    },
    {
      "inputs": [],
      "name": "paused",
      "outputs": [
        {
          "internalType": "bool",
          "name": "",
          "type": "bool"
        }
      ],
      "stateMutability": "view",
      "type": "function"
    },
    {
      "inputs": [],
      "name": "renounceOwnership",
      "outputs": [],
      "stateMutability": "nonpayable",
      "type": "function"
    },
    {
      "inputs": [
        {
          "internalType": "contract IERC20",
          "name": "token",
          "type": "address"
        }
      ],
      "name": "rescueTokens",
      "outputs": [],
      "stateMutability": "nonpayable",
      "type": "function"
    },
    {
      "inputs": [
        {
          "internalType": "uint256",
          "name": "vaultId",
          "type": "uint256"
        },
        {
          "internalType": "uint256[]",
          "name": "idsIn",
          "type": "uint256[]"
        },
        {
          "internalType": "uint256[]",
          "name": "amounts",
          "type": "uint256[]"
        },
        {
          "internalType": "bytes",
          "name": "executeCallData",
          "type": "bytes"
        },
        {
          "internalType": "address payable",
          "name": "to",
          "type": "address"
        },
        {
          "internalType": "bool",
          "name": "deductRoyalty",
          "type": "bool"
        }
      ],
      "name": "sell1155",
      "outputs": [],
      "stateMutability": "nonpayable",
      "type": "function"
    },
    {
      "inputs": [
        {
          "internalType": "uint256",
          "name": "vaultId",
          "type": "uint256"
        },
        {
          "internalType": "uint256[]",
          "name": "idsIn",
          "type": "uint256[]"
        },
        {
          "internalType": "bytes",
          "name": "executeCallData",
          "type": "bytes"
        },
        {
          "internalType": "address payable",
          "name": "to",
          "type": "address"
        },
        {
          "internalType": "bool",
          "name": "deductRoyalty",
          "type": "bool"
        }
      ],
      "name": "sell721",
      "outputs": [],
      "stateMutability": "nonpayable",
      "type": "function"
    },
    {
      "inputs": [
        {
          "internalType": "uint256",
          "name": "dustThreshold_",
          "type": "uint256"
        }
      ],
      "name": "setDustThreshold",
      "outputs": [],
      "stateMutability": "nonpayable",
      "type": "function"
    },
    {
      "inputs": [
        {
          "internalType": "address",
          "name": "universalRouter_",
          "type": "address"
        }
      ],
      "name": "setUniversalRouter",
      "outputs": [],
      "stateMutability": "nonpayable",
      "type": "function"
    },
    {
      "inputs": [
        {
          "internalType": "bytes4",
          "name": "interfaceId",
          "type": "bytes4"
        }
      ],
      "name": "supportsInterface",
      "outputs": [
        {
          "internalType": "bool",
          "name": "",
          "type": "bool"
        }
      ],
      "stateMutability": "view",
      "type": "function"
    },
    {
      "inputs": [
        {
          "internalType": "uint256",
          "name": "vaultId",
          "type": "uint256"
        },
        {
          "internalType": "uint256[]",
          "name": "idsIn",
          "type": "uint256[]"
        },
        {
          "internalType": "uint256[]",
          "name": "amounts",
          "type": "uint256[]"
        },
        {
          "internalType": "uint256[]",
          "name": "idsOut",
          "type": "uint256[]"
        },
        {
          "internalType": "uint256",
          "name": "vTokenPremiumLimit",
          "type": "uint256"
        },
        {
          "internalType": "address payable",
          "name": "to",
          "type": "address"
        }
      ],
      "name": "swap1155",
      "outputs": [],
      "stateMutability": "payable",
      "type": "function"
    },
    {
      "inputs": [
        {
          "internalType": "uint256",
          "name": "vaultId",
          "type": "uint256"
        },
        {
          "internalType": "uint256[]",
          "name": "idsIn",
          "type": "uint256[]"
        },
        {
          "internalType": "uint256[]",
          "name": "idsOut",
          "type": "uint256[]"
        },
        {
          "internalType": "uint256",
          "name": "vTokenPremiumLimit",
          "type": "uint256"
        },
        {
          "internalType": "address payable",
          "name": "to",
          "type": "address"
        }
      ],
      "name": "swap721",
      "outputs": [],
      "stateMutability": "payable",
      "type": "function"
    },
    {
      "inputs": [
        {
          "internalType": "address",
          "name": "newOwner",
          "type": "address"
        }
      ],
      "name": "transferOwnership",
      "outputs": [],
      "stateMutability": "nonpayable",
      "type": "function"
    },
    {
      "inputs": [],
      "name": "universalRouter",
      "outputs": [
        {
          "internalType": "address",
          "name": "",
          "type": "address"
        }
      ],
      "stateMutability": "view",
      "type": "function"
    },
    {
      "stateMutability": "payable",
      "type": "receive"
    }
  ],
  "transactionHash": "0x3d3e5167f17e61cb471b5ae9d1fce2444d0bcd1c1df8a2c6214b18c6c7b894a9",
  "args": [
    "0x0D74B761eAB5cC7Cc0E4e625A2e2B8251A4915c6",
    "0x7c656F0691Db983ee78f68189c55C36d1862c901",
    "0x000000000022d473030f116ddee9f6b43ac78ba3",
    "0x47D9ACEE6aa260C36F4368091bE92F0824876C72",
    "0x4200000000000000000000000000000000000006"
  ],
  "numDeployments": 1,
  "solcInputHash": "28cfca9f7b5d9e5cb55aef2a8f8b4710",
  "bytecode": "0x6101006040526001805460ff60a01b191690553480156200001f57600080fd5b5060405162004b3638038062004b368339810160408190526200004291620000f1565b6200004d3362000088565b6001600160a01b0394851660c052600180546001600160a01b0319169486169490941790935590831660a052821660e0521660805262000171565b600080546001600160a01b038381166001600160a01b0319831681178455604051919092169283917f8be0079c531659141344cd1fd0a4f28419497f9722a3daafe3b4186f6b6457e09190a35050565b6001600160a01b0381168114620000ee57600080fd5b50565b600080600080600060a086880312156200010a57600080fd5b85516200011781620000d8565b60208701519095506200012a81620000d8565b60408701519094506200013d81620000d8565b60608701519093506200015081620000d8565b60808701519092506200016381620000d8565b809150509295509295909350565b60805160a05160c05160e0516148b96200027d600039600081816103ce0152612dac0152600081816102dd015281816107b10152818161135f01528181611c990152818161220e0152818161255701526126ee01526000818161038501528181610c6d01528181610cf301528181612fa50152818161304f01526130b001526000818161044001528181610b1701528181611075015281816112d6015281816113fb0152818161146d015281816114de0152818161157201528181611d2201528181611dbb01528181611fed0152818161208e015281816121290152818161217401528181612280015281816122c70152818161234f01528181612b4c01526131a901526148b96000f3fe6080604052600436106101995760003560e01c80636afdd850116100e1578063ad7e55ba1161008a578063e107518a11610064578063e107518a146104ce578063e8462e8f146104e1578063f23a6e6114610505578063f2fde38b1461053157600080fd5b8063ad7e55ba14610462578063bc197c8114610482578063c6f2de95146104ae57600080fd5b80638bfb2a06116100bb5780638bfb2a06146103f05780638da5cb5b14610410578063ad5c46481461042e57600080fd5b80636afdd85014610373578063715018a6146103a757806374a1b0b0146103bc57600080fd5b806335a9e4df11610143578063462812e21161011d578063462812e21461031f5780635c975abb14610332578063628a4b2f1461035357600080fd5b806335a9e4df146102935780633801daf1146102cb5780633eef1f5d146102ff57600080fd5b8063150b7a0211610174578063150b7a021461021c578063153379e01461026057806332a7cc6a1461027357600080fd5b8062ae3bf8146101a557806301ffc9a7146101c757806302329a29146101fc57600080fd5b366101a057005b600080fd5b3480156101b157600080fd5b506101c56101c03660046138aa565b610551565b005b3480156101d357600080fd5b506101e76101e23660046138c7565b610652565b60405190151581526020015b60405180910390f35b34801561020857600080fd5b506101c56102173660046138ff565b610689565b34801561022857600080fd5b50610247610237366004613a2a565b630a85bd0160e11b949350505050565b6040516001600160e01b031990911681526020016101f3565b6101c561026e366004613ae2565b610756565b34801561027f57600080fd5b506101c561028e366004613be4565b610abb565b34801561029f57600080fd5b506001546102b3906001600160a01b031681565b6040516001600160a01b0390911681526020016101f3565b3480156102d757600080fd5b506102b37f000000000000000000000000000000000000000000000000000000000000000081565b34801561030b57600080fd5b506101c561031a366004613c9d565b610c0d565b6101c561032d366004613d06565b610dbb565b34801561033e57600080fd5b506001546101e790600160a01b900460ff1681565b34801561035f57600080fd5b506101c561036e3660046138aa565b610eec565b34801561037f57600080fd5b506102b37f000000000000000000000000000000000000000000000000000000000000000081565b3480156103b357600080fd5b506101c5610fa1565b3480156103c857600080fd5b506102b37f000000000000000000000000000000000000000000000000000000000000000081565b3480156103fc57600080fd5b506101c561040b366004613d8d565b611007565b34801561041c57600080fd5b506000546001600160a01b03166102b3565b34801561043a57600080fd5b506102b37f000000000000000000000000000000000000000000000000000000000000000081565b34801561046e57600080fd5b506101c561047d366004613e45565b611191565b34801561048e57600080fd5b5061024761049d366004613ed3565b63bc197c8160e01b95945050505050565b3480156104ba57600080fd5b506101c56104c9366004613f81565b611220565b6101c56104dc366004613fb6565b611292565b3480156104ed57600080fd5b506104f760025481565b6040519081526020016101f3565b34801561051157600080fd5b5061024761052036600461405f565b63f23a6e6160e01b95945050505050565b34801561053d57600080fd5b506101c561054c3660046138aa565b61172f565b6000546001600160a01b031633146105b05760405162461bcd60e51b815260206004820181905260248201527f4f776e61626c653a2063616c6c6572206973206e6f7420746865206f776e657260448201526064015b60405180910390fd5b6001600160a01b03811615610644576040516370a0823160e01b81523060048201526000906001600160a01b038316906370a0823190602401602060405180830381865afa158015610606573d6000803e3d6000fd5b505050506040513d601f19601f8201168201806040525081019061062a91906140c8565b90506106406001600160a01b038316338361180e565b5050565b476106403382611871565b50565b60006001600160e01b03198216630271189760e51b148061068357506301ffc9a760e01b6001600160e01b03198316145b92915050565b6000546001600160a01b031633146106e35760405162461bcd60e51b815260206004820181905260248201527f4f776e61626c653a2063616c6c6572206973206e6f7420746865206f776e657260448201526064016105a7565b60018054821515600160a01b027fffffffffffffffffffffff00ffffffffffffffffffffffffffffffffffffffff9091161790556040517f0e2fb031ee032dc02d8011dc50b816eb450cf856abd8261680dac74f72165bd29061074b90831515815260200190565b60405180910390a150565b600154600160a01b900460ff16801561077a57506000546001600160a01b03163314155b1561079857604051632ac76fcf60e21b815260040160405180910390fd5b6040516340d1b7db60e11b8152600481018a90526000907f00000000000000000000000000000000000000000000000000000000000000006001600160a01b0316906381a36fb690602401602060405180830381865afa158015610800573d6000803e3d6000fd5b505050506040513d601f19601f8201168201806040525081019061082491906140e1565b9050806001600160a01b03166306f26dc26040518163ffffffff1660e01b8152600401602060405180830381865afa158015610864573d6000803e3d6000fd5b505050506040513d601f19601f8201168201806040525081019061088891906140fe565b6108a557604051630f87f71360e31b815260040160405180910390fd5b6000816001600160a01b0316631ba46cfd6040518163ffffffff1660e01b8152600401602060405180830381865afa1580156108e5573d6000803e3d6000fd5b505050506040513d601f19601f8201168201806040525081019061090991906140e1565b604051631759616b60e11b81529091506001600160a01b03821690632eb2c2d69061094290339030908f908f908f908f9060040161416a565b600060405180830381600087803b15801561095c57600080fd5b505af1158015610970573d6000803e3d6000fd5b505060405163a22cb46560e01b81526001600160a01b038581166004830152600160248301528416925063a22cb4659150604401600060405180830381600087803b1580156109be57600080fd5b505af11580156109d2573d6000803e3d6000fd5b505050506000826001600160a01b031663b6c958b0348d8d8d8d8d8d338d8f60016040518c63ffffffff1660e01b8152600401610a189a999897969594939291906141c9565b60206040518083038185885af1158015610a36573d6000803e3d6000fd5b50505050506040513d601f19601f82011682018060405250810190610a5b91906140c8565b9050610a66846118e5565b7f1b449cc3f7099b879bbc0f00308aa1214fc73cd8cfb77408001b2a17e7eabb008c8c8c8c8c8c8c888c604051610aa59998979695949392919061423a565b60405180910390a1505050505050505050505050565b600154600160a01b900460ff168015610adf57506000546001600160a01b03163314155b15610afd57604051632ac76fcf60e21b815260040160405180910390fd5b600080610b0b898989611980565b915091506000610b3d837f00000000000000000000000000000000000000000000000000000000000000008989611a17565b5090506000610b4c848a611ba5565b905080821015610b6f576040516333ebabf760e01b815260040160405180910390fd5b610b7b8b826001611c8f565b60008515610b9257610b8f848c8c86611e89565b90505b610b9c81836142b8565b610ba690846142d0565b9250610bb28784612072565b604080518d8152602081018c90529081018490526001600160a01b03881660608201526080810182905260a081018390527f9af014271d6e0a4ddb4fc79025d8a27025ea290b30dfc788a79aa055e2b5a2a79060c001610aa5565b600154600160a01b900460ff168015610c3157506000546001600160a01b03163314155b15610c4f57604051632ac76fcf60e21b815260040160405180910390fd5b8015610cf15760008080610c65848601866142fb565b9250925092507f00000000000000000000000000000000000000000000000000000000000000006001600160a01b0316632b67b5708484846040518463ffffffff1660e01b8152600401610cbb93929190614443565b600060405180830381600087803b158015610cd557600080fd5b505af1158015610ce9573d6000803e3d6000fd5b505050505050505b7f00000000000000000000000000000000000000000000000000000000000000006001600160a01b03166336c785163330610d2f87602001356120fc565b610d3c60208901896138aa565b60405160e086901b6001600160e01b03191681526001600160a01b039485166004820152928416602484015290831660448301529091166064820152608401600060405180830381600087803b158015610d9557600080fd5b505af1158015610da9573d6000803e3d6000fd5b50505050610db683612117565b505050565b600154600160a01b900460ff168015610ddf57506000546001600160a01b03163314155b15610dfd57604051632ac76fcf60e21b815260040160405180910390fd5b6000610e0a888888612534565b50905060606000826001600160a01b031663b6c958b0348b8b868c8c338c8e60016040518b63ffffffff1660e01b8152600401610e4f999897969594939291906144fd565b60206040518083038185885af1158015610e6d573d6000803e3d6000fd5b50505050506040513d601f19601f82011682018060405250810190610e9291906140c8565b9050610e9d846118e5565b7fda75130c11e2803fc0c6a1650388bb059fc4bec5f4714f07e300491568d8cae28a8a8a8a8a868a604051610ed8979695949392919061456c565b60405180910390a150505050505050505050565b6000546001600160a01b03163314610f465760405162461bcd60e51b815260206004820181905260248201527f4f776e61626c653a2063616c6c6572206973206e6f7420746865206f776e657260448201526064016105a7565b6001805473ffffffffffffffffffffffffffffffffffffffff19166001600160a01b0383169081179091556040519081527f10ee97236663d47ca19791254e43c5503a628b168573ac298f4d6cc5ef853ddc9060200161074b565b6000546001600160a01b03163314610ffb5760405162461bcd60e51b815260206004820181905260248201527f4f776e61626c653a2063616c6c6572206973206e6f7420746865206f776e657260448201526064016105a7565b611005600061266e565b565b600154600160a01b900460ff16801561102b57506000546001600160a01b03163314155b1561104957604051632ac76fcf60e21b815260040160405180910390fd5b6000806110598b8b8b8b8b6126cb565b91509150600061106b8b8b8b8b61298d565b9050600061109b847f00000000000000000000000000000000000000000000000000000000000000008a8a611a17565b50905060006110aa8584611ba5565b9050808210156110cd576040516333ebabf760e01b815260040160405180910390fd5b6110d98e826001611c8f565b600086156110f3576110f0858f8f8f8f89896129c1565b90505b6110fd81836142b8565b61110790846142d0565b92506111138884612072565b7f9af014271d6e0a4ddb4fc79025d8a27025ea290b30dfc788a79aa055e2b5a2a78f85858b858760405161117896959493929190958652602086019490945260408501929092526001600160a01b03166060840152608083015260a082015260c00190565b60405180910390a1505050505050505050505050505050565b6000546001600160a01b031633146111eb5760405162461bcd60e51b815260206004820181905260248201527f4f776e61626c653a2063616c6c6572206973206e6f7420746865206f776e657260448201526064016105a7565b60028190556040518181527ff3a0ef1c6d5f308cc6362416c0c32bb75d56f985671d438858daf25edd5b73a29060200161074b565b600154600160a01b900460ff16801561124457506000546001600160a01b03163314155b1561126257604051632ac76fcf60e21b815260040160405180910390fd5b61128933306020840180359061127890866138aa565b6001600160a01b0316929190612bd8565b61064f81612117565b600154600160a01b900460ff1680156112b657506000546001600160a01b03163314155b156112d457604051632ac76fcf60e21b815260040160405180910390fd5b7f00000000000000000000000000000000000000000000000000000000000000006001600160a01b031663d0e30db0346040518263ffffffff1660e01b81526004016000604051808303818588803b15801561132f57600080fd5b505af1158015611343573d6000803e3d6000fd5b50506040516340d1b7db60e11b8152600481018c9052600093507f00000000000000000000000000000000000000000000000000000000000000006001600160a01b031692506381a36fb69150602401602060405180830381865afa1580156113b0573d6000803e3d6000fd5b505050506040513d601f19601f820116820180604052508101906113d491906140e1565b6040516370a0823160e01b8152306004820152909150600090819081906001600160a01b037f000000000000000000000000000000000000000000000000000000000000000016906370a0823190602401602060405180830381865afa158015611442573d6000803e3d6000fd5b505050506040513d601f19601f8201168201806040525081019061146691906140c8565b90506114947f0000000000000000000000000000000000000000000000000000000000000000858b8b611a17565b5091506114a9670de0b6b3a76400008b6145bd565b8210156114c95760405163c70e7fcd60e01b815260040160405180910390fd5b6040516370a0823160e01b81523060048201527f00000000000000000000000000000000000000000000000000000000000000006001600160a01b0316906370a0823190602401602060405180830381865afa15801561152d573d6000803e3d6000fd5b505050506040513d601f19601f8201168201806040525081019061155191906140c8565b61155b90826142d0565b92506000905061156b83346142d0565b90506115987f00000000000000000000000000000000000000000000000000000000000000008583612c16565b6040516314b7e24f60e11b81526000906001600160a01b0386169063296fc49e906115d2908f908f908d9088908e906001906004016145dc565b6020604051808303816000875af11580156115f1573d6000803e3d6000fd5b505050506040513d601f19601f8201168201806040525081019061161591906140c8565b905082670de0b6b3a764000061162b8d876145bd565b61163591906145bd565b61163f9190614620565b9350600086156116bf576000866001600160a01b0316631ba46cfd6040518163ffffffff1660e01b8152600401602060405180830381865afa158015611689573d6000803e3d6000fd5b505050506040513d601f19601f820116820180604052508101906116ad91906140e1565b90506116bb818f8f89611e89565b9150505b6116ca866001612d0f565b7f1bee93f76102c6aca0e829ff7984261cfcb8480b2308d5f92bfa2b82f99ae9d68e8e8e846116f9878b6142b8565b61170391906142b8565b8d8660405161171796959493929190614642565b60405180910390a15050505050505050505050505050565b6000546001600160a01b031633146117895760405162461bcd60e51b815260206004820181905260248201527f4f776e61626c653a2063616c6c6572206973206e6f7420746865206f776e657260448201526064016105a7565b6001600160a01b0381166118055760405162461bcd60e51b815260206004820152602660248201527f4f776e61626c653a206e6577206f776e657220697320746865207a65726f206160448201527f646472657373000000000000000000000000000000000000000000000000000060648201526084016105a7565b61064f8161266e565b6040516001600160a01b038316602482015260448101829052610db690849063a9059cbb60e01b906064015b60408051601f198184030181529190526020810180516001600160e01b03166001600160e01b031990931692909217909152612e90565b6000826001600160a01b03168260405160006040518083038185875af1925050503d80600081146118be576040519150601f19603f3d011682016040523d82523d6000602084013e6118c3565b606091505b5050905080610db65760405163260e7d5b60e11b815260040160405180910390fd5b6001600160a01b03811661190c5760405163d92e233d60e01b815260040160405180910390fd5b6000816001600160a01b03164760405160006040518083038185875af1925050503d8060008114611959576040519150601f19603f3d011682016040523d82523d6000602084013e61195e565b606091505b50509050806106405760405163260e7d5b60e11b815260040160405180910390fd5b60008061198e858585612534565b604051630cb343fd60e31b815291935091506060906001600160a01b0384169063659a1fe8906119ca9088908890869033903090600401614683565b6020604051808303816000875af11580156119e9573d6000803e3d6000fd5b505050506040513d601f19601f82011682018060405250810190611a0d91906140c8565b5050935093915050565b6040516370a0823160e01b8152306004820152600090819081906001600160a01b038716906370a0823190602401602060405180830381865afa158015611a62573d6000803e3d6000fd5b505050506040513d601f19601f82011682018060405250810190611a8691906140c8565b600154909150611aa09088906001600160a01b0316612f75565b6001546040516000916001600160a01b031690611ac090889088906146cf565b6000604051808303816000865af19150503d8060008114611afd576040519150601f19603f3d011682016040523d82523d6000602084013e611b02565b606091505b5050905080611b245760405163081ceff360e41b815260040160405180910390fd5b6040516370a0823160e01b81523060048201526001600160a01b038816906370a0823190602401602060405180830381865afa158015611b68573d6000803e3d6000fd5b505050506040513d601f19601f82011682018060405250810190611b8c91906140c8565b9250611b9882846142d0565b9350505094509492505050565b600080836001600160a01b03166372188e3f6040518163ffffffff1660e01b8152600401606060405180830381865afa158015611be6573d6000803e3d6000fd5b505050506040513d601f19601f82011682018060405250810190611c0a91906146df565b50909150506001600160a01b03841663b8517b78611c2885846145bd565b6040518263ffffffff1660e01b8152600401611c4691815260200190565b602060405180830381865afa158015611c63573d6000803e3d6000fd5b505050506040513d601f19601f82011682018060405250810190611c8791906140c8565b949350505050565b8115610db65760007f00000000000000000000000000000000000000000000000000000000000000006001600160a01b0316630d43e8ad6040518163ffffffff1660e01b8152600401602060405180830381865afa158015611cf5573d6000803e3d6000fd5b505050506040513d601f19601f82011682018060405250810190611d1991906140e1565b905081611d95577f00000000000000000000000000000000000000000000000000000000000000006001600160a01b031663d0e30db0846040518263ffffffff1660e01b81526004016000604051808303818588803b158015611d7b57600080fd5b505af1158015611d8f573d6000803e3d6000fd5b50505050505b60405163a9059cbb60e01b81526001600160a01b038281166004830152602482018590527f0000000000000000000000000000000000000000000000000000000000000000169063a9059cbb906044016020604051808303816000875af1158015611e04573d6000803e3d6000fd5b505050506040513d601f19601f82011682018060405250810190611e2891906140fe565b506040516391c05b0b60e01b8152600481018590526001600160a01b038216906391c05b0b90602401600060405180830381600087803b158015611e6b57600080fd5b505af1158015611e7f573d6000803e3d6000fd5b5050505050505050565b6040516301ffc9a760e01b815263152a902d60e11b600482015260009081906001600160a01b038716906301ffc9a790602401602060405180830381865afa158015611ed9573d6000803e3d6000fd5b505050506040513d601f19601f82011682018060405250810190611efd91906140fe565b90508015612069576000611f118585614620565b905060005b8581101561206657600080896001600160a01b0316632a55205a8a8a86818110611f4257611f4261470d565b90506020020135866040518363ffffffff1660e01b8152600401611f70929190918252602082015260400190565b6040805180830381865afa158015611f8c573d6000803e3d6000fd5b505050506040513d601f19601f82011682018060405250810190611fb09190614723565b9092509050611fbf81876142b8565b9550801561205c5760405163a9059cbb60e01b81526001600160a01b038381166004830152602482018390527f0000000000000000000000000000000000000000000000000000000000000000169063a9059cbb906044016020604051808303816000875af1158015612036573d6000803e3d6000fd5b505050506040513d601f19601f8201168201806040525081019061205a91906140fe565b505b5050600101611f16565b50505b50949350505050565b80156120f357604051632e1a7d4d60e01b8152600481018290527f00000000000000000000000000000000000000000000000000000000000000006001600160a01b031690632e1a7d4d90602401600060405180830381600087803b1580156120da57600080fd5b505af11580156120ee573d6000803e3d6000fd5b505050505b610640826118e5565b806001600160a01b038116811461211257600080fd5b919050565b61215a61212760208301836138aa565b7f000000000000000000000000000000000000000000000000000000000000000061215560a0850185614751565b611a17565b50506040516370a0823160e01b81523060048201526000907f00000000000000000000000000000000000000000000000000000000000000006001600160a01b0316906370a0823190602401602060405180830381865afa1580156121c3573d6000803e3d6000fd5b505050506040513d601f19601f820116820180604052508101906121e791906140c8565b604080516340d1b7db60e11b81529084013560048201529091506000906001600160a01b037f000000000000000000000000000000000000000000000000000000000000000016906381a36fb690602401602060405180830381865afa158015612255573d6000803e3d6000fd5b505050506040513d601f19601f8201168201806040525081019061227991906140e1565b90506122ad7f00000000000000000000000000000000000000000000000000000000000000008261215560c0870187614751565b50506040516370a0823160e01b81523060048201526000907f00000000000000000000000000000000000000000000000000000000000000006001600160a01b0316906370a0823190602401602060405180830381865afa158015612316573d6000803e3d6000fd5b505050506040513d601f19601f8201168201806040525081019061233a91906140c8565b9050600061234882856142d0565b90506123757f00000000000000000000000000000000000000000000000000000000000000008484612c16565b60006001600160a01b03841663296fc49e6123936060890189614798565b6123a46101008b0160e08c016138aa565b878b6080013560016040518763ffffffff1660e01b81526004016123cd969594939291906145dc565b6020604051808303816000875af11580156123ec573d6000803e3d6000fd5b505050506040513d601f19601f8201168201806040525081019061241091906140c8565b90506000612426610120880161010089016138ff565b156124ac576000856001600160a01b0316631ba46cfd6040518163ffffffff1660e01b8152600401602060405180830381865afa15801561246b573d6000803e3d6000fd5b505050506040513d601f19601f8201168201806040525081019061248f91906140e1565b90506124a8816124a260608b018b614798565b87611e89565b9150505b6124b7856001612d0f565b7f1bee93f76102c6aca0e829ff7984261cfcb8480b2308d5f92bfa2b82f99ae9d660408801356124ea60608a018a614798565b846124f587896142b8565b6124ff91906142b8565b6125106101008d0160e08e016138aa565b8660405161252396959493929190614642565b60405180910390a150505050505050565b6040516340d1b7db60e11b81526004810184905260009081906001600160a01b037f000000000000000000000000000000000000000000000000000000000000000016906381a36fb690602401602060405180830381865afa15801561259e573d6000803e3d6000fd5b505050506040513d601f19601f820116820180604052508101906125c291906140e1565b9150816001600160a01b0316631ba46cfd6040518163ffffffff1660e01b8152600401602060405180830381865afa158015612602573d6000803e3d6000fd5b505050506040513d601f19601f8201168201806040525081019061262691906140e1565b9050612666818386868080602002602001604051908101604052809392919081815260200183836020028082843760009201919091525061311192505050565b935093915050565b600080546001600160a01b0383811673ffffffffffffffffffffffffffffffffffffffff19831681178455604051919092169283917f8be0079c531659141344cd1fd0a4f28419497f9722a3daafe3b4186f6b6457e09190a35050565b6040516340d1b7db60e11b81526004810186905260009081906001600160a01b037f000000000000000000000000000000000000000000000000000000000000000016906381a36fb690602401602060405180830381865afa158015612735573d6000803e3d6000fd5b505050506040513d601f19601f8201168201806040525081019061275991906140e1565b9150816001600160a01b03166306f26dc26040518163ffffffff1660e01b8152600401602060405180830381865afa158015612799573d6000803e3d6000fd5b505050506040513d601f19601f820116820180604052508101906127bd91906140fe565b6127da57604051630f87f71360e31b815260040160405180910390fd5b816001600160a01b0316631ba46cfd6040518163ffffffff1660e01b8152600401602060405180830381865afa158015612818573d6000803e3d6000fd5b505050506040513d601f19601f8201168201806040525081019061283c91906140e1565b604051631759616b60e11b81529091506001600160a01b03821690632eb2c2d69061287590339030908b908b908b908b9060040161416a565b600060405180830381600087803b15801561288f57600080fd5b505af11580156128a3573d6000803e3d6000fd5b505060405163a22cb46560e01b81526001600160a01b038581166004830152600160248301528416925063a22cb4659150604401600060405180830381600087803b1580156128f157600080fd5b505af1158015612905573d6000803e3d6000fd5b5050604051630cb343fd60e31b81526001600160a01b038516925063659a1fe8915061293f908990899089908990339030906004016147e2565b6020604051808303816000875af115801561295e573d6000803e3d6000fd5b505050506040513d601f19601f8201168201806040525081019061298291906140c8565b509550959350505050565b6000805b84811015612069578383828181106129ab576129ab61470d565b9050602002013582019150806001019050612991565b6040516301ffc9a760e01b815263152a902d60e11b600482015260009081906001600160a01b038a16906301ffc9a790602401602060405180830381865afa158015612a11573d6000803e3d6000fd5b505050506040513d601f19601f82011682018060405250810190612a3591906140fe565b90508015612bcc576000612a498585614620565b905060005b88811015612bc9576000808c6001600160a01b0316632a55205a8d8d86818110612a7a57612a7a61470d565b90506020020135866040518363ffffffff1660e01b8152600401612aa8929190918252602082015260400190565b6040805180830381865afa158015612ac4573d6000803e3d6000fd5b505050506040513d601f19601f82011682018060405250810190612ae89190614723565b9150915060008a8a85818110612b0057612b0061470d565b9050602002013582612b1291906145bd565b9050612b1e81886142b8565b96508015612bbb5760405163a9059cbb60e01b81526001600160a01b038481166004830152602482018390527f0000000000000000000000000000000000000000000000000000000000000000169063a9059cbb906044016020604051808303816000875af1158015612b95573d6000803e3d6000fd5b505050506040513d601f19601f82011682018060405250810190612bb991906140fe565b505b836001019350505050612a4e565b50505b50979650505050505050565b6040516001600160a01b0380851660248301528316604482015260648101829052612c109085906323b872dd60e01b9060840161183a565b50505050565b604051636eb1769f60e11b81523060048201526001600160a01b0383811660248301526000919085169063dd62ed3e90604401602060405180830381865afa158015612c66573d6000803e3d6000fd5b505050506040513d601f19601f82011682018060405250810190612c8a91906140c8565b905080821115612c105760405163095ea7b360e01b81526001600160a01b038481166004830152600019602483015285169063095ea7b3906044016020604051808303816000875af1158015612ce4573d6000803e3d6000fd5b505050506040513d601f19601f82011682018060405250810190612d0891906140fe565b5050505050565b60008115612d2357612d2033613191565b90505b6040516370a0823160e01b81523060048201526000906001600160a01b038516906370a0823190602401602060405180830381865afa158015612d6a573d6000803e3d6000fd5b505050506040513d601f19601f82011682018060405250810190612d8e91906140c8565b905060008115612e4157600254821115612da9575033612dcc565b507f00000000000000000000000000000000000000000000000000000000000000005b60405163a9059cbb60e01b81526001600160a01b0382811660048301526024820184905286169063a9059cbb906044016020604051808303816000875af1158015612e1b573d6000803e3d6000fd5b505050506040513d601f19601f82011682018060405250810190612e3f91906140fe565b505b60408051848152602081018490526001600160a01b0383168183015290517fd9b066a634638844b3b4701f7bfb9d8791265979e46666f7d7bc04cf4c06c9709181900360600190a15050505050565b6000612ee5826040518060400160405280602081526020017f5361666545524332303a206c6f772d6c6576656c2063616c6c206661696c6564815250856001600160a01b03166132289092919063ffffffff16565b805190915015610db65780806020019051810190612f0391906140fe565b610db65760405162461bcd60e51b815260206004820152602a60248201527f5361666545524332303a204552433230206f7065726174696f6e20646964206e60448201527f6f7420737563636565640000000000000000000000000000000000000000000060648201526084016105a7565b60405163927da10560e01b81523060048201526001600160a01b03838116602483015282811660448301526000917f00000000000000000000000000000000000000000000000000000000000000009091169063927da10590606401606060405180830381865afa158015612fee573d6000803e3d6000fd5b505050506040513d601f19601f820116820180604052508101906130129190614830565b509091505073f0000000000000000000000000000000000000006001600160a01b0382161061304057505050565b6130766001600160a01b0384167f0000000000000000000000000000000000000000000000000000000000000000600019613241565b6040516387517c4560e01b81526001600160a01b03848116600483015283811660248301526044820181905265ffffffffffff60648301527f000000000000000000000000000000000000000000000000000000000000000016906387517c4590608401600060405180830381600087803b1580156130f457600080fd5b505af1158015613108573d6000803e3d6000fd5b50505050505050565b60005b8151811015612c1057613141848383815181106131335761313361470d565b60200260200101518561335d565b73b47e3cd837ddf8e4c57f05d70ab865de6e193bba196001600160a01b038516016131895761318982828151811061317b5761317b61470d565b60200260200101518461362b565b600101613114565b6040516370a0823160e01b81523060048201526000907f00000000000000000000000000000000000000000000000000000000000000006001600160a01b0316906370a0823190602401602060405180830381865afa1580156131f8573d6000803e3d6000fd5b505050506040513d601f19601f8201168201806040525081019061321c91906140c8565b90506121128282612072565b60606132378484600085613714565b90505b9392505050565b8015806132bb5750604051636eb1769f60e11b81523060048201526001600160a01b03838116602483015284169063dd62ed3e90604401602060405180830381865afa158015613295573d6000803e3d6000fd5b505050506040513d601f19601f820116820180604052508101906132b991906140c8565b155b61332d5760405162461bcd60e51b815260206004820152603660248201527f5361666545524332303a20617070726f76652066726f6d206e6f6e2d7a65726f60448201527f20746f206e6f6e2d7a65726f20616c6c6f77616e63650000000000000000000060648201526084016105a7565b6040516001600160a01b038316602482015260448101829052610db690849063095ea7b360e01b9060640161183a565b60606001600160a01b03841673b47e3cd837ddf8e4c57f05d70ab865de6e193bbb148015906133a957506001600160a01b0384167306012c8cf97bead5deae237070f9587f8e7a266d14155b15613401576040513360248201526001600160a01b03831660448201526064810184905260840160408051601f198184030181529190526020810180516001600160e01b0316632142170760e11b17905290506135a9565b73b47e3cd837ddf8e4c57f05d70ab865de6e193bba196001600160a01b038516016135635760008360405160240161343b91815260200190565b60408051601f198184030181529181526020820180516001600160e01b0316630b02f02d60e31b17905251909150600090819073b47e3cd837ddf8e4c57f05d70ab865de6e193bbb9061348f90859061487d565b600060405180830381855afa9150503d80600081146134ca576040519150601f19603f3d011682016040523d82523d6000602084013e6134cf565b606091505b50915091506000818060200190518101906134ea91906140e1565b905082158061350257506001600160a01b0381163314155b1561352057604051631022318760e21b815260040160405180910390fd5b6040516024810188905260440160408051601f198184030181529190526020810180516001600160e01b031663104c9fd360e31b17905294506135a99350505050565b6040513360248201523060448201526064810184905260840160408051601f198184030181529190526020810180516001600160e01b03166323b872dd60e01b17905290505b600080856001600160a01b0316836040516135c4919061487d565b6000604051808303816000865af19150503d8060008114613601576040519150601f19603f3d011682016040523d82523d6000602084013e613606565b606091505b50915091508181906131085760405162461bcd60e51b81526004016105a79190614899565b604051602481018390526000604482018190526001600160a01b03831660648301529060840160408051601f198184030181529181526020820180516001600160e01b031663bf31196f60e01b17905251909150600090819073b47e3cd837ddf8e4c57f05d70ab865de6e193bbb906136a590859061487d565b6000604051808303816000865af19150503d80600081146136e2576040519150601f19603f3d011682016040523d82523d6000602084013e6136e7565b606091505b509150915081819061370c5760405162461bcd60e51b81526004016105a79190614899565b505050505050565b60608247101561378c5760405162461bcd60e51b815260206004820152602660248201527f416464726573733a20696e73756666696369656e742062616c616e636520666f60448201527f722063616c6c000000000000000000000000000000000000000000000000000060648201526084016105a7565b6001600160a01b0385163b6137e35760405162461bcd60e51b815260206004820152601d60248201527f416464726573733a2063616c6c20746f206e6f6e2d636f6e747261637400000060448201526064016105a7565b600080866001600160a01b031685876040516137ff919061487d565b60006040518083038185875af1925050503d806000811461383c576040519150601f19603f3d011682016040523d82523d6000602084013e613841565b606091505b509150915061385182828661385c565b979650505050505050565b6060831561386b57508161323a565b82511561387b5782518084602001fd5b8160405162461bcd60e51b81526004016105a79190614899565b6001600160a01b038116811461064f57600080fd5b6000602082840312156138bc57600080fd5b813561323a81613895565b6000602082840312156138d957600080fd5b81356001600160e01b03198116811461323a57600080fd5b801515811461064f57600080fd5b60006020828403121561391157600080fd5b813561323a816138f1565b803561211281613895565b634e487b7160e01b600052604160045260246000fd5b6040516060810167ffffffffffffffff8111828210171561396057613960613927565b60405290565b6040516080810167ffffffffffffffff8111828210171561396057613960613927565b604051601f8201601f1916810167ffffffffffffffff811182821017156139b2576139b2613927565b604052919050565b600082601f8301126139cb57600080fd5b813567ffffffffffffffff8111156139e5576139e5613927565b6139f8601f8201601f1916602001613989565b818152846020838601011115613a0d57600080fd5b816020850160208301376000918101602001919091529392505050565b60008060008060808587031215613a4057600080fd5b8435613a4b81613895565b93506020850135613a5b81613895565b925060408501359150606085013567ffffffffffffffff811115613a7e57600080fd5b613a8a878288016139ba565b91505092959194509250565b60008083601f840112613aa857600080fd5b50813567ffffffffffffffff811115613ac057600080fd5b6020830191508360208260051b8501011115613adb57600080fd5b9250929050565b600080600080600080600080600060c08a8c031215613b0057600080fd5b8935985060208a013567ffffffffffffffff80821115613b1f57600080fd5b613b2b8d838e01613a96565b909a50985060408c0135915080821115613b4457600080fd5b613b508d838e01613a96565b909850965060608c0135915080821115613b6957600080fd5b50613b768c828d01613a96565b90955093505060808a0135915060a08a0135613b9181613895565b809150509295985092959850929598565b60008083601f840112613bb457600080fd5b50813567ffffffffffffffff811115613bcc57600080fd5b602083019150836020828501011115613adb57600080fd5b600080600080600080600060a0888a031215613bff57600080fd5b87359650602088013567ffffffffffffffff80821115613c1e57600080fd5b613c2a8b838c01613a96565b909850965060408a0135915080821115613c4357600080fd5b50613c508a828b01613ba2565b9095509350506060880135613c6481613895565b91506080880135613c74816138f1565b8091505092959891949750929550565b60006101208284031215613c9757600080fd5b50919050565b600080600060408486031215613cb257600080fd5b833567ffffffffffffffff80821115613cca57600080fd5b613cd687838801613c84565b94506020860135915080821115613cec57600080fd5b50613cf986828701613ba2565b9497909650939450505050565b600080600080600080600060a0888a031215613d2157600080fd5b87359650602088013567ffffffffffffffff80821115613d4057600080fd5b613d4c8b838c01613a96565b909850965060408a0135915080821115613d6557600080fd5b50613d728a828b01613a96565b909550935050606088013591506080880135613c7481613895565b600080600080600080600080600060c08a8c031215613dab57600080fd5b8935985060208a013567ffffffffffffffff80821115613dca57600080fd5b613dd68d838e01613a96565b909a50985060408c0135915080821115613def57600080fd5b613dfb8d838e01613a96565b909850965060608c0135915080821115613e1457600080fd5b50613e218c828d01613ba2565b90955093505060808a0135613e3581613895565b915060a08a0135613b91816138f1565b600060208284031215613e5757600080fd5b5035919050565b600082601f830112613e6f57600080fd5b8135602067ffffffffffffffff821115613e8b57613e8b613927565b8160051b613e9a828201613989565b9283528481018201928281019087851115613eb457600080fd5b83870192505b8483101561385157823582529183019190830190613eba565b600080600080600060a08688031215613eeb57600080fd5b8535613ef681613895565b94506020860135613f0681613895565b9350604086013567ffffffffffffffff80821115613f2357600080fd5b613f2f89838a01613e5e565b94506060880135915080821115613f4557600080fd5b613f5189838a01613e5e565b93506080880135915080821115613f6757600080fd5b50613f74888289016139ba565b9150509295509295909350565b600060208284031215613f9357600080fd5b813567ffffffffffffffff811115613faa57600080fd5b611c8784828501613c84565b60008060008060008060008060c0898b031215613fd257600080fd5b88359750602089013567ffffffffffffffff80821115613ff157600080fd5b613ffd8c838d01613a96565b909950975060408b013591508082111561401657600080fd5b506140238b828c01613ba2565b909650945050606089013561403781613895565b92506080890135915060a089013561404e816138f1565b809150509295985092959890939650565b600080600080600060a0868803121561407757600080fd5b853561408281613895565b9450602086013561409281613895565b93506040860135925060608601359150608086013567ffffffffffffffff8111156140bc57600080fd5b613f74888289016139ba565b6000602082840312156140da57600080fd5b5051919050565b6000602082840312156140f357600080fd5b815161323a81613895565b60006020828403121561411057600080fd5b815161323a816138f1565b81835260007f07ffffffffffffffffffffffffffffffffffffffffffffffffffffffffffffff83111561414d57600080fd5b8260051b8083602087013760009401602001938452509192915050565b60006001600160a01b03808916835280881660208401525060a0604083015261419760a08301868861411b565b82810360608401526141aa81858761411b565b8381036080909401939093525050600081526020019695505050505050565b60e0815260006141dd60e083018c8e61411b565b82810360208401526141f0818b8d61411b565b9050828103604084015261420581898b61411b565b6001600160a01b0397881660608501529590961660808301525060a0810192909252151560c090910152979650505050505050565b89815260c06020820152600061425460c083018a8c61411b565b828103604084015261426781898b61411b565b9050828103606084015261427c81878961411b565b9150508360808301526001600160a01b03831660a08301529a9950505050505050505050565b634e487b7160e01b600052601160045260246000fd5b600082198211156142cb576142cb6142a2565b500190565b6000828210156142e2576142e26142a2565b500390565b65ffffffffffff8116811461064f57600080fd5b600080600083850361010081121561431257600080fd5b843561431d81613895565b9350601f190160c081121561433157600080fd5b61433961393d565b608082121561434757600080fd5b61434f613966565b9150602086013561435f81613895565b8252604086013561436f81613895565b60208301526060860135614382816142e7565b60408301526080860135614395816142e7565b60608301528181526143a960a0870161391c565b602082015260c0860135604082015292505060e084013567ffffffffffffffff8111156143d557600080fd5b6143e1868287016139ba565b9150509250925092565b60005b838110156144065781810151838201526020016143ee565b83811115612c105750506000910152565b6000815180845261442f8160208601602086016143eb565b601f01601f19169290920160200192915050565b60006101006001600160a01b0380871684528551818151166020860152816020820151166040860152604081015165ffffffffffff80821660608801528060608401511660808801525050508060208701511660a085015250604085015160c08401528060e08401526144b881840185614417565b9695505050505050565b600081518084526020808501945080840160005b838110156144f2578151875295820195908201906001016144d6565b509495945050505050565b60e08152600061451160e083018b8d61411b565b8281036020840152614523818b6144c2565b9050828103604084015261453881898b61411b565b6001600160a01b0397881660608501529590961660808301525060a0810192909252151560c0909101529695505050505050565b87815260a06020820152600061458660a08301888a61411b565b828103604084015261459981878961411b565b9150508360608301526001600160a01b038316608083015298975050505050505050565b60008160001904831182151516156145d7576145d76142a2565b500290565b60a0815260006145f060a08301888a61411b565b90506001600160a01b03861660208301528460408301528360608301528215156080830152979650505050505050565b60008261463d57634e487b7160e01b600052601260045260246000fd5b500490565b86815260a06020820152600061465c60a08301878961411b565b6040830195909552506001600160a01b039290921660608301526080909101529392505050565b60808152600061469760808301878961411b565b82810360208401526146a981876144c2565b9150506001600160a01b0380851660408401528084166060840152509695505050505050565b8183823760009101908152919050565b6000806000606084860312156146f457600080fd5b8351925060208401519150604084015190509250925092565b634e487b7160e01b600052603260045260246000fd5b6000806040838503121561473657600080fd5b825161474181613895565b6020939093015192949293505050565b6000808335601e1984360301811261476857600080fd5b83018035915067ffffffffffffffff82111561478357600080fd5b602001915036819003821315613adb57600080fd5b6000808335601e198436030181126147af57600080fd5b83018035915067ffffffffffffffff8211156147ca57600080fd5b6020019150600581901b3603821315613adb57600080fd5b6080815260006147f660808301888a61411b565b828103602084015261480981878961411b565b9150506001600160a01b038085166040840152808416606084015250979650505050505050565b60008060006060848603121561484557600080fd5b835161485081613895565b6020850151909350614861816142e7565b6040850151909250614872816142e7565b809150509250925092565b6000825161488f8184602087016143eb565b9190910192915050565b60208152600061323a602083018461441756fea164736f6c634300080f000a",
  "devdoc": {
    "author": "@apoorvlathey",
    "details": "This Zap must be excluded from the vault fees, as vault fees handled via custom logic here.",
    "events": {
      "Buy(uint256,uint256[],uint256,address,uint256)": {
        "params": {
          "ethSpent": "The amount of ETH spent in the buy",
          "netRoyaltyAmount": "The royalty amount sent",
          "nftIds": "The nftIds bought",
          "to": "The user affected by the event"
        }
      },
      "DustReturned(uint256,uint256,address)": {
        "params": {
          "ethAmount": "Amount of ETH returned to user",
          "to": "The user affected by the event",
          "vTokenAmount": "Amount of vToken returned to user"
        }
      },
      "Sell(uint256,uint256,uint256,address,uint256,uint256)": {
        "params": {
          "count": "The number of tokens affected by the event",
          "ethReceived": "The amount of ETH received in the sell",
          "netRoyaltyAmount": "The royalty amount sent",
          "to": "The user affected by the event",
          "wethFees": "Vault fees paid"
        }
      },
      "Swap(uint256,uint256[],uint256[],uint256,address)": {
        "params": {
          "ethSpent": "The amount of ETH spent in the swap",
          "to": "The user affected by the event"
        }
      }
    },
    "kind": "dev",
    "methods": {
      "buyNFTsWithERC20((address,uint256,uint256,uint256[],uint256,bytes,bytes,address,bool))": {
        "details": "ERC20 --{-sell-> [UniversalRouter] -> ETH -> [UniversalRouter] -> vTokens + ETH --redeem-> [vault] --}-> idsOut"
      },
      "buyNFTsWithETH(uint256,uint256[],bytes,address,uint256,bool)": {
        "details": "ETH --{-sell-> [UniversalRouter] -> vTokens + ETH --redeem-> [vault] --}-> idsOut",
        "params": {
          "executeCallData": "Encoded calldata for Universal Router's `execute` function",
          "idsOut": "An array of any token IDs to be redeemed",
          "to": "The recipient of the token IDs from the tx",
          "vaultId": "The ID of the NFTX vault"
        }
      },
      "onERC721Received(address,address,uint256,bytes)": {
        "details": "See {IERC721Receiver-onERC721Received}. Always returns `IERC721Receiver.onERC721Received.selector`."
      },
      "owner()": {
        "details": "Returns the address of the current owner."
      },
      "pause(bool)": {
        "params": {
          "paused_": "New pause state"
        }
      },
      "renounceOwnership()": {
        "details": "Leaves the contract without owner. It will not be possible to call `onlyOwner` functions anymore. Can only be called by the current owner. NOTE: Renouncing ownership will leave the contract without an owner, thereby removing any functionality that is only available to the owner."
      },
      "sell1155(uint256,uint256[],uint256[],bytes,address,bool)": {
        "details": "idsIn --{--mint-> [vault] -> vTokens --sell-> [UniversalRouter] --}-> ETH",
        "params": {
          "executeCallData": "Encoded calldata for Universal Router's `execute` function",
          "idsIn": "An array of token IDs to be deposited",
          "to": "The recipient of ETH from the tx",
          "vaultId": "The ID of the NFTX vault"
        }
      },
      "sell721(uint256,uint256[],bytes,address,bool)": {
        "details": "idsIn --{--mint-> [vault] -> vTokens --sell-> [UniversalRouter] --}-> ETH",
        "params": {
          "executeCallData": "Encoded calldata for Universal Router's `execute` function",
          "idsIn": "An array of token IDs to be deposited",
          "to": "The recipient of ETH from the tx",
          "vaultId": "The ID of the NFTX vault"
        }
      },
      "supportsInterface(bytes4)": {
        "details": "See {IERC165-supportsInterface}."
      },
      "transferOwnership(address)": {
        "details": "Transfers ownership of the contract to a new account (`newOwner`). Can only be called by the current owner."
      }
    },
    "title": "Marketplace Universal Router Zap",
    "version": 1
  },
  "userdoc": {
    "events": {
      "DustReturned(uint256,uint256,address)": {
        "notice": "Emitted when dust is returned after a transaction."
      }
    },
    "kind": "user",
    "methods": {
      "buyNFTsWithERC20((address,uint256,uint256,uint256[],uint256,bytes,bytes,address,bool))": {
        "notice": "Buy idsOut with ERC20"
      },
      "buyNFTsWithETH(uint256,uint256[],bytes,address,uint256,bool)": {
        "notice": "Buy idsOut with ETH"
      },
      "dustThreshold()": {
        "notice": "The vToken threshold below which dust is sent to InventoryStaking, else back to the user"
      },
      "pause(bool)": {
        "notice": "Allows our zap to be paused to prevent any processing."
      },
      "paused()": {
        "notice": "Allows zap to be paused"
      },
      "sell1155(uint256,uint256[],uint256[],bytes,address,bool)": {
        "notice": "Sell idsIn to ETH"
      },
      "sell721(uint256,uint256[],bytes,address,bool)": {
        "notice": "Sell idsIn to ETH"
      },
      "swap1155(uint256,uint256[],uint256[],uint256[],uint256,address)": {
        "notice": "Swap idsIn to idsOut Send ETH along as well (via msg.value) to account for swap fees"
      },
      "swap721(uint256,uint256[],uint256[],uint256,address)": {
        "notice": "Swap idsIn to idsOut Send ETH along as well (via msg.value) to account for swap fees"
      }
    },
    "notice": "Marketplace Zap that utilizes Universal Router to facilitate the require token swaps",
    "version": 1
  },
  "storageLayout": {
    "storage": [
      {
        "astId": 4846,
        "contract": "src/zaps/MarketplaceUniversalRouterZap.sol:MarketplaceUniversalRouterZap",
        "label": "_owner",
        "offset": 0,
        "slot": "0",
        "type": "t_address"
      },
      {
        "astId": 32059,
        "contract": "src/zaps/MarketplaceUniversalRouterZap.sol:MarketplaceUniversalRouterZap",
        "label": "universalRouter",
        "offset": 0,
        "slot": "1",
        "type": "t_address"
      },
      {
        "astId": 32063,
        "contract": "src/zaps/MarketplaceUniversalRouterZap.sol:MarketplaceUniversalRouterZap",
        "label": "paused",
        "offset": 20,
        "slot": "1",
        "type": "t_bool"
      },
      {
        "astId": 32066,
        "contract": "src/zaps/MarketplaceUniversalRouterZap.sol:MarketplaceUniversalRouterZap",
        "label": "dustThreshold",
        "offset": 0,
        "slot": "2",
        "type": "t_uint256"
      }
    ],
    "types": {
      "t_address": {
        "encoding": "inplace",
        "label": "address",
        "numberOfBytes": "20"
      },
      "t_bool": {
        "encoding": "inplace",
        "label": "bool",
        "numberOfBytes": "1"
      },
      "t_uint256": {
        "encoding": "inplace",
        "label": "uint256",
        "numberOfBytes": "32"
      }
    }
  }
}