{
  "address": "0x0B8Ee2Ee7d6f3bFB73C9aE2127558D1172B65fb1",
  "abi": [
    {
      "anonymous": false,
      "inputs": [],
      "name": "NFTXEligibilityInit",
      "type": "event"
    },
    {
      "inputs": [],
      "name": "__NFTXEligibility_init",
      "outputs": [],
      "stateMutability": "nonpayable",
      "type": "function"
    },
    {
      "inputs": [
        {
          "internalType": "bytes",
          "name": "",
          "type": "bytes"
        }
      ],
      "name": "__NFTXEligibility_init_bytes",
      "outputs": [],
      "stateMutability": "nonpayable",
      "type": "function"
    },
    {
      "inputs": [
        {
          "internalType": "uint256[]",
          "name": "tokenIds",
          "type": "uint256[]"
        }
      ],
      "name": "afterMintHook",
      "outputs": [],
      "stateMutability": "nonpayable",
      "type": "function"
    },
    {
      "inputs": [
        {
          "internalType": "uint256[]",
          "name": "tokenIds",
          "type": "uint256[]"
        }
      ],
      "name": "afterRedeemHook",
      "outputs": [],
      "stateMutability": "nonpayable",
      "type": "function"
    },
    {
      "inputs": [
        {
          "internalType": "uint256[]",
          "name": "tokenIds",
          "type": "uint256[]"
        }
      ],
      "name": "beforeMintHook",
      "outputs": [],
      "stateMutability": "nonpayable",
      "type": "function"
    },
    {
      "inputs": [
        {
          "internalType": "uint256[]",
          "name": "tokenIds",
          "type": "uint256[]"
        }
      ],
      "name": "beforeRedeemHook",
      "outputs": [],
      "stateMutability": "nonpayable",
      "type": "function"
    },
    {
      "inputs": [
        {
          "internalType": "uint256[]",
          "name": "tokenIds",
          "type": "uint256[]"
        }
      ],
      "name": "checkAllEligible",
      "outputs": [
        {
          "internalType": "bool",
          "name": "",
          "type": "bool"
        }
      ],
      "stateMutability": "view",
      "type": "function"
    },
    {
      "inputs": [
        {
          "internalType": "uint256[]",
          "name": "tokenIds",
          "type": "uint256[]"
        }
      ],
      "name": "checkAllIneligible",
      "outputs": [
        {
          "internalType": "bool",
          "name": "",
          "type": "bool"
        }
      ],
      "stateMutability": "view",
      "type": "function"
    },
    {
      "inputs": [
        {
          "internalType": "uint256[]",
          "name": "tokenIds",
          "type": "uint256[]"
        }
      ],
      "name": "checkEligible",
      "outputs": [
        {
          "internalType": "bool[]",
          "name": "",
          "type": "bool[]"
        }
      ],
      "stateMutability": "view",
      "type": "function"
    },
    {
      "inputs": [
        {
          "internalType": "uint256",
          "name": "tokenId",
          "type": "uint256"
        }
      ],
      "name": "checkIsEligible",
      "outputs": [
        {
          "internalType": "bool",
          "name": "",
          "type": "bool"
        }
      ],
      "stateMutability": "view",
      "type": "function"
    },
    {
      "inputs": [],
      "name": "finalized",
      "outputs": [
        {
          "internalType": "bool",
          "name": "",
          "type": "bool"
        }
      ],
      "stateMutability": "view",
      "type": "function"
    },
    {
      "inputs": [],
      "name": "name",
      "outputs": [
        {
          "internalType": "string",
          "name": "",
          "type": "string"
        }
      ],
      "stateMutability": "pure",
      "type": "function"
    },
    {
      "inputs": [],
      "name": "targetAsset",
      "outputs": [
        {
          "internalType": "address",
          "name": "",
          "type": "address"
        }
      ],
      "stateMutability": "pure",
      "type": "function"
    }
  ],
  "transactionHash": "0x53c6b0bb2b20511f63b9b4ea2298ff27ab24902f4da91c5a5473221ab3b84b73",
  "args": [],
  "numDeployments": 1,
  "solcInputHash": "28cfca9f7b5d9e5cb55aef2a8f8b4710",
  "bytecode": "0x608060405234801561001057600080fd5b50610833806100206000396000f3fe608060405234801561001057600080fd5b50600436106100df5760003560e01c80636cd912601161008c578063b3f05b9711610066578063b3f05b97146101c0578063bd8affde1461012c578063ca373f28146101c7578063d2a096e8146101da57600080fd5b80636cd912601461017557806384ca9f8514610195578063b1eb9f87146101b857600080fd5b80634998b7f3116100bd5780634998b7f3146101625780635e2f9b521461012c5780636c47d5951461012c57600080fd5b806306fdde03146100e457806336eb08621461012c5780633d4403ac14610140575b600080fd5b604080518082018252600981527f47656e304b697474790000000000000000000000000000000000000000000000602082015290516101239190610562565b60405180910390f35b61013e61013a3660046105b7565b5050565b005b6040517306012c8cf97bead5deae237070f9587f8e7a266d8152602001610123565b61013e610170366004610642565b6101ed565b6101886101833660046105b7565b6102ad565b60405161012391906106f3565b6101a86101a33660046105b7565b610362565b6040519015158152602001610123565b61013e6103b0565b60016101a8565b6101a86101d53660046105b7565b61048c565b6101a86101e8366004610739565b6104d0565b600054610100900460ff1680610206575060005460ff16155b61026e5760405162461bcd60e51b815260206004820152602e60248201527f496e697469616c697a61626c653a20636f6e747261637420697320616c72656160448201526d191e481a5b9a5d1a585b1a5e995960921b60648201526084015b60405180910390fd5b600054610100900460ff16158015610290576000805461ffff19166101011790555b6102986103b0565b801561013a576000805461ff00191690555050565b60608160008167ffffffffffffffff8111156102cb576102cb61062c565b6040519080825280602002602001820160405280156102f4578160200160208202803683370190505b50905060005b828110156103575761032386868381811061031757610317610752565b905060200201356104d7565b82828151811061033557610335610752565b911515602092830291909101909101528061034f81610768565b9150506102fa565b509150505b92915050565b600081815b818110156103a55761038485858381811061031757610317610752565b6103935760009250505061035c565b8061039d81610768565b915050610367565b506001949350505050565b600054610100900460ff16806103c9575060005460ff16155b61042c5760405162461bcd60e51b815260206004820152602e60248201527f496e697469616c697a61626c653a20636f6e747261637420697320616c72656160448201526d191e481a5b9a5d1a585b1a5e995960921b6064820152608401610265565b600054610100900460ff1615801561044e576000805461ffff19166101011790555b6040517fb708568a0e67d40b1324a610ddd779500570f113513f944a791cc7b8b4970dec90600090a18015610489576000805461ff00191690555b50565b600081815b818110156103a5576104ae85858381811061031757610317610752565b156104be5760009250505061035c565b806104c881610768565b915050610491565b600061035c825b60405163e98b7f4d60e01b81526004810182905260009081907306012c8cf97bead5deae237070f9587f8e7a266d9063e98b7f4d9060240161014060405180830381865afa15801561052d573d6000803e3d6000fd5b505050506040513d601f19601f8201168201806040525081019061055191906107a4565b50159b9a5050505050505050505050565b600060208083528351808285015260005b8181101561058f57858101830151858201604001528201610573565b818111156105a1576000604083870101525b50601f01601f1916929092016040019392505050565b600080602083850312156105ca57600080fd5b823567ffffffffffffffff808211156105e257600080fd5b818501915085601f8301126105f657600080fd5b81358181111561060557600080fd5b8660208260051b850101111561061a57600080fd5b60209290920196919550909350505050565b634e487b7160e01b600052604160045260246000fd5b60006020828403121561065457600080fd5b813567ffffffffffffffff8082111561066c57600080fd5b818401915084601f83011261068057600080fd5b8135818111156106925761069261062c565b604051601f8201601f19908116603f011681019083821181831017156106ba576106ba61062c565b816040528281528760208487010111156106d357600080fd5b826020860160208301376000928101602001929092525095945050505050565b6020808252825182820181905260009190848201906040850190845b8181101561072d57835115158352928401929184019160010161070f565b50909695505050505050565b60006020828403121561074b57600080fd5b5035919050565b634e487b7160e01b600052603260045260246000fd5b60006001820161078857634e487b7160e01b600052601160045260246000fd5b5060010190565b8051801515811461079f57600080fd5b919050565b6000806000806000806000806000806101408b8d0312156107c457600080fd5b6107cd8b61078f565b99506107db60208c0161078f565b985060408b0151975060608b0151965060808b0151955060a08b0151945060c08b0151935060e08b015192506101008b015191506101208b015190509295989b9194979a509295985056fea164736f6c634300080f000a",
  "devdoc": {
    "kind": "dev",
    "methods": {},
    "version": 1
  },
  "userdoc": {
    "kind": "user",
    "methods": {},
    "version": 1
  },
  "storageLayout": {
    "storage": [
      {
        "astId": 29223,
        "contract": "src/v2/eligibility/NFTXGen0KittyEligibility.sol:NFTXGen0KittyEligibility",
        "label": "_initialized",
        "offset": 0,
        "slot": "0",
        "type": "t_bool"
      },
      {
        "astId": 29226,
        "contract": "src/v2/eligibility/NFTXGen0KittyEligibility.sol:NFTXGen0KittyEligibility",
        "label": "_initializing",
        "offset": 1,
        "slot": "0",
        "type": "t_bool"
      }
    ],
    "types": {
      "t_bool": {
        "encoding": "inplace",
        "label": "bool",
        "numberOfBytes": "1"
      }
    }
  }
}