{
  "address": "0x3Cd6Fc37B2CDC4E7039a2dF096d83F47253f30eF",
  "abi": [
    {
      "anonymous": false,
      "inputs": [
        {
          "indexed": false,
          "internalType": "bytes32",
          "name": "merkleRoot",
          "type": "bytes32"
        },
        {
          "indexed": false,
          "internalType": "string",
          "name": "_merkleReference",
          "type": "string"
        },
        {
          "indexed": false,
          "internalType": "string",
          "name": "_merkleLeavesURI",
          "type": "string"
        }
      ],
      "name": "NFTXEligibilityInit",
      "type": "event"
    },
    {
      "anonymous": false,
      "inputs": [
        {
          "indexed": false,
          "internalType": "uint256",
          "name": "tokenId",
          "type": "uint256"
        },
        {
          "indexed": false,
          "internalType": "bytes32",
          "name": "requestId",
          "type": "bytes32"
        },
        {
          "indexed": false,
          "internalType": "bool",
          "name": "isValid",
          "type": "bool"
        }
      ],
      "name": "PrecursoryCheckComplete",
      "type": "event"
    },
    {
      "anonymous": false,
      "inputs": [
        {
          "indexed": false,
          "internalType": "uint256",
          "name": "tokenId",
          "type": "uint256"
        },
        {
          "indexed": false,
          "internalType": "bytes32",
          "name": "requestId",
          "type": "bytes32"
        }
      ],
      "name": "PrecursoryCheckStarted",
      "type": "event"
    },
    {
      "inputs": [
        {
          "internalType": "bytes32",
          "name": "_merkleRoot",
          "type": "bytes32"
        },
        {
          "internalType": "string",
          "name": "_merkleReference",
          "type": "string"
        },
        {
          "internalType": "string",
          "name": "_merkleLeavesURI",
          "type": "string"
        },
        {
          "internalType": "uint256",
          "name": "_minExpirationTime",
          "type": "uint256"
        }
      ],
      "name": "__NFTXEligibility_init",
      "outputs": [],
      "stateMutability": "nonpayable",
      "type": "function"
    },
    {
      "inputs": [
        {
          "internalType": "bytes32",
          "name": "_merkleRoot",
          "type": "bytes32"
        },
        {
          "internalType": "string",
          "name": "_merkleReference",
          "type": "string"
        },
        {
          "internalType": "string",
          "name": "_merkleLeavesURI",
          "type": "string"
        }
      ],
      "name": "__NFTXEligibility_init",
      "outputs": [],
      "stateMutability": "nonpayable",
      "type": "function"
    },
    {
      "inputs": [
        {
          "internalType": "bytes",
          "name": "configData",
          "type": "bytes"
        }
      ],
      "name": "__NFTXEligibility_init_bytes",
      "outputs": [],
      "stateMutability": "nonpayable",
      "type": "function"
    },
    {
      "inputs": [
        {
          "internalType": "uint256[]",
          "name": "tokenIds",
          "type": "uint256[]"
        }
      ],
      "name": "afterMintHook",
      "outputs": [],
      "stateMutability": "nonpayable",
      "type": "function"
    },
    {
      "inputs": [
        {
          "internalType": "uint256[]",
          "name": "tokenIds",
          "type": "uint256[]"
        }
      ],
      "name": "afterRedeemHook",
      "outputs": [],
      "stateMutability": "nonpayable",
      "type": "function"
    },
    {
      "inputs": [
        {
          "internalType": "uint256[]",
          "name": "tokenIds",
          "type": "uint256[]"
        }
      ],
      "name": "beforeMintHook",
      "outputs": [],
      "stateMutability": "nonpayable",
      "type": "function"
    },
    {
      "inputs": [
        {
          "internalType": "uint256[]",
          "name": "tokenIds",
          "type": "uint256[]"
        }
      ],
      "name": "beforeRedeemHook",
      "outputs": [],
      "stateMutability": "nonpayable",
      "type": "function"
    },
    {
      "inputs": [
        {
          "internalType": "uint256[]",
          "name": "tokenIds",
          "type": "uint256[]"
        }
      ],
      "name": "checkAllEligible",
      "outputs": [
        {
          "internalType": "bool",
          "name": "",
          "type": "bool"
        }
      ],
      "stateMutability": "view",
      "type": "function"
    },
    {
      "inputs": [
        {
          "internalType": "uint256[]",
          "name": "tokenIds",
          "type": "uint256[]"
        }
      ],
      "name": "checkAllIneligible",
      "outputs": [
        {
          "internalType": "bool",
          "name": "",
          "type": "bool"
        }
      ],
      "stateMutability": "view",
      "type": "function"
    },
    {
      "inputs": [
        {
          "internalType": "uint256[]",
          "name": "tokenIds",
          "type": "uint256[]"
        }
      ],
      "name": "checkEligible",
      "outputs": [
        {
          "internalType": "bool[]",
          "name": "",
          "type": "bool[]"
        }
      ],
      "stateMutability": "view",
      "type": "function"
    },
    {
      "inputs": [
        {
          "internalType": "uint256",
          "name": "tokenId",
          "type": "uint256"
        }
      ],
      "name": "checkIsEligible",
      "outputs": [
        {
          "internalType": "bool",
          "name": "",
          "type": "bool"
        }
      ],
      "stateMutability": "view",
      "type": "function"
    },
    {
      "inputs": [],
      "name": "finalized",
      "outputs": [
        {
          "internalType": "bool",
          "name": "",
          "type": "bool"
        }
      ],
      "stateMutability": "view",
      "type": "function"
    },
    {
      "inputs": [],
      "name": "merkleLeavesURI",
      "outputs": [
        {
          "internalType": "string",
          "name": "",
          "type": "string"
        }
      ],
      "stateMutability": "view",
      "type": "function"
    },
    {
      "inputs": [],
      "name": "merkleReference",
      "outputs": [
        {
          "internalType": "string",
          "name": "",
          "type": "string"
        }
      ],
      "stateMutability": "view",
      "type": "function"
    },
    {
      "inputs": [],
      "name": "merkleRoot",
      "outputs": [
        {
          "internalType": "bytes32",
          "name": "",
          "type": "bytes32"
        }
      ],
      "stateMutability": "view",
      "type": "function"
    },
    {
      "inputs": [],
      "name": "minExpirationTime",
      "outputs": [
        {
          "internalType": "uint256",
          "name": "",
          "type": "uint256"
        }
      ],
      "stateMutability": "view",
      "type": "function"
    },
    {
      "inputs": [],
      "name": "name",
      "outputs": [
        {
          "internalType": "string",
          "name": "",
          "type": "string"
        }
      ],
      "stateMutability": "pure",
      "type": "function"
    },
    {
      "inputs": [
        {
          "internalType": "uint256",
          "name": "tokenId",
          "type": "uint256"
        },
        {
          "internalType": "bytes32[]",
          "name": "merkleProof",
          "type": "bytes32[]"
        }
      ],
      "name": "processToken",
      "outputs": [
        {
          "internalType": "bool",
          "name": "isValid",
          "type": "bool"
        }
      ],
      "stateMutability": "nonpayable",
      "type": "function"
    },
    {
      "inputs": [
        {
          "internalType": "uint256[]",
          "name": "tokenIds",
          "type": "uint256[]"
        },
        {
          "internalType": "bytes32[][]",
          "name": "merkleProofs",
          "type": "bytes32[][]"
        }
      ],
      "name": "processTokens",
      "outputs": [
        {
          "internalType": "bool[]",
          "name": "",
          "type": "bool[]"
        }
      ],
      "stateMutability": "nonpayable",
      "type": "function"
    },
    {
      "inputs": [
        {
          "internalType": "uint256",
          "name": "tokenId",
          "type": "uint256"
        },
        {
          "internalType": "bytes32[]",
          "name": "merkleProof",
          "type": "bytes32[]"
        }
      ],
      "name": "requiresProcessing",
      "outputs": [
        {
          "internalType": "bool",
          "name": "",
          "type": "bool"
        }
      ],
      "stateMutability": "view",
      "type": "function"
    },
    {
      "inputs": [],
      "name": "targetAsset",
      "outputs": [
        {
          "internalType": "address",
          "name": "",
          "type": "address"
        }
      ],
      "stateMutability": "pure",
      "type": "function"
    },
    {
      "inputs": [
        {
          "internalType": "bytes32",
          "name": "",
          "type": "bytes32"
        }
      ],
      "name": "validTokenHashes",
      "outputs": [
        {
          "internalType": "bool",
          "name": "",
          "type": "bool"
        }
      ],
      "stateMutability": "view",
      "type": "function"
    }
  ],
  "transactionHash": "0xeb0f4505c6cf821d2ec52297dc9fa9fc006c89a42e79ffb01cbd03f8f28fc571",
  "args": [],
  "numDeployments": 1,
  "solcInputHash": "28cfca9f7b5d9e5cb55aef2a8f8b4710",
  "bytecode": "0x608060405234801561001057600080fd5b50611468806100206000396000f3fe608060405234801561001057600080fd5b50600436106101825760003560e01c806383033818116100d8578063b3f05b971161008c578063ca373f2811610066578063ca373f2814610304578063d2a096e814610317578063f3c6ce7a1461032a57600080fd5b8063b3f05b97146102ea578063bd8affde146101f2578063c5fa1375146102f157600080fd5b806390541ed5116100bd57806390541ed5146102a1578063a25a38ed146102b4578063afeaaf4b146102d757600080fd5b8063830338181461026b57806384ca9f851461028e57600080fd5b80633eea06d41161013a5780635e2f9b52116101145780635e2f9b52146101f25780636c47d595146101f25780636cd912601461024b57600080fd5b80633eea06d4146102285780634998b7f3146102305780635b88331e1461024357600080fd5b806331b412d71161016b57806331b412d7146101e957806336eb0862146101f25780633d4403ac1461020657600080fd5b806306fdde03146101875780632eb4a7ab146101d2575b600080fd5b60408051808201909152601481527f454e534d65726b6c65456c69676962696c69747900000000000000000000000060208201525b6040516101c99190610d28565b60405180910390f35b6101db60035481565b6040519081526020016101c9565b6101db60065481565b610204610200366004610d87565b5050565b005b6040517357f1887a8bf19b14fc0df6fd9b2acc9af147ea8581526020016101c9565b6101bc61033d565b61020461023e366004610e76565b6103cb565b6101bc6104b5565b61025e610259366004610d87565b6104c2565b6040516101c99190610ebf565b61027e610279366004610f05565b610577565b60405190151581526020016101c9565b61027e61029c366004610d87565b6105f1565b6102046102af366004610f71565b61063f565b61027e6102c2366004610fe6565b60016020526000908152604090205460ff1681565b61025e6102e5366004610fff565b610706565b600161027e565b61027e6102ff366004610f05565b6107d0565b61027e610312366004610d87565b6108dc565b61027e610325366004610fe6565b610920565b61020461033836600461106b565b61092b565b6004805461034a906110d8565b80601f0160208091040260200160405190810160405280929190818152602001828054610376906110d8565b80156103c35780601f10610398576101008083540402835291602001916103c3565b820191906000526020600020905b8154815290600101906020018083116103a657829003601f168201915b505050505081565b600054610100900460ff16806103e4575060005460ff16155b61044c5760405162461bcd60e51b815260206004820152602e60248201527f496e697469616c697a61626c653a20636f6e747261637420697320616c72656160448201526d191e481a5b9a5d1a585b1a5e995960921b60648201526084015b60405180910390fd5b600054610100900460ff1615801561046e576000805461ffff19166101011790555b600080600080858060200190518101906104889190611157565b935093509350935061049c8484848461063f565b505050508015610200576000805461ff00191690555050565b6005805461034a906110d8565b60608160008167ffffffffffffffff8111156104e0576104e0610dc9565b604051908082528060200260200182016040528015610509578160200160208202803683370190505b50905060005b8281101561056c5761053886868381811061052c5761052c6111cc565b90506020020135610a3b565b82828151811061054a5761054a6111cc565b9115156020928302919091019091015280610564816111f8565b91505061050f565b509150505b92915050565b60006002600061058686610ad6565b815260200190815260200160002060006105d2858580806020026020016040519081016040528093929190818152602001838360200280828437600092019190915250610aef92505050565b815260208101919091526040016000205460ff161590505b9392505050565b600081815b818110156106345761061385858381811061052c5761052c6111cc565b61062257600092505050610571565b8061062c816111f8565b9150506105f6565b506001949350505050565b600054610100900460ff1680610658575060005460ff16155b6106bb5760405162461bcd60e51b815260206004820152602e60248201527f496e697469616c697a61626c653a20636f6e747261637420697320616c72656160448201526d191e481a5b9a5d1a585b1a5e995960921b6064820152608401610443565b600054610100900460ff161580156106dd576000805461ffff19166101011790555b6106e885858561092b565b600682905580156106ff576000805461ff00191690555b5050505050565b60608360008167ffffffffffffffff81111561072457610724610dc9565b60405190808252806020026020018201604052801561074d578160200160208202803683370190505b50905060005b828110156107c55761079b888883818110610770576107706111cc565b90506020020135878784818110610789576107896111cc565b90506020028101906102ff9190611211565b8282815181106107ad576107ad6111cc565b91151560209283029190910190910152600101610753565b509695505050505050565b60006107dd848484610577565b6107f1576107ea84610a3b565b90506105ea565b60006107fc85610ad6565b905061083f848480806020026020016040519081016040528093929190818152602001838360200280828437600092019190915250506003549150849050610b1f565b91508115610862576000818152600160205260409020805460ff19168315151790555b60016002600083815260200190815260200160002060006108b5878780806020026020016040519081016040528093929190818152602001838360200280828437600092019190915250610aef92505050565b81526020810191909152604001600020805460ff1916911515919091179055509392505050565b600081815b81811015610634576108fe85858381811061052c5761052c6111cc565b1561090e57600092505050610571565b80610918816111f8565b9150506108e1565b600061057182610a3b565b600054610100900460ff1680610944575060005460ff16155b6109a75760405162461bcd60e51b815260206004820152602e60248201527f496e697469616c697a61626c653a20636f6e747261637420697320616c72656160448201526d191e481a5b9a5d1a585b1a5e995960921b6064820152608401610443565b600054610100900460ff161580156109c9576000805461ffff19166101011790555b600384905560046109da84826112aa565b5060056109e783826112aa565b507feaccdf52e14d5053012b2bacdc83bfc609cca17cd4b8843968b9ab7f41eb6841848484604051610a1b9392919061136a565b60405180910390a18015610a35576000805461ff00191690555b50505050565b604051636b727d4360e11b8152600481018290526000907357f1887a8bf19b14fc0df6fd9b2acc9af147ea859063d6e4fa8690602401602060405180830381865afa158015610a8e573d6000803e3d6000fd5b505050506040513d601f19601f82011682018060405250810190610ab2919061139f565b600654610abf90426113b8565b1115610acd57506000919050565b61057182610b65565b6000610ae182610b8e565b805190602001209050919050565b600081604051602001610b0291906113d0565b604051602081830303815290604052805190602001209050919050565b600081815b8551811015610b5a57610b5082878381518110610b4357610b436111cc565b6020026020010151610ca4565b9150600101610b24565b509092149392505050565b600060016000610b7484610ad6565b815260208101919091526040016000205460ff1692915050565b606081600003610bb55750506040805180820190915260018152600360fc1b602082015290565b8160005b8115610bd457600101610bcd600a8361141c565b9150610bb9565b60008167ffffffffffffffff811115610bef57610bef610dc9565b6040519080825280601f01601f191660200182016040528015610c19576020820181803683370190505b5090505b8415610c9c57610c2e600183611430565b9150610c3b600a86611447565b610c469060306113b8565b60f81b818381518110610c5b57610c5b6111cc565b60200101907effffffffffffffffffffffffffffffffffffffffffffffffffffffffffffff1916908160001a905350610c95600a8661141c565b9450610c1d565b949350505050565b6000818310610cc05760008281526020849052604090206105ea565b5060009182526020526040902090565b60005b83811015610ceb578181015183820152602001610cd3565b83811115610a355750506000910152565b60008151808452610d14816020860160208601610cd0565b601f01601f19169290920160200192915050565b6020815260006105ea6020830184610cfc565b60008083601f840112610d4d57600080fd5b50813567ffffffffffffffff811115610d6557600080fd5b6020830191508360208260051b8501011115610d8057600080fd5b9250929050565b60008060208385031215610d9a57600080fd5b823567ffffffffffffffff811115610db157600080fd5b610dbd85828601610d3b565b90969095509350505050565b634e487b7160e01b600052604160045260246000fd5b604051601f8201601f1916810167ffffffffffffffff81118282101715610e0857610e08610dc9565b604052919050565b600067ffffffffffffffff821115610e2a57610e2a610dc9565b50601f01601f191660200190565b6000610e4b610e4684610e10565b610ddf565b9050828152838383011115610e5f57600080fd5b828260208301376000602084830101529392505050565b600060208284031215610e8857600080fd5b813567ffffffffffffffff811115610e9f57600080fd5b8201601f81018413610eb057600080fd5b610c9c84823560208401610e38565b6020808252825182820181905260009190848201906040850190845b81811015610ef9578351151583529284019291840191600101610edb565b50909695505050505050565b600080600060408486031215610f1a57600080fd5b83359250602084013567ffffffffffffffff811115610f3857600080fd5b610f4486828701610d3b565b9497909650939450505050565b600082601f830112610f6257600080fd5b6105ea83833560208501610e38565b60008060008060808587031215610f8757600080fd5b84359350602085013567ffffffffffffffff80821115610fa657600080fd5b610fb288838901610f51565b94506040870135915080821115610fc857600080fd5b50610fd587828801610f51565b949793965093946060013593505050565b600060208284031215610ff857600080fd5b5035919050565b6000806000806040858703121561101557600080fd5b843567ffffffffffffffff8082111561102d57600080fd5b61103988838901610d3b565b9096509450602087013591508082111561105257600080fd5b5061105f87828801610d3b565b95989497509550505050565b60008060006060848603121561108057600080fd5b83359250602084013567ffffffffffffffff8082111561109f57600080fd5b6110ab87838801610f51565b935060408601359150808211156110c157600080fd5b506110ce86828701610f51565b9150509250925092565b600181811c908216806110ec57607f821691505b60208210810361110c57634e487b7160e01b600052602260045260246000fd5b50919050565b600082601f83011261112357600080fd5b8151611131610e4682610e10565b81815284602083860101111561114657600080fd5b610c9c826020830160208701610cd0565b6000806000806080858703121561116d57600080fd5b84519350602085015167ffffffffffffffff8082111561118c57600080fd5b61119888838901611112565b945060408701519150808211156111ae57600080fd5b506111bb87828801611112565b606096909601519497939650505050565b634e487b7160e01b600052603260045260246000fd5b634e487b7160e01b600052601160045260246000fd5b60006001820161120a5761120a6111e2565b5060010190565b6000808335601e1984360301811261122857600080fd5b83018035915067ffffffffffffffff82111561124357600080fd5b6020019150600581901b3603821315610d8057600080fd5b601f8211156112a557600081815260208120601f850160051c810160208610156112825750805b601f850160051c820191505b818110156112a15782815560010161128e565b5050505b505050565b815167ffffffffffffffff8111156112c4576112c4610dc9565b6112d8816112d284546110d8565b8461125b565b602080601f83116001811461130d57600084156112f55750858301515b600019600386901b1c1916600185901b1785556112a1565b600085815260208120601f198616915b8281101561133c5788860151825594840194600190910190840161131d565b508582101561135a5787850151600019600388901b60f8161c191681555b5050505050600190811b01905550565b8381526060602082015260006113836060830185610cfc565b82810360408401526113958185610cfc565b9695505050505050565b6000602082840312156113b157600080fd5b5051919050565b600082198211156113cb576113cb6111e2565b500190565b815160009082906020808601845b838110156113fa578151855293820193908201906001016113de565b50929695505050505050565b634e487b7160e01b600052601260045260246000fd5b60008261142b5761142b611406565b500490565b600082821015611442576114426111e2565b500390565b60008261145657611456611406565b50069056fea164736f6c634300080f000a",
  "devdoc": {
    "author": "Twade",
    "kind": "dev",
    "methods": {
      "__NFTXEligibility_init(bytes32,string,string)": {
        "params": {
          "_merkleRoot": "The root of our merkle tree"
        }
      },
      "__NFTXEligibility_init(bytes32,string,string,uint256)": {
        "params": {
          "_merkleLeavesURI": "API endpoint providing unencoded JSON array",
          "_merkleReference": "Public name of the merkle eligibility implementation",
          "_merkleRoot": "The root of our merkle tree",
          "_minExpirationTime": "Minimum number of seconds until ENS expiration"
        }
      },
      "__NFTXEligibility_init_bytes(bytes)": {
        "params": {
          "configData": "Encoded config data"
        }
      },
      "finalized()": {
        "returns": {
          "_0": "bool"
        }
      },
      "name()": {
        "returns": {
          "_0": "string"
        }
      },
      "processToken(uint256,bytes32[])": {
        "params": {
          "merkleProof": "Merkle proof to validate against the tokenId",
          "tokenId": "The ENS token ID being validated"
        },
        "returns": {
          "isValid": "If the token is valid"
        }
      },
      "processTokens(uint256[],bytes32[][])": {
        "params": {
          "merkleProofs": "Merkle proofs to validate against the corresponding tokenId",
          "tokenIds": "The ENS token IDs being validated"
        },
        "returns": {
          "_0": "bool[] If the token at the corresponding index is valid"
        }
      },
      "requiresProcessing(uint256,bytes32[])": {
        "details": "If this returns `true`, `processToken` should subsequently be run before checking the eligibility of the token.",
        "params": {
          "tokenId": "The ENS domain token ID"
        },
        "returns": {
          "_0": "bool If the tokenId requires precursory validation"
        }
      },
      "targetAsset()": {
        "returns": {
          "_0": "address"
        }
      }
    },
    "title": "NFTX ENS Merkle Eligibility",
    "version": 1
  },
  "userdoc": {
    "events": {
      "NFTXEligibilityInit(bytes32,string,string)": {
        "notice": "Emitted when our NFTX Eligibility is deployed"
      },
      "PrecursoryCheckComplete(uint256,bytes32,bool)": {
        "notice": "Emitted when a project validity check has been completed"
      },
      "PrecursoryCheckStarted(uint256,bytes32)": {
        "notice": "Emitted when a project validity check is started"
      }
    },
    "kind": "user",
    "methods": {
      "__NFTXEligibility_init(bytes32,string,string)": {
        "notice": "Parameters here should mirror the config struct."
      },
      "__NFTXEligibility_init(bytes32,string,string,uint256)": {
        "notice": "Parameters here should mirror the config struct."
      },
      "__NFTXEligibility_init_bytes(bytes)": {
        "notice": "Allow our eligibility module to be initialised with optional config data."
      },
      "finalized()": {
        "notice": "Confirms that our module has been finalised and won't change."
      },
      "merkleLeavesURI()": {
        "notice": "URI to JSON list of unencoded token IDs"
      },
      "merkleReference()": {
        "notice": "Merkle reference for any required frontend differentiation"
      },
      "merkleRoot()": {
        "notice": "Merkle proof to validate all eligible domains against"
      },
      "minExpirationTime()": {
        "notice": "Minimum expiration time for ENS domains in seconds"
      },
      "name()": {
        "notice": "The name of our Eligibility Module."
      },
      "processToken(uint256,bytes32[])": {
        "notice": "This will run a precursory check by encoding the token ID, creating the token hash, and then checking this against our merkle tree."
      },
      "processTokens(uint256[],bytes32[][])": {
        "notice": "This will run a number of precursory checks by encoding the token ID, creating the token hash, and then checking this against our merkle tree."
      },
      "requiresProcessing(uint256,bytes32[])": {
        "notice": "Checks if the token requires a precursory validation before it can have it's eligibility determined."
      },
      "targetAsset()": {
        "notice": "The address of our token asset contract."
      },
      "validTokenHashes(bytes32)": {
        "notice": "Internal storage of valid and processed tokens"
      }
    },
    "notice": "Allows vaults to be allow eligibility based ENS domains, allowing for minimum expiration times to be set.",
    "version": 1
  },
  "storageLayout": {
    "storage": [
      {
        "astId": 29223,
        "contract": "src/v2/eligibility/NFTXENSMerkleEligibility.sol:NFTXENSMerkleEligibility",
        "label": "_initialized",
        "offset": 0,
        "slot": "0",
        "type": "t_bool"
      },
      {
        "astId": 29226,
        "contract": "src/v2/eligibility/NFTXENSMerkleEligibility.sol:NFTXENSMerkleEligibility",
        "label": "_initializing",
        "offset": 1,
        "slot": "0",
        "type": "t_bool"
      },
      {
        "astId": 29945,
        "contract": "src/v2/eligibility/NFTXENSMerkleEligibility.sol:NFTXENSMerkleEligibility",
        "label": "validTokenHashes",
        "offset": 0,
        "slot": "1",
        "type": "t_mapping(t_bytes32,t_bool)"
      },
      {
        "astId": 29951,
        "contract": "src/v2/eligibility/NFTXENSMerkleEligibility.sol:NFTXENSMerkleEligibility",
        "label": "_processedTokenHashes",
        "offset": 0,
        "slot": "2",
        "type": "t_mapping(t_bytes32,t_mapping(t_bytes32,t_bool))"
      },
      {
        "astId": 29954,
        "contract": "src/v2/eligibility/NFTXENSMerkleEligibility.sol:NFTXENSMerkleEligibility",
        "label": "merkleRoot",
        "offset": 0,
        "slot": "3",
        "type": "t_bytes32"
      },
      {
        "astId": 29957,
        "contract": "src/v2/eligibility/NFTXENSMerkleEligibility.sol:NFTXENSMerkleEligibility",
        "label": "merkleReference",
        "offset": 0,
        "slot": "4",
        "type": "t_string_storage"
      },
      {
        "astId": 29960,
        "contract": "src/v2/eligibility/NFTXENSMerkleEligibility.sol:NFTXENSMerkleEligibility",
        "label": "merkleLeavesURI",
        "offset": 0,
        "slot": "5",
        "type": "t_string_storage"
      },
      {
        "astId": 29280,
        "contract": "src/v2/eligibility/NFTXENSMerkleEligibility.sol:NFTXENSMerkleEligibility",
        "label": "minExpirationTime",
        "offset": 0,
        "slot": "6",
        "type": "t_uint256"
      }
    ],
    "types": {
      "t_bool": {
        "encoding": "inplace",
        "label": "bool",
        "numberOfBytes": "1"
      },
      "t_bytes32": {
        "encoding": "inplace",
        "label": "bytes32",
        "numberOfBytes": "32"
      },
      "t_mapping(t_bytes32,t_bool)": {
        "encoding": "mapping",
        "key": "t_bytes32",
        "label": "mapping(bytes32 => bool)",
        "numberOfBytes": "32",
        "value": "t_bool"
      },
      "t_mapping(t_bytes32,t_mapping(t_bytes32,t_bool))": {
        "encoding": "mapping",
        "key": "t_bytes32",
        "label": "mapping(bytes32 => mapping(bytes32 => bool))",
        "numberOfBytes": "32",
        "value": "t_mapping(t_bytes32,t_bool)"
      },
      "t_string_storage": {
        "encoding": "bytes",
        "label": "string",
        "numberOfBytes": "32"
      },
      "t_uint256": {
        "encoding": "inplace",
        "label": "uint256",
        "numberOfBytes": "32"
      }
    }
  }
}