{
  "address": "0xe01Cf5099e700c282A56E815ABd0C4948298Afae",
  "abi": [
    {
      "anonymous": false,
      "inputs": [
        {
          "indexed": false,
          "internalType": "uint256[]",
          "name": "tokenIds",
          "type": "uint256[]"
        }
      ],
      "name": "NFTXEligibilityInit",
      "type": "event"
    },
    {
      "anonymous": false,
      "inputs": [
        {
          "indexed": false,
          "internalType": "uint256[]",
          "name": "tokenIds",
          "type": "uint256[]"
        },
        {
          "indexed": false,
          "internalType": "bool",
          "name": "isEligible",
          "type": "bool"
        }
      ],
      "name": "UniqueEligibilitiesSet",
      "type": "event"
    },
    {
      "inputs": [
        {
          "internalType": "uint256[]",
          "name": "tokenIds",
          "type": "uint256[]"
        }
      ],
      "name": "__NFTXEligibility_init",
      "outputs": [],
      "stateMutability": "nonpayable",
      "type": "function"
    },
    {
      "inputs": [
        {
          "internalType": "bytes",
          "name": "_configData",
          "type": "bytes"
        }
      ],
      "name": "__NFTXEligibility_init_bytes",
      "outputs": [],
      "stateMutability": "nonpayable",
      "type": "function"
    },
    {
      "inputs": [
        {
          "internalType": "uint256[]",
          "name": "tokenIds",
          "type": "uint256[]"
        }
      ],
      "name": "afterMintHook",
      "outputs": [],
      "stateMutability": "nonpayable",
      "type": "function"
    },
    {
      "inputs": [
        {
          "internalType": "uint256[]",
          "name": "tokenIds",
          "type": "uint256[]"
        }
      ],
      "name": "afterRedeemHook",
      "outputs": [],
      "stateMutability": "nonpayable",
      "type": "function"
    },
    {
      "inputs": [
        {
          "internalType": "uint256[]",
          "name": "tokenIds",
          "type": "uint256[]"
        }
      ],
      "name": "beforeMintHook",
      "outputs": [],
      "stateMutability": "nonpayable",
      "type": "function"
    },
    {
      "inputs": [
        {
          "internalType": "uint256[]",
          "name": "tokenIds",
          "type": "uint256[]"
        }
      ],
      "name": "beforeRedeemHook",
      "outputs": [],
      "stateMutability": "nonpayable",
      "type": "function"
    },
    {
      "inputs": [
        {
          "internalType": "uint256[]",
          "name": "tokenIds",
          "type": "uint256[]"
        }
      ],
      "name": "checkAllEligible",
      "outputs": [
        {
          "internalType": "bool",
          "name": "",
          "type": "bool"
        }
      ],
      "stateMutability": "view",
      "type": "function"
    },
    {
      "inputs": [
        {
          "internalType": "uint256[]",
          "name": "tokenIds",
          "type": "uint256[]"
        }
      ],
      "name": "checkAllIneligible",
      "outputs": [
        {
          "internalType": "bool",
          "name": "",
          "type": "bool"
        }
      ],
      "stateMutability": "view",
      "type": "function"
    },
    {
      "inputs": [
        {
          "internalType": "uint256[]",
          "name": "tokenIds",
          "type": "uint256[]"
        }
      ],
      "name": "checkEligible",
      "outputs": [
        {
          "internalType": "bool[]",
          "name": "",
          "type": "bool[]"
        }
      ],
      "stateMutability": "view",
      "type": "function"
    },
    {
      "inputs": [
        {
          "internalType": "uint256",
          "name": "tokenId",
          "type": "uint256"
        }
      ],
      "name": "checkIsEligible",
      "outputs": [
        {
          "internalType": "bool",
          "name": "",
          "type": "bool"
        }
      ],
      "stateMutability": "view",
      "type": "function"
    },
    {
      "inputs": [],
      "name": "finalized",
      "outputs": [
        {
          "internalType": "bool",
          "name": "",
          "type": "bool"
        }
      ],
      "stateMutability": "view",
      "type": "function"
    },
    {
      "inputs": [
        {
          "internalType": "uint256",
          "name": "tokenId",
          "type": "uint256"
        }
      ],
      "name": "isUniqueEligible",
      "outputs": [
        {
          "internalType": "bool",
          "name": "",
          "type": "bool"
        }
      ],
      "stateMutability": "view",
      "type": "function"
    },
    {
      "inputs": [],
      "name": "name",
      "outputs": [
        {
          "internalType": "string",
          "name": "",
          "type": "string"
        }
      ],
      "stateMutability": "pure",
      "type": "function"
    },
    {
      "inputs": [],
      "name": "targetAsset",
      "outputs": [
        {
          "internalType": "address",
          "name": "",
          "type": "address"
        }
      ],
      "stateMutability": "pure",
      "type": "function"
    }
  ],
  "transactionHash": "0x31d293c5ba044ab59a574b85ba1d5f03dce21dc11aa016d748310dc6ec6856ee",
  "args": [],
  "numDeployments": 1,
  "solcInputHash": "28cfca9f7b5d9e5cb55aef2a8f8b4710",
  "bytecode": "0x608060405234801561001057600080fd5b50610adf806100206000396000f3fe608060405234801561001057600080fd5b50600436106100ea5760003560e01c80636cd912601161008c578063bd8affde11610066578063bd8affde1461011e578063ca373f28146101b1578063d2a096e8146101c4578063facf895f146101d757600080fd5b80636cd912601461017757806384ca9f8514610197578063b3f05b97146101aa57600080fd5b80633d4403ac116100c85780633d4403ac146101555780634998b7f3146101645780635e2f9b521461011e5780636c47d5951461011e57600080fd5b806306fdde03146100ef57806336eb08621461011e5780633942cf3614610132575b600080fd5b6040805180820182526004815263131a5cdd60e21b6020820152905161011591906106a0565b60405180910390f35b61013061012c3660046106f5565b5050565b005b61014561014036600461076a565b6101ea565b6040519015158152602001610115565b60405160008152602001610115565b6101306101723660046107ca565b61021d565b61018a6101853660046106f5565b6102f7565b604051610115919061085f565b6101456101a53660046106f5565b6103ac565b6001610145565b6101456101bf3660046106f5565b6103fa565b6101456101d236600461076a565b61043e565b6101306101e53660046108c9565b610449565b6000806101f961010084610975565b600081815260016020526040902054909150610215818561053e565b949350505050565b600054610100900460ff1680610236575060005460ff16155b61029e5760405162461bcd60e51b815260206004820152602e60248201527f496e697469616c697a61626c653a20636f6e747261637420697320616c72656160448201526d191e481a5b9a5d1a585b1a5e995960921b60648201526084015b60405180910390fd5b600054610100900460ff161580156102c0576000805461ffff19166101011790555b6000828060200190518101906102d69190610989565b90506102e181610449565b50801561012c576000805461ff00191690555050565b60608160008167ffffffffffffffff81111561031557610315610783565b60405190808252806020026020018201604052801561033e578160200160208202803683370190505b50905060005b828110156103a15761036d86868381811061036157610361610a0f565b9050602002013561055e565b82828151811061037f5761037f610a0f565b911515602092830291909101909101528061039981610a25565b915050610344565b509150505b92915050565b600081815b818110156103ef576103ce85858381811061036157610361610a0f565b6103dd576000925050506103a6565b806103e781610a25565b9150506103b1565b506001949350505050565b600081815b818110156103ef5761041c85858381811061036157610361610a0f565b1561042c576000925050506103a6565b8061043681610a25565b9150506103ff565b60006103a68261055e565b600054610100900460ff1680610462575060005460ff16155b6104c55760405162461bcd60e51b815260206004820152602e60248201527f496e697469616c697a61626c653a20636f6e747261637420697320616c72656160448201526d191e481a5b9a5d1a585b1a5e995960921b6064820152608401610295565b600054610100900460ff161580156104e7576000805461ffff19166101011790555b6104f2826001610569565b7f57c1f3c63f373f6f173119ab80d232a4a8ca7449a0bdb2f33f6188847539e745826040516105219190610a87565b60405180910390a1801561012c576000805461ff00191690555050565b60008061054d61010084610a9a565b9390931c6001908116149392505050565b60006103a6826101ea565b600080805260016020527fa6eef7e35abe7026729641147f7915573c7e97b47efa546f5f6e3230263bcb495490805b84518110156106195760008582815181106105b5576105b5610a0f565b602002602001015190506000610100826105cf9190610975565b90508381146105f7576000938452600160205260408085209590955580845293909220549291825b61060285838861066b565b94505050808061061190610a25565b915050610598565b5060008181526001602052604090819020839055517ffacde3821ab1224682dd0ab6a805f71860b6ca6982ad044c8c4927ea4c6f14019061065d9086908690610aae565b60405180910390a150505050565b60008061067a61010085610a9a565b9050821561068f576001901b84179050610699565b6001901b19841690505b9392505050565b600060208083528351808285015260005b818110156106cd578581018301518582016040015282016106b1565b818111156106df576000604083870101525b50601f01601f1916929092016040019392505050565b6000806020838503121561070857600080fd5b823567ffffffffffffffff8082111561072057600080fd5b818501915085601f83011261073457600080fd5b81358181111561074357600080fd5b8660208260051b850101111561075857600080fd5b60209290920196919550909350505050565b60006020828403121561077c57600080fd5b5035919050565b634e487b7160e01b600052604160045260246000fd5b604051601f8201601f1916810167ffffffffffffffff811182821017156107c2576107c2610783565b604052919050565b600060208083850312156107dd57600080fd5b823567ffffffffffffffff808211156107f557600080fd5b818501915085601f83011261080957600080fd5b81358181111561081b5761081b610783565b61082d601f8201601f19168501610799565b9150808252868482850101111561084357600080fd5b8084840185840137600090820190930192909252509392505050565b6020808252825182820181905260009190848201906040850190845b8181101561089957835115158352928401929184019160010161087b565b50909695505050505050565b600067ffffffffffffffff8211156108bf576108bf610783565b5060051b60200190565b600060208083850312156108dc57600080fd5b823567ffffffffffffffff8111156108f357600080fd5b8301601f8101851361090457600080fd5b8035610917610912826108a5565b610799565b81815260059190911b8201830190838101908783111561093657600080fd5b928401925b828410156109545783358252928401929084019061093b565b979650505050505050565b634e487b7160e01b600052601260045260246000fd5b6000826109845761098461095f565b500490565b6000602080838503121561099c57600080fd5b825167ffffffffffffffff8111156109b357600080fd5b8301601f810185136109c457600080fd5b80516109d2610912826108a5565b81815260059190911b820183019083810190878311156109f157600080fd5b928401925b82841015610954578351825292840192908401906109f6565b634e487b7160e01b600052603260045260246000fd5b600060018201610a4557634e487b7160e01b600052601160045260246000fd5b5060010190565b600081518084526020808501945080840160005b83811015610a7c57815187529582019590820190600101610a60565b509495945050505050565b6020815260006106996020830184610a4c565b600082610aa957610aa961095f565b500690565b604081526000610ac16040830185610a4c565b90508215156020830152939250505056fea164736f6c634300080f000a",
  "devdoc": {
    "kind": "dev",
    "methods": {},
    "version": 1
  },
  "userdoc": {
    "kind": "user",
    "methods": {},
    "version": 1
  },
  "storageLayout": {
    "storage": [
      {
        "astId": 29223,
        "contract": "src/v2/eligibility/NFTXListEligibility.sol:NFTXListEligibility",
        "label": "_initialized",
        "offset": 0,
        "slot": "0",
        "type": "t_bool"
      },
      {
        "astId": 29226,
        "contract": "src/v2/eligibility/NFTXListEligibility.sol:NFTXListEligibility",
        "label": "_initializing",
        "offset": 1,
        "slot": "0",
        "type": "t_bool"
      },
      {
        "astId": 30458,
        "contract": "src/v2/eligibility/NFTXListEligibility.sol:NFTXListEligibility",
        "label": "eligibleBitMap",
        "offset": 0,
        "slot": "1",
        "type": "t_mapping(t_uint256,t_uint256)"
      }
    ],
    "types": {
      "t_bool": {
        "encoding": "inplace",
        "label": "bool",
        "numberOfBytes": "1"
      },
      "t_mapping(t_uint256,t_uint256)": {
        "encoding": "mapping",
        "key": "t_uint256",
        "label": "mapping(uint256 => uint256)",
        "numberOfBytes": "32",
        "value": "t_uint256"
      },
      "t_uint256": {
        "encoding": "inplace",
        "label": "uint256",
        "numberOfBytes": "32"
      }
    }
  }
}