{
  "address": "0x4D1C6fECe337aca25cBA39db746Bd6e024cF8714",
  "abi": [
    {
      "inputs": [],
      "stateMutability": "nonpayable",
      "type": "constructor"
    },
    {
      "anonymous": false,
      "inputs": [
        {
          "indexed": true,
          "internalType": "address",
          "name": "account",
          "type": "address"
        },
        {
          "indexed": true,
          "internalType": "address",
          "name": "operator",
          "type": "address"
        },
        {
          "indexed": false,
          "internalType": "bool",
          "name": "approved",
          "type": "bool"
        }
      ],
      "name": "ApprovalForAll",
      "type": "event"
    },
    {
      "anonymous": false,
      "inputs": [
        {
          "indexed": true,
          "internalType": "address",
          "name": "operator",
          "type": "address"
        },
        {
          "indexed": true,
          "internalType": "address",
          "name": "from",
          "type": "address"
        },
        {
          "indexed": true,
          "internalType": "address",
          "name": "to",
          "type": "address"
        },
        {
          "indexed": false,
          "internalType": "uint256[]",
          "name": "ids",
          "type": "uint256[]"
        },
        {
          "indexed": false,
          "internalType": "uint256[]",
          "name": "values",
          "type": "uint256[]"
        }
      ],
      "name": "TransferBatch",
      "type": "event"
    },
    {
      "anonymous": false,
      "inputs": [
        {
          "indexed": true,
          "internalType": "address",
          "name": "operator",
          "type": "address"
        },
        {
          "indexed": true,
          "internalType": "address",
          "name": "from",
          "type": "address"
        },
        {
          "indexed": true,
          "internalType": "address",
          "name": "to",
          "type": "address"
        },
        {
          "indexed": false,
          "internalType": "uint256",
          "name": "id",
          "type": "uint256"
        },
        {
          "indexed": false,
          "internalType": "uint256",
          "name": "value",
          "type": "uint256"
        }
      ],
      "name": "TransferSingle",
      "type": "event"
    },
    {
      "anonymous": false,
      "inputs": [
        {
          "indexed": false,
          "internalType": "string",
          "name": "value",
          "type": "string"
        },
        {
          "indexed": true,
          "internalType": "uint256",
          "name": "id",
          "type": "uint256"
        }
      ],
      "name": "URI",
      "type": "event"
    },
    {
      "inputs": [
        {
          "internalType": "address",
          "name": "account",
          "type": "address"
        },
        {
          "internalType": "uint256",
          "name": "id",
          "type": "uint256"
        }
      ],
      "name": "balanceOf",
      "outputs": [
        {
          "internalType": "uint256",
          "name": "",
          "type": "uint256"
        }
      ],
      "stateMutability": "view",
      "type": "function"
    },
    {
      "inputs": [
        {
          "internalType": "address[]",
          "name": "accounts",
          "type": "address[]"
        },
        {
          "internalType": "uint256[]",
          "name": "ids",
          "type": "uint256[]"
        }
      ],
      "name": "balanceOfBatch",
      "outputs": [
        {
          "internalType": "uint256[]",
          "name": "",
          "type": "uint256[]"
        }
      ],
      "stateMutability": "view",
      "type": "function"
    },
    {
      "inputs": [
        {
          "internalType": "address",
          "name": "account",
          "type": "address"
        },
        {
          "internalType": "address",
          "name": "operator",
          "type": "address"
        }
      ],
      "name": "isApprovedForAll",
      "outputs": [
        {
          "internalType": "bool",
          "name": "",
          "type": "bool"
        }
      ],
      "stateMutability": "view",
      "type": "function"
    },
    {
      "inputs": [
        {
          "internalType": "uint256",
          "name": "amount",
          "type": "uint256"
        }
      ],
      "name": "mint",
      "outputs": [
        {
          "internalType": "uint256",
          "name": "tokenId",
          "type": "uint256"
        }
      ],
      "stateMutability": "nonpayable",
      "type": "function"
    },
    {
      "inputs": [],
      "name": "nextId",
      "outputs": [
        {
          "internalType": "uint256",
          "name": "",
          "type": "uint256"
        }
      ],
      "stateMutability": "view",
      "type": "function"
    },
    {
      "inputs": [
        {
          "internalType": "uint256",
          "name": "_tokenId",
          "type": "uint256"
        },
        {
          "internalType": "uint256",
          "name": "_salePrice",
          "type": "uint256"
        }
      ],
      "name": "royaltyInfo",
      "outputs": [
        {
          "internalType": "address",
          "name": "",
          "type": "address"
        },
        {
          "internalType": "uint256",
          "name": "",
          "type": "uint256"
        }
      ],
      "stateMutability": "view",
      "type": "function"
    },
    {
      "inputs": [
        {
          "internalType": "address",
          "name": "from",
          "type": "address"
        },
        {
          "internalType": "address",
          "name": "to",
          "type": "address"
        },
        {
          "internalType": "uint256[]",
          "name": "ids",
          "type": "uint256[]"
        },
        {
          "internalType": "uint256[]",
          "name": "amounts",
          "type": "uint256[]"
        },
        {
          "internalType": "bytes",
          "name": "data",
          "type": "bytes"
        }
      ],
      "name": "safeBatchTransferFrom",
      "outputs": [],
      "stateMutability": "nonpayable",
      "type": "function"
    },
    {
      "inputs": [
        {
          "internalType": "address",
          "name": "from",
          "type": "address"
        },
        {
          "internalType": "address",
          "name": "to",
          "type": "address"
        },
        {
          "internalType": "uint256",
          "name": "id",
          "type": "uint256"
        },
        {
          "internalType": "uint256",
          "name": "amount",
          "type": "uint256"
        },
        {
          "internalType": "bytes",
          "name": "data",
          "type": "bytes"
        }
      ],
      "name": "safeTransferFrom",
      "outputs": [],
      "stateMutability": "nonpayable",
      "type": "function"
    },
    {
      "inputs": [
        {
          "internalType": "address",
          "name": "operator",
          "type": "address"
        },
        {
          "internalType": "bool",
          "name": "approved",
          "type": "bool"
        }
      ],
      "name": "setApprovalForAll",
      "outputs": [],
      "stateMutability": "nonpayable",
      "type": "function"
    },
    {
      "inputs": [
        {
          "internalType": "bytes4",
          "name": "interfaceId",
          "type": "bytes4"
        }
      ],
      "name": "supportsInterface",
      "outputs": [
        {
          "internalType": "bool",
          "name": "",
          "type": "bool"
        }
      ],
      "stateMutability": "view",
      "type": "function"
    },
    {
      "inputs": [
        {
          "internalType": "uint256",
          "name": "",
          "type": "uint256"
        }
      ],
      "name": "uri",
      "outputs": [
        {
          "internalType": "string",
          "name": "",
          "type": "string"
        }
      ],
      "stateMutability": "view",
      "type": "function"
    }
  ],
  "transactionHash": "0x392f2388d2462ad63406b21e6c24e4809c908d10f6e55113a4ac90e768b2aa0c",
  "args": [],
  "numDeployments": 1,
  "solcInputHash": "ec67b61c9994f78d18e979b37ece640b",
  "bytecode": "0x608060405260016005553480156200001657600080fd5b50604080516020810190915260008152620000318162000046565b5062000040336101f462000058565b620002ce565b600262000054828262000202565b5050565b6127106001600160601b0382161115620000cc5760405162461bcd60e51b815260206004820152602a60248201527f455243323938313a20726f79616c7479206665652077696c6c206578636565646044820152692073616c65507269636560b01b60648201526084015b60405180910390fd5b6001600160a01b038216620001245760405162461bcd60e51b815260206004820152601960248201527f455243323938313a20696e76616c6964207265636569766572000000000000006044820152606401620000c3565b604080518082019091526001600160a01b039092168083526001600160601b039091166020909201829052600160a01b90910217600355565b634e487b7160e01b600052604160045260246000fd5b600181811c908216806200018857607f821691505b602082108103620001a957634e487b7160e01b600052602260045260246000fd5b50919050565b601f821115620001fd57600081815260208120601f850160051c81016020861015620001d85750805b601f850160051c820191505b81811015620001f957828155600101620001e4565b5050505b505050565b81516001600160401b038111156200021e576200021e6200015d565b62000236816200022f845462000173565b84620001af565b602080601f8311600181146200026e5760008415620002555750858301515b600019600386901b1c1916600185901b178555620001f9565b600085815260208120601f198616915b828110156200029f578886015182559484019460019091019084016200027e565b5085821015620002be5787850151600019600388901b60f8161c191681555b5050505050600190811b01905550565b6117df80620002de6000396000f3fe608060405234801561001057600080fd5b50600436106100c85760003560e01c80634e1273f411610081578063a22cb4651161005b578063a22cb465146101b9578063e985e9c5146101cc578063f242432a1461020857600080fd5b80634e1273f41461017d57806361b8ce8c1461019d578063a0712d68146101a657600080fd5b80630e89341c116100b25780630e89341c146101165780632a55205a146101365780632eb2c2d61461016857600080fd5b8062fdd58e146100cd57806301ffc9a7146100f3575b600080fd5b6100e06100db366004611083565b61021b565b6040519081526020015b60405180910390f35b6101066101013660046110c6565b6102c4565b60405190151581526020016100ea565b6101296101243660046110ea565b6102d5565b6040516100ea9190611150565b610149610144366004611163565b610369565b604080516001600160a01b0390931683526020830191909152016100ea565b61017b6101763660046112d1565b610424565b005b61019061018b36600461137b565b6104c6565b6040516100ea9190611481565b6100e060055481565b6100e06101b43660046110ea565b610604565b61017b6101c7366004611494565b61063b565b6101066101da3660046114d0565b6001600160a01b03918216600090815260016020908152604080832093909416825291909152205460ff1690565b61017b610216366004611503565b61064a565b60006001600160a01b03831661029e5760405162461bcd60e51b815260206004820152602b60248201527f455243313135353a2062616c616e636520717565727920666f7220746865207a60448201527f65726f206164647265737300000000000000000000000000000000000000000060648201526084015b60405180910390fd5b506000908152602081815260408083206001600160a01b03949094168352929052205490565b60006102cf826106e5565b92915050565b6060600280546102e490611568565b80601f016020809104026020016040519081016040528092919081815260200182805461031090611568565b801561035d5780601f106103325761010080835404028352916020019161035d565b820191906000526020600020905b81548152906001019060200180831161034057829003601f168201915b50505050509050919050565b60008281526004602090815260408083208151808301909252546001600160a01b038116808352600160a01b9091046bffffffffffffffffffffffff169282019290925282916103e85750604080518082019091526003546001600160a01b0381168252600160a01b90046bffffffffffffffffffffffff1660208201525b60208101516000906127109061040c906bffffffffffffffffffffffff16876115b8565b61041691906115d7565b915196919550909350505050565b6001600160a01b038516331480610440575061044085336101da565b6104b25760405162461bcd60e51b815260206004820152603260248201527f455243313135353a207472616e736665722063616c6c6572206973206e6f742060448201527f6f776e6572206e6f7220617070726f76656400000000000000000000000000006064820152608401610295565b6104bf858585858561070a565b5050505050565b6060815183511461053f5760405162461bcd60e51b815260206004820152602960248201527f455243313135353a206163636f756e747320616e6420696473206c656e67746860448201527f206d69736d6174636800000000000000000000000000000000000000000000006064820152608401610295565b6000835167ffffffffffffffff81111561055b5761055b611185565b604051908082528060200260200182016040528015610584578160200160208202803683370190505b50905060005b84518110156105fc576105cf8582815181106105a8576105a86115f9565b60200260200101518583815181106105c2576105c26115f9565b602002602001015161021b565b8282815181106105e1576105e16115f9565b60209081029190910101526105f58161160f565b905061058a565b509392505050565b60058054906106369033908390600061061c8361160f565b91905055846040518060200160405280600081525061097d565b919050565b610646338383610a91565b5050565b6001600160a01b038516331480610666575061066685336101da565b6106d85760405162461bcd60e51b815260206004820152602960248201527f455243313135353a2063616c6c6572206973206e6f74206f776e6572206e6f7260448201527f20617070726f76656400000000000000000000000000000000000000000000006064820152608401610295565b6104bf8585858585610b85565b60006001600160e01b0319821663152a902d60e11b14806102cf57506102cf82610d30565b81518351146107815760405162461bcd60e51b815260206004820152602860248201527f455243313135353a2069647320616e6420616d6f756e7473206c656e6774682060448201527f6d69736d617463680000000000000000000000000000000000000000000000006064820152608401610295565b6001600160a01b0384166107e55760405162461bcd60e51b815260206004820152602560248201527f455243313135353a207472616e7366657220746f20746865207a65726f206164604482015264647265737360d81b6064820152608401610295565b3360005b845181101561090f576000858281518110610806576108066115f9565b602002602001015190506000858381518110610824576108246115f9565b602090810291909101810151600084815280835260408082206001600160a01b038e1683529093529190912054909150818110156108b75760405162461bcd60e51b815260206004820152602a60248201527f455243313135353a20696e73756666696369656e742062616c616e636520666f60448201526939103a3930b739b332b960b11b6064820152608401610295565b6000838152602081815260408083206001600160a01b038e8116855292528083208585039055908b168252812080548492906108f4908490611628565b92505081905550505050806109089061160f565b90506107e9565b50846001600160a01b0316866001600160a01b0316826001600160a01b03167f4a39dc06d4c0dbc64b70af90fd698a233a518aa5d07e595d983b8c0526c8f7fb878760405161095f929190611640565b60405180910390a4610975818787878787610d80565b505050505050565b6001600160a01b0384166109dd5760405162461bcd60e51b815260206004820152602160248201527f455243313135353a206d696e7420746f20746865207a65726f206164647265736044820152607360f81b6064820152608401610295565b3360006109e985610f25565b905060006109f685610f25565b90506000868152602081815260408083206001600160a01b038b16845290915281208054879290610a28908490611628565b909155505060408051878152602081018790526001600160a01b03808a1692600092918716917fc3d58168c5ae7397731d063d5bbf3d657854427343f4c083240f7aacaa2d0f62910160405180910390a4610a8883600089898989610f70565b50505050505050565b816001600160a01b0316836001600160a01b031603610b185760405162461bcd60e51b815260206004820152602960248201527f455243313135353a2073657474696e6720617070726f76616c2073746174757360448201527f20666f722073656c6600000000000000000000000000000000000000000000006064820152608401610295565b6001600160a01b03838116600081815260016020908152604080832094871680845294825291829020805460ff191686151590811790915591519182527f17307eab39ab6107e8899845ad3d59bd9653f200f220920489ca2b5937696c31910160405180910390a3505050565b6001600160a01b038416610be95760405162461bcd60e51b815260206004820152602560248201527f455243313135353a207472616e7366657220746f20746865207a65726f206164604482015264647265737360d81b6064820152608401610295565b336000610bf585610f25565b90506000610c0285610f25565b90506000868152602081815260408083206001600160a01b038c16845290915290205485811015610c885760405162461bcd60e51b815260206004820152602a60248201527f455243313135353a20696e73756666696369656e742062616c616e636520666f60448201526939103a3930b739b332b960b11b6064820152608401610295565b6000878152602081815260408083206001600160a01b038d8116855292528083208985039055908a16825281208054889290610cc5908490611628565b909155505060408051888152602081018890526001600160a01b03808b16928c821692918816917fc3d58168c5ae7397731d063d5bbf3d657854427343f4c083240f7aacaa2d0f62910160405180910390a4610d25848a8a8a8a8a610f70565b505050505050505050565b60006001600160e01b03198216636cdb3d1360e11b1480610d6157506001600160e01b031982166303a24d0760e21b145b806102cf57506301ffc9a760e01b6001600160e01b03198316146102cf565b6001600160a01b0384163b156109755760405163bc197c8160e01b81526001600160a01b0385169063bc197c8190610dc4908990899088908890889060040161166e565b6020604051808303816000875af1925050508015610dff575060408051601f3d908101601f19168201909252610dfc918101906116cc565b60015b610eb457610e0b6116e9565b806308c379a003610e445750610e1f611705565b80610e2a5750610e46565b8060405162461bcd60e51b81526004016102959190611150565b505b60405162461bcd60e51b815260206004820152603460248201527f455243313135353a207472616e7366657220746f206e6f6e204552433131353560448201527f526563656976657220696d706c656d656e7465720000000000000000000000006064820152608401610295565b6001600160e01b0319811663bc197c8160e01b14610a885760405162461bcd60e51b815260206004820152602860248201527f455243313135353a204552433131353552656365697665722072656a656374656044820152676420746f6b656e7360c01b6064820152608401610295565b60408051600180825281830190925260609160009190602080830190803683370190505090508281600081518110610f5f57610f5f6115f9565b602090810291909101015292915050565b6001600160a01b0384163b156109755760405163f23a6e6160e01b81526001600160a01b0385169063f23a6e6190610fb4908990899088908890889060040161178f565b6020604051808303816000875af1925050508015610fef575060408051601f3d908101601f19168201909252610fec918101906116cc565b60015b610ffb57610e0b6116e9565b6001600160e01b0319811663f23a6e6160e01b14610a885760405162461bcd60e51b815260206004820152602860248201527f455243313135353a204552433131353552656365697665722072656a656374656044820152676420746f6b656e7360c01b6064820152608401610295565b80356001600160a01b038116811461063657600080fd5b6000806040838503121561109657600080fd5b61109f8361106c565b946020939093013593505050565b6001600160e01b0319811681146110c357600080fd5b50565b6000602082840312156110d857600080fd5b81356110e3816110ad565b9392505050565b6000602082840312156110fc57600080fd5b5035919050565b6000815180845260005b818110156111295760208185018101518683018201520161110d565b8181111561113b576000602083870101525b50601f01601f19169290920160200192915050565b6020815260006110e36020830184611103565b6000806040838503121561117657600080fd5b50508035926020909101359150565b634e487b7160e01b600052604160045260246000fd5b601f8201601f1916810167ffffffffffffffff811182821017156111c1576111c1611185565b6040525050565b600067ffffffffffffffff8211156111e2576111e2611185565b5060051b60200190565b600082601f8301126111fd57600080fd5b8135602061120a826111c8565b604051611217828261119b565b83815260059390931b850182019282810191508684111561123757600080fd5b8286015b84811015611252578035835291830191830161123b565b509695505050505050565b600082601f83011261126e57600080fd5b813567ffffffffffffffff81111561128857611288611185565b60405161129f601f8301601f19166020018261119b565b8181528460208386010111156112b457600080fd5b816020850160208301376000918101602001919091529392505050565b600080600080600060a086880312156112e957600080fd5b6112f28661106c565b94506113006020870161106c565b9350604086013567ffffffffffffffff8082111561131d57600080fd5b61132989838a016111ec565b9450606088013591508082111561133f57600080fd5b61134b89838a016111ec565b9350608088013591508082111561136157600080fd5b5061136e8882890161125d565b9150509295509295909350565b6000806040838503121561138e57600080fd5b823567ffffffffffffffff808211156113a657600080fd5b818501915085601f8301126113ba57600080fd5b813560206113c7826111c8565b6040516113d4828261119b565b83815260059390931b85018201928281019150898411156113f457600080fd5b948201945b838610156114195761140a8661106c565b825294820194908201906113f9565b9650508601359250508082111561142f57600080fd5b5061143c858286016111ec565b9150509250929050565b600081518084526020808501945080840160005b838110156114765781518752958201959082019060010161145a565b509495945050505050565b6020815260006110e36020830184611446565b600080604083850312156114a757600080fd5b6114b08361106c565b9150602083013580151581146114c557600080fd5b809150509250929050565b600080604083850312156114e357600080fd5b6114ec8361106c565b91506114fa6020840161106c565b90509250929050565b600080600080600060a0868803121561151b57600080fd5b6115248661106c565b94506115326020870161106c565b93506040860135925060608601359150608086013567ffffffffffffffff81111561155c57600080fd5b61136e8882890161125d565b600181811c9082168061157c57607f821691505b60208210810361159c57634e487b7160e01b600052602260045260246000fd5b50919050565b634e487b7160e01b600052601160045260246000fd5b60008160001904831182151516156115d2576115d26115a2565b500290565b6000826115f457634e487b7160e01b600052601260045260246000fd5b500490565b634e487b7160e01b600052603260045260246000fd5b600060018201611621576116216115a2565b5060010190565b6000821982111561163b5761163b6115a2565b500190565b6040815260006116536040830185611446565b82810360208401526116658185611446565b95945050505050565b60006001600160a01b03808816835280871660208401525060a0604083015261169a60a0830186611446565b82810360608401526116ac8186611446565b905082810360808401526116c08185611103565b98975050505050505050565b6000602082840312156116de57600080fd5b81516110e3816110ad565b600060033d11156117025760046000803e5060005160e01c5b90565b600060443d10156117135790565b6040516003193d81016004833e81513d67ffffffffffffffff816024840111818411171561174357505050505090565b828501915081518181111561175b5750505050505090565b843d87010160208285010111156117755750505050505090565b6117846020828601018761119b565b509095945050505050565b60006001600160a01b03808816835280871660208401525084604083015283606083015260a060808301526117c760a0830184611103565b97965050505050505056fea164736f6c634300080f000a",
  "devdoc": {
    "kind": "dev",
    "methods": {
      "balanceOf(address,uint256)": {
        "details": "See {IERC1155-balanceOf}. Requirements: - `account` cannot be the zero address."
      },
      "balanceOfBatch(address[],uint256[])": {
        "details": "See {IERC1155-balanceOfBatch}. Requirements: - `accounts` and `ids` must have the same length."
      },
      "isApprovedForAll(address,address)": {
        "details": "See {IERC1155-isApprovedForAll}."
      },
      "royaltyInfo(uint256,uint256)": {
        "details": "Returns how much royalty is owed and to whom, based on a sale price that may be denominated in any unit of exchange. The royalty amount is denominated and should be paid in that same unit of exchange."
      },
      "safeBatchTransferFrom(address,address,uint256[],uint256[],bytes)": {
        "details": "See {IERC1155-safeBatchTransferFrom}."
      },
      "safeTransferFrom(address,address,uint256,uint256,bytes)": {
        "details": "See {IERC1155-safeTransferFrom}."
      },
      "setApprovalForAll(address,bool)": {
        "details": "See {IERC1155-setApprovalForAll}."
      },
      "supportsInterface(bytes4)": {
        "details": "See {IERC165-supportsInterface}."
      },
      "uri(uint256)": {
        "details": "See {IERC1155MetadataURI-uri}. This implementation returns the same URI for *all* token types. It relies on the token type ID substitution mechanism https://eips.ethereum.org/EIPS/eip-1155#metadata[defined in the EIP]. Clients calling this function must replace the `\\{id\\}` substring with the actual token type ID."
      }
    },
    "version": 1
  },
  "userdoc": {
    "kind": "user",
    "methods": {},
    "version": 1
  },
  "storageLayout": {
    "storage": [
      {
        "astId": 5580,
        "contract": "src/mocks/MockRoyalty1155.sol:MockRoyalty1155",
        "label": "_balances",
        "offset": 0,
        "slot": "0",
        "type": "t_mapping(t_uint256,t_mapping(t_address,t_uint256))"
      },
      {
        "astId": 5586,
        "contract": "src/mocks/MockRoyalty1155.sol:MockRoyalty1155",
        "label": "_operatorApprovals",
        "offset": 0,
        "slot": "1",
        "type": "t_mapping(t_address,t_mapping(t_address,t_bool))"
      },
      {
        "astId": 5588,
        "contract": "src/mocks/MockRoyalty1155.sol:MockRoyalty1155",
        "label": "_uri",
        "offset": 0,
        "slot": "2",
        "type": "t_string_storage"
      },
      {
        "astId": 9647,
        "contract": "src/mocks/MockRoyalty1155.sol:MockRoyalty1155",
        "label": "_defaultRoyaltyInfo",
        "offset": 0,
        "slot": "3",
        "type": "t_struct(RoyaltyInfo)9644_storage"
      },
      {
        "astId": 9652,
        "contract": "src/mocks/MockRoyalty1155.sol:MockRoyalty1155",
        "label": "_tokenRoyaltyInfo",
        "offset": 0,
        "slot": "4",
        "type": "t_mapping(t_uint256,t_struct(RoyaltyInfo)9644_storage)"
      },
      {
        "astId": 25246,
        "contract": "src/mocks/MockRoyalty1155.sol:MockRoyalty1155",
        "label": "nextId",
        "offset": 0,
        "slot": "5",
        "type": "t_uint256"
      }
    ],
    "types": {
      "t_address": {
        "encoding": "inplace",
        "label": "address",
        "numberOfBytes": "20"
      },
      "t_bool": {
        "encoding": "inplace",
        "label": "bool",
        "numberOfBytes": "1"
      },
      "t_mapping(t_address,t_bool)": {
        "encoding": "mapping",
        "key": "t_address",
        "label": "mapping(address => bool)",
        "numberOfBytes": "32",
        "value": "t_bool"
      },
      "t_mapping(t_address,t_mapping(t_address,t_bool))": {
        "encoding": "mapping",
        "key": "t_address",
        "label": "mapping(address => mapping(address => bool))",
        "numberOfBytes": "32",
        "value": "t_mapping(t_address,t_bool)"
      },
      "t_mapping(t_address,t_uint256)": {
        "encoding": "mapping",
        "key": "t_address",
        "label": "mapping(address => uint256)",
        "numberOfBytes": "32",
        "value": "t_uint256"
      },
      "t_mapping(t_uint256,t_mapping(t_address,t_uint256))": {
        "encoding": "mapping",
        "key": "t_uint256",
        "label": "mapping(uint256 => mapping(address => uint256))",
        "numberOfBytes": "32",
        "value": "t_mapping(t_address,t_uint256)"
      },
      "t_mapping(t_uint256,t_struct(RoyaltyInfo)9644_storage)": {
        "encoding": "mapping",
        "key": "t_uint256",
        "label": "mapping(uint256 => struct ERC2981.RoyaltyInfo)",
        "numberOfBytes": "32",
        "value": "t_struct(RoyaltyInfo)9644_storage"
      },
      "t_string_storage": {
        "encoding": "bytes",
        "label": "string",
        "numberOfBytes": "32"
      },
      "t_struct(RoyaltyInfo)9644_storage": {
        "encoding": "inplace",
        "label": "struct ERC2981.RoyaltyInfo",
        "members": [
          {
            "astId": 9641,
            "contract": "src/mocks/MockRoyalty1155.sol:MockRoyalty1155",
            "label": "receiver",
            "offset": 0,
            "slot": "0",
            "type": "t_address"
          },
          {
            "astId": 9643,
            "contract": "src/mocks/MockRoyalty1155.sol:MockRoyalty1155",
            "label": "royaltyFraction",
            "offset": 20,
            "slot": "0",
            "type": "t_uint96"
          }
        ],
        "numberOfBytes": "32"
      },
      "t_uint256": {
        "encoding": "inplace",
        "label": "uint256",
        "numberOfBytes": "32"
      },
      "t_uint96": {
        "encoding": "inplace",
        "label": "uint96",
        "numberOfBytes": "12"
      }
    }
  }
}