{
  "address": "0xdAba53b4Cf0B7353b6C28cfCBC38d619348c6796",
  "abi": [
    {
      "inputs": [
        {
          "internalType": "contract IWETH9",
          "name": "WETH_",
          "type": "address"
        }
      ],
      "stateMutability": "nonpayable",
      "type": "constructor"
    },
    {
      "inputs": [],
      "name": "AmountExceedsMaxFlashLoan",
      "type": "error"
    },
    {
      "inputs": [],
      "name": "ApproveFromZeroAddress",
      "type": "error"
    },
    {
      "inputs": [],
      "name": "ApproveToZeroAddress",
      "type": "error"
    },
    {
      "inputs": [],
      "name": "BurnAmountExceedsBalance",
      "type": "error"
    },
    {
      "inputs": [],
      "name": "BurnFromZeroAddress",
      "type": "error"
    },
    {
      "inputs": [],
      "name": "CallerIsNotTheOwner",
      "type": "error"
    },
    {
      "inputs": [],
      "name": "CantRescueAssetToken",
      "type": "error"
    },
    {
      "inputs": [],
      "name": "DecreasedAllowanceBelowZero",
      "type": "error"
    },
    {
      "inputs": [],
      "name": "ETHSent",
      "type": "error"
    },
    {
      "inputs": [],
      "name": "EligibilityAlreadySet",
      "type": "error"
    },
    {
      "inputs": [],
      "name": "HoldingsUpdationFailed",
      "type": "error"
    },
    {
      "inputs": [],
      "name": "IdNotFound",
      "type": "error"
    },
    {
      "inputs": [],
      "name": "InsufficientAllowance",
      "type": "error"
    },
    {
      "inputs": [],
      "name": "InsufficientETHSent",
      "type": "error"
    },
    {
      "inputs": [],
      "name": "InvalidReturnValue",
      "type": "error"
    },
    {
      "inputs": [],
      "name": "InvalidToken",
      "type": "error"
    },
    {
      "inputs": [],
      "name": "MintToZeroAddress",
      "type": "error"
    },
    {
      "inputs": [],
      "name": "MintingDisabled",
      "type": "error"
    },
    {
      "inputs": [],
      "name": "NFTAlreadyOwned",
      "type": "error"
    },
    {
      "inputs": [],
      "name": "NewOwnerIsZeroAddress",
      "type": "error"
    },
    {
      "inputs": [],
      "name": "NotEligible",
      "type": "error"
    },
    {
      "inputs": [],
      "name": "NotManager",
      "type": "error"
    },
    {
      "inputs": [],
      "name": "NotNFTOwner",
      "type": "error"
    },
    {
      "inputs": [],
      "name": "NotOwner",
      "type": "error"
    },
    {
      "inputs": [],
      "name": "Paused",
      "type": "error"
    },
    {
      "inputs": [],
      "name": "PremiumLimitExceeded",
      "type": "error"
    },
    {
      "inputs": [],
      "name": "RedeemDisabled",
      "type": "error"
    },
    {
      "inputs": [],
      "name": "SwapDisabled",
      "type": "error"
    },
    {
      "inputs": [],
      "name": "TokenLengthMismatch",
      "type": "error"
    },
    {
      "inputs": [],
      "name": "TooManyItems",
      "type": "error"
    },
    {
      "inputs": [],
      "name": "TransferAmountExceedsBalance",
      "type": "error"
    },
    {
      "inputs": [],
      "name": "TransferAmountIsZero",
      "type": "error"
    },
    {
      "inputs": [],
      "name": "TransferFromZeroAddress",
      "type": "error"
    },
    {
      "inputs": [],
      "name": "TransferToZeroAddress",
      "type": "error"
    },
    {
      "inputs": [],
      "name": "UnableToSendETH",
      "type": "error"
    },
    {
      "inputs": [],
      "name": "WrongToken",
      "type": "error"
    },
    {
      "inputs": [],
      "name": "ZeroAddress",
      "type": "error"
    },
    {
      "anonymous": false,
      "inputs": [
        {
          "indexed": true,
          "internalType": "address",
          "name": "owner",
          "type": "address"
        },
        {
          "indexed": true,
          "internalType": "address",
          "name": "spender",
          "type": "address"
        },
        {
          "indexed": false,
          "internalType": "uint256",
          "name": "value",
          "type": "uint256"
        }
      ],
      "name": "Approval",
      "type": "event"
    },
    {
      "anonymous": false,
      "inputs": [
        {
          "indexed": false,
          "internalType": "uint256",
          "name": "moduleIndex",
          "type": "uint256"
        },
        {
          "indexed": false,
          "internalType": "address",
          "name": "eligibilityAddr",
          "type": "address"
        }
      ],
      "name": "EligibilityDeployed",
      "type": "event"
    },
    {
      "anonymous": false,
      "inputs": [
        {
          "indexed": false,
          "internalType": "bool",
          "name": "enabled",
          "type": "bool"
        }
      ],
      "name": "EnableMintUpdated",
      "type": "event"
    },
    {
      "anonymous": false,
      "inputs": [
        {
          "indexed": false,
          "internalType": "bool",
          "name": "enabled",
          "type": "bool"
        }
      ],
      "name": "EnableRedeemUpdated",
      "type": "event"
    },
    {
      "anonymous": false,
      "inputs": [
        {
          "indexed": false,
          "internalType": "bool",
          "name": "enabled",
          "type": "bool"
        }
      ],
      "name": "EnableSwapUpdated",
      "type": "event"
    },
    {
      "anonymous": false,
      "inputs": [
        {
          "indexed": false,
          "internalType": "uint256",
          "name": "wethFees",
          "type": "uint256"
        }
      ],
      "name": "FeesDistributed",
      "type": "event"
    },
    {
      "anonymous": false,
      "inputs": [
        {
          "indexed": false,
          "internalType": "uint8",
          "name": "version",
          "type": "uint8"
        }
      ],
      "name": "Initialized",
      "type": "event"
    },
    {
      "anonymous": false,
      "inputs": [
        {
          "indexed": false,
          "internalType": "address",
          "name": "manager",
          "type": "address"
        }
      ],
      "name": "ManagerSet",
      "type": "event"
    },
    {
      "anonymous": false,
      "inputs": [
        {
          "indexed": false,
          "internalType": "string",
          "name": "name",
          "type": "string"
        },
        {
          "indexed": false,
          "internalType": "string",
          "name": "symbol",
          "type": "string"
        }
      ],
      "name": "MetadataUpdated",
      "type": "event"
    },
    {
      "anonymous": false,
      "inputs": [
        {
          "indexed": false,
          "internalType": "uint256[]",
          "name": "nftIds",
          "type": "uint256[]"
        },
        {
          "indexed": false,
          "internalType": "uint256[]",
          "name": "amounts",
          "type": "uint256[]"
        },
        {
          "indexed": false,
          "internalType": "address",
          "name": "to",
          "type": "address"
        },
        {
          "indexed": false,
          "internalType": "address",
          "name": "depositor",
          "type": "address"
        }
      ],
      "name": "Minted",
      "type": "event"
    },
    {
      "anonymous": false,
      "inputs": [
        {
          "indexed": true,
          "internalType": "address",
          "name": "previousOwner",
          "type": "address"
        },
        {
          "indexed": true,
          "internalType": "address",
          "name": "newOwner",
          "type": "address"
        }
      ],
      "name": "OwnershipTransferred",
      "type": "event"
    },
    {
      "anonymous": false,
      "inputs": [
        {
          "indexed": false,
          "internalType": "address",
          "name": "depositor",
          "type": "address"
        },
        {
          "indexed": false,
          "internalType": "uint256",
          "name": "wethPremium",
          "type": "uint256"
        }
      ],
      "name": "PremiumShared",
      "type": "event"
    },
    {
      "anonymous": false,
      "inputs": [
        {
          "indexed": false,
          "internalType": "uint256[]",
          "name": "specificIds",
          "type": "uint256[]"
        },
        {
          "indexed": false,
          "internalType": "address",
          "name": "to",
          "type": "address"
        }
      ],
      "name": "Redeemed",
      "type": "event"
    },
    {
      "anonymous": false,
      "inputs": [
        {
          "indexed": false,
          "internalType": "uint256[]",
          "name": "nftIds",
          "type": "uint256[]"
        },
        {
          "indexed": false,
          "internalType": "uint256[]",
          "name": "amounts",
          "type": "uint256[]"
        },
        {
          "indexed": false,
          "internalType": "uint256[]",
          "name": "specificIds",
          "type": "uint256[]"
        },
        {
          "indexed": false,
          "internalType": "address",
          "name": "to",
          "type": "address"
        },
        {
          "indexed": false,
          "internalType": "address",
          "name": "depositor",
          "type": "address"
        }
      ],
      "name": "Swapped",
      "type": "event"
    },
    {
      "anonymous": false,
      "inputs": [
        {
          "indexed": true,
          "internalType": "address",
          "name": "from",
          "type": "address"
        },
        {
          "indexed": true,
          "internalType": "address",
          "name": "to",
          "type": "address"
        },
        {
          "indexed": false,
          "internalType": "uint256",
          "name": "value",
          "type": "uint256"
        }
      ],
      "name": "Transfer",
      "type": "event"
    },
    {
      "anonymous": false,
      "inputs": [
        {
          "indexed": true,
          "internalType": "uint256",
          "name": "vaultId",
          "type": "uint256"
        },
        {
          "indexed": false,
          "internalType": "address",
          "name": "assetAddress",
          "type": "address"
        },
        {
          "indexed": false,
          "internalType": "bool",
          "name": "is1155",
          "type": "bool"
        },
        {
          "indexed": false,
          "internalType": "bool",
          "name": "allowAllItems",
          "type": "bool"
        }
      ],
      "name": "VaultInit",
      "type": "event"
    },
    {
      "anonymous": false,
      "inputs": [
        {
          "indexed": false,
          "internalType": "address",
          "name": "assetAddress",
          "type": "address"
        },
        {
          "indexed": false,
          "internalType": "uint256",
          "name": "numItems",
          "type": "uint256"
        },
        {
          "indexed": false,
          "internalType": "address",
          "name": "recipient",
          "type": "address"
        }
      ],
      "name": "VaultShutdown",
      "type": "event"
    },
    {
      "inputs": [],
      "name": "WETH",
      "outputs": [
        {
          "internalType": "contract IWETH9",
          "name": "",
          "type": "address"
        }
      ],
      "stateMutability": "view",
      "type": "function"
    },
    {
      "inputs": [
        {
          "internalType": "string",
          "name": "name_",
          "type": "string"
        },
        {
          "internalType": "string",
          "name": "symbol_",
          "type": "string"
        },
        {
          "internalType": "address",
          "name": "assetAddress_",
          "type": "address"
        },
        {
          "internalType": "bool",
          "name": "is1155_",
          "type": "bool"
        },
        {
          "internalType": "bool",
          "name": "allowAllItems_",
          "type": "bool"
        }
      ],
      "name": "__NFTXVault_init",
      "outputs": [],
      "stateMutability": "nonpayable",
      "type": "function"
    },
    {
      "inputs": [],
      "name": "allHoldings",
      "outputs": [
        {
          "internalType": "uint256[]",
          "name": "",
          "type": "uint256[]"
        }
      ],
      "stateMutability": "view",
      "type": "function"
    },
    {
      "inputs": [
        {
          "internalType": "uint256[]",
          "name": "tokenIds",
          "type": "uint256[]"
        }
      ],
      "name": "allValidNFTs",
      "outputs": [
        {
          "internalType": "bool",
          "name": "",
          "type": "bool"
        }
      ],
      "stateMutability": "view",
      "type": "function"
    },
    {
      "inputs": [],
      "name": "allowAllItems",
      "outputs": [
        {
          "internalType": "bool",
          "name": "",
          "type": "bool"
        }
      ],
      "stateMutability": "view",
      "type": "function"
    },
    {
      "inputs": [
        {
          "internalType": "address",
          "name": "owner",
          "type": "address"
        },
        {
          "internalType": "address",
          "name": "spender",
          "type": "address"
        }
      ],
      "name": "allowance",
      "outputs": [
        {
          "internalType": "uint256",
          "name": "",
          "type": "uint256"
        }
      ],
      "stateMutability": "view",
      "type": "function"
    },
    {
      "inputs": [
        {
          "internalType": "address",
          "name": "spender",
          "type": "address"
        },
        {
          "internalType": "uint256",
          "name": "amount",
          "type": "uint256"
        }
      ],
      "name": "approve",
      "outputs": [
        {
          "internalType": "bool",
          "name": "",
          "type": "bool"
        }
      ],
      "stateMutability": "nonpayable",
      "type": "function"
    },
    {
      "inputs": [],
      "name": "assetAddress",
      "outputs": [
        {
          "internalType": "address",
          "name": "",
          "type": "address"
        }
      ],
      "stateMutability": "view",
      "type": "function"
    },
    {
      "inputs": [
        {
          "internalType": "address",
          "name": "account",
          "type": "address"
        }
      ],
      "name": "balanceOf",
      "outputs": [
        {
          "internalType": "uint256",
          "name": "",
          "type": "uint256"
        }
      ],
      "stateMutability": "view",
      "type": "function"
    },
    {
      "inputs": [],
      "name": "decimals",
      "outputs": [
        {
          "internalType": "uint8",
          "name": "",
          "type": "uint8"
        }
      ],
      "stateMutability": "view",
      "type": "function"
    },
    {
      "inputs": [
        {
          "internalType": "address",
          "name": "spender",
          "type": "address"
        },
        {
          "internalType": "uint256",
          "name": "subtractedValue",
          "type": "uint256"
        }
      ],
      "name": "decreaseAllowance",
      "outputs": [
        {
          "internalType": "bool",
          "name": "",
          "type": "bool"
        }
      ],
      "stateMutability": "nonpayable",
      "type": "function"
    },
    {
      "inputs": [
        {
          "internalType": "uint256",
          "name": "moduleIndex",
          "type": "uint256"
        },
        {
          "internalType": "bytes",
          "name": "initData",
          "type": "bytes"
        }
      ],
      "name": "deployEligibilityStorage",
      "outputs": [
        {
          "internalType": "address",
          "name": "",
          "type": "address"
        }
      ],
      "stateMutability": "nonpayable",
      "type": "function"
    },
    {
      "inputs": [
        {
          "internalType": "uint256",
          "name": "",
          "type": "uint256"
        },
        {
          "internalType": "uint256",
          "name": "",
          "type": "uint256"
        }
      ],
      "name": "depositInfo1155",
      "outputs": [
        {
          "internalType": "uint256",
          "name": "qty",
          "type": "uint256"
        },
        {
          "internalType": "address",
          "name": "depositor",
          "type": "address"
        },
        {
          "internalType": "uint48",
          "name": "timestamp",
          "type": "uint48"
        }
      ],
      "stateMutability": "view",
      "type": "function"
    },
    {
      "inputs": [
        {
          "internalType": "uint256",
          "name": "tokenId",
          "type": "uint256"
        }
      ],
      "name": "depositInfo1155Length",
      "outputs": [
        {
          "internalType": "uint256",
          "name": "",
          "type": "uint256"
        }
      ],
      "stateMutability": "view",
      "type": "function"
    },
    {
      "inputs": [],
      "name": "disableVaultFees",
      "outputs": [],
      "stateMutability": "nonpayable",
      "type": "function"
    },
    {
      "inputs": [],
      "name": "eligibilityStorage",
      "outputs": [
        {
          "internalType": "contract INFTXEligibility",
          "name": "",
          "type": "address"
        }
      ],
      "stateMutability": "view",
      "type": "function"
    },
    {
      "inputs": [],
      "name": "enableMint",
      "outputs": [
        {
          "internalType": "bool",
          "name": "",
          "type": "bool"
        }
      ],
      "stateMutability": "view",
      "type": "function"
    },
    {
      "inputs": [],
      "name": "enableRedeem",
      "outputs": [
        {
          "internalType": "bool",
          "name": "",
          "type": "bool"
        }
      ],
      "stateMutability": "view",
      "type": "function"
    },
    {
      "inputs": [],
      "name": "enableSwap",
      "outputs": [
        {
          "internalType": "bool",
          "name": "",
          "type": "bool"
        }
      ],
      "stateMutability": "view",
      "type": "function"
    },
    {
      "inputs": [],
      "name": "finalizeVault",
      "outputs": [],
      "stateMutability": "nonpayable",
      "type": "function"
    },
    {
      "inputs": [
        {
          "internalType": "address",
          "name": "token",
          "type": "address"
        },
        {
          "internalType": "uint256",
          "name": "amount",
          "type": "uint256"
        }
      ],
      "name": "flashFee",
      "outputs": [
        {
          "internalType": "uint256",
          "name": "",
          "type": "uint256"
        }
      ],
      "stateMutability": "view",
      "type": "function"
    },
    {
      "inputs": [
        {
          "internalType": "contract IERC3156FlashBorrowerUpgradeable",
          "name": "receiver",
          "type": "address"
        },
        {
          "internalType": "address",
          "name": "token",
          "type": "address"
        },
        {
          "internalType": "uint256",
          "name": "amount",
          "type": "uint256"
        },
        {
          "internalType": "bytes",
          "name": "data",
          "type": "bytes"
        }
      ],
      "name": "flashLoan",
      "outputs": [
        {
          "internalType": "bool",
          "name": "",
          "type": "bool"
        }
      ],
      "stateMutability": "nonpayable",
      "type": "function"
    },
    {
      "inputs": [
        {
          "internalType": "uint256",
          "name": "tokenId",
          "type": "uint256"
        }
      ],
      "name": "holdingsContains",
      "outputs": [
        {
          "internalType": "bool",
          "name": "",
          "type": "bool"
        }
      ],
      "stateMutability": "view",
      "type": "function"
    },
    {
      "inputs": [
        {
          "internalType": "address",
          "name": "spender",
          "type": "address"
        },
        {
          "internalType": "uint256",
          "name": "addedValue",
          "type": "uint256"
        }
      ],
      "name": "increaseAllowance",
      "outputs": [
        {
          "internalType": "bool",
          "name": "",
          "type": "bool"
        }
      ],
      "stateMutability": "nonpayable",
      "type": "function"
    },
    {
      "inputs": [],
      "name": "is1155",
      "outputs": [
        {
          "internalType": "bool",
          "name": "",
          "type": "bool"
        }
      ],
      "stateMutability": "view",
      "type": "function"
    },
    {
      "inputs": [],
      "name": "manager",
      "outputs": [
        {
          "internalType": "address",
          "name": "",
          "type": "address"
        }
      ],
      "stateMutability": "view",
      "type": "function"
    },
    {
      "inputs": [
        {
          "internalType": "address",
          "name": "token",
          "type": "address"
        }
      ],
      "name": "maxFlashLoan",
      "outputs": [
        {
          "internalType": "uint256",
          "name": "",
          "type": "uint256"
        }
      ],
      "stateMutability": "view",
      "type": "function"
    },
    {
      "inputs": [
        {
          "internalType": "uint256[]",
          "name": "tokenIds",
          "type": "uint256[]"
        },
        {
          "internalType": "uint256[]",
          "name": "amounts",
          "type": "uint256[]"
        },
        {
          "internalType": "address",
          "name": "depositor",
          "type": "address"
        },
        {
          "internalType": "address",
          "name": "to",
          "type": "address"
        }
      ],
      "name": "mint",
      "outputs": [
        {
          "internalType": "uint256",
          "name": "vTokensMinted",
          "type": "uint256"
        }
      ],
      "stateMutability": "payable",
      "type": "function"
    },
    {
      "inputs": [],
      "name": "name",
      "outputs": [
        {
          "internalType": "string",
          "name": "",
          "type": "string"
        }
      ],
      "stateMutability": "view",
      "type": "function"
    },
    {
      "inputs": [
        {
          "internalType": "uint256",
          "name": "holdingsIndex",
          "type": "uint256"
        }
      ],
      "name": "nftIdAt",
      "outputs": [
        {
          "internalType": "uint256",
          "name": "",
          "type": "uint256"
        }
      ],
      "stateMutability": "view",
      "type": "function"
    },
    {
      "inputs": [
        {
          "internalType": "address",
          "name": "",
          "type": "address"
        },
        {
          "internalType": "address",
          "name": "",
          "type": "address"
        },
        {
          "internalType": "uint256[]",
          "name": "",
          "type": "uint256[]"
        },
        {
          "internalType": "uint256[]",
          "name": "",
          "type": "uint256[]"
        },
        {
          "internalType": "bytes",
          "name": "",
          "type": "bytes"
        }
      ],
      "name": "onERC1155BatchReceived",
      "outputs": [
        {
          "internalType": "bytes4",
          "name": "",
          "type": "bytes4"
        }
      ],
      "stateMutability": "nonpayable",
      "type": "function"
    },
    {
      "inputs": [
        {
          "internalType": "address",
          "name": "",
          "type": "address"
        },
        {
          "internalType": "address",
          "name": "",
          "type": "address"
        },
        {
          "internalType": "uint256",
          "name": "",
          "type": "uint256"
        },
        {
          "internalType": "uint256",
          "name": "",
          "type": "uint256"
        },
        {
          "internalType": "bytes",
          "name": "",
          "type": "bytes"
        }
      ],
      "name": "onERC1155Received",
      "outputs": [
        {
          "internalType": "bytes4",
          "name": "",
          "type": "bytes4"
        }
      ],
      "stateMutability": "nonpayable",
      "type": "function"
    },
    {
      "inputs": [
        {
          "internalType": "address",
          "name": "",
          "type": "address"
        },
        {
          "internalType": "address",
          "name": "",
          "type": "address"
        },
        {
          "internalType": "uint256",
          "name": "",
          "type": "uint256"
        },
        {
          "internalType": "bytes",
          "name": "",
          "type": "bytes"
        }
      ],
      "name": "onERC721Received",
      "outputs": [
        {
          "internalType": "bytes4",
          "name": "",
          "type": "bytes4"
        }
      ],
      "stateMutability": "nonpayable",
      "type": "function"
    },
    {
      "inputs": [],
      "name": "owner",
      "outputs": [
        {
          "internalType": "address",
          "name": "",
          "type": "address"
        }
      ],
      "stateMutability": "view",
      "type": "function"
    },
    {
      "inputs": [
        {
          "internalType": "uint256",
          "name": "",
          "type": "uint256"
        }
      ],
      "name": "pointerIndex1155",
      "outputs": [
        {
          "internalType": "uint256",
          "name": "",
          "type": "uint256"
        }
      ],
      "stateMutability": "view",
      "type": "function"
    },
    {
      "inputs": [
        {
          "internalType": "uint256[]",
          "name": "idsOut",
          "type": "uint256[]"
        },
        {
          "internalType": "address",
          "name": "to",
          "type": "address"
        },
        {
          "internalType": "uint256",
          "name": "wethAmount",
          "type": "uint256"
        },
        {
          "internalType": "uint256",
          "name": "vTokenPremiumLimit",
          "type": "uint256"
        },
        {
          "internalType": "bool",
          "name": "forceFees",
          "type": "bool"
        }
      ],
      "name": "redeem",
      "outputs": [
        {
          "internalType": "uint256",
          "name": "ethFees",
          "type": "uint256"
        }
      ],
      "stateMutability": "payable",
      "type": "function"
    },
    {
      "inputs": [],
      "name": "renounceOwnership",
      "outputs": [],
      "stateMutability": "nonpayable",
      "type": "function"
    },
    {
      "inputs": [
        {
          "internalType": "enum INFTXVaultV3.TokenType",
          "name": "tt",
          "type": "uint8"
        },
        {
          "internalType": "address",
          "name": "token",
          "type": "address"
        },
        {
          "internalType": "uint256[]",
          "name": "ids",
          "type": "uint256[]"
        },
        {
          "internalType": "uint256[]",
          "name": "amounts",
          "type": "uint256[]"
        }
      ],
      "name": "rescueTokens",
      "outputs": [],
      "stateMutability": "nonpayable",
      "type": "function"
    },
    {
      "inputs": [
        {
          "internalType": "uint256",
          "name": "mintFee_",
          "type": "uint256"
        },
        {
          "internalType": "uint256",
          "name": "redeemFee_",
          "type": "uint256"
        },
        {
          "internalType": "uint256",
          "name": "swapFee_",
          "type": "uint256"
        }
      ],
      "name": "setFees",
      "outputs": [],
      "stateMutability": "nonpayable",
      "type": "function"
    },
    {
      "inputs": [
        {
          "internalType": "address",
          "name": "manager_",
          "type": "address"
        }
      ],
      "name": "setManager",
      "outputs": [],
      "stateMutability": "nonpayable",
      "type": "function"
    },
    {
      "inputs": [
        {
          "internalType": "bool",
          "name": "enableMint_",
          "type": "bool"
        },
        {
          "internalType": "bool",
          "name": "enableRedeem_",
          "type": "bool"
        },
        {
          "internalType": "bool",
          "name": "enableSwap_",
          "type": "bool"
        }
      ],
      "name": "setVaultFeatures",
      "outputs": [],
      "stateMutability": "nonpayable",
      "type": "function"
    },
    {
      "inputs": [
        {
          "internalType": "string",
          "name": "name_",
          "type": "string"
        },
        {
          "internalType": "string",
          "name": "symbol_",
          "type": "string"
        }
      ],
      "name": "setVaultMetadata",
      "outputs": [],
      "stateMutability": "nonpayable",
      "type": "function"
    },
    {
      "inputs": [
        {
          "internalType": "address",
          "name": "recipient",
          "type": "address"
        },
        {
          "internalType": "uint256[]",
          "name": "tokenIds",
          "type": "uint256[]"
        }
      ],
      "name": "shutdown",
      "outputs": [],
      "stateMutability": "nonpayable",
      "type": "function"
    },
    {
      "inputs": [
        {
          "internalType": "bytes4",
          "name": "interfaceId",
          "type": "bytes4"
        }
      ],
      "name": "supportsInterface",
      "outputs": [
        {
          "internalType": "bool",
          "name": "",
          "type": "bool"
        }
      ],
      "stateMutability": "view",
      "type": "function"
    },
    {
      "inputs": [
        {
          "internalType": "uint256[]",
          "name": "idsIn",
          "type": "uint256[]"
        },
        {
          "internalType": "uint256[]",
          "name": "amounts",
          "type": "uint256[]"
        },
        {
          "internalType": "uint256[]",
          "name": "idsOut",
          "type": "uint256[]"
        },
        {
          "internalType": "address",
          "name": "depositor",
          "type": "address"
        },
        {
          "internalType": "address",
          "name": "to",
          "type": "address"
        },
        {
          "internalType": "uint256",
          "name": "vTokenPremiumLimit",
          "type": "uint256"
        },
        {
          "internalType": "bool",
          "name": "forceFees",
          "type": "bool"
        }
      ],
      "name": "swap",
      "outputs": [
        {
          "internalType": "uint256",
          "name": "ethFees",
          "type": "uint256"
        }
      ],
      "stateMutability": "payable",
      "type": "function"
    },
    {
      "inputs": [],
      "name": "symbol",
      "outputs": [
        {
          "internalType": "string",
          "name": "",
          "type": "string"
        }
      ],
      "stateMutability": "view",
      "type": "function"
    },
    {
      "inputs": [
        {
          "internalType": "uint256",
          "name": "",
          "type": "uint256"
        }
      ],
      "name": "tokenDepositInfo",
      "outputs": [
        {
          "internalType": "uint48",
          "name": "timestamp",
          "type": "uint48"
        },
        {
          "internalType": "address",
          "name": "depositor",
          "type": "address"
        }
      ],
      "stateMutability": "view",
      "type": "function"
    },
    {
      "inputs": [],
      "name": "totalHoldings",
      "outputs": [
        {
          "internalType": "uint256",
          "name": "",
          "type": "uint256"
        }
      ],
      "stateMutability": "view",
      "type": "function"
    },
    {
      "inputs": [],
      "name": "totalSupply",
      "outputs": [
        {
          "internalType": "uint256",
          "name": "",
          "type": "uint256"
        }
      ],
      "stateMutability": "view",
      "type": "function"
    },
    {
      "inputs": [
        {
          "internalType": "address",
          "name": "to",
          "type": "address"
        },
        {
          "internalType": "uint256",
          "name": "amount",
          "type": "uint256"
        }
      ],
      "name": "transfer",
      "outputs": [
        {
          "internalType": "bool",
          "name": "",
          "type": "bool"
        }
      ],
      "stateMutability": "nonpayable",
      "type": "function"
    },
    {
      "inputs": [
        {
          "internalType": "address",
          "name": "from",
          "type": "address"
        },
        {
          "internalType": "address",
          "name": "to",
          "type": "address"
        },
        {
          "internalType": "uint256",
          "name": "amount",
          "type": "uint256"
        }
      ],
      "name": "transferFrom",
      "outputs": [
        {
          "internalType": "bool",
          "name": "",
          "type": "bool"
        }
      ],
      "stateMutability": "nonpayable",
      "type": "function"
    },
    {
      "inputs": [
        {
          "internalType": "address",
          "name": "newOwner",
          "type": "address"
        }
      ],
      "name": "transferOwnership",
      "outputs": [],
      "stateMutability": "nonpayable",
      "type": "function"
    },
    {
      "inputs": [
        {
          "internalType": "uint256",
          "name": "vTokenAmount",
          "type": "uint256"
        }
      ],
      "name": "vTokenToETH",
      "outputs": [
        {
          "internalType": "uint256",
          "name": "ethAmount",
          "type": "uint256"
        }
      ],
      "stateMutability": "view",
      "type": "function"
    },
    {
      "inputs": [],
      "name": "vaultFactory",
      "outputs": [
        {
          "internalType": "contract INFTXVaultFactoryV3",
          "name": "",
          "type": "address"
        }
      ],
      "stateMutability": "view",
      "type": "function"
    },
    {
      "inputs": [],
      "name": "vaultFees",
      "outputs": [
        {
          "internalType": "uint256",
          "name": "mintFee",
          "type": "uint256"
        },
        {
          "internalType": "uint256",
          "name": "redeemFee",
          "type": "uint256"
        },
        {
          "internalType": "uint256",
          "name": "swapFee",
          "type": "uint256"
        }
      ],
      "stateMutability": "view",
      "type": "function"
    },
    {
      "inputs": [],
      "name": "vaultId",
      "outputs": [
        {
          "internalType": "uint256",
          "name": "",
          "type": "uint256"
        }
      ],
      "stateMutability": "view",
      "type": "function"
    },
    {
      "inputs": [],
      "name": "version",
      "outputs": [
        {
          "internalType": "string",
          "name": "",
          "type": "string"
        }
      ],
      "stateMutability": "pure",
      "type": "function"
    }
  ],
  "transactionHash": "0x0caeb30632291d6ffa0fc0587edbbb5041670f133c60a0140ba6e7d0c297638f",
  "args": [
    "0xfFf9976782d46CC05630D1f6eBAb18b2324d6B14"
  ],
  "numDeployments": 2,
  "solcInputHash": "82b09045ffb6b33d8021d41442d5e786",
  "bytecode": "0x60a06040523480156200001157600080fd5b5060405162005c5438038062005c54833981016040819052620000349162000046565b6001600160a01b031660805262000078565b6000602082840312156200005957600080fd5b81516001600160a01b03811681146200007157600080fd5b9392505050565b608051615b8f620000c56000396000818161096501528181612afc01528181612b9501528181612c7301528181612de201528181613565015281816135fa0152613c100152615b8f6000f3fe6080604052600436106103755760003560e01c80636b948a35116101d1578063b6c958b011610102578063d9d98ce4116100a0578063e9ec2e991161006f578063e9ec2e9914610b22578063f1d20dd414610b37578063f23a6e6114610b57578063f2fde38b14610b8357600080fd5b8063d9d98ce414610a7c578063dd62ed3e14610a9c578063e0a8b97a14610ae2578063e78458c414610b0257600080fd5b8063c3cb8c14116100dc578063c3cb8c1414610a06578063cec10c1114610a1b578063d0ebdbe714610a3b578063d8a06f7314610a5b57600080fd5b8063b6c958b0146109a7578063b8517b78146109ba578063bc197c81146109da57600080fd5b80639c5155461161016f578063a457c2d711610149578063a457c2d714610913578063a9059cbb14610933578063ad5c464814610953578063af1c5bbd1461098757600080fd5b80639c5155461461087a578063a1db8493146108c5578063a3f1ebea146108f357600080fd5b806372188e3f116101ab57806372188e3f146107f65780638da5cb5b146108265780638f878a431461084457806395d89b411461086557600080fd5b80636b948a351461078957806370a08231146107ab578063715018a6146107e157600080fd5b8063313ce567116102ab57806354dc4de8116102495780635877aee6116102235780635877aee6146107165780635cffe9de14610736578063613255ab14610756578063659a1fe81461077657600080fd5b806354dc4de8146106a757806354f78d7f146106c757806354fd4d50146106e757600080fd5b806341c5c7641161028557806341c5c7641461061157806344b28d591461063f57806345a0b65214610661578063481c6a751461068157600080fd5b8063313ce567146105be57806333194c0a146105da57806339509351146105f157600080fd5b806318160ddd1161031857806323b872dd116102f257806323b872dd1461054757806325705d8d146105675780632969144814610589578063296fc49e146105ab57600080fd5b806318160ddd1461047e578063184990391461049d5780631ba46cfd1461050e57600080fd5b806306f26dc21161035457806306f26dc2146103e857806306fdde0314610403578063095ea7b314610425578063150b7a021461044557600080fd5b80625181611461037a57806301ffc9a714610391578063061873e8146103c6575b600080fd5b34801561038657600080fd5b5061038f610ba3565b005b34801561039d57600080fd5b506103b16103ac366004614ba6565b610c16565b60405190151581526020015b60405180910390f35b3480156103d257600080fd5b506101c7546103b190600160b01b900460ff1681565b3480156103f457600080fd5b506101c6546103b19060ff1681565b34801561040f57600080fd5b50610418610c4d565b6040516103bd9190614c28565b34801561043157600080fd5b506103b1610440366004614c50565b610cdf565b34801561045157600080fd5b50610465610460366004614d33565b610cf7565b6040516001600160e01b031990911681526020016103bd565b34801561048a57600080fd5b506067545b6040519081526020016103bd565b3480156104a957600080fd5b506104e86104b8366004614d9f565b6101cb6020526000908152604090205465ffffffffffff811690660100000000000090046001600160a01b031682565b6040805165ffffffffffff90931683526001600160a01b039091166020830152016103bd565b34801561051a57600080fd5b506101c35461052f906001600160a01b031681565b6040516001600160a01b0390911681526020016103bd565b34801561055357600080fd5b506103b1610562366004614db8565b610d08565b34801561057357600080fd5b5061057c610d2e565b6040516103bd9190614df9565b34801561059557600080fd5b506101c7546103b190600160b81b900460ff1681565b61048f6105b9366004614ea0565b610dc9565b3480156105ca57600080fd5b50604051601281526020016103bd565b3480156105e657600080fd5b5061048f6101c55481565b3480156105fd57600080fd5b506103b161060c366004614c50565b610ff2565b34801561061d57600080fd5b5061048f61062c366004614d9f565b60009081526101cc602052604090205490565b34801561064b57600080fd5b506101c7546103b190600160a81b900460ff1681565b34801561066d57600080fd5b5061048f61067c366004614d9f565b611031565b34801561068d57600080fd5b506101c65461052f9061010090046001600160a01b031681565b3480156106b357600080fd5b506103b16106c2366004614d9f565b61103f565b3480156106d357600080fd5b5061038f6106e2366004614f1c565b61104d565b3480156106f357600080fd5b50604080518082019091526006815265076332e302e360d41b6020820152610418565b34801561072257600080fd5b5061052f610731366004614fa9565b611138565b34801561074257600080fd5b506103b1610751366004614ff5565b6112c6565b34801561076257600080fd5b5061048f610771366004615068565b6112eb565b61048f610784366004615085565b611313565b34801561079557600080fd5b506101c7546103b190600160a01b900460ff1681565b3480156107b757600080fd5b5061048f6107c6366004615068565b6001600160a01b031660009081526065602052604090205490565b3480156107ed57600080fd5b5061038f611406565b34801561080257600080fd5b5061080b61141a565b604080519384526020840192909252908201526060016103bd565b34801561083257600080fd5b506033546001600160a01b031661052f565b34801561085057600080fd5b506101c75461052f906001600160a01b031681565b34801561087157600080fd5b5061041861149d565b34801561088657600080fd5b5061089a61089536600461510c565b6114ac565b604080519384526001600160a01b03909216602084015265ffffffffffff16908201526060016103bd565b3480156108d157600080fd5b5061048f6108e0366004614d9f565b6101cd6020526000908152604090205481565b3480156108ff57600080fd5b5061038f61090e36600461512e565b611502565b34801561091f57600080fd5b506103b161092e366004614c50565b611602565b34801561093f57600080fd5b506103b161094e366004614c50565b611662565b34801561095f57600080fd5b5061052f7f000000000000000000000000000000000000000000000000000000000000000081565b34801561099357600080fd5b5061038f6109a2366004615176565b611670565b61048f6109b536600461520f565b611810565b3480156109c657600080fd5b5061048f6109d5366004614d9f565b611a9e565b3480156109e657600080fd5b506104656109f536600461535c565b63bc197c8160e01b95945050505050565b348015610a1257600080fd5b5061038f611ab8565b348015610a2757600080fd5b5061038f610a3636600461540a565b611aca565b348015610a4757600080fd5b5061038f610a56366004615068565b611b50565b348015610a6757600080fd5b506101c45461052f906001600160a01b031681565b348015610a8857600080fd5b5061048f610a97366004614c50565b611bc2565b348015610aa857600080fd5b5061048f610ab7366004615436565b6001600160a01b03918216600090815260666020908152604080832093909416825291909152205490565b348015610aee57600080fd5b5061038f610afd36600461546f565b611bf7565b348015610b0e57600080fd5b5061038f610b1d3660046154db565b611c72565b348015610b2e57600080fd5b5061048f611fdc565b348015610b4357600080fd5b506103b1610b52366004615584565b611fee565b348015610b6357600080fd5b50610465610b723660046155b9565b63f23a6e6160e01b95945050505050565b348015610b8f57600080fd5b5061038f610b9e366004615068565b612094565b610bab6120cf565b6101c4546101c5546040516360c1795960e11b81526001600160a01b039092169163c182f2b291610be29160040190815260200190565b600060405180830381600087803b158015610bfc57600080fd5b505af1158015610c10573d6000803e3d6000fd5b50505050565b60006001600160e01b03198216630271189760e51b1480610c4757506301ffc9a760e01b6001600160e01b03198316145b92915050565b606060688054610c5c90615622565b80601f0160208091040260200160405190810160405280929190818152602001828054610c8890615622565b8015610cd55780601f10610caa57610100808354040283529160200191610cd5565b820191906000526020600020905b815481529060010190602001808311610cb857829003601f168201915b5050505050905090565b600033610ced818585612141565b5060019392505050565b630a85bd0160e11b5b949350505050565b600033610d168582856121f1565b610d2185858561224e565b60019150505b9392505050565b60606000610d3d6101c8612343565b905060008167ffffffffffffffff811115610d5a57610d5a614c7c565b604051908082528060200260200182016040528015610d83578160200160208202803683370190505b50905060005b82811015610dc257610d9d6101c88261234d565b828281518110610daf57610daf615656565b6020908102919091010152600101610d89565b5092915050565b6000610dd3612359565b610ddd60026123b2565b6101c754600160b01b900460ff16610e085760405163032aa90b60e41b815260040160405180910390fd5b60008415610e36573415610e2f5760405163203e5c3360e01b815260040160405180910390fd5b5083610e39565b50345b600087610e5733610e5283670de0b6b3a7640000615682565b612455565b6000610e6161141a565b509150610e7090508282615682565b6101c4549093506001600160a01b03169150600090508580610ef757506040516306df336560e51b81523360048201526001600160a01b0383169063dbe66ca090602401602060405180830381865afa158015610ed1573d6000803e3d6000fd5b505050506040513d601f19601f82011682018060405250810190610ef591906156a1565b155b90506000806000610f4b8e8e80806020026020016040519081016040528093929190818152602001838360200280828437600081840152601f19601f820116905080830192505050505050508d8688612513565b9250925092508315610f8c5789831115610f785760405163725214ff60e11b815260040160405180910390fd5b610f898760003411888686866129e6565b97505b3415610f9c57610f9c3489612ef6565b7fddf3c6319e89d061b877ebc529b0fd59410499b5bf683cffa46d5807dd13c6008e8e8e604051610fcf939291906156f4565b60405180910390a150505050505050610fe8600160c955565b9695505050505050565b3360008181526066602090815260408083206001600160a01b0387168452909152812054909190610ced908290869061102c908790615721565b612141565b6000610c476101c88361234d565b6000610c476101c883612f14565b6110556120cf565b6101c7805461ffff60a81b1916600160a81b85151590810260ff60b01b191691909117600160b01b851515021760ff60b81b1916600160b81b84151502179091556040519081527fc604be2f834727754dc1ec1225c14d1ecde48e7d12fa7b745dfb137a3db998bd9060200160405180910390a160405182151581527f9cb1d0c0b8d946b3eb09abb16f0a2546f919a9bff8ced6d73c2a1a36a4ff95219060200160405180910390a160405181151581527f8f4dc19a0a35d805af4e9053cf101831ab5200b9b57fd5c953cee436833b892b9060200160405180910390a1505050565b60006111426120cf565b6101c7546001600160a01b03161561116d576040516344a30fbf60e01b815260040160405180910390fd5b6101c45460408051630a63bfd560e11b815290516000926001600160a01b0316916314c77faa9160048083019260209291908290030181865afa1580156111b8573d6000803e3d6000fd5b505050506040513d601f19601f820116820180604052508101906111dc9190615739565b90506000816001600160a01b031663576ff9088787876040518463ffffffff1660e01b81526004016112109392919061577f565b6020604051808303816000875af115801561122f573d6000803e3d6000fd5b505050506040513d601f19601f820116820180604052508101906112539190615739565b6101c7805474ffffffffffffffffffffffffffffffffffffffffff19166001600160a01b0383169081179091556040805189815260208101929092529192507fe14c63b3d4272158635bee1d1b95b51bb8de042ee95a15cbfaf2865b4d0af811910160405180910390a195945050505050565b60006112d260046123b2565b6112df8686868686612f2c565b90505b95945050505050565b60006001600160a01b0382163014611304576000610c47565b606754610c4790600019615799565b600061131d612359565b61132760016123b2565b6101c754600160a81b900460ff166113525760405163af79b43760e01b815260040160405180910390fd5b60006113618489898989613097565b905061137581670de0b6b3a7640000615682565b9150611381838361341a565b600061138b61141a565b505090506000828261139d9190615682565b905060006113ab82346134ac565b90506113b73482612ef6565b7ff03937e99971e84e889dea1d728cb1c06a82314f012c0d203598c3d30fff4bd98b8b8b8b8a8c6040516113f0969594939291906157b0565b60405180910390a150505050610fe8600160c955565b61140e613707565b6114186000613732565b565b6101c4546101c554604051632206137960e01b81526004810191909152600091829182916001600160a01b031690632206137990602401606060405180830381865afa15801561146e573d6000803e3d6000fd5b505050506040513d601f19601f8201168201806040525081019061149291906157fe565b925092509250909192565b606060698054610c5c90615622565b6101cc60205281600052604060002081815481106114c957600080fd5b6000918252602090912060029091020180546001909101549092506001600160a01b0381169150600160a01b900465ffffffffffff1683565b61150a613707565b6000670de0b6b3a764000061151e60675490565b611528919061582c565b9050600481111561154c5760405163d6ce581160e01b815260040160405180910390fd5b61159883838080602002602001604051908101604052809392919081815260200183836020028082843760009201829052506101c4548a94509092506001600160a01b03169050612513565b50506101c354604080516001600160a01b03928316815260208101859052918716908201527f1f6d756c685d4969a551099165b59f836b4d2cc7e036e623f0248c28bff91db5915060600160405180910390a150506101c380546001600160a01b03191690555050565b3360008181526066602090815260408083206001600160a01b03871684529091528120549091908381101561164a5760405163189dd6af60e31b815260040160405180910390fd5b6116578286868403612141565b506001949350505050565b600033610ced81858561224e565b611678613707565b6101c3546001600160a01b03908116908616036116a8576040516309cef98160e01b815260040160405180910390fd5b60008660028111156116bc576116bc61584e565b03611748576040516370a0823160e01b81523060048201526000906001600160a01b038716906370a0823190602401602060405180830381865afa158015611708573d6000803e3d6000fd5b505050506040513d601f19601f8201168201806040525081019061172c9190615864565b90506117426001600160a01b0387163383613784565b50611808565b600186600281111561175c5761175c61584e565b0361179f578260005b8181101561179857611790873388888581811061178457611784615656565b905060200201356137d6565b600101611765565b5050611808565b604051631759616b60e11b81526001600160a01b03861690632eb2c2d6906117d59030903390899089908990899060040161587d565b600060405180830381600087803b1580156117ef57600080fd5b505af1158015611803573d6000803e3d6000fd5b505050505b505050505050565b600061181a612359565b61182460036123b2565b6101c754600160b81b900460ff1661184f57604051630527cf7960e11b815260040160405180910390fd5b6101c65460009060ff16156118d8578a60005b818110156118d1578b8b8281811061187c5761187c615656565b905060200201356000036118a35760405163c4c8a67760e01b815260040160405180910390fd5b8b8b828181106118b5576118b5615656565b90506020020135836118c79190615721565b9250600101611862565b50506118db565b50895b8087146118fb576040516322d2bba960e21b815260040160405180910390fd5b50600061190661141a565b92506000915061191890508883615682565b6101c4549091506001600160a01b03166000858061199b57506040516306df336560e51b81523360048201526001600160a01b0383169063dbe66ca090602401602060405180830381865afa158015611975573d6000803e3d6000fd5b505050506040513d601f19601f8201168201806040525081019061199991906156a1565b155b905060008060006119e38e8e808060200260200160405190810160405280939291908181526020018383602002808284376000920191909152508f9250889150899050612513565b9250925092508315611a225789831115611a105760405163725214ff60e11b815260040160405180910390fd5b611a1f346001888686866129e6565b97505b50505050505050611a36858c8c8c8c613097565b50611a413482612ef6565b7fc7f0d2d89a4f78b0df43fe593f76318f25e022d249bef3e8eb923d1b168c4faf8b8b8b8b8b8b8a8c604051611a7e9897969594939291906158dc565b60405180910390a1611a90600160c955565b9a9950505050505050505050565b6101c454600090610dc2906001600160a01b0316836139b7565b611ac06120cf565b6114186000611b50565b611ad26120cf565b6101c4546101c554604051639814f40f60e01b815260048101919091526024810185905260448101849052606481018390526001600160a01b0390911690639814f40f90608401600060405180830381600087803b158015611b3357600080fd5b505af1158015611b47573d6000803e3d6000fd5b50505050505050565b611b586120cf565b6101c6805474ffffffffffffffffffffffffffffffffffffffff0019166101006001600160a01b038416908102919091179091556040519081527f60a0f5b9f9e81e98216071b85826681c796256fe3d1354ecb675580fba64fa699060200160405180910390a150565b60006001600160a01b0383163014611bed57604051635079ff7560e11b815260040160405180910390fd5b610d278383613c6b565b611bff6120cf565b610c1084848080601f01602080910402602001604051908101604052809392919081815260200183838082843760009201919091525050604080516020601f88018190048102820181019092528681529250869150859081908401838280828437600092019190915250613cbf92505050565b600054610100900460ff1615808015611c925750600054600160ff909116105b80611cac5750303b158015611cac575060005460ff166001145b611d145760405162461bcd60e51b815260206004820152602e60248201527f496e697469616c697a61626c653a20636f6e747261637420697320616c72656160448201526d191e481a5b9a5d1a585b1a5e995960921b60648201526084015b60405180910390fd5b6000805460ff191660011790558015611d37576000805461ff0019166101001790555b611d3f613d16565b611db288888080601f01602080910402602001604051908101604052809392919081815260200183838082843760009201919091525050604080516020601f8c018190048102820181019092528a815292508a9150899081908401838280828437600092019190915250613d4592505050565b6001600160a01b038416611dd95760405163d92e233d60e01b815260040160405180910390fd5b6101c380546001600160a01b03199081166001600160a01b038716179091556101c4805433921682179055604080516304c94c4160e31b8152905163264a6208916004808201926020929091908290030181865afa158015611e3f573d6000803e3d6000fd5b505050506040513d601f19601f82011682018060405250810190611e639190615864565b6101c58190556101c6805460ff19168515159081179091556101c7805460ff60a01b1916600160a01b86151590810291909117909155604080516001600160a01b038916815260208101939093528201527f18ecce5c418b882a3d89e5b6cc8100dc3383309b8e78525266fe1283a7f934d69060600160405180910390a2611eee600180600161104d565b6c447e69651d841bd8d104bed4936330ff3140611f136033546001600160a01b031690565b6040516001600160e01b031960e084901b1681526001600160a01b03909116600482015260006024820152600160448201526064016020604051808303816000875af1158015611f67573d6000803e3d6000fd5b505050506040513d601f19601f82011682018060405250810190611f8b9190615864565b508015611fd2576000805461ff0019169055604051600181527f7f26b83ff96e1f2b6a682f133852f6798a09c465da95921460cefb38474024989060200160405180910390a15b5050505050505050565b6000611fe96101c8612343565b905090565b6101c754600090600160a01b900460ff161561200c57506001919050565b6101c7546001600160a01b0316806120275750600092915050565b6040516384ca9f8560e01b81526001600160a01b038216906384ca9f8590612053908690600401614df9565b602060405180830381865afa158015612070573d6000803e3d6000fd5b505050506040513d601f19601f82011682018060405250810190610d2791906156a1565b61209c613707565b6001600160a01b0381166120c357604051633a247dd760e11b815260040160405180910390fd5b6120cc81613732565b50565b6101c65461010090046001600160a01b0316612110576033546001600160a01b03163314611418576040516330cd747160e01b815260040160405180910390fd5b6101c65461010090046001600160a01b031633146114185760405163607e454560e11b815260040160405180910390fd5b6001600160a01b0383166121685760405163eb3b083560e01b815260040160405180910390fd5b6001600160a01b03821661218f5760405163076e33c360e31b815260040160405180910390fd5b6001600160a01b0383811660008181526066602090815260408083209487168084529482529182902085905590518481527f8c5be1e5ebec7d5bd14f71427d1e84f3dd0314c0f7b2291e5b200ac8c7c3b92591015b60405180910390a3505050565b6001600160a01b038381166000908152606660209081526040808320938616835292905220546000198114610c105781811015612241576040516313be252b60e01b815260040160405180910390fd5b610c108484848403612141565b6001600160a01b03831661227557604051630b07e54560e11b815260040160405180910390fd5b6001600160a01b03821661229c57604051633a954ecd60e21b815260040160405180910390fd5b6001600160a01b038316600090815260656020526040902054818110156122d657604051635dd58b8b60e01b815260040160405180910390fd5b6001600160a01b0380851660008181526065602052604080822086860390559286168082529083902080548601905591517fddf252ad1be2c89b69c2b068fc378daa952ba7f163c4a11628f55a4df523b3ef906123369086815260200190565b60405180910390a3610c10565b6000610c47825490565b6000610d278383613d76565b600260c954036123ab5760405162461bcd60e51b815260206004820152601f60248201527f5265656e7472616e637947756172643a207265656e7472616e742063616c6c006044820152606401611d0b565b600260c955565b6101c45460405163f6aacfb160e01b8152600481018390526001600160a01b039091169063f6aacfb190602401602060405180830381865afa1580156123fc573d6000803e3d6000fd5b505050506040513d601f19601f8201168201806040525081019061242091906156a1565b801561243757506033546001600160a01b03163314155b156120cc576040516313d0ff5960e31b815260040160405180910390fd5b6001600160a01b03821661247c5760405163b817eee760e01b815260040160405180910390fd5b6001600160a01b038216600090815260656020526040902054818110156124b657604051630bba337f60e11b815260040160405180910390fd5b6001600160a01b03831660008181526065602090815260408083208686039055606780548790039055518581529192917fddf252ad1be2c89b69c2b068fc378daa952ba7f163c4a11628f55a4df523b3ef91016121e4565b505050565b6101c6546101c354600091606091829160ff16906001600160a01b03168480881561268d57876001600160a01b03166368d052e96040518163ffffffff1660e01b8152600401602060405180830381865afa158015612576573d6000803e3d6000fd5b505050506040513d601f19601f8201168201806040525081019061259a9190615864565b9150876001600160a01b0316631362ba226040518163ffffffff1660e01b8152600401602060405180830381865afa1580156125da573d6000803e3d6000fd5b505050506040513d601f19601f820116820180604052508101906125fe9190615864565b90508a5167ffffffffffffffff81111561261a5761261a614c7c565b604051908082528060200260200182016040528015612643578160200160208202803683370190505b5095508a5167ffffffffffffffff81111561266057612660614c7c565b604051908082528060200260200182016040528015612689578160200160208202803683370190505b5094505b8a5160005b818110156129cd5760008d82815181106126ae576126ae615656565b6020026020010151905086156128d45760008181526101ca6020526040812054908190036126ef57604051631820c31160e31b815260040160405180910390fd5b6126fa600182615799565b60008381526101ca6020526040902055600181900361273c5761271f6101c883613da0565b61273c57604051634f213e5760e01b815260040160405180910390fd5b50604051637921219560e11b81523060048201526001600160a01b038e81166024830152604482018390526001606483015260a06084830152600060a483015287169063f242432a9060c401600060405180830381600087803b1580156127a257600080fd5b505af11580156127b6573d6000803e3d6000fd5b50505060008281526101cd60209081526040808320546101cc9092528220805491935090839081106127ea576127ea615656565b60009182526020909120600290910201805490915061280a600182615799565b8255600181900361283157612820836001615721565b60008581526101cd60205260409020555b8e156128cc57600182015460009061285990600160a01b900465ffffffffffff168a8a613dac565b9050612865818f615721565b9d50808d878151811061287a5761287a615656565b602090810291909101015260018301548c516001600160a01b03909116908d90889081106128aa576128aa615656565b60200260200101906001600160a01b031690816001600160a01b031681525050505b5050506129c4565b8b156129905760008181526101cb6020908152604080832081518083019092525465ffffffffffff811680835266010000000000009091046001600160a01b0316928201929092529190612929908888613dac565b9050612935818d615721565b9b50808b858151811061294a5761294a615656565b60200260200101818152505081602001518a858151811061296d5761296d615656565b60200260200101906001600160a01b031690816001600160a01b03168152505050505b61299c6101c882613da0565b6129b957604051634f213e5760e01b815260040160405180910390fd5b6129c4868e836137d6565b50600101612692565b506129d78c613dc1565b50505050509450945094915050565b6101c45460009081908190612a04906001600160a01b0316886139b7565b90925090508115612eea576000808715612ac75788612a238986615682565b612a2d919061582c565b9150670de0b6b3a76400006101c460009054906101000a90046001600160a01b03166001600160a01b031663f3746ca96040518163ffffffff1660e01b8152600401602060405180830381865afa158015612a8c573d6000803e3d6000fd5b505050506040513d601f19601f82011682018060405250810190612ab09190615864565b612aba9084615682565b612ac4919061582c565b90505b612ad18285615721565b9450848b1015612af45760405163311c9fd160e01b815260040160405180910390fd5b8915612b73577f00000000000000000000000000000000000000000000000000000000000000006001600160a01b031663d0e30db0866040518263ffffffff1660e01b81526004016000604051808303818588803b158015612b5557600080fd5b505af1158015612b69573d6000803e3d6000fd5b5050505050612c0c565b6040516323b872dd60e01b8152336004820152306024820152604481018690527f00000000000000000000000000000000000000000000000000000000000000006001600160a01b0316906323b872dd906064016020604051808303816000875af1158015612be6573d6000803e3d6000fd5b505050506040513d601f19601f82011682018060405250810190612c0a91906156a1565b505b8651600090815b81811015612dac5760008a8281518110612c2f57612c2f615656565b60200260200101511115612da45760008b8b8381518110612c5257612c52615656565b602002602001015186612c659190615682565b612c6f919061582c565b90507f00000000000000000000000000000000000000000000000000000000000000006001600160a01b031663a9059cbb8b8481518110612cb257612cb2615656565b6020026020010151836040518363ffffffff1660e01b8152600401612cec9291906001600160a01b03929092168252602082015260400190565b6020604051808303816000875af1158015612d0b573d6000803e3d6000fd5b505050506040513d601f19601f82011682018060405250810190612d2f91906156a1565b50612d3a8185615721565b93507f6145d458e7bea9ad415c7534924b89223228b66d9db99bd80f9889d213da059c8a8381518110612d6f57612d6f615656565b602002602001015182604051612d9a9291906001600160a01b03929092168252602082015260400190565b60405180910390a1505b600101612c13565b506000612db98389615799565b60405163a9059cbb60e01b81526001600160a01b038881166004830152602482018390529192507f00000000000000000000000000000000000000000000000000000000000000009091169063a9059cbb906044016020604051808303816000875af1158015612e2d573d6000803e3d6000fd5b505050506040513d601f19601f82011682018060405250810190612e5191906156a1565b506040518181527f8959421a1320789a49eeec01a4750caf8a30733c3db14f000d84484df89300f99060200160405180910390a16101c5546040516391c05b0b60e01b815260048101919091526001600160a01b038716906391c05b0b90602401600060405180830381600087803b158015612ecc57600080fd5b505af1158015612ee0573d6000803e3d6000fd5b5050505050505050505b50509695505050505050565b6000612f028284615799565b9050801561250e5761250e3382613e31565b60008181526001830160205260408120541515610d27565b6000612f37856112eb565b841115612f5757604051631b8e3c7960e11b815260040160405180910390fd5b6000612f638686611bc2565b9050612f6f878661341a565b6040516323e30c8b60e01b81527f439148f0bbc682ca079e46d6e2c2f0c1e3b820f1a291b069d8882abf8cf18dd9906001600160a01b038916906323e30c8b90612fc79033908b908b9088908c908c90600401615941565b6020604051808303816000875af1158015612fe6573d6000803e3d6000fd5b505050506040513d601f19601f8201168201806040525081019061300a9190615864565b14613028576040516303a6a98b60e41b815260040160405180910390fd5b6000613032613ea5565b90506130488830613043858a615721565b6121f1565b81158061305c57506001600160a01b038116155b156130745761306f88610e528489615721565b613089565b61307e8887612455565b61308988828461224e565b506001979650505050505050565b60006130d5858580806020026020016040519081016040528093929190818152602001838360200280828437600092019190915250611fee92505050565b6130f257604051637c75aa6f60e11b815260040160405180910390fd5b6101c65460ff166131ed576101c3546001600160a01b03168460005b818110156131e357600088888381811061312a5761312a615656565b90506020020135905061313d8482613f75565b6131496101c8826142d5565b61316657604051634f213e5760e01b815260040160405180910390fd5b60408051808201825265ffffffffffff42811682526001600160a01b03808e16602080850191825260009687526101cb9052939094209151825493519094166601000000000000027fffffffffffff000000000000000000000000000000000000000000000000000090931693169290921717905560010161310e565b5091506112e29050565b6101c354604051631759616b60e11b81526001600160a01b0390911690632eb2c2d69061322890339030908a908a908a908a9060040161587d565b600060405180830381600087803b15801561324257600080fd5b505af1158015613256573d6000803e3d6000fd5b50600092508691508290505b8181101561340f57600088888381811061327e5761327e615656565b905060200201359050600087878481811061329b5761329b615656565b905060200201359050806000036132c55760405163c4c8a67760e01b815260040160405180910390fd5b60008281526101ca60205260408120549003613304576132e76101c8836142d5565b61330457604051634f213e5760e01b815260040160405180910390fd5b60008281526101ca602052604081208054839290613323908490615721565b9091555061333390508186615721565b94506101cc600083815260200190815260200160002060405180606001604052808381526020018d6001600160a01b031681526020014265ffffffffffff1681525090806001815401808255809150506001900390600052602060002090600202016000909190919091506000820151816000015560208201518160010160006101000a8154816001600160a01b0302191690836001600160a01b0316021790555060408201518160010160146101000a81548165ffffffffffff021916908365ffffffffffff16021790555050508260010192505050613262565b5081925050506112e2565b6001600160a01b03821661344057604051622e076360e81b815260040160405180910390fd5b80606760008282546134529190615721565b90915550506001600160a01b0382166000818152606560209081526040808320805486019055518481527fddf252ad1be2c89b69c2b068fc378daa952ba7f163c4a11628f55a4df523b3ef910160405180910390a35b5050565b6101c4546040516306df336560e51b81523360048201526000916001600160a01b031690819063dbe66ca090602401602060405180830381865afa1580156134f8573d6000803e3d6000fd5b505050506040513d601f19601f8201168201806040525081019061351c91906156a1565b1561352b576000915050610c47565b600061353782866139b7565b909350905082156136ff57828410156135635760405163311c9fd160e01b815260040160405180910390fd5b7f00000000000000000000000000000000000000000000000000000000000000006001600160a01b031663d0e30db0846040518263ffffffff1660e01b81526004016000604051808303818588803b1580156135be57600080fd5b505af11580156135d2573d6000803e3d6000fd5b505060405163a9059cbb60e01b81526001600160a01b038581166004830152602482018890527f000000000000000000000000000000000000000000000000000000000000000016935063a9059cbb925060440190506020604051808303816000875af1158015613647573d6000803e3d6000fd5b505050506040513d601f19601f8201168201806040525081019061366b91906156a1565b506040518381527f8959421a1320789a49eeec01a4750caf8a30733c3db14f000d84484df89300f99060200160405180910390a16101c5546040516391c05b0b60e01b815260048101919091526001600160a01b038216906391c05b0b90602401600060405180830381600087803b1580156136e657600080fd5b505af11580156136fa573d6000803e3d6000fd5b505050505b505092915050565b6033546001600160a01b0316331461141857604051633e8be92f60e01b815260040160405180910390fd5b603380546001600160a01b038381166001600160a01b0319831681179093556040519116919082907f8be0079c531659141344cd1fd0a4f28419497f9722a3daafe3b4186f6b6457e090600090a35050565b604080516001600160a01b038416602482015260448082018490528251808303909101815260649091019091526020810180516001600160e01b031663a9059cbb60e01b17905261250e9084906142e1565b60606001600160a01b03841673b47e3cd837ddf8e4c57f05d70ab865de6e193bbb1480159061382257506001600160a01b0384167306012c8cf97bead5deae237070f9587f8e7a266d14155b1561387a576040513060248201526001600160a01b03841660448201526064810183905260840160408051601f198184030181529190526020810180516001600160e01b0316632142170760e11b1790529050613935565b73b47e3cd837ddf8e4c57f05d70ab865de6e193bba196001600160a01b038516016138ec576040516001600160a01b03841660248201526044810183905260640160408051601f198184030181529190526020810180516001600160e01b03166322dca8bb60e21b1790529050613935565b6040516001600160a01b03841660248201526044810183905260640160408051601f198184030181529190526020810180516001600160e01b031663a9059cbb60e01b17905290505b600080856001600160a01b0316836040516139509190615986565b6000604051808303816000865af19150503d806000811461398d576040519150601f19603f3d011682016040523d82523d6000602084013e613992565b606091505b5091509150818190611b475760405162461bcd60e51b8152600401611d0b9190614c28565b600080836001600160a01b0316630d43e8ad6040518163ffffffff1660e01b8152600401602060405180830381865afa1580156139f8573d6000803e3d6000fd5b505050506040513d601f19601f82011682018060405250810190613a1c9190615739565b90506000816001600160a01b0316631eae8f916040518163ffffffff1660e01b8152600401602060405180830381865afa158015613a5e573d6000803e3d6000fd5b505050506040513d601f19601f82011682018060405250810190613a829190615739565b9050600080826001600160a01b0316632a9c99e930866001600160a01b03166334c53b896040518163ffffffff1660e01b8152600401602060405180830381865afa158015613ad5573d6000803e3d6000fd5b505050506040513d601f19601f82011682018060405250810190613af991906159a2565b6040516001600160e01b031960e085901b1681526001600160a01b03909216600483015262ffffff1660248201526044016040805180830381865afa158015613b46573d6000803e3d6000fd5b505050506040513d601f19601f82011682018060405250810190613b6a91906159c7565b9150915080613b7f5760009450505050613c64565b6101c45460405163d444a47d60e01b81526001600160a01b038481166004830152600092169063d444a47d90602401602060405180830381865afa158015613bcb573d6000803e3d6000fd5b505050506040513d601f19601f82011682018060405250810190613bef9190615864565b905080600003613c06576000955050505050613c64565b6001600160a01b037f000000000000000000000000000000000000000000000000000000000000000016301015613c4d57613c468782600160601b6143b3565b9550613c5f565b613c5c87600160601b836143b3565b95505b505050505b9250929050565b600080600080613c7961141a565b919450925090508280831115613c8c5750815b80821115613c975750805b670de0b6b3a7640000613caa8288615682565b613cb4919061582c565b979650505050505050565b6068613ccb8382615a3c565b506069613cd88282615a3c565b507f30f5c4b652f95e2a697bda3258896c421eee4f29adce8fe38060f47f7aed91ad8282604051613d0a929190615afc565b60405180910390a15050565b600054610100900460ff16613d3d5760405162461bcd60e51b8152600401611d0b90615b21565b611418614465565b600054610100900460ff16613d6c5760405162461bcd60e51b8152600401611d0b90615b21565b6134a88282614495565b6000826000018281548110613d8d57613d8d615656565b9060005260206000200154905092915050565b6000610d2783836144d5565b6000610d008465ffffffffffff1684846145c8565b6101c7546001600160a01b031680613dd7575050565b604051632f17cda960e11b81526001600160a01b03821690635e2f9b5290613e03908590600401614df9565b600060405180830381600087803b158015613e1d57600080fd5b505af1158015611808573d6000803e3d6000fd5b6000826001600160a01b03168260405160006040518083038185875af1925050503d8060008114613e7e576040519150601f19603f3d011682016040523d82523d6000602084013e613e83565b606091505b505090508061250e5760405163260e7d5b60e11b815260040160405180910390fd5b6101c45460408051630d43e8ad60e01b815290516000926001600160a01b031691630d43e8ad9160048083019260209291908290030181865afa158015613ef0573d6000803e3d6000fd5b505050506040513d601f19601f82011682018060405250810190613f149190615739565b6001600160a01b03166374a1b0b06040518163ffffffff1660e01b8152600401602060405180830381865afa158015613f51573d6000803e3d6000fd5b505050506040513d601f19601f82011682018060405250810190611fe99190615739565b60606001600160a01b03831673b47e3cd837ddf8e4c57f05d70ab865de6e193bbb14801590613fc157506001600160a01b0383167306012c8cf97bead5deae237070f9587f8e7a266d14155b156140b6576101c3546040516331a9108f60e11b81526004810184905230916001600160a01b031690636352211e90602401602060405180830381865afa158015614010573d6000803e3d6000fd5b505050506040513d601f19601f820116820180604052508101906140349190615739565b6001600160a01b03160361406c5761404e6101c883612f14565b1561250e57604051631d1a087d60e31b815260040160405180910390fd5b6040513360248201523060448201526064810183905260840160408051601f198184030181529190526020810180516001600160e01b0316632142170760e11b1790529050614253565b73b47e3cd837ddf8e4c57f05d70ab865de6e193bba196001600160a01b0384160161420d576000826040516024016140f091815260200190565b60408051601f198184030181529181526020820180516001600160e01b0316630b02f02d60e31b1790525190915060009081906001600160a01b03871690614139908590615986565b600060405180830381855afa9150503d8060008114614174576040519150601f19603f3d011682016040523d82523d6000602084013e614179565b606091505b50915091506000818060200190518101906141949190615739565b90508215806141ac57506001600160a01b0381163314155b156141ca57604051631022318760e21b815260040160405180910390fd5b6040516024810187905260440160408051601f198184030181529190526020810180516001600160e01b031663104c9fd360e31b17905294506142539350505050565b6040513360248201523060448201526064810183905260840160408051601f198184030181529190526020810180516001600160e01b03166323b872dd60e01b17905290505b600080846001600160a01b03168360405161426e9190615986565b6000604051808303816000865af19150503d80600081146142ab576040519150601f19603f3d011682016040523d82523d6000602084013e6142b0565b606091505b50915091508181906118085760405162461bcd60e51b8152600401611d0b9190614c28565b6000610d278383614620565b6000614336826040518060400160405280602081526020017f5361666545524332303a206c6f772d6c6576656c2063616c6c206661696c6564815250856001600160a01b031661466f9092919063ffffffff16565b80519091501561250e578080602001905181019061435491906156a1565b61250e5760405162461bcd60e51b815260206004820152602a60248201527f5361666545524332303a204552433230206f7065726174696f6e20646964206e6044820152691bdd081cdd58d8d9595960b21b6064820152608401611d0b565b60008080600019858709858702925082811083820303915050806000036143ec57600084116143e157600080fd5b508290049050610d27565b8084116143f857600080fd5b6000848688096000868103871696879004966002600389028118808a02820302808a02820302808a02820302808a02820302808a02820302808a02909103029181900381900460010186841190950394909402919094039290920491909117919091029150509392505050565b600054610100900460ff1661448c5760405162461bcd60e51b8152600401611d0b90615b21565b61141833613732565b600054610100900460ff166144bc5760405162461bcd60e51b8152600401611d0b90615b21565b60686144c88382615a3c565b50606961250e8282615a3c565b600081815260018301602052604081205480156145be5760006144f9600183615799565b855490915060009061450d90600190615799565b905081811461457257600086600001828154811061452d5761452d615656565b906000526020600020015490508087600001848154811061455057614550615656565b6000918252602080832090910192909255918252600188019052604090208390555b855486908061458357614583615b6c565b600190038181906000526020600020016000905590558560010160008681526020019081526020016000206000905560019350505050610c47565b6000915050610c47565b6000806145d58542615799565b905060006145e3858361467e565b905060006145f3610e108661582c565b86901c9050808210614613576146098183615799565b9350505050610d27565b5060009695505050505050565b600081815260018301602052604081205461466757508154600181810184556000848152602080822090930184905584548482528286019093526040902091909155610c47565b506000610c47565b6060610d008484600085614718565b600080610e10614696670de0b6b3a764000085615682565b6146a0919061582c565b905060006146b6670de0b6b3a76400008361582c565b905084811c60006146cf670de0b6b3a764000084615682565b6146d99085615799565b90506000670de0b6b3a76400006146f38362010000615682565b6146fd919061582c565b9050600061470b82856147e8565b9998505050505050505050565b6060824710156147795760405162461bcd60e51b815260206004820152602660248201527f416464726573733a20696e73756666696369656e742062616c616e636520666f6044820152651c8818d85b1b60d21b6064820152608401611d0b565b600080866001600160a01b031685876040516147959190615986565b60006040518083038185875af1925050503d80600081146147d2576040519150601f19603f3d011682016040523d82523d6000602084013e6147d7565b606091505b5091509150613cb487838387614b08565b6000600183161561481b57670de0b6b3a764000061480e670de0ad151d09418084615682565b614818919061582c565b91505b600283161561484c57670de0b6b3a764000061483f670de0a3769959680084615682565b614849919061582c565b91505b600483161561487d57670de0b6b3a7640000614870670de09039a5fa510084615682565b61487a919061582c565b91505b60088316156148ae57670de0b6b3a76400006148a1670de069c00f3e120084615682565b6148ab919061582c565b91505b60108316156148df57670de0b6b3a76400006148d2670de01cce21c9440084615682565b6148dc919061582c565b91505b602083161561491057670de0b6b3a7640000614903670ddf82ef46ce100084615682565b61490d919061582c565b91505b604083161561494157670de0b6b3a7640000614934670dde4f458f8e8d8084615682565b61493e919061582c565b91505b608083161561497257670de0b6b3a7640000614965670ddbe84213d5f08084615682565b61496f919061582c565b91505b6101008316156149a457670de0b6b3a7640000614997670dd71b7aa6df5b8084615682565b6149a1919061582c565b91505b6102008316156149d657670de0b6b3a76400006149c9670dcd86e7f28cde0084615682565b6149d3919061582c565b91505b610400831615614a0857670de0b6b3a76400006149fb670dba71a3084ad68084615682565b614a05919061582c565b91505b610800831615614a3a57670de0b6b3a7640000614a2d670d94961b13dbde8084615682565b614a37919061582c565b91505b611000831615614a6c57670de0b6b3a7640000614a5f670d4a171c35c9838084615682565b614a69919061582c565b91505b612000831615614a9e57670de0b6b3a7640000614a91670cb9da519ccfb70084615682565b614a9b919061582c565b91505b614000831615614ad057670de0b6b3a7640000614ac3670bab76d59c18d68084615682565b614acd919061582c565b91505b618000831615614b0257670de0b6b3a7640000614af56709d025defee4df8084615682565b614aff919061582c565b91505b50919050565b60608315614b77578251600003614b70576001600160a01b0385163b614b705760405162461bcd60e51b815260206004820152601d60248201527f416464726573733a2063616c6c20746f206e6f6e2d636f6e74726163740000006044820152606401611d0b565b5081610d00565b610d008383815115614b8c5781518083602001fd5b8060405162461bcd60e51b8152600401611d0b9190614c28565b600060208284031215614bb857600080fd5b81356001600160e01b031981168114610d2757600080fd5b60005b83811015614beb578181015183820152602001614bd3565b83811115610c105750506000910152565b60008151808452614c14816020860160208601614bd0565b601f01601f19169290920160200192915050565b602081526000610d276020830184614bfc565b6001600160a01b03811681146120cc57600080fd5b60008060408385031215614c6357600080fd5b8235614c6e81614c3b565b946020939093013593505050565b634e487b7160e01b600052604160045260246000fd5b604051601f8201601f1916810167ffffffffffffffff81118282101715614cbb57614cbb614c7c565b604052919050565b600082601f830112614cd457600080fd5b813567ffffffffffffffff811115614cee57614cee614c7c565b614d01601f8201601f1916602001614c92565b818152846020838601011115614d1657600080fd5b816020850160208301376000918101602001919091529392505050565b60008060008060808587031215614d4957600080fd5b8435614d5481614c3b565b93506020850135614d6481614c3b565b925060408501359150606085013567ffffffffffffffff811115614d8757600080fd5b614d9387828801614cc3565b91505092959194509250565b600060208284031215614db157600080fd5b5035919050565b600080600060608486031215614dcd57600080fd5b8335614dd881614c3b565b92506020840135614de881614c3b565b929592945050506040919091013590565b6020808252825182820181905260009190848201906040850190845b81811015614e3157835183529284019291840191600101614e15565b50909695505050505050565b60008083601f840112614e4f57600080fd5b50813567ffffffffffffffff811115614e6757600080fd5b6020830191508360208260051b8501011115613c6457600080fd5b80151581146120cc57600080fd5b8035614e9b81614e82565b919050565b60008060008060008060a08789031215614eb957600080fd5b863567ffffffffffffffff811115614ed057600080fd5b614edc89828a01614e3d565b9097509550506020870135614ef081614c3b565b935060408701359250606087013591506080870135614f0e81614e82565b809150509295509295509295565b600080600060608486031215614f3157600080fd5b8335614f3c81614e82565b92506020840135614f4c81614e82565b91506040840135614f5c81614e82565b809150509250925092565b60008083601f840112614f7957600080fd5b50813567ffffffffffffffff811115614f9157600080fd5b602083019150836020828501011115613c6457600080fd5b600080600060408486031215614fbe57600080fd5b83359250602084013567ffffffffffffffff811115614fdc57600080fd5b614fe886828701614f67565b9497909650939450505050565b60008060008060006080868803121561500d57600080fd5b853561501881614c3b565b9450602086013561502881614c3b565b935060408601359250606086013567ffffffffffffffff81111561504b57600080fd5b61505788828901614f67565b969995985093965092949392505050565b60006020828403121561507a57600080fd5b8135610d2781614c3b565b6000806000806000806080878903121561509e57600080fd5b863567ffffffffffffffff808211156150b657600080fd5b6150c28a838b01614e3d565b909850965060208901359150808211156150db57600080fd5b506150e889828a01614e3d565b90955093505060408701356150fc81614c3b565b91506060870135614f0e81614c3b565b6000806040838503121561511f57600080fd5b50508035926020909101359150565b60008060006040848603121561514357600080fd5b833561514e81614c3b565b9250602084013567ffffffffffffffff81111561516a57600080fd5b614fe886828701614e3d565b6000806000806000806080878903121561518f57600080fd5b86356003811061519e57600080fd5b955060208701356151ae81614c3b565b9450604087013567ffffffffffffffff808211156151cb57600080fd5b6151d78a838b01614e3d565b909650945060608901359150808211156151f057600080fd5b506151fd89828a01614e3d565b979a9699509497509295939492505050565b60008060008060008060008060008060e08b8d03121561522e57600080fd5b8a3567ffffffffffffffff8082111561524657600080fd5b6152528e838f01614e3d565b909c509a5060208d013591508082111561526b57600080fd5b6152778e838f01614e3d565b909a50985060408d013591508082111561529057600080fd5b5061529d8d828e01614e3d565b90975095505060608b01356152b181614c3b565b935060808b01356152c181614c3b565b925060a08b013591506152d660c08c01614e90565b90509295989b9194979a5092959850565b600082601f8301126152f857600080fd5b8135602067ffffffffffffffff82111561531457615314614c7c565b8160051b615323828201614c92565b928352848101820192828101908785111561533d57600080fd5b83870192505b84831015613cb457823582529183019190830190615343565b600080600080600060a0868803121561537457600080fd5b853561537f81614c3b565b9450602086013561538f81614c3b565b9350604086013567ffffffffffffffff808211156153ac57600080fd5b6153b889838a016152e7565b945060608801359150808211156153ce57600080fd5b6153da89838a016152e7565b935060808801359150808211156153f057600080fd5b506153fd88828901614cc3565b9150509295509295909350565b60008060006060848603121561541f57600080fd5b505081359360208301359350604090920135919050565b6000806040838503121561544957600080fd5b823561545481614c3b565b9150602083013561546481614c3b565b809150509250929050565b6000806000806040858703121561548557600080fd5b843567ffffffffffffffff8082111561549d57600080fd5b6154a988838901614f67565b909650945060208701359150808211156154c257600080fd5b506154cf87828801614f67565b95989497509550505050565b600080600080600080600060a0888a0312156154f657600080fd5b873567ffffffffffffffff8082111561550e57600080fd5b61551a8b838c01614f67565b909950975060208a013591508082111561553357600080fd5b506155408a828b01614f67565b909650945050604088013561555481614c3b565b9250606088013561556481614e82565b9150608088013561557481614e82565b8091505092959891949750929550565b60006020828403121561559657600080fd5b813567ffffffffffffffff8111156155ad57600080fd5b610d00848285016152e7565b600080600080600060a086880312156155d157600080fd5b85356155dc81614c3b565b945060208601356155ec81614c3b565b93506040860135925060608601359150608086013567ffffffffffffffff81111561561657600080fd5b6153fd88828901614cc3565b600181811c9082168061563657607f821691505b602082108103614b0257634e487b7160e01b600052602260045260246000fd5b634e487b7160e01b600052603260045260246000fd5b634e487b7160e01b600052601160045260246000fd5b600081600019048311821515161561569c5761569c61566c565b500290565b6000602082840312156156b357600080fd5b8151610d2781614e82565b81835260006001600160fb1b038311156156d757600080fd5b8260051b8083602087013760009401602001938452509192915050565b6040815260006157086040830185876156be565b90506001600160a01b0383166020830152949350505050565b600082198211156157345761573461566c565b500190565b60006020828403121561574b57600080fd5b8151610d2781614c3b565b81835281816020850137506000828201602090810191909152601f909101601f19169091010190565b8381526040602082015260006112e2604083018486615756565b6000828210156157ab576157ab61566c565b500390565b6080815260006157c460808301888a6156be565b82810360208401526157d78187896156be565b9150506001600160a01b038085166040840152808416606084015250979650505050505050565b60008060006060848603121561581357600080fd5b8351925060208401519150604084015190509250925092565b60008261584957634e487b7160e01b600052601260045260246000fd5b500490565b634e487b7160e01b600052602160045260246000fd5b60006020828403121561587657600080fd5b5051919050565b60006001600160a01b03808916835280881660208401525060a060408301526158aa60a0830186886156be565b82810360608401526158bd8185876156be565b8381036080909401939093525050600081526020019695505050505050565b60a0815260006158f060a083018a8c6156be565b828103602084015261590381898b6156be565b905082810360408401526159188187896156be565b9150506001600160a01b0380851660608401528084166080840152509998505050505050505050565b60006001600160a01b03808916835280881660208401525085604083015284606083015260a0608083015261597a60a083018486615756565b98975050505050505050565b60008251615998818460208701614bd0565b9190910192915050565b6000602082840312156159b457600080fd5b815162ffffff81168114610d2757600080fd5b600080604083850312156159da57600080fd5b82516159e581614c3b565b602084015190925061546481614e82565b601f82111561250e57600081815260208120601f850160051c81016020861015615a1d5750805b601f850160051c820191505b8181101561180857828155600101615a29565b815167ffffffffffffffff811115615a5657615a56614c7c565b615a6a81615a648454615622565b846159f6565b602080601f831160018114615a9f5760008415615a875750858301515b600019600386901b1c1916600185901b178555611808565b600085815260208120601f198616915b82811015615ace57888601518255948401946001909101908401615aaf565b5085821015615aec5787850151600019600388901b60f8161c191681555b5050505050600190811b01905550565b604081526000615b0f6040830185614bfc565b82810360208401526112e28185614bfc565b6020808252602b908201527f496e697469616c697a61626c653a20636f6e7472616374206973206e6f74206960408201526a6e697469616c697a696e6760a81b606082015260800190565b634e487b7160e01b600052603160045260246000fdfea164736f6c634300080f000a"
}