{
  "address": "0xaddd268c9703FFD9131FB6aF1E0c6890F96A3A2e",
  "abi": [
    {
      "inputs": [
        {
          "internalType": "contract INFTXVaultFactoryV2",
          "name": "V2VaultFactory_",
          "type": "address"
        }
      ],
      "stateMutability": "nonpayable",
      "type": "constructor"
    },
    {
      "inputs": [],
      "name": "NoETHSent",
      "type": "error"
    },
    {
      "inputs": [],
      "name": "NotGuardian",
      "type": "error"
    },
    {
      "inputs": [],
      "name": "Paused",
      "type": "error"
    },
    {
      "inputs": [],
      "name": "RedeemNotEnabled",
      "type": "error"
    },
    {
      "inputs": [],
      "name": "UnableToSendETH",
      "type": "error"
    },
    {
      "anonymous": false,
      "inputs": [
        {
          "indexed": true,
          "internalType": "uint256",
          "name": "vaultId",
          "type": "uint256"
        },
        {
          "indexed": false,
          "internalType": "uint256",
          "name": "value",
          "type": "uint256"
        }
      ],
      "name": "EthPerVTokenSet",
      "type": "event"
    },
    {
      "anonymous": false,
      "inputs": [
        {
          "indexed": false,
          "internalType": "uint8",
          "name": "version",
          "type": "uint8"
        }
      ],
      "name": "Initialized",
      "type": "event"
    },
    {
      "anonymous": false,
      "inputs": [
        {
          "indexed": true,
          "internalType": "address",
          "name": "previousOwner",
          "type": "address"
        },
        {
          "indexed": true,
          "internalType": "address",
          "name": "newOwner",
          "type": "address"
        }
      ],
      "name": "OwnershipTransferred",
      "type": "event"
    },
    {
      "anonymous": false,
      "inputs": [
        {
          "indexed": true,
          "internalType": "uint256",
          "name": "vaultId",
          "type": "uint256"
        },
        {
          "indexed": false,
          "internalType": "uint256",
          "name": "vTokenAmount",
          "type": "uint256"
        },
        {
          "indexed": false,
          "internalType": "uint256",
          "name": "ethAmount",
          "type": "uint256"
        }
      ],
      "name": "Redeemed",
      "type": "event"
    },
    {
      "anonymous": false,
      "inputs": [
        {
          "indexed": false,
          "internalType": "address",
          "name": "addr",
          "type": "address"
        },
        {
          "indexed": false,
          "internalType": "bool",
          "name": "isGuardian",
          "type": "bool"
        }
      ],
      "name": "SetIsGuardian",
      "type": "event"
    },
    {
      "anonymous": false,
      "inputs": [
        {
          "indexed": false,
          "internalType": "uint256",
          "name": "lockId",
          "type": "uint256"
        },
        {
          "indexed": false,
          "internalType": "bool",
          "name": "paused",
          "type": "bool"
        }
      ],
      "name": "SetPaused",
      "type": "event"
    },
    {
      "inputs": [],
      "name": "V2VaultFactory",
      "outputs": [
        {
          "internalType": "contract INFTXVaultFactoryV2",
          "name": "",
          "type": "address"
        }
      ],
      "stateMutability": "view",
      "type": "function"
    },
    {
      "inputs": [],
      "name": "__ShutdownRedeemer_init",
      "outputs": [],
      "stateMutability": "nonpayable",
      "type": "function"
    },
    {
      "inputs": [
        {
          "internalType": "uint256",
          "name": "vaultId",
          "type": "uint256"
        }
      ],
      "name": "addVaultForRedeem",
      "outputs": [],
      "stateMutability": "payable",
      "type": "function"
    },
    {
      "inputs": [
        {
          "internalType": "uint256",
          "name": "",
          "type": "uint256"
        }
      ],
      "name": "ethPerVToken",
      "outputs": [
        {
          "internalType": "uint256",
          "name": "",
          "type": "uint256"
        }
      ],
      "stateMutability": "view",
      "type": "function"
    },
    {
      "inputs": [
        {
          "internalType": "address",
          "name": "",
          "type": "address"
        }
      ],
      "name": "isGuardian",
      "outputs": [
        {
          "internalType": "bool",
          "name": "",
          "type": "bool"
        }
      ],
      "stateMutability": "view",
      "type": "function"
    },
    {
      "inputs": [
        {
          "internalType": "uint256",
          "name": "",
          "type": "uint256"
        }
      ],
      "name": "isPaused",
      "outputs": [
        {
          "internalType": "bool",
          "name": "",
          "type": "bool"
        }
      ],
      "stateMutability": "view",
      "type": "function"
    },
    {
      "inputs": [
        {
          "internalType": "uint256",
          "name": "lockId",
          "type": "uint256"
        }
      ],
      "name": "onlyOwnerIfPaused",
      "outputs": [],
      "stateMutability": "view",
      "type": "function"
    },
    {
      "inputs": [],
      "name": "owner",
      "outputs": [
        {
          "internalType": "address",
          "name": "",
          "type": "address"
        }
      ],
      "stateMutability": "view",
      "type": "function"
    },
    {
      "inputs": [
        {
          "internalType": "uint256",
          "name": "lockId",
          "type": "uint256"
        }
      ],
      "name": "pause",
      "outputs": [],
      "stateMutability": "nonpayable",
      "type": "function"
    },
    {
      "inputs": [
        {
          "internalType": "uint256",
          "name": "ethAmount",
          "type": "uint256"
        }
      ],
      "name": "recoverETH",
      "outputs": [],
      "stateMutability": "nonpayable",
      "type": "function"
    },
    {
      "inputs": [
        {
          "internalType": "uint256",
          "name": "vaultId",
          "type": "uint256"
        },
        {
          "internalType": "uint256",
          "name": "vTokenAmount",
          "type": "uint256"
        }
      ],
      "name": "redeem",
      "outputs": [],
      "stateMutability": "nonpayable",
      "type": "function"
    },
    {
      "inputs": [],
      "name": "renounceOwnership",
      "outputs": [],
      "stateMutability": "nonpayable",
      "type": "function"
    },
    {
      "inputs": [
        {
          "internalType": "uint256",
          "name": "vaultId",
          "type": "uint256"
        },
        {
          "internalType": "uint256",
          "name": "ethPerVToken_",
          "type": "uint256"
        }
      ],
      "name": "setEthPerVToken",
      "outputs": [],
      "stateMutability": "payable",
      "type": "function"
    },
    {
      "inputs": [
        {
          "internalType": "address",
          "name": "addr",
          "type": "address"
        },
        {
          "internalType": "bool",
          "name": "_isGuardian",
          "type": "bool"
        }
      ],
      "name": "setIsGuardian",
      "outputs": [],
      "stateMutability": "nonpayable",
      "type": "function"
    },
    {
      "inputs": [
        {
          "internalType": "address",
          "name": "newOwner",
          "type": "address"
        }
      ],
      "name": "transferOwnership",
      "outputs": [],
      "stateMutability": "nonpayable",
      "type": "function"
    },
    {
      "inputs": [
        {
          "internalType": "uint256",
          "name": "lockId",
          "type": "uint256"
        }
      ],
      "name": "unpause",
      "outputs": [],
      "stateMutability": "nonpayable",
      "type": "function"
    },
    {
      "stateMutability": "payable",
      "type": "receive"
    }
  ],
  "transactionHash": "0x6258fd0c2d8c3f89d81e593fd0fe8af4613a2958406f35b26a2e5359583dc332",
  "args": [
    "0xE77b89FEc41A7b7dC74eb33602e82F0672FbB33C"
  ],
  "numDeployments": 1,
  "solcInputHash": "aab5feeb90068222a1112a6e013f69d2",
  "bytecode": "0x60a060405234801561001057600080fd5b50604051610ed9380380610ed983398101604081905261002f91610040565b6001600160a01b0316608052610070565b60006020828403121561005257600080fd5b81516001600160a01b038116811461006957600080fd5b9392505050565b608051610e4061009960003960008181610298015281816105f701526107f50152610e406000f3fe6080604052600436106100f65760003560e01c80637c77b6161161008a578063bdf2a43c11610059578063bdf2a43c146102ba578063d3335553146102ea578063f2fde38b1461030a578063fabc1cbc1461032a57600080fd5b80637c77b616146102145780637cbc2373146102345780638da5cb5b14610254578063ab1945c71461028657600080fd5b806323845fb5116100c657806323845fb514610191578063629fc99e146101b1578063715018a6146101c457806372905132146101d957600080fd5b8062d5d43514610102578063031bd689146101195780630c68ba211461012c578063136439dd1461017157600080fd5b366100fd57005b600080fd5b34801561010e57600080fd5b5061011761034a565b005b610117610127366004610cd6565b610470565b34801561013857600080fd5b5061015c610147366004610d0d565b60656020526000908152604090205460ff1681565b60405190151581526020015b60405180910390f35b34801561017d57600080fd5b5061011761018c366004610d31565b6104c9565b34801561019d57600080fd5b506101176101ac366004610d58565b61054a565b6101176101bf366004610d31565b6105b5565b3480156101d057600080fd5b50610117610747565b3480156101e557600080fd5b506102066101f4366004610d31565b60676020526000908152604090205481565b604051908152602001610168565b34801561022057600080fd5b5061011761022f366004610d31565b61075b565b34801561024057600080fd5b5061011761024f366004610cd6565b6107a2565b34801561026057600080fd5b506033546001600160a01b03165b6040516001600160a01b039091168152602001610168565b34801561029257600080fd5b5061026e7f000000000000000000000000000000000000000000000000000000000000000081565b3480156102c657600080fd5b5061015c6102d5366004610d31565b60666020526000908152604090205460ff1681565b3480156102f657600080fd5b50610117610305366004610d31565b610950565b34801561031657600080fd5b50610117610325366004610d0d565b610962565b34801561033657600080fd5b50610117610345366004610d31565b6109ef565b600054610100900460ff161580801561036a5750600054600160ff909116105b806103845750303b158015610384575060005460ff166001145b6103fb5760405162461bcd60e51b815260206004820152602e60248201527f496e697469616c697a61626c653a20636f6e747261637420697320616c72656160448201527f647920696e697469616c697a656400000000000000000000000000000000000060648201526084015b60405180910390fd5b6000805460ff19166001179055801561041e576000805461ff0019166101001790555b610426610a44565b801561046d576000805461ff0019169055604051600181527f7f26b83ff96e1f2b6a682f133852f6798a09c465da95921460cefb3847402498906020015b60405180910390a15b50565b610478610ab7565b600082815260676020526040908190208290555182907f53715826aaa155ba7d694f14e29fe52ea0094f3850a842a289d5a611151dcf1a906104bd9084815260200190565b60405180910390a25050565b3360009081526065602052604090205460ff166104f9576040516377b6878160e11b815260040160405180910390fd5b600081815260666020908152604091829020805460ff191660019081179091558251848152918201527f77f1fcfcce67dc392d64f842056d2ec06c80986c47c910f7e79c5b23a2738d749101610464565b610552610ab7565b6001600160a01b038216600081815260656020908152604091829020805460ff19168515159081179091558251938452908301527fd0b6b573d5442f7c29fd50d9735ae341581c25c6ed07748d50eda519f1ffa88a910160405180910390a15050565b6105bd610ab7565b346000036105de57604051630b7cc7c360e11b815260040160405180910390fd5b6040516340d1b7db60e11b8152600481018290526000907f00000000000000000000000000000000000000000000000000000000000000006001600160a01b0316906381a36fb690602401602060405180830381865afa158015610646573d6000803e3d6000fd5b505050506040513d601f19601f8201168201806040525081019061066a9190610d91565b90506000816001600160a01b03166318160ddd6040518163ffffffff1660e01b8152600401602060405180830381865afa1580156106ac573d6000803e3d6000fd5b505050506040513d601f19601f820116820180604052508101906106d09190610dae565b90506000816106e7670de0b6b3a764000034610dc7565b6106f19190610df4565b600085815260676020526040908190208290555190915084907f53715826aaa155ba7d694f14e29fe52ea0094f3850a842a289d5a611151dcf1a906107399084815260200190565b60405180910390a250505050565b61074f610ab7565b6107596000610b11565b565b60008181526066602052604090205460ff16801561078457506033546001600160a01b03163314155b1561046d576040516313d0ff5960e31b815260040160405180910390fd5b6107ac600061075b565b600082815260676020526040812054908190036107dc5760405163f5c8968760e01b815260040160405180910390fd5b6040516340d1b7db60e11b8152600481018490526000907f00000000000000000000000000000000000000000000000000000000000000006001600160a01b0316906381a36fb690602401602060405180830381865afa158015610844573d6000803e3d6000fd5b505050506040513d601f19601f820116820180604052508101906108689190610d91565b6040516323b872dd60e01b8152336004820152306024820152604481018590529091506001600160a01b038216906323b872dd906064016020604051808303816000875af11580156108be573d6000803e3d6000fd5b505050506040513d601f19601f820116820180604052508101906108e29190610e16565b506000670de0b6b3a76400006108f88486610dc7565b6109029190610df4565b905061090e3382610b7b565b604080518581526020810183905286917f87efe79f362036cc4820341f6a35939a512b18c3432c5e367a6cfd09d41d7483910160405180910390a25050505050565b610958610ab7565b61046d3382610b7b565b61096a610ab7565b6001600160a01b0381166109e65760405162461bcd60e51b815260206004820152602660248201527f4f776e61626c653a206e6577206f776e657220697320746865207a65726f206160448201527f646472657373000000000000000000000000000000000000000000000000000060648201526084016103f2565b61046d81610b11565b6109f7610ab7565b6000818152606660209081526040808320805460ff191690558051848152918201929092527f77f1fcfcce67dc392d64f842056d2ec06c80986c47c910f7e79c5b23a2738d749101610464565b600054610100900460ff16610aaf5760405162461bcd60e51b815260206004820152602b60248201527f496e697469616c697a61626c653a20636f6e7472616374206973206e6f74206960448201526a6e697469616c697a696e6760a81b60648201526084016103f2565b610759610bf4565b6033546001600160a01b031633146107595760405162461bcd60e51b815260206004820181905260248201527f4f776e61626c653a2063616c6c6572206973206e6f7420746865206f776e657260448201526064016103f2565b603380546001600160a01b038381167fffffffffffffffffffffffff0000000000000000000000000000000000000000831681179093556040519116919082907f8be0079c531659141344cd1fd0a4f28419497f9722a3daafe3b4186f6b6457e090600090a35050565b6000826001600160a01b03168260405160006040518083038185875af1925050503d8060008114610bc8576040519150601f19603f3d011682016040523d82523d6000602084013e610bcd565b606091505b5050905080610bef5760405163260e7d5b60e11b815260040160405180910390fd5b505050565b600054610100900460ff16610c5f5760405162461bcd60e51b815260206004820152602b60248201527f496e697469616c697a61626c653a20636f6e7472616374206973206e6f74206960448201526a6e697469616c697a696e6760a81b60648201526084016103f2565b610759600054610100900460ff16610ccd5760405162461bcd60e51b815260206004820152602b60248201527f496e697469616c697a61626c653a20636f6e7472616374206973206e6f74206960448201526a6e697469616c697a696e6760a81b60648201526084016103f2565b61075933610b11565b60008060408385031215610ce957600080fd5b50508035926020909101359150565b6001600160a01b038116811461046d57600080fd5b600060208284031215610d1f57600080fd5b8135610d2a81610cf8565b9392505050565b600060208284031215610d4357600080fd5b5035919050565b801515811461046d57600080fd5b60008060408385031215610d6b57600080fd5b8235610d7681610cf8565b91506020830135610d8681610d4a565b809150509250929050565b600060208284031215610da357600080fd5b8151610d2a81610cf8565b600060208284031215610dc057600080fd5b5051919050565b6000816000190483118215151615610def57634e487b7160e01b600052601160045260246000fd5b500290565b600082610e1157634e487b7160e01b600052601260045260246000fd5b500490565b600060208284031215610e2857600080fd5b8151610d2a81610d4a56fea164736f6c634300080f000a",
  "devdoc": {
    "author": "@apoorvlathey",
    "kind": "dev",
    "methods": {
      "addVaultForRedeem(uint256)": {
        "params": {
          "vaultId": "The id of the vault"
        }
      },
      "owner()": {
        "details": "Returns the address of the current owner."
      },
      "recoverETH(uint256)": {
        "params": {
          "ethAmount": "Amount of ETH to withdraw"
        }
      },
      "redeem(uint256,uint256)": {
        "params": {
          "vTokenAmount": "Vault tokens amount to burn and redeem",
          "vaultId": "The id of the vault"
        }
      },
      "renounceOwnership()": {
        "details": "Leaves the contract without owner. It will not be possible to call `onlyOwner` functions anymore. Can only be called by the current owner. NOTE: Renouncing ownership will leave the contract without an owner, thereby removing any functionality that is only available to the owner."
      },
      "setEthPerVToken(uint256,uint256)": {
        "params": {
          "ethPerVToken_": "New ethPerVToken value for the vault",
          "vaultId": "The id of the vault"
        }
      },
      "transferOwnership(address)": {
        "details": "Transfers ownership of the contract to a new account (`newOwner`). Can only be called by the current owner."
      }
    },
    "title": "Shutdown Redeemer",
    "version": 1
  },
  "userdoc": {
    "kind": "user",
    "methods": {
      "addVaultForRedeem(uint256)": {
        "notice": "Add new vault for redemption. Send total ETH corresponding to the sale of all NFTs after the vault shutdown."
      },
      "ethPerVToken(uint256)": {
        "notice": "Stores value multiplied by 10^18 (PRECISION)"
      },
      "recoverETH(uint256)": {
        "notice": "Allows owner to withdraw ETH from the contract"
      },
      "redeem(uint256,uint256)": {
        "notice": "Burn sender's vTokens by locking in this contract and redeem ETH in exchange"
      },
      "setEthPerVToken(uint256,uint256)": {
        "notice": "Modify ethPerVToken"
      }
    },
    "notice": "Allows users to exchange their vault tokens for ETH, after the vault shutdown.",
    "version": 1
  },
  "storageLayout": {
    "storage": [
      {
        "astId": 138,
        "contract": "src/ShutdownRedeemerUpgradeable.sol:ShutdownRedeemerUpgradeable",
        "label": "_initialized",
        "offset": 0,
        "slot": "0",
        "type": "t_uint8"
      },
      {
        "astId": 141,
        "contract": "src/ShutdownRedeemerUpgradeable.sol:ShutdownRedeemerUpgradeable",
        "label": "_initializing",
        "offset": 1,
        "slot": "0",
        "type": "t_bool"
      },
      {
        "astId": 625,
        "contract": "src/ShutdownRedeemerUpgradeable.sol:ShutdownRedeemerUpgradeable",
        "label": "__gap",
        "offset": 0,
        "slot": "1",
        "type": "t_array(t_uint256)50_storage"
      },
      {
        "astId": 10,
        "contract": "src/ShutdownRedeemerUpgradeable.sol:ShutdownRedeemerUpgradeable",
        "label": "_owner",
        "offset": 0,
        "slot": "51",
        "type": "t_address"
      },
      {
        "astId": 130,
        "contract": "src/ShutdownRedeemerUpgradeable.sol:ShutdownRedeemerUpgradeable",
        "label": "__gap",
        "offset": 0,
        "slot": "52",
        "type": "t_array(t_uint256)49_storage"
      },
      {
        "astId": 1489,
        "contract": "src/ShutdownRedeemerUpgradeable.sol:ShutdownRedeemerUpgradeable",
        "label": "isGuardian",
        "offset": 0,
        "slot": "101",
        "type": "t_mapping(t_address,t_bool)"
      },
      {
        "astId": 1493,
        "contract": "src/ShutdownRedeemerUpgradeable.sol:ShutdownRedeemerUpgradeable",
        "label": "isPaused",
        "offset": 0,
        "slot": "102",
        "type": "t_mapping(t_uint256,t_bool)"
      },
      {
        "astId": 1250,
        "contract": "src/ShutdownRedeemerUpgradeable.sol:ShutdownRedeemerUpgradeable",
        "label": "ethPerVToken",
        "offset": 0,
        "slot": "103",
        "type": "t_mapping(t_uint256,t_uint256)"
      }
    ],
    "types": {
      "t_address": {
        "encoding": "inplace",
        "label": "address",
        "numberOfBytes": "20"
      },
      "t_array(t_uint256)49_storage": {
        "base": "t_uint256",
        "encoding": "inplace",
        "label": "uint256[49]",
        "numberOfBytes": "1568"
      },
      "t_array(t_uint256)50_storage": {
        "base": "t_uint256",
        "encoding": "inplace",
        "label": "uint256[50]",
        "numberOfBytes": "1600"
      },
      "t_bool": {
        "encoding": "inplace",
        "label": "bool",
        "numberOfBytes": "1"
      },
      "t_mapping(t_address,t_bool)": {
        "encoding": "mapping",
        "key": "t_address",
        "label": "mapping(address => bool)",
        "numberOfBytes": "32",
        "value": "t_bool"
      },
      "t_mapping(t_uint256,t_bool)": {
        "encoding": "mapping",
        "key": "t_uint256",
        "label": "mapping(uint256 => bool)",
        "numberOfBytes": "32",
        "value": "t_bool"
      },
      "t_mapping(t_uint256,t_uint256)": {
        "encoding": "mapping",
        "key": "t_uint256",
        "label": "mapping(uint256 => uint256)",
        "numberOfBytes": "32",
        "value": "t_uint256"
      },
      "t_uint256": {
        "encoding": "inplace",
        "label": "uint256",
        "numberOfBytes": "32"
      },
      "t_uint8": {
        "encoding": "inplace",
        "label": "uint8",
        "numberOfBytes": "1"
      }
    }
  }
}