{
  "address": "0xd26b2BFBB6E8c1B3B849751549B20abf5E5fb125",
  "abi": [
    {
      "inputs": [],
      "name": "NotGuardian",
      "type": "error"
    },
    {
      "inputs": [],
      "name": "Paused",
      "type": "error"
    },
    {
      "inputs": [],
      "name": "SwapNotEnabledForVault",
      "type": "error"
    },
    {
      "anonymous": false,
      "inputs": [
        {
          "indexed": true,
          "internalType": "address",
          "name": "previousOwner",
          "type": "address"
        },
        {
          "indexed": true,
          "internalType": "address",
          "name": "newOwner",
          "type": "address"
        }
      ],
      "name": "OwnershipTransferred",
      "type": "event"
    },
    {
      "anonymous": false,
      "inputs": [
        {
          "indexed": false,
          "internalType": "address",
          "name": "addr",
          "type": "address"
        },
        {
          "indexed": false,
          "internalType": "bool",
          "name": "isGuardian",
          "type": "bool"
        }
      ],
      "name": "SetIsGuardian",
      "type": "event"
    },
    {
      "anonymous": false,
      "inputs": [
        {
          "indexed": false,
          "internalType": "uint256",
          "name": "lockId",
          "type": "uint256"
        },
        {
          "indexed": false,
          "internalType": "bool",
          "name": "paused",
          "type": "bool"
        }
      ],
      "name": "SetPaused",
      "type": "event"
    },
    {
      "anonymous": false,
      "inputs": [
        {
          "indexed": false,
          "internalType": "address",
          "name": "v2VToken",
          "type": "address"
        },
        {
          "indexed": false,
          "internalType": "uint256",
          "name": "amount",
          "type": "uint256"
        }
      ],
      "name": "Swapped",
      "type": "event"
    },
    {
      "anonymous": false,
      "inputs": [
        {
          "indexed": false,
          "internalType": "address",
          "name": "v2VToken",
          "type": "address"
        },
        {
          "indexed": false,
          "internalType": "address",
          "name": "v3VToken",
          "type": "address"
        }
      ],
      "name": "V2ToV3MappingSet",
      "type": "event"
    },
    {
      "inputs": [
        {
          "internalType": "address",
          "name": "",
          "type": "address"
        }
      ],
      "name": "isGuardian",
      "outputs": [
        {
          "internalType": "bool",
          "name": "",
          "type": "bool"
        }
      ],
      "stateMutability": "view",
      "type": "function"
    },
    {
      "inputs": [
        {
          "internalType": "uint256",
          "name": "",
          "type": "uint256"
        }
      ],
      "name": "isPaused",
      "outputs": [
        {
          "internalType": "bool",
          "name": "",
          "type": "bool"
        }
      ],
      "stateMutability": "view",
      "type": "function"
    },
    {
      "inputs": [
        {
          "internalType": "uint256",
          "name": "lockId",
          "type": "uint256"
        }
      ],
      "name": "onlyOwnerIfPaused",
      "outputs": [],
      "stateMutability": "view",
      "type": "function"
    },
    {
      "inputs": [],
      "name": "owner",
      "outputs": [
        {
          "internalType": "address",
          "name": "",
          "type": "address"
        }
      ],
      "stateMutability": "view",
      "type": "function"
    },
    {
      "inputs": [
        {
          "internalType": "uint256",
          "name": "lockId",
          "type": "uint256"
        }
      ],
      "name": "pause",
      "outputs": [],
      "stateMutability": "nonpayable",
      "type": "function"
    },
    {
      "inputs": [],
      "name": "renounceOwnership",
      "outputs": [],
      "stateMutability": "nonpayable",
      "type": "function"
    },
    {
      "inputs": [
        {
          "internalType": "contract IERC20",
          "name": "token",
          "type": "address"
        }
      ],
      "name": "rescueTokens",
      "outputs": [],
      "stateMutability": "nonpayable",
      "type": "function"
    },
    {
      "inputs": [
        {
          "internalType": "address",
          "name": "addr",
          "type": "address"
        },
        {
          "internalType": "bool",
          "name": "_isGuardian",
          "type": "bool"
        }
      ],
      "name": "setIsGuardian",
      "outputs": [],
      "stateMutability": "nonpayable",
      "type": "function"
    },
    {
      "inputs": [
        {
          "internalType": "address",
          "name": "v2VToken",
          "type": "address"
        },
        {
          "internalType": "address",
          "name": "v3VToken",
          "type": "address"
        }
      ],
      "name": "setV2ToV3Mapping",
      "outputs": [],
      "stateMutability": "nonpayable",
      "type": "function"
    },
    {
      "inputs": [
        {
          "internalType": "address",
          "name": "v2VToken",
          "type": "address"
        },
        {
          "internalType": "uint256",
          "name": "amount",
          "type": "uint256"
        }
      ],
      "name": "swap",
      "outputs": [],
      "stateMutability": "nonpayable",
      "type": "function"
    },
    {
      "inputs": [
        {
          "internalType": "address",
          "name": "newOwner",
          "type": "address"
        }
      ],
      "name": "transferOwnership",
      "outputs": [],
      "stateMutability": "nonpayable",
      "type": "function"
    },
    {
      "inputs": [
        {
          "internalType": "uint256",
          "name": "lockId",
          "type": "uint256"
        }
      ],
      "name": "unpause",
      "outputs": [],
      "stateMutability": "nonpayable",
      "type": "function"
    },
    {
      "inputs": [
        {
          "internalType": "address",
          "name": "",
          "type": "address"
        }
      ],
      "name": "v2ToV3VToken",
      "outputs": [
        {
          "internalType": "address",
          "name": "",
          "type": "address"
        }
      ],
      "stateMutability": "view",
      "type": "function"
    }
  ],
  "transactionHash": "0xd18d86efbd92a9b9f03b74b0e8f2b0172a0c6737fc4ee40b0815a4b3deed1170",
  "args": [],
  "numDeployments": 1,
  "solcInputHash": "28cfca9f7b5d9e5cb55aef2a8f8b4710",
  "bytecode": "0x608060405234801561001057600080fd5b5061001a3361001f565b61006f565b600080546001600160a01b038381166001600160a01b0319831681178455604051919092169283917f8be0079c531659141344cd1fd0a4f28419497f9722a3daafe3b4186f6b6457e09190a35050565b610abf8061007e6000396000f3fe608060405234801561001057600080fd5b50600436106100de5760003560e01c80638da5cb5b1161008c578063c8912d9311610066578063c8912d93146101e2578063d004f0f7146101f5578063f2fde38b14610208578063fabc1cbc1461021b57600080fd5b80638da5cb5b14610171578063bd36ea2f14610196578063bdf2a43c146101bf57600080fd5b806323845fb5116100bd57806323845fb514610143578063715018a6146101565780637c77b6161461015e57600080fd5b8062ae3bf8146100e35780630c68ba21146100f8578063136439dd14610130575b600080fd5b6100f66100f136600461099e565b61022e565b005b61011b61010636600461099e565b60016020526000908152604090205460ff1681565b60405190151581526020015b60405180910390f35b6100f661013e3660046109c2565b610371565b6100f66101513660046109e9565b6103f9565b6100f66104b7565b6100f661016c3660046109c2565b61051d565b6000546001600160a01b03165b6040516001600160a01b039091168152602001610127565b61017e6101a436600461099e565b6003602052600090815260409020546001600160a01b031681565b61011b6101cd3660046109c2565b60026020526000908152604090205460ff1681565b6100f66101f0366004610a22565b610567565b6100f6610203366004610a50565b610632565b6100f661021636600461099e565b6107a6565b6100f66102293660046109c2565b610885565b6000546001600160a01b0316331461028d5760405162461bcd60e51b815260206004820181905260248201527f4f776e61626c653a2063616c6c6572206973206e6f7420746865206f776e657260448201526064015b60405180910390fd5b6040516370a0823160e01b81523060048201526000906001600160a01b038316906370a0823190602401602060405180830381865afa1580156102d4573d6000803e3d6000fd5b505050506040513d601f19601f820116820180604052508101906102f89190610a7c565b60405163a9059cbb60e01b8152336004820152602481018290529091506001600160a01b0383169063a9059cbb906044016020604051808303816000875af1158015610348573d6000803e3d6000fd5b505050506040513d601f19601f8201168201806040525081019061036c9190610a95565b505050565b3360009081526001602052604090205460ff166103a1576040516377b6878160e11b815260040160405180910390fd5b600081815260026020908152604091829020805460ff191660019081179091558251848152918201527f77f1fcfcce67dc392d64f842056d2ec06c80986c47c910f7e79c5b23a2738d7491015b60405180910390a150565b6000546001600160a01b031633146104535760405162461bcd60e51b815260206004820181905260248201527f4f776e61626c653a2063616c6c6572206973206e6f7420746865206f776e65726044820152606401610284565b6001600160a01b038216600081815260016020908152604091829020805460ff19168515159081179091558251938452908301527fd0b6b573d5442f7c29fd50d9735ae341581c25c6ed07748d50eda519f1ffa88a91015b60405180910390a15050565b6000546001600160a01b031633146105115760405162461bcd60e51b815260206004820181905260248201527f4f776e61626c653a2063616c6c6572206973206e6f7420746865206f776e65726044820152606401610284565b61051b600061092c565b565b60008181526002602052604090205460ff16801561054657506000546001600160a01b03163314155b15610564576040516313d0ff5960e31b815260040160405180910390fd5b50565b6000546001600160a01b031633146105c15760405162461bcd60e51b815260206004820181905260248201527f4f776e61626c653a2063616c6c6572206973206e6f7420746865206f776e65726044820152606401610284565b6001600160a01b03828116600081815260036020908152604091829020805473ffffffffffffffffffffffffffffffffffffffff1916948616948517905581519283528201929092527f146dfcc1f1b59cb5fcbc14673efee315e80fbe718ac4d8d8ae6128706392931391016104ab565b61063c600061051d565b6001600160a01b03808316600090815260036020526040902054168061067557604051630ce5188560e11b815260040160405180910390fd5b6040516323b872dd60e01b8152336004820152306024820152604481018390526001600160a01b038416906323b872dd906064016020604051808303816000875af11580156106c8573d6000803e3d6000fd5b505050506040513d601f19601f820116820180604052508101906106ec9190610a95565b5060405163a9059cbb60e01b8152336004820152602481018390526001600160a01b0382169063a9059cbb906044016020604051808303816000875af115801561073a573d6000803e3d6000fd5b505050506040513d601f19601f8201168201806040525081019061075e9190610a95565b50604080516001600160a01b0385168152602081018490527fcdee897399ab5e465acb1bd3ed5e32c695f196321764546c59720fa6c9ce4c69910160405180910390a1505050565b6000546001600160a01b031633146108005760405162461bcd60e51b815260206004820181905260248201527f4f776e61626c653a2063616c6c6572206973206e6f7420746865206f776e65726044820152606401610284565b6001600160a01b03811661087c5760405162461bcd60e51b815260206004820152602660248201527f4f776e61626c653a206e6577206f776e657220697320746865207a65726f206160448201527f64647265737300000000000000000000000000000000000000000000000000006064820152608401610284565b6105648161092c565b6000546001600160a01b031633146108df5760405162461bcd60e51b815260206004820181905260248201527f4f776e61626c653a2063616c6c6572206973206e6f7420746865206f776e65726044820152606401610284565b6000818152600260209081526040808320805460ff191690558051848152918201929092527f77f1fcfcce67dc392d64f842056d2ec06c80986c47c910f7e79c5b23a2738d7491016103ee565b600080546001600160a01b0383811673ffffffffffffffffffffffffffffffffffffffff19831681178455604051919092169283917f8be0079c531659141344cd1fd0a4f28419497f9722a3daafe3b4186f6b6457e09190a35050565b6001600160a01b038116811461056457600080fd5b6000602082840312156109b057600080fd5b81356109bb81610989565b9392505050565b6000602082840312156109d457600080fd5b5035919050565b801515811461056457600080fd5b600080604083850312156109fc57600080fd5b8235610a0781610989565b91506020830135610a17816109db565b809150509250929050565b60008060408385031215610a3557600080fd5b8235610a4081610989565b91506020830135610a1781610989565b60008060408385031215610a6357600080fd5b8235610a6e81610989565b946020939093013593505050565b600060208284031215610a8e57600080fd5b5051919050565b600060208284031215610aa757600080fd5b81516109bb816109db56fea164736f6c634300080f000a",
  "devdoc": {
    "author": "@apoorvlathey",
    "kind": "dev",
    "methods": {
      "owner()": {
        "details": "Returns the address of the current owner."
      },
      "renounceOwnership()": {
        "details": "Leaves the contract without owner. It will not be possible to call `onlyOwner` functions anymore. Can only be called by the current owner. NOTE: Renouncing ownership will leave the contract without an owner, thereby removing any functionality that is only available to the owner."
      },
      "transferOwnership(address)": {
        "details": "Transfers ownership of the contract to a new account (`newOwner`). Can only be called by the current owner."
      }
    },
    "title": "V3 Migrate Swap",
    "version": 1
  },
  "userdoc": {
    "kind": "user",
    "methods": {},
    "notice": "Swap v2 -> v3 NFTX vault tokens 1:1",
    "version": 1
  },
  "storageLayout": {
    "storage": [
      {
        "astId": 4846,
        "contract": "src/V3MigrateSwap.sol:V3MigrateSwap",
        "label": "_owner",
        "offset": 0,
        "slot": "0",
        "type": "t_address"
      },
      {
        "astId": 17798,
        "contract": "src/V3MigrateSwap.sol:V3MigrateSwap",
        "label": "isGuardian",
        "offset": 0,
        "slot": "1",
        "type": "t_mapping(t_address,t_bool)"
      },
      {
        "astId": 17802,
        "contract": "src/V3MigrateSwap.sol:V3MigrateSwap",
        "label": "isPaused",
        "offset": 0,
        "slot": "2",
        "type": "t_mapping(t_uint256,t_bool)"
      },
      {
        "astId": 16910,
        "contract": "src/V3MigrateSwap.sol:V3MigrateSwap",
        "label": "v2ToV3VToken",
        "offset": 0,
        "slot": "3",
        "type": "t_mapping(t_address,t_address)"
      }
    ],
    "types": {
      "t_address": {
        "encoding": "inplace",
        "label": "address",
        "numberOfBytes": "20"
      },
      "t_bool": {
        "encoding": "inplace",
        "label": "bool",
        "numberOfBytes": "1"
      },
      "t_mapping(t_address,t_address)": {
        "encoding": "mapping",
        "key": "t_address",
        "label": "mapping(address => address)",
        "numberOfBytes": "32",
        "value": "t_address"
      },
      "t_mapping(t_address,t_bool)": {
        "encoding": "mapping",
        "key": "t_address",
        "label": "mapping(address => bool)",
        "numberOfBytes": "32",
        "value": "t_bool"
      },
      "t_mapping(t_uint256,t_bool)": {
        "encoding": "mapping",
        "key": "t_uint256",
        "label": "mapping(uint256 => bool)",
        "numberOfBytes": "32",
        "value": "t_bool"
      },
      "t_uint256": {
        "encoding": "inplace",
        "label": "uint256",
        "numberOfBytes": "32"
      }
    }
  }
}