{
  "address": "0x8665664CD32B6263A9b716371814Dc8CecFb8F2B",
  "abi": [
    {
      "inputs": [
        {
          "components": [
            {
              "internalType": "address",
              "name": "addr",
              "type": "address"
            },
            {
              "internalType": "uint256",
              "name": "lastLockId",
              "type": "uint256"
            }
          ],
          "internalType": "struct FailSafe.Contract[]",
          "name": "_contracts",
          "type": "tuple[]"
        }
      ],
      "stateMutability": "nonpayable",
      "type": "constructor"
    },
    {
      "anonymous": false,
      "inputs": [
        {
          "indexed": true,
          "internalType": "address",
          "name": "previousOwner",
          "type": "address"
        },
        {
          "indexed": true,
          "internalType": "address",
          "name": "newOwner",
          "type": "address"
        }
      ],
      "name": "OwnershipTransferred",
      "type": "event"
    },
    {
      "inputs": [
        {
          "internalType": "uint256",
          "name": "",
          "type": "uint256"
        }
      ],
      "name": "contracts",
      "outputs": [
        {
          "internalType": "address",
          "name": "addr",
          "type": "address"
        },
        {
          "internalType": "uint256",
          "name": "lastLockId",
          "type": "uint256"
        }
      ],
      "stateMutability": "view",
      "type": "function"
    },
    {
      "inputs": [],
      "name": "owner",
      "outputs": [
        {
          "internalType": "address",
          "name": "",
          "type": "address"
        }
      ],
      "stateMutability": "view",
      "type": "function"
    },
    {
      "inputs": [],
      "name": "pauseAll",
      "outputs": [],
      "stateMutability": "nonpayable",
      "type": "function"
    },
    {
      "inputs": [],
      "name": "renounceOwnership",
      "outputs": [],
      "stateMutability": "nonpayable",
      "type": "function"
    },
    {
      "inputs": [
        {
          "components": [
            {
              "internalType": "address",
              "name": "addr",
              "type": "address"
            },
            {
              "internalType": "uint256",
              "name": "lastLockId",
              "type": "uint256"
            }
          ],
          "internalType": "struct FailSafe.Contract[]",
          "name": "_contracts",
          "type": "tuple[]"
        }
      ],
      "name": "setContracts",
      "outputs": [],
      "stateMutability": "nonpayable",
      "type": "function"
    },
    {
      "inputs": [
        {
          "internalType": "address",
          "name": "newOwner",
          "type": "address"
        }
      ],
      "name": "transferOwnership",
      "outputs": [],
      "stateMutability": "nonpayable",
      "type": "function"
    }
  ],
  "transactionHash": "0xa5251b4a5ef148b82d946ca9e628054512d08d057890f2e21265a20c2ab352f5",
  "args": [
    [
      {
        "addr": "0x889f313e2a3FDC1c9a45bC6020A8a18749CD6152",
        "lastLockId": 4
      },
      {
        "addr": "0xC255335bc5aBd6928063F5788a5E420554858f01",
        "lastLockId": 0
      },
      {
        "addr": "0x6845fF5f102bEF9D785468F0bEb535b4687406E7",
        "lastLockId": 1
      },
      {
        "addr": "0x70A741A12262d4b5Ff45C0179c783a380EebE42a",
        "lastLockId": 4
      }
    ]
  ],
  "numDeployments": 1,
  "solcInputHash": "9a1edd62300768a4775caece43a1ebca",
  "bytecode": "0x60806040523480156200001157600080fd5b5060405162000a5438038062000a5483398101604081905262000034916200024f565b6200003f3362000051565b6200004a81620000a1565b5062000356565b600080546001600160a01b038381166001600160a01b0319831681178455604051919092169283917f8be0079c531659141344cd1fd0a4f28419497f9722a3daafe3b4186f6b6457e09190a35050565b6000546001600160a01b03163314620001005760405162461bcd60e51b815260206004820181905260248201527f4f776e61626c653a2063616c6c6572206973206e6f7420746865206f776e6572604482015260640160405180910390fd5b6200010e6001600062000189565b805160005b818110156200018457600183828151811062000133576200013362000340565b602090810291909101810151825460018082018555600094855293839020825160029092020180546001600160a01b0319166001600160a01b03909216919091178155910151908201550162000113565b505050565b5080546000825560020290600052602060002090810190620001ac9190620001af565b50565b5b80821115620001d75780546001600160a01b031916815560006001820155600201620001b0565b5090565b634e487b7160e01b600052604160045260246000fd5b604080519081016001600160401b0381118282101715620002165762000216620001db565b60405290565b604051601f8201601f191681016001600160401b0381118282101715620002475762000247620001db565b604052919050565b600060208083850312156200026357600080fd5b82516001600160401b03808211156200027b57600080fd5b818501915085601f8301126200029057600080fd5b815181811115620002a557620002a5620001db565b620002b5848260051b016200021c565b818152848101925060069190911b830184019087821115620002d657600080fd5b928401925b81841015620003355760408489031215620002f65760008081fd5b62000300620001f1565b84516001600160a01b0381168114620003195760008081fd5b81528486015186820152835260409093019291840191620002db565b979650505050505050565b634e487b7160e01b600052603260045260246000fd5b6106ee80620003666000396000f3fe608060405234801561001057600080fd5b50600436106100725760003560e01c80638da5cb5b116100505780638da5cb5b146100c0578063b64fa984146100db578063f2fde38b146100ee57600080fd5b8063474da79a14610077578063595c6a67146100ae578063715018a6146100b8575b600080fd5b61008a610085366004610530565b610101565b604080516001600160a01b0390931683526020830191909152015b60405180910390f35b6100b6610139565b005b6100b661024f565b6000546040516001600160a01b0390911681526020016100a5565b6100b66100e93660046105d5565b6102b5565b6100b66100fc3660046106a9565b61039e565b6001818154811061011157600080fd5b6000918252602090912060029091020180546001909101546001600160a01b03909116915082565b6000546001600160a01b031633146101985760405162461bcd60e51b815260206004820181905260248201527f4f776e61626c653a2063616c6c6572206973206e6f7420746865206f776e657260448201526064015b60405180910390fd5b60015460005b8181101561024b576000600182815481106101bb576101bb6106cb565b9060005260206000209060020201905060005b8160010154811161024157815460405163136439dd60e01b8152600481018390526001600160a01b039091169063136439dd90602401600060405180830381600087803b15801561021e57600080fd5b505af1158015610232573d6000803e3d6000fd5b505050508060010190506101ce565b505060010161019e565b5050565b6000546001600160a01b031633146102a95760405162461bcd60e51b815260206004820181905260248201527f4f776e61626c653a2063616c6c6572206973206e6f7420746865206f776e6572604482015260640161018f565b6102b36000610480565b565b6000546001600160a01b0316331461030f5760405162461bcd60e51b815260206004820181905260248201527f4f776e61626c653a2063616c6c6572206973206e6f7420746865206f776e6572604482015260640161018f565b61031b600160006104dd565b805160005b8181101561039957600183828151811061033c5761033c6106cb565b6020908102919091018101518254600180820185556000948552938390208251600290920201805473ffffffffffffffffffffffffffffffffffffffff19166001600160a01b039092169190911781559101519082015501610320565b505050565b6000546001600160a01b031633146103f85760405162461bcd60e51b815260206004820181905260248201527f4f776e61626c653a2063616c6c6572206973206e6f7420746865206f776e6572604482015260640161018f565b6001600160a01b0381166104745760405162461bcd60e51b815260206004820152602660248201527f4f776e61626c653a206e6577206f776e657220697320746865207a65726f206160448201527f6464726573730000000000000000000000000000000000000000000000000000606482015260840161018f565b61047d81610480565b50565b600080546001600160a01b0383811673ffffffffffffffffffffffffffffffffffffffff19831681178455604051919092169283917f8be0079c531659141344cd1fd0a4f28419497f9722a3daafe3b4186f6b6457e09190a35050565b508054600082556002029060005260206000209081019061047d91905b8082111561052c57805473ffffffffffffffffffffffffffffffffffffffff19168155600060018201556002016104fa565b5090565b60006020828403121561054257600080fd5b5035919050565b634e487b7160e01b600052604160045260246000fd5b6040805190810167ffffffffffffffff8111828210171561058257610582610549565b60405290565b604051601f8201601f1916810167ffffffffffffffff811182821017156105b1576105b1610549565b604052919050565b80356001600160a01b03811681146105d057600080fd5b919050565b600060208083850312156105e857600080fd5b823567ffffffffffffffff8082111561060057600080fd5b818501915085601f83011261061457600080fd5b81358181111561062657610626610549565b610634848260051b01610588565b818152848101925060069190911b83018401908782111561065457600080fd5b928401925b8184101561069e57604084890312156106725760008081fd5b61067a61055f565b610683856105b9565b81528486013586820152835260409093019291840191610659565b979650505050505050565b6000602082840312156106bb57600080fd5b6106c4826105b9565b9392505050565b634e487b7160e01b600052603260045260246000fdfea164736f6c634300080f000a",
  "devdoc": {
    "author": "@apoorvlathey",
    "kind": "dev",
    "methods": {
      "owner()": {
        "details": "Returns the address of the current owner."
      },
      "renounceOwnership()": {
        "details": "Leaves the contract without owner. It will not be possible to call `onlyOwner` functions anymore. Can only be called by the current owner. NOTE: Renouncing ownership will leave the contract without an owner, thereby removing any functionality that is only available to the owner."
      },
      "transferOwnership(address)": {
        "details": "Transfers ownership of the contract to a new account (`newOwner`). Can only be called by the current owner."
      }
    },
    "title": "Fail Safe",
    "version": 1
  },
  "userdoc": {
    "kind": "user",
    "methods": {},
    "notice": "Pause all operations at once. This contract must be set as guardian.",
    "version": 1
  },
  "storageLayout": {
    "storage": [
      {
        "astId": 3093,
        "contract": "src/FailSafe.sol:FailSafe",
        "label": "_owner",
        "offset": 0,
        "slot": "0",
        "type": "t_address"
      },
      {
        "astId": 4296,
        "contract": "src/FailSafe.sol:FailSafe",
        "label": "contracts",
        "offset": 0,
        "slot": "1",
        "type": "t_array(t_struct(Contract)4292_storage)dyn_storage"
      }
    ],
    "types": {
      "t_address": {
        "encoding": "inplace",
        "label": "address",
        "numberOfBytes": "20"
      },
      "t_array(t_struct(Contract)4292_storage)dyn_storage": {
        "base": "t_struct(Contract)4292_storage",
        "encoding": "dynamic_array",
        "label": "struct FailSafe.Contract[]",
        "numberOfBytes": "32"
      },
      "t_struct(Contract)4292_storage": {
        "encoding": "inplace",
        "label": "struct FailSafe.Contract",
        "members": [
          {
            "astId": 4289,
            "contract": "src/FailSafe.sol:FailSafe",
            "label": "addr",
            "offset": 0,
            "slot": "0",
            "type": "t_address"
          },
          {
            "astId": 4291,
            "contract": "src/FailSafe.sol:FailSafe",
            "label": "lastLockId",
            "offset": 0,
            "slot": "1",
            "type": "t_uint256"
          }
        ],
        "numberOfBytes": "64"
      },
      "t_uint256": {
        "encoding": "inplace",
        "label": "uint256",
        "numberOfBytes": "32"
      }
    }
  }
}