{
  "address": "0xD0999df61929E9d83d4236Cf0e1A0755869B9FE3",
  "abi": [
    {
      "inputs": [
        {
          "internalType": "contract IWETH9",
          "name": "WETH_",
          "type": "address"
        },
        {
          "internalType": "contract INFTXVaultFactoryV2",
          "name": "v2NFTXFactory_",
          "type": "address"
        },
        {
          "internalType": "contract INFTXInventoryStakingV2",
          "name": "v2Inventory_",
          "type": "address"
        },
        {
          "internalType": "contract IUniswapV2Router02",
          "name": "sushiRouter_",
          "type": "address"
        },
        {
          "internalType": "contract INonfungiblePositionManager",
          "name": "positionManager_",
          "type": "address"
        },
        {
          "internalType": "contract INFTXVaultFactoryV3",
          "name": "v3NFTXFactory_",
          "type": "address"
        },
        {
          "internalType": "contract INFTXInventoryStakingV3",
          "name": "v3Inventory_",
          "type": "address"
        }
      ],
      "stateMutability": "nonpayable",
      "type": "constructor"
    },
    {
      "inputs": [],
      "name": "InvalidSignatureLength",
      "type": "error"
    },
    {
      "inputs": [],
      "name": "UnableToSendETH",
      "type": "error"
    },
    {
      "anonymous": false,
      "inputs": [
        {
          "indexed": true,
          "internalType": "address",
          "name": "previousOwner",
          "type": "address"
        },
        {
          "indexed": true,
          "internalType": "address",
          "name": "newOwner",
          "type": "address"
        }
      ],
      "name": "OwnershipTransferred",
      "type": "event"
    },
    {
      "inputs": [],
      "name": "WETH",
      "outputs": [
        {
          "internalType": "contract IWETH9",
          "name": "",
          "type": "address"
        }
      ],
      "stateMutability": "view",
      "type": "function"
    },
    {
      "inputs": [],
      "name": "owner",
      "outputs": [
        {
          "internalType": "address",
          "name": "",
          "type": "address"
        }
      ],
      "stateMutability": "view",
      "type": "function"
    },
    {
      "inputs": [],
      "name": "positionManager",
      "outputs": [
        {
          "internalType": "contract INonfungiblePositionManager",
          "name": "",
          "type": "address"
        }
      ],
      "stateMutability": "view",
      "type": "function"
    },
    {
      "inputs": [],
      "name": "renounceOwnership",
      "outputs": [],
      "stateMutability": "nonpayable",
      "type": "function"
    },
    {
      "inputs": [
        {
          "internalType": "address",
          "name": "token",
          "type": "address"
        }
      ],
      "name": "rescueTokens",
      "outputs": [],
      "stateMutability": "nonpayable",
      "type": "function"
    },
    {
      "inputs": [],
      "name": "sushiRouter",
      "outputs": [
        {
          "internalType": "contract IUniswapV2Router02",
          "name": "",
          "type": "address"
        }
      ],
      "stateMutability": "view",
      "type": "function"
    },
    {
      "inputs": [
        {
          "components": [
            {
              "internalType": "address",
              "name": "sushiPair",
              "type": "address"
            },
            {
              "internalType": "uint256",
              "name": "lpAmount",
              "type": "uint256"
            },
            {
              "internalType": "address",
              "name": "vTokenV2",
              "type": "address"
            },
            {
              "internalType": "bool",
              "name": "is1155",
              "type": "bool"
            },
            {
              "internalType": "bytes",
              "name": "permitSig",
              "type": "bytes"
            },
            {
              "internalType": "uint256",
              "name": "vaultIdV3",
              "type": "uint256"
            },
            {
              "internalType": "int24",
              "name": "tickLower",
              "type": "int24"
            },
            {
              "internalType": "int24",
              "name": "tickUpper",
              "type": "int24"
            },
            {
              "internalType": "uint24",
              "name": "fee",
              "type": "uint24"
            },
            {
              "internalType": "uint160",
              "name": "sqrtPriceX96",
              "type": "uint160"
            },
            {
              "internalType": "uint256",
              "name": "amount0Min",
              "type": "uint256"
            },
            {
              "internalType": "uint256",
              "name": "amount1Min",
              "type": "uint256"
            },
            {
              "internalType": "uint256",
              "name": "deadline",
              "type": "uint256"
            }
          ],
          "internalType": "struct MigratorZap.SushiToNFTXAMMParams",
          "name": "params",
          "type": "tuple"
        }
      ],
      "name": "sushiToNFTXAMM",
      "outputs": [
        {
          "internalType": "uint256",
          "name": "positionId",
          "type": "uint256"
        }
      ],
      "stateMutability": "nonpayable",
      "type": "function"
    },
    {
      "inputs": [
        {
          "internalType": "address",
          "name": "newOwner",
          "type": "address"
        }
      ],
      "name": "transferOwnership",
      "outputs": [],
      "stateMutability": "nonpayable",
      "type": "function"
    },
    {
      "inputs": [],
      "name": "v2Inventory",
      "outputs": [
        {
          "internalType": "contract INFTXInventoryStakingV2",
          "name": "",
          "type": "address"
        }
      ],
      "stateMutability": "view",
      "type": "function"
    },
    {
      "inputs": [
        {
          "internalType": "uint256",
          "name": "vaultIdV2",
          "type": "uint256"
        },
        {
          "internalType": "uint256",
          "name": "shares",
          "type": "uint256"
        },
        {
          "internalType": "bool",
          "name": "is1155",
          "type": "bool"
        },
        {
          "internalType": "uint256",
          "name": "vaultIdV3",
          "type": "uint256"
        },
        {
          "internalType": "uint256",
          "name": "minWethToReceive",
          "type": "uint256"
        }
      ],
      "name": "v2InventoryToXNFT",
      "outputs": [
        {
          "internalType": "uint256",
          "name": "xNFTId",
          "type": "uint256"
        }
      ],
      "stateMutability": "nonpayable",
      "type": "function"
    },
    {
      "inputs": [],
      "name": "v2NFTXFactory",
      "outputs": [
        {
          "internalType": "contract INFTXVaultFactoryV2",
          "name": "",
          "type": "address"
        }
      ],
      "stateMutability": "view",
      "type": "function"
    },
    {
      "inputs": [
        {
          "internalType": "address",
          "name": "vTokenV2",
          "type": "address"
        },
        {
          "internalType": "uint256",
          "name": "vTokenV2Balance",
          "type": "uint256"
        },
        {
          "internalType": "bool",
          "name": "is1155",
          "type": "bool"
        },
        {
          "internalType": "uint256",
          "name": "vaultIdV3",
          "type": "uint256"
        },
        {
          "internalType": "uint256",
          "name": "minWethToReceive",
          "type": "uint256"
        }
      ],
      "name": "v2VaultToXNFT",
      "outputs": [
        {
          "internalType": "uint256",
          "name": "xNFTId",
          "type": "uint256"
        }
      ],
      "stateMutability": "nonpayable",
      "type": "function"
    },
    {
      "inputs": [],
      "name": "v3Inventory",
      "outputs": [
        {
          "internalType": "contract INFTXInventoryStakingV3",
          "name": "",
          "type": "address"
        }
      ],
      "stateMutability": "view",
      "type": "function"
    },
    {
      "inputs": [],
      "name": "v3NFTXFactory",
      "outputs": [
        {
          "internalType": "contract INFTXVaultFactoryV3",
          "name": "",
          "type": "address"
        }
      ],
      "stateMutability": "view",
      "type": "function"
    },
    {
      "stateMutability": "payable",
      "type": "receive"
    }
  ],
  "transactionHash": "0x7a5daed7bc54a9ab6fe3820e8f753994b777bdf7b07f877450fd85bdea3a3908",
  "args": [
    "0xC02aaA39b223FE8D0A0e5C4F27eAD9083C756Cc2",
    "0xBE86f647b167567525cCAAfcd6f881F1Ee558216",
    "0x3E135c3E981fAe3383A5aE0d323860a34CfAB893",
    "0xd9e1cE17f2641f24aE83637ab66a2cca9C378B9F",
    "0x26387fcA3692FCac1C1e8E4E2B22A6CF0d4b71bF",
    "0xC255335bc5aBd6928063F5788a5E420554858f01",
    "0x889f313e2a3FDC1c9a45bC6020A8a18749CD6152"
  ],
  "numDeployments": 3,
  "solcInputHash": "5d9fc36167db28a8bdc8f19d55066e4c",
  "bytecode": "0x6101606040523480156200001257600080fd5b5060405162002a3a38038062002a3a83398101604081905262000035916200015d565b6200004033620000f4565b6001600160a01b03878116608081905287821660a05286821660c05285821660e052848216610100819052848316610120529183166101405260405163095ea7b360e01b8152600481019290925260001960248301529063095ea7b3906044016020604051808303816000875af1158015620000c0573d6000803e3d6000fd5b505050506040513d601f19601f82011682018060405250810190620000e6919062000208565b505050505050505062000233565b600080546001600160a01b038381166001600160a01b0319831681178455604051919092169283917f8be0079c531659141344cd1fd0a4f28419497f9722a3daafe3b4186f6b6457e09190a35050565b6001600160a01b03811681146200015a57600080fd5b50565b600080600080600080600060e0888a0312156200017957600080fd5b8751620001868162000144565b6020890151909750620001998162000144565b6040890151909650620001ac8162000144565b6060890151909550620001bf8162000144565b6080890151909450620001d28162000144565b60a0890151909350620001e58162000144565b60c0890151909250620001f88162000144565b8091505092959891949750929550565b6000602082840312156200021b57600080fd5b815180151581146200022c57600080fd5b9392505050565b60805160a05160c05160e05161010051610120516101405161271262000328600039600081816102700152818161058c015281816105f00152818161112f015261119301526000818161023c01526113e0015260008181610208015281816107f1015281816108d601526109000152600081816101bf01528181610f7f01528181611807015261184301526000818161031601528181610c0a0152610d0d0152600081816101530152610d890152600081816102e20152818161050f0152818161076a0152818161079b015281816107c501528181610ef4015281816110b2015281816117af0152611d3301526127126000f3fe6080604052600436106100e05760003560e01c806381dbb21c1161007f578063aaeb848111610059578063aaeb8481146102b0578063ad5c4648146102d0578063eb7b82a514610304578063f2fde38b1461033857600080fd5b806381dbb21c1461022a578063839558131461025e5780638da5cb5b1461029257600080fd5b8063450c0723116100bb578063450c07231461018d5780636d13582c146101ad578063715018a6146101e1578063791b98bc146101f657600080fd5b8062ae3bf8146100ec578063345ea03b1461010e57806337b991811461014157600080fd5b366100e757005b600080fd5b3480156100f857600080fd5b5061010c610107366004612072565b610358565b005b34801561011a57600080fd5b5061012e61012936600461209d565b610459565b6040519081526020015b60405180910390f35b34801561014d57600080fd5b506101757f000000000000000000000000000000000000000000000000000000000000000081565b6040516001600160a01b039091168152602001610138565b34801561019957600080fd5b5061012e6101a83660046120ef565b610672565b3480156101b957600080fd5b506101757f000000000000000000000000000000000000000000000000000000000000000081565b3480156101ed57600080fd5b5061010c610b82565b34801561020257600080fd5b506101757f000000000000000000000000000000000000000000000000000000000000000081565b34801561023657600080fd5b506101757f000000000000000000000000000000000000000000000000000000000000000081565b34801561026a57600080fd5b506101757f000000000000000000000000000000000000000000000000000000000000000081565b34801561029e57600080fd5b506000546001600160a01b0316610175565b3480156102bc57600080fd5b5061012e6102cb36600461212b565b610be8565b3480156102dc57600080fd5b506101757f000000000000000000000000000000000000000000000000000000000000000081565b34801561031057600080fd5b506101757f000000000000000000000000000000000000000000000000000000000000000081565b34801561034457600080fd5b5061010c610353366004612072565b61121a565b6000546001600160a01b031633146103b75760405162461bcd60e51b815260206004820181905260248201527f4f776e61626c653a2063616c6c6572206973206e6f7420746865206f776e657260448201526064015b60405180910390fd5b6001600160a01b0381161561044b576040516370a0823160e01b81523060048201526000906001600160a01b038316906370a0823190602401602060405180830381865afa15801561040d573d6000803e3d6000fd5b505050506040513d601f19601f82011682018060405250810190610431919061215c565b90506104476001600160a01b03831633836112f9565b5050565b476104473382611365565b50565b6040516323b872dd60e01b8152336004820152306024820152604481018590526000906001600160a01b038716906323b872dd906064016020604051808303816000875af11580156104af573d6000803e3d6000fd5b505050506040513d601f19601f820116820180604052508101906104d39190612175565b5060008060006104e68989888a896113d9565b9194509250905080156105865760405163a9059cbb60e01b8152336004820152602481018290527f00000000000000000000000000000000000000000000000000000000000000006001600160a01b03169063a9059cbb906044016020604051808303816000875af1158015610560573d6000803e3d6000fd5b505050506040513d601f19601f820116820180604052508101906105849190612175565b505b6105b1837f000000000000000000000000000000000000000000000000000000000000000084611a78565b6040516338688db360e11b8152600481018790526024810183905233604482015260c06064820152600060c482018190526084820181905260a48201527f00000000000000000000000000000000000000000000000000000000000000006001600160a01b0316906370d11b669060e4016020604051808303816000875af1158015610641573d6000803e3d6000fd5b505050506040513d601f19601f82011682018060405250810190610665919061215c565b9998505050505050505050565b6000806106826080840184612192565b905011156106e6576106e661069a6020840184612072565b60208401356106ac6080860186612192565b8080601f016020809104026020016040519081016040528093929190818152602001838380828437600092019190915250611b7292505050565b60008080806107156106fb6020880188612072565b602088013561071060608a0160408b01612072565b611c38565b94509050600061074b61072e6060890160408a01612072565b8360a08a013561074460808c0160608d016121e0565b60006113d9565b9195509350905061075c8186612213565b945050506001600160a01b037f00000000000000000000000000000000000000000000000000000000000000008116908316106000808080846107c2577f00000000000000000000000000000000000000000000000000000000000000008789886107e7565b867f0000000000000000000000000000000000000000000000000000000000000000878a5b93509350935093507f00000000000000000000000000000000000000000000000000000000000000006001600160a01b03166313ead56285858d610100016020810190610834919061222b565b8e6101200160208101906108489190612072565b6040516001600160e01b031960e087901b1681526001600160a01b039485166004820152928416602484015262ffffff90911660448301529190911660648201526084016020604051808303816000875af11580156108ab573d6000803e3d6000fd5b505050506040513d601f19601f820116820180604052508101906108cf9190612250565b506108fb877f000000000000000000000000000000000000000000000000000000000000000088611a78565b6000807f00000000000000000000000000000000000000000000000000000000000000006001600160a01b03166388316456604051806101600160405280896001600160a01b03168152602001886001600160a01b031681526020018f61010001602081019061096b919061222b565b62ffffff1681526020018f60c0016020810190610988919061226d565b60020b81526020018f60e00160208101906109a3919061226d565b60020b81526020018781526020018681526020018f610140013581526020018f61016001358152602001336001600160a01b031681526020018f61018001358152506040518263ffffffff1660e01b8152600401610a019190612290565b6080604051808303816000875af1158015610a20573d6000803e3d6000fd5b505050506040513d601f19601f82011682018060405250810190610a449190612354565b929d5093509091505083821015610ae0576001600160a01b03861663a9059cbb33610a6f85886123a7565b6040516001600160e01b031960e085901b1681526001600160a01b03909216600483015260248201526044016020604051808303816000875af1158015610aba573d6000803e3d6000fd5b505050506040513d601f19601f82011682018060405250810190610ade9190612175565b505b82811015610b73576001600160a01b03851663a9059cbb33610b0284876123a7565b6040516001600160e01b031960e085901b1681526001600160a01b03909216600483015260248201526044016020604051808303816000875af1158015610b4d573d6000803e3d6000fd5b505050506040513d601f19601f82011682018060405250810190610b719190612175565b505b50505050505050505050919050565b6000546001600160a01b03163314610bdc5760405162461bcd60e51b815260206004820181905260248201527f4f776e61626c653a2063616c6c6572206973206e6f7420746865206f776e657260448201526064016103ae565b610be66000611d76565b565b60405162d3f20f60e21b81526004810186905260009081906001600160a01b037f0000000000000000000000000000000000000000000000000000000000000000169063034fc83c90602401602060405180830381865afa158015610c51573d6000803e3d6000fd5b505050506040513d601f19601f82011682018060405250810190610c759190612250565b6040516323b872dd60e01b8152336004820152306024820152604481018890529091506001600160a01b038216906323b872dd906064016020604051808303816000875af1158015610ccb573d6000803e3d6000fd5b505050506040513d601f19601f82011682018060405250810190610cef9190612175565b50604051630441a3e760e41b815260048101889052602481018790527f00000000000000000000000000000000000000000000000000000000000000006001600160a01b03169063441a3e7090604401600060405180830381600087803b158015610d5957600080fd5b505af1158015610d6d573d6000803e3d6000fd5b50506040516340d1b7db60e11b8152600481018a9052600092507f00000000000000000000000000000000000000000000000000000000000000006001600160a01b031691506381a36fb690602401602060405180830381865afa158015610dd9573d6000803e3d6000fd5b505050506040513d601f19601f82011682018060405250810190610dfd9190612250565b6040516370a0823160e01b81523060048201529091506000906001600160a01b038316906370a0823190602401602060405180830381865afa158015610e47573d6000803e3d6000fd5b505050506040513d601f19601f82011682018060405250810190610e6b919061215c565b90506000610e81670de0b6b3a7640000836123d4565b90506000670de0b6b3a7640000610e99606485612213565b610ea391906123d4565b90508181111561107757600083610ec283670de0b6b3a76400006123e8565b610ecc91906123a7565b60408051600280825260608201835292935060009290916020830190803683370190505090507f000000000000000000000000000000000000000000000000000000000000000081600081518110610f2657610f2661241d565b60200260200101906001600160a01b031690816001600160a01b0316815250508581600181518110610f5a57610f5a61241d565b6001600160a01b03928316602091820292909201015260405163fb3bdb4160e01b81527f00000000000000000000000000000000000000000000000000000000000000009091169063fb3bdb4190633b9aca0090610fc2908690869030904290600401612477565b60006040518083038185885af1158015610fe0573d6000803e3d6000fd5b50505050506040513d6000823e601f3d908101601f1916820160405261100991908101906124ac565b506040516370a0823160e01b81523060048201526001600160a01b038716906370a0823190602401602060405180830381865afa15801561104e573d6000803e3d6000fd5b505050506040513d601f19601f82011682018060405250810190611072919061215c565b945050505b600080600061108987878d8f8e6113d9565b9194509250905080156111295760405163a9059cbb60e01b8152336004820152602481018290527f00000000000000000000000000000000000000000000000000000000000000006001600160a01b03169063a9059cbb906044016020604051808303816000875af1158015611103573d6000803e3d6000fd5b505050506040513d601f19601f820116820180604052508101906111279190612175565b505b611154837f000000000000000000000000000000000000000000000000000000000000000084611a78565b6040516338688db360e11b8152600481018c90526024810183905233604482015260c06064820152600060c482018190526084820181905260a48201527f00000000000000000000000000000000000000000000000000000000000000006001600160a01b0316906370d11b669060e4016020604051808303816000875af11580156111e4573d6000803e3d6000fd5b505050506040513d601f19601f82011682018060405250810190611208919061215c565b9e9d5050505050505050505050505050565b6000546001600160a01b031633146112745760405162461bcd60e51b815260206004820181905260248201527f4f776e61626c653a2063616c6c6572206973206e6f7420746865206f776e657260448201526064016103ae565b6001600160a01b0381166112f05760405162461bcd60e51b815260206004820152602660248201527f4f776e61626c653a206e6577206f776e657220697320746865207a65726f206160448201527f646472657373000000000000000000000000000000000000000000000000000060648201526084016103ae565b61045681611d76565b604080516001600160a01b038416602482015260448082018490528251808303909101815260649091019091526020810180517bffffffffffffffffffffffffffffffffffffffffffffffffffffffff1663a9059cbb60e01b179052611360908490611dde565b505050565b6000826001600160a01b03168260405160006040518083038185875af1925050503d80600081146113b2576040519150601f19603f3d011682016040523d82523d6000602084013e6113b7565b606091505b50509050806113605760405163260e7d5b60e11b815260040160405180910390fd5b60008060007f00000000000000000000000000000000000000000000000000000000000000006001600160a01b03166381a36fb6876040518263ffffffff1660e01b815260040161142c91815260200190565b602060405180830381865afa158015611449573d6000803e3d6000fd5b505050506040513d601f19601f8201168201806040525081019061146d9190612250565b92506000836001600160a01b0316631ba46cfd6040518163ffffffff1660e01b8152600401602060405180830381865afa1580156114af573d6000803e3d6000fd5b505050506040513d601f19601f820116820180604052508101906114d39190612250565b90506001600160a01b0380821673b47e3cd837ddf8e4c57f05d70ab865de6e193bbb14906060906000908c16639d54def6611516670de0b6b3a76400008e6123d4565b848c61152d5786611527578a61152f565b3061152f565b305b6040518463ffffffff1660e01b815260040161154d9392919061259a565b6000604051808303816000875af115801561156c573d6000803e3d6000fd5b505050506040513d6000823e601f3d908101601f1916820160405261159491908101906124ac565b905082156116cc5760005b81518110156116ca5760008282815181106115bc576115bc61241d565b60209081029190910101516040516024810191909152600060448201526001600160a01b038a16606482015260840160408051601f198184030181529181526020820180517bffffffffffffffffffffffffffffffffffffffffffffffffffffffff1663bf31196f60e01b17905251909150600090819073b47e3cd837ddf8e4c57f05d70ab865de6e193bbb906116549085906125f8565b6000604051808303816000865af19150503d8060008114611691576040519150601f19603f3d011682016040523d82523d6000602084013e611696565b606091505b50915091508181906116bb5760405162461bcd60e51b81526004016103ae9190612614565b5083600101935050505061159f565b505b88156117355760405163a22cb46560e01b81526001600160a01b0388811660048301526001602483015285169063a22cb46590604401600060405180830381600087803b15801561171c57600080fd5b505af1158015611730573d6000803e3d6000fd5b505050505b611747670de0b6b3a76400008c612647565b9a506611c37937e080008b11156118f5576040805160028082526060820183526000926020830190803683370190505090508c8160008151811061178d5761178d61241d565b60200260200101906001600160a01b031690816001600160a01b0316815250507f0000000000000000000000000000000000000000000000000000000000000000816001815181106117e1576117e161241d565b60200260200101906001600160a01b031690816001600160a01b03168152505061182c8d7f00000000000000000000000000000000000000000000000000000000000000008e611a78565b6040516338ed173960e01b81526001600160a01b037f000000000000000000000000000000000000000000000000000000000000000016906338ed173990611880908f908d9086903090429060040161265b565b6000604051808303816000875af115801561189f573d6000803e3d6000fd5b505050506040513d6000823e601f3d908101601f191682016040526118c791908101906124ac565b600182516118d591906123a7565b815181106118e5576118e561241d565b602002602001015195505061196e565b8a1561196e5760405163a9059cbb60e01b8152336004820152602481018c90526001600160a01b038d169063a9059cbb906044016020604051808303816000875af1158015611948573d6000803e3d6000fd5b505050506040513d601f19601f8201168201806040525081019061196c9190612175565b505b606089156119f157815167ffffffffffffffff81111561199057611990612407565b6040519080825280602002602001820160405280156119b9578160200160208202803683370190505b50905060005b82518110156119ef5760018282815181106119dc576119dc61241d565b60209081029190910101526001016119bf565b505b604051630cb343fd60e31b81526001600160a01b0389169063659a1fe890611a23908590859033903090600401612697565b6020604051808303816000875af1158015611a42573d6000803e3d6000fd5b505050506040513d601f19601f82011682018060405250810190611a66919061215c565b96505050505050955095509592505050565b604051636eb1769f60e11b81523060048201526001600160a01b0383811660248301526000919085169063dd62ed3e90604401602060405180830381865afa158015611ac8573d6000803e3d6000fd5b505050506040513d601f19601f82011682018060405250810190611aec919061215c565b905080821115611b6c5760405163095ea7b360e01b81526001600160a01b038481166004830152600019602483015285169063095ea7b3906044016020604051808303816000875af1158015611b46573d6000803e3d6000fd5b505050506040513d601f19601f82011682018060405250810190611b6a9190612175565b505b50505050565b8051604114611b9457604051634be6321b60e01b815260040160405180910390fd5b60208101516040808301516060840151915163d505accf60e01b815233600482015230602482015260448101869052600f60fc1b606482015260009290921a6084830181905260a4830184905260c4830182905290916001600160a01b0387169063d505accf9060e401600060405180830381600087803b158015611c1857600080fd5b505af1158015611c2c573d6000803e3d6000fd5b50505050505050505050565b6040516323b872dd60e01b81523360048201526001600160a01b03841660248201819052604482018490526000918291906323b872dd906064016020604051808303816000875af1158015611c91573d6000803e3d6000fd5b505050506040513d601f19601f82011682018060405250810190611cb59190612175565b5060405163226bf2d160e21b815230600482015260009081906001600160a01b038816906389afcb449060240160408051808303816000875af1158015611d00573d6000803e3d6000fd5b505050506040513d601f19601f82011682018060405250810190611d2491906126e1565b90925090506001600160a01b037f000000000000000000000000000000000000000000000000000000000000000081169086161080611d64578183611d67565b82825b90999098509650505050505050565b600080546001600160a01b038381167fffffffffffffffffffffffff0000000000000000000000000000000000000000831681178455604051919092169283917f8be0079c531659141344cd1fd0a4f28419497f9722a3daafe3b4186f6b6457e09190a35050565b6000611e33826040518060400160405280602081526020017f5361666545524332303a206c6f772d6c6576656c2063616c6c206661696c6564815250856001600160a01b0316611ec39092919063ffffffff16565b8051909150156113605780806020019051810190611e519190612175565b6113605760405162461bcd60e51b815260206004820152602a60248201527f5361666545524332303a204552433230206f7065726174696f6e20646964206e60448201527f6f7420737563636565640000000000000000000000000000000000000000000060648201526084016103ae565b6060611ed28484600085611edc565b90505b9392505050565b606082471015611f545760405162461bcd60e51b815260206004820152602660248201527f416464726573733a20696e73756666696369656e742062616c616e636520666f60448201527f722063616c6c000000000000000000000000000000000000000000000000000060648201526084016103ae565b6001600160a01b0385163b611fab5760405162461bcd60e51b815260206004820152601d60248201527f416464726573733a2063616c6c20746f206e6f6e2d636f6e747261637400000060448201526064016103ae565b600080866001600160a01b03168587604051611fc791906125f8565b60006040518083038185875af1925050503d8060008114612004576040519150601f19603f3d011682016040523d82523d6000602084013e612009565b606091505b5091509150612019828286612024565b979650505050505050565b60608315612033575081611ed5565b8251156120435782518084602001fd5b8160405162461bcd60e51b81526004016103ae9190612614565b6001600160a01b038116811461045657600080fd5b60006020828403121561208457600080fd5b8135611ed58161205d565b801515811461045657600080fd5b600080600080600060a086880312156120b557600080fd5b85356120c08161205d565b94506020860135935060408601356120d78161208f565b94979396509394606081013594506080013592915050565b60006020828403121561210157600080fd5b813567ffffffffffffffff81111561211857600080fd5b82016101a08185031215611ed557600080fd5b600080600080600060a0868803121561214357600080fd5b853594506020860135935060408601356120d78161208f565b60006020828403121561216e57600080fd5b5051919050565b60006020828403121561218757600080fd5b8151611ed58161208f565b6000808335601e198436030181126121a957600080fd5b83018035915067ffffffffffffffff8211156121c457600080fd5b6020019150368190038213156121d957600080fd5b9250929050565b6000602082840312156121f257600080fd5b8135611ed58161208f565b634e487b7160e01b600052601160045260246000fd5b60008219821115612226576122266121fd565b500190565b60006020828403121561223d57600080fd5b813562ffffff81168114611ed557600080fd5b60006020828403121561226257600080fd5b8151611ed58161205d565b60006020828403121561227f57600080fd5b81358060020b8114611ed557600080fd5b81516001600160a01b03168152610160810160208301516122bc60208401826001600160a01b03169052565b5060408301516122d3604084018262ffffff169052565b5060608301516122e8606084018260020b9052565b5060808301516122fd608084018260020b9052565b5060a083015160a083015260c083015160c083015260e083015160e083015261010080840151818401525061012080840151612343828501826001600160a01b03169052565b505061014092830151919092015290565b6000806000806080858703121561236a57600080fd5b8451935060208501516fffffffffffffffffffffffffffffffff8116811461239157600080fd5b6040860151606090960151949790965092505050565b6000828210156123b9576123b96121fd565b500390565b634e487b7160e01b600052601260045260246000fd5b6000826123e3576123e36123be565b500490565b6000816000190483118215151615612402576124026121fd565b500290565b634e487b7160e01b600052604160045260246000fd5b634e487b7160e01b600052603260045260246000fd5b600081518084526020808501945080840160005b8381101561246c5781516001600160a01b031687529582019590820190600101612447565b509495945050505050565b8481526080602082015260006124906080830186612433565b6001600160a01b03949094166040830152506060015292915050565b600060208083850312156124bf57600080fd5b825167ffffffffffffffff808211156124d757600080fd5b818501915085601f8301126124eb57600080fd5b8151818111156124fd576124fd612407565b8060051b604051601f19603f8301168101818110858211171561252257612522612407565b60405291825284820192508381018501918883111561254057600080fd5b938501935b8285101561255e57845184529385019392850192612545565b98975050505050505050565b600081518084526020808501945080840160005b8381101561246c5781518752958201959082019060010161257e565b8381526060602082015260006125b3606083018561256a565b90506001600160a01b0383166040830152949350505050565b60005b838110156125e75781810151838201526020016125cf565b83811115611b6c5750506000910152565b6000825161260a8184602087016125cc565b9190910192915050565b60208152600082518060208401526126338160408501602087016125cc565b601f01601f19169190910160400192915050565b600082612656576126566123be565b500690565b85815284602082015260a06040820152600061267a60a0830186612433565b6001600160a01b0394909416606083015250608001529392505050565b6080815260006126aa608083018761256a565b82810360208401526126bc818761256a565b9150506001600160a01b03808516604084015280841660608401525095945050505050565b600080604083850312156126f457600080fd5b50508051602090910151909290915056fea164736f6c634300080f000a",
  "devdoc": {
    "author": "@apoorvlathey",
    "details": "This Zap must be excluded from vault fees in both NFTX v2 & v3.",
    "kind": "dev",
    "methods": {
      "owner()": {
        "details": "Returns the address of the current owner."
      },
      "renounceOwnership()": {
        "details": "Leaves the contract without owner. It will not be possible to call `onlyOwner` functions anymore. Can only be called by the current owner. NOTE: Renouncing ownership will leave the contract without an owner, thereby removing any functionality that is only available to the owner."
      },
      "transferOwnership(address)": {
        "details": "Transfers ownership of the contract to a new account (`newOwner`). Can only be called by the current owner."
      },
      "v2InventoryToXNFT(uint256,uint256,bool,uint256,uint256)": {
        "details": "Must give xToken approval before calling this function"
      },
      "v2VaultToXNFT(address,uint256,bool,uint256,uint256)": {
        "details": "Must give v2 VToken approval before calling this function"
      }
    },
    "title": "NFTX Migrator Zap",
    "version": 1
  },
  "userdoc": {
    "kind": "user",
    "methods": {
      "sushiToNFTXAMM((address,uint256,address,bool,bytes,uint256,int24,int24,uint24,uint160,uint256,uint256,uint256))": {
        "notice": "Migrates liquidity from Sushiswap to NFTX AMM"
      },
      "v2InventoryToXNFT(uint256,uint256,bool,uint256,uint256)": {
        "notice": "Move vTokens from v2 Inventory to v3 Inventory (minting xNFT)"
      },
      "v2VaultToXNFT(address,uint256,bool,uint256,uint256)": {
        "notice": "Move v2 vTokens to v3 Inventory (minting xNFT)"
      }
    },
    "notice": "Migrates positions from NFTX v2 to v3",
    "version": 1
  },
  "storageLayout": {
    "storage": [
      {
        "astId": 3093,
        "contract": "src/zaps/MigratorZap.sol:MigratorZap",
        "label": "_owner",
        "offset": 0,
        "slot": "0",
        "type": "t_address"
      }
    ],
    "types": {
      "t_address": {
        "encoding": "inplace",
        "label": "address",
        "numberOfBytes": "20"
      }
    }
  }
}