{
  "address": "0x4Bdd4433215360110C7268ED5a62DE43AdE4066e",
  "abi": [
    {
      "inputs": [
        {
          "internalType": "contract IWETH9",
          "name": "WETH_",
          "type": "address"
        }
      ],
      "stateMutability": "nonpayable",
      "type": "constructor"
    },
    {
      "inputs": [],
      "name": "AmountExceedsMaxFlashLoan",
      "type": "error"
    },
    {
      "inputs": [],
      "name": "ApproveFromZeroAddress",
      "type": "error"
    },
    {
      "inputs": [],
      "name": "ApproveToZeroAddress",
      "type": "error"
    },
    {
      "inputs": [],
      "name": "BurnAmountExceedsBalance",
      "type": "error"
    },
    {
      "inputs": [],
      "name": "BurnFromZeroAddress",
      "type": "error"
    },
    {
      "inputs": [],
      "name": "CallerIsNotTheOwner",
      "type": "error"
    },
    {
      "inputs": [],
      "name": "CantRescueAssetToken",
      "type": "error"
    },
    {
      "inputs": [],
      "name": "DecreasedAllowanceBelowZero",
      "type": "error"
    },
    {
      "inputs": [],
      "name": "ETHSent",
      "type": "error"
    },
    {
      "inputs": [],
      "name": "EligibilityAlreadySet",
      "type": "error"
    },
    {
      "inputs": [],
      "name": "HoldingsUpdationFailed",
      "type": "error"
    },
    {
      "inputs": [],
      "name": "IdNotFound",
      "type": "error"
    },
    {
      "inputs": [],
      "name": "InsufficientAllowance",
      "type": "error"
    },
    {
      "inputs": [],
      "name": "InsufficientETHSent",
      "type": "error"
    },
    {
      "inputs": [],
      "name": "InvalidReturnValue",
      "type": "error"
    },
    {
      "inputs": [],
      "name": "InvalidToken",
      "type": "error"
    },
    {
      "inputs": [],
      "name": "MintToZeroAddress",
      "type": "error"
    },
    {
      "inputs": [],
      "name": "MintingDisabled",
      "type": "error"
    },
    {
      "inputs": [],
      "name": "NFTAlreadyOwned",
      "type": "error"
    },
    {
      "inputs": [],
      "name": "NewOwnerIsZeroAddress",
      "type": "error"
    },
    {
      "inputs": [],
      "name": "NotEligible",
      "type": "error"
    },
    {
      "inputs": [],
      "name": "NotManager",
      "type": "error"
    },
    {
      "inputs": [],
      "name": "NotNFTOwner",
      "type": "error"
    },
    {
      "inputs": [],
      "name": "NotOwner",
      "type": "error"
    },
    {
      "inputs": [],
      "name": "Paused",
      "type": "error"
    },
    {
      "inputs": [],
      "name": "PremiumLimitExceeded",
      "type": "error"
    },
    {
      "inputs": [],
      "name": "RedeemDisabled",
      "type": "error"
    },
    {
      "inputs": [],
      "name": "SwapDisabled",
      "type": "error"
    },
    {
      "inputs": [],
      "name": "TokenLengthMismatch",
      "type": "error"
    },
    {
      "inputs": [],
      "name": "TooManyItems",
      "type": "error"
    },
    {
      "inputs": [],
      "name": "TransferAmountExceedsBalance",
      "type": "error"
    },
    {
      "inputs": [],
      "name": "TransferAmountIsZero",
      "type": "error"
    },
    {
      "inputs": [],
      "name": "TransferFromZeroAddress",
      "type": "error"
    },
    {
      "inputs": [],
      "name": "TransferToZeroAddress",
      "type": "error"
    },
    {
      "inputs": [],
      "name": "UnableToSendETH",
      "type": "error"
    },
    {
      "inputs": [],
      "name": "WrongToken",
      "type": "error"
    },
    {
      "inputs": [],
      "name": "ZeroAddress",
      "type": "error"
    },
    {
      "anonymous": false,
      "inputs": [
        {
          "indexed": true,
          "internalType": "address",
          "name": "owner",
          "type": "address"
        },
        {
          "indexed": true,
          "internalType": "address",
          "name": "spender",
          "type": "address"
        },
        {
          "indexed": false,
          "internalType": "uint256",
          "name": "value",
          "type": "uint256"
        }
      ],
      "name": "Approval",
      "type": "event"
    },
    {
      "anonymous": false,
      "inputs": [
        {
          "indexed": false,
          "internalType": "uint256",
          "name": "moduleIndex",
          "type": "uint256"
        },
        {
          "indexed": false,
          "internalType": "address",
          "name": "eligibilityAddr",
          "type": "address"
        }
      ],
      "name": "EligibilityDeployed",
      "type": "event"
    },
    {
      "anonymous": false,
      "inputs": [
        {
          "indexed": false,
          "internalType": "bool",
          "name": "enabled",
          "type": "bool"
        }
      ],
      "name": "EnableMintUpdated",
      "type": "event"
    },
    {
      "anonymous": false,
      "inputs": [
        {
          "indexed": false,
          "internalType": "bool",
          "name": "enabled",
          "type": "bool"
        }
      ],
      "name": "EnableRedeemUpdated",
      "type": "event"
    },
    {
      "anonymous": false,
      "inputs": [
        {
          "indexed": false,
          "internalType": "bool",
          "name": "enabled",
          "type": "bool"
        }
      ],
      "name": "EnableSwapUpdated",
      "type": "event"
    },
    {
      "anonymous": false,
      "inputs": [
        {
          "indexed": false,
          "internalType": "uint256",
          "name": "wethFees",
          "type": "uint256"
        }
      ],
      "name": "FeesDistributed",
      "type": "event"
    },
    {
      "anonymous": false,
      "inputs": [
        {
          "indexed": false,
          "internalType": "uint8",
          "name": "version",
          "type": "uint8"
        }
      ],
      "name": "Initialized",
      "type": "event"
    },
    {
      "anonymous": false,
      "inputs": [
        {
          "indexed": false,
          "internalType": "address",
          "name": "manager",
          "type": "address"
        }
      ],
      "name": "ManagerSet",
      "type": "event"
    },
    {
      "anonymous": false,
      "inputs": [
        {
          "indexed": false,
          "internalType": "string",
          "name": "name",
          "type": "string"
        },
        {
          "indexed": false,
          "internalType": "string",
          "name": "symbol",
          "type": "string"
        }
      ],
      "name": "MetadataUpdated",
      "type": "event"
    },
    {
      "anonymous": false,
      "inputs": [
        {
          "indexed": false,
          "internalType": "uint256[]",
          "name": "nftIds",
          "type": "uint256[]"
        },
        {
          "indexed": false,
          "internalType": "uint256[]",
          "name": "amounts",
          "type": "uint256[]"
        },
        {
          "indexed": false,
          "internalType": "address",
          "name": "to",
          "type": "address"
        },
        {
          "indexed": false,
          "internalType": "address",
          "name": "depositor",
          "type": "address"
        }
      ],
      "name": "Minted",
      "type": "event"
    },
    {
      "anonymous": false,
      "inputs": [
        {
          "indexed": true,
          "internalType": "address",
          "name": "previousOwner",
          "type": "address"
        },
        {
          "indexed": true,
          "internalType": "address",
          "name": "newOwner",
          "type": "address"
        }
      ],
      "name": "OwnershipTransferred",
      "type": "event"
    },
    {
      "anonymous": false,
      "inputs": [
        {
          "indexed": false,
          "internalType": "address",
          "name": "depositor",
          "type": "address"
        },
        {
          "indexed": false,
          "internalType": "uint256",
          "name": "wethPremium",
          "type": "uint256"
        }
      ],
      "name": "PremiumShared",
      "type": "event"
    },
    {
      "anonymous": false,
      "inputs": [
        {
          "indexed": false,
          "internalType": "uint256[]",
          "name": "specificIds",
          "type": "uint256[]"
        },
        {
          "indexed": false,
          "internalType": "address",
          "name": "to",
          "type": "address"
        }
      ],
      "name": "Redeemed",
      "type": "event"
    },
    {
      "anonymous": false,
      "inputs": [
        {
          "indexed": false,
          "internalType": "uint256[]",
          "name": "nftIds",
          "type": "uint256[]"
        },
        {
          "indexed": false,
          "internalType": "uint256[]",
          "name": "amounts",
          "type": "uint256[]"
        },
        {
          "indexed": false,
          "internalType": "uint256[]",
          "name": "specificIds",
          "type": "uint256[]"
        },
        {
          "indexed": false,
          "internalType": "address",
          "name": "to",
          "type": "address"
        },
        {
          "indexed": false,
          "internalType": "address",
          "name": "depositor",
          "type": "address"
        }
      ],
      "name": "Swapped",
      "type": "event"
    },
    {
      "anonymous": false,
      "inputs": [
        {
          "indexed": true,
          "internalType": "address",
          "name": "from",
          "type": "address"
        },
        {
          "indexed": true,
          "internalType": "address",
          "name": "to",
          "type": "address"
        },
        {
          "indexed": false,
          "internalType": "uint256",
          "name": "value",
          "type": "uint256"
        }
      ],
      "name": "Transfer",
      "type": "event"
    },
    {
      "anonymous": false,
      "inputs": [
        {
          "indexed": true,
          "internalType": "uint256",
          "name": "vaultId",
          "type": "uint256"
        },
        {
          "indexed": false,
          "internalType": "address",
          "name": "assetAddress",
          "type": "address"
        },
        {
          "indexed": false,
          "internalType": "bool",
          "name": "is1155",
          "type": "bool"
        },
        {
          "indexed": false,
          "internalType": "bool",
          "name": "allowAllItems",
          "type": "bool"
        }
      ],
      "name": "VaultInit",
      "type": "event"
    },
    {
      "anonymous": false,
      "inputs": [
        {
          "indexed": false,
          "internalType": "address",
          "name": "assetAddress",
          "type": "address"
        },
        {
          "indexed": false,
          "internalType": "uint256",
          "name": "numItems",
          "type": "uint256"
        },
        {
          "indexed": false,
          "internalType": "address",
          "name": "recipient",
          "type": "address"
        }
      ],
      "name": "VaultShutdown",
      "type": "event"
    },
    {
      "inputs": [],
      "name": "WETH",
      "outputs": [
        {
          "internalType": "contract IWETH9",
          "name": "",
          "type": "address"
        }
      ],
      "stateMutability": "view",
      "type": "function"
    },
    {
      "inputs": [
        {
          "internalType": "string",
          "name": "name_",
          "type": "string"
        },
        {
          "internalType": "string",
          "name": "symbol_",
          "type": "string"
        },
        {
          "internalType": "address",
          "name": "assetAddress_",
          "type": "address"
        },
        {
          "internalType": "bool",
          "name": "is1155_",
          "type": "bool"
        },
        {
          "internalType": "bool",
          "name": "allowAllItems_",
          "type": "bool"
        }
      ],
      "name": "__NFTXVault_init",
      "outputs": [],
      "stateMutability": "nonpayable",
      "type": "function"
    },
    {
      "inputs": [],
      "name": "allHoldings",
      "outputs": [
        {
          "internalType": "uint256[]",
          "name": "",
          "type": "uint256[]"
        }
      ],
      "stateMutability": "view",
      "type": "function"
    },
    {
      "inputs": [
        {
          "internalType": "uint256[]",
          "name": "tokenIds",
          "type": "uint256[]"
        }
      ],
      "name": "allValidNFTs",
      "outputs": [
        {
          "internalType": "bool",
          "name": "",
          "type": "bool"
        }
      ],
      "stateMutability": "view",
      "type": "function"
    },
    {
      "inputs": [],
      "name": "allowAllItems",
      "outputs": [
        {
          "internalType": "bool",
          "name": "",
          "type": "bool"
        }
      ],
      "stateMutability": "view",
      "type": "function"
    },
    {
      "inputs": [
        {
          "internalType": "address",
          "name": "owner",
          "type": "address"
        },
        {
          "internalType": "address",
          "name": "spender",
          "type": "address"
        }
      ],
      "name": "allowance",
      "outputs": [
        {
          "internalType": "uint256",
          "name": "",
          "type": "uint256"
        }
      ],
      "stateMutability": "view",
      "type": "function"
    },
    {
      "inputs": [
        {
          "internalType": "address",
          "name": "spender",
          "type": "address"
        },
        {
          "internalType": "uint256",
          "name": "amount",
          "type": "uint256"
        }
      ],
      "name": "approve",
      "outputs": [
        {
          "internalType": "bool",
          "name": "",
          "type": "bool"
        }
      ],
      "stateMutability": "nonpayable",
      "type": "function"
    },
    {
      "inputs": [],
      "name": "assetAddress",
      "outputs": [
        {
          "internalType": "address",
          "name": "",
          "type": "address"
        }
      ],
      "stateMutability": "view",
      "type": "function"
    },
    {
      "inputs": [
        {
          "internalType": "address",
          "name": "account",
          "type": "address"
        }
      ],
      "name": "balanceOf",
      "outputs": [
        {
          "internalType": "uint256",
          "name": "",
          "type": "uint256"
        }
      ],
      "stateMutability": "view",
      "type": "function"
    },
    {
      "inputs": [],
      "name": "decimals",
      "outputs": [
        {
          "internalType": "uint8",
          "name": "",
          "type": "uint8"
        }
      ],
      "stateMutability": "view",
      "type": "function"
    },
    {
      "inputs": [
        {
          "internalType": "address",
          "name": "spender",
          "type": "address"
        },
        {
          "internalType": "uint256",
          "name": "subtractedValue",
          "type": "uint256"
        }
      ],
      "name": "decreaseAllowance",
      "outputs": [
        {
          "internalType": "bool",
          "name": "",
          "type": "bool"
        }
      ],
      "stateMutability": "nonpayable",
      "type": "function"
    },
    {
      "inputs": [
        {
          "internalType": "uint256",
          "name": "moduleIndex",
          "type": "uint256"
        },
        {
          "internalType": "bytes",
          "name": "initData",
          "type": "bytes"
        }
      ],
      "name": "deployEligibilityStorage",
      "outputs": [
        {
          "internalType": "address",
          "name": "",
          "type": "address"
        }
      ],
      "stateMutability": "nonpayable",
      "type": "function"
    },
    {
      "inputs": [
        {
          "internalType": "uint256",
          "name": "",
          "type": "uint256"
        },
        {
          "internalType": "uint256",
          "name": "",
          "type": "uint256"
        }
      ],
      "name": "depositInfo1155",
      "outputs": [
        {
          "internalType": "uint256",
          "name": "qty",
          "type": "uint256"
        },
        {
          "internalType": "address",
          "name": "depositor",
          "type": "address"
        },
        {
          "internalType": "uint48",
          "name": "timestamp",
          "type": "uint48"
        }
      ],
      "stateMutability": "view",
      "type": "function"
    },
    {
      "inputs": [
        {
          "internalType": "uint256",
          "name": "tokenId",
          "type": "uint256"
        }
      ],
      "name": "depositInfo1155Length",
      "outputs": [
        {
          "internalType": "uint256",
          "name": "",
          "type": "uint256"
        }
      ],
      "stateMutability": "view",
      "type": "function"
    },
    {
      "inputs": [],
      "name": "disableVaultFees",
      "outputs": [],
      "stateMutability": "nonpayable",
      "type": "function"
    },
    {
      "inputs": [],
      "name": "eligibilityStorage",
      "outputs": [
        {
          "internalType": "contract INFTXEligibility",
          "name": "",
          "type": "address"
        }
      ],
      "stateMutability": "view",
      "type": "function"
    },
    {
      "inputs": [],
      "name": "enableMint",
      "outputs": [
        {
          "internalType": "bool",
          "name": "",
          "type": "bool"
        }
      ],
      "stateMutability": "view",
      "type": "function"
    },
    {
      "inputs": [],
      "name": "enableRedeem",
      "outputs": [
        {
          "internalType": "bool",
          "name": "",
          "type": "bool"
        }
      ],
      "stateMutability": "view",
      "type": "function"
    },
    {
      "inputs": [],
      "name": "enableSwap",
      "outputs": [
        {
          "internalType": "bool",
          "name": "",
          "type": "bool"
        }
      ],
      "stateMutability": "view",
      "type": "function"
    },
    {
      "inputs": [],
      "name": "finalizeVault",
      "outputs": [],
      "stateMutability": "nonpayable",
      "type": "function"
    },
    {
      "inputs": [
        {
          "internalType": "address",
          "name": "token",
          "type": "address"
        },
        {
          "internalType": "uint256",
          "name": "amount",
          "type": "uint256"
        }
      ],
      "name": "flashFee",
      "outputs": [
        {
          "internalType": "uint256",
          "name": "",
          "type": "uint256"
        }
      ],
      "stateMutability": "view",
      "type": "function"
    },
    {
      "inputs": [
        {
          "internalType": "contract IERC3156FlashBorrowerUpgradeable",
          "name": "receiver",
          "type": "address"
        },
        {
          "internalType": "address",
          "name": "token",
          "type": "address"
        },
        {
          "internalType": "uint256",
          "name": "amount",
          "type": "uint256"
        },
        {
          "internalType": "bytes",
          "name": "data",
          "type": "bytes"
        }
      ],
      "name": "flashLoan",
      "outputs": [
        {
          "internalType": "bool",
          "name": "",
          "type": "bool"
        }
      ],
      "stateMutability": "nonpayable",
      "type": "function"
    },
    {
      "inputs": [
        {
          "internalType": "uint256",
          "name": "tokenId",
          "type": "uint256"
        }
      ],
      "name": "holdingsContains",
      "outputs": [
        {
          "internalType": "bool",
          "name": "",
          "type": "bool"
        }
      ],
      "stateMutability": "view",
      "type": "function"
    },
    {
      "inputs": [
        {
          "internalType": "address",
          "name": "spender",
          "type": "address"
        },
        {
          "internalType": "uint256",
          "name": "addedValue",
          "type": "uint256"
        }
      ],
      "name": "increaseAllowance",
      "outputs": [
        {
          "internalType": "bool",
          "name": "",
          "type": "bool"
        }
      ],
      "stateMutability": "nonpayable",
      "type": "function"
    },
    {
      "inputs": [],
      "name": "is1155",
      "outputs": [
        {
          "internalType": "bool",
          "name": "",
          "type": "bool"
        }
      ],
      "stateMutability": "view",
      "type": "function"
    },
    {
      "inputs": [],
      "name": "manager",
      "outputs": [
        {
          "internalType": "address",
          "name": "",
          "type": "address"
        }
      ],
      "stateMutability": "view",
      "type": "function"
    },
    {
      "inputs": [
        {
          "internalType": "address",
          "name": "token",
          "type": "address"
        }
      ],
      "name": "maxFlashLoan",
      "outputs": [
        {
          "internalType": "uint256",
          "name": "",
          "type": "uint256"
        }
      ],
      "stateMutability": "view",
      "type": "function"
    },
    {
      "inputs": [
        {
          "internalType": "uint256[]",
          "name": "tokenIds",
          "type": "uint256[]"
        },
        {
          "internalType": "uint256[]",
          "name": "amounts",
          "type": "uint256[]"
        },
        {
          "internalType": "address",
          "name": "depositor",
          "type": "address"
        },
        {
          "internalType": "address",
          "name": "to",
          "type": "address"
        }
      ],
      "name": "mint",
      "outputs": [
        {
          "internalType": "uint256",
          "name": "vTokensMinted",
          "type": "uint256"
        }
      ],
      "stateMutability": "payable",
      "type": "function"
    },
    {
      "inputs": [],
      "name": "name",
      "outputs": [
        {
          "internalType": "string",
          "name": "",
          "type": "string"
        }
      ],
      "stateMutability": "view",
      "type": "function"
    },
    {
      "inputs": [
        {
          "internalType": "uint256",
          "name": "holdingsIndex",
          "type": "uint256"
        }
      ],
      "name": "nftIdAt",
      "outputs": [
        {
          "internalType": "uint256",
          "name": "",
          "type": "uint256"
        }
      ],
      "stateMutability": "view",
      "type": "function"
    },
    {
      "inputs": [
        {
          "internalType": "address",
          "name": "",
          "type": "address"
        },
        {
          "internalType": "address",
          "name": "",
          "type": "address"
        },
        {
          "internalType": "uint256[]",
          "name": "",
          "type": "uint256[]"
        },
        {
          "internalType": "uint256[]",
          "name": "",
          "type": "uint256[]"
        },
        {
          "internalType": "bytes",
          "name": "",
          "type": "bytes"
        }
      ],
      "name": "onERC1155BatchReceived",
      "outputs": [
        {
          "internalType": "bytes4",
          "name": "",
          "type": "bytes4"
        }
      ],
      "stateMutability": "nonpayable",
      "type": "function"
    },
    {
      "inputs": [
        {
          "internalType": "address",
          "name": "",
          "type": "address"
        },
        {
          "internalType": "address",
          "name": "",
          "type": "address"
        },
        {
          "internalType": "uint256",
          "name": "",
          "type": "uint256"
        },
        {
          "internalType": "uint256",
          "name": "",
          "type": "uint256"
        },
        {
          "internalType": "bytes",
          "name": "",
          "type": "bytes"
        }
      ],
      "name": "onERC1155Received",
      "outputs": [
        {
          "internalType": "bytes4",
          "name": "",
          "type": "bytes4"
        }
      ],
      "stateMutability": "nonpayable",
      "type": "function"
    },
    {
      "inputs": [
        {
          "internalType": "address",
          "name": "",
          "type": "address"
        },
        {
          "internalType": "address",
          "name": "",
          "type": "address"
        },
        {
          "internalType": "uint256",
          "name": "",
          "type": "uint256"
        },
        {
          "internalType": "bytes",
          "name": "",
          "type": "bytes"
        }
      ],
      "name": "onERC721Received",
      "outputs": [
        {
          "internalType": "bytes4",
          "name": "",
          "type": "bytes4"
        }
      ],
      "stateMutability": "nonpayable",
      "type": "function"
    },
    {
      "inputs": [],
      "name": "owner",
      "outputs": [
        {
          "internalType": "address",
          "name": "",
          "type": "address"
        }
      ],
      "stateMutability": "view",
      "type": "function"
    },
    {
      "inputs": [
        {
          "internalType": "uint256",
          "name": "",
          "type": "uint256"
        }
      ],
      "name": "pointerIndex1155",
      "outputs": [
        {
          "internalType": "uint256",
          "name": "",
          "type": "uint256"
        }
      ],
      "stateMutability": "view",
      "type": "function"
    },
    {
      "inputs": [
        {
          "internalType": "uint256[]",
          "name": "idsOut",
          "type": "uint256[]"
        },
        {
          "internalType": "address",
          "name": "to",
          "type": "address"
        },
        {
          "internalType": "uint256",
          "name": "wethAmount",
          "type": "uint256"
        },
        {
          "internalType": "uint256",
          "name": "vTokenPremiumLimit",
          "type": "uint256"
        },
        {
          "internalType": "bool",
          "name": "forceFees",
          "type": "bool"
        }
      ],
      "name": "redeem",
      "outputs": [
        {
          "internalType": "uint256",
          "name": "ethFees",
          "type": "uint256"
        }
      ],
      "stateMutability": "payable",
      "type": "function"
    },
    {
      "inputs": [],
      "name": "renounceOwnership",
      "outputs": [],
      "stateMutability": "nonpayable",
      "type": "function"
    },
    {
      "inputs": [
        {
          "internalType": "enum INFTXVaultV3.TokenType",
          "name": "tt",
          "type": "uint8"
        },
        {
          "internalType": "address",
          "name": "token",
          "type": "address"
        },
        {
          "internalType": "uint256[]",
          "name": "ids",
          "type": "uint256[]"
        },
        {
          "internalType": "uint256[]",
          "name": "amounts",
          "type": "uint256[]"
        }
      ],
      "name": "rescueTokens",
      "outputs": [],
      "stateMutability": "nonpayable",
      "type": "function"
    },
    {
      "inputs": [
        {
          "internalType": "uint256",
          "name": "mintFee_",
          "type": "uint256"
        },
        {
          "internalType": "uint256",
          "name": "redeemFee_",
          "type": "uint256"
        },
        {
          "internalType": "uint256",
          "name": "swapFee_",
          "type": "uint256"
        }
      ],
      "name": "setFees",
      "outputs": [],
      "stateMutability": "nonpayable",
      "type": "function"
    },
    {
      "inputs": [
        {
          "internalType": "address",
          "name": "manager_",
          "type": "address"
        }
      ],
      "name": "setManager",
      "outputs": [],
      "stateMutability": "nonpayable",
      "type": "function"
    },
    {
      "inputs": [
        {
          "internalType": "bool",
          "name": "enableMint_",
          "type": "bool"
        },
        {
          "internalType": "bool",
          "name": "enableRedeem_",
          "type": "bool"
        },
        {
          "internalType": "bool",
          "name": "enableSwap_",
          "type": "bool"
        }
      ],
      "name": "setVaultFeatures",
      "outputs": [],
      "stateMutability": "nonpayable",
      "type": "function"
    },
    {
      "inputs": [
        {
          "internalType": "string",
          "name": "name_",
          "type": "string"
        },
        {
          "internalType": "string",
          "name": "symbol_",
          "type": "string"
        }
      ],
      "name": "setVaultMetadata",
      "outputs": [],
      "stateMutability": "nonpayable",
      "type": "function"
    },
    {
      "inputs": [
        {
          "internalType": "address",
          "name": "recipient",
          "type": "address"
        },
        {
          "internalType": "uint256[]",
          "name": "tokenIds",
          "type": "uint256[]"
        }
      ],
      "name": "shutdown",
      "outputs": [],
      "stateMutability": "nonpayable",
      "type": "function"
    },
    {
      "inputs": [
        {
          "internalType": "bytes4",
          "name": "interfaceId",
          "type": "bytes4"
        }
      ],
      "name": "supportsInterface",
      "outputs": [
        {
          "internalType": "bool",
          "name": "",
          "type": "bool"
        }
      ],
      "stateMutability": "view",
      "type": "function"
    },
    {
      "inputs": [
        {
          "internalType": "uint256[]",
          "name": "idsIn",
          "type": "uint256[]"
        },
        {
          "internalType": "uint256[]",
          "name": "amounts",
          "type": "uint256[]"
        },
        {
          "internalType": "uint256[]",
          "name": "idsOut",
          "type": "uint256[]"
        },
        {
          "internalType": "address",
          "name": "depositor",
          "type": "address"
        },
        {
          "internalType": "address",
          "name": "to",
          "type": "address"
        },
        {
          "internalType": "uint256",
          "name": "vTokenPremiumLimit",
          "type": "uint256"
        },
        {
          "internalType": "bool",
          "name": "forceFees",
          "type": "bool"
        }
      ],
      "name": "swap",
      "outputs": [
        {
          "internalType": "uint256",
          "name": "ethFees",
          "type": "uint256"
        }
      ],
      "stateMutability": "payable",
      "type": "function"
    },
    {
      "inputs": [],
      "name": "symbol",
      "outputs": [
        {
          "internalType": "string",
          "name": "",
          "type": "string"
        }
      ],
      "stateMutability": "view",
      "type": "function"
    },
    {
      "inputs": [
        {
          "internalType": "uint256",
          "name": "",
          "type": "uint256"
        }
      ],
      "name": "tokenDepositInfo",
      "outputs": [
        {
          "internalType": "uint48",
          "name": "timestamp",
          "type": "uint48"
        },
        {
          "internalType": "address",
          "name": "depositor",
          "type": "address"
        }
      ],
      "stateMutability": "view",
      "type": "function"
    },
    {
      "inputs": [],
      "name": "totalHoldings",
      "outputs": [
        {
          "internalType": "uint256",
          "name": "",
          "type": "uint256"
        }
      ],
      "stateMutability": "view",
      "type": "function"
    },
    {
      "inputs": [],
      "name": "totalSupply",
      "outputs": [
        {
          "internalType": "uint256",
          "name": "",
          "type": "uint256"
        }
      ],
      "stateMutability": "view",
      "type": "function"
    },
    {
      "inputs": [
        {
          "internalType": "address",
          "name": "to",
          "type": "address"
        },
        {
          "internalType": "uint256",
          "name": "amount",
          "type": "uint256"
        }
      ],
      "name": "transfer",
      "outputs": [
        {
          "internalType": "bool",
          "name": "",
          "type": "bool"
        }
      ],
      "stateMutability": "nonpayable",
      "type": "function"
    },
    {
      "inputs": [
        {
          "internalType": "address",
          "name": "from",
          "type": "address"
        },
        {
          "internalType": "address",
          "name": "to",
          "type": "address"
        },
        {
          "internalType": "uint256",
          "name": "amount",
          "type": "uint256"
        }
      ],
      "name": "transferFrom",
      "outputs": [
        {
          "internalType": "bool",
          "name": "",
          "type": "bool"
        }
      ],
      "stateMutability": "nonpayable",
      "type": "function"
    },
    {
      "inputs": [
        {
          "internalType": "address",
          "name": "newOwner",
          "type": "address"
        }
      ],
      "name": "transferOwnership",
      "outputs": [],
      "stateMutability": "nonpayable",
      "type": "function"
    },
    {
      "inputs": [],
      "name": "updateDelegate",
      "outputs": [],
      "stateMutability": "nonpayable",
      "type": "function"
    },
    {
      "inputs": [
        {
          "internalType": "uint256",
          "name": "vTokenAmount",
          "type": "uint256"
        }
      ],
      "name": "vTokenToETH",
      "outputs": [
        {
          "internalType": "uint256",
          "name": "ethAmount",
          "type": "uint256"
        }
      ],
      "stateMutability": "view",
      "type": "function"
    },
    {
      "inputs": [],
      "name": "vaultFactory",
      "outputs": [
        {
          "internalType": "contract INFTXVaultFactoryV3",
          "name": "",
          "type": "address"
        }
      ],
      "stateMutability": "view",
      "type": "function"
    },
    {
      "inputs": [],
      "name": "vaultFees",
      "outputs": [
        {
          "internalType": "uint256",
          "name": "mintFee",
          "type": "uint256"
        },
        {
          "internalType": "uint256",
          "name": "redeemFee",
          "type": "uint256"
        },
        {
          "internalType": "uint256",
          "name": "swapFee",
          "type": "uint256"
        }
      ],
      "stateMutability": "view",
      "type": "function"
    },
    {
      "inputs": [],
      "name": "vaultId",
      "outputs": [
        {
          "internalType": "uint256",
          "name": "",
          "type": "uint256"
        }
      ],
      "stateMutability": "view",
      "type": "function"
    },
    {
      "inputs": [],
      "name": "version",
      "outputs": [
        {
          "internalType": "string",
          "name": "",
          "type": "string"
        }
      ],
      "stateMutability": "pure",
      "type": "function"
    }
  ],
  "transactionHash": "0xd04d9bf0b0b5a89c0917e42a3d9fb3ba4a863faf93ace77051fc927d4508c862",
  "args": [
    "0xC02aaA39b223FE8D0A0e5C4F27eAD9083C756Cc2"
  ],
  "numDeployments": 2,
  "solcInputHash": "3e376bbf7a8df358ac1844c5f1edbe9c",
  "bytecode": "0x60a06040523480156200001157600080fd5b5060405162005de138038062005de1833981016040819052620000349162000046565b6001600160a01b031660805262000078565b6000602082840312156200005957600080fd5b81516001600160a01b03811681146200007157600080fd5b9392505050565b608051615d1c620000c56000396000818161098501528181612c8901528181612d2201528181612e0001528181612f6f015281816136f2015281816137870152613d9d0152615d1c6000f3fe6080604052600436106103805760003560e01c80636b948a35116101d1578063b6c958b011610102578063d9d98ce4116100a0578063e9ec2e991161006f578063e9ec2e9914610b42578063f1d20dd414610b57578063f23a6e6114610b77578063f2fde38b14610ba357600080fd5b8063d9d98ce414610a9c578063dd62ed3e14610abc578063e0a8b97a14610b02578063e78458c414610b2257600080fd5b8063c3cb8c14116100dc578063c3cb8c1414610a26578063cec10c1114610a3b578063d0ebdbe714610a5b578063d8a06f7314610a7b57600080fd5b8063b6c958b0146109c7578063b8517b78146109da578063bc197c81146109fa57600080fd5b80639c5155461161016f578063a457c2d711610149578063a457c2d714610933578063a9059cbb14610953578063ad5c464814610973578063af1c5bbd146109a757600080fd5b80639c5155461461089a578063a1db8493146108e5578063a3f1ebea1461091357600080fd5b806372188e3f116101ab57806372188e3f146108165780638da5cb5b146108465780638f878a431461086457806395d89b411461088557600080fd5b80636b948a35146107a957806370a08231146107cb578063715018a61461080157600080fd5b8063313ce567116102b657806354dc4de8116102545780635cffe9de116102235780635cffe9de146107415780636040853514610761578063613255ab14610776578063659a1fe81461079657600080fd5b806354dc4de8146106b257806354f78d7f146106d257806354fd4d50146106f25780635877aee61461072157600080fd5b806341c5c7641161029057806341c5c7641461061c57806344b28d591461064a57806345a0b6521461066c578063481c6a751461068c57600080fd5b8063313ce567146105c957806333194c0a146105e557806339509351146105fc57600080fd5b806318160ddd1161032357806323b872dd116102fd57806323b872dd1461055257806325705d8d146105725780632969144814610594578063296fc49e146105b657600080fd5b806318160ddd1461048957806318499039146104a85780631ba46cfd1461051957600080fd5b806306f26dc21161035f57806306f26dc2146103f357806306fdde031461040e578063095ea7b314610430578063150b7a021461045057600080fd5b80625181611461038557806301ffc9a71461039c578063061873e8146103d1575b600080fd5b34801561039157600080fd5b5061039a610bc3565b005b3480156103a857600080fd5b506103bc6103b7366004614d33565b610c36565b60405190151581526020015b60405180910390f35b3480156103dd57600080fd5b506101c7546103bc90600160b01b900460ff1681565b3480156103ff57600080fd5b506101c6546103bc9060ff1681565b34801561041a57600080fd5b50610423610c6d565b6040516103c89190614db5565b34801561043c57600080fd5b506103bc61044b366004614ddd565b610cff565b34801561045c57600080fd5b5061047061046b366004614ec0565b610d17565b6040516001600160e01b031990911681526020016103c8565b34801561049557600080fd5b506067545b6040519081526020016103c8565b3480156104b457600080fd5b506104f36104c3366004614f2c565b6101cb6020526000908152604090205465ffffffffffff811690660100000000000090046001600160a01b031682565b6040805165ffffffffffff90931683526001600160a01b039091166020830152016103c8565b34801561052557600080fd5b506101c35461053a906001600160a01b031681565b6040516001600160a01b0390911681526020016103c8565b34801561055e57600080fd5b506103bc61056d366004614f45565b610d28565b34801561057e57600080fd5b50610587610d4e565b6040516103c89190614f86565b3480156105a057600080fd5b506101c7546103bc90600160b81b900460ff1681565b61049a6105c436600461502d565b610de9565b3480156105d557600080fd5b50604051601281526020016103c8565b3480156105f157600080fd5b5061049a6101c55481565b34801561060857600080fd5b506103bc610617366004614ddd565b611012565b34801561062857600080fd5b5061049a610637366004614f2c565b60009081526101cc602052604090205490565b34801561065657600080fd5b506101c7546103bc90600160a81b900460ff1681565b34801561067857600080fd5b5061049a610687366004614f2c565b611051565b34801561069857600080fd5b506101c65461053a9061010090046001600160a01b031681565b3480156106be57600080fd5b506103bc6106cd366004614f2c565b61105f565b3480156106de57600080fd5b5061039a6106ed3660046150a9565b61106d565b3480156106fe57600080fd5b50604080518082019091526006815265076332e302e360d41b6020820152610423565b34801561072d57600080fd5b5061053a61073c366004615136565b611158565b34801561074d57600080fd5b506103bc61075c366004615182565b6112e6565b34801561076d57600080fd5b5061039a61130b565b34801561078257600080fd5b5061049a6107913660046151f5565b611422565b61049a6107a4366004615212565b61144a565b3480156107b557600080fd5b506101c7546103bc90600160a01b900460ff1681565b3480156107d757600080fd5b5061049a6107e63660046151f5565b6001600160a01b031660009081526065602052604090205490565b34801561080d57600080fd5b5061039a61153d565b34801561082257600080fd5b5061082b611551565b604080519384526020840192909252908201526060016103c8565b34801561085257600080fd5b506033546001600160a01b031661053a565b34801561087057600080fd5b506101c75461053a906001600160a01b031681565b34801561089157600080fd5b506104236115d4565b3480156108a657600080fd5b506108ba6108b5366004615299565b6115e3565b604080519384526001600160a01b03909216602084015265ffffffffffff16908201526060016103c8565b3480156108f157600080fd5b5061049a610900366004614f2c565b6101cd6020526000908152604090205481565b34801561091f57600080fd5b5061039a61092e3660046152bb565b611639565b34801561093f57600080fd5b506103bc61094e366004614ddd565b611739565b34801561095f57600080fd5b506103bc61096e366004614ddd565b611799565b34801561097f57600080fd5b5061053a7f000000000000000000000000000000000000000000000000000000000000000081565b3480156109b357600080fd5b5061039a6109c2366004615303565b6117a7565b61049a6109d536600461539c565b611947565b3480156109e657600080fd5b5061049a6109f5366004614f2c565b611bd5565b348015610a0657600080fd5b50610470610a153660046154e9565b63bc197c8160e01b95945050505050565b348015610a3257600080fd5b5061039a611bef565b348015610a4757600080fd5b5061039a610a56366004615597565b611c01565b348015610a6757600080fd5b5061039a610a763660046151f5565b611c87565b348015610a8757600080fd5b506101c45461053a906001600160a01b031681565b348015610aa857600080fd5b5061049a610ab7366004614ddd565b611cf9565b348015610ac857600080fd5b5061049a610ad73660046155c3565b6001600160a01b03918216600090815260666020908152604080832093909416825291909152205490565b348015610b0e57600080fd5b5061039a610b1d3660046155fc565b611d2e565b348015610b2e57600080fd5b5061039a610b3d366004615668565b611da9565b348015610b4e57600080fd5b5061049a61216c565b348015610b6357600080fd5b506103bc610b72366004615711565b61217e565b348015610b8357600080fd5b50610470610b92366004615746565b63f23a6e6160e01b95945050505050565b348015610baf57600080fd5b5061039a610bbe3660046151f5565b612224565b610bcb61225c565b6101c4546101c5546040516360c1795960e11b81526001600160a01b039092169163c182f2b291610c029160040190815260200190565b600060405180830381600087803b158015610c1c57600080fd5b505af1158015610c30573d6000803e3d6000fd5b50505050565b60006001600160e01b03198216630271189760e51b1480610c6757506301ffc9a760e01b6001600160e01b03198316145b92915050565b606060688054610c7c906157af565b80601f0160208091040260200160405190810160405280929190818152602001828054610ca8906157af565b8015610cf55780601f10610cca57610100808354040283529160200191610cf5565b820191906000526020600020905b815481529060010190602001808311610cd857829003601f168201915b5050505050905090565b600033610d0d8185856122ce565b5060019392505050565b630a85bd0160e11b5b949350505050565b600033610d3685828561237e565b610d418585856123db565b60019150505b9392505050565b60606000610d5d6101c86124d0565b905060008167ffffffffffffffff811115610d7a57610d7a614e09565b604051908082528060200260200182016040528015610da3578160200160208202803683370190505b50905060005b82811015610de257610dbd6101c8826124da565b828281518110610dcf57610dcf6157e3565b6020908102919091010152600101610da9565b5092915050565b6000610df36124e6565b610dfd600261253f565b6101c754600160b01b900460ff16610e285760405163032aa90b60e41b815260040160405180910390fd5b60008415610e56573415610e4f5760405163203e5c3360e01b815260040160405180910390fd5b5083610e59565b50345b600087610e7733610e7283670de0b6b3a764000061580f565b6125e2565b6000610e81611551565b509150610e909050828261580f565b6101c4549093506001600160a01b03169150600090508580610f1757506040516306df336560e51b81523360048201526001600160a01b0383169063dbe66ca090602401602060405180830381865afa158015610ef1573d6000803e3d6000fd5b505050506040513d601f19601f82011682018060405250810190610f15919061582e565b155b90506000806000610f6b8e8e80806020026020016040519081016040528093929190818152602001838360200280828437600081840152601f19601f820116905080830192505050505050508d86886126a0565b9250925092508315610fac5789831115610f985760405163725214ff60e11b815260040160405180910390fd5b610fa9876000341188868686612b73565b97505b3415610fbc57610fbc3489613083565b7fddf3c6319e89d061b877ebc529b0fd59410499b5bf683cffa46d5807dd13c6008e8e8e604051610fef93929190615881565b60405180910390a150505050505050611008600160c955565b9695505050505050565b3360008181526066602090815260408083206001600160a01b0387168452909152812054909190610d0d908290869061104c9087906158ae565b6122ce565b6000610c676101c8836124da565b6000610c676101c8836130a1565b61107561225c565b6101c7805461ffff60a81b1916600160a81b85151590810260ff60b01b191691909117600160b01b851515021760ff60b81b1916600160b81b84151502179091556040519081527fc604be2f834727754dc1ec1225c14d1ecde48e7d12fa7b745dfb137a3db998bd9060200160405180910390a160405182151581527f9cb1d0c0b8d946b3eb09abb16f0a2546f919a9bff8ced6d73c2a1a36a4ff95219060200160405180910390a160405181151581527f8f4dc19a0a35d805af4e9053cf101831ab5200b9b57fd5c953cee436833b892b9060200160405180910390a1505050565b600061116261225c565b6101c7546001600160a01b03161561118d576040516344a30fbf60e01b815260040160405180910390fd5b6101c45460408051630a63bfd560e11b815290516000926001600160a01b0316916314c77faa9160048083019260209291908290030181865afa1580156111d8573d6000803e3d6000fd5b505050506040513d601f19601f820116820180604052508101906111fc91906158c6565b90506000816001600160a01b031663576ff9088787876040518463ffffffff1660e01b81526004016112309392919061590c565b6020604051808303816000875af115801561124f573d6000803e3d6000fd5b505050506040513d601f19601f8201168201806040525081019061127391906158c6565b6101c7805474ffffffffffffffffffffffffffffffffffffffffff19166001600160a01b0383169081179091556040805189815260208101929092529192507fe14c63b3d4272158635bee1d1b95b51bb8de042ee95a15cbfaf2865b4d0af811910160405180910390a195945050505050565b60006112f2600461253f565b6112ff86868686866130b9565b90505b95945050505050565b61131361225c565b6c447e69651d841bd8d104bed4936001600160a01b03166330ff31406101c460009054906101000a90046001600160a01b03166001600160a01b0316638da5cb5b6040518163ffffffff1660e01b8152600401602060405180830381865afa158015611383573d6000803e3d6000fd5b505050506040513d601f19601f820116820180604052508101906113a791906158c6565b6040516001600160e01b031960e084901b1681526001600160a01b03909116600482015260006024820152600160448201526064016020604051808303816000875af11580156113fb573d6000803e3d6000fd5b505050506040513d601f19601f8201168201806040525081019061141f9190615926565b50565b60006001600160a01b038216301461143b576000610c67565b606754610c679060001961593f565b60006114546124e6565b61145e600161253f565b6101c754600160a81b900460ff166114895760405163af79b43760e01b815260040160405180910390fd5b60006114988489898989613224565b90506114ac81670de0b6b3a764000061580f565b91506114b883836135a7565b60006114c2611551565b50509050600082826114d4919061580f565b905060006114e28234613639565b90506114ee3482613083565b7ff03937e99971e84e889dea1d728cb1c06a82314f012c0d203598c3d30fff4bd98b8b8b8b8a8c60405161152796959493929190615956565b60405180910390a150505050611008600160c955565b611545613894565b61154f60006138bf565b565b6101c4546101c554604051632206137960e01b81526004810191909152600091829182916001600160a01b031690632206137990602401606060405180830381865afa1580156115a5573d6000803e3d6000fd5b505050506040513d601f19601f820116820180604052508101906115c991906159a4565b925092509250909192565b606060698054610c7c906157af565b6101cc602052816000526040600020818154811061160057600080fd5b6000918252602090912060029091020180546001909101549092506001600160a01b0381169150600160a01b900465ffffffffffff1683565b611641613894565b6000670de0b6b3a764000061165560675490565b61165f91906159d2565b905060048111156116835760405163d6ce581160e01b815260040160405180910390fd5b6116cf83838080602002602001604051908101604052809392919081815260200183836020028082843760009201829052506101c4548a94509092506001600160a01b031690506126a0565b50506101c354604080516001600160a01b03928316815260208101859052918716908201527f1f6d756c685d4969a551099165b59f836b4d2cc7e036e623f0248c28bff91db5915060600160405180910390a150506101c380546001600160a01b03191690555050565b3360008181526066602090815260408083206001600160a01b0387168452909152812054909190838110156117815760405163189dd6af60e31b815260040160405180910390fd5b61178e82868684036122ce565b506001949350505050565b600033610d0d8185856123db565b6117af613894565b6101c3546001600160a01b03908116908616036117df576040516309cef98160e01b815260040160405180910390fd5b60008660028111156117f3576117f36159f4565b0361187f576040516370a0823160e01b81523060048201526000906001600160a01b038716906370a0823190602401602060405180830381865afa15801561183f573d6000803e3d6000fd5b505050506040513d601f19601f820116820180604052508101906118639190615926565b90506118796001600160a01b0387163383613911565b5061193f565b6001866002811115611893576118936159f4565b036118d6578260005b818110156118cf576118c787338888858181106118bb576118bb6157e3565b90506020020135613963565b60010161189c565b505061193f565b604051631759616b60e11b81526001600160a01b03861690632eb2c2d69061190c90309033908990899089908990600401615a0a565b600060405180830381600087803b15801561192657600080fd5b505af115801561193a573d6000803e3d6000fd5b505050505b505050505050565b60006119516124e6565b61195b600361253f565b6101c754600160b81b900460ff1661198657604051630527cf7960e11b815260040160405180910390fd5b6101c65460009060ff1615611a0f578a60005b81811015611a08578b8b828181106119b3576119b36157e3565b905060200201356000036119da5760405163c4c8a67760e01b815260040160405180910390fd5b8b8b828181106119ec576119ec6157e3565b90506020020135836119fe91906158ae565b9250600101611999565b5050611a12565b50895b808714611a32576040516322d2bba960e21b815260040160405180910390fd5b506000611a3d611551565b925060009150611a4f9050888361580f565b6101c4549091506001600160a01b031660008580611ad257506040516306df336560e51b81523360048201526001600160a01b0383169063dbe66ca090602401602060405180830381865afa158015611aac573d6000803e3d6000fd5b505050506040513d601f19601f82011682018060405250810190611ad0919061582e565b155b90506000806000611b1a8e8e808060200260200160405190810160405280939291908181526020018383602002808284376000920191909152508f92508891508990506126a0565b9250925092508315611b595789831115611b475760405163725214ff60e11b815260040160405180910390fd5b611b5634600188868686612b73565b97505b50505050505050611b6d858c8c8c8c613224565b50611b783482613083565b7fc7f0d2d89a4f78b0df43fe593f76318f25e022d249bef3e8eb923d1b168c4faf8b8b8b8b8b8b8a8c604051611bb5989796959493929190615a69565b60405180910390a1611bc7600160c955565b9a9950505050505050505050565b6101c454600090610de2906001600160a01b031683613b44565b611bf761225c565b61154f6000611c87565b611c0961225c565b6101c4546101c554604051639814f40f60e01b815260048101919091526024810185905260448101849052606481018390526001600160a01b0390911690639814f40f90608401600060405180830381600087803b158015611c6a57600080fd5b505af1158015611c7e573d6000803e3d6000fd5b50505050505050565b611c8f61225c565b6101c6805474ffffffffffffffffffffffffffffffffffffffff0019166101006001600160a01b038416908102919091179091556040519081527f60a0f5b9f9e81e98216071b85826681c796256fe3d1354ecb675580fba64fa699060200160405180910390a150565b60006001600160a01b0383163014611d2457604051635079ff7560e11b815260040160405180910390fd5b610d478383613df8565b611d3661225c565b610c3084848080601f01602080910402602001604051908101604052809392919081815260200183838082843760009201919091525050604080516020601f88018190048102820181019092528681529250869150859081908401838280828437600092019190915250613e4c92505050565b600054610100900460ff1615808015611dc95750600054600160ff909116105b80611de35750303b158015611de3575060005460ff166001145b611e4b5760405162461bcd60e51b815260206004820152602e60248201527f496e697469616c697a61626c653a20636f6e747261637420697320616c72656160448201526d191e481a5b9a5d1a585b1a5e995960921b60648201526084015b60405180910390fd5b6000805460ff191660011790558015611e6e576000805461ff0019166101001790555b611e76613ea3565b611ee988888080601f01602080910402602001604051908101604052809392919081815260200183838082843760009201919091525050604080516020601f8c018190048102820181019092528a815292508a9150899081908401838280828437600092019190915250613ed292505050565b6001600160a01b038416611f105760405163d92e233d60e01b815260040160405180910390fd5b6101c380546001600160a01b03199081166001600160a01b038716179091556101c4805433921682179055604080516304c94c4160e31b8152905163264a6208916004808201926020929091908290030181865afa158015611f76573d6000803e3d6000fd5b505050506040513d601f19601f82011682018060405250810190611f9a9190615926565b6101c58190556101c6805460ff19168515159081179091556101c7805460ff60a01b1916600160a01b86151590810291909117909155604080516001600160a01b038916815260208101939093528201527f18ecce5c418b882a3d89e5b6cc8100dc3383309b8e78525266fe1283a7f934d69060600160405180910390a2612025600180600161106d565b6c447e69651d841bd8d104bed4936001600160a01b03166330ff3140336001600160a01b0316638da5cb5b6040518163ffffffff1660e01b8152600401602060405180830381865afa15801561207f573d6000803e3d6000fd5b505050506040513d601f19601f820116820180604052508101906120a391906158c6565b6040516001600160e01b031960e084901b1681526001600160a01b03909116600482015260006024820152600160448201526064016020604051808303816000875af11580156120f7573d6000803e3d6000fd5b505050506040513d601f19601f8201168201806040525081019061211b9190615926565b508015612162576000805461ff0019169055604051600181527f7f26b83ff96e1f2b6a682f133852f6798a09c465da95921460cefb38474024989060200160405180910390a15b5050505050505050565b60006121796101c86124d0565b905090565b6101c754600090600160a01b900460ff161561219c57506001919050565b6101c7546001600160a01b0316806121b75750600092915050565b6040516384ca9f8560e01b81526001600160a01b038216906384ca9f85906121e3908690600401614f86565b602060405180830381865afa158015612200573d6000803e3d6000fd5b505050506040513d601f19601f82011682018060405250810190610d47919061582e565b61222c613894565b6001600160a01b03811661225357604051633a247dd760e11b815260040160405180910390fd5b61141f816138bf565b6101c65461010090046001600160a01b031661229d576033546001600160a01b0316331461154f576040516330cd747160e01b815260040160405180910390fd5b6101c65461010090046001600160a01b0316331461154f5760405163607e454560e11b815260040160405180910390fd5b6001600160a01b0383166122f55760405163eb3b083560e01b815260040160405180910390fd5b6001600160a01b03821661231c5760405163076e33c360e31b815260040160405180910390fd5b6001600160a01b0383811660008181526066602090815260408083209487168084529482529182902085905590518481527f8c5be1e5ebec7d5bd14f71427d1e84f3dd0314c0f7b2291e5b200ac8c7c3b92591015b60405180910390a3505050565b6001600160a01b038381166000908152606660209081526040808320938616835292905220546000198114610c3057818110156123ce576040516313be252b60e01b815260040160405180910390fd5b610c3084848484036122ce565b6001600160a01b03831661240257604051630b07e54560e11b815260040160405180910390fd5b6001600160a01b03821661242957604051633a954ecd60e21b815260040160405180910390fd5b6001600160a01b0383166000908152606560205260409020548181101561246357604051635dd58b8b60e01b815260040160405180910390fd5b6001600160a01b0380851660008181526065602052604080822086860390559286168082529083902080548601905591517fddf252ad1be2c89b69c2b068fc378daa952ba7f163c4a11628f55a4df523b3ef906124c39086815260200190565b60405180910390a3610c30565b6000610c67825490565b6000610d478383613f03565b600260c954036125385760405162461bcd60e51b815260206004820152601f60248201527f5265656e7472616e637947756172643a207265656e7472616e742063616c6c006044820152606401611e42565b600260c955565b6101c45460405163f6aacfb160e01b8152600481018390526001600160a01b039091169063f6aacfb190602401602060405180830381865afa158015612589573d6000803e3d6000fd5b505050506040513d601f19601f820116820180604052508101906125ad919061582e565b80156125c457506033546001600160a01b03163314155b1561141f576040516313d0ff5960e31b815260040160405180910390fd5b6001600160a01b0382166126095760405163b817eee760e01b815260040160405180910390fd5b6001600160a01b0382166000908152606560205260409020548181101561264357604051630bba337f60e11b815260040160405180910390fd5b6001600160a01b03831660008181526065602090815260408083208686039055606780548790039055518581529192917fddf252ad1be2c89b69c2b068fc378daa952ba7f163c4a11628f55a4df523b3ef9101612371565b505050565b6101c6546101c354600091606091829160ff16906001600160a01b03168480881561281a57876001600160a01b03166368d052e96040518163ffffffff1660e01b8152600401602060405180830381865afa158015612703573d6000803e3d6000fd5b505050506040513d601f19601f820116820180604052508101906127279190615926565b9150876001600160a01b0316631362ba226040518163ffffffff1660e01b8152600401602060405180830381865afa158015612767573d6000803e3d6000fd5b505050506040513d601f19601f8201168201806040525081019061278b9190615926565b90508a5167ffffffffffffffff8111156127a7576127a7614e09565b6040519080825280602002602001820160405280156127d0578160200160208202803683370190505b5095508a5167ffffffffffffffff8111156127ed576127ed614e09565b604051908082528060200260200182016040528015612816578160200160208202803683370190505b5094505b8a5160005b81811015612b5a5760008d828151811061283b5761283b6157e3565b602002602001015190508615612a615760008181526101ca60205260408120549081900361287c57604051631820c31160e31b815260040160405180910390fd5b61288760018261593f565b60008381526101ca602052604090205560018190036128c9576128ac6101c883613f2d565b6128c957604051634f213e5760e01b815260040160405180910390fd5b50604051637921219560e11b81523060048201526001600160a01b038e81166024830152604482018390526001606483015260a06084830152600060a483015287169063f242432a9060c401600060405180830381600087803b15801561292f57600080fd5b505af1158015612943573d6000803e3d6000fd5b50505060008281526101cd60209081526040808320546101cc909252822080549193509083908110612977576129776157e3565b60009182526020909120600290910201805490915061299760018261593f565b825560018190036129be576129ad8360016158ae565b60008581526101cd60205260409020555b8e15612a595760018201546000906129e690600160a01b900465ffffffffffff168a8a613f39565b90506129f2818f6158ae565b9d50808d8781518110612a0757612a076157e3565b602090810291909101015260018301548c516001600160a01b03909116908d9088908110612a3757612a376157e3565b60200260200101906001600160a01b031690816001600160a01b031681525050505b505050612b51565b8b15612b1d5760008181526101cb6020908152604080832081518083019092525465ffffffffffff811680835266010000000000009091046001600160a01b0316928201929092529190612ab6908888613f39565b9050612ac2818d6158ae565b9b50808b8581518110612ad757612ad76157e3565b60200260200101818152505081602001518a8581518110612afa57612afa6157e3565b60200260200101906001600160a01b031690816001600160a01b03168152505050505b612b296101c882613f2d565b612b4657604051634f213e5760e01b815260040160405180910390fd5b612b51868e83613963565b5060010161281f565b50612b648c613f4e565b50505050509450945094915050565b6101c45460009081908190612b91906001600160a01b031688613b44565b90925090508115613077576000808715612c545788612bb0898661580f565b612bba91906159d2565b9150670de0b6b3a76400006101c460009054906101000a90046001600160a01b03166001600160a01b031663f3746ca96040518163ffffffff1660e01b8152600401602060405180830381865afa158015612c19573d6000803e3d6000fd5b505050506040513d601f19601f82011682018060405250810190612c3d9190615926565b612c47908461580f565b612c5191906159d2565b90505b612c5e82856158ae565b9450848b1015612c815760405163311c9fd160e01b815260040160405180910390fd5b8915612d00577f00000000000000000000000000000000000000000000000000000000000000006001600160a01b031663d0e30db0866040518263ffffffff1660e01b81526004016000604051808303818588803b158015612ce257600080fd5b505af1158015612cf6573d6000803e3d6000fd5b5050505050612d99565b6040516323b872dd60e01b8152336004820152306024820152604481018690527f00000000000000000000000000000000000000000000000000000000000000006001600160a01b0316906323b872dd906064016020604051808303816000875af1158015612d73573d6000803e3d6000fd5b505050506040513d601f19601f82011682018060405250810190612d97919061582e565b505b8651600090815b81811015612f395760008a8281518110612dbc57612dbc6157e3565b60200260200101511115612f315760008b8b8381518110612ddf57612ddf6157e3565b602002602001015186612df2919061580f565b612dfc91906159d2565b90507f00000000000000000000000000000000000000000000000000000000000000006001600160a01b031663a9059cbb8b8481518110612e3f57612e3f6157e3565b6020026020010151836040518363ffffffff1660e01b8152600401612e799291906001600160a01b03929092168252602082015260400190565b6020604051808303816000875af1158015612e98573d6000803e3d6000fd5b505050506040513d601f19601f82011682018060405250810190612ebc919061582e565b50612ec781856158ae565b93507f6145d458e7bea9ad415c7534924b89223228b66d9db99bd80f9889d213da059c8a8381518110612efc57612efc6157e3565b602002602001015182604051612f279291906001600160a01b03929092168252602082015260400190565b60405180910390a1505b600101612da0565b506000612f46838961593f565b60405163a9059cbb60e01b81526001600160a01b038881166004830152602482018390529192507f00000000000000000000000000000000000000000000000000000000000000009091169063a9059cbb906044016020604051808303816000875af1158015612fba573d6000803e3d6000fd5b505050506040513d601f19601f82011682018060405250810190612fde919061582e565b506040518181527f8959421a1320789a49eeec01a4750caf8a30733c3db14f000d84484df89300f99060200160405180910390a16101c5546040516391c05b0b60e01b815260048101919091526001600160a01b038716906391c05b0b90602401600060405180830381600087803b15801561305957600080fd5b505af115801561306d573d6000803e3d6000fd5b5050505050505050505b50509695505050505050565b600061308f828461593f565b9050801561269b5761269b3382613fbe565b60008181526001830160205260408120541515610d47565b60006130c485611422565b8411156130e457604051631b8e3c7960e11b815260040160405180910390fd5b60006130f08686611cf9565b90506130fc87866135a7565b6040516323e30c8b60e01b81527f439148f0bbc682ca079e46d6e2c2f0c1e3b820f1a291b069d8882abf8cf18dd9906001600160a01b038916906323e30c8b906131549033908b908b9088908c908c90600401615ace565b6020604051808303816000875af1158015613173573d6000803e3d6000fd5b505050506040513d601f19601f820116820180604052508101906131979190615926565b146131b5576040516303a6a98b60e41b815260040160405180910390fd5b60006131bf614032565b90506131d588306131d0858a6158ae565b61237e565b8115806131e957506001600160a01b038116155b15613201576131fc88610e7284896158ae565b613216565b61320b88876125e2565b6132168882846123db565b506001979650505050505050565b600061326285858080602002602001604051908101604052809392919081815260200183836020028082843760009201919091525061217e92505050565b61327f57604051637c75aa6f60e11b815260040160405180910390fd5b6101c65460ff1661337a576101c3546001600160a01b03168460005b818110156133705760008888838181106132b7576132b76157e3565b9050602002013590506132ca8482614102565b6132d66101c882614462565b6132f357604051634f213e5760e01b815260040160405180910390fd5b60408051808201825265ffffffffffff42811682526001600160a01b03808e16602080850191825260009687526101cb9052939094209151825493519094166601000000000000027fffffffffffff000000000000000000000000000000000000000000000000000090931693169290921717905560010161329b565b5091506113029050565b6101c354604051631759616b60e11b81526001600160a01b0390911690632eb2c2d6906133b590339030908a908a908a908a90600401615a0a565b600060405180830381600087803b1580156133cf57600080fd5b505af11580156133e3573d6000803e3d6000fd5b50600092508691508290505b8181101561359c57600088888381811061340b5761340b6157e3565b9050602002013590506000878784818110613428576134286157e3565b905060200201359050806000036134525760405163c4c8a67760e01b815260040160405180910390fd5b60008281526101ca60205260408120549003613491576134746101c883614462565b61349157604051634f213e5760e01b815260040160405180910390fd5b60008281526101ca6020526040812080548392906134b09084906158ae565b909155506134c0905081866158ae565b94506101cc600083815260200190815260200160002060405180606001604052808381526020018d6001600160a01b031681526020014265ffffffffffff1681525090806001815401808255809150506001900390600052602060002090600202016000909190919091506000820151816000015560208201518160010160006101000a8154816001600160a01b0302191690836001600160a01b0316021790555060408201518160010160146101000a81548165ffffffffffff021916908365ffffffffffff160217905550505082600101925050506133ef565b508192505050611302565b6001600160a01b0382166135cd57604051622e076360e81b815260040160405180910390fd5b80606760008282546135df91906158ae565b90915550506001600160a01b0382166000818152606560209081526040808320805486019055518481527fddf252ad1be2c89b69c2b068fc378daa952ba7f163c4a11628f55a4df523b3ef910160405180910390a35b5050565b6101c4546040516306df336560e51b81523360048201526000916001600160a01b031690819063dbe66ca090602401602060405180830381865afa158015613685573d6000803e3d6000fd5b505050506040513d601f19601f820116820180604052508101906136a9919061582e565b156136b8576000915050610c67565b60006136c48286613b44565b9093509050821561388c57828410156136f05760405163311c9fd160e01b815260040160405180910390fd5b7f00000000000000000000000000000000000000000000000000000000000000006001600160a01b031663d0e30db0846040518263ffffffff1660e01b81526004016000604051808303818588803b15801561374b57600080fd5b505af115801561375f573d6000803e3d6000fd5b505060405163a9059cbb60e01b81526001600160a01b038581166004830152602482018890527f000000000000000000000000000000000000000000000000000000000000000016935063a9059cbb925060440190506020604051808303816000875af11580156137d4573d6000803e3d6000fd5b505050506040513d601f19601f820116820180604052508101906137f8919061582e565b506040518381527f8959421a1320789a49eeec01a4750caf8a30733c3db14f000d84484df89300f99060200160405180910390a16101c5546040516391c05b0b60e01b815260048101919091526001600160a01b038216906391c05b0b90602401600060405180830381600087803b15801561387357600080fd5b505af1158015613887573d6000803e3d6000fd5b505050505b505092915050565b6033546001600160a01b0316331461154f57604051633e8be92f60e01b815260040160405180910390fd5b603380546001600160a01b038381166001600160a01b0319831681179093556040519116919082907f8be0079c531659141344cd1fd0a4f28419497f9722a3daafe3b4186f6b6457e090600090a35050565b604080516001600160a01b038416602482015260448082018490528251808303909101815260649091019091526020810180516001600160e01b031663a9059cbb60e01b17905261269b90849061446e565b60606001600160a01b03841673b47e3cd837ddf8e4c57f05d70ab865de6e193bbb148015906139af57506001600160a01b0384167306012c8cf97bead5deae237070f9587f8e7a266d14155b15613a07576040513060248201526001600160a01b03841660448201526064810183905260840160408051601f198184030181529190526020810180516001600160e01b0316632142170760e11b1790529050613ac2565b73b47e3cd837ddf8e4c57f05d70ab865de6e193bba196001600160a01b03851601613a79576040516001600160a01b03841660248201526044810183905260640160408051601f198184030181529190526020810180516001600160e01b03166322dca8bb60e21b1790529050613ac2565b6040516001600160a01b03841660248201526044810183905260640160408051601f198184030181529190526020810180516001600160e01b031663a9059cbb60e01b17905290505b600080856001600160a01b031683604051613add9190615b13565b6000604051808303816000865af19150503d8060008114613b1a576040519150601f19603f3d011682016040523d82523d6000602084013e613b1f565b606091505b5091509150818190611c7e5760405162461bcd60e51b8152600401611e429190614db5565b600080836001600160a01b0316630d43e8ad6040518163ffffffff1660e01b8152600401602060405180830381865afa158015613b85573d6000803e3d6000fd5b505050506040513d601f19601f82011682018060405250810190613ba991906158c6565b90506000816001600160a01b0316631eae8f916040518163ffffffff1660e01b8152600401602060405180830381865afa158015613beb573d6000803e3d6000fd5b505050506040513d601f19601f82011682018060405250810190613c0f91906158c6565b9050600080826001600160a01b0316632a9c99e930866001600160a01b03166334c53b896040518163ffffffff1660e01b8152600401602060405180830381865afa158015613c62573d6000803e3d6000fd5b505050506040513d601f19601f82011682018060405250810190613c869190615b2f565b6040516001600160e01b031960e085901b1681526001600160a01b03909216600483015262ffffff1660248201526044016040805180830381865afa158015613cd3573d6000803e3d6000fd5b505050506040513d601f19601f82011682018060405250810190613cf79190615b54565b9150915080613d0c5760009450505050613df1565b6101c45460405163d444a47d60e01b81526001600160a01b038481166004830152600092169063d444a47d90602401602060405180830381865afa158015613d58573d6000803e3d6000fd5b505050506040513d601f19601f82011682018060405250810190613d7c9190615926565b905080600003613d93576000955050505050613df1565b6001600160a01b037f000000000000000000000000000000000000000000000000000000000000000016301015613dda57613dd38782600160601b614540565b9550613dec565b613de987600160601b83614540565b95505b505050505b9250929050565b600080600080613e06611551565b919450925090508280831115613e195750815b80821115613e245750805b670de0b6b3a7640000613e37828861580f565b613e4191906159d2565b979650505050505050565b6068613e588382615bc9565b506069613e658282615bc9565b507f30f5c4b652f95e2a697bda3258896c421eee4f29adce8fe38060f47f7aed91ad8282604051613e97929190615c89565b60405180910390a15050565b600054610100900460ff16613eca5760405162461bcd60e51b8152600401611e4290615cae565b61154f6145f2565b600054610100900460ff16613ef95760405162461bcd60e51b8152600401611e4290615cae565b6136358282614622565b6000826000018281548110613f1a57613f1a6157e3565b9060005260206000200154905092915050565b6000610d478383614662565b6000610d208465ffffffffffff168484614755565b6101c7546001600160a01b031680613f64575050565b604051632f17cda960e11b81526001600160a01b03821690635e2f9b5290613f90908590600401614f86565b600060405180830381600087803b158015613faa57600080fd5b505af115801561193f573d6000803e3d6000fd5b6000826001600160a01b03168260405160006040518083038185875af1925050503d806000811461400b576040519150601f19603f3d011682016040523d82523d6000602084013e614010565b606091505b505090508061269b5760405163260e7d5b60e11b815260040160405180910390fd5b6101c45460408051630d43e8ad60e01b815290516000926001600160a01b031691630d43e8ad9160048083019260209291908290030181865afa15801561407d573d6000803e3d6000fd5b505050506040513d601f19601f820116820180604052508101906140a191906158c6565b6001600160a01b03166374a1b0b06040518163ffffffff1660e01b8152600401602060405180830381865afa1580156140de573d6000803e3d6000fd5b505050506040513d601f19601f8201168201806040525081019061217991906158c6565b60606001600160a01b03831673b47e3cd837ddf8e4c57f05d70ab865de6e193bbb1480159061414e57506001600160a01b0383167306012c8cf97bead5deae237070f9587f8e7a266d14155b15614243576101c3546040516331a9108f60e11b81526004810184905230916001600160a01b031690636352211e90602401602060405180830381865afa15801561419d573d6000803e3d6000fd5b505050506040513d601f19601f820116820180604052508101906141c191906158c6565b6001600160a01b0316036141f9576141db6101c8836130a1565b1561269b57604051631d1a087d60e31b815260040160405180910390fd5b6040513360248201523060448201526064810183905260840160408051601f198184030181529190526020810180516001600160e01b0316632142170760e11b17905290506143e0565b73b47e3cd837ddf8e4c57f05d70ab865de6e193bba196001600160a01b0384160161439a5760008260405160240161427d91815260200190565b60408051601f198184030181529181526020820180516001600160e01b0316630b02f02d60e31b1790525190915060009081906001600160a01b038716906142c6908590615b13565b600060405180830381855afa9150503d8060008114614301576040519150601f19603f3d011682016040523d82523d6000602084013e614306565b606091505b509150915060008180602001905181019061432191906158c6565b905082158061433957506001600160a01b0381163314155b1561435757604051631022318760e21b815260040160405180910390fd5b6040516024810187905260440160408051601f198184030181529190526020810180516001600160e01b031663104c9fd360e31b17905294506143e09350505050565b6040513360248201523060448201526064810183905260840160408051601f198184030181529190526020810180516001600160e01b03166323b872dd60e01b17905290505b600080846001600160a01b0316836040516143fb9190615b13565b6000604051808303816000865af19150503d8060008114614438576040519150601f19603f3d011682016040523d82523d6000602084013e61443d565b606091505b509150915081819061193f5760405162461bcd60e51b8152600401611e429190614db5565b6000610d4783836147ad565b60006144c3826040518060400160405280602081526020017f5361666545524332303a206c6f772d6c6576656c2063616c6c206661696c6564815250856001600160a01b03166147fc9092919063ffffffff16565b80519091501561269b57808060200190518101906144e1919061582e565b61269b5760405162461bcd60e51b815260206004820152602a60248201527f5361666545524332303a204552433230206f7065726174696f6e20646964206e6044820152691bdd081cdd58d8d9595960b21b6064820152608401611e42565b6000808060001985870985870292508281108382030391505080600003614579576000841161456e57600080fd5b508290049050610d47565b80841161458557600080fd5b6000848688096000868103871696879004966002600389028118808a02820302808a02820302808a02820302808a02820302808a02820302808a02909103029181900381900460010186841190950394909402919094039290920491909117919091029150509392505050565b600054610100900460ff166146195760405162461bcd60e51b8152600401611e4290615cae565b61154f336138bf565b600054610100900460ff166146495760405162461bcd60e51b8152600401611e4290615cae565b60686146558382615bc9565b50606961269b8282615bc9565b6000818152600183016020526040812054801561474b57600061468660018361593f565b855490915060009061469a9060019061593f565b90508181146146ff5760008660000182815481106146ba576146ba6157e3565b90600052602060002001549050808760000184815481106146dd576146dd6157e3565b6000918252602080832090910192909255918252600188019052604090208390555b855486908061471057614710615cf9565b600190038181906000526020600020016000905590558560010160008681526020019081526020016000206000905560019350505050610c67565b6000915050610c67565b600080614762854261593f565b90506000614770858361480b565b90506000614780610e10866159d2565b86901c90508082106147a057614796818361593f565b9350505050610d47565b5060009695505050505050565b60008181526001830160205260408120546147f457508154600181810184556000848152602080822090930184905584548482528286019093526040902091909155610c67565b506000610c67565b6060610d2084846000856148a5565b600080610e10614823670de0b6b3a76400008561580f565b61482d91906159d2565b90506000614843670de0b6b3a7640000836159d2565b905084811c600061485c670de0b6b3a76400008461580f565b614866908561593f565b90506000670de0b6b3a7640000614880836201000061580f565b61488a91906159d2565b905060006148988285614975565b9998505050505050505050565b6060824710156149065760405162461bcd60e51b815260206004820152602660248201527f416464726573733a20696e73756666696369656e742062616c616e636520666f6044820152651c8818d85b1b60d21b6064820152608401611e42565b600080866001600160a01b031685876040516149229190615b13565b60006040518083038185875af1925050503d806000811461495f576040519150601f19603f3d011682016040523d82523d6000602084013e614964565b606091505b5091509150613e4187838387614c95565b600060018316156149a857670de0b6b3a764000061499b670de0ad151d0941808461580f565b6149a591906159d2565b91505b60028316156149d957670de0b6b3a76400006149cc670de0a376995968008461580f565b6149d691906159d2565b91505b6004831615614a0a57670de0b6b3a76400006149fd670de09039a5fa51008461580f565b614a0791906159d2565b91505b6008831615614a3b57670de0b6b3a7640000614a2e670de069c00f3e12008461580f565b614a3891906159d2565b91505b6010831615614a6c57670de0b6b3a7640000614a5f670de01cce21c944008461580f565b614a6991906159d2565b91505b6020831615614a9d57670de0b6b3a7640000614a90670ddf82ef46ce10008461580f565b614a9a91906159d2565b91505b6040831615614ace57670de0b6b3a7640000614ac1670dde4f458f8e8d808461580f565b614acb91906159d2565b91505b6080831615614aff57670de0b6b3a7640000614af2670ddbe84213d5f0808461580f565b614afc91906159d2565b91505b610100831615614b3157670de0b6b3a7640000614b24670dd71b7aa6df5b808461580f565b614b2e91906159d2565b91505b610200831615614b6357670de0b6b3a7640000614b56670dcd86e7f28cde008461580f565b614b6091906159d2565b91505b610400831615614b9557670de0b6b3a7640000614b88670dba71a3084ad6808461580f565b614b9291906159d2565b91505b610800831615614bc757670de0b6b3a7640000614bba670d94961b13dbde808461580f565b614bc491906159d2565b91505b611000831615614bf957670de0b6b3a7640000614bec670d4a171c35c983808461580f565b614bf691906159d2565b91505b612000831615614c2b57670de0b6b3a7640000614c1e670cb9da519ccfb7008461580f565b614c2891906159d2565b91505b614000831615614c5d57670de0b6b3a7640000614c50670bab76d59c18d6808461580f565b614c5a91906159d2565b91505b618000831615614c8f57670de0b6b3a7640000614c826709d025defee4df808461580f565b614c8c91906159d2565b91505b50919050565b60608315614d04578251600003614cfd576001600160a01b0385163b614cfd5760405162461bcd60e51b815260206004820152601d60248201527f416464726573733a2063616c6c20746f206e6f6e2d636f6e74726163740000006044820152606401611e42565b5081610d20565b610d208383815115614d195781518083602001fd5b8060405162461bcd60e51b8152600401611e429190614db5565b600060208284031215614d4557600080fd5b81356001600160e01b031981168114610d4757600080fd5b60005b83811015614d78578181015183820152602001614d60565b83811115610c305750506000910152565b60008151808452614da1816020860160208601614d5d565b601f01601f19169290920160200192915050565b602081526000610d476020830184614d89565b6001600160a01b038116811461141f57600080fd5b60008060408385031215614df057600080fd5b8235614dfb81614dc8565b946020939093013593505050565b634e487b7160e01b600052604160045260246000fd5b604051601f8201601f1916810167ffffffffffffffff81118282101715614e4857614e48614e09565b604052919050565b600082601f830112614e6157600080fd5b813567ffffffffffffffff811115614e7b57614e7b614e09565b614e8e601f8201601f1916602001614e1f565b818152846020838601011115614ea357600080fd5b816020850160208301376000918101602001919091529392505050565b60008060008060808587031215614ed657600080fd5b8435614ee181614dc8565b93506020850135614ef181614dc8565b925060408501359150606085013567ffffffffffffffff811115614f1457600080fd5b614f2087828801614e50565b91505092959194509250565b600060208284031215614f3e57600080fd5b5035919050565b600080600060608486031215614f5a57600080fd5b8335614f6581614dc8565b92506020840135614f7581614dc8565b929592945050506040919091013590565b6020808252825182820181905260009190848201906040850190845b81811015614fbe57835183529284019291840191600101614fa2565b50909695505050505050565b60008083601f840112614fdc57600080fd5b50813567ffffffffffffffff811115614ff457600080fd5b6020830191508360208260051b8501011115613df157600080fd5b801515811461141f57600080fd5b80356150288161500f565b919050565b60008060008060008060a0878903121561504657600080fd5b863567ffffffffffffffff81111561505d57600080fd5b61506989828a01614fca565b909750955050602087013561507d81614dc8565b93506040870135925060608701359150608087013561509b8161500f565b809150509295509295509295565b6000806000606084860312156150be57600080fd5b83356150c98161500f565b925060208401356150d98161500f565b915060408401356150e98161500f565b809150509250925092565b60008083601f84011261510657600080fd5b50813567ffffffffffffffff81111561511e57600080fd5b602083019150836020828501011115613df157600080fd5b60008060006040848603121561514b57600080fd5b83359250602084013567ffffffffffffffff81111561516957600080fd5b615175868287016150f4565b9497909650939450505050565b60008060008060006080868803121561519a57600080fd5b85356151a581614dc8565b945060208601356151b581614dc8565b935060408601359250606086013567ffffffffffffffff8111156151d857600080fd5b6151e4888289016150f4565b969995985093965092949392505050565b60006020828403121561520757600080fd5b8135610d4781614dc8565b6000806000806000806080878903121561522b57600080fd5b863567ffffffffffffffff8082111561524357600080fd5b61524f8a838b01614fca565b9098509650602089013591508082111561526857600080fd5b5061527589828a01614fca565b909550935050604087013561528981614dc8565b9150606087013561509b81614dc8565b600080604083850312156152ac57600080fd5b50508035926020909101359150565b6000806000604084860312156152d057600080fd5b83356152db81614dc8565b9250602084013567ffffffffffffffff8111156152f757600080fd5b61517586828701614fca565b6000806000806000806080878903121561531c57600080fd5b86356003811061532b57600080fd5b9550602087013561533b81614dc8565b9450604087013567ffffffffffffffff8082111561535857600080fd5b6153648a838b01614fca565b9096509450606089013591508082111561537d57600080fd5b5061538a89828a01614fca565b979a9699509497509295939492505050565b60008060008060008060008060008060e08b8d0312156153bb57600080fd5b8a3567ffffffffffffffff808211156153d357600080fd5b6153df8e838f01614fca565b909c509a5060208d01359150808211156153f857600080fd5b6154048e838f01614fca565b909a50985060408d013591508082111561541d57600080fd5b5061542a8d828e01614fca565b90975095505060608b013561543e81614dc8565b935060808b013561544e81614dc8565b925060a08b0135915061546360c08c0161501d565b90509295989b9194979a5092959850565b600082601f83011261548557600080fd5b8135602067ffffffffffffffff8211156154a1576154a1614e09565b8160051b6154b0828201614e1f565b92835284810182019282810190878511156154ca57600080fd5b83870192505b84831015613e41578235825291830191908301906154d0565b600080600080600060a0868803121561550157600080fd5b853561550c81614dc8565b9450602086013561551c81614dc8565b9350604086013567ffffffffffffffff8082111561553957600080fd5b61554589838a01615474565b9450606088013591508082111561555b57600080fd5b61556789838a01615474565b9350608088013591508082111561557d57600080fd5b5061558a88828901614e50565b9150509295509295909350565b6000806000606084860312156155ac57600080fd5b505081359360208301359350604090920135919050565b600080604083850312156155d657600080fd5b82356155e181614dc8565b915060208301356155f181614dc8565b809150509250929050565b6000806000806040858703121561561257600080fd5b843567ffffffffffffffff8082111561562a57600080fd5b615636888389016150f4565b9096509450602087013591508082111561564f57600080fd5b5061565c878288016150f4565b95989497509550505050565b600080600080600080600060a0888a03121561568357600080fd5b873567ffffffffffffffff8082111561569b57600080fd5b6156a78b838c016150f4565b909950975060208a01359150808211156156c057600080fd5b506156cd8a828b016150f4565b90965094505060408801356156e181614dc8565b925060608801356156f18161500f565b915060808801356157018161500f565b8091505092959891949750929550565b60006020828403121561572357600080fd5b813567ffffffffffffffff81111561573a57600080fd5b610d2084828501615474565b600080600080600060a0868803121561575e57600080fd5b853561576981614dc8565b9450602086013561577981614dc8565b93506040860135925060608601359150608086013567ffffffffffffffff8111156157a357600080fd5b61558a88828901614e50565b600181811c908216806157c357607f821691505b602082108103614c8f57634e487b7160e01b600052602260045260246000fd5b634e487b7160e01b600052603260045260246000fd5b634e487b7160e01b600052601160045260246000fd5b6000816000190483118215151615615829576158296157f9565b500290565b60006020828403121561584057600080fd5b8151610d478161500f565b81835260006001600160fb1b0383111561586457600080fd5b8260051b8083602087013760009401602001938452509192915050565b60408152600061589560408301858761584b565b90506001600160a01b0383166020830152949350505050565b600082198211156158c1576158c16157f9565b500190565b6000602082840312156158d857600080fd5b8151610d4781614dc8565b81835281816020850137506000828201602090810191909152601f909101601f19169091010190565b8381526040602082015260006113026040830184866158e3565b60006020828403121561593857600080fd5b5051919050565b600082821015615951576159516157f9565b500390565b60808152600061596a60808301888a61584b565b828103602084015261597d81878961584b565b9150506001600160a01b038085166040840152808416606084015250979650505050505050565b6000806000606084860312156159b957600080fd5b8351925060208401519150604084015190509250925092565b6000826159ef57634e487b7160e01b600052601260045260246000fd5b500490565b634e487b7160e01b600052602160045260246000fd5b60006001600160a01b03808916835280881660208401525060a06040830152615a3760a08301868861584b565b8281036060840152615a4a81858761584b565b8381036080909401939093525050600081526020019695505050505050565b60a081526000615a7d60a083018a8c61584b565b8281036020840152615a9081898b61584b565b90508281036040840152615aa581878961584b565b9150506001600160a01b0380851660608401528084166080840152509998505050505050505050565b60006001600160a01b03808916835280881660208401525085604083015284606083015260a06080830152615b0760a0830184866158e3565b98975050505050505050565b60008251615b25818460208701614d5d565b9190910192915050565b600060208284031215615b4157600080fd5b815162ffffff81168114610d4757600080fd5b60008060408385031215615b6757600080fd5b8251615b7281614dc8565b60208401519092506155f18161500f565b601f82111561269b57600081815260208120601f850160051c81016020861015615baa5750805b601f850160051c820191505b8181101561193f57828155600101615bb6565b815167ffffffffffffffff811115615be357615be3614e09565b615bf781615bf184546157af565b84615b83565b602080601f831160018114615c2c5760008415615c145750858301515b600019600386901b1c1916600185901b17855561193f565b600085815260208120601f198616915b82811015615c5b57888601518255948401946001909101908401615c3c565b5085821015615c795787850151600019600388901b60f8161c191681555b5050505050600190811b01905550565b604081526000615c9c6040830185614d89565b82810360208401526113028185614d89565b6020808252602b908201527f496e697469616c697a61626c653a20636f6e7472616374206973206e6f74206960408201526a6e697469616c697a696e6760a81b606082015260800190565b634e487b7160e01b600052603160045260246000fdfea164736f6c634300080f000a"
}