{
  "address": "0x8E912C466bD1D720b7d97034c03572c4A261de33",
  "abi": [
    {
      "inputs": [
        {
          "internalType": "contract IWETH9",
          "name": "WETH_",
          "type": "address"
        },
        {
          "internalType": "contract IPermitAllowanceTransfer",
          "name": "PERMIT2_",
          "type": "address"
        },
        {
          "internalType": "contract INFTXVaultFactoryV3",
          "name": "nftxVaultFactory_",
          "type": "address"
        }
      ],
      "stateMutability": "nonpayable",
      "type": "constructor"
    },
    {
      "inputs": [],
      "name": "ApprovalToCurrentOwner",
      "type": "error"
    },
    {
      "inputs": [],
      "name": "InsufficientVTokenShares",
      "type": "error"
    },
    {
      "inputs": [],
      "name": "InsufficientVTokens",
      "type": "error"
    },
    {
      "inputs": [],
      "name": "InvalidEarlyWithdrawPenalty",
      "type": "error"
    },
    {
      "inputs": [],
      "name": "InvalidSignature",
      "type": "error"
    },
    {
      "inputs": [],
      "name": "LiquidityBelowMinimum",
      "type": "error"
    },
    {
      "inputs": [],
      "name": "NotGuardian",
      "type": "error"
    },
    {
      "inputs": [],
      "name": "NotNFTOwner",
      "type": "error"
    },
    {
      "inputs": [],
      "name": "NotPositionOwner",
      "type": "error"
    },
    {
      "inputs": [],
      "name": "ParentChildSame",
      "type": "error"
    },
    {
      "inputs": [],
      "name": "Paused",
      "type": "error"
    },
    {
      "inputs": [],
      "name": "PermitExpired",
      "type": "error"
    },
    {
      "inputs": [],
      "name": "PositionNotCreatedWithVTokens",
      "type": "error"
    },
    {
      "inputs": [],
      "name": "SenderNotFeeDistributor",
      "type": "error"
    },
    {
      "inputs": [],
      "name": "TimelockTooLong",
      "type": "error"
    },
    {
      "inputs": [],
      "name": "Timelocked",
      "type": "error"
    },
    {
      "inputs": [],
      "name": "UnableToSendETH",
      "type": "error"
    },
    {
      "inputs": [],
      "name": "Unauthorized",
      "type": "error"
    },
    {
      "inputs": [],
      "name": "VaultIdMismatch",
      "type": "error"
    },
    {
      "inputs": [],
      "name": "ZeroAddress",
      "type": "error"
    },
    {
      "inputs": [],
      "name": "ZeroVTokenShares",
      "type": "error"
    },
    {
      "anonymous": false,
      "inputs": [
        {
          "indexed": true,
          "internalType": "address",
          "name": "owner",
          "type": "address"
        },
        {
          "indexed": true,
          "internalType": "address",
          "name": "approved",
          "type": "address"
        },
        {
          "indexed": true,
          "internalType": "uint256",
          "name": "tokenId",
          "type": "uint256"
        }
      ],
      "name": "Approval",
      "type": "event"
    },
    {
      "anonymous": false,
      "inputs": [
        {
          "indexed": true,
          "internalType": "address",
          "name": "owner",
          "type": "address"
        },
        {
          "indexed": true,
          "internalType": "address",
          "name": "operator",
          "type": "address"
        },
        {
          "indexed": false,
          "internalType": "bool",
          "name": "approved",
          "type": "bool"
        }
      ],
      "name": "ApprovalForAll",
      "type": "event"
    },
    {
      "anonymous": false,
      "inputs": [
        {
          "indexed": true,
          "internalType": "uint256",
          "name": "positionId",
          "type": "uint256"
        },
        {
          "indexed": false,
          "internalType": "uint256",
          "name": "wethAmount",
          "type": "uint256"
        }
      ],
      "name": "CollectWethFees",
      "type": "event"
    },
    {
      "anonymous": false,
      "inputs": [
        {
          "indexed": false,
          "internalType": "uint256",
          "name": "parentPositionId",
          "type": "uint256"
        },
        {
          "indexed": false,
          "internalType": "uint256[]",
          "name": "childPositionIds",
          "type": "uint256[]"
        }
      ],
      "name": "CombinePositions",
      "type": "event"
    },
    {
      "anonymous": false,
      "inputs": [
        {
          "indexed": true,
          "internalType": "uint256",
          "name": "vaultId",
          "type": "uint256"
        },
        {
          "indexed": true,
          "internalType": "uint256",
          "name": "positionId",
          "type": "uint256"
        },
        {
          "indexed": false,
          "internalType": "uint256",
          "name": "amount",
          "type": "uint256"
        },
        {
          "indexed": false,
          "internalType": "bool",
          "name": "forceTimelock",
          "type": "bool"
        }
      ],
      "name": "Deposit",
      "type": "event"
    },
    {
      "anonymous": false,
      "inputs": [
        {
          "indexed": true,
          "internalType": "uint256",
          "name": "vaultId",
          "type": "uint256"
        },
        {
          "indexed": true,
          "internalType": "uint256",
          "name": "positionId",
          "type": "uint256"
        },
        {
          "indexed": false,
          "internalType": "uint256[]",
          "name": "tokenIds",
          "type": "uint256[]"
        },
        {
          "indexed": false,
          "internalType": "uint256[]",
          "name": "amounts",
          "type": "uint256[]"
        }
      ],
      "name": "DepositWithNFT",
      "type": "event"
    },
    {
      "anonymous": false,
      "inputs": [
        {
          "indexed": true,
          "internalType": "uint256",
          "name": "vaultId",
          "type": "uint256"
        },
        {
          "indexed": true,
          "internalType": "uint256",
          "name": "positionId",
          "type": "uint256"
        },
        {
          "indexed": false,
          "internalType": "uint256",
          "name": "amount",
          "type": "uint256"
        }
      ],
      "name": "IncreasePosition",
      "type": "event"
    },
    {
      "anonymous": false,
      "inputs": [
        {
          "indexed": false,
          "internalType": "uint8",
          "name": "version",
          "type": "uint8"
        }
      ],
      "name": "Initialized",
      "type": "event"
    },
    {
      "anonymous": false,
      "inputs": [
        {
          "indexed": true,
          "internalType": "address",
          "name": "previousOwner",
          "type": "address"
        },
        {
          "indexed": true,
          "internalType": "address",
          "name": "newOwner",
          "type": "address"
        }
      ],
      "name": "OwnershipTransferred",
      "type": "event"
    },
    {
      "anonymous": false,
      "inputs": [
        {
          "indexed": false,
          "internalType": "address",
          "name": "addr",
          "type": "address"
        },
        {
          "indexed": false,
          "internalType": "bool",
          "name": "isGuardian",
          "type": "bool"
        }
      ],
      "name": "SetIsGuardian",
      "type": "event"
    },
    {
      "anonymous": false,
      "inputs": [
        {
          "indexed": false,
          "internalType": "uint256",
          "name": "lockId",
          "type": "uint256"
        },
        {
          "indexed": false,
          "internalType": "bool",
          "name": "paused",
          "type": "bool"
        }
      ],
      "name": "SetPaused",
      "type": "event"
    },
    {
      "anonymous": false,
      "inputs": [
        {
          "indexed": true,
          "internalType": "address",
          "name": "from",
          "type": "address"
        },
        {
          "indexed": true,
          "internalType": "address",
          "name": "to",
          "type": "address"
        },
        {
          "indexed": true,
          "internalType": "uint256",
          "name": "tokenId",
          "type": "uint256"
        }
      ],
      "name": "Transfer",
      "type": "event"
    },
    {
      "anonymous": false,
      "inputs": [
        {
          "indexed": false,
          "internalType": "uint256",
          "name": "newEarlyWithdrawPenaltyInWei",
          "type": "uint256"
        }
      ],
      "name": "UpdateEarlyWithdrawPenalty",
      "type": "event"
    },
    {
      "anonymous": false,
      "inputs": [
        {
          "indexed": false,
          "internalType": "uint256",
          "name": "newTimelock",
          "type": "uint256"
        }
      ],
      "name": "UpdateTimelock",
      "type": "event"
    },
    {
      "anonymous": false,
      "inputs": [
        {
          "indexed": true,
          "internalType": "uint256",
          "name": "positionId",
          "type": "uint256"
        },
        {
          "indexed": false,
          "internalType": "uint256",
          "name": "vTokenShares",
          "type": "uint256"
        },
        {
          "indexed": false,
          "internalType": "uint256",
          "name": "vTokenAmount",
          "type": "uint256"
        },
        {
          "indexed": false,
          "internalType": "uint256",
          "name": "wethAmount",
          "type": "uint256"
        }
      ],
      "name": "Withdraw",
      "type": "event"
    },
    {
      "inputs": [],
      "name": "DOMAIN_SEPARATOR",
      "outputs": [
        {
          "internalType": "bytes32",
          "name": "",
          "type": "bytes32"
        }
      ],
      "stateMutability": "view",
      "type": "function"
    },
    {
      "inputs": [],
      "name": "MINIMUM_LIQUIDITY",
      "outputs": [
        {
          "internalType": "uint256",
          "name": "",
          "type": "uint256"
        }
      ],
      "stateMutability": "view",
      "type": "function"
    },
    {
      "inputs": [],
      "name": "PERMIT2",
      "outputs": [
        {
          "internalType": "contract IPermitAllowanceTransfer",
          "name": "",
          "type": "address"
        }
      ],
      "stateMutability": "view",
      "type": "function"
    },
    {
      "inputs": [],
      "name": "PERMIT_TYPEHASH",
      "outputs": [
        {
          "internalType": "bytes32",
          "name": "",
          "type": "bytes32"
        }
      ],
      "stateMutability": "view",
      "type": "function"
    },
    {
      "inputs": [],
      "name": "WETH",
      "outputs": [
        {
          "internalType": "contract IWETH9",
          "name": "",
          "type": "address"
        }
      ],
      "stateMutability": "view",
      "type": "function"
    },
    {
      "inputs": [
        {
          "internalType": "uint256",
          "name": "timelock_",
          "type": "uint256"
        },
        {
          "internalType": "uint256",
          "name": "earlyWithdrawPenaltyInWei_",
          "type": "uint256"
        },
        {
          "internalType": "contract ITimelockExcludeList",
          "name": "timelockExcludeList_",
          "type": "address"
        },
        {
          "internalType": "contract InventoryStakingDescriptor",
          "name": "descriptor_",
          "type": "address"
        }
      ],
      "name": "__NFTXInventoryStaking_init",
      "outputs": [],
      "stateMutability": "nonpayable",
      "type": "function"
    },
    {
      "inputs": [
        {
          "internalType": "address",
          "name": "to",
          "type": "address"
        },
        {
          "internalType": "uint256",
          "name": "tokenId",
          "type": "uint256"
        }
      ],
      "name": "approve",
      "outputs": [],
      "stateMutability": "nonpayable",
      "type": "function"
    },
    {
      "inputs": [
        {
          "internalType": "address",
          "name": "owner",
          "type": "address"
        }
      ],
      "name": "balanceOf",
      "outputs": [
        {
          "internalType": "uint256",
          "name": "",
          "type": "uint256"
        }
      ],
      "stateMutability": "view",
      "type": "function"
    },
    {
      "inputs": [
        {
          "internalType": "uint256[]",
          "name": "positionIds",
          "type": "uint256[]"
        }
      ],
      "name": "collectWethFees",
      "outputs": [],
      "stateMutability": "nonpayable",
      "type": "function"
    },
    {
      "inputs": [
        {
          "internalType": "uint256",
          "name": "parentPositionId",
          "type": "uint256"
        },
        {
          "internalType": "uint256[]",
          "name": "childPositionIds",
          "type": "uint256[]"
        }
      ],
      "name": "combinePositions",
      "outputs": [],
      "stateMutability": "nonpayable",
      "type": "function"
    },
    {
      "inputs": [
        {
          "internalType": "uint256",
          "name": "vaultId",
          "type": "uint256"
        },
        {
          "internalType": "uint256",
          "name": "amount",
          "type": "uint256"
        },
        {
          "internalType": "address",
          "name": "recipient",
          "type": "address"
        },
        {
          "internalType": "bytes",
          "name": "encodedPermit2",
          "type": "bytes"
        },
        {
          "internalType": "bool",
          "name": "viaPermit2",
          "type": "bool"
        },
        {
          "internalType": "bool",
          "name": "forceTimelock",
          "type": "bool"
        }
      ],
      "name": "deposit",
      "outputs": [
        {
          "internalType": "uint256",
          "name": "positionId",
          "type": "uint256"
        }
      ],
      "stateMutability": "nonpayable",
      "type": "function"
    },
    {
      "inputs": [
        {
          "internalType": "uint256",
          "name": "vaultId",
          "type": "uint256"
        },
        {
          "internalType": "uint256[]",
          "name": "tokenIds",
          "type": "uint256[]"
        },
        {
          "internalType": "uint256[]",
          "name": "amounts",
          "type": "uint256[]"
        },
        {
          "internalType": "address",
          "name": "recipient",
          "type": "address"
        }
      ],
      "name": "depositWithNFT",
      "outputs": [
        {
          "internalType": "uint256",
          "name": "positionId",
          "type": "uint256"
        }
      ],
      "stateMutability": "nonpayable",
      "type": "function"
    },
    {
      "inputs": [],
      "name": "descriptor",
      "outputs": [
        {
          "internalType": "contract InventoryStakingDescriptor",
          "name": "",
          "type": "address"
        }
      ],
      "stateMutability": "view",
      "type": "function"
    },
    {
      "inputs": [],
      "name": "earlyWithdrawPenaltyInWei",
      "outputs": [
        {
          "internalType": "uint256",
          "name": "",
          "type": "uint256"
        }
      ],
      "stateMutability": "view",
      "type": "function"
    },
    {
      "inputs": [
        {
          "internalType": "uint256",
          "name": "tokenId",
          "type": "uint256"
        }
      ],
      "name": "getApproved",
      "outputs": [
        {
          "internalType": "address",
          "name": "",
          "type": "address"
        }
      ],
      "stateMutability": "view",
      "type": "function"
    },
    {
      "inputs": [
        {
          "internalType": "uint256",
          "name": "positionId",
          "type": "uint256"
        },
        {
          "internalType": "uint256",
          "name": "amount",
          "type": "uint256"
        },
        {
          "internalType": "bytes",
          "name": "encodedPermit2",
          "type": "bytes"
        },
        {
          "internalType": "bool",
          "name": "viaPermit2",
          "type": "bool"
        },
        {
          "internalType": "bool",
          "name": "forceTimelock",
          "type": "bool"
        }
      ],
      "name": "increasePosition",
      "outputs": [],
      "stateMutability": "nonpayable",
      "type": "function"
    },
    {
      "inputs": [
        {
          "internalType": "address",
          "name": "owner",
          "type": "address"
        },
        {
          "internalType": "address",
          "name": "operator",
          "type": "address"
        }
      ],
      "name": "isApprovedForAll",
      "outputs": [
        {
          "internalType": "bool",
          "name": "",
          "type": "bool"
        }
      ],
      "stateMutability": "view",
      "type": "function"
    },
    {
      "inputs": [
        {
          "internalType": "address",
          "name": "",
          "type": "address"
        }
      ],
      "name": "isGuardian",
      "outputs": [
        {
          "internalType": "bool",
          "name": "",
          "type": "bool"
        }
      ],
      "stateMutability": "view",
      "type": "function"
    },
    {
      "inputs": [
        {
          "internalType": "uint256",
          "name": "",
          "type": "uint256"
        }
      ],
      "name": "isPaused",
      "outputs": [
        {
          "internalType": "bool",
          "name": "",
          "type": "bool"
        }
      ],
      "stateMutability": "view",
      "type": "function"
    },
    {
      "inputs": [],
      "name": "name",
      "outputs": [
        {
          "internalType": "string",
          "name": "",
          "type": "string"
        }
      ],
      "stateMutability": "view",
      "type": "function"
    },
    {
      "inputs": [],
      "name": "nftxVaultFactory",
      "outputs": [
        {
          "internalType": "contract INFTXVaultFactoryV3",
          "name": "",
          "type": "address"
        }
      ],
      "stateMutability": "view",
      "type": "function"
    },
    {
      "inputs": [
        {
          "internalType": "address",
          "name": "",
          "type": "address"
        },
        {
          "internalType": "address",
          "name": "",
          "type": "address"
        },
        {
          "internalType": "uint256[]",
          "name": "",
          "type": "uint256[]"
        },
        {
          "internalType": "uint256[]",
          "name": "",
          "type": "uint256[]"
        },
        {
          "internalType": "bytes",
          "name": "",
          "type": "bytes"
        }
      ],
      "name": "onERC1155BatchReceived",
      "outputs": [
        {
          "internalType": "bytes4",
          "name": "",
          "type": "bytes4"
        }
      ],
      "stateMutability": "nonpayable",
      "type": "function"
    },
    {
      "inputs": [
        {
          "internalType": "address",
          "name": "",
          "type": "address"
        },
        {
          "internalType": "address",
          "name": "",
          "type": "address"
        },
        {
          "internalType": "uint256",
          "name": "",
          "type": "uint256"
        },
        {
          "internalType": "uint256",
          "name": "",
          "type": "uint256"
        },
        {
          "internalType": "bytes",
          "name": "",
          "type": "bytes"
        }
      ],
      "name": "onERC1155Received",
      "outputs": [
        {
          "internalType": "bytes4",
          "name": "",
          "type": "bytes4"
        }
      ],
      "stateMutability": "nonpayable",
      "type": "function"
    },
    {
      "inputs": [
        {
          "internalType": "uint256",
          "name": "lockId",
          "type": "uint256"
        }
      ],
      "name": "onlyOwnerIfPaused",
      "outputs": [],
      "stateMutability": "view",
      "type": "function"
    },
    {
      "inputs": [],
      "name": "owner",
      "outputs": [
        {
          "internalType": "address",
          "name": "",
          "type": "address"
        }
      ],
      "stateMutability": "view",
      "type": "function"
    },
    {
      "inputs": [
        {
          "internalType": "uint256",
          "name": "tokenId",
          "type": "uint256"
        }
      ],
      "name": "ownerOf",
      "outputs": [
        {
          "internalType": "address",
          "name": "",
          "type": "address"
        }
      ],
      "stateMutability": "view",
      "type": "function"
    },
    {
      "inputs": [
        {
          "internalType": "uint256",
          "name": "lockId",
          "type": "uint256"
        }
      ],
      "name": "pause",
      "outputs": [],
      "stateMutability": "nonpayable",
      "type": "function"
    },
    {
      "inputs": [
        {
          "internalType": "address",
          "name": "spender",
          "type": "address"
        },
        {
          "internalType": "uint256",
          "name": "tokenId",
          "type": "uint256"
        },
        {
          "internalType": "uint256",
          "name": "deadline",
          "type": "uint256"
        },
        {
          "internalType": "uint8",
          "name": "v",
          "type": "uint8"
        },
        {
          "internalType": "bytes32",
          "name": "r",
          "type": "bytes32"
        },
        {
          "internalType": "bytes32",
          "name": "s",
          "type": "bytes32"
        }
      ],
      "name": "permit",
      "outputs": [],
      "stateMutability": "payable",
      "type": "function"
    },
    {
      "inputs": [
        {
          "internalType": "uint256",
          "name": "",
          "type": "uint256"
        }
      ],
      "name": "positions",
      "outputs": [
        {
          "internalType": "uint256",
          "name": "nonce",
          "type": "uint256"
        },
        {
          "internalType": "uint256",
          "name": "vaultId",
          "type": "uint256"
        },
        {
          "internalType": "uint256",
          "name": "timelockedUntil",
          "type": "uint256"
        },
        {
          "internalType": "uint256",
          "name": "timelock",
          "type": "uint256"
        },
        {
          "internalType": "uint256",
          "name": "vTokenTimelockedUntil",
          "type": "uint256"
        },
        {
          "internalType": "uint256",
          "name": "vTokenShareBalance",
          "type": "uint256"
        },
        {
          "internalType": "uint256",
          "name": "wethFeesPerVTokenShareSnapshotX128",
          "type": "uint256"
        },
        {
          "internalType": "uint256",
          "name": "wethOwed",
          "type": "uint256"
        }
      ],
      "stateMutability": "view",
      "type": "function"
    },
    {
      "inputs": [
        {
          "internalType": "uint256",
          "name": "vaultId",
          "type": "uint256"
        }
      ],
      "name": "pricePerShareVToken",
      "outputs": [
        {
          "internalType": "uint256",
          "name": "",
          "type": "uint256"
        }
      ],
      "stateMutability": "view",
      "type": "function"
    },
    {
      "inputs": [
        {
          "internalType": "uint256",
          "name": "vaultId",
          "type": "uint256"
        },
        {
          "internalType": "uint256",
          "name": "wethAmount",
          "type": "uint256"
        }
      ],
      "name": "receiveWethRewards",
      "outputs": [
        {
          "internalType": "bool",
          "name": "rewardsDistributed",
          "type": "bool"
        }
      ],
      "stateMutability": "nonpayable",
      "type": "function"
    },
    {
      "inputs": [],
      "name": "renounceOwnership",
      "outputs": [],
      "stateMutability": "nonpayable",
      "type": "function"
    },
    {
      "inputs": [
        {
          "internalType": "address",
          "name": "from",
          "type": "address"
        },
        {
          "internalType": "address",
          "name": "to",
          "type": "address"
        },
        {
          "internalType": "uint256",
          "name": "tokenId",
          "type": "uint256"
        }
      ],
      "name": "safeTransferFrom",
      "outputs": [],
      "stateMutability": "nonpayable",
      "type": "function"
    },
    {
      "inputs": [
        {
          "internalType": "address",
          "name": "from",
          "type": "address"
        },
        {
          "internalType": "address",
          "name": "to",
          "type": "address"
        },
        {
          "internalType": "uint256",
          "name": "tokenId",
          "type": "uint256"
        },
        {
          "internalType": "bytes",
          "name": "data",
          "type": "bytes"
        }
      ],
      "name": "safeTransferFrom",
      "outputs": [],
      "stateMutability": "nonpayable",
      "type": "function"
    },
    {
      "inputs": [
        {
          "internalType": "address",
          "name": "operator",
          "type": "address"
        },
        {
          "internalType": "bool",
          "name": "approved",
          "type": "bool"
        }
      ],
      "name": "setApprovalForAll",
      "outputs": [],
      "stateMutability": "nonpayable",
      "type": "function"
    },
    {
      "inputs": [
        {
          "internalType": "contract InventoryStakingDescriptor",
          "name": "descriptor_",
          "type": "address"
        }
      ],
      "name": "setDescriptor",
      "outputs": [],
      "stateMutability": "nonpayable",
      "type": "function"
    },
    {
      "inputs": [
        {
          "internalType": "uint256",
          "name": "earlyWithdrawPenaltyInWei_",
          "type": "uint256"
        }
      ],
      "name": "setEarlyWithdrawPenalty",
      "outputs": [],
      "stateMutability": "nonpayable",
      "type": "function"
    },
    {
      "inputs": [
        {
          "internalType": "address",
          "name": "addr",
          "type": "address"
        },
        {
          "internalType": "bool",
          "name": "_isGuardian",
          "type": "bool"
        }
      ],
      "name": "setIsGuardian",
      "outputs": [],
      "stateMutability": "nonpayable",
      "type": "function"
    },
    {
      "inputs": [
        {
          "internalType": "uint256",
          "name": "timelock_",
          "type": "uint256"
        }
      ],
      "name": "setTimelock",
      "outputs": [],
      "stateMutability": "nonpayable",
      "type": "function"
    },
    {
      "inputs": [
        {
          "internalType": "bytes4",
          "name": "interfaceId",
          "type": "bytes4"
        }
      ],
      "name": "supportsInterface",
      "outputs": [
        {
          "internalType": "bool",
          "name": "",
          "type": "bool"
        }
      ],
      "stateMutability": "view",
      "type": "function"
    },
    {
      "inputs": [],
      "name": "symbol",
      "outputs": [
        {
          "internalType": "string",
          "name": "",
          "type": "string"
        }
      ],
      "stateMutability": "view",
      "type": "function"
    },
    {
      "inputs": [],
      "name": "timelock",
      "outputs": [
        {
          "internalType": "uint256",
          "name": "",
          "type": "uint256"
        }
      ],
      "stateMutability": "view",
      "type": "function"
    },
    {
      "inputs": [],
      "name": "timelockExcludeList",
      "outputs": [
        {
          "internalType": "contract ITimelockExcludeList",
          "name": "",
          "type": "address"
        }
      ],
      "stateMutability": "view",
      "type": "function"
    },
    {
      "inputs": [
        {
          "internalType": "uint256",
          "name": "index",
          "type": "uint256"
        }
      ],
      "name": "tokenByIndex",
      "outputs": [
        {
          "internalType": "uint256",
          "name": "",
          "type": "uint256"
        }
      ],
      "stateMutability": "view",
      "type": "function"
    },
    {
      "inputs": [
        {
          "internalType": "address",
          "name": "owner",
          "type": "address"
        },
        {
          "internalType": "uint256",
          "name": "index",
          "type": "uint256"
        }
      ],
      "name": "tokenOfOwnerByIndex",
      "outputs": [
        {
          "internalType": "uint256",
          "name": "",
          "type": "uint256"
        }
      ],
      "stateMutability": "view",
      "type": "function"
    },
    {
      "inputs": [
        {
          "internalType": "uint256",
          "name": "tokenId",
          "type": "uint256"
        }
      ],
      "name": "tokenURI",
      "outputs": [
        {
          "internalType": "string",
          "name": "",
          "type": "string"
        }
      ],
      "stateMutability": "view",
      "type": "function"
    },
    {
      "inputs": [],
      "name": "totalSupply",
      "outputs": [
        {
          "internalType": "uint256",
          "name": "",
          "type": "uint256"
        }
      ],
      "stateMutability": "view",
      "type": "function"
    },
    {
      "inputs": [
        {
          "internalType": "address",
          "name": "from",
          "type": "address"
        },
        {
          "internalType": "address",
          "name": "to",
          "type": "address"
        },
        {
          "internalType": "uint256",
          "name": "tokenId",
          "type": "uint256"
        }
      ],
      "name": "transferFrom",
      "outputs": [],
      "stateMutability": "nonpayable",
      "type": "function"
    },
    {
      "inputs": [
        {
          "internalType": "address",
          "name": "newOwner",
          "type": "address"
        }
      ],
      "name": "transferOwnership",
      "outputs": [],
      "stateMutability": "nonpayable",
      "type": "function"
    },
    {
      "inputs": [
        {
          "internalType": "uint256",
          "name": "lockId",
          "type": "uint256"
        }
      ],
      "name": "unpause",
      "outputs": [],
      "stateMutability": "nonpayable",
      "type": "function"
    },
    {
      "inputs": [
        {
          "internalType": "uint256",
          "name": "",
          "type": "uint256"
        }
      ],
      "name": "vaultGlobal",
      "outputs": [
        {
          "internalType": "uint256",
          "name": "totalVTokenShares",
          "type": "uint256"
        },
        {
          "internalType": "uint256",
          "name": "globalWethFeesPerVTokenShareX128",
          "type": "uint256"
        }
      ],
      "stateMutability": "view",
      "type": "function"
    },
    {
      "inputs": [
        {
          "internalType": "uint256",
          "name": "positionId",
          "type": "uint256"
        }
      ],
      "name": "wethBalance",
      "outputs": [
        {
          "internalType": "uint256",
          "name": "",
          "type": "uint256"
        }
      ],
      "stateMutability": "view",
      "type": "function"
    },
    {
      "inputs": [
        {
          "internalType": "uint256",
          "name": "positionId",
          "type": "uint256"
        },
        {
          "internalType": "uint256",
          "name": "vTokenShares",
          "type": "uint256"
        },
        {
          "internalType": "uint256[]",
          "name": "nftIds",
          "type": "uint256[]"
        },
        {
          "internalType": "uint256",
          "name": "vTokenPremiumLimit",
          "type": "uint256"
        }
      ],
      "name": "withdraw",
      "outputs": [],
      "stateMutability": "payable",
      "type": "function"
    },
    {
      "stateMutability": "payable",
      "type": "receive"
    }
  ],
  "transactionHash": "0xbe1e249025f5c8137e7255e8b0a70dc52d072f3dcef67304bc93773b3a479d4f",
  "args": [
    "0xC02aaA39b223FE8D0A0e5C4F27eAD9083C756Cc2",
    "0x000000000022d473030f116ddee9f6b43ac78ba3",
    "0xC255335bc5aBd6928063F5788a5E420554858f01"
  ],
  "numDeployments": 2,
  "solcInputHash": "8b30c1d58fca9913006d31ace2337b8f",
  "bytecode": "0x60e06040523480156200001157600080fd5b5060405162005e7938038062005e7983398101604081905262000034916200006b565b6001600160a01b0392831660805290821660a0521660c052620000bf565b6001600160a01b03811681146200006857600080fd5b50565b6000806000606084860312156200008157600080fd5b83516200008e8162000052565b6020850151909350620000a18162000052565b6040850151909250620000b48162000052565b809150509250925092565b60805160a05160c051615d2862000151600039600081816105fc01528181611151015281816113d7015281816119f701528181611f280152818161226f01528181612df501526132660152600081816106fa01528181612034015281816120ba0152818161237601526123fc0152600081816108c40152818161124b01528181611d8f0152612a020152615d286000f3fe60806040526004361061034e5760003560e01c80636afdd850116101bb578063b600b097116100f7578063cdd4475711610095578063eb9eb1ad1161006f578063eb9eb1ad14610abc578063f23a6e6114610adc578063f2fde38b14610b08578063fabc1cbc14610b2857600080fd5b8063cdd4475714610a3c578063d33219b414610a5c578063e985e9c514610a7357600080fd5b8063bc197c81116100d1578063bc197c8114610986578063bdf2a43c146109cb578063bea043f6146109fc578063c87b56dd14610a1c57600080fd5b8063b600b09714610906578063b88d4fde14610950578063ba9a7a561461097057600080fd5b80637c77b6161161016457806399fbab881161013e57806399fbab88146107f8578063a22cb46514610892578063ad5c4648146108b2578063b0c01e7c146108e657600080fd5b80637c77b616146107a45780638da5cb5b146107c457806395d89b41146107e357600080fd5b8063715018a611610195578063715018a61461075c57806379c06131146107715780637ac2ff7b1461079157600080fd5b80636afdd850146106e857806370a082311461071c57806370d11b661461073c57600080fd5b80632f745c591161028a5780633fe55a791161023357806357996e5a1161020d57806357996e5a1461067557806363217646146106955780636352211e146106b557806363617384146106d557600080fd5b80633fe55a791461061e57806342842e0e146106355780634f6ccce71461065557600080fd5b80633644e515116102645780633644e515146105b5578063370fb8e7146105ca5780633801daf1146105ea57600080fd5b80632f745c5914610540578063303e74df1461056057806330adf81f1461058157600080fd5b80630c68ba21116102f757806318160ddd116102d157806318160ddd146104cb5780631e891c0a146104e057806323845fb51461050057806323b872dd1461052057600080fd5b80630c68ba211461045957806311ad9d381461048a578063136439dd146104ab57600080fd5b806306fdde031161032857806306fdde03146103df578063081812fc14610401578063095ea7b31461043957600080fd5b806301059a1f1461035a57806301b9a3971461038d57806301ffc9a7146103af57600080fd5b3661035557005b600080fd5b34801561036657600080fd5b5061037a610375366004614dc4565b610b48565b6040519081526020015b60405180910390f35b34801561039957600080fd5b506103ad6103a8366004614df2565b610bfb565b005b3480156103bb57600080fd5b506103cf6103ca366004614e25565b610c4d565b6040519015158152602001610384565b3480156103eb57600080fd5b506103f4610c93565b6040516103849190614e9a565b34801561040d57600080fd5b5061042161041c366004614dc4565b610d25565b6040516001600160a01b039091168152602001610384565b34801561044557600080fd5b506103ad610454366004614eb8565b610d4c565b34801561046557600080fd5b506103cf610474366004614df2565b6101616020526000908152604090205460ff1681565b34801561049657600080fd5b5061019554610421906001600160a01b031681565b3480156104b757600080fd5b506103ad6104c6366004614dc4565b610e66565b3480156104d757600080fd5b5060995461037a565b3480156104ec57600080fd5b506103ad6104fb366004614dc4565b610ef0565b34801561050c57600080fd5b506103ad61051b366004614ef2565b610f52565b34801561052c57600080fd5b506103ad61053b366004614f2b565b610fbe565b34801561054c57600080fd5b5061037a61055b366004614eb8565b611035565b34801561056c57600080fd5b5061019b54610421906001600160a01b031681565b34801561058d57600080fd5b5061037a7f49ecf333e5b8c95c40fdafc95c1ad136e8914a8fb55e9dc8bb01eaa83a2df9ad81565b3480156105c157600080fd5b5061037a6110dd565b3480156105d657600080fd5b506103cf6105e5366004614f6c565b61114d565b3480156105f657600080fd5b506104217f000000000000000000000000000000000000000000000000000000000000000081565b34801561062a57600080fd5b5061037a6101985481565b34801561064157600080fd5b506103ad610650366004614f2b565b6112f3565b34801561066157600080fd5b5061037a610670366004614dc4565b61130e565b34801561068157600080fd5b5061037a610690366004614fda565b6113b2565b3480156106a157600080fd5b506103ad6106b0366004614dc4565b61185a565b3480156106c157600080fd5b506104216106d0366004614dc4565b6118c1565b6103ad6106e3366004615066565b611926565b3480156106f457600080fd5b506104217f000000000000000000000000000000000000000000000000000000000000000081565b34801561072857600080fd5b5061037a610737366004614df2565b611e6b565b34801561074857600080fd5b5061037a610757366004615103565b611f05565b34801561076857600080fd5b506103ad6121fd565b34801561077d57600080fd5b506103ad61078c366004615193565b612211565b6103ad61079f366004615201565b61253d565b3480156107b057600080fd5b506103ad6107bf366004614dc4565b612827565b3480156107d057600080fd5b5061012f546001600160a01b0316610421565b3480156107ef57600080fd5b506103f4612873565b34801561080457600080fd5b50610857610813366004614dc4565b610199602052600090815260409020805460018201546002830154600384015460048501546005860154600687015460079097015495969495939492939192909188565b604080519889526020890197909752958701949094526060860192909252608085015260a084015260c083015260e082015261010001610384565b34801561089e57600080fd5b506103ad6108ad366004614ef2565b612882565b3480156108be57600080fd5b506104217f000000000000000000000000000000000000000000000000000000000000000081565b3480156108f257600080fd5b506103ad610901366004615263565b612891565b34801561091257600080fd5b5061093b610921366004614dc4565b61019a602052600090815260409020805460019091015482565b60408051928352602083019190915201610384565b34801561095c57600080fd5b506103ad61096b3660046153b6565b612a77565b34801561097c57600080fd5b5061037a6103e881565b34801561099257600080fd5b506109b26109a13660046154a2565b63bc197c8160e01b95945050505050565b6040516001600160e01b03199091168152602001610384565b3480156109d757600080fd5b506103cf6109e6366004614dc4565b6101626020526000908152604090205460ff1681565b348015610a0857600080fd5b506103ad610a17366004615550565b612af5565b348015610a2857600080fd5b506103f4610a37366004614dc4565b612d72565b348015610a4857600080fd5b506103ad610a5736600461559c565b61300e565b348015610a6857600080fd5b5061037a6101975481565b348015610a7f57600080fd5b506103cf610a8e3660046155e6565b6001600160a01b039182166000908152606a6020908152604080832093909416825291909152205460ff1690565b348015610ac857600080fd5b5061037a610ad7366004614dc4565b61323f565b348015610ae857600080fd5b506109b2610af7366004615614565b63f23a6e6160e01b95945050505050565b348015610b1457600080fd5b506103ad610b23366004614df2565b613365565b348015610b3457600080fd5b506103ad610b43366004614dc4565b6133f2565b600081815261019960209081526040808320815161010081018352815481526001808301548286018190526002840154838601526003840154606084015260048401546080840152600584015460a08401908152600685015460c0850190815260079095015460e0850190815291885261019a87528588208651808801909752805487529092015495850186905251925190519194610be992909190613448565b610bf39190615693565b949350505050565b610c03613462565b6001600160a01b038116610c2a5760405163d92e233d60e01b815260040160405180910390fd5b61019b80546001600160a01b0319166001600160a01b0392909216919091179055565b60006001600160e01b03198216637c2be27160e01b1480610c7e57506001600160e01b031982166301ffc9a760e01b145b80610c8d5750610c8d826134bd565b92915050565b606060658054610ca2906156ab565b80601f0160208091040260200160405190810160405280929190818152602001828054610cce906156ab565b8015610d1b5780601f10610cf057610100808354040283529160200191610d1b565b820191906000526020600020905b815481529060010190602001808311610cfe57829003601f168201915b5050505050905090565b6000610d30826134e2565b506000908152606960205260409020546001600160a01b031690565b6000610d57826118c1565b9050806001600160a01b0316836001600160a01b031603610dc95760405162461bcd60e51b815260206004820152602160248201527f4552433732313a20617070726f76616c20746f2063757272656e74206f776e656044820152603960f91b60648201526084015b60405180910390fd5b336001600160a01b0382161480610de55750610de58133610a8e565b610e575760405162461bcd60e51b815260206004820152603d60248201527f4552433732313a20617070726f76652063616c6c6572206973206e6f7420746f60448201527f6b656e206f776e6572206f7220617070726f76656420666f7220616c6c0000006064820152608401610dc0565b610e618383613546565b505050565b336000908152610161602052604090205460ff16610e97576040516377b6878160e11b815260040160405180910390fd5b60008181526101626020908152604091829020805460ff191660019081179091558251848152918201527f77f1fcfcce67dc392d64f842056d2ec06c80986c47c910f7e79c5b23a2738d7491015b60405180910390a150565b610ef8613462565b62127500811115610f1c57604051632e3f1a4f60e11b815260040160405180910390fd5b6101978190556040518181527f3f47be1c59f91dd77b0405841040375182d63a17283ebd12d693eafc4f4cb0a490602001610ee5565b610f5a613462565b6001600160a01b03821660008181526101616020908152604091829020805460ff19168515159081179091558251938452908301527fd0b6b573d5442f7c29fd50d9735ae341581c25c6ed07748d50eda519f1ffa88a910160405180910390a15050565b610fc833826135b4565b61102a5760405162461bcd60e51b815260206004820152602d60248201527f4552433732313a2063616c6c6572206973206e6f7420746f6b656e206f776e6560448201526c1c881bdc88185c1c1c9bdd9959609a1b6064820152608401610dc0565b610e61838383613632565b600061104083611e6b565b82106110b45760405162461bcd60e51b815260206004820152602b60248201527f455243373231456e756d657261626c653a206f776e657220696e646578206f7560448201527f74206f6620626f756e64730000000000000000000000000000000000000000006064820152608401610dc0565b506001600160a01b03919091166000908152609760209081526040808320938352929052205490565b60007f8b73c3c69bb8fe3d512ecc4cf759cc79239f7b179b0ffacaa9a75d522b39400f60c95460ca5461110d4690565b604080516020810195909552840192909252606083015260808201523060a082015260c00160405160208183030381529060405280519060200120905090565b60007f00000000000000000000000000000000000000000000000000000000000000006001600160a01b0316630d43e8ad6040518163ffffffff1660e01b8152600401602060405180830381865afa1580156111ad573d6000803e3d6000fd5b505050506040513d601f19601f820116820180604052508101906111d191906156e5565b6001600160a01b0316336001600160a01b03161461120257604051632709c64960e01b815260040160405180910390fd5b600083815261019a6020526040902080546103e810611225576000915050610c8d565b6040516323b872dd60e01b815233600482015230602482015260448101849052600192507f00000000000000000000000000000000000000000000000000000000000000006001600160a01b0316906323b872dd906064016020604051808303816000875af115801561129c573d6000803e3d6000fd5b505050506040513d601f19601f820116820180604052508101906112c09190615702565b506112d483600160801b836000015461381f565b8160010160008282546112e79190615693565b90915550505092915050565b610e6183838360405180602001604052806000815250612a77565b600061131960995490565b821061138d5760405162461bcd60e51b815260206004820152602c60248201527f455243373231456e756d657261626c653a20676c6f62616c20696e646578206f60448201527f7574206f6620626f756e647300000000000000000000000000000000000000006064820152608401610dc0565b609982815481106113a0576113a061571f565b90600052602060002001549050919050565b60006113be6001612827565b6040516340d1b7db60e11b8152600481018890526000907f00000000000000000000000000000000000000000000000000000000000000006001600160a01b0316906381a36fb690602401602060405180830381865afa158015611426573d6000803e3d6000fd5b505050506040513d601f19601f8201168201806040525081019061144a91906156e5565b6040516370a0823160e01b81523060048201529091506000906001600160a01b038316906370a0823190602401602060405180830381865afa158015611494573d6000803e3d6000fd5b505050506040513d601f19601f820116820180604052508101906114b89190615735565b9050600080836001600160a01b0316631ba46cfd6040518163ffffffff1660e01b8152600401602060405180830381865afa1580156114fb573d6000803e3d6000fd5b505050506040513d601f19601f8201168201806040525081019061151f91906156e5565b9050836001600160a01b03166306f26dc26040518163ffffffff1660e01b8152600401602060405180830381865afa15801561155f573d6000803e3d6000fd5b505050506040513d601f19601f820116820180604052508101906115839190615702565b6115ca576115c581858c8c808060200260200160405190810160405280939291908181526020018383602002808284376000920191909152506138d292505050565b611695565b604051631759616b60e11b81526001600160a01b03821690632eb2c2d69061160090339030908f908f908f908f9060040161579d565b600060405180830381600087803b15801561161a57600080fd5b505af115801561162e573d6000803e3d6000fd5b505060405163a22cb46560e01b81526001600160a01b038781166004830152600160248301528416925063a22cb4659150604401600060405180830381600087803b15801561167c57600080fd5b505af1158015611690573d6000803e3d6000fd5b505050505b604051630cb343fd60e31b81526001600160a01b0385169063659a1fe8906116cb908d908d908d908d90339030906004016157fc565b6020604051808303816000875af11580156116ea573d6000803e3d6000fd5b505050506040513d601f19601f8201168201806040525081019061170e9190615735565b9150506117358561019660008154809291906117299061584a565b91905055955085613952565b60008a815261019a6020526040812090611750828486613aeb565b90506000610197549050604051806101000160405280600081526020018e815260200161177d8f84613b77565b8152602001828152602001600081526020018381526020018460010154815260200160008152506101996000898152602001908152602001600020600082015181600001556020820151816001015560408201518160020155606082015181600301556080820151816004015560a0820151816005015560c0820151816006015560e08201518160070155905050505050838a7fffaf213c5b1a211ae91a263fd12e9c9ccbdb0b771394ffc7d8ded18652d5d9ad8b8b8b8b6040516118459493929190615863565b60405180910390a35050509695505050505050565b611862613462565b670de0b6b3a764000081111561188b5760405163d4e762d360e01b815260040160405180910390fd5b6101988190556040518181527fe67adf0c7384bc9adca9b8731cce58f5152177d298f7daf243df4a702d2c75d790602001610ee5565b6000818152606760205260408120546001600160a01b031680610c8d5760405162461bcd60e51b815260206004820152601860248201527f4552433732313a20696e76616c696420746f6b656e20494400000000000000006044820152606401610dc0565b61192e613c08565b6119386002612827565b33611942866118c1565b6001600160a01b031614611969576040516370d645e360e01b815260040160405180910390fd5b60008581526101996020526040812060048101548291829182919042116119a35760405163774ae17d60e01b815260040160405180910390fd5b6005810154898110156119c957604051631cb441d960e21b815260040160405180910390fd5b6001820154600081815261019a60205260409081902090516340d1b7db60e11b8152600481018390529091907f00000000000000000000000000000000000000000000000000000000000000006001600160a01b0316906381a36fb690602401602060405180830381865afa158015611a46573d6000803e3d6000fd5b505050506040513d601f19601f82011682018060405250810190611a6a91906156e5565b82546040516370a0823160e01b8152306004820152919950915081908d906001600160a01b038b16906370a0823190602401602060405180830381865afa158015611ab9573d6000803e3d6000fd5b505050506040513d601f19601f82011682018060405250810190611add9190615735565b611ae7919061588a565b611af191906158a9565b96506000826001015490508460070154611b1082876006015487613448565b611b1a9190615693565b60068601919091556000600786015560028501549096509450428510611b91576000670de0b6b3a76400008560030154611b54919061588a565b6101985489611b63428a6158cb565b611b6d919061588a565b611b77919061588a565b611b8191906158a9565b9050611b8d81896158cb565b9750505b611b9b8c826158cb565b82556005840180548d9190600090611bb49084906158cb565b909155508a94505083159250611d00915050576000611bdb670de0b6b3a76400008361588a565b905080851015611bfe57604051637ba9ca1b60e01b815260040160405180910390fd5b808503858214611c7b5760405163a9059cbb60e01b8152336004820152602481018290526001600160a01b0388169063a9059cbb906044016020604051808303816000875af1158015611c55573d6000803e3d6000fd5b505050506040513d601f19601f82011682018060405250810190611c799190615702565b505b506040516314b7e24f60e11b81526001600160a01b0387169063296fc49e903490611cb6908d908d9033906000908f908c15906004016158e2565b60206040518083038185885af1158015611cd4573d6000803e3d6000fd5b50505050506040513d601f19601f82011682018060405250810190611cf99190615735565b5050611d73565b60405163a9059cbb60e01b8152336004820152602481018590526001600160a01b0386169063a9059cbb906044016020604051808303816000875af1158015611d4d573d6000803e3d6000fd5b505050506040513d601f19601f82011682018060405250810190611d719190615702565b505b60405163a9059cbb60e01b8152336004820152602481018490527f00000000000000000000000000000000000000000000000000000000000000006001600160a01b03169063a9059cbb906044016020604051808303816000875af1158015611de0573d6000803e3d6000fd5b505050506040513d601f19601f82011682018060405250810190611e049190615702565b5047611e103382613c63565b604080518b8152602081018790529081018590528b907fb088a38065873c9d2da855cf4a2e4aa012b28e45ead53c5b9edbcf71614cfb239060600160405180910390a2505050505050611e64600161016355565b5050505050565b60006001600160a01b038216611ee95760405162461bcd60e51b815260206004820152602960248201527f4552433732313a2061646472657373207a65726f206973206e6f74206120766160448201527f6c6964206f776e657200000000000000000000000000000000000000000000006064820152608401610dc0565b506001600160a01b031660009081526068602052604090205490565b6040516340d1b7db60e11b81526004810188905260009081906001600160a01b037f000000000000000000000000000000000000000000000000000000000000000016906381a36fb690602401602060405180830381865afa158015611f6f573d6000803e3d6000fd5b505050506040513d601f19601f82011682018060405250810190611f9391906156e5565b60008a815261019a602052604080822090516370a0823160e01b8152306004820152929350916001600160a01b038416906370a0823190602401602060405180830381865afa158015611fea573d6000803e3d6000fd5b505050506040513d601f19601f8201168201806040525081019061200e9190615735565b905085156121675786156120b8576000808061202c8a8c018c61593c565b9250925092507f00000000000000000000000000000000000000000000000000000000000000006001600160a01b0316632b67b5708484846040518463ffffffff1660e01b815260040161208293929190615a28565b600060405180830381600087803b15801561209c57600080fd5b505af11580156120b0573d6000803e3d6000fd5b505050505050505b7f00000000000000000000000000000000000000000000000000000000000000006001600160a01b03166336c7851633306120f28e613cdf565b6040516001600160e01b031960e086901b1681526001600160a01b0393841660048201529183166024830152821660448201529086166064820152608401600060405180830381600087803b15801561214a57600080fd5b505af115801561215e573d6000803e3d6000fd5b505050506121e0565b6040516323b872dd60e01b8152336004820152306024820152604481018b90526001600160a01b038416906323b872dd906064016020604051808303816000875af11580156121ba573d6000803e3d6000fd5b505050506040513d601f19601f820116820180604052508101906121de9190615702565b505b6121ee8b8b8b85858a613cfa565b9b9a5050505050505050505050565b612205613462565b61220f6000613e5a565b565b3361221b876118c1565b6001600160a01b031614612242576040516370d645e360e01b815260040160405180910390fd5b60008681526101996020526040808220600181015491516340d1b7db60e11b8152600481018390529092907f00000000000000000000000000000000000000000000000000000000000000006001600160a01b0316906381a36fb690602401602060405180830381865afa1580156122be573d6000803e3d6000fd5b505050506040513d601f19601f820116820180604052508101906122e291906156e5565b6040516370a0823160e01b81523060048201529091506000906001600160a01b038316906370a0823190602401602060405180830381865afa15801561232c573d6000803e3d6000fd5b505050506040513d601f19601f820116820180604052508101906123509190615735565b905085156124a95786156123fa576000808061236e8a8c018c61593c565b9250925092507f00000000000000000000000000000000000000000000000000000000000000006001600160a01b0316632b67b5708484846040518463ffffffff1660e01b81526004016123c493929190615a28565b600060405180830381600087803b1580156123de57600080fd5b505af11580156123f2573d6000803e3d6000fd5b505050505050505b7f00000000000000000000000000000000000000000000000000000000000000006001600160a01b03166336c7851633306124348d613cdf565b6040516001600160e01b031960e086901b1681526001600160a01b0393841660048201529183166024830152821660448201529085166064820152608401600060405180830381600087803b15801561248c57600080fd5b505af11580156124a0573d6000803e3d6000fd5b50505050612522565b6040516323b872dd60e01b8152336004820152306024820152604481018a90526001600160a01b038316906323b872dd906064016020604051808303816000875af11580156124fc573d6000803e3d6000fd5b505050506040513d601f19601f820116820180604052508101906125209190615702565b505b6125308a85858c858a613ead565b505050505b505050505050565b8342111561255e5760405163068568f360e21b815260040160405180910390fd5b60006125686110dd565b7f49ecf333e5b8c95c40fdafc95c1ad136e8914a8fb55e9dc8bb01eaa83a2df9ad888861259481613fab565b6040805160208101959095526001600160a01b03909316928401929092526060830152608082015260a0810187905260c0016040516020818303038152906040528051906020012060405160200161260392919061190160f01b81526002810192909252602282015260420190565b6040516020818303038152906040528051906020012090506000612626876118c1565b9050806001600160a01b0316886001600160a01b03160361265a5760405163250fdee360e21b815260040160405180910390fd5b6001600160a01b0381163b1561275857604080516020810186905280820185905260f887901b7fff00000000000000000000000000000000000000000000000000000000000000166060820152815160418183030181526061820192839052630b135d3f60e11b9092526001600160a01b03831691631626ba7e916126e3918691606501615a9d565b602060405180830381865afa158015612700573d6000803e3d6000fd5b505050506040513d601f19601f820116820180604052508101906127249190615ab6565b6001600160e01b031916631626ba7e60e01b14612753576040516282b42960e81b815260040160405180910390fd5b612813565b6040805160008082526020820180845285905260ff881692820192909252606081018690526080810185905260019060a0016020604051602081039080840390855afa1580156127ac573d6000803e3d6000fd5b5050604051601f1901519150506001600160a01b0381166127e057604051638baa579f60e01b815260040160405180910390fd5b816001600160a01b0316816001600160a01b031614612811576040516282b42960e81b815260040160405180910390fd5b505b61281d8888613546565b5050505050505050565b6000818152610162602052604090205460ff168015612852575061012f546001600160a01b03163314155b15612870576040516313d0ff5960e31b815260040160405180910390fd5b50565b606060668054610ca2906156ab565b61288d338383613fd1565b5050565b61289b6003612827565b60008082815b818110156129e557336128cb8787848181106128bf576128bf61571f565b905060200201356118c1565b6001600160a01b0316146128f2576040516370d645e360e01b815260040160405180910390fd5b6000610199600088888581811061290b5761290b61571f565b9050602002013581526020019081526020016000209050600061019a6000836001015481526020019081526020016000209050600081600101549050826007015461295f8285600601548660050154613448565b6129699190615693565b95506129758688615693565b600684018290556000600785015596508888858181106129975761299761571f565b905060200201357f5821803eb90af20f50dd58fa8b54dcd4a6979ed2c3d8dc6d13ef91a6df56a7eb876040516129cf91815260200190565b60405180910390a28360010193505050506128a1565b5060405163a9059cbb60e01b8152336004820152602481018490527f00000000000000000000000000000000000000000000000000000000000000006001600160a01b03169063a9059cbb906044016020604051808303816000875af1158015612a53573d6000803e3d6000fd5b505050506040513d601f19601f820116820180604052508101906125359190615702565b612a8133836135b4565b612ae35760405162461bcd60e51b815260206004820152602d60248201527f4552433732313a2063616c6c6572206973206e6f7420746f6b656e206f776e6560448201526c1c881bdc88185c1c1c9bdd9959609a1b6064820152608401610dc0565b612aef8484848461409f565b50505050565b33612aff846118c1565b6001600160a01b031614612b26576040516370d645e360e01b815260040160405180910390fd5b600083815261019960209081526040808320600181015480855261019a9093529220600283015442111580612b5f575082600401544211155b15612b7d5760405163774ae17d60e01b815260040160405180910390fd5b600181015460058401546006850154600090612b9b90849084613448565b90508660005b81811015612cff578a8a8a83818110612bbc57612bbc61571f565b9050602002013503612be15760405163b137a05d60e01b815260040160405180910390fd5b33612bf78b8b848181106128bf576128bf61571f565b6001600160a01b031614612c1e576040516370d645e360e01b815260040160405180910390fd5b600061019960008c8c85818110612c3757612c3761571f565b9050602002013581526020019081526020016000209050806002015442111580612c65575080600401544211155b15612c835760405163774ae17d60e01b815260040160405180910390fd5b87816001015414612ca7576040516318a0f2d160e01b815260040160405180910390fd5b600581015460078201546006830154612cc290899084613448565b612ccc9190615693565b612cd69086615693565b9450612ce28187615693565b600060058401819055600790930192909255509350600101612ba1565b506006870184905560058701839055600787018054839190600090612d25908490615693565b90915550506040517f6f4cc9f47f88d84b52fc77a6b3639c0dffdf46cd2521e1a371272b614fdf8e2d90612d5e908c908c908c90615ad3565b60405180910390a150505050505050505050565b60008181526101996020908152604080832081516101008101835281548152600182015493810184905260028201548184015260038201546060808301919091526004808401546080840152600584015460a0840152600684015460c084015260079093015460e083015292516340d1b7db60e11b8152918201939093529092907f00000000000000000000000000000000000000000000000000000000000000006001600160a01b0316906381a36fb690602401602060405180830381865afa158015612e44573d6000803e3d6000fd5b505050506040513d601f19601f82011682018060405250810190612e6891906156e5565b602083810151600090815261019a90915260408082205460a086015191516370a0823160e01b815230600482015293945091926001600160a01b038516906370a0823190602401602060405180830381865afa158015612ecc573d6000803e3d6000fd5b505050506040513d601f19601f82011682018060405250810190612ef09190615735565b612efa919061588a565b612f0491906158a9565b90506000826001600160a01b03166395d89b416040518163ffffffff1660e01b8152600401600060405180830381865afa158015612f46573d6000803e3d6000fd5b505050506040513d6000823e601f3d908101601f19168201604052612f6e9190810190615af6565b61019b5460208601519192506001600160a01b03169063b23d5ca1908890868587612f9885610b48565b8b604001516040518863ffffffff1660e01b8152600401612fbf9796959493929190615b64565b600060405180830381865afa158015612fdc573d6000803e3d6000fd5b505050506040513d6000823e601f3d908101601f191682016040526130049190810190615af6565b9695505050505050565b600054610100900460ff161580801561302e5750600054600160ff909116105b806130485750303b158015613048575060005460ff166001145b6130ba5760405162461bcd60e51b815260206004820152602e60248201527f496e697469616c697a61626c653a20636f6e747261637420697320616c72656160448201527f647920696e697469616c697a65640000000000000000000000000000000000006064820152608401610dc0565b6000805460ff1916600117905580156130dd576000805461ff0019166101001790555b6131526040518060400160405280601681526020017f4e46545820496e76656e746f7279205374616b696e6700000000000000000000815250604051806040016040528060048152602001631e13919560e21b815250604051806040016040528060018152602001603160f81b815250614128565b61315a6141b6565b613162614229565b6212750085111561318657604051632e3f1a4f60e11b815260040160405180910390fd5b670de0b6b3a76400008411156131af5760405163d4e762d360e01b815260040160405180910390fd5b61019785905561019884905561019580546001600160a01b038086166001600160a01b03199283161790925561019b8054928516929091169190911790556001610196558015611e64576000805461ff0019169055604051600181527f7f26b83ff96e1f2b6a682f133852f6798a09c465da95921460cefb38474024989060200160405180910390a15050505050565b600081815261019a602052604080822090516340d1b7db60e11b81526004810184905282907f00000000000000000000000000000000000000000000000000000000000000006001600160a01b0316906381a36fb690602401602060405180830381865afa1580156132b5573d6000803e3d6000fd5b505050506040513d601f19601f820116820180604052508101906132d991906156e5565b82546040516370a0823160e01b815230600482015291925090670de0b6b3a7640000906001600160a01b038416906370a0823190602401602060405180830381865afa15801561332d573d6000803e3d6000fd5b505050506040513d601f19601f820116820180604052508101906133519190615735565b61335b919061588a565b610bf391906158a9565b61336d613462565b6001600160a01b0381166133e95760405162461bcd60e51b815260206004820152602660248201527f4f776e61626c653a206e6577206f776e657220697320746865207a65726f206160448201527f64647265737300000000000000000000000000000000000000000000000000006064820152608401610dc0565b61287081613e5a565b6133fa613462565b600081815261016260209081526040808320805460ff191690558051848152918201929092527f77f1fcfcce67dc392d64f842056d2ec06c80986c47c910f7e79c5b23a2738d749101610ee5565b6000610bf361345784866158cb565b83600160801b61381f565b61012f546001600160a01b0316331461220f5760405162461bcd60e51b815260206004820181905260248201527f4f776e61626c653a2063616c6c6572206973206e6f7420746865206f776e65726044820152606401610dc0565b60006001600160e01b03198216630271189760e51b1480610c8d5750610c8d8261429c565b6000818152606760205260409020546001600160a01b03166128705760405162461bcd60e51b815260206004820152601860248201527f4552433732313a20696e76616c696420746f6b656e20494400000000000000006044820152606401610dc0565b600081815260696020526040902080546001600160a01b0319166001600160a01b038416908117909155819061357b826118c1565b6001600160a01b03167f8c5be1e5ebec7d5bd14f71427d1e84f3dd0314c0f7b2291e5b200ac8c7c3b92560405160405180910390a45050565b6000806135c0836118c1565b9050806001600160a01b0316846001600160a01b0316148061360757506001600160a01b038082166000908152606a602090815260408083209388168352929052205460ff165b80610bf35750836001600160a01b031661362084610d25565b6001600160a01b031614949350505050565b826001600160a01b0316613645826118c1565b6001600160a01b0316146136a95760405162461bcd60e51b815260206004820152602560248201527f4552433732313a207472616e736665722066726f6d20696e636f72726563742060448201526437bbb732b960d91b6064820152608401610dc0565b6001600160a01b03821661370b5760405162461bcd60e51b8152602060048201526024808201527f4552433732313a207472616e7366657220746f20746865207a65726f206164646044820152637265737360e01b6064820152608401610dc0565b61371883838360016142c1565b826001600160a01b031661372b826118c1565b6001600160a01b03161461378f5760405162461bcd60e51b815260206004820152602560248201527f4552433732313a207472616e736665722066726f6d20696e636f72726563742060448201526437bbb732b960d91b6064820152608401610dc0565b600081815260696020908152604080832080546001600160a01b03199081169091556001600160a01b0387811680865260688552838620805460001901905590871680865283862080546001019055868652606790945282852080549092168417909155905184937fddf252ad1be2c89b69c2b068fc378daa952ba7f163c4a11628f55a4df523b3ef91a4505050565b6000808060001985870985870292508281108382030391505080600003613858576000841161384d57600080fd5b5082900490506138cb565b80841161386457600080fd5b6000848688096000868103871696879004966002600389028118808a02820302808a02820302808a02820302808a02820302808a02820302808a02909103029181900381900460010186841190950394909402919094039290920491909117919091029150505b9392505050565b60005b8151811015612aef57613902848383815181106138f4576138f461571f565b602002602001015185614402565b73b47e3cd837ddf8e4c57f05d70ab865de6e193bba196001600160a01b0385160161394a5761394a82828151811061393c5761393c61571f565b6020026020010151846146d9565b6001016138d5565b6001600160a01b0382166139a85760405162461bcd60e51b815260206004820181905260248201527f4552433732313a206d696e7420746f20746865207a65726f20616464726573736044820152606401610dc0565b6000818152606760205260409020546001600160a01b031615613a0d5760405162461bcd60e51b815260206004820152601c60248201527f4552433732313a20746f6b656e20616c7265616479206d696e746564000000006044820152606401610dc0565b613a1b6000838360016142c1565b6000818152606760205260409020546001600160a01b031615613a805760405162461bcd60e51b815260206004820152601c60248201527f4552433732313a20746f6b656e20616c7265616479206d696e746564000000006044820152606401610dc0565b6001600160a01b038216600081815260686020908152604080832080546001019055848352606790915280822080546001600160a01b0319168417905551839291907fddf252ad1be2c89b69c2b068fc378daa952ba7f163c4a11628f55a4df523b3ef908290a45050565b8254600090808203613b2a576103e8841015613b1a5760405163b647069760e01b815260040160405180910390fd5b50506103e71982016103e8613b42565b82613b35828661588a565b613b3f91906158a9565b91505b81600003613b635760405163f0c46d1760e01b815260040160405180910390fd5b613b6d8282615693565b9094559392505050565b610195546040516340f4bdb360e11b8152336004820152602481018490526000916001600160a01b0316906381e97b6690604401602060405180830381865afa158015613bc8573d6000803e3d6000fd5b505050506040513d601f19601f82011682018060405250810190613bec9190615702565b613bff57613bfa8242615693565b6138cb565b60009392505050565b60026101635403613c5b5760405162461bcd60e51b815260206004820152601f60248201527f5265656e7472616e637947756172643a207265656e7472616e742063616c6c006044820152606401610dc0565b600261016355565b6000826001600160a01b03168260405160006040518083038185875af1925050503d8060008114613cb0576040519150601f19603f3d011682016040523d82523d6000602084013e613cb5565b606091505b5050905080610e615760405163260e7d5b60e11b815260040160405180910390fd5b600161016355565b806001600160a01b0381168114613cf557600080fd5b919050565b6000613d066000612827565b6101968054613d29918791906000613d1d8361584a565b91905055925082613952565b6000613d36858886613aeb565b90506000610197549050604051806101000160405280600081526020018a815260200185613d65576000613d6f565b613d6f8342615693565b815260208101839052604001613d87610e1042615693565b81526020018381526020018760010154815260200160008152506101996000858152602001908152602001600020600082015181600001556020820151816001015560408201518160020155606082015181600301556080820151816004015560a0820151816005015560c0820151816006015560e0820151816007015590505082897f5fc1969282221ae2f47da3b2a94da4050d0a7560d8b339ed564c10b553e3257f8a87604051613e469291909182521515602082015260400190565b60405180910390a350509695505050505050565b61012f80546001600160a01b038381166001600160a01b0319831681179093556040519116919082907f8be0079c531659141344cd1fd0a4f28419497f9722a3daafe3b4186f6b6457e090600090a35050565b613eb76004612827565b600285015415613eda57604051630fca944760e31b815260040160405180910390fd5b600084815261019a602052604090206001810154600587015460078801546006890154613f0990849084613448565b613f139190615693565b600789015560068801829055613f2a838787613aeb565b613f349082615693565b60058901558315613f585761019754613f4d8142615693565b60028a015560038901555b613f64610e1042615693565b6004890155604051868152899088907f815e6315628bb7b8698b390413fee535126352d4a4310b9d2937dc644ef1d7669060200160405180910390a3505050505050505050565b60008181526101996020526040812080549082613fc78361584a565b9091555092915050565b816001600160a01b0316836001600160a01b0316036140325760405162461bcd60e51b815260206004820152601960248201527f4552433732313a20617070726f766520746f2063616c6c6572000000000000006044820152606401610dc0565b6001600160a01b038381166000818152606a6020908152604080832094871680845294825291829020805460ff191686151590811790915591519182527f17307eab39ab6107e8899845ad3d59bd9653f200f220920489ca2b5937696c31910160405180910390a3505050565b6140aa848484613632565b6140b6848484846147ba565b612aef5760405162461bcd60e51b815260206004820152603260248201527f4552433732313a207472616e7366657220746f206e6f6e20455243373231526560448201527f63656976657220696d706c656d656e74657200000000000000000000000000006064820152608401610dc0565b600054610100900460ff166141935760405162461bcd60e51b815260206004820152602b60248201527f496e697469616c697a61626c653a20636f6e7472616374206973206e6f74206960448201526a6e697469616c697a696e6760a81b6064820152608401610dc0565b61419d8383614911565b825160209384012060c955805192019190912060ca5550565b600054610100900460ff166142215760405162461bcd60e51b815260206004820152602b60248201527f496e697469616c697a61626c653a20636f6e7472616374206973206e6f74206960448201526a6e697469616c697a696e6760a81b6064820152608401610dc0565b61220f614986565b600054610100900460ff166142945760405162461bcd60e51b815260206004820152602b60248201527f496e697469616c697a61626c653a20636f6e7472616374206973206e6f74206960448201526a6e697469616c697a696e6760a81b6064820152608401610dc0565b61220f6149f9565b60006001600160e01b0319821663780e9d6360e01b1480610c8d5750610c8d82614a64565b6142cd84848484614ab4565b60018111156143445760405162461bcd60e51b815260206004820152603560248201527f455243373231456e756d657261626c653a20636f6e736563757469766520747260448201527f616e7366657273206e6f7420737570706f7274656400000000000000000000006064820152608401610dc0565b816001600160a01b0385166143a05761439b81609980546000838152609a60205260408120829055600182018355919091527f72a152ddfb8e864297c917af52ea6c1c68aead0fee1a62673fcc7e0c94979d000155565b6143c3565b836001600160a01b0316856001600160a01b0316146143c3576143c38582614b3c565b6001600160a01b0384166143df576143da81614bd9565b611e64565b846001600160a01b0316846001600160a01b031614611e6457611e648482614c88565b60606001600160a01b03841673b47e3cd837ddf8e4c57f05d70ab865de6e193bbb1480159061444e57506001600160a01b0384167306012c8cf97bead5deae237070f9587f8e7a266d14155b156144a6576040513360248201526001600160a01b03831660448201526064810184905260840160408051601f198184030181529190526020810180516001600160e01b0316632142170760e11b179052905061464e565b73b47e3cd837ddf8e4c57f05d70ab865de6e193bba196001600160a01b03851601614608576000836040516024016144e091815260200190565b60408051601f198184030181529181526020820180516001600160e01b0316630b02f02d60e31b17905251909150600090819073b47e3cd837ddf8e4c57f05d70ab865de6e193bbb90614534908590615bb1565b600060405180830381855afa9150503d806000811461456f576040519150601f19603f3d011682016040523d82523d6000602084013e614574565b606091505b509150915060008180602001905181019061458f91906156e5565b90508215806145a757506001600160a01b0381163314155b156145c557604051631022318760e21b815260040160405180910390fd5b6040516024810188905260440160408051601f198184030181529190526020810180516001600160e01b031663104c9fd360e31b179052945061464e9350505050565b6040513360248201523060448201526064810184905260840160408051601f198184030181529190526020810180516001600160e01b03166323b872dd60e01b17905290505b600080856001600160a01b0316836040516146699190615bb1565b6000604051808303816000865af19150503d80600081146146a6576040519150601f19603f3d011682016040523d82523d6000602084013e6146ab565b606091505b50915091508181906146d05760405162461bcd60e51b8152600401610dc09190614e9a565b50505050505050565b604051602481018390526000604482018190526001600160a01b03831660648301529060840160408051601f198184030181529181526020820180516001600160e01b031663bf31196f60e01b17905251909150600090819073b47e3cd837ddf8e4c57f05d70ab865de6e193bbb90614753908590615bb1565b6000604051808303816000865af19150503d8060008114614790576040519150601f19603f3d011682016040523d82523d6000602084013e614795565b606091505b50915091508181906125355760405162461bcd60e51b8152600401610dc09190614e9a565b60006001600160a01b0384163b1561490657604051630a85bd0160e11b81526001600160a01b0385169063150b7a02906147fe903390899088908890600401615bcd565b6020604051808303816000875af1925050508015614839575060408051601f3d908101601f1916820190925261483691810190615ab6565b60015b6148ec573d808015614867576040519150601f19603f3d011682016040523d82523d6000602084013e61486c565b606091505b5080516000036148e45760405162461bcd60e51b815260206004820152603260248201527f4552433732313a207472616e7366657220746f206e6f6e20455243373231526560448201527f63656976657220696d706c656d656e74657200000000000000000000000000006064820152608401610dc0565b805181602001fd5b6001600160e01b031916630a85bd0160e11b149050610bf3565b506001949350505050565b600054610100900460ff1661497c5760405162461bcd60e51b815260206004820152602b60248201527f496e697469616c697a61626c653a20636f6e7472616374206973206e6f74206960448201526a6e697469616c697a696e6760a81b6064820152608401610dc0565b61288d8282614ccc565b600054610100900460ff166149f15760405162461bcd60e51b815260206004820152602b60248201527f496e697469616c697a61626c653a20636f6e7472616374206973206e6f74206960448201526a6e697469616c697a696e6760a81b6064820152608401610dc0565b61220f614d50565b600054610100900460ff16613cd75760405162461bcd60e51b815260206004820152602b60248201527f496e697469616c697a61626c653a20636f6e7472616374206973206e6f74206960448201526a6e697469616c697a696e6760a81b6064820152608401610dc0565b60006001600160e01b031982166380ac58cd60e01b1480614a9557506001600160e01b03198216635b5e139f60e01b145b80610c8d57506301ffc9a760e01b6001600160e01b0319831614610c8d565b6001811115612aef576001600160a01b03841615614afa576001600160a01b03841660009081526068602052604081208054839290614af49084906158cb565b90915550505b6001600160a01b03831615612aef576001600160a01b03831660009081526068602052604081208054839290614b31908490615693565b909155505050505050565b60006001614b4984611e6b565b614b5391906158cb565b600083815260986020526040902054909150808214614ba6576001600160a01b03841660009081526097602090815260408083208584528252808320548484528184208190558352609890915290208190555b5060009182526098602090815260408084208490556001600160a01b039094168352609781528383209183525290812055565b609954600090614beb906001906158cb565b6000838152609a602052604081205460998054939450909284908110614c1357614c1361571f565b906000526020600020015490508060998381548110614c3457614c3461571f565b6000918252602080832090910192909255828152609a90915260408082208490558582528120556099805480614c6c57614c6c615bff565b6001900381819060005260206000200160009055905550505050565b6000614c9383611e6b565b6001600160a01b039093166000908152609760209081526040808320868452825280832085905593825260989052919091209190915550565b600054610100900460ff16614d375760405162461bcd60e51b815260206004820152602b60248201527f496e697469616c697a61626c653a20636f6e7472616374206973206e6f74206960448201526a6e697469616c697a696e6760a81b6064820152608401610dc0565b6065614d438382615c5b565b506066610e618282615c5b565b600054610100900460ff16614dbb5760405162461bcd60e51b815260206004820152602b60248201527f496e697469616c697a61626c653a20636f6e7472616374206973206e6f74206960448201526a6e697469616c697a696e6760a81b6064820152608401610dc0565b61220f33613e5a565b600060208284031215614dd657600080fd5b5035919050565b6001600160a01b038116811461287057600080fd5b600060208284031215614e0457600080fd5b81356138cb81614ddd565b6001600160e01b03198116811461287057600080fd5b600060208284031215614e3757600080fd5b81356138cb81614e0f565b60005b83811015614e5d578181015183820152602001614e45565b83811115612aef5750506000910152565b60008151808452614e86816020860160208601614e42565b601f01601f19169290920160200192915050565b6020815260006138cb6020830184614e6e565b8035613cf581614ddd565b60008060408385031215614ecb57600080fd5b8235614ed681614ddd565b946020939093013593505050565b801515811461287057600080fd5b60008060408385031215614f0557600080fd5b8235614f1081614ddd565b91506020830135614f2081614ee4565b809150509250929050565b600080600060608486031215614f4057600080fd5b8335614f4b81614ddd565b92506020840135614f5b81614ddd565b929592945050506040919091013590565b60008060408385031215614f7f57600080fd5b50508035926020909101359150565b60008083601f840112614fa057600080fd5b50813567ffffffffffffffff811115614fb857600080fd5b6020830191508360208260051b8501011115614fd357600080fd5b9250929050565b60008060008060008060808789031215614ff357600080fd5b86359550602087013567ffffffffffffffff8082111561501257600080fd5b61501e8a838b01614f8e565b9097509550604089013591508082111561503757600080fd5b5061504489828a01614f8e565b909450925050606087013561505881614ddd565b809150509295509295509295565b60008060008060006080868803121561507e57600080fd5b8535945060208601359350604086013567ffffffffffffffff8111156150a357600080fd5b6150af88828901614f8e565b96999598509660600135949350505050565b60008083601f8401126150d357600080fd5b50813567ffffffffffffffff8111156150eb57600080fd5b602083019150836020828501011115614fd357600080fd5b600080600080600080600060c0888a03121561511e57600080fd5b8735965060208801359550604088013561513781614ddd565b9450606088013567ffffffffffffffff81111561515357600080fd5b61515f8a828b016150c1565b909550935050608088013561517381614ee4565b915060a088013561518381614ee4565b8091505092959891949750929550565b60008060008060008060a087890312156151ac57600080fd5b8635955060208701359450604087013567ffffffffffffffff8111156151d157600080fd5b6151dd89828a016150c1565b90955093505060608701356151f181614ee4565b9150608087013561505881614ee4565b60008060008060008060c0878903121561521a57600080fd5b863561522581614ddd565b95506020870135945060408701359350606087013560ff8116811461524957600080fd5b9598949750929560808101359460a0909101359350915050565b6000806020838503121561527657600080fd5b823567ffffffffffffffff81111561528d57600080fd5b61529985828601614f8e565b90969095509350505050565b634e487b7160e01b600052604160045260246000fd5b6040516060810167ffffffffffffffff811182821017156152de576152de6152a5565b60405290565b6040516080810167ffffffffffffffff811182821017156152de576152de6152a5565b604051601f8201601f1916810167ffffffffffffffff81118282101715615330576153306152a5565b604052919050565b600067ffffffffffffffff821115615352576153526152a5565b50601f01601f191660200190565b600082601f83011261537157600080fd5b813561538461537f82615338565b615307565b81815284602083860101111561539957600080fd5b816020850160208301376000918101602001919091529392505050565b600080600080608085870312156153cc57600080fd5b84356153d781614ddd565b935060208501356153e781614ddd565b925060408501359150606085013567ffffffffffffffff81111561540a57600080fd5b61541687828801615360565b91505092959194509250565b600082601f83011261543357600080fd5b8135602067ffffffffffffffff82111561544f5761544f6152a5565b8160051b61545e828201615307565b928352848101820192828101908785111561547857600080fd5b83870192505b848310156154975782358252918301919083019061547e565b979650505050505050565b600080600080600060a086880312156154ba57600080fd5b85356154c581614ddd565b945060208601356154d581614ddd565b9350604086013567ffffffffffffffff808211156154f257600080fd5b6154fe89838a01615422565b9450606088013591508082111561551457600080fd5b61552089838a01615422565b9350608088013591508082111561553657600080fd5b5061554388828901615360565b9150509295509295909350565b60008060006040848603121561556557600080fd5b83359250602084013567ffffffffffffffff81111561558357600080fd5b61558f86828701614f8e565b9497909650939450505050565b600080600080608085870312156155b257600080fd5b843593506020850135925060408501356155cb81614ddd565b915060608501356155db81614ddd565b939692955090935050565b600080604083850312156155f957600080fd5b823561560481614ddd565b91506020830135614f2081614ddd565b600080600080600060a0868803121561562c57600080fd5b853561563781614ddd565b9450602086013561564781614ddd565b93506040860135925060608601359150608086013567ffffffffffffffff81111561567157600080fd5b61554388828901615360565b634e487b7160e01b600052601160045260246000fd5b600082198211156156a6576156a661567d565b500190565b600181811c908216806156bf57607f821691505b6020821081036156df57634e487b7160e01b600052602260045260246000fd5b50919050565b6000602082840312156156f757600080fd5b81516138cb81614ddd565b60006020828403121561571457600080fd5b81516138cb81614ee4565b634e487b7160e01b600052603260045260246000fd5b60006020828403121561574757600080fd5b5051919050565b81835260007f07ffffffffffffffffffffffffffffffffffffffffffffffffffffffffffffff83111561578057600080fd5b8260051b8083602087013760009401602001938452509192915050565b60006001600160a01b03808916835280881660208401525060a060408301526157ca60a08301868861574e565b82810360608401526157dd81858761574e565b8381036080909401939093525050600081526020019695505050505050565b60808152600061581060808301888a61574e565b828103602084015261582381878961574e565b9150506001600160a01b038085166040840152808416606084015250979650505050505050565b60006001820161585c5761585c61567d565b5060010190565b60408152600061587760408301868861574e565b828103602084015261549781858761574e565b60008160001904831182151516156158a4576158a461567d565b500290565b6000826158c657634e487b7160e01b600052601260045260246000fd5b500490565b6000828210156158dd576158dd61567d565b500390565b60a0815260006158f660a08301888a61574e565b90506001600160a01b03861660208301528460408301528360608301528215156080830152979650505050505050565b803565ffffffffffff81168114613cf557600080fd5b600080600083850361010081121561595357600080fd5b843561595e81614ddd565b9350601f190160c081121561597257600080fd5b61597a6152bb565b608082121561598857600080fd5b6159906152e4565b915060208601356159a081614ddd565b825260408601356159b081614ddd565b60208301526159c160608701615926565b60408301526159d260808701615926565b60608301528181526159e660a08701614ead565b602082015260c0860135604082015292505060e084013567ffffffffffffffff811115615a1257600080fd5b615a1e86828701615360565b9150509250925092565b60006101006001600160a01b0380871684528551818151166020860152816020820151166040860152604081015165ffffffffffff80821660608801528060608401511660808801525050508060208701511660a085015250604085015160c08401528060e084015261300481840185614e6e565b828152604060208201526000610bf36040830184614e6e565b600060208284031215615ac857600080fd5b81516138cb81614e0f565b838152604060208201526000615aed60408301848661574e565b95945050505050565b600060208284031215615b0857600080fd5b815167ffffffffffffffff811115615b1f57600080fd5b8201601f81018413615b3057600080fd5b8051615b3e61537f82615338565b818152856020838501011115615b5357600080fd5b615aed826020830160208601614e42565b8781528660208201526001600160a01b038616604082015260e060608201526000615b9260e0830187614e6e565b60808301959095525060a081019290925260c090910152949350505050565b60008251615bc3818460208701614e42565b9190910192915050565b60006001600160a01b038087168352808616602084015250836040830152608060608301526130046080830184614e6e565b634e487b7160e01b600052603160045260246000fd5b601f821115610e6157600081815260208120601f850160051c81016020861015615c3c5750805b601f850160051c820191505b8181101561253557828155600101615c48565b815167ffffffffffffffff811115615c7557615c756152a5565b615c8981615c8384546156ab565b84615c15565b602080601f831160018114615cbe5760008415615ca65750858301515b600019600386901b1c1916600185901b178555612535565b600085815260208120601f198616915b82811015615ced57888601518255948401946001909101908401615cce565b5085821015615d0b5787850151600019600388901b60f8161c191681555b5050505050600190811b0190555056fea164736f6c634300080f000a",
  "devdoc": {
    "author": "@apoorvlathey",
    "details": "lockId's: 0: deposit 1: depositWithNFT 2: withdraw 3: collectWethFees 4: increasePositionThis contract must be on the feeExclusion list to avoid redeem fees, else revert.",
    "kind": "dev",
    "methods": {
      "DOMAIN_SEPARATOR()": {
        "returns": {
          "_0": "The domain seperator used in encoding of permit signature"
        }
      },
      "approve(address,uint256)": {
        "details": "See {IERC721-approve}."
      },
      "balanceOf(address)": {
        "details": "See {IERC721-balanceOf}."
      },
      "collectWethFees(uint256[])": {
        "params": {
          "positionIds": "The positions to withdraw weth fees from"
        }
      },
      "combinePositions(uint256,uint256[])": {
        "params": {
          "childPositionIds": "Array of xNFT position ids to be combined",
          "parentPositionId": "xNFT Position id that will receive the underlying balances from childPositions"
        }
      },
      "deposit(uint256,uint256,address,bytes,bool,bool)": {
        "params": {
          "amount": "Vault tokens amount to deposit",
          "encodedPermit2": "Encoded function params (owner, permitSingle, signature) for `PERMIT2.permit()`",
          "forceTimelock": "Forcefully apply timelock to the position",
          "recipient": "Recipient address for the xNFT",
          "vaultId": "The id of the vault",
          "viaPermit2": "If true then vTokens transferred via Permit2 else normal token transferFrom"
        },
        "returns": {
          "positionId": "The tokenId for the xNFT position"
        }
      },
      "depositWithNFT(uint256,uint256[],uint256[],address)": {
        "params": {
          "amounts": "For ERC1155: quantity corresponding to each tokenId to deposit",
          "recipient": "Recipient address for the xNFT",
          "tokenIds": "The token ids to deposit",
          "vaultId": "The id of the vault corresponding to the NFT"
        },
        "returns": {
          "positionId": "The tokenId for the xNFT position"
        }
      },
      "getApproved(uint256)": {
        "details": "See {IERC721-getApproved}."
      },
      "increasePosition(uint256,uint256,bytes,bool,bool)": {
        "params": {
          "amount": "Vault tokens amount to deposit",
          "encodedPermit2": "Encoded function params (owner, permitSingle, signature) for `PERMIT2.permit()`",
          "forceTimelock": "Forcefully apply timelock to the position",
          "positionId": "The position to add vTokens into",
          "viaPermit2": "If true then vTokens transferred via Permit2 else normal token transferFrom"
        }
      },
      "isApprovedForAll(address,address)": {
        "details": "See {IERC721-isApprovedForAll}."
      },
      "name()": {
        "details": "See {IERC721Metadata-name}."
      },
      "owner()": {
        "details": "Returns the address of the current owner."
      },
      "ownerOf(uint256)": {
        "details": "See {IERC721-ownerOf}."
      },
      "permit(address,uint256,uint256,uint8,bytes32,bytes32)": {
        "params": {
          "deadline": "The deadline timestamp by which the call must be mined for the approve to work",
          "r": "Must produce valid secp256k1 signature from the holder along with `v` and `s`",
          "s": "Must produce valid secp256k1 signature from the holder along with `r` and `v`",
          "spender": "The account that is being approved",
          "tokenId": "The ID of the token that is being approved for spending",
          "v": "Must produce valid secp256k1 signature from the holder along with `r` and `s`"
        }
      },
      "receiveWethRewards(uint256,uint256)": {
        "details": "Can only be called by feeDistributor. vToken rewards can be directly transferred to this contract without calling this function",
        "params": {
          "vaultId": "The vault id that should receive the rewards",
          "wethAmount": "Amount of WETH to pull as rewards"
        },
        "returns": {
          "rewardsDistributed": "Returns false if the `totalVTokenShares` is zero for the given `vaultId`"
        }
      },
      "renounceOwnership()": {
        "details": "Leaves the contract without owner. It will not be possible to call `onlyOwner` functions anymore. Can only be called by the current owner. NOTE: Renouncing ownership will leave the contract without an owner, thereby removing any functionality that is only available to the owner."
      },
      "safeTransferFrom(address,address,uint256)": {
        "details": "See {IERC721-safeTransferFrom}."
      },
      "safeTransferFrom(address,address,uint256,bytes)": {
        "details": "See {IERC721-safeTransferFrom}."
      },
      "setApprovalForAll(address,bool)": {
        "details": "See {IERC721-setApprovalForAll}."
      },
      "symbol()": {
        "details": "See {IERC721Metadata-symbol}."
      },
      "tokenByIndex(uint256)": {
        "details": "See {IERC721Enumerable-tokenByIndex}."
      },
      "tokenOfOwnerByIndex(address,uint256)": {
        "details": "See {IERC721Enumerable-tokenOfOwnerByIndex}."
      },
      "tokenURI(uint256)": {
        "details": "See {IERC721Metadata-tokenURI}."
      },
      "totalSupply()": {
        "details": "See {IERC721Enumerable-totalSupply}."
      },
      "transferFrom(address,address,uint256)": {
        "details": "See {IERC721-transferFrom}."
      },
      "transferOwnership(address)": {
        "details": "Transfers ownership of the contract to a new account (`newOwner`). Can only be called by the current owner."
      },
      "withdraw(uint256,uint256,uint256[],uint256)": {
        "params": {
          "nftIds": "NFT tokenIds to redeem with the vault tokens withdrawn. If array is empty then only vault tokens transferred. Redeem fees (in ETH from msg.value) only paid for positions which were minted with vTokens",
          "positionId": "The position id to withdraw vault tokens from",
          "vTokenPremiumLimit": "The max net premium in vTokens the user is willing to pay to redeem nftIds, else tx reverts",
          "vTokenShares": "Amount of vault token shares to burn"
        }
      }
    },
    "stateVariables": {
      "_nextId": {
        "details": "The ID of the next token that will be minted. Skips 0"
      },
      "earlyWithdrawPenaltyInWei": {
        "details": "the max penalty applicable. The penalty goes down linearly as the `timelockedUntil` approaches"
      },
      "positions": {
        "details": "The token ID position data"
      },
      "timelock": {
        "details": "timelock in seconds"
      },
      "vaultGlobal": {
        "details": "vaultId => VaultGlobal"
      }
    },
    "title": "NFTX Inventory Staking V3",
    "version": 1
  },
  "userdoc": {
    "kind": "user",
    "methods": {
      "DOMAIN_SEPARATOR()": {
        "notice": "The domain separator used in the permit signature"
      },
      "PERMIT_TYPEHASH()": {
        "notice": "The permit typehash used in the permit signature"
      },
      "collectWethFees(uint256[])": {
        "notice": "Receive WETH fees accumulated by multiple positions"
      },
      "combinePositions(uint256,uint256[])": {
        "notice": "Combine underlying vToken and WETH balances from childPositions into parentPosition, if all of their timelocks ended. All positions must be for the same vault id."
      },
      "deposit(uint256,uint256,address,bytes,bool,bool)": {
        "notice": "Deposits vToken to mint inventory staking xNFT position"
      },
      "depositWithNFT(uint256,uint256[],uint256[],address)": {
        "notice": "Deposits NFT to mint inventory staking xNFT position"
      },
      "increasePosition(uint256,uint256,bytes,bool,bool)": {
        "notice": "Add more vTokens to an existing position (the position have been created with just vTokens)"
      },
      "permit(address,uint256,uint256,uint8,bytes32,bytes32)": {
        "notice": "Approve of a specific token ID for spending by spender via signature"
      },
      "pricePerShareVToken(uint256)": {
        "notice": "Returns the worth of 10^18 vTokenShares in terms of the underlying vToken corresponding to the provided `vaultId`"
      },
      "wethBalance(uint256)": {
        "notice": "Returns the current WETH balance for a given `positionId`"
      },
      "withdraw(uint256,uint256,uint256[],uint256)": {
        "notice": "Withdraw vault tokens from the position. Penalty is deducted if position has not finished the timelock."
      }
    },
    "notice": "Allows users to stake vTokens to earn fees in vTokens and WETH. The position is minted as xNFT.",
    "version": 1
  },
  "storageLayout": {
    "storage": [
      {
        "astId": 196,
        "contract": "src/NFTXInventoryStakingV3Upgradeable.sol:NFTXInventoryStakingV3Upgradeable",
        "label": "_initialized",
        "offset": 0,
        "slot": "0",
        "type": "t_uint8"
      },
      {
        "astId": 199,
        "contract": "src/NFTXInventoryStakingV3Upgradeable.sol:NFTXInventoryStakingV3Upgradeable",
        "label": "_initializing",
        "offset": 1,
        "slot": "0",
        "type": "t_bool"
      },
      {
        "astId": 2683,
        "contract": "src/NFTXInventoryStakingV3Upgradeable.sol:NFTXInventoryStakingV3Upgradeable",
        "label": "__gap",
        "offset": 0,
        "slot": "1",
        "type": "t_array(t_uint256)50_storage"
      },
      {
        "astId": 2983,
        "contract": "src/NFTXInventoryStakingV3Upgradeable.sol:NFTXInventoryStakingV3Upgradeable",
        "label": "__gap",
        "offset": 0,
        "slot": "51",
        "type": "t_array(t_uint256)50_storage"
      },
      {
        "astId": 851,
        "contract": "src/NFTXInventoryStakingV3Upgradeable.sol:NFTXInventoryStakingV3Upgradeable",
        "label": "_name",
        "offset": 0,
        "slot": "101",
        "type": "t_string_storage"
      },
      {
        "astId": 853,
        "contract": "src/NFTXInventoryStakingV3Upgradeable.sol:NFTXInventoryStakingV3Upgradeable",
        "label": "_symbol",
        "offset": 0,
        "slot": "102",
        "type": "t_string_storage"
      },
      {
        "astId": 857,
        "contract": "src/NFTXInventoryStakingV3Upgradeable.sol:NFTXInventoryStakingV3Upgradeable",
        "label": "_owners",
        "offset": 0,
        "slot": "103",
        "type": "t_mapping(t_uint256,t_address)"
      },
      {
        "astId": 861,
        "contract": "src/NFTXInventoryStakingV3Upgradeable.sol:NFTXInventoryStakingV3Upgradeable",
        "label": "_balances",
        "offset": 0,
        "slot": "104",
        "type": "t_mapping(t_address,t_uint256)"
      },
      {
        "astId": 865,
        "contract": "src/NFTXInventoryStakingV3Upgradeable.sol:NFTXInventoryStakingV3Upgradeable",
        "label": "_tokenApprovals",
        "offset": 0,
        "slot": "105",
        "type": "t_mapping(t_uint256,t_address)"
      },
      {
        "astId": 871,
        "contract": "src/NFTXInventoryStakingV3Upgradeable.sol:NFTXInventoryStakingV3Upgradeable",
        "label": "_operatorApprovals",
        "offset": 0,
        "slot": "106",
        "type": "t_mapping(t_address,t_mapping(t_address,t_bool))"
      },
      {
        "astId": 1791,
        "contract": "src/NFTXInventoryStakingV3Upgradeable.sol:NFTXInventoryStakingV3Upgradeable",
        "label": "__gap",
        "offset": 0,
        "slot": "107",
        "type": "t_array(t_uint256)44_storage"
      },
      {
        "astId": 1956,
        "contract": "src/NFTXInventoryStakingV3Upgradeable.sol:NFTXInventoryStakingV3Upgradeable",
        "label": "_ownedTokens",
        "offset": 0,
        "slot": "151",
        "type": "t_mapping(t_address,t_mapping(t_uint256,t_uint256))"
      },
      {
        "astId": 1960,
        "contract": "src/NFTXInventoryStakingV3Upgradeable.sol:NFTXInventoryStakingV3Upgradeable",
        "label": "_ownedTokensIndex",
        "offset": 0,
        "slot": "152",
        "type": "t_mapping(t_uint256,t_uint256)"
      },
      {
        "astId": 1963,
        "contract": "src/NFTXInventoryStakingV3Upgradeable.sol:NFTXInventoryStakingV3Upgradeable",
        "label": "_allTokens",
        "offset": 0,
        "slot": "153",
        "type": "t_array(t_uint256)dyn_storage"
      },
      {
        "astId": 1967,
        "contract": "src/NFTXInventoryStakingV3Upgradeable.sol:NFTXInventoryStakingV3Upgradeable",
        "label": "_allTokensIndex",
        "offset": 0,
        "slot": "154",
        "type": "t_mapping(t_uint256,t_uint256)"
      },
      {
        "astId": 2299,
        "contract": "src/NFTXInventoryStakingV3Upgradeable.sol:NFTXInventoryStakingV3Upgradeable",
        "label": "__gap",
        "offset": 0,
        "slot": "155",
        "type": "t_array(t_uint256)46_storage"
      },
      {
        "astId": 9527,
        "contract": "src/NFTXInventoryStakingV3Upgradeable.sol:NFTXInventoryStakingV3Upgradeable",
        "label": "nameHash",
        "offset": 0,
        "slot": "201",
        "type": "t_bytes32"
      },
      {
        "astId": 9530,
        "contract": "src/NFTXInventoryStakingV3Upgradeable.sol:NFTXInventoryStakingV3Upgradeable",
        "label": "versionHash",
        "offset": 0,
        "slot": "202",
        "type": "t_bytes32"
      },
      {
        "astId": 718,
        "contract": "src/NFTXInventoryStakingV3Upgradeable.sol:NFTXInventoryStakingV3Upgradeable",
        "label": "__gap",
        "offset": 0,
        "slot": "203",
        "type": "t_array(t_uint256)50_storage"
      },
      {
        "astId": 664,
        "contract": "src/NFTXInventoryStakingV3Upgradeable.sol:NFTXInventoryStakingV3Upgradeable",
        "label": "__gap",
        "offset": 0,
        "slot": "253",
        "type": "t_array(t_uint256)50_storage"
      },
      {
        "astId": 10,
        "contract": "src/NFTXInventoryStakingV3Upgradeable.sol:NFTXInventoryStakingV3Upgradeable",
        "label": "_owner",
        "offset": 0,
        "slot": "303",
        "type": "t_address"
      },
      {
        "astId": 130,
        "contract": "src/NFTXInventoryStakingV3Upgradeable.sol:NFTXInventoryStakingV3Upgradeable",
        "label": "__gap",
        "offset": 0,
        "slot": "304",
        "type": "t_array(t_uint256)49_storage"
      },
      {
        "astId": 8484,
        "contract": "src/NFTXInventoryStakingV3Upgradeable.sol:NFTXInventoryStakingV3Upgradeable",
        "label": "isGuardian",
        "offset": 0,
        "slot": "353",
        "type": "t_mapping(t_address,t_bool)"
      },
      {
        "astId": 8488,
        "contract": "src/NFTXInventoryStakingV3Upgradeable.sol:NFTXInventoryStakingV3Upgradeable",
        "label": "isPaused",
        "offset": 0,
        "slot": "354",
        "type": "t_mapping(t_uint256,t_bool)"
      },
      {
        "astId": 372,
        "contract": "src/NFTXInventoryStakingV3Upgradeable.sol:NFTXInventoryStakingV3Upgradeable",
        "label": "_status",
        "offset": 0,
        "slot": "355",
        "type": "t_uint256"
      },
      {
        "astId": 430,
        "contract": "src/NFTXInventoryStakingV3Upgradeable.sol:NFTXInventoryStakingV3Upgradeable",
        "label": "__gap",
        "offset": 0,
        "slot": "356",
        "type": "t_array(t_uint256)49_storage"
      },
      {
        "astId": 6026,
        "contract": "src/NFTXInventoryStakingV3Upgradeable.sol:NFTXInventoryStakingV3Upgradeable",
        "label": "timelockExcludeList",
        "offset": 0,
        "slot": "405",
        "type": "t_contract(ITimelockExcludeList)11543"
      },
      {
        "astId": 6038,
        "contract": "src/NFTXInventoryStakingV3Upgradeable.sol:NFTXInventoryStakingV3Upgradeable",
        "label": "_nextId",
        "offset": 0,
        "slot": "406",
        "type": "t_uint256"
      },
      {
        "astId": 6042,
        "contract": "src/NFTXInventoryStakingV3Upgradeable.sol:NFTXInventoryStakingV3Upgradeable",
        "label": "timelock",
        "offset": 0,
        "slot": "407",
        "type": "t_uint256"
      },
      {
        "astId": 6046,
        "contract": "src/NFTXInventoryStakingV3Upgradeable.sol:NFTXInventoryStakingV3Upgradeable",
        "label": "earlyWithdrawPenaltyInWei",
        "offset": 0,
        "slot": "408",
        "type": "t_uint256"
      },
      {
        "astId": 6053,
        "contract": "src/NFTXInventoryStakingV3Upgradeable.sol:NFTXInventoryStakingV3Upgradeable",
        "label": "positions",
        "offset": 0,
        "slot": "409",
        "type": "t_mapping(t_uint256,t_struct(Position)10048_storage)"
      },
      {
        "astId": 6060,
        "contract": "src/NFTXInventoryStakingV3Upgradeable.sol:NFTXInventoryStakingV3Upgradeable",
        "label": "vaultGlobal",
        "offset": 0,
        "slot": "410",
        "type": "t_mapping(t_uint256,t_struct(VaultGlobal)10053_storage)"
      },
      {
        "astId": 6064,
        "contract": "src/NFTXInventoryStakingV3Upgradeable.sol:NFTXInventoryStakingV3Upgradeable",
        "label": "descriptor",
        "offset": 0,
        "slot": "411",
        "type": "t_contract(InventoryStakingDescriptor)8449"
      }
    ],
    "types": {
      "t_address": {
        "encoding": "inplace",
        "label": "address",
        "numberOfBytes": "20"
      },
      "t_array(t_uint256)44_storage": {
        "base": "t_uint256",
        "encoding": "inplace",
        "label": "uint256[44]",
        "numberOfBytes": "1408"
      },
      "t_array(t_uint256)46_storage": {
        "base": "t_uint256",
        "encoding": "inplace",
        "label": "uint256[46]",
        "numberOfBytes": "1472"
      },
      "t_array(t_uint256)49_storage": {
        "base": "t_uint256",
        "encoding": "inplace",
        "label": "uint256[49]",
        "numberOfBytes": "1568"
      },
      "t_array(t_uint256)50_storage": {
        "base": "t_uint256",
        "encoding": "inplace",
        "label": "uint256[50]",
        "numberOfBytes": "1600"
      },
      "t_array(t_uint256)dyn_storage": {
        "base": "t_uint256",
        "encoding": "dynamic_array",
        "label": "uint256[]",
        "numberOfBytes": "32"
      },
      "t_bool": {
        "encoding": "inplace",
        "label": "bool",
        "numberOfBytes": "1"
      },
      "t_bytes32": {
        "encoding": "inplace",
        "label": "bytes32",
        "numberOfBytes": "32"
      },
      "t_contract(ITimelockExcludeList)11543": {
        "encoding": "inplace",
        "label": "contract ITimelockExcludeList",
        "numberOfBytes": "20"
      },
      "t_contract(InventoryStakingDescriptor)8449": {
        "encoding": "inplace",
        "label": "contract InventoryStakingDescriptor",
        "numberOfBytes": "20"
      },
      "t_mapping(t_address,t_bool)": {
        "encoding": "mapping",
        "key": "t_address",
        "label": "mapping(address => bool)",
        "numberOfBytes": "32",
        "value": "t_bool"
      },
      "t_mapping(t_address,t_mapping(t_address,t_bool))": {
        "encoding": "mapping",
        "key": "t_address",
        "label": "mapping(address => mapping(address => bool))",
        "numberOfBytes": "32",
        "value": "t_mapping(t_address,t_bool)"
      },
      "t_mapping(t_address,t_mapping(t_uint256,t_uint256))": {
        "encoding": "mapping",
        "key": "t_address",
        "label": "mapping(address => mapping(uint256 => uint256))",
        "numberOfBytes": "32",
        "value": "t_mapping(t_uint256,t_uint256)"
      },
      "t_mapping(t_address,t_uint256)": {
        "encoding": "mapping",
        "key": "t_address",
        "label": "mapping(address => uint256)",
        "numberOfBytes": "32",
        "value": "t_uint256"
      },
      "t_mapping(t_uint256,t_address)": {
        "encoding": "mapping",
        "key": "t_uint256",
        "label": "mapping(uint256 => address)",
        "numberOfBytes": "32",
        "value": "t_address"
      },
      "t_mapping(t_uint256,t_bool)": {
        "encoding": "mapping",
        "key": "t_uint256",
        "label": "mapping(uint256 => bool)",
        "numberOfBytes": "32",
        "value": "t_bool"
      },
      "t_mapping(t_uint256,t_struct(Position)10048_storage)": {
        "encoding": "mapping",
        "key": "t_uint256",
        "label": "mapping(uint256 => struct INFTXInventoryStakingV3.Position)",
        "numberOfBytes": "32",
        "value": "t_struct(Position)10048_storage"
      },
      "t_mapping(t_uint256,t_struct(VaultGlobal)10053_storage)": {
        "encoding": "mapping",
        "key": "t_uint256",
        "label": "mapping(uint256 => struct INFTXInventoryStakingV3.VaultGlobal)",
        "numberOfBytes": "32",
        "value": "t_struct(VaultGlobal)10053_storage"
      },
      "t_mapping(t_uint256,t_uint256)": {
        "encoding": "mapping",
        "key": "t_uint256",
        "label": "mapping(uint256 => uint256)",
        "numberOfBytes": "32",
        "value": "t_uint256"
      },
      "t_string_storage": {
        "encoding": "bytes",
        "label": "string",
        "numberOfBytes": "32"
      },
      "t_struct(Position)10048_storage": {
        "encoding": "inplace",
        "label": "struct INFTXInventoryStakingV3.Position",
        "members": [
          {
            "astId": 10033,
            "contract": "src/NFTXInventoryStakingV3Upgradeable.sol:NFTXInventoryStakingV3Upgradeable",
            "label": "nonce",
            "offset": 0,
            "slot": "0",
            "type": "t_uint256"
          },
          {
            "astId": 10035,
            "contract": "src/NFTXInventoryStakingV3Upgradeable.sol:NFTXInventoryStakingV3Upgradeable",
            "label": "vaultId",
            "offset": 0,
            "slot": "1",
            "type": "t_uint256"
          },
          {
            "astId": 10037,
            "contract": "src/NFTXInventoryStakingV3Upgradeable.sol:NFTXInventoryStakingV3Upgradeable",
            "label": "timelockedUntil",
            "offset": 0,
            "slot": "2",
            "type": "t_uint256"
          },
          {
            "astId": 10039,
            "contract": "src/NFTXInventoryStakingV3Upgradeable.sol:NFTXInventoryStakingV3Upgradeable",
            "label": "timelock",
            "offset": 0,
            "slot": "3",
            "type": "t_uint256"
          },
          {
            "astId": 10041,
            "contract": "src/NFTXInventoryStakingV3Upgradeable.sol:NFTXInventoryStakingV3Upgradeable",
            "label": "vTokenTimelockedUntil",
            "offset": 0,
            "slot": "4",
            "type": "t_uint256"
          },
          {
            "astId": 10043,
            "contract": "src/NFTXInventoryStakingV3Upgradeable.sol:NFTXInventoryStakingV3Upgradeable",
            "label": "vTokenShareBalance",
            "offset": 0,
            "slot": "5",
            "type": "t_uint256"
          },
          {
            "astId": 10045,
            "contract": "src/NFTXInventoryStakingV3Upgradeable.sol:NFTXInventoryStakingV3Upgradeable",
            "label": "wethFeesPerVTokenShareSnapshotX128",
            "offset": 0,
            "slot": "6",
            "type": "t_uint256"
          },
          {
            "astId": 10047,
            "contract": "src/NFTXInventoryStakingV3Upgradeable.sol:NFTXInventoryStakingV3Upgradeable",
            "label": "wethOwed",
            "offset": 0,
            "slot": "7",
            "type": "t_uint256"
          }
        ],
        "numberOfBytes": "256"
      },
      "t_struct(VaultGlobal)10053_storage": {
        "encoding": "inplace",
        "label": "struct INFTXInventoryStakingV3.VaultGlobal",
        "members": [
          {
            "astId": 10050,
            "contract": "src/NFTXInventoryStakingV3Upgradeable.sol:NFTXInventoryStakingV3Upgradeable",
            "label": "totalVTokenShares",
            "offset": 0,
            "slot": "0",
            "type": "t_uint256"
          },
          {
            "astId": 10052,
            "contract": "src/NFTXInventoryStakingV3Upgradeable.sol:NFTXInventoryStakingV3Upgradeable",
            "label": "globalWethFeesPerVTokenShareX128",
            "offset": 0,
            "slot": "1",
            "type": "t_uint256"
          }
        ],
        "numberOfBytes": "64"
      },
      "t_uint256": {
        "encoding": "inplace",
        "label": "uint256",
        "numberOfBytes": "32"
      },
      "t_uint8": {
        "encoding": "inplace",
        "label": "uint8",
        "numberOfBytes": "1"
      }
    }
  }
}