{
  "address": "0x8D03b93EAe73226eF1E975Ed8CC82368Ed11f9B7",
  "abi": [
    {
      "anonymous": false,
      "inputs": [
        {
          "indexed": false,
          "internalType": "uint8",
          "name": "version",
          "type": "uint8"
        }
      ],
      "name": "Initialized",
      "type": "event"
    },
    {
      "anonymous": false,
      "inputs": [
        {
          "indexed": false,
          "internalType": "address",
          "name": "implementation",
          "type": "address"
        },
        {
          "indexed": false,
          "internalType": "address",
          "name": "targetAsset",
          "type": "address"
        },
        {
          "indexed": false,
          "internalType": "string",
          "name": "name",
          "type": "string"
        },
        {
          "indexed": false,
          "internalType": "bool",
          "name": "finalizedOnDeploy",
          "type": "bool"
        }
      ],
      "name": "ModuleAdded",
      "type": "event"
    },
    {
      "anonymous": false,
      "inputs": [
        {
          "indexed": false,
          "internalType": "address",
          "name": "implementation",
          "type": "address"
        },
        {
          "indexed": false,
          "internalType": "string",
          "name": "name",
          "type": "string"
        },
        {
          "indexed": false,
          "internalType": "bool",
          "name": "finalizedOnDeploy",
          "type": "bool"
        }
      ],
      "name": "ModuleUpdated",
      "type": "event"
    },
    {
      "anonymous": false,
      "inputs": [
        {
          "indexed": true,
          "internalType": "address",
          "name": "previousOwner",
          "type": "address"
        },
        {
          "indexed": true,
          "internalType": "address",
          "name": "newOwner",
          "type": "address"
        }
      ],
      "name": "OwnershipTransferred",
      "type": "event"
    },
    {
      "inputs": [],
      "name": "__NFTXEligibilityManager_init",
      "outputs": [],
      "stateMutability": "nonpayable",
      "type": "function"
    },
    {
      "inputs": [
        {
          "internalType": "address",
          "name": "implementation",
          "type": "address"
        }
      ],
      "name": "addModule",
      "outputs": [],
      "stateMutability": "nonpayable",
      "type": "function"
    },
    {
      "inputs": [],
      "name": "allModuleNames",
      "outputs": [
        {
          "internalType": "string[]",
          "name": "",
          "type": "string[]"
        }
      ],
      "stateMutability": "view",
      "type": "function"
    },
    {
      "inputs": [],
      "name": "allModules",
      "outputs": [
        {
          "components": [
            {
              "internalType": "address",
              "name": "implementation",
              "type": "address"
            },
            {
              "internalType": "address",
              "name": "targetAsset",
              "type": "address"
            },
            {
              "internalType": "string",
              "name": "name",
              "type": "string"
            }
          ],
          "internalType": "struct NFTXEligibilityManager.EligibilityModule[]",
          "name": "",
          "type": "tuple[]"
        }
      ],
      "stateMutability": "view",
      "type": "function"
    },
    {
      "inputs": [
        {
          "internalType": "uint256",
          "name": "moduleIndex",
          "type": "uint256"
        },
        {
          "internalType": "bytes",
          "name": "configData",
          "type": "bytes"
        }
      ],
      "name": "deployEligibility",
      "outputs": [
        {
          "internalType": "address",
          "name": "",
          "type": "address"
        }
      ],
      "stateMutability": "nonpayable",
      "type": "function"
    },
    {
      "inputs": [
        {
          "internalType": "uint256",
          "name": "",
          "type": "uint256"
        }
      ],
      "name": "modules",
      "outputs": [
        {
          "internalType": "address",
          "name": "implementation",
          "type": "address"
        },
        {
          "internalType": "address",
          "name": "targetAsset",
          "type": "address"
        },
        {
          "internalType": "string",
          "name": "name",
          "type": "string"
        }
      ],
      "stateMutability": "view",
      "type": "function"
    },
    {
      "inputs": [],
      "name": "owner",
      "outputs": [
        {
          "internalType": "address",
          "name": "",
          "type": "address"
        }
      ],
      "stateMutability": "view",
      "type": "function"
    },
    {
      "inputs": [],
      "name": "renounceOwnership",
      "outputs": [],
      "stateMutability": "nonpayable",
      "type": "function"
    },
    {
      "inputs": [
        {
          "internalType": "address",
          "name": "newOwner",
          "type": "address"
        }
      ],
      "name": "transferOwnership",
      "outputs": [],
      "stateMutability": "nonpayable",
      "type": "function"
    },
    {
      "inputs": [
        {
          "internalType": "uint256",
          "name": "moduleIndex",
          "type": "uint256"
        },
        {
          "internalType": "address",
          "name": "implementation",
          "type": "address"
        }
      ],
      "name": "updateModule",
      "outputs": [],
      "stateMutability": "nonpayable",
      "type": "function"
    }
  ],
  "transactionHash": "0x6fff2d13e574999f497ed36f4bb96497cd48f91582d049a25095016b05934fc4",
  "args": [],
  "numDeployments": 1,
  "solcInputHash": "86b1d24146f3ebe063a3e2d32a72fbad",
  "bytecode": "0x608060405234801561001057600080fd5b506114ac806100206000396000f3fe608060405234801561001057600080fd5b50600436106100be5760003560e01c8063786049ec116100765780638da5cb5b1161005b5780638da5cb5b14610173578063f2fde38b14610184578063f72597cf1461019757600080fd5b8063786049ec1461013c57806381b2248a1461015157600080fd5b806323b6c2eb116100a757806323b6c2eb146100f6578063576ff90814610109578063715018a61461013457600080fd5b8063164f49ae146100c35780631ed86f19146100e1575b600080fd5b6100cb61019f565b6040516100d89190610f55565b60405180910390f35b6100f46100ef366004610ff5565b6102b3565b005b6100f4610104366004611019565b61058d565b61011c610117366004611049565b61077e565b6040516001600160a01b0390911681526020016100d8565b6100f4610868565b61014461087c565b6040516100d891906110c5565b61016461015f366004611127565b610a42565b6040516100d893929190611140565b6033546001600160a01b031661011c565b6100f4610192366004610ff5565b610b0e565b6100f4610b9e565b60606065805480602002602001604051908101604052809291908181526020016000905b828210156102aa576000848152602090819020604080516060810182526003860290920180546001600160a01b039081168452600182015416938301939093526002830180549293929184019161021990611175565b80601f016020809104026020016040519081016040528092919081815260200182805461024590611175565b80156102925780601f1061026757610100808354040283529160200191610292565b820191906000526020600020905b81548152906001019060200180831161027557829003601f168201915b505050505081525050815260200190600101906101c3565b50505050905090565b6102bb610cbd565b6001600160a01b0381166103165760405162461bcd60e51b815260206004820152601260248201527f496d706c20213d2061646472657373283029000000000000000000000000000060448201526064015b60405180910390fd5b60008190506000816001600160a01b03166306fdde036040518163ffffffff1660e01b8152600401600060405180830381865afa15801561035b573d6000803e3d6000fd5b505050506040513d6000823e601f3d908101601f1916820160405261038391908101906111c5565b905060006040518060600160405280856001600160a01b03168152602001846001600160a01b0316633d4403ac6040518163ffffffff1660e01b8152600401602060405180830381865afa1580156103df573d6000803e3d6000fd5b505050506040513d601f19601f820116820180604052508101906104039190611272565b6001600160a01b039081168252602091820185905260658054600181018255600091909152835160039091027f8ff97419363ffd7000167f130ef7168fbea05faf9251824ca5043f113cc6a7c78101805492841673ffffffffffffffffffffffffffffffffffffffff19938416178155938501517f8ff97419363ffd7000167f130ef7168fbea05faf9251824ca5043f113cc6a7c88201805491909416921691909117909155604083015192935083927f8ff97419363ffd7000167f130ef7168fbea05faf9251824ca5043f113cc6a7c9909101906104e290826112de565b5050507f526a1ef569cd9da0f740679693eef4f6062880ef98c0fcf77a896418a42ac75d84826020015184866001600160a01b031663b3f05b976040518163ffffffff1660e01b8152600401602060405180830381865afa15801561054b573d6000803e3d6000fd5b505050506040513d601f19601f8201168201806040525081019061056f919061139e565b60405161057f94939291906113c0565b60405180910390a150505050565b610595610cbd565b60655482106105d65760405162461bcd60e51b815260206004820152600d60248201526c4f7574206f6620626f756e647360981b604482015260640161030d565b6001600160a01b03811661062c5760405162461bcd60e51b815260206004820152601260248201527f496d706c20213d20616464726573732830290000000000000000000000000000604482015260640161030d565b8060658381548110610640576106406113ff565b60009182526020822060039190910201805473ffffffffffffffffffffffffffffffffffffffff19166001600160a01b03938416179055604080516306fdde0360e01b8152905184937f3aaa99f765c2d9bcbd284c1b88997701cb6bce9eede1b193b43fc34261ddf4e1938593918416926306fdde039260048082019392918290030181865afa1580156106d8573d6000803e3d6000fd5b505050506040513d6000823e601f3d908101601f1916820160405261070091908101906111c5565b836001600160a01b031663b3f05b976040518163ffffffff1660e01b8152600401602060405180830381865afa15801561073e573d6000803e3d6000fd5b505050506040513d601f19601f82011682018060405250810190610762919061139e565b60405161077193929190611415565b60405180910390a1505050565b60655460009084106107c25760405162461bcd60e51b815260206004820152600d60248201526c4f7574206f6620626f756e647360981b604482015260640161030d565b6000606585815481106107d7576107d76113ff565b600091825260208220600390910201546001600160a01b031691506107fb82610d17565b604051634998b7f360e01b81529091506001600160a01b03821690634998b7f39061082c9088908890600401611449565b600060405180830381600087803b15801561084657600080fd5b505af115801561085a573d6000803e3d6000fd5b509298975050505050505050565b610870610cbd565b61087a6000610db8565b565b606060006065805480602002602001604051908101604052809291908181526020016000905b82821015610989576000848152602090819020604080516060810182526003860290920180546001600160a01b03908116845260018201541693830193909352600283018054929392918401916108f890611175565b80601f016020809104026020016040519081016040528092919081815260200182805461092490611175565b80156109715780601f1061094657610100808354040283529160200191610971565b820191906000526020600020905b81548152906001019060200180831161095457829003601f168201915b505050505081525050815260200190600101906108a2565b5050505090506000815167ffffffffffffffff8111156109ab576109ab6111af565b6040519080825280602002602001820160405280156109de57816020015b60608152602001906001900390816109c95790505b50905060005b8251811015610a3b578281815181106109ff576109ff6113ff565b602002602001015160400151828281518110610a1d57610a1d6113ff565b60200260200101819052508080610a3390611478565b9150506109e4565b5092915050565b60658181548110610a5257600080fd5b60009182526020909120600390910201805460018201546002830180546001600160a01b039384169550929091169291610a8b90611175565b80601f0160208091040260200160405190810160405280929190818152602001828054610ab790611175565b8015610b045780601f10610ad957610100808354040283529160200191610b04565b820191906000526020600020905b815481529060010190602001808311610ae757829003601f168201915b5050505050905083565b610b16610cbd565b6001600160a01b038116610b925760405162461bcd60e51b815260206004820152602660248201527f4f776e61626c653a206e6577206f776e657220697320746865207a65726f206160448201527f6464726573730000000000000000000000000000000000000000000000000000606482015260840161030d565b610b9b81610db8565b50565b600054610100900460ff1615808015610bbe5750600054600160ff909116105b80610bd85750303b158015610bd8575060005460ff166001145b610c4a5760405162461bcd60e51b815260206004820152602e60248201527f496e697469616c697a61626c653a20636f6e747261637420697320616c72656160448201527f647920696e697469616c697a6564000000000000000000000000000000000000606482015260840161030d565b6000805460ff191660011790558015610c6d576000805461ff0019166101001790555b610c75610e17565b8015610b9b576000805461ff0019169055604051600181527f7f26b83ff96e1f2b6a682f133852f6798a09c465da95921460cefb38474024989060200160405180910390a150565b6033546001600160a01b0316331461087a5760405162461bcd60e51b815260206004820181905260248201527f4f776e61626c653a2063616c6c6572206973206e6f7420746865206f776e6572604482015260640161030d565b6000763d602d80600a3d3981f3363d3d373d3d3d363d730000008260601b60e81c176000526e5af43d82803e903d91602b57fd5bf38260781b17602052603760096000f090506001600160a01b038116610db35760405162461bcd60e51b815260206004820152601660248201527f455243313136373a20637265617465206661696c656400000000000000000000604482015260640161030d565b919050565b603380546001600160a01b0383811673ffffffffffffffffffffffffffffffffffffffff19831681179093556040519116919082907f8be0079c531659141344cd1fd0a4f28419497f9722a3daafe3b4186f6b6457e090600090a35050565b600054610100900460ff16610e825760405162461bcd60e51b815260206004820152602b60248201527f496e697469616c697a61626c653a20636f6e7472616374206973206e6f74206960448201526a6e697469616c697a696e6760a81b606482015260840161030d565b61087a600054610100900460ff16610ef05760405162461bcd60e51b815260206004820152602b60248201527f496e697469616c697a61626c653a20636f6e7472616374206973206e6f74206960448201526a6e697469616c697a696e6760a81b606482015260840161030d565b61087a33610db8565b60005b83811015610f14578181015183820152602001610efc565b83811115610f23576000848401525b50505050565b60008151808452610f41816020860160208601610ef9565b601f01601f19169290920160200192915050565b60006020808301818452808551808352604092508286019150828160051b87010184880160005b83811015610fd257888303603f19018552815180516001600160a01b0390811685528882015116888501528601516060878501819052610fbe81860183610f29565b968901969450505090860190600101610f7c565b509098975050505050505050565b6001600160a01b0381168114610b9b57600080fd5b60006020828403121561100757600080fd5b813561101281610fe0565b9392505050565b6000806040838503121561102c57600080fd5b82359150602083013561103e81610fe0565b809150509250929050565b60008060006040848603121561105e57600080fd5b83359250602084013567ffffffffffffffff8082111561107d57600080fd5b818601915086601f83011261109157600080fd5b8135818111156110a057600080fd5b8760208285010111156110b257600080fd5b6020830194508093505050509250925092565b6000602080830181845280855180835260408601915060408160051b870101925083870160005b8281101561111a57603f19888603018452611108858351610f29565b945092850192908501906001016110ec565b5092979650505050505050565b60006020828403121561113957600080fd5b5035919050565b60006001600160a01b0380861683528085166020840152506060604083015261116c6060830184610f29565b95945050505050565b600181811c9082168061118957607f821691505b6020821081036111a957634e487b7160e01b600052602260045260246000fd5b50919050565b634e487b7160e01b600052604160045260246000fd5b6000602082840312156111d757600080fd5b815167ffffffffffffffff808211156111ef57600080fd5b818401915084601f83011261120357600080fd5b815181811115611215576112156111af565b604051601f8201601f19908116603f0116810190838211818310171561123d5761123d6111af565b8160405282815287602084870101111561125657600080fd5b611267836020830160208801610ef9565b979650505050505050565b60006020828403121561128457600080fd5b815161101281610fe0565b601f8211156112d957600081815260208120601f850160051c810160208610156112b65750805b601f850160051c820191505b818110156112d5578281556001016112c2565b5050505b505050565b815167ffffffffffffffff8111156112f8576112f86111af565b61130c816113068454611175565b8461128f565b602080601f83116001811461134157600084156113295750858301515b600019600386901b1c1916600185901b1785556112d5565b600085815260208120601f198616915b8281101561137057888601518255948401946001909101908401611351565b508582101561138e5787850151600019600388901b60f8161c191681555b5050505050600190811b01905550565b6000602082840312156113b057600080fd5b8151801515811461101257600080fd5b60006001600160a01b038087168352808616602084015250608060408301526113ec6080830185610f29565b9050821515606083015295945050505050565b634e487b7160e01b600052603260045260246000fd5b6001600160a01b03841681526060602082015260006114376060830185610f29565b90508215156040830152949350505050565b60208152816020820152818360408301376000818301604090810191909152601f909201601f19160101919050565b60006001820161149857634e487b7160e01b600052601160045260246000fd5b506001019056fea164736f6c634300080f000a",
  "devdoc": {
    "kind": "dev",
    "methods": {
      "owner()": {
        "details": "Returns the address of the current owner."
      },
      "renounceOwnership()": {
        "details": "Leaves the contract without owner. It will not be possible to call `onlyOwner` functions anymore. Can only be called by the current owner. NOTE: Renouncing ownership will leave the contract without an owner, thereby removing any functionality that is only available to the owner."
      },
      "transferOwnership(address)": {
        "details": "Transfers ownership of the contract to a new account (`newOwner`). Can only be called by the current owner."
      }
    },
    "version": 1
  },
  "userdoc": {
    "kind": "user",
    "methods": {},
    "version": 1
  },
  "storageLayout": {
    "storage": [
      {
        "astId": 276,
        "contract": "src/v2/NFTXEligibilityManager.sol:NFTXEligibilityManager",
        "label": "_initialized",
        "offset": 0,
        "slot": "0",
        "type": "t_uint8"
      },
      {
        "astId": 279,
        "contract": "src/v2/NFTXEligibilityManager.sol:NFTXEligibilityManager",
        "label": "_initializing",
        "offset": 1,
        "slot": "0",
        "type": "t_bool"
      },
      {
        "astId": 3127,
        "contract": "src/v2/NFTXEligibilityManager.sol:NFTXEligibilityManager",
        "label": "__gap",
        "offset": 0,
        "slot": "1",
        "type": "t_array(t_uint256)50_storage"
      },
      {
        "astId": 10,
        "contract": "src/v2/NFTXEligibilityManager.sol:NFTXEligibilityManager",
        "label": "_owner",
        "offset": 0,
        "slot": "51",
        "type": "t_address"
      },
      {
        "astId": 130,
        "contract": "src/v2/NFTXEligibilityManager.sol:NFTXEligibilityManager",
        "label": "__gap",
        "offset": 0,
        "slot": "52",
        "type": "t_array(t_uint256)49_storage"
      },
      {
        "astId": 40831,
        "contract": "src/v2/NFTXEligibilityManager.sol:NFTXEligibilityManager",
        "label": "modules",
        "offset": 0,
        "slot": "101",
        "type": "t_array(t_struct(EligibilityModule)40827_storage)dyn_storage"
      }
    ],
    "types": {
      "t_address": {
        "encoding": "inplace",
        "label": "address",
        "numberOfBytes": "20"
      },
      "t_array(t_struct(EligibilityModule)40827_storage)dyn_storage": {
        "base": "t_struct(EligibilityModule)40827_storage",
        "encoding": "dynamic_array",
        "label": "struct NFTXEligibilityManager.EligibilityModule[]",
        "numberOfBytes": "32"
      },
      "t_array(t_uint256)49_storage": {
        "base": "t_uint256",
        "encoding": "inplace",
        "label": "uint256[49]",
        "numberOfBytes": "1568"
      },
      "t_array(t_uint256)50_storage": {
        "base": "t_uint256",
        "encoding": "inplace",
        "label": "uint256[50]",
        "numberOfBytes": "1600"
      },
      "t_bool": {
        "encoding": "inplace",
        "label": "bool",
        "numberOfBytes": "1"
      },
      "t_string_storage": {
        "encoding": "bytes",
        "label": "string",
        "numberOfBytes": "32"
      },
      "t_struct(EligibilityModule)40827_storage": {
        "encoding": "inplace",
        "label": "struct NFTXEligibilityManager.EligibilityModule",
        "members": [
          {
            "astId": 40822,
            "contract": "src/v2/NFTXEligibilityManager.sol:NFTXEligibilityManager",
            "label": "implementation",
            "offset": 0,
            "slot": "0",
            "type": "t_address"
          },
          {
            "astId": 40824,
            "contract": "src/v2/NFTXEligibilityManager.sol:NFTXEligibilityManager",
            "label": "targetAsset",
            "offset": 0,
            "slot": "1",
            "type": "t_address"
          },
          {
            "astId": 40826,
            "contract": "src/v2/NFTXEligibilityManager.sol:NFTXEligibilityManager",
            "label": "name",
            "offset": 0,
            "slot": "2",
            "type": "t_string_storage"
          }
        ],
        "numberOfBytes": "96"
      },
      "t_uint256": {
        "encoding": "inplace",
        "label": "uint256",
        "numberOfBytes": "32"
      },
      "t_uint8": {
        "encoding": "inplace",
        "label": "uint8",
        "numberOfBytes": "1"
      }
    }
  }
}