{
  "address": "0x8AD238377531547838370B9C4aC346b9Ed5466Ea",
  "abi": [
    {
      "inputs": [
        {
          "internalType": "address",
          "name": "_factory",
          "type": "address"
        },
        {
          "internalType": "address",
          "name": "_WETH9",
          "type": "address"
        },
        {
          "internalType": "address",
          "name": "_tokenDescriptor_",
          "type": "address"
        }
      ],
      "stateMutability": "nonpayable",
      "type": "constructor"
    },
    {
      "inputs": [],
      "name": "T",
      "type": "error"
    },
    {
      "anonymous": false,
      "inputs": [
        {
          "indexed": true,
          "internalType": "address",
          "name": "owner",
          "type": "address"
        },
        {
          "indexed": true,
          "internalType": "address",
          "name": "approved",
          "type": "address"
        },
        {
          "indexed": true,
          "internalType": "uint256",
          "name": "tokenId",
          "type": "uint256"
        }
      ],
      "name": "Approval",
      "type": "event"
    },
    {
      "anonymous": false,
      "inputs": [
        {
          "indexed": true,
          "internalType": "address",
          "name": "owner",
          "type": "address"
        },
        {
          "indexed": true,
          "internalType": "address",
          "name": "operator",
          "type": "address"
        },
        {
          "indexed": false,
          "internalType": "bool",
          "name": "approved",
          "type": "bool"
        }
      ],
      "name": "ApprovalForAll",
      "type": "event"
    },
    {
      "anonymous": false,
      "inputs": [
        {
          "indexed": true,
          "internalType": "uint256",
          "name": "tokenId",
          "type": "uint256"
        },
        {
          "indexed": false,
          "internalType": "address",
          "name": "recipient",
          "type": "address"
        },
        {
          "indexed": false,
          "internalType": "uint256",
          "name": "amount0",
          "type": "uint256"
        },
        {
          "indexed": false,
          "internalType": "uint256",
          "name": "amount1",
          "type": "uint256"
        }
      ],
      "name": "Collect",
      "type": "event"
    },
    {
      "anonymous": false,
      "inputs": [
        {
          "indexed": true,
          "internalType": "uint256",
          "name": "tokenId",
          "type": "uint256"
        },
        {
          "indexed": false,
          "internalType": "uint128",
          "name": "liquidity",
          "type": "uint128"
        },
        {
          "indexed": false,
          "internalType": "uint256",
          "name": "amount0",
          "type": "uint256"
        },
        {
          "indexed": false,
          "internalType": "uint256",
          "name": "amount1",
          "type": "uint256"
        }
      ],
      "name": "DecreaseLiquidity",
      "type": "event"
    },
    {
      "anonymous": false,
      "inputs": [
        {
          "indexed": true,
          "internalType": "uint256",
          "name": "tokenId",
          "type": "uint256"
        },
        {
          "indexed": false,
          "internalType": "uint128",
          "name": "liquidity",
          "type": "uint128"
        },
        {
          "indexed": false,
          "internalType": "uint256",
          "name": "amount0",
          "type": "uint256"
        },
        {
          "indexed": false,
          "internalType": "uint256",
          "name": "amount1",
          "type": "uint256"
        }
      ],
      "name": "IncreaseLiquidity",
      "type": "event"
    },
    {
      "anonymous": false,
      "inputs": [
        {
          "indexed": true,
          "internalType": "address",
          "name": "previousOwner",
          "type": "address"
        },
        {
          "indexed": true,
          "internalType": "address",
          "name": "newOwner",
          "type": "address"
        }
      ],
      "name": "OwnershipTransferred",
      "type": "event"
    },
    {
      "anonymous": false,
      "inputs": [
        {
          "indexed": true,
          "internalType": "address",
          "name": "from",
          "type": "address"
        },
        {
          "indexed": true,
          "internalType": "address",
          "name": "to",
          "type": "address"
        },
        {
          "indexed": true,
          "internalType": "uint256",
          "name": "tokenId",
          "type": "uint256"
        }
      ],
      "name": "Transfer",
      "type": "event"
    },
    {
      "inputs": [],
      "name": "DOMAIN_SEPARATOR",
      "outputs": [
        {
          "internalType": "bytes32",
          "name": "",
          "type": "bytes32"
        }
      ],
      "stateMutability": "view",
      "type": "function"
    },
    {
      "inputs": [],
      "name": "PERMIT_TYPEHASH",
      "outputs": [
        {
          "internalType": "bytes32",
          "name": "",
          "type": "bytes32"
        }
      ],
      "stateMutability": "view",
      "type": "function"
    },
    {
      "inputs": [],
      "name": "WETH9",
      "outputs": [
        {
          "internalType": "address",
          "name": "",
          "type": "address"
        }
      ],
      "stateMutability": "view",
      "type": "function"
    },
    {
      "inputs": [
        {
          "internalType": "address",
          "name": "to",
          "type": "address"
        },
        {
          "internalType": "uint256",
          "name": "tokenId",
          "type": "uint256"
        }
      ],
      "name": "approve",
      "outputs": [],
      "stateMutability": "nonpayable",
      "type": "function"
    },
    {
      "inputs": [
        {
          "internalType": "address",
          "name": "owner",
          "type": "address"
        }
      ],
      "name": "balanceOf",
      "outputs": [
        {
          "internalType": "uint256",
          "name": "",
          "type": "uint256"
        }
      ],
      "stateMutability": "view",
      "type": "function"
    },
    {
      "inputs": [],
      "name": "baseURI",
      "outputs": [
        {
          "internalType": "string",
          "name": "",
          "type": "string"
        }
      ],
      "stateMutability": "pure",
      "type": "function"
    },
    {
      "inputs": [
        {
          "internalType": "uint256",
          "name": "tokenId",
          "type": "uint256"
        }
      ],
      "name": "burn",
      "outputs": [],
      "stateMutability": "payable",
      "type": "function"
    },
    {
      "inputs": [
        {
          "components": [
            {
              "internalType": "uint256",
              "name": "tokenId",
              "type": "uint256"
            },
            {
              "internalType": "address",
              "name": "recipient",
              "type": "address"
            },
            {
              "internalType": "uint128",
              "name": "amount0Max",
              "type": "uint128"
            },
            {
              "internalType": "uint128",
              "name": "amount1Max",
              "type": "uint128"
            }
          ],
          "internalType": "struct INonfungiblePositionManager.CollectParams",
          "name": "params",
          "type": "tuple"
        }
      ],
      "name": "collect",
      "outputs": [
        {
          "internalType": "uint256",
          "name": "amount0",
          "type": "uint256"
        },
        {
          "internalType": "uint256",
          "name": "amount1",
          "type": "uint256"
        }
      ],
      "stateMutability": "payable",
      "type": "function"
    },
    {
      "inputs": [
        {
          "internalType": "address",
          "name": "token0",
          "type": "address"
        },
        {
          "internalType": "address",
          "name": "token1",
          "type": "address"
        },
        {
          "internalType": "uint24",
          "name": "fee",
          "type": "uint24"
        },
        {
          "internalType": "uint160",
          "name": "sqrtPriceX96",
          "type": "uint160"
        }
      ],
      "name": "createAndInitializePoolIfNecessary",
      "outputs": [
        {
          "internalType": "address",
          "name": "pool",
          "type": "address"
        }
      ],
      "stateMutability": "payable",
      "type": "function"
    },
    {
      "inputs": [
        {
          "components": [
            {
              "internalType": "uint256",
              "name": "tokenId",
              "type": "uint256"
            },
            {
              "internalType": "uint128",
              "name": "liquidity",
              "type": "uint128"
            },
            {
              "internalType": "uint256",
              "name": "amount0Min",
              "type": "uint256"
            },
            {
              "internalType": "uint256",
              "name": "amount1Min",
              "type": "uint256"
            },
            {
              "internalType": "uint256",
              "name": "deadline",
              "type": "uint256"
            }
          ],
          "internalType": "struct INonfungiblePositionManager.DecreaseLiquidityParams",
          "name": "params",
          "type": "tuple"
        }
      ],
      "name": "decreaseLiquidity",
      "outputs": [
        {
          "internalType": "uint256",
          "name": "amount0",
          "type": "uint256"
        },
        {
          "internalType": "uint256",
          "name": "amount1",
          "type": "uint256"
        }
      ],
      "stateMutability": "payable",
      "type": "function"
    },
    {
      "inputs": [],
      "name": "factory",
      "outputs": [
        {
          "internalType": "address",
          "name": "",
          "type": "address"
        }
      ],
      "stateMutability": "view",
      "type": "function"
    },
    {
      "inputs": [
        {
          "internalType": "uint256",
          "name": "tokenId",
          "type": "uint256"
        }
      ],
      "name": "getApproved",
      "outputs": [
        {
          "internalType": "address",
          "name": "",
          "type": "address"
        }
      ],
      "stateMutability": "view",
      "type": "function"
    },
    {
      "inputs": [
        {
          "components": [
            {
              "internalType": "uint256",
              "name": "tokenId",
              "type": "uint256"
            },
            {
              "internalType": "uint256",
              "name": "amount0Desired",
              "type": "uint256"
            },
            {
              "internalType": "uint256",
              "name": "amount1Desired",
              "type": "uint256"
            },
            {
              "internalType": "uint256",
              "name": "amount0Min",
              "type": "uint256"
            },
            {
              "internalType": "uint256",
              "name": "amount1Min",
              "type": "uint256"
            },
            {
              "internalType": "uint256",
              "name": "deadline",
              "type": "uint256"
            }
          ],
          "internalType": "struct INonfungiblePositionManager.IncreaseLiquidityParams",
          "name": "params",
          "type": "tuple"
        }
      ],
      "name": "increaseLiquidity",
      "outputs": [
        {
          "internalType": "uint128",
          "name": "liquidity",
          "type": "uint128"
        },
        {
          "internalType": "uint256",
          "name": "amount0",
          "type": "uint256"
        },
        {
          "internalType": "uint256",
          "name": "amount1",
          "type": "uint256"
        }
      ],
      "stateMutability": "payable",
      "type": "function"
    },
    {
      "inputs": [
        {
          "internalType": "address",
          "name": "owner",
          "type": "address"
        },
        {
          "internalType": "address",
          "name": "operator",
          "type": "address"
        }
      ],
      "name": "isApprovedForAll",
      "outputs": [
        {
          "internalType": "bool",
          "name": "",
          "type": "bool"
        }
      ],
      "stateMutability": "view",
      "type": "function"
    },
    {
      "inputs": [
        {
          "internalType": "uint256",
          "name": "",
          "type": "uint256"
        }
      ],
      "name": "lockedUntil",
      "outputs": [
        {
          "internalType": "uint256",
          "name": "",
          "type": "uint256"
        }
      ],
      "stateMutability": "view",
      "type": "function"
    },
    {
      "inputs": [
        {
          "components": [
            {
              "internalType": "address",
              "name": "token0",
              "type": "address"
            },
            {
              "internalType": "address",
              "name": "token1",
              "type": "address"
            },
            {
              "internalType": "uint24",
              "name": "fee",
              "type": "uint24"
            },
            {
              "internalType": "int24",
              "name": "tickLower",
              "type": "int24"
            },
            {
              "internalType": "int24",
              "name": "tickUpper",
              "type": "int24"
            },
            {
              "internalType": "uint256",
              "name": "amount0Desired",
              "type": "uint256"
            },
            {
              "internalType": "uint256",
              "name": "amount1Desired",
              "type": "uint256"
            },
            {
              "internalType": "uint256",
              "name": "amount0Min",
              "type": "uint256"
            },
            {
              "internalType": "uint256",
              "name": "amount1Min",
              "type": "uint256"
            },
            {
              "internalType": "address",
              "name": "recipient",
              "type": "address"
            },
            {
              "internalType": "uint256",
              "name": "deadline",
              "type": "uint256"
            }
          ],
          "internalType": "struct INonfungiblePositionManager.MintParams",
          "name": "params",
          "type": "tuple"
        }
      ],
      "name": "mint",
      "outputs": [
        {
          "internalType": "uint256",
          "name": "tokenId",
          "type": "uint256"
        },
        {
          "internalType": "uint128",
          "name": "liquidity",
          "type": "uint128"
        },
        {
          "internalType": "uint256",
          "name": "amount0",
          "type": "uint256"
        },
        {
          "internalType": "uint256",
          "name": "amount1",
          "type": "uint256"
        }
      ],
      "stateMutability": "payable",
      "type": "function"
    },
    {
      "inputs": [
        {
          "internalType": "bytes[]",
          "name": "data",
          "type": "bytes[]"
        }
      ],
      "name": "multicall",
      "outputs": [
        {
          "internalType": "bytes[]",
          "name": "results",
          "type": "bytes[]"
        }
      ],
      "stateMutability": "payable",
      "type": "function"
    },
    {
      "inputs": [],
      "name": "name",
      "outputs": [
        {
          "internalType": "string",
          "name": "",
          "type": "string"
        }
      ],
      "stateMutability": "view",
      "type": "function"
    },
    {
      "inputs": [],
      "name": "owner",
      "outputs": [
        {
          "internalType": "address",
          "name": "",
          "type": "address"
        }
      ],
      "stateMutability": "view",
      "type": "function"
    },
    {
      "inputs": [
        {
          "internalType": "uint256",
          "name": "tokenId",
          "type": "uint256"
        }
      ],
      "name": "ownerOf",
      "outputs": [
        {
          "internalType": "address",
          "name": "",
          "type": "address"
        }
      ],
      "stateMutability": "view",
      "type": "function"
    },
    {
      "inputs": [
        {
          "internalType": "address",
          "name": "spender",
          "type": "address"
        },
        {
          "internalType": "uint256",
          "name": "tokenId",
          "type": "uint256"
        },
        {
          "internalType": "uint256",
          "name": "deadline",
          "type": "uint256"
        },
        {
          "internalType": "uint8",
          "name": "v",
          "type": "uint8"
        },
        {
          "internalType": "bytes32",
          "name": "r",
          "type": "bytes32"
        },
        {
          "internalType": "bytes32",
          "name": "s",
          "type": "bytes32"
        }
      ],
      "name": "permit",
      "outputs": [],
      "stateMutability": "payable",
      "type": "function"
    },
    {
      "inputs": [
        {
          "internalType": "uint256",
          "name": "tokenId",
          "type": "uint256"
        }
      ],
      "name": "positions",
      "outputs": [
        {
          "internalType": "uint96",
          "name": "nonce",
          "type": "uint96"
        },
        {
          "internalType": "address",
          "name": "operator",
          "type": "address"
        },
        {
          "internalType": "address",
          "name": "token0",
          "type": "address"
        },
        {
          "internalType": "address",
          "name": "token1",
          "type": "address"
        },
        {
          "internalType": "uint24",
          "name": "fee",
          "type": "uint24"
        },
        {
          "internalType": "int24",
          "name": "tickLower",
          "type": "int24"
        },
        {
          "internalType": "int24",
          "name": "tickUpper",
          "type": "int24"
        },
        {
          "internalType": "uint128",
          "name": "liquidity",
          "type": "uint128"
        },
        {
          "internalType": "uint256",
          "name": "feeGrowthInside0LastX128",
          "type": "uint256"
        },
        {
          "internalType": "uint256",
          "name": "feeGrowthInside1LastX128",
          "type": "uint256"
        },
        {
          "internalType": "uint128",
          "name": "tokensOwed0",
          "type": "uint128"
        },
        {
          "internalType": "uint128",
          "name": "tokensOwed1",
          "type": "uint128"
        }
      ],
      "stateMutability": "view",
      "type": "function"
    },
    {
      "inputs": [],
      "name": "refundETH",
      "outputs": [],
      "stateMutability": "payable",
      "type": "function"
    },
    {
      "inputs": [
        {
          "internalType": "address",
          "name": "receiver",
          "type": "address"
        }
      ],
      "name": "refundETH",
      "outputs": [],
      "stateMutability": "payable",
      "type": "function"
    },
    {
      "inputs": [],
      "name": "renounceOwnership",
      "outputs": [],
      "stateMutability": "nonpayable",
      "type": "function"
    },
    {
      "inputs": [
        {
          "internalType": "address",
          "name": "from",
          "type": "address"
        },
        {
          "internalType": "address",
          "name": "to",
          "type": "address"
        },
        {
          "internalType": "uint256",
          "name": "tokenId",
          "type": "uint256"
        }
      ],
      "name": "safeTransferFrom",
      "outputs": [],
      "stateMutability": "nonpayable",
      "type": "function"
    },
    {
      "inputs": [
        {
          "internalType": "address",
          "name": "from",
          "type": "address"
        },
        {
          "internalType": "address",
          "name": "to",
          "type": "address"
        },
        {
          "internalType": "uint256",
          "name": "tokenId",
          "type": "uint256"
        },
        {
          "internalType": "bytes",
          "name": "_data",
          "type": "bytes"
        }
      ],
      "name": "safeTransferFrom",
      "outputs": [],
      "stateMutability": "nonpayable",
      "type": "function"
    },
    {
      "inputs": [
        {
          "internalType": "address",
          "name": "token",
          "type": "address"
        },
        {
          "internalType": "uint256",
          "name": "value",
          "type": "uint256"
        },
        {
          "internalType": "uint256",
          "name": "deadline",
          "type": "uint256"
        },
        {
          "internalType": "uint8",
          "name": "v",
          "type": "uint8"
        },
        {
          "internalType": "bytes32",
          "name": "r",
          "type": "bytes32"
        },
        {
          "internalType": "bytes32",
          "name": "s",
          "type": "bytes32"
        }
      ],
      "name": "selfPermit",
      "outputs": [],
      "stateMutability": "payable",
      "type": "function"
    },
    {
      "inputs": [
        {
          "internalType": "address",
          "name": "token",
          "type": "address"
        },
        {
          "internalType": "uint256",
          "name": "nonce",
          "type": "uint256"
        },
        {
          "internalType": "uint256",
          "name": "expiry",
          "type": "uint256"
        },
        {
          "internalType": "uint8",
          "name": "v",
          "type": "uint8"
        },
        {
          "internalType": "bytes32",
          "name": "r",
          "type": "bytes32"
        },
        {
          "internalType": "bytes32",
          "name": "s",
          "type": "bytes32"
        }
      ],
      "name": "selfPermitAllowed",
      "outputs": [],
      "stateMutability": "payable",
      "type": "function"
    },
    {
      "inputs": [
        {
          "internalType": "address",
          "name": "token",
          "type": "address"
        },
        {
          "internalType": "uint256",
          "name": "nonce",
          "type": "uint256"
        },
        {
          "internalType": "uint256",
          "name": "expiry",
          "type": "uint256"
        },
        {
          "internalType": "uint8",
          "name": "v",
          "type": "uint8"
        },
        {
          "internalType": "bytes32",
          "name": "r",
          "type": "bytes32"
        },
        {
          "internalType": "bytes32",
          "name": "s",
          "type": "bytes32"
        }
      ],
      "name": "selfPermitAllowedIfNecessary",
      "outputs": [],
      "stateMutability": "payable",
      "type": "function"
    },
    {
      "inputs": [
        {
          "internalType": "address",
          "name": "token",
          "type": "address"
        },
        {
          "internalType": "uint256",
          "name": "value",
          "type": "uint256"
        },
        {
          "internalType": "uint256",
          "name": "deadline",
          "type": "uint256"
        },
        {
          "internalType": "uint8",
          "name": "v",
          "type": "uint8"
        },
        {
          "internalType": "bytes32",
          "name": "r",
          "type": "bytes32"
        },
        {
          "internalType": "bytes32",
          "name": "s",
          "type": "bytes32"
        }
      ],
      "name": "selfPermitIfNecessary",
      "outputs": [],
      "stateMutability": "payable",
      "type": "function"
    },
    {
      "inputs": [
        {
          "internalType": "address",
          "name": "operator",
          "type": "address"
        },
        {
          "internalType": "bool",
          "name": "approved",
          "type": "bool"
        }
      ],
      "name": "setApprovalForAll",
      "outputs": [],
      "stateMutability": "nonpayable",
      "type": "function"
    },
    {
      "inputs": [
        {
          "internalType": "uint256",
          "name": "tokenId",
          "type": "uint256"
        },
        {
          "internalType": "uint256",
          "name": "lockedUntil_",
          "type": "uint256"
        },
        {
          "internalType": "uint256",
          "name": "timelock_",
          "type": "uint256"
        }
      ],
      "name": "setLockedUntil",
      "outputs": [],
      "stateMutability": "nonpayable",
      "type": "function"
    },
    {
      "inputs": [
        {
          "internalType": "address",
          "name": "addr",
          "type": "address"
        },
        {
          "internalType": "bool",
          "name": "isExcluded",
          "type": "bool"
        }
      ],
      "name": "setTimelockExcluded",
      "outputs": [],
      "stateMutability": "nonpayable",
      "type": "function"
    },
    {
      "inputs": [
        {
          "internalType": "bytes4",
          "name": "interfaceId",
          "type": "bytes4"
        }
      ],
      "name": "supportsInterface",
      "outputs": [
        {
          "internalType": "bool",
          "name": "",
          "type": "bool"
        }
      ],
      "stateMutability": "view",
      "type": "function"
    },
    {
      "inputs": [
        {
          "internalType": "address",
          "name": "token",
          "type": "address"
        },
        {
          "internalType": "uint256",
          "name": "amountMinimum",
          "type": "uint256"
        },
        {
          "internalType": "address",
          "name": "recipient",
          "type": "address"
        }
      ],
      "name": "sweepToken",
      "outputs": [],
      "stateMutability": "payable",
      "type": "function"
    },
    {
      "inputs": [],
      "name": "symbol",
      "outputs": [
        {
          "internalType": "string",
          "name": "",
          "type": "string"
        }
      ],
      "stateMutability": "view",
      "type": "function"
    },
    {
      "inputs": [
        {
          "internalType": "uint256",
          "name": "",
          "type": "uint256"
        }
      ],
      "name": "timelock",
      "outputs": [
        {
          "internalType": "uint256",
          "name": "",
          "type": "uint256"
        }
      ],
      "stateMutability": "view",
      "type": "function"
    },
    {
      "inputs": [
        {
          "internalType": "address",
          "name": "",
          "type": "address"
        }
      ],
      "name": "timelockExcluded",
      "outputs": [
        {
          "internalType": "bool",
          "name": "",
          "type": "bool"
        }
      ],
      "stateMutability": "view",
      "type": "function"
    },
    {
      "inputs": [
        {
          "internalType": "uint256",
          "name": "index",
          "type": "uint256"
        }
      ],
      "name": "tokenByIndex",
      "outputs": [
        {
          "internalType": "uint256",
          "name": "",
          "type": "uint256"
        }
      ],
      "stateMutability": "view",
      "type": "function"
    },
    {
      "inputs": [
        {
          "internalType": "address",
          "name": "owner",
          "type": "address"
        },
        {
          "internalType": "uint256",
          "name": "index",
          "type": "uint256"
        }
      ],
      "name": "tokenOfOwnerByIndex",
      "outputs": [
        {
          "internalType": "uint256",
          "name": "",
          "type": "uint256"
        }
      ],
      "stateMutability": "view",
      "type": "function"
    },
    {
      "inputs": [
        {
          "internalType": "uint256",
          "name": "tokenId",
          "type": "uint256"
        }
      ],
      "name": "tokenURI",
      "outputs": [
        {
          "internalType": "string",
          "name": "",
          "type": "string"
        }
      ],
      "stateMutability": "view",
      "type": "function"
    },
    {
      "inputs": [],
      "name": "totalSupply",
      "outputs": [
        {
          "internalType": "uint256",
          "name": "",
          "type": "uint256"
        }
      ],
      "stateMutability": "view",
      "type": "function"
    },
    {
      "inputs": [
        {
          "internalType": "address",
          "name": "from",
          "type": "address"
        },
        {
          "internalType": "address",
          "name": "to",
          "type": "address"
        },
        {
          "internalType": "uint256",
          "name": "tokenId",
          "type": "uint256"
        }
      ],
      "name": "transferFrom",
      "outputs": [],
      "stateMutability": "nonpayable",
      "type": "function"
    },
    {
      "inputs": [
        {
          "internalType": "address",
          "name": "newOwner",
          "type": "address"
        }
      ],
      "name": "transferOwnership",
      "outputs": [],
      "stateMutability": "nonpayable",
      "type": "function"
    },
    {
      "inputs": [
        {
          "internalType": "uint256",
          "name": "amount0Owed",
          "type": "uint256"
        },
        {
          "internalType": "uint256",
          "name": "amount1Owed",
          "type": "uint256"
        },
        {
          "internalType": "bytes",
          "name": "data",
          "type": "bytes"
        }
      ],
      "name": "uniswapV3MintCallback",
      "outputs": [],
      "stateMutability": "nonpayable",
      "type": "function"
    },
    {
      "inputs": [
        {
          "internalType": "uint256",
          "name": "amountMinimum",
          "type": "uint256"
        },
        {
          "internalType": "address",
          "name": "recipient",
          "type": "address"
        }
      ],
      "name": "unwrapWETH9",
      "outputs": [],
      "stateMutability": "payable",
      "type": "function"
    },
    {
      "stateMutability": "payable",
      "type": "receive"
    }
  ],
  "transactionHash": "0xe2610861396e89a18804687fddf8ad387f076c01212b6476d8de5a330b654880",
  "args": [
    "0xF4D0512FB47319B0CE9144EF582862e2921CaBF8",
    "0x82aF49447D8a07e3bd95BD0d56f35241523fBab1",
    "0x86E6eDeB27033b6c5E4b88fBF39B2332e3fD0BD7"
  ],
  "numDeployments": 1,
  "solcInputHash": "a29b6616b6cafff447a9901a5520d388",
  "bytecode": "0x610120346200048e576001600160401b03601f6200607738819003918201601f19168401918383118584101762000391578085926060946040528339810103126200048e576200004f82620004b3565b916200006c60406200006460208401620004b3565b9201620004b3565b926200007762000493565b9260118452704e46545820563320506f736974696f6e7360781b6020850152620000a062000493565b90600b82526a4e4654582d56332d504f5360a81b6020830152620000c362000493565b9160018352603160f81b602084015285518281116200039157600054600181811c9116801562000483575b60208210146200037057601f81116200042b575b50806020601f8211600114620003b357600091620003a7575b508160011b916000199060031b1c1916176000555b8051918211620003915760015490600182811c9216801562000386575b6020831014620003705781601f8493116200030c575b50602090601f8311600114620002925760009262000286575b50508160011b916000199060031b1c1916176001555b600a8054336001600160a01b0319821681179092556040519591906001600160a01b03167f8be0079c531659141344cd1fd0a4f28419497f9722a3daafe3b4186f6b6457e0600088a3602081519101206080526020815191012060a05260c05260e052760100000000000000000000000000000000000000000001600e55610100918252615b6e9182620004c983396080518261482e015260a05182614854015260c0518281816108b901528181610ccf015281816118c6015281816128be01528181614b000152614caa015260e05182818161164c015281816117720152818161539001526154c0015251816129620152f35b0151905038806200017c565b60016000908152600080516020620060578339815191529350601f198516905b818110620002f35750908460019594939210620002d9575b505050811b0160015562000192565b015160001960f88460031b161c19169055388080620002ca565b92936020600181928786015181550195019301620002b2565b600160005290915060008051602062006057833981519152601f840160051c8101916020851062000365575b90601f859493920160051c01905b81811062000355575062000163565b6000815584935060010162000346565b909150819062000338565b634e487b7160e01b600052602260045260246000fd5b91607f16916200014d565b634e487b7160e01b600052604160045260246000fd5b9050870151386200011b565b6000808052600080516020620060378339815191529250601f198416905b8a828210620004125750509083600194939210620003f8575b5050811b0160005562000130565b89015160001960f88460031b161c191690553880620003ea565b60018495602093958493015181550194019201620003d1565b6000805260008051602062006037833981519152601f830160051c8101916020841062000478575b601f0160051c01905b8181106200046b575062000102565b600081556001016200045c565b909150819062000453565b90607f1690620000ee565b600080fd5b60408051919082016001600160401b038111838210176200039157604052565b51906001600160a01b03821682036200048e5756fe60806040526004361015610023575b361561001957600080fd5b610021615386565b005b60003560e01c806301ffc9a7146103cf57806306fdde03146103c6578063081812fc146103bd578063095ea7b3146103b45780630c49ccbe146103ab57806312210e8a146103a257806313ead5621461039957806318160ddd146103905780631cf6e5b414610387578063211b832c1461037e578063219f5d171461037557806323b872dd1461036c5780632a3ec906146103635780632f745c591461035a57806330adf81f146103515780633644e5151461034857806342842e0e1461033f57806342966c68146103365780634659a4941461032d57806349404b7c146103245780634aa4a4fc1461031b5780634f6ccce7146103125780636352211e1461030957806369deb33d146103005780636c0360eb146102f757806370a08231146102ee578063715018a6146102e55780637ac2ff7b146102dc5780637cd78b02146102d357806388316456146102ca5780638da5cb5b146102c157806395d89b41146102b857806399fbab88146102af578063a22cb465146102a6578063a4a78f0c1461029d578063ac9650d814610294578063b88d4fde1461028b578063c2e3140a14610282578063c45a015514610279578063c87b56dd14610270578063d348799714610267578063df2ab5bb1461025e578063e985e9c514610255578063e995322d1461024c578063f2fde38b14610243578063f3995c671461023a5763fc6f78650361000e57610235612c30565b61000e565b50610235612c17565b50610235612b68565b50610235612b3b565b50610235612ad0565b50610235612a29565b506102356129cf565b506102356128e2565b5061023561289d565b50610235612814565b50610235612782565b50610235612537565b5061023561244b565b50610235612377565b5061023561221d565b506102356120b9565b50610235612091565b50610235611d66565b50610235611d39565b50610235611abf565b50610235611a5b565b50610235611a33565b506102356119c8565b50610235611871565b50610235611852565b50610235611796565b50610235611751565b50610235611616565b506102356115fd565b506102356114cb565b506102356114a2565b5061023561147e565b50610235611442565b5061023561136f565b50610235611325565b506102356112cc565b50610235610ff9565b50610235610fb5565b50610235610f8a565b50610235610f6b565b50610235610c1a565b50610235610bef565b506102356107b4565b506102356106a2565b50610235610661565b50610235610556565b506102356103ef565b6001600160e01b03198116036103ea57565b600080fd5b50346103ea5760203660031901126103ea5760206001600160e01b0319600435610418816103d8565b167f780e9d6300000000000000000000000000000000000000000000000000000000811490811561044f575b506040519015158152f35b7f80ac58cd000000000000000000000000000000000000000000000000000000008114915081156104b3575b8115610489575b5038610444565b7f01ffc9a70000000000000000000000000000000000000000000000000000000091501438610482565b7f5b5e139f000000000000000000000000000000000000000000000000000000008114915061047b565b60009103126103ea57565b918091926000905b828210610508575011610501575050565b6000910152565b915080602091830151818601520182916104f0565b90602091610536815180928185528580860191016104e8565b601f01601f1916010190565b90602061055392818152019061051d565b90565b50346103ea5760008060031936011261065e57604051908080549060019180831c92808216928315610654575b602092838610851461064057858852602088019490811561061f57506001146105c7575b6105c3876105b7818903826126e7565b60405191829182610542565b0390f35b6000805294509192917f290decd9548b62a8d60345a988386fc84ba6bc95484008f6362f93160ef3e5635b83861061060e57505050910190506105b7826105c338806105a7565b8054858701529482019481016105f2565b60ff191685525050505090151560051b0190506105b7826105c338806105a7565b602482634e487b7160e01b81526022600452fd5b93607f1693610583565b80fd5b50346103ea5760203660031901126103ea57602061068060043561469f565b6001600160a01b0360405191168152f35b6001600160a01b038116036103ea57565b50346103ea5760403660031901126103ea576004356106c081610691565b6024356106cc816131ca565b916001600160a01b03808416809183161461074a57610021936106f99133149081156106fe575b50613254565b61478d565b610744915061073d9061072533916001600160a01b03166000526005602052604060002090565b906001600160a01b0316600052602052604060002090565b5460ff1690565b386106f3565b608460405162461bcd60e51b815260206004820152602160248201527f4552433732313a20617070726f76616c20746f2063757272656e74206f776e6560448201527f72000000000000000000000000000000000000000000000000000000000000006064820152fd5b5060a03660031901126103ea576004356107d66107d182336133cc565b614439565b6107e4608435421115613ce7565b6109356001600160801b0391610804836107fc614484565b161515614251565b61082461073d336001600160a01b03166000526011602052604060002090565b8015610bcd575b61083490614251565b61084881600052600d602052604060002090565b9260018401908154948560801c91610878610870610864614484565b6001600160801b031690565b841015614251565b60406108e96108dd6108dd6108b76108b269ffffffffffffffffffff8d1669ffffffffffffffffffff16600052600c602052604060002090565b613c8f565b7f0000000000000000000000000000000000000000000000000000000000000000615852565b6001600160a01b031690565b976108f2614484565b825163a34123a760e01b8152605083901c600290810b600483015260689390931c90920b60248301526001600160801b0316604482015296879081906064820190565b038160008b5af1968715610bc0575b6000968798610b71575b509183916109af610aa1969560a0610a69966044358c101580610b65575b610975906144be565b61098e89548060681c60020b9060501c60020b306158f9565b90604051808096819463514ea4bf60e01b8352600483019190602083019252565b03915afa938415610b58575b8b8b6000948597610b09575b50610a5f839260036109fe610a69948a6109ef6108646002610a919b019b8d8d5490036142d3565b9116016001600160801b031690565b94610a4d610a286004830197610a1b89546001600160801b031690565b016001600160801b031690565b87906001600160801b03166fffffffffffffffffffffffffffffffff19825416179055565b01976109ef6108648c8b548d036142d3565b825460801c610a1b565b6001600160801b036fffffffffffffffffffffffffffffffff1983549260801b169116179055565b5555610a9b614484565b90614509565b7f26f6a048ee9138f2c0ce266f322cb99228e8d619ae2bff30c67f8dcf9d2377b482610acb614484565b610af586604051938493846040919493926001600160801b03606083019616825260208201520152565b0390a2604080519182526020820192909252f35b610a699197506109fe9550610a9193926003610b3e610a5f9360a03d8111610b51575b610b3681836126e7565b810190613db0565b5050999150989a945050509293506109c7565b503d610b2c565b610b60613721565b6109bb565b506064358d101561096c565b610a699391985060a09750916109af85610ba7610aa198979560403d604011610bb9575b610b9f81836126e7565b8101906144a8565b9a909a9b94965050505091939461094e565b503d610b95565b610bc8613721565b610944565b50610834610be582600052600f602052604060002090565b544211905061082b565b5060003660031901126103ea5747610c0357005b6100214733615af1565b62ffffff8116036103ea57565b5060803660031901126103ea5760048035610c3481610691565b602435610c4081610691565b60443592610c4d84610c0d565b60643593610c5a85610691565b6001600160a01b03906000610c7485841687851610614251565b604080517f1698ee820000000000000000000000000000000000000000000000000000000081526001600160a01b03808916878301908152908816602082015262ffffff8516818401529097919691908890606001039288867f0000000000000000000000000000000000000000000000000000000000000000169460209a8b9181885afa918215610f5e575b91610f41575b5080861680610e4d57505086517fa16712950000000000000000000000000000000000000000000000000000000081526001600160a01b0391821687820190815291909216602082015262ffffff909316604084015291869183918290600090829060600103925af1948515610e40575b600095610e11575b5050831690813b156103ea576105c394610dc19260009283865180968195829463f637731d60e01b845283019190916001600160a01b036020820193169052565b03925af18015610e04575b610deb575b505b516001600160a01b0390911681529081906020820190565b80610df8610dfe92612656565b806104dd565b38610dd1565b610e0c613721565b610dcc565b610e31929550803d10610e39575b610e2981836126e7565b81019061468a565b923880610d80565b503d610e1f565b610e48613721565b610d78565b9695945097505050508351633850c7bd60e01b815260e0818481875afa908115610f34575b600091610f00575b501615610e8e575b50506105c39250610dd3565b813b156103ea576105c394610eca9260009283865180968195829463f637731d60e01b845283019190916001600160a01b036020820193169052565b03925af18015610ef3575b610ee0575b80610e82565b80610df8610eed92612656565b38610eda565b610efb613721565b610ed5565b610f21915060e03d8111610f2d575b610f1981836126e7565b810190614b9d565b50505050505038610e7a565b503d610f0f565b610f3c613721565b610e72565b610f589150893d8b11610e3957610e2981836126e7565b38610d07565b610f66613721565b610d01565b50346103ea5760003660031901126103ea576020600854604051908152f35b5060203660031901126103ea57600435610fa381610691565b47610faa57005b610021904790615af1565b50346103ea5760203660031901126103ea576001600160a01b03600435610fdb81610691565b166000526011602052602060ff604060002054166040519015158152f35b5060c03660031901126103ea5761101460a435421115613ce7565b60043561102b81600052600d602052604060002090565b906105c36112036001840192611129845461110261106e6108b269ffffffffffffffffffff841669ffffffffffffffffffff16600052600c602052604060002090565b916110e261108384516001600160a01b031690565b936110d66110ab60406110a060208501516001600160a01b031690565b93015162ffffff1690565b916110c66110b7612709565b6001600160a01b039098168852565b6001600160a01b03166020870152565b62ffffff166040850152565b306060840152605081901c60020b608084015260681c60020b60a0830152565b60243560c082015260443560e0820152606435610100820152608435610120820152614c47565b9094929691976001600160a01b0360a06111778554946111568660681c60020b8760501c60020b306158f9565b60405194858094819363514ea4bf60e01b8352600483019190602083019252565b0392165afa928315611293575b600091829461126c575b506111ed60036111ad6108646002870194855487039060801c906142d3565b946111ca610a286004830197610a1b89546001600160801b031690565b0193610a69610a5f610864875489036111e76108648c5460801c90565b906142d3565b5555610a69866111fe835460801c90565b6142b7565b604080516001600160801b0386168152602081018790529081018390527f3067048beee31b25b2f1681f88dac838c8bba36af25bfb2b7cf7473a5847e35f90606090a2604051938493846040919493926001600160801b03606083019616825260208201520152565b909350611287915060a03d8111610b5157610b3681836126e7565b5050915090923861118e565b61129b613721565b611184565b60609060031901126103ea576004356112b881610691565b906024356112c581610691565b9060443590565b50346103ea576100216112de366112a0565b916112f16112ec84336133cc565b6132c5565b613583565b801515036103ea57565b60409060031901126103ea5760043561131881610691565b90602435610553816112f6565b50346103ea5761002161133736611300565b906001600160a01b039061135082600a541633146130ab565b16600052601160205260406000209060ff801983541691151516179055565b50346103ea5760403660031901126103ea5760043561138d81610691565b6024359061139a81613140565b8210156113d8576001600160a01b031660005260066020526040600020906000526020526105c3604060002054604051918291829190602083019252565b608460405162461bcd60e51b815260206004820152602b60248201527f455243373231456e756d657261626c653a206f776e657220696e646578206f7560448201527f74206f6620626f756e64730000000000000000000000000000000000000000006064820152fd5b50346103ea5760003660031901126103ea5760206040517f49ecf333e5b8c95c40fdafc95c1ad136e8914a8fb55e9dc8bb01eaa83a2df9ad8152f35b50346103ea5760003660031901126103ea57602061149a614801565b604051908152f35b50346103ea576100216114b4366112a0565b90604051926114c2846126af565b60008452613336565b5060203660031901126103ea576004356114e86107d182336133cc565b80600052600d6020526040600020600181015460801c1590816115a4575b81611594575b5015611550578061154b61152d61002193600052600d602052604060002090565b60046000918281558260018201558260028201558260038201550155565b614546565b606460405162461bcd60e51b815260206004820152600b60248201527f4e6f7420636c65617265640000000000000000000000000000000000000000006044820152fd5b60049150015460801c153861150c565b60048101546001600160801b0316159150611506565b60ff8116036103ea57565b60c09060031901126103ea576004356115dd81610691565b9060243590604435906064356115f2816115ba565b906084359060a43590565b5061002161160a366115c5565b949390939291926156a6565b5060403660031901126103ea5760243561162f81610691565b6040516370a0823160e01b81523060048201526001600160a01b037f00000000000000000000000000000000000000000000000000000000000000001691602082602481865afa918215611744575b600092611714575b5061169560043583101561540b565b8161169c57005b823b156103ea576040517f2e1a7d4d00000000000000000000000000000000000000000000000000000000815260048101839052610021936000908290602490829084905af18015611707575b6116f4575b50615af1565b80610df861170192612656565b386116ee565b61170f613721565b6116e9565b61173691925060203d811161173d575b61172e81836126e7565b8101906153fc565b9038611686565b503d611724565b61174c613721565b61167e565b50346103ea5760003660031901126103ea5760206040516001600160a01b037f0000000000000000000000000000000000000000000000000000000000000000168152f35b50346103ea5760203660031901126103ea576004356008548110156117e85760086000527ff3f7a9fe364faab93b216da50a3214154f22a0a2b415b23a84c8169e8b636ee30154604051908152602090f35b608460405162461bcd60e51b815260206004820152602c60248201527f455243373231456e756d657261626c653a20676c6f62616c20696e646578206f60448201527f7574206f6620626f756e647300000000000000000000000000000000000000006064820152fd5b50346103ea5760203660031901126103ea5760206106806004356131ca565b50346103ea5760603660031901126103ea576004356119426040517f0d43e8ad000000000000000000000000000000000000000000000000000000008152602080916001600160a01b039281818160048795867f0000000000000000000000000000000000000000000000000000000000000000165afa9081156119bb575b60009161199e575b506004604051809481937f1eae8f91000000000000000000000000000000000000000000000000000000008352165afa918215611991575b600092611974575b5050163314614251565b60243561195982600052600f602052604060002090565b55611971604435916000526010602052604060002090565b55005b61198a9250803d10610e3957610e2981836126e7565b3880611938565b611999613721565b611930565b6119b59150823d8411610e3957610e2981836126e7565b386118f8565b6119c3613721565b6118f0565b50346103ea5760003660031901126103ea5760408051908160208082526060519081818401526000905b828210611a1c57508110611a0f575b601f01601f19168101030190f35b6000838284010152611a01565b6080820151868301860152859350908101906119f2565b50346103ea5760203660031901126103ea57602061149a600435611a5681610691565b613140565b50346103ea5760008060031936011261065e57600a546001600160a01b03196001600160a01b03821691611a903384146130ab565b16600a5581604051917f8be0079c531659141344cd1fd0a4f28419497f9722a3daafe3b4186f6b6457e08284a3f35b506000611b56611ca2611ad1366115c5565b909183611ae3869796954211156148b6565b611aeb614801565b611bad611bb988611afb89614a1f565b60409d8e5196879260209c8d85019586909493926080926001600160a01b0360a08401977f49ecf333e5b8c95c40fdafc95c1ad136e8914a8fb55e9dc8bb01eaa83a2df9ad8552166020840152604083015260608201520152565b0394611b6a601f19968781018352826126e7565b5190208c519283918a8301958690916042927f19010000000000000000000000000000000000000000000000000000000000008352600283015260228201520190565b038481018352826126e7565b51902093611bc6886131ca565b928a6001600160a01b0380861695611be287838d161415614901565b3b15158e14611cdf575051808801928352602083019590955260f81b7fff000000000000000000000000000000000000000000000000000000000000001660408201526106f9956001600160e01b0319949093611c86938593611c5191908490604101039081018452836126e7565b8b5180809581947f1626ba7e000000000000000000000000000000000000000000000000000000009a8b845260048401614a08565b03915afa918215611cd2575b8a92611ca5575b505016146149bd565b51f35b611cc49250803d10611ccb575b611cbc81836126e7565b8101906136dd565b3880611c99565b503d611cb2565b611cda613721565b611c92565b905196875260ff91909116602087015260408601919091526060850193909352508880526106f9939092899060809060015afa15611d2c575b875116611d26811515614972565b146149bd565b611d34613721565b611d18565b50346103ea5760203660031901126103ea57600435600052600f6020526020604060002054604051908152f35b506101603660031901126103ea57611d8361014435421115613ce7565b611d8b613d32565b60006105c3611d98613d3e565b611e12611da3613d57565b91611e08611daf613d6e565b611de5611dba613d7a565b93611dd5611dc6612709565b6001600160a01b03909b168b52565b6001600160a01b031660208a0152565b611df8604095868a019062ffffff169052565b30606089015260020b6080880152565b60020b60a0860152565b60a43560c085015260c43560e0850152826101009160e43583870152611fe581611e4661012098610104358a820152614c47565b99929a91969097611e55613d4a565b9a611eb26001600160b01b03611e73600e546001600160b01b031690565b611eaa611e7f82613d86565b6001600160b01b031675ffffffffffffffffffffffffffffffffffffffffffff19600e541617600e55565b16809d613fc4565b8c611efb60a06001600160a01b03611eda611ecb613d6e565b611ed3613d7a565b90306158f9565b94169389518093819263514ea4bf60e01b8352600483019190602083019252565b0381865afa918215612084575b85918293612053575b50611fac611f5c611fbc939495611f26613d32565b90611f578d611f33613d3e565b90611f4b611f3f613d57565b926110c66110b761272a565b84019062ffffff169052565b6140f6565b611fa2611f67613d6e565b611f98611f72613d7a565b93611f7b612709565b9e8f8d81528d6020820152019069ffffffffffffffffffff169052565b60020b60608d0152565b60020b60808b0152565b6001600160801b031660a0890152565b60c087015260e0860152840152820152611fe087600052600d602052604060002090565b613def565b80516001600160801b0387168152602081018390526040810184905285907f3067048beee31b25b2f1681f88dac838c8bba36af25bfb2b7cf7473a5847e35f90606090a25194859485909493926001600160801b036060936080840197845216602083015260408201520152565b611f5c9350611fbc9250612077611fac9160a03d8111610b5157610b3681836126e7565b5050959150935050611f11565b61208c613721565b611f08565b50346103ea5760003660031901126103ea5760206001600160a01b03600a5416604051908152f35b50346103ea5760008060031936011261065e576040519080600190815480831c92808216928315612171575b602092838610851461064057858852602088019490811561061f5750600114612118576105c3876105b7818903826126e7565b600160005294509192917fb10e2d527612073b26eecdfd717e6a320cf44b4afac2b0732d9fcbe2b7fa0cf65b83861061216057505050910190506105b7826105c338806105a7565b805485870152948201948101612144565b93607f16936120e5565b99979593909c9b9a98969492916101808b019d6bffffffffffffffffffffffff168b526001600160a01b03928380921660208d01521660408b015216606089015262ffffff16608088015260020b60a087015260c086016121dd9160020b9052565b6001600160801b031660e08501526101008401526101208301526001600160801b03166101408201526101600161221b916001600160801b03169052565b565b50346103ea5760203660031901126103ea5761224d612248600435600052600d602052604060002090565b613baa565b6122b06108b26122946040840161228469ffffffffffffffffffff61227c835169ffffffffffffffffffff1690565b161515613c44565b5169ffffffffffffffffffff1690565b69ffffffffffffffffffff16600052600c602052604060002090565b6105c36122c983516bffffffffffffffffffffffff1690565b916122de60208501516001600160a01b031690565b936122f082516001600160a01b031690565b91612315604061230a60208401516001600160a01b031690565b92015162ffffff1690565b606083015160020b608084015160020b60a08501516001600160801b03169160c08601519360e08701519561236a61012061235b6101008b01516001600160801b031690565b9901516001600160801b031690565b986040519c8d9c8d61217b565b50346103ea5761238636611300565b6001600160a01b0382169182331461240757816123c66123d7923360005260056020526040600020906001600160a01b0316600052602052604060002090565b9060ff801983541691151516179055565b60405190151581527f17307eab39ab6107e8899845ad3d59bd9653f200f220920489ca2b5937696c3160203392a3005b606460405162461bcd60e51b815260206004820152601960248201527f4552433732313a20617070726f766520746f2063616c6c6572000000000000006044820152fd5b50612455366115c5565b604051636eb1769f60e11b81523360048201523060248201529094919391906020816044816001600160a01b038b165afa9081156124c8575b6000916124aa575b50600019116124a157005b610021956156a6565b6124c2915060203d811161173d5761172e81836126e7565b38612496565b6124d0613721565b61248e565b602080820190808352835180925260408301928160408460051b8301019501936000915b8483106125095750505050505090565b9091929394958480612527600193603f198682030187528a5161051d565b98019301930191949392906124f9565b5060203660031901126103ea576004803567ffffffffffffffff918282116103ea57366023830112156103ea57818101359283116103ea57602490818301928236918660051b0101116103ea5761258d846152ac565b9360005b8181106125a657604051806105c388826124d5565b6000806125b4838589615306565b604093916125c6855180938193615356565b0390305af4906125d461372e565b91829015612603575050906125fe916125ed8289615364565b526125f88188615364565b506152f6565b612591565b8683879260448251106103ea578261263b93856126269401518301019101614258565b925192839262461bcd60e51b84528301610542565b0390fd5b50634e487b7160e01b600052604160045260246000fd5b67ffffffffffffffff811161266a57604052565b61267261263f565b604052565b6040810190811067ffffffffffffffff82111761266a57604052565b6060810190811067ffffffffffffffff82111761266a57604052565b6020810190811067ffffffffffffffff82111761266a57604052565b60a0810190811067ffffffffffffffff82111761266a57604052565b90601f8019910116810190811067ffffffffffffffff82111761266a57604052565b60405190610140820182811067ffffffffffffffff82111761266a57604052565b604051906060820182811067ffffffffffffffff82111761266a57604052565b6040519061221b82612677565b60209067ffffffffffffffff8111612775575b601f01601f19160190565b61277d61263f565b61276a565b50346103ea5760803660031901126103ea576004356127a081610691565b6024356127ac81610691565b6064359167ffffffffffffffff83116103ea57366023840112156103ea578260040135916127d983612757565b926127e760405194856126e7565b80845236602482870101116103ea5760208160009260246100219801838801378501015260443591613336565b5061281e366115c5565b604051636eb1769f60e11b815233600482015230602482015290949193919081906020816044816001600160a01b038c165afa908115612890575b600091612872575b501061286957005b6100219561560b565b61288a915060203d811161173d5761172e81836126e7565b38612861565b612898613721565b612859565b50346103ea5760003660031901126103ea5760206040516001600160a01b037f0000000000000000000000000000000000000000000000000000000000000000168152f35b50346103ea5760203660031901126103ea576004356129178160005260026020526001600160a01b0360406000205416151590565b156103ea576105c390604051907fe9dc637500000000000000000000000000000000000000000000000000000000825230600483015260248201526000816044816001600160a01b037f0000000000000000000000000000000000000000000000000000000000000000165afa9081156129c2575b6000916129a1575b5060405191829182610542565b6129bc913d8091833e6129b481836126e7565b810190614258565b38612994565b6129ca613721565b61298c565b50346103ea5760603660031901126103ea5760443567ffffffffffffffff8082116103ea57366023830112156103ea5781600401359081116103ea5736602482840101116103ea5760246100219201602435600435614a7e565b5060603660031901126103ea57600435612a4281610691565b604435612a4e81610691565b604051906370a0823160e01b82523060048301526020826024816001600160a01b0387165afa918215612ac3575b600092612aa3575b50612a93602435831015615456565b81612a9a57005b61002192615a25565b612abc91925060203d811161173d5761172e81836126e7565b9038612a84565b612acb613721565b612a7c565b50346103ea5760403660031901126103ea57602060ff612b2f600435612af581610691565b6001600160a01b0360243591612b0a83610691565b16600052600584526040600020906001600160a01b0316600052602052604060002090565b54166040519015158152f35b50346103ea5760203660031901126103ea5760043560005260106020526020604060002054604051908152f35b50346103ea5760203660031901126103ea57600435612b8681610691565b6001600160a01b03612b9d81600a541633146130ab565b811615612bad57610021906130f6565b608460405162461bcd60e51b815260206004820152602660248201527f4f776e61626c653a206e6577206f776e657220697320746865207a65726f206160448201527f64647265737300000000000000000000000000000000000000000000000000006064820152fd5b50610021612c24366115c5565b9493909392919261560b565b5060803660031901126103ea57600435612c4d6107d182336133cc565b6001600160801b039081612c5f614490565b1615801590613093575b612c7290614251565b6001600160a01b0380612c83613d3e565b166130855730905b83612ca084600052600d602052604060002090565b916001830194855494612cde6108dd6108b76108b269ffffffffffffffffffff8a1669ffffffffffffffffffff16600052600c602052604060002090565b906004860197885498868a169960801c978a98809a8060801c612f1a575b505050612db997989950612d0e614490565b8988169088161115612f0c5788935b612d2561449c565b8b89169089161115612efd578a80935b54604080517f4f1eb3d80000000000000000000000000000000000000000000000000000000081526001600160a01b0388166004820152605083901c600290810b602483015260689390931c90920b60448301526001600160801b038089166064840152909216608482015299909788928b929091839160009190839060a4820190565b0393165af1988915612ef0575b600098899a612eb1575b5091612e656105c39a9b612e9793612e41612e1885612e128b7f40d0efd1a53d60ecbf40971b9daf7dc90178c3aadc7aab1765632738fa8b8f019c9b9a614509565b94614509565b82546001600160801b031660809190911b6fffffffffffffffffffffffffffffffff1916178255565b906001600160801b03166fffffffffffffffffffffffffffffffff19825416179055565b8651938493849160409194936001600160a01b0360608501961684526001600160801b03809216602085015216910152565b0390a2519116815292909116602083015281906040820190565b85949395929a5085919950873d8911612ee9575b612ecf81836126e7565b8101612eda9161452d565b9990999a925090929394612dd0565b503d612ec5565b612ef8613721565b612dc6565b612f0561449c565b8093612d35565b612f14614490565b93612d1d565b6040805163a34123a760e01b8152605083901c600290810b600483015260689390931c90920b602483015260006044830152929b50929950918588169181806064810103816000865af18015613078575b61305b575b50612fb160a0845492612f908460681c60020b8560501c60020b306158f9565b90604051808095819463514ea4bf60e01b8352600483019190602083019252565b03915afa92831561304e575b6000918294613027575b5060028c019c8d5483039360801c9384612fe0916142d3565b6001600160801b0316016001600160801b03169b600301928354850390613006916142d3565b6001600160801b0316016001600160801b03169b5555889796388080612cfc565b909350613042915060a03d8111610b5157610b3681836126e7565b50509150909238612fc7565b613056613721565b612fbd565b6130729060403d8111610bb957610b9f81836126e7565b50612f70565b613080613721565b612f6b565b61308d613d3e565b90612c8b565b50612c726130a261086461449c565b15159050612c69565b156130b257565b606460405162461bcd60e51b815260206004820152602060248201527f4f776e61626c653a2063616c6c6572206973206e6f7420746865206f776e65726044820152fd5b600a54906001600160a01b0380911691826001600160a01b0319821617600a55167f8be0079c531659141344cd1fd0a4f28419497f9722a3daafe3b4186f6b6457e06000604051a3565b6001600160a01b0316801561316057600052600360205260406000205490565b608460405162461bcd60e51b815260206004820152602a60248201527f4552433732313a2062616c616e636520717565727920666f7220746865207a6560448201527f726f2061646472657373000000000000000000000000000000000000000000006064820152fd5b60005260026020526001600160a01b036040600020541680156131ea5790565b608460405162461bcd60e51b815260206004820152602960248201527f4552433732313a206f776e657220717565727920666f72206e6f6e657869737460448201527f656e7420746f6b656e00000000000000000000000000000000000000000000006064820152fd5b1561325b57565b608460405162461bcd60e51b815260206004820152603860248201527f4552433732313a20617070726f76652063616c6c6572206973206e6f74206f7760448201527f6e6572206e6f7220617070726f76656420666f7220616c6c00000000000000006064820152fd5b156132cc57565b608460405162461bcd60e51b815260206004820152603160248201527f4552433732313a207472616e736665722063616c6c6572206973206e6f74206f60448201527f776e6572206e6f7220617070726f7665640000000000000000000000000000006064820152fd5b9061335a93929161334a6112ec84336133cc565b613355838383613583565b61375e565b1561336157565b60405162461bcd60e51b815260206004820152603260248201527f4552433732313a207472616e7366657220746f206e6f6e20455243373231526560448201527f63656976657220696d706c656d656e74657200000000000000000000000000006064820152608490fd5b6133ec8260005260026020526001600160a01b0360406000205416151590565b1561346a576133fa826131ca565b916001600160a01b039081831692828516841494851561343a575b50508315613424575b50505090565b6134309192935061469f565b161438808061341e565b60ff92955090610725613460926001600160a01b03166000526005602052604060002090565b5416923880613415565b608460405162461bcd60e51b815260206004820152602c60248201527f4552433732313a206f70657261746f7220717565727920666f72206e6f6e657860448201526b34b9ba32b73a103a37b5b2b760a11b6064820152fd5b156134ca57565b608460405162461bcd60e51b8152602060048201526024808201527f4552433732313a207472616e7366657220746f20746865207a65726f2061646460448201527f72657373000000000000000000000000000000000000000000000000000000006064820152fd5b50634e487b7160e01b600052601160045260246000fd5b6001811061355a575b6000190190565b613562613533565b613553565b6001906001198111613577570190565b61357f613533565b0190565b9061358d836131ca565b6001600160a01b039182918285169384911603613673576135e661364a928216946135b98615156134c3565b6135c48784836138be565b6135cd87614731565b6001600160a01b03166000526003602052604060002090565b6135f0815461354a565b905561360f816001600160a01b03166000526003602052604060002090565b6136198154613567565b905561362f856000526002602052604060002090565b906001600160a01b03166001600160a01b0319825416179055565b7fddf252ad1be2c89b69c2b068fc378daa952ba7f163c4a11628f55a4df523b3ef6000604051a4565b608460405162461bcd60e51b815260206004820152602560248201527f4552433732313a207472616e736665722066726f6d20696e636f72726563742060448201527f6f776e65720000000000000000000000000000000000000000000000000000006064820152fd5b908160209103126103ea5751610553816103d8565b909261055394936080936001600160a01b0380921684521660208301526040820152816060820152019061051d565b506040513d6000823e3d90fd5b3d15613759573d9061373f82612757565b9161374d60405193846126e7565b82523d6000602084013e565b606090565b92909190823b15613873576137b29260209260006001600160a01b036040518097819682957f150b7a02000000000000000000000000000000000000000000000000000000009b8c855233600486016136f2565b0393165af160009181613853575b50613845576137cd61372e565b805190816138405760405162461bcd60e51b815260206004820152603260248201527f4552433732313a207472616e7366657220746f206e6f6e20455243373231526560448201527f63656976657220696d706c656d656e74657200000000000000000000000000006064820152608490fd5b602001fd5b6001600160e01b0319161490565b61386c91925060203d8111611ccb57611cbc81836126e7565b90386137c0565b50505050600190565b50634e487b7160e01b600052603260045260246000fd5b9061389d81613a1c565b6001600160a01b0382166138b55761221b9150613a95565b61221b916139e3565b9091906001600160a01b0380821691826138f857506138dc83613a1c565b8316806138ef57505061221b9150613a95565b036138b5575050565b8185168303613908575b506138dc565b61397b61391482613140565b600181106139d6575b6000190161396c60009387855260076020526040852054838103613982575b5084613952896000526007602052604060002090565b556001600160a01b03166000526006602052604060002090565b90600052602052604060002090565b5538613902565b8786526006602052604086208487526020526139cf6040872054806139be8461396c876001600160a01b03166000526006602052604060002090565b556000526007602052604060002090565b553861393c565b6139de613533565b61391d565b6040906139ef81613140565b926001600160a01b0360009216825260066020528282208483526020528083832055815260076020522055565b6008548160005260096020528060406000205568010000000000000000811015613a88575b6001810180600855811015613a7b575b60086000527ff3f7a9fe364faab93b216da50a3214154f22a0a2b415b23a84c8169e8b636ee30155565b613a8361387c565b613a51565b613a9061263f565b613a41565b6008805460018110613b9d575b600090838252600960205281613b4460408220549560001996848881011015613b90575b868452613b337ff3f7a9fe364faab93b216da50a3214154f22a0a2b415b23a84c8169e8b636ee2958681015490831015613b83575b88865280837ff3f7a9fe364faab93b216da50a3214154f22a0a2b415b23a84c8169e8b636ee301556000526009602052604060002090565b556000526009602052604060002090565b558254938415613b6f5784019380851015613b62575b838352015555565b613b6a61387c565b613b5a565b602483634e487b7160e01b81526031600452fd5b613b8b61387c565b613afb565b613b9861387c565b613ac6565b613ba5613533565b613aa2565b9061221b6004613bb8612709565b84546bffffffffffffffffffffffff8116825260601c602082015293600181015469ffffffffffffffffffff81166040870152613c1390605081901c60020b6060880152606881901c60020b608088015260801c60a0870152565b600281015460c0860152600381015460e086015201546001600160801b03811661010085015260801c610120840152565b15613c4b57565b606460405162461bcd60e51b815260206004820152601060248201527f496e76616c696420746f6b656e204944000000000000000000000000000000006044820152fd5b906040516060810181811067ffffffffffffffff821117613cda575b604052604062ffffff829460016001600160a01b03918281541686520154908116602085015260a01c16910152565b613ce261263f565b613cab565b15613cee57565b606460405162461bcd60e51b815260206004820152601360248201527f5472616e73616374696f6e20746f6f206f6c64000000000000000000000000006044820152fd5b60043561055381610691565b60243561055381610691565b6101243561055381610691565b60443561055381610c0d565b8060020b036103ea57565b60643561055381613d63565b60843561055381613d63565b6001906001600160b01b03809116908114613577570190565b6001600160801b038116036103ea57565b908160a09103126103ea578051613dc681613d9f565b9160208201519160408101519160806060830151613de381613d9f565b92015161055381613d9f565b90610a69610120600461221b94613e3b613e1586516bffffffffffffffffffffffff1690565b82546bffffffffffffffffffffffff19166bffffffffffffffffffffffff909116178255565b613e7c613e5260208701516001600160a01b031690565b82546bffffffffffffffffffffffff1660609190911b6bffffffffffffffffffffffff1916178255565b613f6360018201613ebf613e9d604089015169ffffffffffffffffffff1690565b825469ffffffffffffffffffff191669ffffffffffffffffffff909116178255565b613efd613ed0606089015160020b90565b829081549060501b6cffffff0000000000000000000016906cffffff000000000000000000001916179055565b613f50613f0e608089015160020b90565b82907fffffffffffffffffffffffffffffffff000000ffffffffffffffffffffffffff82549160681b6fffffff00000000000000000000000000169116179055565b60a08701516001600160801b0316610a69565b60c0850151600282015560e085015160038201550192613fb6613f916101008301516001600160801b031690565b85906001600160801b03166fffffffffffffffffffffffffffffffff19825416179055565b01516001600160801b031690565b6001600160a01b0381169081156140b257613ff58360005260026020526001600160a01b0360406000205416151590565b61406e57806140078461404493613893565b614024816001600160a01b03166000526003602052604060002090565b61402e8154613567565b905561362f846000526002602052604060002090565b60007fddf252ad1be2c89b69c2b068fc378daa952ba7f163c4a11628f55a4df523b3ef81604051a4565b606460405162461bcd60e51b815260206004820152601c60248201527f4552433732313a20746f6b656e20616c7265616479206d696e746564000000006044820152fd5b606460405162461bcd60e51b815260206004820152602060248201527f4552433732313a206d696e7420746f20746865207a65726f20616464726573736044820152fd5b9190916001600160a01b038091169081600052600b60205269ffffffffffffffffffff938460406000205416948515614130575b50505050565b60409293955060016141ad6141f492600e548060b01c918214614244575b6001600160b01b031681840160b01b75ffffffffffffffffffffffffffffffffffffffffffff191617600e556000988952600b60205297859020805469ffffffffffffffffffff191669ffffffffffffffffffff8a1617905587612294565b6141d08685511682906001600160a01b03166001600160a01b0319825416179055565b019360208301511684906001600160a01b03166001600160a01b0319825416179055565b01517fffffffffffffffffff000000ffffffffffffffffffffffffffffffffffffffff76ffffff000000000000000000000000000000000000000083549260a01b1691161790553880808061412a565b61424c613533565b61414e565b156103ea57565b6020818303126103ea5780519067ffffffffffffffff82116103ea570181601f820112156103ea57805161428b81612757565b9261429960405194856126e7565b818452602082840101116103ea5761055391602080850191016104e8565b906001600160801b038080931691168092038111613577570190565b600019828209908281029283808410930392808403931461431c5770010000000000000000000000000000000091838311156103ea570990828211900360801b910360801c1790565b50505060801c90565b600019828209908281029283808410930392808403931461436a576c0100000000000000000000000091838311156103ea570990828211900360a01b910360601c1790565b50505060601c90565b6c0100000000000000000000000091600019838309928260601b928380861095039480860395146143fb579082916143ac868411614251565b0981806000031680920460028082600302188083028203028083028203028083028203028083028203028083028203028092029003029360018380600003040190848311900302920304170290565b5050915061440a821515614251565b0490565b909160001983830992808302928380861095039480860395146143fb579082916143ac868411614251565b1561444057565b606460405162461bcd60e51b815260206004820152600c60248201527f4e6f7420617070726f76656400000000000000000000000000000000000000006044820152fd5b60243561055381613d9f565b60443561055381613d9f565b60643561055381613d9f565b91908260409103126103ea576020825192015190565b156144c557565b606460405162461bcd60e51b815260206004820152601460248201527f507269636520736c69707061676520636865636b0000000000000000000000006044820152fd5b6001600160801b039182169116818110614521570390565b614529613533565b0390565b91908260409103126103ea5760208251613de381613d9f565b61454f816131ca565b6001600160a01b03811690816145ea575061456982613a1c565b61457282613a95565b61457b82614731565b6000908082526003602052604082208054600181106145dd575b6000190190558282526002602052604082206001600160a01b031981541690557fddf252ad1be2c89b69c2b068fc378daa952ba7f163c4a11628f55a4df523b3ef82604051a4565b6145e5613533565b614595565b6146346145f682613140565b6001811061467d575b6000190161396c6000938685526007602052604085205483810361463a575b5084613952886000526007602052604060002090565b55614569565b8686526006602052604086208487526020526146766040872054806139be8461396c876001600160a01b03166000526006602052604060002090565b553861461e565b614685613533565b6145ff565b908160209103126103ea575161055381610691565b6146bf8160005260026020526001600160a01b0360406000205416151590565b156146d857600052600d60205260406000205460601c90565b608460405162461bcd60e51b815260206004820152602c60248201527f4552433732313a20617070726f76656420717565727920666f72206e6f6e657860448201526b34b9ba32b73a103a37b5b2b760a11b6064820152fd5b80600052600d60205260406000206bffffffffffffffffffffffff815416905560006001600160a01b03614764836131ca565b167f8c5be1e5ebec7d5bd14f71427d1e84f3dd0314c0f7b2291e5b200ac8c7c3b92582604051a4565b6000828152600d6020526040902080546bffffffffffffffffffffffff16606083901b6bffffffffffffffffffffffff19161790556001600160a01b03806147d4846131ca565b169116907f8c5be1e5ebec7d5bd14f71427d1e84f3dd0314c0f7b2291e5b200ac8c7c3b9256000604051a4565b60405160208101907f8b73c3c69bb8fe3d512ecc4cf759cc79239f7b179b0ffacaa9a75d522b39400f82527f000000000000000000000000000000000000000000000000000000000000000060408201527f000000000000000000000000000000000000000000000000000000000000000060608201524660808201523060a082015260a0815260c0810181811067ffffffffffffffff8211176148a9575b60405251902090565b6148b161263f565b6148a0565b156148bd57565b606460405162461bcd60e51b815260206004820152600e60248201527f5065726d697420657870697265640000000000000000000000000000000000006044820152fd5b1561490857565b608460405162461bcd60e51b815260206004820152602760248201527f4552433732315065726d69743a20617070726f76616c20746f2063757272656e60448201527f74206f776e6572000000000000000000000000000000000000000000000000006064820152fd5b1561497957565b606460405162461bcd60e51b815260206004820152601160248201527f496e76616c6964207369676e61747572650000000000000000000000000000006044820152fd5b156149c457565b606460405162461bcd60e51b815260206004820152600c60248201527f556e617574686f72697a656400000000000000000000000000000000000000006044820152fd5b60409061055393928152816020820152019061051d565b600052600d60205260406000206105536bffffffffffffffffffffffff9182815416928314614a71575b80546bffffffffffffffffffffffff19166bffffffffffffffffffffffff6001850116179055565b614a79613533565b614a49565b929180919281010392608084126103ea57606060405194614a9e86612677565b126103ea57614b24606060405193614ab585612693565b8035614ac081610691565b85526020810135614ad081610691565b60208601526040810135614ae381610c0d565b6040860152848752013592614af784610691565b602086019384527f000000000000000000000000000000000000000000000000000000000000000061572e565b5080614b67575b5081614b3657505050565b614b60614b52602061221b9551016001600160a01b0390511690565b91516001600160a01b031690565b33916154b6565b835151614b8891906001600160a01b031683516001600160a01b0316614b60565b38614b2b565b519061ffff821682036103ea57565b908160e09103126103ea578051614bb381610691565b916020820151614bc281613d63565b91614bcf60408201614b8e565b91614bdc60608301614b8e565b91614be960808201614b8e565b9160c060a0830151614bfa816115ba565b920151610553816112f6565b919360a09361055396956001600160a01b036001600160801b039416855260020b602085015260020b6040840152166060820152816080820152019061051d565b90600091614c5c81516001600160a01b031690565b90614c7160208201516001600160a01b031690565b92614ca1604094614c96614c8a8786015162ffffff1690565b916110c66110b761272a565b62ffffff1684860152565b614cce6108dd847f0000000000000000000000000000000000000000000000000000000000000000615852565b91846001600160a01b03841694815195633850c7bd60e01b875260e087600481845afa968715614eae575b8997614e88575b506080840196614d41614d1c614d178a5160020b90565b614ede565b9160a0870192614d30614d17855160020b90565b60c08901519160e08a01519361574b565b998a98614e10614dcd614ddb614d77614d6f614d6760608d01516001600160a01b031690565b955160020b90565b965160020b90565b97614d8061274a565b8181523360209182019081528b5183516001600160a01b03908116828501529284015183166040808301919091529093015162ffffff1660608401525116608082015291829060a0820190565b03601f1981018352826126e7565b87519b8c97889687957f3c8a7d8d00000000000000000000000000000000000000000000000000000000875260048701614c06565b03925af1938415614e7b575b6000958695614e54575b505061221b90848661010083015111159182614e44575b50506144be565b6101200151111590503880614e3d565b61221b9650614e70929550803d10610bb957610b9f81836126e7565b949094939038614e26565b614e83613721565b614e1c565b614ea191975060e03d8111610f2d57610f1981836126e7565b5050505050509538614d00565b614eb6613721565b614cf9565b8015614ec8576000190490565b634e487b7160e01b600052601260045260246000fd5b60020b600081121561527f57806000035b620d89e88111615255576001600160a01b0391600182161561522c5770ffffffffffffffffffffffffffffffffff6ffffcb933bd6fad37aa2d162d1a5940015b169160028116615210575b600481166151f4575b600881166151d8575b601081166151bc575b602081166151a0575b60408116615184575b608090818116615169575b610100811661514e575b6102008116615133575b6104008116615118575b61080081166150fd575b61100081166150e2575b61200081166150c7575b61400081166150ac575b6180008116615091575b620100008116615076575b62020000811661505c575b620400008116615042575b6208000016615027575b50600012615019575b63ffffffff81166150105760ff60005b169060201c011690565b60ff6001615006565b61502290614ebb565b614ff6565b6b048a170391f7dc42444e8fa26000929302901c9190614fed565b6d2216e584f5fa1ea926041bedfe98909302811c92614fe3565b926e5d6af8dedb81196699c329225ee60402811c92614fd8565b926f09aa508b5b7a84e1c677de54f3e99bc902811c92614fcd565b926f31be135f97d08fd981231505542fcfa602811c92614fc2565b926f70d869a156d2a1b890bb3df62baf32f702811c92614fb8565b926fa9f746462d870fdf8a65dc1f90e061e502811c92614fae565b926fd097f3bdfd2022b8845ad8f792aa582502811c92614fa4565b926fe7159475a2c29b7443b29c7fa6e889d902811c92614f9a565b926ff3392b0822b70005940c7a398e4b70f302811c92614f90565b926ff987a7253ac413176f2b074cf7815e5402811c92614f86565b926ffcbe86c7900a88aedcffc83b479aa3a402811c92614f7c565b926ffe5dee046a99a2a811c461f1969c305302811c92614f72565b916fff2ea16466c96a3843ec78b326b528610260801c91614f67565b916fff973b41fa98c081472e6896dfb254c00260801c91614f5e565b916fffcb9843d60f6159c9db58835c9266440260801c91614f55565b916fffe5caca7e10e4e61c3624eaa0941cd00260801c91614f4c565b916ffff2e50f5f656932ef12357cf3c7fdcc0260801c91614f43565b916ffff97272373d413259a46990580e213a0260801c91614f3a565b70ffffffffffffffffffffffffffffffffff700100000000000000000000000000000000614f2f565b60046040517f2bc80f3a000000000000000000000000000000000000000000000000000000008152fd5b80614eef565b60209067ffffffffffffffff811161529f575b60051b0190565b6152a761263f565b615298565b906152b682615285565b6152c360405191826126e7565b82815280926152d4601f1991615285565b019060005b8281106152e557505050565b8060606020809385010152016152d9565b6001906000198114613577570190565b9190811015615349575b60051b81013590601e19813603018212156103ea57019081359167ffffffffffffffff83116103ea5760200182360381136103ea579190565b61535161387c565b615310565b908092918237016000815290565b6020918151811015615379575b60051b010190565b61538161387c565b615371565b6001600160a01b037f00000000000000000000000000000000000000000000000000000000000000001633036153b857565b606460405162461bcd60e51b815260206004820152600960248201527f4e6f7420574554483900000000000000000000000000000000000000000000006044820152fd5b908160209103126103ea575190565b1561541257565b606460405162461bcd60e51b815260206004820152601260248201527f496e73756666696369656e7420574554483900000000000000000000000000006044820152fd5b1561545d57565b606460405162461bcd60e51b815260206004820152601260248201527f496e73756666696369656e7420746f6b656e00000000000000000000000000006044820152fd5b908160209103126103ea5751610553816112f6565b6001600160a01b037f00000000000000000000000000000000000000000000000000000000000000008116949290828116861480615601575b156155df57505050823b156103ea57615576926020926040517fd0e30db000000000000000000000000000000000000000000000000000000000815260008160048187875af180156155d2575b6155bf575b50600060405180968195829463a9059cbb60e01b845260048401602090939291936001600160a01b0360408201951681520152565b03925af180156155b2575b6155885750565b6155a89060203d81116155ab575b6155a081836126e7565b8101906154a1565b50565b503d615596565b6155ba613721565b615581565b80610df86155cc92612656565b38615541565b6155da613721565b61553c565b91945091929190811630036155f8575061221b92615a25565b61221b9361593b565b50834710156154ef565b6001600160a01b0390959293951693843b156103ea5760009460e493869260ff604051998a9889977fd505accf0000000000000000000000000000000000000000000000000000000089523360048a01523060248a01526044890152606488015216608486015260a485015260c48401525af18015615699575b61568c5750565b80610df861221b92612656565b6156a1613721565b615685565b6001600160a01b0390959293951693843b156103ea5760009461010493869260ff604051998a9889977f8fcbaf0c0000000000000000000000000000000000000000000000000000000089523360048a01523060248a015260448901526064880152600160848801521660a486015260c485015260e48401525af180156156995761568c5750565b6001600160a01b039161574091615852565b16908133036103ea57565b9390936001600160a01b03808416818716116157ca575b81811690868116821161577c5750505050610553926157d2565b84929495939516116000146157be57829161579b916157a195946157d2565b93615826565b6001600160801b0381811690831610156157b9575090565b905090565b91505061055392615826565b949294615762565b9161580791610553936001600160a01b03908183168282161161580c575b6157fe828416838316614325565b9203169161440e565b615812565b916157f0565b906001600160801b0382169182036103ea57565b9161580791610553936001600160a01b03918281168383161161584c575b031690614373565b90615844565b906001600160a01b0391828251169260208301511692838110156103ea576055936158bb62ffffff6040600b9601511691614dcd60405193849260208401968791939262ffffff9060409260608501966001600160a01b03809216865216602085015216910152565b51902090604051917f7700ec83d0dc69c0a1e228138168ca93778a8d2f0fe9a0afb44901e1d5142d486040840152602083015281520160ff81532090565b916040519160208301936bffffffffffffffffffffffff199060601b16845260e81b603483015260e81b6037820152601a815261593581612677565b51902090565b9091600080949381946040519160208301947f23b872dd0000000000000000000000000000000000000000000000000000000086526001600160a01b038092166024850152166044830152606482015260648152615998816126cb565b51925af16159a461372e565b816159f6575b50156159b257565b606460405162461bcd60e51b815260206004820152600360248201527f53544600000000000000000000000000000000000000000000000000000000006044820152fd5b8051801592508215615a0b575b5050386159aa565b615a1e92506020809183010191016154a1565b3880615a03565b60405163a9059cbb60e01b602082019081526001600160a01b03909316602482015260448101939093526000928392908390615a648160648101614dcd565b51925af1615a7061372e565b81615ac2575b5015615a7e57565b606460405162461bcd60e51b815260206004820152600260248201527f53540000000000000000000000000000000000000000000000000000000000006044820152fd5b8051801592508215615ad7575b505038615a76565b615aea92506020809183010191016154a1565b3880615acf565b600080929181926020604051615b06816126af565b84815201915af1615b1561372e565b5015615b1d57565b606460405162461bcd60e51b815260206004820152600360248201527f53544500000000000000000000000000000000000000000000000000000000006044820152fdfea164736f6c634300080f000a290decd9548b62a8d60345a988386fc84ba6bc95484008f6362f93160ef3e563b10e2d527612073b26eecdfd717e6a320cf44b4afac2b0732d9fcbe2b7fa0cf6"
}