{
  "address": "0x86E6eDeB27033b6c5E4b88fBF39B2332e3fD0BD7",
  "abi": [
    {
      "inputs": [
        {
          "internalType": "address",
          "name": "_WETH9",
          "type": "address"
        },
        {
          "internalType": "bytes32",
          "name": "_nativeCurrencyLabelBytes",
          "type": "bytes32"
        }
      ],
      "stateMutability": "nonpayable",
      "type": "constructor"
    },
    {
      "inputs": [],
      "name": "WETH9",
      "outputs": [
        {
          "internalType": "address",
          "name": "",
          "type": "address"
        }
      ],
      "stateMutability": "view",
      "type": "function"
    },
    {
      "inputs": [
        {
          "internalType": "address",
          "name": "token0",
          "type": "address"
        },
        {
          "internalType": "address",
          "name": "token1",
          "type": "address"
        },
        {
          "internalType": "uint256",
          "name": "chainId",
          "type": "uint256"
        }
      ],
      "name": "flipRatio",
      "outputs": [
        {
          "internalType": "bool",
          "name": "",
          "type": "bool"
        }
      ],
      "stateMutability": "view",
      "type": "function"
    },
    {
      "inputs": [],
      "name": "nativeCurrencyLabel",
      "outputs": [
        {
          "internalType": "string",
          "name": "",
          "type": "string"
        }
      ],
      "stateMutability": "view",
      "type": "function"
    },
    {
      "inputs": [],
      "name": "nativeCurrencyLabelBytes",
      "outputs": [
        {
          "internalType": "bytes32",
          "name": "",
          "type": "bytes32"
        }
      ],
      "stateMutability": "view",
      "type": "function"
    },
    {
      "inputs": [
        {
          "internalType": "address",
          "name": "token",
          "type": "address"
        },
        {
          "internalType": "uint256",
          "name": "chainId",
          "type": "uint256"
        }
      ],
      "name": "tokenRatioPriority",
      "outputs": [
        {
          "internalType": "int256",
          "name": "",
          "type": "int256"
        }
      ],
      "stateMutability": "view",
      "type": "function"
    },
    {
      "inputs": [
        {
          "internalType": "contract INonfungiblePositionManager",
          "name": "positionManager",
          "type": "address"
        },
        {
          "internalType": "uint256",
          "name": "tokenId",
          "type": "uint256"
        }
      ],
      "name": "tokenURI",
      "outputs": [
        {
          "internalType": "string",
          "name": "",
          "type": "string"
        }
      ],
      "stateMutability": "view",
      "type": "function"
    }
  ],
  "transactionHash": "0xa8ffeedd2888ed146d52e45d549edb95f0728051a93830333cd10e03969c33c1",
  "args": [
    "0x82aF49447D8a07e3bd95BD0d56f35241523fBab1",
    "0x5745544800000000000000000000000000000000000000000000000000000000"
  ],
  "numDeployments": 1,
  "solcInputHash": "5f35d516f3decb6d60aa687bd63d9f78",
  "bytecode": "0x60c03461009857601f61111f38819003918201601f19168301916001600160401b0383118484101761009d578084926040948552833981010312610098578051906001600160a01b038216820361009857602001519060805260a05260405161106b90816100b4823960805181818161026f015281816109330152610c29015260a05181818161087501528181610acb0152610b300152f35b600080fd5b634e487b7160e01b600052604160045260246000fdfe608080604052600436101561001357600080fd5b60003560e01c9081634aa4a4fc14610915575080637e5af771146108c75780639d7b0ea814610898578063a18246e21461085d578063b7af3cdc1461082d5763e9dc63751461006157600080fd5b346105d65760403660031901126105d6576004356001600160a01b0381168091036105d6576040517f99fbab88000000000000000000000000000000000000000000000000000000008152602435600482015261018081602481855afa801561058057600092600093600091600094600094610759575b506020600491604051928380927fc45a01550000000000000000000000000000000000000000000000000000000082525afa9081156105805760009161071f575b5060405180606081011067ffffffffffffffff60608301111761058c57606081016040526001600160a01b038316908181526001600160a01b03881690816020820152604062ffffff8716910152808210156105d657604051916020830152604082015262ffffff841660608201526060815280608081011067ffffffffffffffff60808301111761058c57608b816001600160a01b0393608060559401604052815160208301207f7700ec83d0dc69c0a1e228138168ca93778a8d2f0fe9a0afb44901e1d5142d4860c084015260a083015260808201520160ff81532016936102034683610c1a565b61020d4688610c1a565b1291821596876000146107185780975b156107105750935b604051917f3850c7bd00000000000000000000000000000000000000000000000000000000835260e0836004818a5afa9283156105805760009361067f575b506001600160a01b037f00000000000000000000000000000000000000000000000000000000000000001693846001600160a01b038a1614600014610670576102ab610a9f565b945b6001600160a01b03881603610661576102c4610a9f565b985b6040519563313ce56760e01b87526020876004816001600160a01b0386165afa9081156105805760009161061f575b60405163313ce56760e01b815297506020886004816001600160a01b038e165afa918215610580576000926105e3575b6040517fd0c93a7c00000000000000000000000000000000000000000000000000000000815298506020896004818f5afa988915610580576000996105a2575b506040519c8d67ffffffffffffffff6101c082818101109201111761058c5760808e60ff96946001600160a01b0362ffffff9f818a986101c086016040526024358652166020850152166040830152606082015201521660a08c01521660c08a015260e089015260020b61010088015260020b61012087015260020b61014086015260020b610160850152166101808301526101a082015260006040518080937fc49917d700000000000000000000000000000000000000000000000000000000825260206004830152805160248301526001600160a01b0360208201511660448301526001600160a01b0360408201511660648301526001600160a01b036101a061049b61048560608501516101c060848801526101e48701906109a2565b60808501518682036023190160a48801526109a2565b9260ff60a08201511660c486015260ff60c08201511660e486015260e0810151151561010486015261010081015160020b61012486015261012081015160020b61014486015261014081015160020b61016486015261016081015160020b61018486015262ffffff610180820151166101a48601520151166101c48301520381731B180E12e8F675831006389F8c7a3eb10dF7ab095af48015610580576105599160009161055d575b506040519182916020835260208301906109a2565b0390f35b61057a91503d806000833e6105728183610a08565b810190610bb8565b38610544565b6040513d6000823e3d90fd5b634e487b7160e01b600052604160045260246000fd5b9098506020813d6020116105db575b816105be60209383610a08565b810103126105d6576105cf90610b70565b9738610365565b600080fd5b3d91506105b1565b91506020883d602011610617575b816105fe60209383610a08565b810103126105d657610611600498610baa565b91610325565b3d91506105f1565b90506020873d602011610659575b8161063a60209383610a08565b810103126105d6576106536001600160a01b0397610baa565b906102f5565b3d915061062d565b61066a87610d10565b986102c6565b61067989610d10565b946102ad565b90925060e0813d60e011610708575b8161069b60e09383610a08565b810103126105d65780516001600160a01b038116036105d65760c06106c260208301610b70565b916106cf60408201610b9b565b506106dc60608201610b9b565b506106e960808201610b9b565b506106f660a08201610baa565b500151801515036105d6579138610264565b3d915061068e565b905093610225565b819761021d565b90506020813d602011610751575b8161073a60209383610a08565b810103126105d65761074b90610b5c565b38610119565b3d915061072d565b94509450505050610180813d61018011610825575b8161077c6101809383610a08565b810103126105d65780516bffffffffffffffffffffffff8116036105d6576107a660208201610b5c565b506107b360408201610b5c565b916107c060608301610b5c565b9260808301519362ffffff851685036105d657600460206107e360a08701610b70565b936108186101606107f660c08a01610b70565b9861080360e08201610b7e565b506108116101408201610b7e565b5001610b7e565b50929693959491506100d8565b3d915061076e565b346105d65760003660031901126105d657610559610849610a9f565b6040519182916020835260208301906109a2565b346105d65760003660031901126105d65760206040517f00000000000000000000000000000000000000000000000000000000000000008152f35b346105d65760403660031901126105d65760206108bf6108b6610957565b60243590610c1a565b604051908152f35b346105d65760603660031901126105d6576108e0610957565b6024356001600160a01b03811681036105d65761090c6020926109066044358092610c1a565b92610c1a565b12604051908152f35b346105d65760003660031901126105d6576020906001600160a01b037f0000000000000000000000000000000000000000000000000000000000000000168152f35b600435906001600160a01b03821682036105d657565b918091926000905b82821061098d575011610986575050565b6000910152565b91508060209183015181860152018291610975565b906020916109bb8151809281855285808601910161096d565b601f01601f1916010190565b60001981146109d65760010190565b634e487b7160e01b600052601160045260246000fd5b6020810190811067ffffffffffffffff82111761058c57604052565b90601f8019910116810190811067ffffffffffffffff82111761058c57604052565b67ffffffffffffffff811161058c57601f01601f191660200190565b90610a5082610a2a565b610a5d6040519182610a08565b8281528092610a6e601f1991610a2a565b0190602036910137565b908151811015610a89570160200190565b634e487b7160e01b600052603260045260246000fd5b60005b6020811080610b20575b15610abf57610aba906109c7565b610aa2565b610ac881610a46565b907f00000000000000000000000000000000000000000000000000000000000000009060005b818110610afb5750505090565b6020811015610a89578083610b1b921a610b158287610a78565b536109c7565b610aee565b15610a89576001600160f81b03197f0000000000000000000000000000000000000000000000000000000000000000821a60f81b161515610aac565b51906001600160a01b03821682036105d657565b51908160020b82036105d657565b51906fffffffffffffffffffffffffffffffff821682036105d657565b519061ffff821682036105d657565b519060ff821682036105d657565b6020818303126105d65780519067ffffffffffffffff82116105d6570181601f820112156105d6578051610beb81610a2a565b92610bf96040519485610a08565b818452602082840101116105d657610c17916020808501910161096d565b90565b906001600160a01b03809216917f0000000000000000000000000000000000000000000000000000000000000000168214610d0857600114610c5c5750600090565b73a0b86991c6218b36c1d19d4a2e9eb0ce3606eb488103610c7e575061012c90565b73dac17f958d2ee523a2206206994597c13d831ec78103610c9f575060c890565b736b175474e89094c44da98b954eedeac495271d0f8103610cc05750606490565b738daebade922df735c38c80c7ebd708af50815faa8103610ce2575060c71990565b732260fac5e5542a773aa44fbcfedf7c193bc2c59903610d035761012b1990565b600090565b505060631990565b610d1981610ea3565b90815115610d25575090565b6040805193925083019067ffffffffffffffff82118483101761058c576001600160a01b03916040526006845260203681860137169060005b600380821015610e2a5760138281106109d657829003906001917f1fffffffffffffffffffffffffffffffffffffffffffffffffffffffffffffff811183166109d65785911b1c9060ff821660f083168082106109d657610de791610dc9600f600496871c16610e61565b610de0610dd588610e31565b9160001a918b610a78565b5303610e61565b610df084610e31565b926001198411610e155750610e10939291610b159160001a920187610a78565b610d5e565b601190634e487b7160e01b6000525260246000fd5b5090915050565b7f7fffffffffffffffffffffffffffffffffffffffffffffffffffffffffffffff81116001166109d65760011b90565b60ff16600a811015610e885760cf81116109d65760300160f81b6001600160f81b03191690565b60c881116109d65760370160f81b6001600160f81b03191690565b60409081519060208083017f95d89b41000000000000000000000000000000000000000000000000000000008152600484528484019367ffffffffffffffff948181108682111761058c5786526000938492839251915afa3d15611056573d90610f0c82610a2a565b91610f1987519384610a08565b82523d848484013e5b15801561104d575b61103d57805182810361100d5750818180518101031261100957810151928451948086019186831090831117610ff557528084528036818601378192825b828110610fb657505050610f7b82610a46565b92815b838110610f8c575050505090565b806001600160f81b0319610fa3610fb19385610a78565b5116841a610b158288610a78565b610f7e565b81811a6001600160f81b03198160f81b16610fdb575b50610fd6906109c7565b610f68565b85610fee91610b15610fd694988a610a78565b9490610fcc565b602484634e487b7160e01b81526041600452fd5b8280fd5b909294809450811161102c575050505190611027826109ec565b815290565b610c17945082018101925001610bb8565b50509190505190611027826109ec565b50805115610f2a565b606090610f2256fea164736f6c634300080f000a",
  "deployedBytecode": "0x608080604052600436101561001357600080fd5b60003560e01c9081634aa4a4fc14610915575080637e5af771146108c75780639d7b0ea814610898578063a18246e21461085d578063b7af3cdc1461082d5763e9dc63751461006157600080fd5b346105d65760403660031901126105d6576004356001600160a01b0381168091036105d6576040517f99fbab88000000000000000000000000000000000000000000000000000000008152602435600482015261018081602481855afa801561058057600092600093600091600094600094610759575b506020600491604051928380927fc45a01550000000000000000000000000000000000000000000000000000000082525afa9081156105805760009161071f575b5060405180606081011067ffffffffffffffff60608301111761058c57606081016040526001600160a01b038316908181526001600160a01b03881690816020820152604062ffffff8716910152808210156105d657604051916020830152604082015262ffffff841660608201526060815280608081011067ffffffffffffffff60808301111761058c57608b816001600160a01b0393608060559401604052815160208301207f7700ec83d0dc69c0a1e228138168ca93778a8d2f0fe9a0afb44901e1d5142d4860c084015260a083015260808201520160ff81532016936102034683610c1a565b61020d4688610c1a565b1291821596876000146107185780975b156107105750935b604051917f3850c7bd00000000000000000000000000000000000000000000000000000000835260e0836004818a5afa9283156105805760009361067f575b506001600160a01b037f00000000000000000000000000000000000000000000000000000000000000001693846001600160a01b038a1614600014610670576102ab610a9f565b945b6001600160a01b03881603610661576102c4610a9f565b985b6040519563313ce56760e01b87526020876004816001600160a01b0386165afa9081156105805760009161061f575b60405163313ce56760e01b815297506020886004816001600160a01b038e165afa918215610580576000926105e3575b6040517fd0c93a7c00000000000000000000000000000000000000000000000000000000815298506020896004818f5afa988915610580576000996105a2575b506040519c8d67ffffffffffffffff6101c082818101109201111761058c5760808e60ff96946001600160a01b0362ffffff9f818a986101c086016040526024358652166020850152166040830152606082015201521660a08c01521660c08a015260e089015260020b61010088015260020b61012087015260020b61014086015260020b610160850152166101808301526101a082015260006040518080937fc49917d700000000000000000000000000000000000000000000000000000000825260206004830152805160248301526001600160a01b0360208201511660448301526001600160a01b0360408201511660648301526001600160a01b036101a061049b61048560608501516101c060848801526101e48701906109a2565b60808501518682036023190160a48801526109a2565b9260ff60a08201511660c486015260ff60c08201511660e486015260e0810151151561010486015261010081015160020b61012486015261012081015160020b61014486015261014081015160020b61016486015261016081015160020b61018486015262ffffff610180820151166101a48601520151166101c4830152038173__$28da87f0bb32cbc59c4231b2612bc0c8db$__5af48015610580576105599160009161055d575b506040519182916020835260208301906109a2565b0390f35b61057a91503d806000833e6105728183610a08565b810190610bb8565b38610544565b6040513d6000823e3d90fd5b634e487b7160e01b600052604160045260246000fd5b9098506020813d6020116105db575b816105be60209383610a08565b810103126105d6576105cf90610b70565b9738610365565b600080fd5b3d91506105b1565b91506020883d602011610617575b816105fe60209383610a08565b810103126105d657610611600498610baa565b91610325565b3d91506105f1565b90506020873d602011610659575b8161063a60209383610a08565b810103126105d6576106536001600160a01b0397610baa565b906102f5565b3d915061062d565b61066a87610d10565b986102c6565b61067989610d10565b946102ad565b90925060e0813d60e011610708575b8161069b60e09383610a08565b810103126105d65780516001600160a01b038116036105d65760c06106c260208301610b70565b916106cf60408201610b9b565b506106dc60608201610b9b565b506106e960808201610b9b565b506106f660a08201610baa565b500151801515036105d6579138610264565b3d915061068e565b905093610225565b819761021d565b90506020813d602011610751575b8161073a60209383610a08565b810103126105d65761074b90610b5c565b38610119565b3d915061072d565b94509450505050610180813d61018011610825575b8161077c6101809383610a08565b810103126105d65780516bffffffffffffffffffffffff8116036105d6576107a660208201610b5c565b506107b360408201610b5c565b916107c060608301610b5c565b9260808301519362ffffff851685036105d657600460206107e360a08701610b70565b936108186101606107f660c08a01610b70565b9861080360e08201610b7e565b506108116101408201610b7e565b5001610b7e565b50929693959491506100d8565b3d915061076e565b346105d65760003660031901126105d657610559610849610a9f565b6040519182916020835260208301906109a2565b346105d65760003660031901126105d65760206040517f00000000000000000000000000000000000000000000000000000000000000008152f35b346105d65760403660031901126105d65760206108bf6108b6610957565b60243590610c1a565b604051908152f35b346105d65760603660031901126105d6576108e0610957565b6024356001600160a01b03811681036105d65761090c6020926109066044358092610c1a565b92610c1a565b12604051908152f35b346105d65760003660031901126105d6576020906001600160a01b037f0000000000000000000000000000000000000000000000000000000000000000168152f35b600435906001600160a01b03821682036105d657565b918091926000905b82821061098d575011610986575050565b6000910152565b91508060209183015181860152018291610975565b906020916109bb8151809281855285808601910161096d565b601f01601f1916010190565b60001981146109d65760010190565b634e487b7160e01b600052601160045260246000fd5b6020810190811067ffffffffffffffff82111761058c57604052565b90601f8019910116810190811067ffffffffffffffff82111761058c57604052565b67ffffffffffffffff811161058c57601f01601f191660200190565b90610a5082610a2a565b610a5d6040519182610a08565b8281528092610a6e601f1991610a2a565b0190602036910137565b908151811015610a89570160200190565b634e487b7160e01b600052603260045260246000fd5b60005b6020811080610b20575b15610abf57610aba906109c7565b610aa2565b610ac881610a46565b907f00000000000000000000000000000000000000000000000000000000000000009060005b818110610afb5750505090565b6020811015610a89578083610b1b921a610b158287610a78565b536109c7565b610aee565b15610a89576001600160f81b03197f0000000000000000000000000000000000000000000000000000000000000000821a60f81b161515610aac565b51906001600160a01b03821682036105d657565b51908160020b82036105d657565b51906fffffffffffffffffffffffffffffffff821682036105d657565b519061ffff821682036105d657565b519060ff821682036105d657565b6020818303126105d65780519067ffffffffffffffff82116105d6570181601f820112156105d6578051610beb81610a2a565b92610bf96040519485610a08565b818452602082840101116105d657610c17916020808501910161096d565b90565b906001600160a01b03809216917f0000000000000000000000000000000000000000000000000000000000000000168214610d0857600114610c5c5750600090565b73a0b86991c6218b36c1d19d4a2e9eb0ce3606eb488103610c7e575061012c90565b73dac17f958d2ee523a2206206994597c13d831ec78103610c9f575060c890565b736b175474e89094c44da98b954eedeac495271d0f8103610cc05750606490565b738daebade922df735c38c80c7ebd708af50815faa8103610ce2575060c71990565b732260fac5e5542a773aa44fbcfedf7c193bc2c59903610d035761012b1990565b600090565b505060631990565b610d1981610ea3565b90815115610d25575090565b6040805193925083019067ffffffffffffffff82118483101761058c576001600160a01b03916040526006845260203681860137169060005b600380821015610e2a5760138281106109d657829003906001917f1fffffffffffffffffffffffffffffffffffffffffffffffffffffffffffffff811183166109d65785911b1c9060ff821660f083168082106109d657610de791610dc9600f600496871c16610e61565b610de0610dd588610e31565b9160001a918b610a78565b5303610e61565b610df084610e31565b926001198411610e155750610e10939291610b159160001a920187610a78565b610d5e565b601190634e487b7160e01b6000525260246000fd5b5090915050565b7f7fffffffffffffffffffffffffffffffffffffffffffffffffffffffffffffff81116001166109d65760011b90565b60ff16600a811015610e885760cf81116109d65760300160f81b6001600160f81b03191690565b60c881116109d65760370160f81b6001600160f81b03191690565b60409081519060208083017f95d89b41000000000000000000000000000000000000000000000000000000008152600484528484019367ffffffffffffffff948181108682111761058c5786526000938492839251915afa3d15611056573d90610f0c82610a2a565b91610f1987519384610a08565b82523d848484013e5b15801561104d575b61103d57805182810361100d5750818180518101031261100957810151928451948086019186831090831117610ff557528084528036818601378192825b828110610fb657505050610f7b82610a46565b92815b838110610f8c575050505090565b806001600160f81b0319610fa3610fb19385610a78565b5116841a610b158288610a78565b610f7e565b81811a6001600160f81b03198160f81b16610fdb575b50610fd6906109c7565b610f68565b85610fee91610b15610fd694988a610a78565b9490610fcc565b602484634e487b7160e01b81526041600452fd5b8280fd5b909294809450811161102c575050505190611027826109ec565b815290565b610c17945082018101925001610bb8565b50509190505190611027826109ec565b50805115610f2a565b606090610f2256fea164736f6c634300080f000a",
  "libraries": {
    "NFTDescriptor": "0x1B180E12e8F675831006389F8c7a3eb10dF7ab09"
  }
}