{
  "address": "0x11F9ce2C92ed333115D1cB1078a1F7bbfa7De0D5",
  "abi": [
    {
      "inputs": [
        {
          "internalType": "contract INFTXVaultFactoryV3",
          "name": "nftxVaultFactory_",
          "type": "address"
        },
        {
          "internalType": "address",
          "name": "universalRouter_",
          "type": "address"
        },
        {
          "internalType": "contract IPermitAllowanceTransfer",
          "name": "PERMIT2_",
          "type": "address"
        },
        {
          "internalType": "address",
          "name": "inventoryStaking_",
          "type": "address"
        },
        {
          "internalType": "contract IWETH9",
          "name": "WETH_",
          "type": "address"
        }
      ],
      "stateMutability": "nonpayable",
      "type": "constructor"
    },
    {
      "inputs": [],
      "name": "NotNFTOwner",
      "type": "error"
    },
    {
      "inputs": [],
      "name": "SwapFailed",
      "type": "error"
    },
    {
      "inputs": [],
      "name": "UnableToSendETH",
      "type": "error"
    },
    {
      "inputs": [],
      "name": "ZapPaused",
      "type": "error"
    },
    {
      "anonymous": false,
      "inputs": [
        {
          "indexed": false,
          "internalType": "uint256[]",
          "name": "nftIds",
          "type": "uint256[]"
        },
        {
          "indexed": false,
          "internalType": "uint256",
          "name": "ethSpent",
          "type": "uint256"
        },
        {
          "indexed": false,
          "internalType": "address",
          "name": "to",
          "type": "address"
        }
      ],
      "name": "Buy",
      "type": "event"
    },
    {
      "anonymous": false,
      "inputs": [
        {
          "indexed": false,
          "internalType": "uint256",
          "name": "ethAmount",
          "type": "uint256"
        },
        {
          "indexed": false,
          "internalType": "uint256",
          "name": "vTokenAmount",
          "type": "uint256"
        },
        {
          "indexed": false,
          "internalType": "address",
          "name": "to",
          "type": "address"
        }
      ],
      "name": "DustReturned",
      "type": "event"
    },
    {
      "anonymous": false,
      "inputs": [
        {
          "indexed": true,
          "internalType": "address",
          "name": "previousOwner",
          "type": "address"
        },
        {
          "indexed": true,
          "internalType": "address",
          "name": "newOwner",
          "type": "address"
        }
      ],
      "name": "OwnershipTransferred",
      "type": "event"
    },
    {
      "anonymous": false,
      "inputs": [
        {
          "indexed": false,
          "internalType": "uint256",
          "name": "count",
          "type": "uint256"
        },
        {
          "indexed": false,
          "internalType": "uint256",
          "name": "ethReceived",
          "type": "uint256"
        },
        {
          "indexed": false,
          "internalType": "address",
          "name": "to",
          "type": "address"
        }
      ],
      "name": "Sell",
      "type": "event"
    },
    {
      "anonymous": false,
      "inputs": [
        {
          "indexed": false,
          "internalType": "uint256[]",
          "name": "idsIn",
          "type": "uint256[]"
        },
        {
          "indexed": false,
          "internalType": "uint256[]",
          "name": "idsOut",
          "type": "uint256[]"
        },
        {
          "indexed": false,
          "internalType": "uint256",
          "name": "ethSpent",
          "type": "uint256"
        },
        {
          "indexed": false,
          "internalType": "address",
          "name": "to",
          "type": "address"
        }
      ],
      "name": "Swap",
      "type": "event"
    },
    {
      "anonymous": false,
      "inputs": [
        {
          "indexed": false,
          "internalType": "uint256[]",
          "name": "idsIn",
          "type": "uint256[]"
        },
        {
          "indexed": false,
          "internalType": "uint256[]",
          "name": "amounts",
          "type": "uint256[]"
        },
        {
          "indexed": false,
          "internalType": "uint256[]",
          "name": "idsOut",
          "type": "uint256[]"
        },
        {
          "indexed": false,
          "internalType": "uint256",
          "name": "ethSpent",
          "type": "uint256"
        },
        {
          "indexed": false,
          "internalType": "address",
          "name": "to",
          "type": "address"
        }
      ],
      "name": "Swap",
      "type": "event"
    },
    {
      "inputs": [],
      "name": "PERMIT2",
      "outputs": [
        {
          "internalType": "contract IPermitAllowanceTransfer",
          "name": "",
          "type": "address"
        }
      ],
      "stateMutability": "view",
      "type": "function"
    },
    {
      "inputs": [],
      "name": "WETH",
      "outputs": [
        {
          "internalType": "contract IWETH9",
          "name": "",
          "type": "address"
        }
      ],
      "stateMutability": "view",
      "type": "function"
    },
    {
      "inputs": [
        {
          "components": [
            {
              "internalType": "contract IERC20",
              "name": "tokenIn",
              "type": "address"
            },
            {
              "internalType": "uint256",
              "name": "amountIn",
              "type": "uint256"
            },
            {
              "internalType": "uint256",
              "name": "vaultId",
              "type": "uint256"
            },
            {
              "internalType": "uint256[]",
              "name": "idsOut",
              "type": "uint256[]"
            },
            {
              "internalType": "bytes",
              "name": "executeToWETHCallData",
              "type": "bytes"
            },
            {
              "internalType": "bytes",
              "name": "executeToVTokenCallData",
              "type": "bytes"
            },
            {
              "internalType": "address payable",
              "name": "to",
              "type": "address"
            },
            {
              "internalType": "bool",
              "name": "deductRoyalty",
              "type": "bool"
            }
          ],
          "internalType": "struct MarketplaceUniversalRouterZap.BuyNFTsWithERC20Params",
          "name": "params",
          "type": "tuple"
        }
      ],
      "name": "buyNFTsWithERC20",
      "outputs": [],
      "stateMutability": "nonpayable",
      "type": "function"
    },
    {
      "inputs": [
        {
          "components": [
            {
              "internalType": "contract IERC20",
              "name": "tokenIn",
              "type": "address"
            },
            {
              "internalType": "uint256",
              "name": "amountIn",
              "type": "uint256"
            },
            {
              "internalType": "uint256",
              "name": "vaultId",
              "type": "uint256"
            },
            {
              "internalType": "uint256[]",
              "name": "idsOut",
              "type": "uint256[]"
            },
            {
              "internalType": "bytes",
              "name": "executeToWETHCallData",
              "type": "bytes"
            },
            {
              "internalType": "bytes",
              "name": "executeToVTokenCallData",
              "type": "bytes"
            },
            {
              "internalType": "address payable",
              "name": "to",
              "type": "address"
            },
            {
              "internalType": "bool",
              "name": "deductRoyalty",
              "type": "bool"
            }
          ],
          "internalType": "struct MarketplaceUniversalRouterZap.BuyNFTsWithERC20Params",
          "name": "params",
          "type": "tuple"
        },
        {
          "internalType": "bytes",
          "name": "encodedPermit2",
          "type": "bytes"
        }
      ],
      "name": "buyNFTsWithERC20WithPermit2",
      "outputs": [],
      "stateMutability": "nonpayable",
      "type": "function"
    },
    {
      "inputs": [
        {
          "internalType": "uint256",
          "name": "vaultId",
          "type": "uint256"
        },
        {
          "internalType": "uint256[]",
          "name": "idsOut",
          "type": "uint256[]"
        },
        {
          "internalType": "bytes",
          "name": "executeCallData",
          "type": "bytes"
        },
        {
          "internalType": "address payable",
          "name": "to",
          "type": "address"
        },
        {
          "internalType": "bool",
          "name": "deductRoyalty",
          "type": "bool"
        }
      ],
      "name": "buyNFTsWithETH",
      "outputs": [],
      "stateMutability": "payable",
      "type": "function"
    },
    {
      "inputs": [],
      "name": "dustThreshold",
      "outputs": [
        {
          "internalType": "uint256",
          "name": "",
          "type": "uint256"
        }
      ],
      "stateMutability": "view",
      "type": "function"
    },
    {
      "inputs": [],
      "name": "inventoryStaking",
      "outputs": [
        {
          "internalType": "address",
          "name": "",
          "type": "address"
        }
      ],
      "stateMutability": "view",
      "type": "function"
    },
    {
      "inputs": [],
      "name": "nftxVaultFactory",
      "outputs": [
        {
          "internalType": "contract INFTXVaultFactoryV3",
          "name": "",
          "type": "address"
        }
      ],
      "stateMutability": "view",
      "type": "function"
    },
    {
      "inputs": [
        {
          "internalType": "address",
          "name": "",
          "type": "address"
        },
        {
          "internalType": "address",
          "name": "",
          "type": "address"
        },
        {
          "internalType": "uint256[]",
          "name": "",
          "type": "uint256[]"
        },
        {
          "internalType": "uint256[]",
          "name": "",
          "type": "uint256[]"
        },
        {
          "internalType": "bytes",
          "name": "",
          "type": "bytes"
        }
      ],
      "name": "onERC1155BatchReceived",
      "outputs": [
        {
          "internalType": "bytes4",
          "name": "",
          "type": "bytes4"
        }
      ],
      "stateMutability": "nonpayable",
      "type": "function"
    },
    {
      "inputs": [
        {
          "internalType": "address",
          "name": "",
          "type": "address"
        },
        {
          "internalType": "address",
          "name": "",
          "type": "address"
        },
        {
          "internalType": "uint256",
          "name": "",
          "type": "uint256"
        },
        {
          "internalType": "uint256",
          "name": "",
          "type": "uint256"
        },
        {
          "internalType": "bytes",
          "name": "",
          "type": "bytes"
        }
      ],
      "name": "onERC1155Received",
      "outputs": [
        {
          "internalType": "bytes4",
          "name": "",
          "type": "bytes4"
        }
      ],
      "stateMutability": "nonpayable",
      "type": "function"
    },
    {
      "inputs": [
        {
          "internalType": "address",
          "name": "",
          "type": "address"
        },
        {
          "internalType": "address",
          "name": "",
          "type": "address"
        },
        {
          "internalType": "uint256",
          "name": "",
          "type": "uint256"
        },
        {
          "internalType": "bytes",
          "name": "",
          "type": "bytes"
        }
      ],
      "name": "onERC721Received",
      "outputs": [
        {
          "internalType": "bytes4",
          "name": "",
          "type": "bytes4"
        }
      ],
      "stateMutability": "nonpayable",
      "type": "function"
    },
    {
      "inputs": [],
      "name": "owner",
      "outputs": [
        {
          "internalType": "address",
          "name": "",
          "type": "address"
        }
      ],
      "stateMutability": "view",
      "type": "function"
    },
    {
      "inputs": [
        {
          "internalType": "bool",
          "name": "paused_",
          "type": "bool"
        }
      ],
      "name": "pause",
      "outputs": [],
      "stateMutability": "nonpayable",
      "type": "function"
    },
    {
      "inputs": [],
      "name": "paused",
      "outputs": [
        {
          "internalType": "bool",
          "name": "",
          "type": "bool"
        }
      ],
      "stateMutability": "view",
      "type": "function"
    },
    {
      "inputs": [],
      "name": "renounceOwnership",
      "outputs": [],
      "stateMutability": "nonpayable",
      "type": "function"
    },
    {
      "inputs": [
        {
          "internalType": "uint256",
          "name": "vaultId",
          "type": "uint256"
        },
        {
          "internalType": "uint256[]",
          "name": "idsIn",
          "type": "uint256[]"
        },
        {
          "internalType": "uint256[]",
          "name": "amounts",
          "type": "uint256[]"
        },
        {
          "internalType": "bytes",
          "name": "executeCallData",
          "type": "bytes"
        },
        {
          "internalType": "address payable",
          "name": "to",
          "type": "address"
        },
        {
          "internalType": "bool",
          "name": "deductRoyalty",
          "type": "bool"
        }
      ],
      "name": "sell1155",
      "outputs": [],
      "stateMutability": "nonpayable",
      "type": "function"
    },
    {
      "inputs": [
        {
          "internalType": "uint256",
          "name": "vaultId",
          "type": "uint256"
        },
        {
          "internalType": "uint256[]",
          "name": "idsIn",
          "type": "uint256[]"
        },
        {
          "internalType": "bytes",
          "name": "executeCallData",
          "type": "bytes"
        },
        {
          "internalType": "address payable",
          "name": "to",
          "type": "address"
        },
        {
          "internalType": "bool",
          "name": "deductRoyalty",
          "type": "bool"
        }
      ],
      "name": "sell721",
      "outputs": [],
      "stateMutability": "nonpayable",
      "type": "function"
    },
    {
      "inputs": [
        {
          "internalType": "uint256",
          "name": "dustThreshold_",
          "type": "uint256"
        }
      ],
      "name": "setDustThreshold",
      "outputs": [],
      "stateMutability": "nonpayable",
      "type": "function"
    },
    {
      "inputs": [
        {
          "internalType": "address",
          "name": "universalRouter_",
          "type": "address"
        }
      ],
      "name": "setUniversalRouter",
      "outputs": [],
      "stateMutability": "nonpayable",
      "type": "function"
    },
    {
      "inputs": [
        {
          "internalType": "bytes4",
          "name": "interfaceId",
          "type": "bytes4"
        }
      ],
      "name": "supportsInterface",
      "outputs": [
        {
          "internalType": "bool",
          "name": "",
          "type": "bool"
        }
      ],
      "stateMutability": "view",
      "type": "function"
    },
    {
      "inputs": [
        {
          "internalType": "uint256",
          "name": "vaultId",
          "type": "uint256"
        },
        {
          "internalType": "uint256[]",
          "name": "idsIn",
          "type": "uint256[]"
        },
        {
          "internalType": "uint256[]",
          "name": "amounts",
          "type": "uint256[]"
        },
        {
          "internalType": "uint256[]",
          "name": "idsOut",
          "type": "uint256[]"
        },
        {
          "internalType": "address payable",
          "name": "to",
          "type": "address"
        }
      ],
      "name": "swap1155",
      "outputs": [],
      "stateMutability": "payable",
      "type": "function"
    },
    {
      "inputs": [
        {
          "internalType": "uint256",
          "name": "vaultId",
          "type": "uint256"
        },
        {
          "internalType": "uint256[]",
          "name": "idsIn",
          "type": "uint256[]"
        },
        {
          "internalType": "uint256[]",
          "name": "idsOut",
          "type": "uint256[]"
        },
        {
          "internalType": "address payable",
          "name": "to",
          "type": "address"
        }
      ],
      "name": "swap721",
      "outputs": [],
      "stateMutability": "payable",
      "type": "function"
    },
    {
      "inputs": [
        {
          "internalType": "address",
          "name": "newOwner",
          "type": "address"
        }
      ],
      "name": "transferOwnership",
      "outputs": [],
      "stateMutability": "nonpayable",
      "type": "function"
    },
    {
      "inputs": [],
      "name": "universalRouter",
      "outputs": [
        {
          "internalType": "address",
          "name": "",
          "type": "address"
        }
      ],
      "stateMutability": "view",
      "type": "function"
    },
    {
      "stateMutability": "payable",
      "type": "receive"
    }
  ],
  "transactionHash": "0x1a96fc8ec06b096b57ed2580b8e9ef991015dd733c1ba6314f5acfa4c9f02489",
  "args": [
    "0x903aA6C8c82214d717D9919431724D00c82A382a",
    "0x9a9ac6e79E7750d6cFb847971370574Ca3CcB8e9",
    "0x000000000022d473030f116ddee9f6b43ac78ba3",
    "0x2d5c9C71B3D97A030d8E84a5cd1d1b778e1b26c5",
    "0xB4FBF271143F4FBf7B91A5ded31805e42b2208d6"
  ],
  "numDeployments": 1,
  "solcInputHash": "73f68bee321b9dcd4224617c681765ac",
  "bytecode": "0x6101006040526001805460ff60a01b191690553480156200001f57600080fd5b506040516200453f3803806200453f8339810160408190526200004291620000f1565b6200004d3362000088565b6001600160a01b0394851660c052600180546001600160a01b0319169486169490941790935590831660a052821660e0521660805262000171565b600080546001600160a01b038381166001600160a01b0319831681178455604051919092169283917f8be0079c531659141344cd1fd0a4f28419497f9722a3daafe3b4186f6b6457e09190a35050565b6001600160a01b0381168114620000ee57600080fd5b50565b600080600080600060a086880312156200010a57600080fd5b85516200011781620000d8565b60208701519095506200012a81620000d8565b60408701519094506200013d81620000d8565b60608701519093506200015081620000d8565b60808701519092506200016381620000d8565b809150509295509295909350565b60805160a05160c05160e0516142c26200027d6000396000818161035e01526122e80152600081816102a001528181610ab90152818161105e0152818161180801528181611cef015281816124c301526128da01526000818161031501528181610e4901528181610ed701528181612a2101528181612acb0152612b2c0152600081816103e3015281816106520152818161087f0152818161099801528181610a2001528181610b2b01528181610b6c01528181610bfe015281816118910152818161192a01528181611b5c01528181611bfd015281816120ca015281816123de01528181612429015281816125350152818161257c015281816126040152612ba501526142c26000f3fe60806040526004361061018f5760003560e01c80638da5cb5b116100d6578063e53ff16f1161007f578063f23a6e6111610059578063f23a6e61146104c8578063f2fde38b146104f4578063f8f114921461051457600080fd5b8063e53ff16f14610471578063e8462e8f14610491578063ee86698d146104b557600080fd5b8063ad7e55ba116100b0578063ad7e55ba14610405578063bc197c8114610425578063dac2729e1461045157600080fd5b80638da5cb5b146103a0578063a2d7b2db146103be578063ad5c4648146103d157600080fd5b80635c975abb11610138578063715018a611610112578063715018a61461033757806374a1b0b01461034c5780638bfb2a061461038057600080fd5b80635c975abb146102c2578063628a4b2f146102e35780636afdd8501461030357600080fd5b806332a7cc6a1161016957806332a7cc6a1461023657806335a9e4df146102565780633801daf11461028e57600080fd5b806301ffc9a71461019b57806302329a29146101d0578063150b7a02146101f257600080fd5b3661019657005b600080fd5b3480156101a757600080fd5b506101bb6101b636600461336b565b610527565b60405190151581526020015b60405180910390f35b3480156101dc57600080fd5b506101f06101eb3660046133a3565b61055e565b005b3480156101fe57600080fd5b5061021d61020d3660046134e3565b630a85bd0160e11b949350505050565b6040516001600160e01b031990911681526020016101c7565b34801561024257600080fd5b506101f06102513660046135dd565b6105f6565b34801561026257600080fd5b50600154610276906001600160a01b031681565b6040516001600160a01b0390911681526020016101c7565b34801561029a57600080fd5b506102767f000000000000000000000000000000000000000000000000000000000000000081565b3480156102ce57600080fd5b506001546101bb90600160a01b900460ff1681565b3480156102ef57600080fd5b506101f06102fe36600461367d565b610722565b34801561030f57600080fd5b506102767f000000000000000000000000000000000000000000000000000000000000000081565b34801561034357600080fd5b506101f06107ab565b34801561035857600080fd5b506102767f000000000000000000000000000000000000000000000000000000000000000081565b34801561038c57600080fd5b506101f061039b36600461369a565b610811565b3480156103ac57600080fd5b506000546001600160a01b0316610276565b6101f06103cc3660046135dd565b610954565b3480156103dd57600080fd5b506102767f000000000000000000000000000000000000000000000000000000000000000081565b34801561041157600080fd5b506101f0610420366004613763565b610d8a565b34801561043157600080fd5b5061021d6104403660046137f1565b63bc197c8160e01b95945050505050565b34801561045d57600080fd5b506101f061046c3660046138b8565b610de9565b34801561047d57600080fd5b506101f061048c366004613921565b610f8e565b34801561049d57600080fd5b506104a760025481565b6040519081526020016101c7565b6101f06104c3366004613956565b611003565b3480156104d457600080fd5b5061021d6104e3366004613a0d565b63f23a6e6160e01b95945050505050565b34801561050057600080fd5b506101f061050f36600461367d565b6112e4565b6101f0610522366004613a76565b6113c3565b60006001600160e01b03198216630271189760e51b148061055857506301ffc9a760e01b6001600160e01b03198316145b92915050565b6000546001600160a01b031633146105bd5760405162461bcd60e51b815260206004820181905260248201527f4f776e61626c653a2063616c6c6572206973206e6f7420746865206f776e657260448201526064015b60405180910390fd5b60018054911515600160a01b027fffffffffffffffffffffff00ffffffffffffffffffffffffffffffffffffffff909216919091179055565b600154600160a01b900460ff16801561061a57506000546001600160a01b03163314155b1561063857604051632ac76fcf60e21b815260040160405180910390fd5b6000806106468989896114ef565b915091506000610678837f00000000000000000000000000000000000000000000000000000000000000008989611586565b5090506000610687848a611714565b90506106958b8260016117fe565b600085156106ac576106a9848c8c866119f8565b90505b6106b68183613b18565b6106c09084613b30565b92506106cc8784611be1565b604080518b8152602081018590526001600160a01b0389168183015290517f1cdb5ee3c47e1a706ac452b89698e5e3f2ff4f835ca72dde8936d0f4fcf37d819181900360600190a1505050505050505050505050565b6000546001600160a01b0316331461077c5760405162461bcd60e51b815260206004820181905260248201527f4f776e61626c653a2063616c6c6572206973206e6f7420746865206f776e657260448201526064016105b4565b6001805473ffffffffffffffffffffffffffffffffffffffff19166001600160a01b0392909216919091179055565b6000546001600160a01b031633146108055760405162461bcd60e51b815260206004820181905260248201527f4f776e61626c653a2063616c6c6572206973206e6f7420746865206f776e657260448201526064016105b4565b61080f6000611c6f565b565b600154600160a01b900460ff16801561083557506000546001600160a01b03163314155b1561085357604051632ac76fcf60e21b815260040160405180910390fd5b6000806108638b8b8b8b8b611ccc565b9150915060006108758b8b8b8b611f0f565b905060006108a5847f00000000000000000000000000000000000000000000000000000000000000008a8a611586565b50905060006108b48584611714565b90506108c28e8260016117fe565b600086156108db576108d8858f8f8f8f88611f43565b90505b6108e58183613b18565b6108ef9084613b30565b92506108fb8884611be1565b60408051858152602081018590526001600160a01b038a168183015290517f1cdb5ee3c47e1a706ac452b89698e5e3f2ff4f835ca72dde8936d0f4fcf37d819181900360600190a1505050505050505050505050505050565b600154600160a01b900460ff16801561097857506000546001600160a01b03163314155b1561099657604051632ac76fcf60e21b815260040160405180910390fd5b7f00000000000000000000000000000000000000000000000000000000000000006001600160a01b031663d0e30db0346040518263ffffffff1660e01b81526004016000604051808303818588803b1580156109f157600080fd5b505af1158015610a05573d6000803e3d6000fd5b50506040516370a0823160e01b8152306004820152600093507f00000000000000000000000000000000000000000000000000000000000000006001600160a01b031692506370a082319150602401602060405180830381865afa158015610a71573d6000803e3d6000fd5b505050506040513d601f19601f82011682018060405250810190610a959190613b47565b6040516340d1b7db60e11b8152600481018a90529091506000906001600160a01b037f000000000000000000000000000000000000000000000000000000000000000016906381a36fb690602401602060405180830381865afa158015610b00573d6000803e3d6000fd5b505050506040513d601f19601f82011682018060405250810190610b249190613b60565b9050610b527f0000000000000000000000000000000000000000000000000000000000000000828888611586565b50506040516370a0823160e01b81523060048201526000907f00000000000000000000000000000000000000000000000000000000000000006001600160a01b0316906370a0823190602401602060405180830381865afa158015610bbb573d6000803e3d6000fd5b505050506040513d601f19601f82011682018060405250810190610bdf9190613b47565b610be99084613b30565b90506000610bf78234613b30565b9050610c247f00000000000000000000000000000000000000000000000000000000000000008483612151565b604051633da4253d60e21b81526000906001600160a01b0385169063f69094f490610c5c908e908e908c908890600190600401613bcc565b6020604051808303816000875af1158015610c7b573d6000803e3d6000fd5b505050506040513d601f19601f82011682018060405250810190610c9f9190613b47565b905060008615610d1f576000856001600160a01b0316631ba46cfd6040518163ffffffff1660e01b8152600401602060405180830381865afa158015610ce9573d6000803e3d6000fd5b505050506040513d601f19601f82011682018060405250810190610d0d9190613b60565b9050610d1b818e8e886119f8565b9150505b610d2a85600161224b565b7f99c656bf2e3e5ca235176a44d07b36acad10eb5ef54821c5e472bdcdf1e8a2cc8c8c83610d588689613b18565b610d629190613b18565b8b604051610d739493929190613c08565b60405180910390a150505050505050505050505050565b6000546001600160a01b03163314610de45760405162461bcd60e51b815260206004820181905260248201527f4f776e61626c653a2063616c6c6572206973206e6f7420746865206f776e657260448201526064016105b4565b600255565b600154600160a01b900460ff168015610e0d57506000546001600160a01b03163314155b15610e2b57604051632ac76fcf60e21b815260040160405180910390fd5b8015610ecd5760008080610e4184860186613c50565b9250925092507f00000000000000000000000000000000000000000000000000000000000000006001600160a01b0316632b67b5708484846040518463ffffffff1660e01b8152600401610e9793929190613d98565b600060405180830381600087803b158015610eb157600080fd5b505af1158015610ec5573d6000803e3d6000fd5b505050505050505b6001600160a01b037f0000000000000000000000000000000000000000000000000000000000000000166336c78516333060208701803590610f0f908961367d565b60405160e086901b6001600160e01b03191681526001600160a01b039485166004820152928416602484015290831660448301529091166064820152608401600060405180830381600087803b158015610f6857600080fd5b505af1158015610f7c573d6000803e3d6000fd5b50505050610f89836123cc565b505050565b600154600160a01b900460ff168015610fb257506000546001600160a01b03163314155b15610fd057604051632ac76fcf60e21b815260040160405180910390fd5b610ff7333060208401803590610fe6908661367d565b6001600160a01b03169291906127d8565b611000816123cc565b50565b600154600160a01b900460ff16801561102757506000546001600160a01b03163314155b1561104557604051632ac76fcf60e21b815260040160405180910390fd5b6040516340d1b7db60e11b8152600481018990526000907f00000000000000000000000000000000000000000000000000000000000000006001600160a01b0316906381a36fb690602401602060405180830381865afa1580156110ad573d6000803e3d6000fd5b505050506040513d601f19601f820116820180604052508101906110d19190613b60565b90506000816001600160a01b0316631ba46cfd6040518163ffffffff1660e01b8152600401602060405180830381865afa158015611113573d6000803e3d6000fd5b505050506040513d601f19601f820116820180604052508101906111379190613b60565b604051631759616b60e11b81529091506001600160a01b03821690632eb2c2d69061117090339030908e908e908e908e90600401613e17565b600060405180830381600087803b15801561118a57600080fd5b505af115801561119e573d6000803e3d6000fd5b505060405163a22cb46560e01b81526001600160a01b038581166004830152600160248301528416925063a22cb4659150604401600060405180830381600087803b1580156111ec57600080fd5b505af1158015611200573d6000803e3d6000fd5b505050506000826001600160a01b031663b9765315348c8c8c8c8c8c338d60016040518b63ffffffff1660e01b815260040161124499989796959493929190613e76565b60206040518083038185885af1158015611262573d6000803e3d6000fd5b50505050506040513d601f19601f820116820180604052508101906112879190613b47565b905061129284612843565b7f4932a6bf9dd9f345481724fa3f078eca81ded9c456f55c87ac959383ff4552378a8a8a8a8a8a878b6040516112cf989796959493929190613ee0565b60405180910390a15050505050505050505050565b6000546001600160a01b0316331461133e5760405162461bcd60e51b815260206004820181905260248201527f4f776e61626c653a2063616c6c6572206973206e6f7420746865206f776e657260448201526064016105b4565b6001600160a01b0381166113ba5760405162461bcd60e51b815260206004820152602660248201527f4f776e61626c653a206e6577206f776e657220697320746865207a65726f206160448201527f646472657373000000000000000000000000000000000000000000000000000060648201526084016105b4565b61100081611c6f565b600154600160a01b900460ff1680156113e757506000546001600160a01b03163314155b1561140557604051632ac76fcf60e21b815260040160405180910390fd5b60006114128787876128b7565b50905060606000826001600160a01b031663b9765315348a8a868b8b338c60016040518a63ffffffff1660e01b8152600401611455989796959493929190613f7c565b60206040518083038185885af1158015611473573d6000803e3d6000fd5b50505050506040513d601f19601f820116820180604052508101906114989190613b47565b90506114a384612843565b7ff136c3a5fc2c7f91494ac5b723ab3b55cd6c0213e3c720ddf77b7d5a4774a6798888888885896040516114dc96959493929190613fe4565b60405180910390a1505050505050505050565b6000806114fd8585856128b7565b604051630cb343fd60e31b815291935091506060906001600160a01b0384169063659a1fe890611539908890889086903390309060040161402e565b6020604051808303816000875af1158015611558573d6000803e3d6000fd5b505050506040513d601f19601f8201168201806040525081019061157c9190613b47565b5050935093915050565b6040516370a0823160e01b8152306004820152600090819081906001600160a01b038716906370a0823190602401602060405180830381865afa1580156115d1573d6000803e3d6000fd5b505050506040513d601f19601f820116820180604052508101906115f59190613b47565b60015490915061160f9088906001600160a01b03166129f1565b6001546040516000916001600160a01b03169061162f908890889061407a565b6000604051808303816000865af19150503d806000811461166c576040519150601f19603f3d011682016040523d82523d6000602084013e611671565b606091505b50509050806116935760405163081ceff360e41b815260040160405180910390fd5b6040516370a0823160e01b81523060048201526001600160a01b038816906370a0823190602401602060405180830381865afa1580156116d7573d6000803e3d6000fd5b505050506040513d601f19601f820116820180604052508101906116fb9190613b47565b92506117078284613b30565b9350505094509492505050565b600080836001600160a01b03166372188e3f6040518163ffffffff1660e01b8152600401606060405180830381865afa158015611755573d6000803e3d6000fd5b505050506040513d601f19601f82011682018060405250810190611779919061408a565b50909150506001600160a01b03841663b8517b7861179785846140b8565b6040518263ffffffff1660e01b81526004016117b591815260200190565b602060405180830381865afa1580156117d2573d6000803e3d6000fd5b505050506040513d601f19601f820116820180604052508101906117f69190613b47565b949350505050565b8115610f895760007f00000000000000000000000000000000000000000000000000000000000000006001600160a01b0316630d43e8ad6040518163ffffffff1660e01b8152600401602060405180830381865afa158015611864573d6000803e3d6000fd5b505050506040513d601f19601f820116820180604052508101906118889190613b60565b905081611904577f00000000000000000000000000000000000000000000000000000000000000006001600160a01b031663d0e30db0846040518263ffffffff1660e01b81526004016000604051808303818588803b1580156118ea57600080fd5b505af11580156118fe573d6000803e3d6000fd5b50505050505b60405163a9059cbb60e01b81526001600160a01b038281166004830152602482018590527f0000000000000000000000000000000000000000000000000000000000000000169063a9059cbb906044016020604051808303816000875af1158015611973573d6000803e3d6000fd5b505050506040513d601f19601f8201168201806040525081019061199791906140d7565b506040516391c05b0b60e01b8152600481018590526001600160a01b038216906391c05b0b90602401600060405180830381600087803b1580156119da57600080fd5b505af11580156119ee573d6000803e3d6000fd5b5050505050505050565b6040516301ffc9a760e01b815263152a902d60e11b600482015260009081906001600160a01b038716906301ffc9a790602401602060405180830381865afa158015611a48573d6000803e3d6000fd5b505050506040513d601f19601f82011682018060405250810190611a6c91906140d7565b90508015611bd8576000611a8085856140f4565b905060005b85811015611bd557600080896001600160a01b0316632a55205a8a8a86818110611ab157611ab1614116565b90506020020135866040518363ffffffff1660e01b8152600401611adf929190918252602082015260400190565b6040805180830381865afa158015611afb573d6000803e3d6000fd5b505050506040513d601f19601f82011682018060405250810190611b1f919061412c565b9092509050611b2e8187613b18565b95508015611bcb5760405163a9059cbb60e01b81526001600160a01b038381166004830152602482018390527f0000000000000000000000000000000000000000000000000000000000000000169063a9059cbb906044016020604051808303816000875af1158015611ba5573d6000803e3d6000fd5b505050506040513d601f19601f82011682018060405250810190611bc991906140d7565b505b5050600101611a85565b50505b50949350505050565b8015611c6257604051632e1a7d4d60e01b8152600481018290527f00000000000000000000000000000000000000000000000000000000000000006001600160a01b031690632e1a7d4d90602401600060405180830381600087803b158015611c4957600080fd5b505af1158015611c5d573d6000803e3d6000fd5b505050505b611c6b82612843565b5050565b600080546001600160a01b0383811673ffffffffffffffffffffffffffffffffffffffff19831681178455604051919092169283917f8be0079c531659141344cd1fd0a4f28419497f9722a3daafe3b4186f6b6457e09190a35050565b6040516340d1b7db60e11b81526004810186905260009081906001600160a01b037f000000000000000000000000000000000000000000000000000000000000000016906381a36fb690602401602060405180830381865afa158015611d36573d6000803e3d6000fd5b505050506040513d601f19601f82011682018060405250810190611d5a9190613b60565b9150816001600160a01b0316631ba46cfd6040518163ffffffff1660e01b8152600401602060405180830381865afa158015611d9a573d6000803e3d6000fd5b505050506040513d601f19601f82011682018060405250810190611dbe9190613b60565b604051631759616b60e11b81529091506001600160a01b03821690632eb2c2d690611df790339030908b908b908b908b90600401613e17565b600060405180830381600087803b158015611e1157600080fd5b505af1158015611e25573d6000803e3d6000fd5b505060405163a22cb46560e01b81526001600160a01b038581166004830152600160248301528416925063a22cb4659150604401600060405180830381600087803b158015611e7357600080fd5b505af1158015611e87573d6000803e3d6000fd5b5050604051630cb343fd60e31b81526001600160a01b038516925063659a1fe89150611ec19089908990899089903390309060040161415a565b6020604051808303816000875af1158015611ee0573d6000803e3d6000fd5b505050506040513d601f19601f82011682018060405250810190611f049190613b47565b509550959350505050565b6000805b84811015611bd857838382818110611f2d57611f2d614116565b9050602002013582019150806001019050611f13565b6040516301ffc9a760e01b815263152a902d60e11b600482015260009081906001600160a01b038916906301ffc9a790602401602060405180830381865afa158015611f93573d6000803e3d6000fd5b505050506040513d601f19601f82011682018060405250810190611fb791906140d7565b90508015612146576000611fcb87856140f4565b905060005b87811015612143576000808b6001600160a01b0316632a55205a8c8c86818110611ffc57611ffc614116565b90506020020135866040518363ffffffff1660e01b815260040161202a929190918252602082015260400190565b6040805180830381865afa158015612046573d6000803e3d6000fd5b505050506040513d601f19601f8201168201806040525081019061206a919061412c565b9150915088888481811061208057612080614116565b905060200201358161209291906140b8565b61209c9087613b18565b955080156121395760405163a9059cbb60e01b81526001600160a01b038381166004830152602482018390527f0000000000000000000000000000000000000000000000000000000000000000169063a9059cbb906044016020604051808303816000875af1158015612113573d6000803e3d6000fd5b505050506040513d601f19601f8201168201806040525081019061213791906140d7565b505b5050600101611fd0565b50505b509695505050505050565b604051636eb1769f60e11b81523060048201526001600160a01b0383811660248301526000919085169063dd62ed3e90604401602060405180830381865afa1580156121a1573d6000803e3d6000fd5b505050506040513d601f19601f820116820180604052508101906121c59190613b47565b9050808211156122455760405163095ea7b360e01b81526001600160a01b038481166004830152600019602483015285169063095ea7b3906044016020604051808303816000875af115801561221f573d6000803e3d6000fd5b505050506040513d601f19601f8201168201806040525081019061224391906140d7565b505b50505050565b6000811561225f5761225c33612b8d565b90505b6040516370a0823160e01b81523060048201526000906001600160a01b038516906370a0823190602401602060405180830381865afa1580156122a6573d6000803e3d6000fd5b505050506040513d601f19601f820116820180604052508101906122ca9190613b47565b90506000811561237d576002548211156122e5575033612308565b507f00000000000000000000000000000000000000000000000000000000000000005b60405163a9059cbb60e01b81526001600160a01b0382811660048301526024820184905286169063a9059cbb906044016020604051808303816000875af1158015612357573d6000803e3d6000fd5b505050506040513d601f19601f8201168201806040525081019061237b91906140d7565b505b60408051848152602081018490526001600160a01b0383168183015290517fd9b066a634638844b3b4701f7bfb9d8791265979e46666f7d7bc04cf4c06c9709181900360600190a15050505050565b61240f6123dc602083018361367d565b7f000000000000000000000000000000000000000000000000000000000000000061240a60808501856141a8565b611586565b50506040516370a0823160e01b81523060048201526000907f00000000000000000000000000000000000000000000000000000000000000006001600160a01b0316906370a0823190602401602060405180830381865afa158015612478573d6000803e3d6000fd5b505050506040513d601f19601f8201168201806040525081019061249c9190613b47565b604080516340d1b7db60e11b81529084013560048201529091506000906001600160a01b037f000000000000000000000000000000000000000000000000000000000000000016906381a36fb690602401602060405180830381865afa15801561250a573d6000803e3d6000fd5b505050506040513d601f19601f8201168201806040525081019061252e9190613b60565b90506125627f00000000000000000000000000000000000000000000000000000000000000008261240a60a08701876141a8565b50506040516370a0823160e01b81523060048201526000907f00000000000000000000000000000000000000000000000000000000000000006001600160a01b0316906370a0823190602401602060405180830381865afa1580156125cb573d6000803e3d6000fd5b505050506040513d601f19601f820116820180604052508101906125ef9190613b47565b905060006125fd8285613b30565b905061262a7f00000000000000000000000000000000000000000000000000000000000000008484612151565b60006001600160a01b03841663f69094f461264860608901896141ef565b61265860e08b0160c08c0161367d565b8760016040518663ffffffff1660e01b815260040161267b959493929190613bcc565b6020604051808303816000875af115801561269a573d6000803e3d6000fd5b505050506040513d601f19601f820116820180604052508101906126be9190613b47565b905060006126d3610100880160e089016133a3565b15612759576000856001600160a01b0316631ba46cfd6040518163ffffffff1660e01b8152600401602060405180830381865afa158015612718573d6000803e3d6000fd5b505050506040513d601f19601f8201168201806040525081019061273c9190613b60565b90506127558161274f60608b018b6141ef565b876119f8565b9150505b61276485600161224b565b7f99c656bf2e3e5ca235176a44d07b36acad10eb5ef54821c5e472bdcdf1e8a2cc61279260608901896141ef565b8361279d8688613b18565b6127a79190613b18565b6127b760e08c0160c08d0161367d565b6040516127c79493929190613c08565b60405180910390a150505050505050565b6040516001600160a01b03808516602483015283166044820152606481018290526122459085906323b872dd60e01b906084015b60408051601f198184030181529190526020810180516001600160e01b03166001600160e01b031990931692909217909152612c29565b6000816001600160a01b03164760405160006040518083038185875af1925050503d8060008114612890576040519150601f19603f3d011682016040523d82523d6000602084013e612895565b606091505b5050905080611c6b5760405163260e7d5b60e11b815260040160405180910390fd5b6040516340d1b7db60e11b81526004810184905260009081906001600160a01b037f000000000000000000000000000000000000000000000000000000000000000016906381a36fb690602401602060405180830381865afa158015612921573d6000803e3d6000fd5b505050506040513d601f19601f820116820180604052508101906129459190613b60565b9150816001600160a01b0316631ba46cfd6040518163ffffffff1660e01b8152600401602060405180830381865afa158015612985573d6000803e3d6000fd5b505050506040513d601f19601f820116820180604052508101906129a99190613b60565b90506129e98183868680806020026020016040519081016040528093929190818152602001838360200280828437600092019190915250612d0e92505050565b935093915050565b60405163927da10560e01b81523060048201526001600160a01b03838116602483015282811660448301526000917f00000000000000000000000000000000000000000000000000000000000000009091169063927da10590606401606060405180830381865afa158015612a6a573d6000803e3d6000fd5b505050506040513d601f19601f82011682018060405250810190612a8e9190614239565b509091505073f0000000000000000000000000000000000000006001600160a01b03821610612abc57505050565b612af26001600160a01b0384167f0000000000000000000000000000000000000000000000000000000000000000600019612d99565b6040516387517c4560e01b81526001600160a01b03848116600483015283811660248301526044820181905265ffffffffffff60648301527f000000000000000000000000000000000000000000000000000000000000000016906387517c4590608401600060405180830381600087803b158015612b7057600080fd5b505af1158015612b84573d6000803e3d6000fd5b50505050505050565b6040516370a0823160e01b81523060048201526000907f00000000000000000000000000000000000000000000000000000000000000006001600160a01b0316906370a0823190602401602060405180830381865afa158015612bf4573d6000803e3d6000fd5b505050506040513d601f19601f82011682018060405250810190612c189190613b47565b9050612c248282611be1565b919050565b6000612c7e826040518060400160405280602081526020017f5361666545524332303a206c6f772d6c6576656c2063616c6c206661696c6564815250856001600160a01b0316612eb59092919063ffffffff16565b805190915015610f895780806020019051810190612c9c91906140d7565b610f895760405162461bcd60e51b815260206004820152602a60248201527f5361666545524332303a204552433230206f7065726174696f6e20646964206e60448201527f6f7420737563636565640000000000000000000000000000000000000000000060648201526084016105b4565b60005b815181101561224557612d3e84838381518110612d3057612d30614116565b602002602001015185612ece565b7fffffffffffffffffffffffff4b81c327c822071b3a80fa28f5479a2191e6c4456001600160a01b03851601612d9157612d91828281518110612d8357612d83614116565b602002602001015184613101565b600101612d11565b801580612e135750604051636eb1769f60e11b81523060048201526001600160a01b03838116602483015284169063dd62ed3e90604401602060405180830381865afa158015612ded573d6000803e3d6000fd5b505050506040513d601f19601f82011682018060405250810190612e119190613b47565b155b612e855760405162461bcd60e51b815260206004820152603660248201527f5361666545524332303a20617070726f76652066726f6d206e6f6e2d7a65726f60448201527f20746f206e6f6e2d7a65726f20616c6c6f77616e63650000000000000000000060648201526084016105b4565b6040516001600160a01b038316602482015260448101829052610f8990849063095ea7b360e01b9060640161280c565b6060612ec484846000856131ea565b90505b9392505050565b60606001600160a01b03841673b47e3cd837ddf8e4c57f05d70ab865de6e193bbb14612f47576040513360248201526001600160a01b03831660448201526064810184905260840160408051601f198184030181529190526020810180516001600160e01b0316632142170760e11b179052905061307f565b600083604051602401612f5c91815260200190565b60408051601f198184030181529181526020820180516001600160e01b0316630b02f02d60e31b17905251909150600090819073b47e3cd837ddf8e4c57f05d70ab865de6e193bbb90612fb0908590614286565b600060405180830381855afa9150503d8060008114612feb576040519150601f19603f3d011682016040523d82523d6000602084013e612ff0565b606091505b509150915060008180602001905181019061300b9190613b60565b905082158061302357506001600160a01b0381163314155b1561304157604051631022318760e21b815260040160405180910390fd5b6040516024810188905260440160408051601f198184030181529190526020810180516001600160e01b031663104c9fd360e31b1790529450505050505b600080856001600160a01b03168360405161309a9190614286565b6000604051808303816000865af19150503d80600081146130d7576040519150601f19603f3d011682016040523d82523d6000602084013e6130dc565b606091505b5091509150818190612b845760405162461bcd60e51b81526004016105b491906142a2565b604051602481018390526000604482018190526001600160a01b03831660648301529060840160408051601f198184030181529181526020820180516001600160e01b031663bf31196f60e01b17905251909150600090819073b47e3cd837ddf8e4c57f05d70ab865de6e193bbb9061317b908590614286565b6000604051808303816000865af19150503d80600081146131b8576040519150601f19603f3d011682016040523d82523d6000602084013e6131bd565b606091505b50915091508181906131e25760405162461bcd60e51b81526004016105b491906142a2565b505050505050565b6060824710156132625760405162461bcd60e51b815260206004820152602660248201527f416464726573733a20696e73756666696369656e742062616c616e636520666f60448201527f722063616c6c000000000000000000000000000000000000000000000000000060648201526084016105b4565b6001600160a01b0385163b6132b95760405162461bcd60e51b815260206004820152601d60248201527f416464726573733a2063616c6c20746f206e6f6e2d636f6e747261637400000060448201526064016105b4565b600080866001600160a01b031685876040516132d59190614286565b60006040518083038185875af1925050503d8060008114613312576040519150601f19603f3d011682016040523d82523d6000602084013e613317565b606091505b5091509150613327828286613332565b979650505050505050565b60608315613341575081612ec7565b8251156133515782518084602001fd5b8160405162461bcd60e51b81526004016105b491906142a2565b60006020828403121561337d57600080fd5b81356001600160e01b031981168114612ec757600080fd5b801515811461100057600080fd5b6000602082840312156133b557600080fd5b8135612ec781613395565b6001600160a01b038116811461100057600080fd5b8035612c24816133c0565b634e487b7160e01b600052604160045260246000fd5b6040516060810167ffffffffffffffff81118282101715613419576134196133e0565b60405290565b6040516080810167ffffffffffffffff81118282101715613419576134196133e0565b604051601f8201601f1916810167ffffffffffffffff8111828210171561346b5761346b6133e0565b604052919050565b600082601f83011261348457600080fd5b813567ffffffffffffffff81111561349e5761349e6133e0565b6134b1601f8201601f1916602001613442565b8181528460208386010111156134c657600080fd5b816020850160208301376000918101602001919091529392505050565b600080600080608085870312156134f957600080fd5b8435613504816133c0565b93506020850135613514816133c0565b925060408501359150606085013567ffffffffffffffff81111561353757600080fd5b61354387828801613473565b91505092959194509250565b60008083601f84011261356157600080fd5b50813567ffffffffffffffff81111561357957600080fd5b6020830191508360208260051b850101111561359457600080fd5b9250929050565b60008083601f8401126135ad57600080fd5b50813567ffffffffffffffff8111156135c557600080fd5b60208301915083602082850101111561359457600080fd5b600080600080600080600060a0888a0312156135f857600080fd5b87359650602088013567ffffffffffffffff8082111561361757600080fd5b6136238b838c0161354f565b909850965060408a013591508082111561363c57600080fd5b506136498a828b0161359b565b909550935050606088013561365d816133c0565b9150608088013561366d81613395565b8091505092959891949750929550565b60006020828403121561368f57600080fd5b8135612ec7816133c0565b600080600080600080600080600060c08a8c0312156136b857600080fd5b8935985060208a013567ffffffffffffffff808211156136d757600080fd5b6136e38d838e0161354f565b909a50985060408c01359150808211156136fc57600080fd5b6137088d838e0161354f565b909850965060608c013591508082111561372157600080fd5b5061372e8c828d0161359b565b90955093505060808a0135613742816133c0565b915060a08a013561375281613395565b809150509295985092959850929598565b60006020828403121561377557600080fd5b5035919050565b600082601f83011261378d57600080fd5b8135602067ffffffffffffffff8211156137a9576137a96133e0565b8160051b6137b8828201613442565b92835284810182019282810190878511156137d257600080fd5b83870192505b84831015613327578235825291830191908301906137d8565b600080600080600060a0868803121561380957600080fd5b8535613814816133c0565b94506020860135613824816133c0565b9350604086013567ffffffffffffffff8082111561384157600080fd5b61384d89838a0161377c565b9450606088013591508082111561386357600080fd5b61386f89838a0161377c565b9350608088013591508082111561388557600080fd5b5061389288828901613473565b9150509295509295909350565b600061010082840312156138b257600080fd5b50919050565b6000806000604084860312156138cd57600080fd5b833567ffffffffffffffff808211156138e557600080fd5b6138f18783880161389f565b9450602086013591508082111561390757600080fd5b506139148682870161359b565b9497909650939450505050565b60006020828403121561393357600080fd5b813567ffffffffffffffff81111561394a57600080fd5b6117f68482850161389f565b60008060008060008060008060a0898b03121561397257600080fd5b88359750602089013567ffffffffffffffff8082111561399157600080fd5b61399d8c838d0161354f565b909950975060408b01359150808211156139b657600080fd5b6139c28c838d0161354f565b909750955060608b01359150808211156139db57600080fd5b506139e88b828c0161354f565b90945092505060808901356139fc816133c0565b809150509295985092959890939650565b600080600080600060a08688031215613a2557600080fd5b8535613a30816133c0565b94506020860135613a40816133c0565b93506040860135925060608601359150608086013567ffffffffffffffff811115613a6a57600080fd5b61389288828901613473565b60008060008060008060808789031215613a8f57600080fd5b86359550602087013567ffffffffffffffff80821115613aae57600080fd5b613aba8a838b0161354f565b90975095506040890135915080821115613ad357600080fd5b50613ae089828a0161354f565b9094509250506060870135613af4816133c0565b809150509295509295509295565b634e487b7160e01b600052601160045260246000fd5b60008219821115613b2b57613b2b613b02565b500190565b600082821015613b4257613b42613b02565b500390565b600060208284031215613b5957600080fd5b5051919050565b600060208284031215613b7257600080fd5b8151612ec7816133c0565b81835260007f07ffffffffffffffffffffffffffffffffffffffffffffffffffffffffffffff831115613baf57600080fd5b8260051b8083602087013760009401602001938452509192915050565b608081526000613be0608083018789613b7d565b6001600160a01b03959095166020830152506040810192909252151560609091015292915050565b606081526000613c1c606083018688613b7d565b90508360208301526001600160a01b038316604083015295945050505050565b65ffffffffffff8116811461100057600080fd5b6000806000838503610100811215613c6757600080fd5b8435613c72816133c0565b9350601f190160c0811215613c8657600080fd5b613c8e6133f6565b6080821215613c9c57600080fd5b613ca461341f565b91506020860135613cb4816133c0565b82526040860135613cc4816133c0565b60208301526060860135613cd781613c3c565b60408301526080860135613cea81613c3c565b6060830152818152613cfe60a087016133d5565b602082015260c0860135604082015292505060e084013567ffffffffffffffff811115613d2a57600080fd5b613d3686828701613473565b9150509250925092565b60005b83811015613d5b578181015183820152602001613d43565b838111156122455750506000910152565b60008151808452613d84816020860160208601613d40565b601f01601f19169290920160200192915050565b60006101006001600160a01b0380871684528551818151166020860152816020820151166040860152604081015165ffffffffffff80821660608801528060608401511660808801525050508060208701511660a085015250604085015160c08401528060e0840152613e0d81840185613d6c565b9695505050505050565b60006001600160a01b03808916835280881660208401525060a06040830152613e4460a083018688613b7d565b8281036060840152613e57818587613b7d565b8381036080909401939093525050600081526020019695505050505050565b60c081526000613e8a60c083018b8d613b7d565b8281036020840152613e9d818a8c613b7d565b90508281036040840152613eb281888a613b7d565b6001600160a01b0396871660608501529490951660808301525090151560a090910152979650505050505050565b60a081526000613ef460a083018a8c613b7d565b8281036020840152613f0781898b613b7d565b90508281036040840152613f1c818789613b7d565b9150508360608301526001600160a01b03831660808301529998505050505050505050565b600081518084526020808501945080840160005b83811015613f7157815187529582019590820190600101613f55565b509495945050505050565b60c081526000613f9060c083018a8c613b7d565b8281036020840152613fa2818a613f41565b90508281036040840152613fb781888a613b7d565b6001600160a01b0396871660608501529490951660808301525090151560a0909101529695505050505050565b608081526000613ff860808301888a613b7d565b828103602084015261400b818789613b7d565b9150508360408301526001600160a01b0383166060830152979650505050505050565b608081526000614042608083018789613b7d565b82810360208401526140548187613f41565b9150506001600160a01b0380851660408401528084166060840152509695505050505050565b8183823760009101908152919050565b60008060006060848603121561409f57600080fd5b8351925060208401519150604084015190509250925092565b60008160001904831182151516156140d2576140d2613b02565b500290565b6000602082840312156140e957600080fd5b8151612ec781613395565b60008261411157634e487b7160e01b600052601260045260246000fd5b500490565b634e487b7160e01b600052603260045260246000fd5b6000806040838503121561413f57600080fd5b825161414a816133c0565b6020939093015192949293505050565b60808152600061416e60808301888a613b7d565b8281036020840152614181818789613b7d565b9150506001600160a01b038085166040840152808416606084015250979650505050505050565b6000808335601e198436030181126141bf57600080fd5b83018035915067ffffffffffffffff8211156141da57600080fd5b60200191503681900382131561359457600080fd5b6000808335601e1984360301811261420657600080fd5b83018035915067ffffffffffffffff82111561422157600080fd5b6020019150600581901b360382131561359457600080fd5b60008060006060848603121561424e57600080fd5b8351614259816133c0565b602085015190935061426a81613c3c565b604085015190925061427b81613c3c565b809150509250925092565b60008251614298818460208701613d40565b9190910192915050565b602081526000612ec76020830184613d6c56fea164736f6c634300080f000a",
  "devdoc": {
    "author": "@apoorvlathey",
    "details": "This Zap must be excluded from the vault fees, as vault fees handled via custom logic here.",
    "events": {
      "Buy(uint256[],uint256,address)": {
        "params": {
          "ethSpent": "The amount of ETH spent in the buy",
          "nftIds": "The nftIds bought",
          "to": "The user affected by the event"
        }
      },
      "DustReturned(uint256,uint256,address)": {
        "params": {
          "ethAmount": "Amount of ETH returned to user",
          "to": "The user affected by the event",
          "vTokenAmount": "Amount of vToken returned to user"
        }
      },
      "Sell(uint256,uint256,address)": {
        "params": {
          "count": "The number of tokens affected by the event",
          "ethReceived": "The amount of ETH received in the sell",
          "to": "The user affected by the event"
        }
      },
      "Swap(uint256[],uint256[],uint256,address)": {
        "params": {
          "ethSpent": "The amount of ETH spent in the swap",
          "to": "The user affected by the event"
        }
      }
    },
    "kind": "dev",
    "methods": {
      "buyNFTsWithERC20((address,uint256,uint256,uint256[],bytes,bytes,address,bool))": {
        "details": "ERC20 --{-sell-> [UniversalRouter] -> ETH -> [UniversalRouter] -> vTokens + ETH --redeem-> [vault] --}-> idsOut"
      },
      "buyNFTsWithETH(uint256,uint256[],bytes,address,bool)": {
        "details": "ETH --{-sell-> [UniversalRouter] -> vTokens + ETH --redeem-> [vault] --}-> idsOut",
        "params": {
          "executeCallData": "Encoded calldata for Universal Router's `execute` function",
          "idsOut": "An array of any token IDs to be redeemed",
          "to": "The recipient of the token IDs from the tx",
          "vaultId": "The ID of the NFTX vault"
        }
      },
      "onERC721Received(address,address,uint256,bytes)": {
        "details": "See {IERC721Receiver-onERC721Received}. Always returns `IERC721Receiver.onERC721Received.selector`."
      },
      "owner()": {
        "details": "Returns the address of the current owner."
      },
      "pause(bool)": {
        "params": {
          "paused_": "New pause state"
        }
      },
      "renounceOwnership()": {
        "details": "Leaves the contract without owner. It will not be possible to call `onlyOwner` functions anymore. Can only be called by the current owner. NOTE: Renouncing ownership will leave the contract without an owner, thereby removing any functionality that is only available to the owner."
      },
      "sell1155(uint256,uint256[],uint256[],bytes,address,bool)": {
        "details": "idsIn --{--mint-> [vault] -> vTokens --sell-> [UniversalRouter] --}-> ETH",
        "params": {
          "executeCallData": "Encoded calldata for Universal Router's `execute` function",
          "idsIn": "An array of token IDs to be deposited",
          "to": "The recipient of ETH from the tx",
          "vaultId": "The ID of the NFTX vault"
        }
      },
      "sell721(uint256,uint256[],bytes,address,bool)": {
        "details": "idsIn --{--mint-> [vault] -> vTokens --sell-> [UniversalRouter] --}-> ETH",
        "params": {
          "executeCallData": "Encoded calldata for Universal Router's `execute` function",
          "idsIn": "An array of token IDs to be deposited",
          "to": "The recipient of ETH from the tx",
          "vaultId": "The ID of the NFTX vault"
        }
      },
      "supportsInterface(bytes4)": {
        "details": "See {IERC165-supportsInterface}."
      },
      "transferOwnership(address)": {
        "details": "Transfers ownership of the contract to a new account (`newOwner`). Can only be called by the current owner."
      }
    },
    "title": "Marketplace Universal Router Zap",
    "version": 1
  },
  "userdoc": {
    "events": {
      "DustReturned(uint256,uint256,address)": {
        "notice": "Emitted when dust is returned after a transaction."
      }
    },
    "kind": "user",
    "methods": {
      "buyNFTsWithERC20((address,uint256,uint256,uint256[],bytes,bytes,address,bool))": {
        "notice": "Buy idsOut with ERC20"
      },
      "buyNFTsWithETH(uint256,uint256[],bytes,address,bool)": {
        "notice": "Buy idsOut with ETH"
      },
      "dustThreshold()": {
        "notice": "The vToken threshold below which dust is sent to InventoryStaking, else back to the user"
      },
      "pause(bool)": {
        "notice": "Allows our zap to be paused to prevent any processing."
      },
      "paused()": {
        "notice": "Allows zap to be paused"
      },
      "sell1155(uint256,uint256[],uint256[],bytes,address,bool)": {
        "notice": "Sell idsIn to ETH"
      },
      "sell721(uint256,uint256[],bytes,address,bool)": {
        "notice": "Sell idsIn to ETH"
      },
      "swap1155(uint256,uint256[],uint256[],uint256[],address)": {
        "notice": "Swap idsIn to idsOut Send ETH along as well (via msg.value) to account for swap fees"
      },
      "swap721(uint256,uint256[],uint256[],address)": {
        "notice": "Swap idsIn to idsOut Send ETH along as well (via msg.value) to account for swap fees"
      }
    },
    "notice": "Marketplace Zap that utilizes Universal Router to facilitate the require token swaps",
    "version": 1
  },
  "storageLayout": {
    "storage": [
      {
        "astId": 4926,
        "contract": "src/zaps/MarketplaceUniversalRouterZap.sol:MarketplaceUniversalRouterZap",
        "label": "_owner",
        "offset": 0,
        "slot": "0",
        "type": "t_address"
      },
      {
        "astId": 43163,
        "contract": "src/zaps/MarketplaceUniversalRouterZap.sol:MarketplaceUniversalRouterZap",
        "label": "universalRouter",
        "offset": 0,
        "slot": "1",
        "type": "t_address"
      },
      {
        "astId": 43167,
        "contract": "src/zaps/MarketplaceUniversalRouterZap.sol:MarketplaceUniversalRouterZap",
        "label": "paused",
        "offset": 20,
        "slot": "1",
        "type": "t_bool"
      },
      {
        "astId": 43170,
        "contract": "src/zaps/MarketplaceUniversalRouterZap.sol:MarketplaceUniversalRouterZap",
        "label": "dustThreshold",
        "offset": 0,
        "slot": "2",
        "type": "t_uint256"
      }
    ],
    "types": {
      "t_address": {
        "encoding": "inplace",
        "label": "address",
        "numberOfBytes": "20"
      },
      "t_bool": {
        "encoding": "inplace",
        "label": "bool",
        "numberOfBytes": "1"
      },
      "t_uint256": {
        "encoding": "inplace",
        "label": "uint256",
        "numberOfBytes": "32"
      }
    }
  }
}