{
  "address": "0xF3cbb6A2521A90F194d09042f550f3cd6575C8Ae",
  "abi": [
    {
      "inputs": [
        {
          "internalType": "string",
          "name": "name_",
          "type": "string"
        },
        {
          "internalType": "string",
          "name": "symbol_",
          "type": "string"
        }
      ],
      "stateMutability": "nonpayable",
      "type": "constructor"
    },
    {
      "anonymous": false,
      "inputs": [
        {
          "indexed": true,
          "internalType": "address",
          "name": "owner",
          "type": "address"
        },
        {
          "indexed": true,
          "internalType": "address",
          "name": "approved",
          "type": "address"
        },
        {
          "indexed": true,
          "internalType": "uint256",
          "name": "tokenId",
          "type": "uint256"
        }
      ],
      "name": "Approval",
      "type": "event"
    },
    {
      "anonymous": false,
      "inputs": [
        {
          "indexed": true,
          "internalType": "address",
          "name": "owner",
          "type": "address"
        },
        {
          "indexed": true,
          "internalType": "address",
          "name": "operator",
          "type": "address"
        },
        {
          "indexed": false,
          "internalType": "bool",
          "name": "approved",
          "type": "bool"
        }
      ],
      "name": "ApprovalForAll",
      "type": "event"
    },
    {
      "anonymous": false,
      "inputs": [
        {
          "indexed": true,
          "internalType": "address",
          "name": "from",
          "type": "address"
        },
        {
          "indexed": true,
          "internalType": "address",
          "name": "to",
          "type": "address"
        },
        {
          "indexed": true,
          "internalType": "uint256",
          "name": "tokenId",
          "type": "uint256"
        }
      ],
      "name": "Transfer",
      "type": "event"
    },
    {
      "inputs": [
        {
          "internalType": "address",
          "name": "to",
          "type": "address"
        },
        {
          "internalType": "uint256",
          "name": "tokenId",
          "type": "uint256"
        }
      ],
      "name": "approve",
      "outputs": [],
      "stateMutability": "nonpayable",
      "type": "function"
    },
    {
      "inputs": [
        {
          "internalType": "address",
          "name": "owner",
          "type": "address"
        }
      ],
      "name": "balanceOf",
      "outputs": [
        {
          "internalType": "uint256",
          "name": "",
          "type": "uint256"
        }
      ],
      "stateMutability": "view",
      "type": "function"
    },
    {
      "inputs": [
        {
          "internalType": "uint256",
          "name": "tokenId",
          "type": "uint256"
        }
      ],
      "name": "getApproved",
      "outputs": [
        {
          "internalType": "address",
          "name": "",
          "type": "address"
        }
      ],
      "stateMutability": "view",
      "type": "function"
    },
    {
      "inputs": [
        {
          "internalType": "address",
          "name": "owner",
          "type": "address"
        },
        {
          "internalType": "address",
          "name": "operator",
          "type": "address"
        }
      ],
      "name": "isApprovedForAll",
      "outputs": [
        {
          "internalType": "bool",
          "name": "",
          "type": "bool"
        }
      ],
      "stateMutability": "view",
      "type": "function"
    },
    {
      "inputs": [
        {
          "internalType": "uint256",
          "name": "count",
          "type": "uint256"
        }
      ],
      "name": "mint",
      "outputs": [
        {
          "internalType": "uint256[]",
          "name": "tokenIds",
          "type": "uint256[]"
        }
      ],
      "stateMutability": "nonpayable",
      "type": "function"
    },
    {
      "inputs": [],
      "name": "name",
      "outputs": [
        {
          "internalType": "string",
          "name": "",
          "type": "string"
        }
      ],
      "stateMutability": "view",
      "type": "function"
    },
    {
      "inputs": [],
      "name": "nextTokenId",
      "outputs": [
        {
          "internalType": "uint256",
          "name": "",
          "type": "uint256"
        }
      ],
      "stateMutability": "view",
      "type": "function"
    },
    {
      "inputs": [
        {
          "internalType": "uint256",
          "name": "tokenId",
          "type": "uint256"
        }
      ],
      "name": "ownerOf",
      "outputs": [
        {
          "internalType": "address",
          "name": "",
          "type": "address"
        }
      ],
      "stateMutability": "view",
      "type": "function"
    },
    {
      "inputs": [
        {
          "internalType": "uint256",
          "name": "_tokenId",
          "type": "uint256"
        },
        {
          "internalType": "uint256",
          "name": "_salePrice",
          "type": "uint256"
        }
      ],
      "name": "royaltyInfo",
      "outputs": [
        {
          "internalType": "address",
          "name": "",
          "type": "address"
        },
        {
          "internalType": "uint256",
          "name": "",
          "type": "uint256"
        }
      ],
      "stateMutability": "view",
      "type": "function"
    },
    {
      "inputs": [
        {
          "internalType": "address",
          "name": "from",
          "type": "address"
        },
        {
          "internalType": "address",
          "name": "to",
          "type": "address"
        },
        {
          "internalType": "uint256",
          "name": "tokenId",
          "type": "uint256"
        }
      ],
      "name": "safeTransferFrom",
      "outputs": [],
      "stateMutability": "nonpayable",
      "type": "function"
    },
    {
      "inputs": [
        {
          "internalType": "address",
          "name": "from",
          "type": "address"
        },
        {
          "internalType": "address",
          "name": "to",
          "type": "address"
        },
        {
          "internalType": "uint256",
          "name": "tokenId",
          "type": "uint256"
        },
        {
          "internalType": "bytes",
          "name": "_data",
          "type": "bytes"
        }
      ],
      "name": "safeTransferFrom",
      "outputs": [],
      "stateMutability": "nonpayable",
      "type": "function"
    },
    {
      "inputs": [
        {
          "internalType": "address",
          "name": "operator",
          "type": "address"
        },
        {
          "internalType": "bool",
          "name": "approved",
          "type": "bool"
        }
      ],
      "name": "setApprovalForAll",
      "outputs": [],
      "stateMutability": "nonpayable",
      "type": "function"
    },
    {
      "inputs": [
        {
          "internalType": "bytes4",
          "name": "interfaceId",
          "type": "bytes4"
        }
      ],
      "name": "supportsInterface",
      "outputs": [
        {
          "internalType": "bool",
          "name": "",
          "type": "bool"
        }
      ],
      "stateMutability": "view",
      "type": "function"
    },
    {
      "inputs": [],
      "name": "symbol",
      "outputs": [
        {
          "internalType": "string",
          "name": "",
          "type": "string"
        }
      ],
      "stateMutability": "view",
      "type": "function"
    },
    {
      "inputs": [
        {
          "internalType": "uint256",
          "name": "tokenId",
          "type": "uint256"
        }
      ],
      "name": "tokenURI",
      "outputs": [
        {
          "internalType": "string",
          "name": "",
          "type": "string"
        }
      ],
      "stateMutability": "view",
      "type": "function"
    },
    {
      "inputs": [
        {
          "internalType": "address",
          "name": "from",
          "type": "address"
        },
        {
          "internalType": "address",
          "name": "to",
          "type": "address"
        },
        {
          "internalType": "uint256",
          "name": "tokenId",
          "type": "uint256"
        }
      ],
      "name": "transferFrom",
      "outputs": [],
      "stateMutability": "nonpayable",
      "type": "function"
    }
  ],
  "transactionHash": "0x5b2baa9545d24c006ba85dad2b8b61c6c41cd761c3e63f3db6cd08fc0625cdb8",
  "args": [
    "BoredApe",
    "BoredApe"
  ],
  "numDeployments": 4,
  "solcInputHash": "9c1505b2f1b28f5e8585a9fff56e3101",
  "bytecode": "0x60806040523480156200001157600080fd5b5060405162001b6a38038062001b6a833981016040819052620000349162000244565b818160026200004483826200033d565b5060036200005382826200033d565b5050506200006a336101f46200007260201b60201c565b505062000409565b6127106001600160601b0382161115620000e65760405162461bcd60e51b815260206004820152602a60248201527f455243323938313a20726f79616c7479206665652077696c6c206578636565646044820152692073616c65507269636560b01b60648201526084015b60405180910390fd5b6001600160a01b0382166200013e5760405162461bcd60e51b815260206004820152601960248201527f455243323938313a20696e76616c6964207265636569766572000000000000006044820152606401620000dd565b604080518082019091526001600160a01b039092168083526001600160601b039091166020909201829052600160a01b90910217600055565b634e487b7160e01b600052604160045260246000fd5b600082601f8301126200019f57600080fd5b81516001600160401b0380821115620001bc57620001bc62000177565b604051601f8301601f19908116603f01168101908282118183101715620001e757620001e762000177565b816040528381526020925086838588010111156200020457600080fd5b600091505b8382101562000228578582018301518183018401529082019062000209565b838211156200023a5760008385830101525b9695505050505050565b600080604083850312156200025857600080fd5b82516001600160401b03808211156200027057600080fd5b6200027e868387016200018d565b935060208501519150808211156200029557600080fd5b50620002a4858286016200018d565b9150509250929050565b600181811c90821680620002c357607f821691505b602082108103620002e457634e487b7160e01b600052602260045260246000fd5b50919050565b601f8211156200033857600081815260208120601f850160051c81016020861015620003135750805b601f850160051c820191505b8181101562000334578281556001016200031f565b5050505b505050565b81516001600160401b0381111562000359576200035962000177565b62000371816200036a8454620002ae565b84620002ea565b602080601f831160018114620003a95760008415620003905750858301515b600019600386901b1c1916600185901b17855562000334565b600085815260208120601f198616915b82811015620003da57888601518255948401946001909101908401620003b9565b5085821015620003f95787850151600019600388901b60f8161c191681555b5050505050600190811b01905550565b61175180620004196000396000f3fe608060405234801561001057600080fd5b50600436106101005760003560e01c806370a0823111610097578063a22cb46511610066578063a22cb4651461023f578063b88d4fde14610252578063c87b56dd14610265578063e985e9c51461027857600080fd5b806370a08231146101ed57806375794a3c1461020e57806395d89b4114610217578063a0712d681461021f57600080fd5b806323b872dd116100d357806323b872dd146101825780632a55205a1461019557806342842e0e146101c75780636352211e146101da57600080fd5b806301ffc9a71461010557806306fdde031461012d578063081812fc14610142578063095ea7b31461016d575b600080fd5b6101186101133660046112ac565b6102b4565b60405190151581526020015b60405180910390f35b6101356102c5565b6040516101249190611321565b610155610150366004611334565b610357565b6040516001600160a01b039091168152602001610124565b61018061017b366004611369565b6103f1565b005b610180610190366004611393565b610506565b6101a86101a33660046113cf565b61058d565b604080516001600160a01b039093168352602083019190915201610124565b6101806101d5366004611393565b610648565b6101556101e8366004611334565b610663565b6102006101fb3660046113f1565b6106ee565b604051908152602001610124565b61020060085481565b610135610788565b61023261022d366004611334565b610797565b604051610124919061140c565b61018061024d366004611450565b610842565b6101806102603660046114a2565b610851565b610135610273366004611334565b6108df565b61011861028636600461157e565b6001600160a01b03918216600090815260076020908152604080832093909416825291909152205460ff1690565b60006102bf826109d5565b92915050565b6060600280546102d4906115b1565b80601f0160208091040260200160405190810160405280929190818152602001828054610300906115b1565b801561034d5780601f106103225761010080835404028352916020019161034d565b820191906000526020600020905b81548152906001019060200180831161033057829003601f168201915b5050505050905090565b6000818152600460205260408120546001600160a01b03166103d55760405162461bcd60e51b815260206004820152602c60248201527f4552433732313a20617070726f76656420717565727920666f72206e6f6e657860448201526b34b9ba32b73a103a37b5b2b760a11b60648201526084015b60405180910390fd5b506000908152600660205260409020546001600160a01b031690565b60006103fc82610663565b9050806001600160a01b0316836001600160a01b0316036104695760405162461bcd60e51b815260206004820152602160248201527f4552433732313a20617070726f76616c20746f2063757272656e74206f776e656044820152603960f91b60648201526084016103cc565b336001600160a01b038216148061048557506104858133610286565b6104f75760405162461bcd60e51b815260206004820152603860248201527f4552433732313a20617070726f76652063616c6c6572206973206e6f74206f7760448201527f6e6572206e6f7220617070726f76656420666f7220616c6c000000000000000060648201526084016103cc565b6105018383610a15565b505050565b6105103382610a90565b6105825760405162461bcd60e51b815260206004820152603160248201527f4552433732313a207472616e736665722063616c6c6572206973206e6f74206f60448201527f776e6572206e6f7220617070726f76656400000000000000000000000000000060648201526084016103cc565b610501838383610b87565b60008281526001602090815260408083208151808301909252546001600160a01b038116808352600160a01b9091046bffffffffffffffffffffffff1692820192909252829161060c5750604080518082019091526000546001600160a01b0381168252600160a01b90046bffffffffffffffffffffffff1660208201525b602081015160009061271090610630906bffffffffffffffffffffffff1687611601565b61063a9190611636565b915196919550909350505050565b61050183838360405180602001604052806000815250610851565b6000818152600460205260408120546001600160a01b0316806102bf5760405162461bcd60e51b815260206004820152602960248201527f4552433732313a206f776e657220717565727920666f72206e6f6e657869737460448201527f656e7420746f6b656e000000000000000000000000000000000000000000000060648201526084016103cc565b60006001600160a01b03821661076c5760405162461bcd60e51b815260206004820152602a60248201527f4552433732313a2062616c616e636520717565727920666f7220746865207a6560448201527f726f20616464726573730000000000000000000000000000000000000000000060648201526084016103cc565b506001600160a01b031660009081526005602052604090205490565b6060600380546102d4906115b1565b6008546060908267ffffffffffffffff8111156107b6576107b661148c565b6040519080825280602002602001820160405280156107df578160200160208202803683370190505b50915060005b83811015610839576000826107f98161164a565b935090508084838151811061081057610810611663565b6020026020010181815250506108263382610d48565b50806108318161164a565b9150506107e5565b50600855919050565b61084d338383610e97565b5050565b61085b3383610a90565b6108cd5760405162461bcd60e51b815260206004820152603160248201527f4552433732313a207472616e736665722063616c6c6572206973206e6f74206f60448201527f776e6572206e6f7220617070726f76656400000000000000000000000000000060648201526084016103cc565b6108d984848484610f65565b50505050565b6000818152600460205260409020546060906001600160a01b031661096c5760405162461bcd60e51b815260206004820152602f60248201527f4552433732314d657461646174613a2055524920717565727920666f72206e6f60448201527f6e6578697374656e7420746f6b656e000000000000000000000000000000000060648201526084016103cc565b600061098360408051602081019091526000815290565b905060008151116109a357604051806020016040528060008152506109ce565b806109ad84610fee565b6040516020016109be929190611679565b6040516020818303038152906040525b9392505050565b60006001600160e01b031982166380ac58cd60e01b1480610a0657506001600160e01b03198216635b5e139f60e01b145b806102bf57506102bf82611107565b6000818152600660205260409020805473ffffffffffffffffffffffffffffffffffffffff19166001600160a01b0384169081179091558190610a5782610663565b6001600160a01b03167f8c5be1e5ebec7d5bd14f71427d1e84f3dd0314c0f7b2291e5b200ac8c7c3b92560405160405180910390a45050565b6000818152600460205260408120546001600160a01b0316610b095760405162461bcd60e51b815260206004820152602c60248201527f4552433732313a206f70657261746f7220717565727920666f72206e6f6e657860448201526b34b9ba32b73a103a37b5b2b760a11b60648201526084016103cc565b6000610b1483610663565b9050806001600160a01b0316846001600160a01b03161480610b5b57506001600160a01b0380821660009081526007602090815260408083209388168352929052205460ff165b80610b7f5750836001600160a01b0316610b7484610357565b6001600160a01b0316145b949350505050565b826001600160a01b0316610b9a82610663565b6001600160a01b031614610c165760405162461bcd60e51b815260206004820152602560248201527f4552433732313a207472616e736665722066726f6d20696e636f72726563742060448201527f6f776e657200000000000000000000000000000000000000000000000000000060648201526084016103cc565b6001600160a01b038216610c785760405162461bcd60e51b8152602060048201526024808201527f4552433732313a207472616e7366657220746f20746865207a65726f206164646044820152637265737360e01b60648201526084016103cc565b610c83600082610a15565b6001600160a01b0383166000908152600560205260408120805460019290610cac9084906116a8565b90915550506001600160a01b0382166000908152600560205260408120805460019290610cda9084906116bf565b9091555050600081815260046020526040808220805473ffffffffffffffffffffffffffffffffffffffff19166001600160a01b0386811691821790925591518493918716917fddf252ad1be2c89b69c2b068fc378daa952ba7f163c4a11628f55a4df523b3ef91a4505050565b6001600160a01b038216610d9e5760405162461bcd60e51b815260206004820181905260248201527f4552433732313a206d696e7420746f20746865207a65726f206164647265737360448201526064016103cc565b6000818152600460205260409020546001600160a01b031615610e035760405162461bcd60e51b815260206004820152601c60248201527f4552433732313a20746f6b656e20616c7265616479206d696e7465640000000060448201526064016103cc565b6001600160a01b0382166000908152600560205260408120805460019290610e2c9084906116bf565b9091555050600081815260046020526040808220805473ffffffffffffffffffffffffffffffffffffffff19166001600160a01b03861690811790915590518392907fddf252ad1be2c89b69c2b068fc378daa952ba7f163c4a11628f55a4df523b3ef908290a45050565b816001600160a01b0316836001600160a01b031603610ef85760405162461bcd60e51b815260206004820152601960248201527f4552433732313a20617070726f766520746f2063616c6c65720000000000000060448201526064016103cc565b6001600160a01b03838116600081815260076020908152604080832094871680845294825291829020805460ff191686151590811790915591519182527f17307eab39ab6107e8899845ad3d59bd9653f200f220920489ca2b5937696c31910160405180910390a3505050565b610f70848484610b87565b610f7c8484848461113c565b6108d95760405162461bcd60e51b815260206004820152603260248201527f4552433732313a207472616e7366657220746f206e6f6e20455243373231526560448201527f63656976657220696d706c656d656e746572000000000000000000000000000060648201526084016103cc565b6060816000036110155750506040805180820190915260018152600360fc1b602082015290565b8160005b811561103f57806110298161164a565b91506110389050600a83611636565b9150611019565b60008167ffffffffffffffff81111561105a5761105a61148c565b6040519080825280601f01601f191660200182016040528015611084576020820181803683370190505b5090505b8415610b7f576110996001836116a8565b91506110a6600a866116d7565b6110b19060306116bf565b60f81b8183815181106110c6576110c6611663565b60200101907effffffffffffffffffffffffffffffffffffffffffffffffffffffffffffff1916908160001a905350611100600a86611636565b9450611088565b60006001600160e01b0319821663152a902d60e11b14806102bf57506301ffc9a760e01b6001600160e01b03198316146102bf565b60006001600160a01b0384163b1561128857604051630a85bd0160e11b81526001600160a01b0385169063150b7a02906111809033908990889088906004016116eb565b6020604051808303816000875af19250505080156111bb575060408051601f3d908101601f191682019092526111b891810190611727565b60015b61126e573d8080156111e9576040519150601f19603f3d011682016040523d82523d6000602084013e6111ee565b606091505b5080516000036112665760405162461bcd60e51b815260206004820152603260248201527f4552433732313a207472616e7366657220746f206e6f6e20455243373231526560448201527f63656976657220696d706c656d656e746572000000000000000000000000000060648201526084016103cc565b805181602001fd5b6001600160e01b031916630a85bd0160e11b149050610b7f565b506001949350505050565b6001600160e01b0319811681146112a957600080fd5b50565b6000602082840312156112be57600080fd5b81356109ce81611293565b60005b838110156112e45781810151838201526020016112cc565b838111156108d95750506000910152565b6000815180845261130d8160208601602086016112c9565b601f01601f19169290920160200192915050565b6020815260006109ce60208301846112f5565b60006020828403121561134657600080fd5b5035919050565b80356001600160a01b038116811461136457600080fd5b919050565b6000806040838503121561137c57600080fd5b6113858361134d565b946020939093013593505050565b6000806000606084860312156113a857600080fd5b6113b18461134d565b92506113bf6020850161134d565b9150604084013590509250925092565b600080604083850312156113e257600080fd5b50508035926020909101359150565b60006020828403121561140357600080fd5b6109ce8261134d565b6020808252825182820181905260009190848201906040850190845b8181101561144457835183529284019291840191600101611428565b50909695505050505050565b6000806040838503121561146357600080fd5b61146c8361134d565b91506020830135801515811461148157600080fd5b809150509250929050565b634e487b7160e01b600052604160045260246000fd5b600080600080608085870312156114b857600080fd5b6114c18561134d565b93506114cf6020860161134d565b925060408501359150606085013567ffffffffffffffff808211156114f357600080fd5b818701915087601f83011261150757600080fd5b8135818111156115195761151961148c565b604051601f8201601f19908116603f011681019083821181831017156115415761154161148c565b816040528281528a602084870101111561155a57600080fd5b82602086016020830137600060208483010152809550505050505092959194509250565b6000806040838503121561159157600080fd5b61159a8361134d565b91506115a86020840161134d565b90509250929050565b600181811c908216806115c557607f821691505b6020821081036115e557634e487b7160e01b600052602260045260246000fd5b50919050565b634e487b7160e01b600052601160045260246000fd5b600081600019048311821515161561161b5761161b6115eb565b500290565b634e487b7160e01b600052601260045260246000fd5b60008261164557611645611620565b500490565b60006001820161165c5761165c6115eb565b5060010190565b634e487b7160e01b600052603260045260246000fd5b6000835161168b8184602088016112c9565b83519083019061169f8183602088016112c9565b01949350505050565b6000828210156116ba576116ba6115eb565b500390565b600082198211156116d2576116d26115eb565b500190565b6000826116e6576116e6611620565b500690565b60006001600160a01b0380871683528086166020840152508360408301526080606083015261171d60808301846112f5565b9695505050505050565b60006020828403121561173957600080fd5b81516109ce8161129356fea164736f6c634300080f000a",
  "devdoc": {
    "kind": "dev",
    "methods": {
      "approve(address,uint256)": {
        "details": "See {IERC721-approve}."
      },
      "balanceOf(address)": {
        "details": "See {IERC721-balanceOf}."
      },
      "getApproved(uint256)": {
        "details": "See {IERC721-getApproved}."
      },
      "isApprovedForAll(address,address)": {
        "details": "See {IERC721-isApprovedForAll}."
      },
      "name()": {
        "details": "See {IERC721Metadata-name}."
      },
      "ownerOf(uint256)": {
        "details": "See {IERC721-ownerOf}."
      },
      "royaltyInfo(uint256,uint256)": {
        "details": "Returns how much royalty is owed and to whom, based on a sale price that may be denominated in any unit of exchange. The royalty amount is denominated and should be paid in that same unit of exchange."
      },
      "safeTransferFrom(address,address,uint256)": {
        "details": "See {IERC721-safeTransferFrom}."
      },
      "safeTransferFrom(address,address,uint256,bytes)": {
        "details": "See {IERC721-safeTransferFrom}."
      },
      "setApprovalForAll(address,bool)": {
        "details": "See {IERC721-setApprovalForAll}."
      },
      "supportsInterface(bytes4)": {
        "details": "See {IERC165-supportsInterface}."
      },
      "symbol()": {
        "details": "See {IERC721Metadata-symbol}."
      },
      "tokenURI(uint256)": {
        "details": "See {IERC721Metadata-tokenURI}."
      },
      "transferFrom(address,address,uint256)": {
        "details": "See {IERC721-transferFrom}."
      }
    },
    "version": 1
  },
  "userdoc": {
    "kind": "user",
    "methods": {},
    "version": 1
  },
  "storageLayout": {
    "storage": [
      {
        "astId": 1108,
        "contract": "src/mocks/MockRoyaltyNFT.sol:MockRoyaltyNFT",
        "label": "_defaultRoyaltyInfo",
        "offset": 0,
        "slot": "0",
        "type": "t_struct(RoyaltyInfo)1105_storage"
      },
      {
        "astId": 1113,
        "contract": "src/mocks/MockRoyaltyNFT.sol:MockRoyaltyNFT",
        "label": "_tokenRoyaltyInfo",
        "offset": 0,
        "slot": "1",
        "type": "t_mapping(t_uint256,t_struct(RoyaltyInfo)1105_storage)"
      },
      {
        "astId": 44,
        "contract": "src/mocks/MockRoyaltyNFT.sol:MockRoyaltyNFT",
        "label": "_name",
        "offset": 0,
        "slot": "2",
        "type": "t_string_storage"
      },
      {
        "astId": 46,
        "contract": "src/mocks/MockRoyaltyNFT.sol:MockRoyaltyNFT",
        "label": "_symbol",
        "offset": 0,
        "slot": "3",
        "type": "t_string_storage"
      },
      {
        "astId": 50,
        "contract": "src/mocks/MockRoyaltyNFT.sol:MockRoyaltyNFT",
        "label": "_owners",
        "offset": 0,
        "slot": "4",
        "type": "t_mapping(t_uint256,t_address)"
      },
      {
        "astId": 54,
        "contract": "src/mocks/MockRoyaltyNFT.sol:MockRoyaltyNFT",
        "label": "_balances",
        "offset": 0,
        "slot": "5",
        "type": "t_mapping(t_address,t_uint256)"
      },
      {
        "astId": 58,
        "contract": "src/mocks/MockRoyaltyNFT.sol:MockRoyaltyNFT",
        "label": "_tokenApprovals",
        "offset": 0,
        "slot": "6",
        "type": "t_mapping(t_uint256,t_address)"
      },
      {
        "astId": 64,
        "contract": "src/mocks/MockRoyaltyNFT.sol:MockRoyaltyNFT",
        "label": "_operatorApprovals",
        "offset": 0,
        "slot": "7",
        "type": "t_mapping(t_address,t_mapping(t_address,t_bool))"
      },
      {
        "astId": 1854,
        "contract": "src/mocks/MockRoyaltyNFT.sol:MockRoyaltyNFT",
        "label": "nextTokenId",
        "offset": 0,
        "slot": "8",
        "type": "t_uint256"
      }
    ],
    "types": {
      "t_address": {
        "encoding": "inplace",
        "label": "address",
        "numberOfBytes": "20"
      },
      "t_bool": {
        "encoding": "inplace",
        "label": "bool",
        "numberOfBytes": "1"
      },
      "t_mapping(t_address,t_bool)": {
        "encoding": "mapping",
        "key": "t_address",
        "label": "mapping(address => bool)",
        "numberOfBytes": "32",
        "value": "t_bool"
      },
      "t_mapping(t_address,t_mapping(t_address,t_bool))": {
        "encoding": "mapping",
        "key": "t_address",
        "label": "mapping(address => mapping(address => bool))",
        "numberOfBytes": "32",
        "value": "t_mapping(t_address,t_bool)"
      },
      "t_mapping(t_address,t_uint256)": {
        "encoding": "mapping",
        "key": "t_address",
        "label": "mapping(address => uint256)",
        "numberOfBytes": "32",
        "value": "t_uint256"
      },
      "t_mapping(t_uint256,t_address)": {
        "encoding": "mapping",
        "key": "t_uint256",
        "label": "mapping(uint256 => address)",
        "numberOfBytes": "32",
        "value": "t_address"
      },
      "t_mapping(t_uint256,t_struct(RoyaltyInfo)1105_storage)": {
        "encoding": "mapping",
        "key": "t_uint256",
        "label": "mapping(uint256 => struct ERC2981.RoyaltyInfo)",
        "numberOfBytes": "32",
        "value": "t_struct(RoyaltyInfo)1105_storage"
      },
      "t_string_storage": {
        "encoding": "bytes",
        "label": "string",
        "numberOfBytes": "32"
      },
      "t_struct(RoyaltyInfo)1105_storage": {
        "encoding": "inplace",
        "label": "struct ERC2981.RoyaltyInfo",
        "members": [
          {
            "astId": 1102,
            "contract": "src/mocks/MockRoyaltyNFT.sol:MockRoyaltyNFT",
            "label": "receiver",
            "offset": 0,
            "slot": "0",
            "type": "t_address"
          },
          {
            "astId": 1104,
            "contract": "src/mocks/MockRoyaltyNFT.sol:MockRoyaltyNFT",
            "label": "royaltyFraction",
            "offset": 20,
            "slot": "0",
            "type": "t_uint96"
          }
        ],
        "numberOfBytes": "32"
      },
      "t_uint256": {
        "encoding": "inplace",
        "label": "uint256",
        "numberOfBytes": "32"
      },
      "t_uint96": {
        "encoding": "inplace",
        "label": "uint96",
        "numberOfBytes": "12"
      }
    }
  }
}