{
  "address": "0xF8ac4aE079DB547D0f4e7f145E0AdFc79B9a7eD2",
  "abi": [
    {
      "inputs": [
        {
          "internalType": "contract INFTXVaultFactory",
          "name": "nftxVaultFactory_",
          "type": "address"
        },
        {
          "internalType": "contract IERC20",
          "name": "WETH_",
          "type": "address"
        }
      ],
      "stateMutability": "nonpayable",
      "type": "constructor"
    },
    {
      "inputs": [],
      "name": "WETH",
      "outputs": [
        {
          "internalType": "contract IERC20",
          "name": "",
          "type": "address"
        }
      ],
      "stateMutability": "view",
      "type": "function"
    },
    {
      "inputs": [
        {
          "internalType": "uint256",
          "name": "vaultId",
          "type": "uint256"
        }
      ],
      "name": "deployXTokenForVault",
      "outputs": [],
      "stateMutability": "nonpayable",
      "type": "function"
    },
    {
      "inputs": [],
      "name": "nftxVaultFactory",
      "outputs": [
        {
          "internalType": "contract INFTXVaultFactory",
          "name": "",
          "type": "address"
        }
      ],
      "stateMutability": "view",
      "type": "function"
    },
    {
      "inputs": [
        {
          "internalType": "uint256",
          "name": "",
          "type": "uint256"
        },
        {
          "internalType": "uint256",
          "name": "wethAmount",
          "type": "uint256"
        }
      ],
      "name": "receiveRewards",
      "outputs": [
        {
          "internalType": "bool",
          "name": "",
          "type": "bool"
        }
      ],
      "stateMutability": "nonpayable",
      "type": "function"
    }
  ],
  "transactionHash": "0x32d12461feee5edadd37921c4e95777b7ecf726f4db99701e2f0249187fd6e64",
  "args": [
    "0x666738678c6FbdE71bb7Ca7B4DD1d41AFF218d7F",
    "0x18Def0E9754385eC1C91e176585f1eb1fd7265f5"
  ],
  "numDeployments": 1,
  "solcInputHash": "bec004d9b1b2142a40b20f41be4e23d6",
  "bytecode": "0x60a060405234801561001057600080fd5b506040516102e13803806102e183398101604081905261002f9161006c565b600080546001600160a01b0319166001600160a01b03938416179055166080526100a6565b6001600160a01b038116811461006957600080fd5b50565b6000806040838503121561007f57600080fd5b825161008a81610054565b602084015190925061009b81610054565b809150509250929050565b60805161021a6100c76000396000818160a0015261011d015261021a6000f3fe608060405234801561001057600080fd5b506004361061004c5760003560e01c80633801daf114610051578063ad5c46481461009b578063f0f2a4d7146100c2578063f36d52da146100d5575b600080fd5b6000546100719073ffffffffffffffffffffffffffffffffffffffff1681565b60405173ffffffffffffffffffffffffffffffffffffffff90911681526020015b60405180910390f35b6100717f000000000000000000000000000000000000000000000000000000000000000081565b6100d36100d03660046101a9565b50565b005b6100e86100e33660046101c2565b6100f8565b6040519015158152602001610092565b6040516323b872dd60e01b8152336004820152306024820152604481018290526000907f000000000000000000000000000000000000000000000000000000000000000073ffffffffffffffffffffffffffffffffffffffff16906323b872dd906064016020604051808303816000875af115801561017b573d6000803e3d6000fd5b505050506040513d601f19601f8201168201806040525081019061019f91906101e4565b5060019392505050565b6000602082840312156101bb57600080fd5b5035919050565b600080604083850312156101d557600080fd5b50508035926020909101359150565b6000602082840312156101f657600080fd5b8151801515811461020657600080fd5b939250505056fea164736f6c634300080f000a",
  "devdoc": {
    "kind": "dev",
    "methods": {},
    "version": 1
  },
  "userdoc": {
    "kind": "user",
    "methods": {},
    "version": 1
  },
  "storageLayout": {
    "storage": [
      {
        "astId": 6421,
        "contract": "src/mocks/MockInventoryStakingV3.sol:MockInventoryStakingV3",
        "label": "nftxVaultFactory",
        "offset": 0,
        "slot": "0",
        "type": "t_contract(INFTXVaultFactory)30536"
      }
    ],
    "types": {
      "t_contract(INFTXVaultFactory)30536": {
        "encoding": "inplace",
        "label": "contract INFTXVaultFactory",
        "numberOfBytes": "20"
      }
    }
  }
}