{
  "address": "0xb6fAC511aDCaF4c228eaD5224FedAfec585A0c31",
  "abi": [
    {
      "inputs": [
        {
          "internalType": "contract IWETH9",
          "name": "WETH_",
          "type": "address"
        }
      ],
      "stateMutability": "nonpayable",
      "type": "constructor"
    },
    {
      "inputs": [],
      "name": "AmountExceedsMaxFlashLoan",
      "type": "error"
    },
    {
      "inputs": [],
      "name": "ApproveFromZeroAddress",
      "type": "error"
    },
    {
      "inputs": [],
      "name": "ApproveToZeroAddress",
      "type": "error"
    },
    {
      "inputs": [],
      "name": "BurnAmountExceedsBalance",
      "type": "error"
    },
    {
      "inputs": [],
      "name": "BurnFromZeroAddress",
      "type": "error"
    },
    {
      "inputs": [],
      "name": "CallerIsNotTheOwner",
      "type": "error"
    },
    {
      "inputs": [],
      "name": "DecreasedAllowanceBelowZero",
      "type": "error"
    },
    {
      "inputs": [],
      "name": "EligibilityAlreadySet",
      "type": "error"
    },
    {
      "inputs": [],
      "name": "InsufficientAllowance",
      "type": "error"
    },
    {
      "inputs": [],
      "name": "InsufficientETHSent",
      "type": "error"
    },
    {
      "inputs": [],
      "name": "InvalidReturnValue",
      "type": "error"
    },
    {
      "inputs": [],
      "name": "MintToZeroAddress",
      "type": "error"
    },
    {
      "inputs": [],
      "name": "MintingDisabled",
      "type": "error"
    },
    {
      "inputs": [],
      "name": "NFTAlreadyOwned",
      "type": "error"
    },
    {
      "inputs": [],
      "name": "NewOwnerIsZeroAddress",
      "type": "error"
    },
    {
      "inputs": [],
      "name": "NotEligible",
      "type": "error"
    },
    {
      "inputs": [],
      "name": "NotManager",
      "type": "error"
    },
    {
      "inputs": [],
      "name": "NotNFTOwner",
      "type": "error"
    },
    {
      "inputs": [],
      "name": "NotOwner",
      "type": "error"
    },
    {
      "inputs": [],
      "name": "Paused",
      "type": "error"
    },
    {
      "inputs": [],
      "name": "TokenLengthMismatch",
      "type": "error"
    },
    {
      "inputs": [],
      "name": "TooManyItems",
      "type": "error"
    },
    {
      "inputs": [],
      "name": "TransferAmountExceedsBalance",
      "type": "error"
    },
    {
      "inputs": [],
      "name": "TransferAmountIsZero",
      "type": "error"
    },
    {
      "inputs": [],
      "name": "TransferFromZeroAddress",
      "type": "error"
    },
    {
      "inputs": [],
      "name": "TransferToZeroAddress",
      "type": "error"
    },
    {
      "inputs": [],
      "name": "UnableToSendETH",
      "type": "error"
    },
    {
      "inputs": [],
      "name": "WrongToken",
      "type": "error"
    },
    {
      "inputs": [],
      "name": "ZeroAddress",
      "type": "error"
    },
    {
      "anonymous": false,
      "inputs": [
        {
          "indexed": true,
          "internalType": "address",
          "name": "owner",
          "type": "address"
        },
        {
          "indexed": true,
          "internalType": "address",
          "name": "spender",
          "type": "address"
        },
        {
          "indexed": false,
          "internalType": "uint256",
          "name": "value",
          "type": "uint256"
        }
      ],
      "name": "Approval",
      "type": "event"
    },
    {
      "anonymous": false,
      "inputs": [
        {
          "indexed": false,
          "internalType": "uint256",
          "name": "moduleIndex",
          "type": "uint256"
        },
        {
          "indexed": false,
          "internalType": "address",
          "name": "eligibilityAddr",
          "type": "address"
        }
      ],
      "name": "EligibilityDeployed",
      "type": "event"
    },
    {
      "anonymous": false,
      "inputs": [
        {
          "indexed": false,
          "internalType": "bool",
          "name": "enabled",
          "type": "bool"
        }
      ],
      "name": "EnableMintUpdated",
      "type": "event"
    },
    {
      "anonymous": false,
      "inputs": [
        {
          "indexed": false,
          "internalType": "bool",
          "name": "enabled",
          "type": "bool"
        }
      ],
      "name": "EnableRedeemUpdated",
      "type": "event"
    },
    {
      "anonymous": false,
      "inputs": [
        {
          "indexed": false,
          "internalType": "bool",
          "name": "enabled",
          "type": "bool"
        }
      ],
      "name": "EnableSwapUpdated",
      "type": "event"
    },
    {
      "anonymous": false,
      "inputs": [
        {
          "indexed": false,
          "internalType": "uint8",
          "name": "version",
          "type": "uint8"
        }
      ],
      "name": "Initialized",
      "type": "event"
    },
    {
      "anonymous": false,
      "inputs": [
        {
          "indexed": false,
          "internalType": "address",
          "name": "manager",
          "type": "address"
        }
      ],
      "name": "ManagerSet",
      "type": "event"
    },
    {
      "anonymous": false,
      "inputs": [
        {
          "indexed": false,
          "internalType": "string",
          "name": "name",
          "type": "string"
        },
        {
          "indexed": false,
          "internalType": "string",
          "name": "symbol",
          "type": "string"
        }
      ],
      "name": "MetadataUpdated",
      "type": "event"
    },
    {
      "anonymous": false,
      "inputs": [
        {
          "indexed": false,
          "internalType": "uint256[]",
          "name": "nftIds",
          "type": "uint256[]"
        },
        {
          "indexed": false,
          "internalType": "uint256[]",
          "name": "amounts",
          "type": "uint256[]"
        },
        {
          "indexed": false,
          "internalType": "address",
          "name": "to",
          "type": "address"
        }
      ],
      "name": "Minted",
      "type": "event"
    },
    {
      "anonymous": false,
      "inputs": [
        {
          "indexed": true,
          "internalType": "address",
          "name": "previousOwner",
          "type": "address"
        },
        {
          "indexed": true,
          "internalType": "address",
          "name": "newOwner",
          "type": "address"
        }
      ],
      "name": "OwnershipTransferred",
      "type": "event"
    },
    {
      "anonymous": false,
      "inputs": [
        {
          "indexed": false,
          "internalType": "address",
          "name": "depositor",
          "type": "address"
        },
        {
          "indexed": false,
          "internalType": "uint256",
          "name": "wethPremium",
          "type": "uint256"
        }
      ],
      "name": "PremiumShared",
      "type": "event"
    },
    {
      "anonymous": false,
      "inputs": [
        {
          "indexed": false,
          "internalType": "uint256[]",
          "name": "specificIds",
          "type": "uint256[]"
        },
        {
          "indexed": false,
          "internalType": "address",
          "name": "to",
          "type": "address"
        }
      ],
      "name": "Redeemed",
      "type": "event"
    },
    {
      "anonymous": false,
      "inputs": [
        {
          "indexed": false,
          "internalType": "uint256[]",
          "name": "nftIds",
          "type": "uint256[]"
        },
        {
          "indexed": false,
          "internalType": "uint256[]",
          "name": "amounts",
          "type": "uint256[]"
        },
        {
          "indexed": false,
          "internalType": "uint256[]",
          "name": "specificIds",
          "type": "uint256[]"
        },
        {
          "indexed": false,
          "internalType": "address",
          "name": "to",
          "type": "address"
        }
      ],
      "name": "Swapped",
      "type": "event"
    },
    {
      "anonymous": false,
      "inputs": [
        {
          "indexed": true,
          "internalType": "address",
          "name": "from",
          "type": "address"
        },
        {
          "indexed": true,
          "internalType": "address",
          "name": "to",
          "type": "address"
        },
        {
          "indexed": false,
          "internalType": "uint256",
          "name": "value",
          "type": "uint256"
        }
      ],
      "name": "Transfer",
      "type": "event"
    },
    {
      "anonymous": false,
      "inputs": [
        {
          "indexed": true,
          "internalType": "uint256",
          "name": "vaultId",
          "type": "uint256"
        },
        {
          "indexed": false,
          "internalType": "address",
          "name": "assetAddress",
          "type": "address"
        },
        {
          "indexed": false,
          "internalType": "bool",
          "name": "is1155",
          "type": "bool"
        },
        {
          "indexed": false,
          "internalType": "bool",
          "name": "allowAllItems",
          "type": "bool"
        }
      ],
      "name": "VaultInit",
      "type": "event"
    },
    {
      "anonymous": false,
      "inputs": [
        {
          "indexed": false,
          "internalType": "address",
          "name": "assetAddress",
          "type": "address"
        },
        {
          "indexed": false,
          "internalType": "uint256",
          "name": "numItems",
          "type": "uint256"
        },
        {
          "indexed": false,
          "internalType": "address",
          "name": "recipient",
          "type": "address"
        }
      ],
      "name": "VaultShutdown",
      "type": "event"
    },
    {
      "inputs": [],
      "name": "WETH",
      "outputs": [
        {
          "internalType": "contract IWETH9",
          "name": "",
          "type": "address"
        }
      ],
      "stateMutability": "view",
      "type": "function"
    },
    {
      "inputs": [
        {
          "internalType": "string",
          "name": "name_",
          "type": "string"
        },
        {
          "internalType": "string",
          "name": "symbol_",
          "type": "string"
        },
        {
          "internalType": "address",
          "name": "assetAddress_",
          "type": "address"
        },
        {
          "internalType": "bool",
          "name": "is1155_",
          "type": "bool"
        },
        {
          "internalType": "bool",
          "name": "allowAllItems_",
          "type": "bool"
        }
      ],
      "name": "__NFTXVault_init",
      "outputs": [],
      "stateMutability": "nonpayable",
      "type": "function"
    },
    {
      "inputs": [],
      "name": "allHoldings",
      "outputs": [
        {
          "internalType": "uint256[]",
          "name": "",
          "type": "uint256[]"
        }
      ],
      "stateMutability": "view",
      "type": "function"
    },
    {
      "inputs": [
        {
          "internalType": "uint256[]",
          "name": "tokenIds",
          "type": "uint256[]"
        }
      ],
      "name": "allValidNFTs",
      "outputs": [
        {
          "internalType": "bool",
          "name": "",
          "type": "bool"
        }
      ],
      "stateMutability": "view",
      "type": "function"
    },
    {
      "inputs": [],
      "name": "allowAllItems",
      "outputs": [
        {
          "internalType": "bool",
          "name": "",
          "type": "bool"
        }
      ],
      "stateMutability": "view",
      "type": "function"
    },
    {
      "inputs": [
        {
          "internalType": "address",
          "name": "owner",
          "type": "address"
        },
        {
          "internalType": "address",
          "name": "spender",
          "type": "address"
        }
      ],
      "name": "allowance",
      "outputs": [
        {
          "internalType": "uint256",
          "name": "",
          "type": "uint256"
        }
      ],
      "stateMutability": "view",
      "type": "function"
    },
    {
      "inputs": [
        {
          "internalType": "address",
          "name": "spender",
          "type": "address"
        },
        {
          "internalType": "uint256",
          "name": "amount",
          "type": "uint256"
        }
      ],
      "name": "approve",
      "outputs": [
        {
          "internalType": "bool",
          "name": "",
          "type": "bool"
        }
      ],
      "stateMutability": "nonpayable",
      "type": "function"
    },
    {
      "inputs": [],
      "name": "assetAddress",
      "outputs": [
        {
          "internalType": "address",
          "name": "",
          "type": "address"
        }
      ],
      "stateMutability": "view",
      "type": "function"
    },
    {
      "inputs": [
        {
          "internalType": "address",
          "name": "account",
          "type": "address"
        }
      ],
      "name": "balanceOf",
      "outputs": [
        {
          "internalType": "uint256",
          "name": "",
          "type": "uint256"
        }
      ],
      "stateMutability": "view",
      "type": "function"
    },
    {
      "inputs": [],
      "name": "decimals",
      "outputs": [
        {
          "internalType": "uint8",
          "name": "",
          "type": "uint8"
        }
      ],
      "stateMutability": "view",
      "type": "function"
    },
    {
      "inputs": [
        {
          "internalType": "address",
          "name": "spender",
          "type": "address"
        },
        {
          "internalType": "uint256",
          "name": "subtractedValue",
          "type": "uint256"
        }
      ],
      "name": "decreaseAllowance",
      "outputs": [
        {
          "internalType": "bool",
          "name": "",
          "type": "bool"
        }
      ],
      "stateMutability": "nonpayable",
      "type": "function"
    },
    {
      "inputs": [
        {
          "internalType": "uint256",
          "name": "moduleIndex",
          "type": "uint256"
        },
        {
          "internalType": "bytes",
          "name": "initData",
          "type": "bytes"
        }
      ],
      "name": "deployEligibilityStorage",
      "outputs": [
        {
          "internalType": "address",
          "name": "",
          "type": "address"
        }
      ],
      "stateMutability": "nonpayable",
      "type": "function"
    },
    {
      "inputs": [
        {
          "internalType": "uint256",
          "name": "",
          "type": "uint256"
        },
        {
          "internalType": "uint256",
          "name": "",
          "type": "uint256"
        }
      ],
      "name": "depositInfo1155",
      "outputs": [
        {
          "internalType": "uint256",
          "name": "qty",
          "type": "uint256"
        },
        {
          "internalType": "address",
          "name": "depositor",
          "type": "address"
        },
        {
          "internalType": "uint48",
          "name": "timestamp",
          "type": "uint48"
        }
      ],
      "stateMutability": "view",
      "type": "function"
    },
    {
      "inputs": [
        {
          "internalType": "uint256",
          "name": "tokenId",
          "type": "uint256"
        }
      ],
      "name": "depositInfo1155Length",
      "outputs": [
        {
          "internalType": "uint256",
          "name": "",
          "type": "uint256"
        }
      ],
      "stateMutability": "view",
      "type": "function"
    },
    {
      "inputs": [],
      "name": "disableVaultFees",
      "outputs": [],
      "stateMutability": "nonpayable",
      "type": "function"
    },
    {
      "inputs": [],
      "name": "eligibilityStorage",
      "outputs": [
        {
          "internalType": "contract INFTXEligibility",
          "name": "",
          "type": "address"
        }
      ],
      "stateMutability": "view",
      "type": "function"
    },
    {
      "inputs": [],
      "name": "enableMint",
      "outputs": [
        {
          "internalType": "bool",
          "name": "",
          "type": "bool"
        }
      ],
      "stateMutability": "view",
      "type": "function"
    },
    {
      "inputs": [],
      "name": "finalizeVault",
      "outputs": [],
      "stateMutability": "nonpayable",
      "type": "function"
    },
    {
      "inputs": [
        {
          "internalType": "address",
          "name": "token",
          "type": "address"
        },
        {
          "internalType": "uint256",
          "name": "amount",
          "type": "uint256"
        }
      ],
      "name": "flashFee",
      "outputs": [
        {
          "internalType": "uint256",
          "name": "",
          "type": "uint256"
        }
      ],
      "stateMutability": "view",
      "type": "function"
    },
    {
      "inputs": [
        {
          "internalType": "contract IERC3156FlashBorrowerUpgradeable",
          "name": "receiver",
          "type": "address"
        },
        {
          "internalType": "address",
          "name": "token",
          "type": "address"
        },
        {
          "internalType": "uint256",
          "name": "amount",
          "type": "uint256"
        },
        {
          "internalType": "bytes",
          "name": "data",
          "type": "bytes"
        }
      ],
      "name": "flashLoan",
      "outputs": [
        {
          "internalType": "bool",
          "name": "",
          "type": "bool"
        }
      ],
      "stateMutability": "nonpayable",
      "type": "function"
    },
    {
      "inputs": [
        {
          "internalType": "uint256",
          "name": "tokenId",
          "type": "uint256"
        },
        {
          "internalType": "uint256",
          "name": "amount",
          "type": "uint256"
        }
      ],
      "name": "getVTokenPremium1155",
      "outputs": [
        {
          "internalType": "uint256",
          "name": "netPremium",
          "type": "uint256"
        },
        {
          "internalType": "uint256[]",
          "name": "premiums",
          "type": "uint256[]"
        },
        {
          "internalType": "address[]",
          "name": "depositors",
          "type": "address[]"
        }
      ],
      "stateMutability": "view",
      "type": "function"
    },
    {
      "inputs": [
        {
          "internalType": "uint256",
          "name": "tokenId",
          "type": "uint256"
        }
      ],
      "name": "getVTokenPremium721",
      "outputs": [
        {
          "internalType": "uint256",
          "name": "premium",
          "type": "uint256"
        },
        {
          "internalType": "address",
          "name": "depositor",
          "type": "address"
        }
      ],
      "stateMutability": "view",
      "type": "function"
    },
    {
      "inputs": [
        {
          "internalType": "address",
          "name": "spender",
          "type": "address"
        },
        {
          "internalType": "uint256",
          "name": "addedValue",
          "type": "uint256"
        }
      ],
      "name": "increaseAllowance",
      "outputs": [
        {
          "internalType": "bool",
          "name": "",
          "type": "bool"
        }
      ],
      "stateMutability": "nonpayable",
      "type": "function"
    },
    {
      "inputs": [],
      "name": "is1155",
      "outputs": [
        {
          "internalType": "bool",
          "name": "",
          "type": "bool"
        }
      ],
      "stateMutability": "view",
      "type": "function"
    },
    {
      "inputs": [],
      "name": "manager",
      "outputs": [
        {
          "internalType": "address",
          "name": "",
          "type": "address"
        }
      ],
      "stateMutability": "view",
      "type": "function"
    },
    {
      "inputs": [
        {
          "internalType": "address",
          "name": "token",
          "type": "address"
        }
      ],
      "name": "maxFlashLoan",
      "outputs": [
        {
          "internalType": "uint256",
          "name": "",
          "type": "uint256"
        }
      ],
      "stateMutability": "view",
      "type": "function"
    },
    {
      "inputs": [
        {
          "internalType": "uint256[]",
          "name": "tokenIds",
          "type": "uint256[]"
        },
        {
          "internalType": "uint256[]",
          "name": "amounts",
          "type": "uint256[]"
        },
        {
          "internalType": "address",
          "name": "depositor",
          "type": "address"
        },
        {
          "internalType": "address",
          "name": "to",
          "type": "address"
        }
      ],
      "name": "mint",
      "outputs": [
        {
          "internalType": "uint256",
          "name": "vTokensMinted",
          "type": "uint256"
        }
      ],
      "stateMutability": "payable",
      "type": "function"
    },
    {
      "inputs": [],
      "name": "name",
      "outputs": [
        {
          "internalType": "string",
          "name": "",
          "type": "string"
        }
      ],
      "stateMutability": "view",
      "type": "function"
    },
    {
      "inputs": [
        {
          "internalType": "uint256",
          "name": "holdingsIndex",
          "type": "uint256"
        }
      ],
      "name": "nftIdAt",
      "outputs": [
        {
          "internalType": "uint256",
          "name": "",
          "type": "uint256"
        }
      ],
      "stateMutability": "view",
      "type": "function"
    },
    {
      "inputs": [
        {
          "internalType": "address",
          "name": "",
          "type": "address"
        },
        {
          "internalType": "address",
          "name": "",
          "type": "address"
        },
        {
          "internalType": "uint256[]",
          "name": "",
          "type": "uint256[]"
        },
        {
          "internalType": "uint256[]",
          "name": "",
          "type": "uint256[]"
        },
        {
          "internalType": "bytes",
          "name": "",
          "type": "bytes"
        }
      ],
      "name": "onERC1155BatchReceived",
      "outputs": [
        {
          "internalType": "bytes4",
          "name": "",
          "type": "bytes4"
        }
      ],
      "stateMutability": "nonpayable",
      "type": "function"
    },
    {
      "inputs": [
        {
          "internalType": "address",
          "name": "",
          "type": "address"
        },
        {
          "internalType": "address",
          "name": "",
          "type": "address"
        },
        {
          "internalType": "uint256",
          "name": "",
          "type": "uint256"
        },
        {
          "internalType": "uint256",
          "name": "",
          "type": "uint256"
        },
        {
          "internalType": "bytes",
          "name": "",
          "type": "bytes"
        }
      ],
      "name": "onERC1155Received",
      "outputs": [
        {
          "internalType": "bytes4",
          "name": "",
          "type": "bytes4"
        }
      ],
      "stateMutability": "nonpayable",
      "type": "function"
    },
    {
      "inputs": [
        {
          "internalType": "address",
          "name": "",
          "type": "address"
        },
        {
          "internalType": "address",
          "name": "",
          "type": "address"
        },
        {
          "internalType": "uint256",
          "name": "",
          "type": "uint256"
        },
        {
          "internalType": "bytes",
          "name": "",
          "type": "bytes"
        }
      ],
      "name": "onERC721Received",
      "outputs": [
        {
          "internalType": "bytes4",
          "name": "",
          "type": "bytes4"
        }
      ],
      "stateMutability": "nonpayable",
      "type": "function"
    },
    {
      "inputs": [],
      "name": "owner",
      "outputs": [
        {
          "internalType": "address",
          "name": "",
          "type": "address"
        }
      ],
      "stateMutability": "view",
      "type": "function"
    },
    {
      "inputs": [
        {
          "internalType": "uint256",
          "name": "",
          "type": "uint256"
        }
      ],
      "name": "pointerIndex1155",
      "outputs": [
        {
          "internalType": "uint256",
          "name": "",
          "type": "uint256"
        }
      ],
      "stateMutability": "view",
      "type": "function"
    },
    {
      "inputs": [
        {
          "internalType": "uint256[]",
          "name": "idsOut",
          "type": "uint256[]"
        },
        {
          "internalType": "address",
          "name": "to",
          "type": "address"
        },
        {
          "internalType": "uint256",
          "name": "wethAmount",
          "type": "uint256"
        },
        {
          "internalType": "bool",
          "name": "forceFees",
          "type": "bool"
        }
      ],
      "name": "redeem",
      "outputs": [
        {
          "internalType": "uint256",
          "name": "ethFees",
          "type": "uint256"
        }
      ],
      "stateMutability": "payable",
      "type": "function"
    },
    {
      "inputs": [],
      "name": "renounceOwnership",
      "outputs": [],
      "stateMutability": "nonpayable",
      "type": "function"
    },
    {
      "inputs": [
        {
          "internalType": "enum INFTXVaultV3.TokenType",
          "name": "tt",
          "type": "uint8"
        },
        {
          "internalType": "address",
          "name": "token",
          "type": "address"
        },
        {
          "internalType": "uint256[]",
          "name": "ids",
          "type": "uint256[]"
        },
        {
          "internalType": "uint256[]",
          "name": "amounts",
          "type": "uint256[]"
        }
      ],
      "name": "rescueTokens",
      "outputs": [],
      "stateMutability": "nonpayable",
      "type": "function"
    },
    {
      "inputs": [
        {
          "internalType": "uint256",
          "name": "mintFee_",
          "type": "uint256"
        },
        {
          "internalType": "uint256",
          "name": "redeemFee_",
          "type": "uint256"
        },
        {
          "internalType": "uint256",
          "name": "swapFee_",
          "type": "uint256"
        }
      ],
      "name": "setFees",
      "outputs": [],
      "stateMutability": "nonpayable",
      "type": "function"
    },
    {
      "inputs": [
        {
          "internalType": "address",
          "name": "manager_",
          "type": "address"
        }
      ],
      "name": "setManager",
      "outputs": [],
      "stateMutability": "nonpayable",
      "type": "function"
    },
    {
      "inputs": [
        {
          "internalType": "bool",
          "name": "enableMint_",
          "type": "bool"
        },
        {
          "internalType": "bool",
          "name": "enableRedeem_",
          "type": "bool"
        },
        {
          "internalType": "bool",
          "name": "enableSwap_",
          "type": "bool"
        }
      ],
      "name": "setVaultFeatures",
      "outputs": [],
      "stateMutability": "nonpayable",
      "type": "function"
    },
    {
      "inputs": [
        {
          "internalType": "string",
          "name": "name_",
          "type": "string"
        },
        {
          "internalType": "string",
          "name": "symbol_",
          "type": "string"
        }
      ],
      "name": "setVaultMetadata",
      "outputs": [],
      "stateMutability": "nonpayable",
      "type": "function"
    },
    {
      "inputs": [
        {
          "internalType": "address",
          "name": "recipient",
          "type": "address"
        }
      ],
      "name": "shutdown",
      "outputs": [],
      "stateMutability": "nonpayable",
      "type": "function"
    },
    {
      "inputs": [
        {
          "internalType": "bytes4",
          "name": "interfaceId",
          "type": "bytes4"
        }
      ],
      "name": "supportsInterface",
      "outputs": [
        {
          "internalType": "bool",
          "name": "",
          "type": "bool"
        }
      ],
      "stateMutability": "view",
      "type": "function"
    },
    {
      "inputs": [
        {
          "internalType": "uint256[]",
          "name": "idsIn",
          "type": "uint256[]"
        },
        {
          "internalType": "uint256[]",
          "name": "amounts",
          "type": "uint256[]"
        },
        {
          "internalType": "uint256[]",
          "name": "idsOut",
          "type": "uint256[]"
        },
        {
          "internalType": "address",
          "name": "depositor",
          "type": "address"
        },
        {
          "internalType": "address",
          "name": "to",
          "type": "address"
        },
        {
          "internalType": "bool",
          "name": "forceFees",
          "type": "bool"
        }
      ],
      "name": "swap",
      "outputs": [
        {
          "internalType": "uint256",
          "name": "ethFees",
          "type": "uint256"
        }
      ],
      "stateMutability": "payable",
      "type": "function"
    },
    {
      "inputs": [],
      "name": "symbol",
      "outputs": [
        {
          "internalType": "string",
          "name": "",
          "type": "string"
        }
      ],
      "stateMutability": "view",
      "type": "function"
    },
    {
      "inputs": [
        {
          "internalType": "uint256",
          "name": "",
          "type": "uint256"
        }
      ],
      "name": "tokenDepositInfo",
      "outputs": [
        {
          "internalType": "uint48",
          "name": "timestamp",
          "type": "uint48"
        },
        {
          "internalType": "address",
          "name": "depositor",
          "type": "address"
        }
      ],
      "stateMutability": "view",
      "type": "function"
    },
    {
      "inputs": [],
      "name": "totalHoldings",
      "outputs": [
        {
          "internalType": "uint256",
          "name": "",
          "type": "uint256"
        }
      ],
      "stateMutability": "view",
      "type": "function"
    },
    {
      "inputs": [],
      "name": "totalSupply",
      "outputs": [
        {
          "internalType": "uint256",
          "name": "",
          "type": "uint256"
        }
      ],
      "stateMutability": "view",
      "type": "function"
    },
    {
      "inputs": [
        {
          "internalType": "address",
          "name": "to",
          "type": "address"
        },
        {
          "internalType": "uint256",
          "name": "amount",
          "type": "uint256"
        }
      ],
      "name": "transfer",
      "outputs": [
        {
          "internalType": "bool",
          "name": "",
          "type": "bool"
        }
      ],
      "stateMutability": "nonpayable",
      "type": "function"
    },
    {
      "inputs": [
        {
          "internalType": "address",
          "name": "from",
          "type": "address"
        },
        {
          "internalType": "address",
          "name": "to",
          "type": "address"
        },
        {
          "internalType": "uint256",
          "name": "amount",
          "type": "uint256"
        }
      ],
      "name": "transferFrom",
      "outputs": [
        {
          "internalType": "bool",
          "name": "",
          "type": "bool"
        }
      ],
      "stateMutability": "nonpayable",
      "type": "function"
    },
    {
      "inputs": [
        {
          "internalType": "address",
          "name": "newOwner",
          "type": "address"
        }
      ],
      "name": "transferOwnership",
      "outputs": [],
      "stateMutability": "nonpayable",
      "type": "function"
    },
    {
      "inputs": [
        {
          "internalType": "uint256",
          "name": "vTokenAmount",
          "type": "uint256"
        }
      ],
      "name": "vTokenToETH",
      "outputs": [
        {
          "internalType": "uint256",
          "name": "ethAmount",
          "type": "uint256"
        }
      ],
      "stateMutability": "view",
      "type": "function"
    },
    {
      "inputs": [],
      "name": "vaultFactory",
      "outputs": [
        {
          "internalType": "contract INFTXVaultFactoryV3",
          "name": "",
          "type": "address"
        }
      ],
      "stateMutability": "view",
      "type": "function"
    },
    {
      "inputs": [],
      "name": "vaultFees",
      "outputs": [
        {
          "internalType": "uint256",
          "name": "mintFee",
          "type": "uint256"
        },
        {
          "internalType": "uint256",
          "name": "redeemFee",
          "type": "uint256"
        },
        {
          "internalType": "uint256",
          "name": "swapFee",
          "type": "uint256"
        }
      ],
      "stateMutability": "view",
      "type": "function"
    },
    {
      "inputs": [],
      "name": "vaultId",
      "outputs": [
        {
          "internalType": "uint256",
          "name": "",
          "type": "uint256"
        }
      ],
      "stateMutability": "view",
      "type": "function"
    },
    {
      "inputs": [],
      "name": "version",
      "outputs": [
        {
          "internalType": "string",
          "name": "",
          "type": "string"
        }
      ],
      "stateMutability": "pure",
      "type": "function"
    }
  ],
  "transactionHash": "0x4d605f5b8698ab5d79db47253d21a4b86c4218c49c2a0f4c3a1358a17377bfc2",
  "args": [
    "0xB4FBF271143F4FBf7B91A5ded31805e42b2208d6"
  ],
  "numDeployments": 1,
  "solcInputHash": "5efe60dbe6a8e5e56a0c9506835a27d0",
  "bytecode": "0x60a06040523480156200001157600080fd5b5060405162005d3d38038062005d3d833981016040819052620000349162000046565b6001600160a01b031660805262000078565b6000602082840312156200005957600080fd5b81516001600160a01b03811681146200007157600080fd5b9392505050565b608051615c78620000c56000396000818161092c01528181612d6d01528181612e020152818161322701528181613814015281816138ad0152818161392e0152613a910152615c786000f3fe60806040526004361061036a5760003560e01c806372188e3f116101c6578063c3cb8c14116100f7578063e0a8b97a11610095578063f1d20dd41161006f578063f1d20dd414610b1e578063f23a6e6114610b3e578063f2fde38b14610b6a578063f69094f414610b8a57600080fd5b8063e0a8b97a14610ac9578063e78458c414610ae9578063e9ec2e9914610b0957600080fd5b8063d0ebdbe7116100d1578063d0ebdbe714610a22578063d8a06f7314610a42578063d9d98ce414610a63578063dd62ed3e14610a8357600080fd5b8063c3cb8c14146109cd578063cce2f3fb146109e2578063cec10c1114610a0257600080fd5b8063a457c2d711610164578063af1c5bbd1161013e578063af1c5bbd1461094e578063b8517b781461096e578063b97653151461098e578063bc197c81146109a157600080fd5b8063a457c2d7146108da578063a9059cbb146108fa578063ad5c46481461091a57600080fd5b80638f878a43116101a05780638f878a431461082b57806395d89b411461084c5780639c51554614610861578063a1db8493146108ac57600080fd5b806372188e3f146107a05780638bb41c27146107d05780638da5cb5b1461080d57600080fd5b806339509351116102a05780635877aee61161023e578063659a1fe811610218578063659a1fe8146107205780636b948a351461073357806370a0823114610755578063715018a61461078b57600080fd5b80635877aee6146106c05780635cffe9de146106e0578063613255ab1461070057600080fd5b806345a0b6521161027a57806345a0b6521461062b578063481c6a751461064b57806354f78d7f1461067157806354fd4d501461069157600080fd5b806339509351146105bb57806341c5c764146105db57806344b28d591461060957600080fd5b806318160ddd1161030d57806323b872dd116102e757806323b872dd1461054657806325705d8d14610566578063313ce5671461058857806333194c0a146105a457600080fd5b806318160ddd14610480578063184990391461049f5780631ba46cfd1461050d57600080fd5b806306fdde031161034957806306fdde03146103d6578063095ea7b3146103f8578063114f8aa114610418578063150b7a021461044757600080fd5b80625181611461036f57806301ffc9a71461038657806306f26dc2146103bb575b600080fd5b34801561037b57600080fd5b50610384610b9d565b005b34801561039257600080fd5b506103a66103a1366004614c88565b610c10565b60405190151581526020015b60405180910390f35b3480156103c757600080fd5b506101c6546103a69060ff1681565b3480156103e257600080fd5b506103eb610c47565b6040516103b29190614d0a565b34801561040457600080fd5b506103a6610413366004614d32565b610cd9565b34801561042457600080fd5b50610438610433366004614d5e565b610cf1565b6040516103b293929190614dbb565b34801561045357600080fd5b50610467610462366004614ed4565b61105f565b6040516001600160e01b031990911681526020016103b2565b34801561048c57600080fd5b506067545b6040519081526020016103b2565b3480156104ab57600080fd5b506104e76104ba366004614f3f565b6101cb6020526000908152604090205465ffffffffffff811690600160301b90046001600160a01b031682565b6040805165ffffffffffff90931683526001600160a01b039091166020830152016103b2565b34801561051957600080fd5b506101c35461052e906001600160a01b031681565b6040516001600160a01b0390911681526020016103b2565b34801561055257600080fd5b506103a6610561366004614f58565b611070565b34801561057257600080fd5b5061057b611096565b6040516103b29190614f99565b34801561059457600080fd5b50604051601281526020016103b2565b3480156105b057600080fd5b506104916101c55481565b3480156105c757600080fd5b506103a66105d6366004614d32565b611138565b3480156105e757600080fd5b506104916105f6366004614f3f565b60009081526101cc602052604090205490565b34801561061557600080fd5b506101c7546103a690600160a81b900460ff1681565b34801561063757600080fd5b50610491610646366004614f3f565b611177565b34801561065757600080fd5b506101c65461052e9061010090046001600160a01b031681565b34801561067d57600080fd5b5061038461068c366004614fba565b611185565b34801561069d57600080fd5b50604080518082019091526006815265076332e302e360d41b60208201526103eb565b3480156106cc57600080fd5b5061052e6106db366004615046565b611252565b3480156106ec57600080fd5b506103a66106fb366004615091565b6113e0565b34801561070c57600080fd5b5061049161071b366004615103565b611405565b61049161072e366004615164565b61142d565b34801561073f57600080fd5b506101c7546103a690600160a01b900460ff1681565b34801561076157600080fd5b50610491610770366004615103565b6001600160a01b031660009081526065602052604090205490565b34801561079757600080fd5b50610384611528565b3480156107ac57600080fd5b506107b561153c565b604080519384526020840192909252908201526060016103b2565b3480156107dc57600080fd5b506107f06107eb366004614f3f565b6115bf565b604080519283526001600160a01b039091166020830152016103b2565b34801561081957600080fd5b506033546001600160a01b031661052e565b34801561083757600080fd5b506101c75461052e906001600160a01b031681565b34801561085857600080fd5b506103eb6116fb565b34801561086d57600080fd5b5061088161087c366004614d5e565b61170a565b604080519384526001600160a01b03909216602084015265ffffffffffff16908201526060016103b2565b3480156108b857600080fd5b506104916108c7366004614f3f565b6101cd6020526000908152604090205481565b3480156108e657600080fd5b506103a66108f5366004614d32565b611760565b34801561090657600080fd5b506103a6610915366004614d32565b6117c0565b34801561092657600080fd5b5061052e7f000000000000000000000000000000000000000000000000000000000000000081565b34801561095a57600080fd5b506103846109693660046151f8565b6117ce565b34801561097a57600080fd5b50610491610989366004614f3f565b6119ca565b61049161099c366004615290565b6119e4565b3480156109ad57600080fd5b506104676109bc3660046153d5565b63bc197c8160e01b95945050505050565b3480156109d957600080fd5b50610384611c29565b3480156109ee57600080fd5b506103846109fd366004615103565b611c3b565b348015610a0e57600080fd5b50610384610a1d366004615482565b611d1a565b348015610a2e57600080fd5b50610384610a3d366004615103565b611da0565b348015610a4e57600080fd5b506101c45461052e906001600160a01b031681565b348015610a6f57600080fd5b50610491610a7e366004614d32565b611e12565b348015610a8f57600080fd5b50610491610a9e3660046154ae565b6001600160a01b03918216600090815260666020908152604080832093909416825291909152205490565b348015610ad557600080fd5b50610384610ae43660046154e7565b611e44565b348015610af557600080fd5b50610384610b04366004615552565b611ebf565b348015610b1557600080fd5b5061049161218b565b348015610b2a57600080fd5b506103a6610b393660046155fa565b61219d565b348015610b4a57600080fd5b50610467610b5936600461562e565b63f23a6e6160e01b95945050505050565b348015610b7657600080fd5b50610384610b85366004615103565b612243565b610491610b98366004615696565b61227e565b610ba561243b565b6101c4546101c5546040516360c1795960e11b81526001600160a01b039092169163c182f2b291610bdc9160040190815260200190565b600060405180830381600087803b158015610bf657600080fd5b505af1158015610c0a573d6000803e3d6000fd5b50505050565b60006001600160e01b03198216630271189760e51b1480610c4157506301ffc9a760e01b6001600160e01b03198316145b92915050565b606060688054610c5690615709565b80601f0160208091040260200160405190810160405280929190818152602001828054610c8290615709565b8015610ccf5780601f10610ca457610100808354040283529160200191610ccf565b820191906000526020600020905b815481529060010190602001808311610cb257829003601f168201915b5050505050905090565b600033610ce78185856124ad565b5060019392505050565b600060608060008411610d0357600080fd5b836001600160401b03811115610d1b57610d1b614e1f565b604051908082528060200260200182016040528015610d44578160200160208202803683370190505b509150836001600160401b03811115610d5f57610d5f614e1f565b604051908082528060200260200182016040528015610d88578160200160208202803683370190505b5060008681526101cd60209081526040808320546101c45482516368d052e960e01b8152925195965090948594936001600160a01b03909216926368d052e99260048083019391928290030181865afa158015610de9573d6000803e3d6000fd5b505050506040513d601f19601f82011682018060405250810190610e0d919061573d565b905060006101c460009054906101000a90046001600160a01b03166001600160a01b0316631362ba226040518163ffffffff1660e01b8152600401602060405180830381865afa158015610e65573d6000803e3d6000fd5b505050506040513d601f19601f82011682018060405250810190610e89919061573d565b90505b60008981526101cc60205260408120805485908110610ead57610ead615756565b60009182526020918290206040805160608101825260029390930290910180548084526001909101546001600160a01b03811694840194909452600160a01b90930465ffffffffffff16908201529150891015610f8b57600089610f168360400151868661255c565b610f209190615782565b9050610f2c818a6157a1565b985080888681518110610f4157610f41615756565b6020026020010181815250508160200151878681518110610f6457610f64615756565b60200260200101906001600160a01b031690816001600160a01b031681525050505061102a565b8051610f97908a6157b9565b985060008160000151610faf8360400151868661255c565b610fb99190615782565b9050610fc5818a6157a1565b985080888681518110610fda57610fda615756565b6020026020010181815250508160200151878681518110610ffd57610ffd615756565b60200260200101906001600160a01b031690816001600160a01b0316815250508460010194505050610e8c565b600061103685856157b9565b6110419060016157a1565b90508651811015611053578087528086525b50505050509250925092565b630a85bd0160e11b5b949350505050565b60003361107e858285612571565b6110898585856125ce565b60019150505b9392505050565b606060006110a56101c86126c3565b90506000816001600160401b038111156110c1576110c1614e1f565b6040519080825280602002602001820160405280156110ea578160200160208202803683370190505b50905060005b82811015611131576111046101c8826126cd565b82828151811061111657611116615756565b602090810291909101015261112a816157d0565b90506110f0565b5092915050565b3360008181526066602090815260408083206001600160a01b0387168452909152812054909190610ce790829086906111729087906157a1565b6124ad565b6000610c416101c8836126cd565b61118d61243b565b6101c78054841515600160a81b0260ff60a81b199091161790556040517fc604be2f834727754dc1ec1225c14d1ecde48e7d12fa7b745dfb137a3db998bd906111db90851515815260200190565b60405180910390a160405182151581527f9cb1d0c0b8d946b3eb09abb16f0a2546f919a9bff8ced6d73c2a1a36a4ff95219060200160405180910390a160405181151581527f8f4dc19a0a35d805af4e9053cf101831ab5200b9b57fd5c953cee436833b892b9060200160405180910390a1505050565b600061125c61243b565b6101c7546001600160a01b031615611287576040516344a30fbf60e01b815260040160405180910390fd5b6101c45460408051630a63bfd560e11b815290516000926001600160a01b0316916314c77faa9160048083019260209291908290030181865afa1580156112d2573d6000803e3d6000fd5b505050506040513d601f19601f820116820180604052508101906112f691906157e9565b90506000816001600160a01b031663576ff9088787876040518463ffffffff1660e01b815260040161132a9392919061582f565b6020604051808303816000875af1158015611349573d6000803e3d6000fd5b505050506040513d601f19601f8201168201806040525081019061136d91906157e9565b6101c7805474ffffffffffffffffffffffffffffffffffffffffff19166001600160a01b0383169081179091556040805189815260208101929092529192507fe14c63b3d4272158635bee1d1b95b51bb8de042ee95a15cbfaf2865b4d0af811910160405180910390a195945050505050565b60006113ec60046126d9565b6113f9868686868661277c565b90505b95945050505050565b60006001600160a01b038216301461141e576000610c41565b606754610c41906000196157b9565b60006114376128dd565b61144160016126d9565b6101c754600160a81b900460ff1661146c5760405163af79b43760e01b815260040160405180910390fd5b600061147b8489898989612936565b905061148f81670de0b6b3a7640000615782565b915061149b8383612c22565b60006114a561153c565b50509050600082826114b79190615782565b905060006114c58234612cb4565b90506114d13482612edc565b7f1f72ad2a14447fa756b6f5aca53504645af79813493aca2d906b69e4aaeb94928b8b8b8b8a60405161150895949392919061587f565b60405180910390a15050505061151e600160c955565b9695505050505050565b611530612eff565b61153a6000612f2a565b565b6101c4546101c554604051632206137960e01b81526004810191909152600091829182916001600160a01b031690632206137990602401606060405180830381865afa158015611590573d6000803e3d6000fd5b505050506040513d601f19601f820116820180604052508101906115b491906158c2565b925092509250909192565b60008181526101cb6020908152604080832081518083018352905465ffffffffffff811682526001600160a01b03600160301b90910481168285018190526101c45484516368d052e960e01b8152945191959394879491909316926368d052e992600480830193928290030181865afa158015611640573d6000803e3d6000fd5b505050506040513d601f19601f82011682018060405250810190611664919061573d565b905060006101c460009054906101000a90046001600160a01b03166001600160a01b0316631362ba226040518163ffffffff1660e01b8152600401602060405180830381865afa1580156116bc573d6000803e3d6000fd5b505050506040513d601f19601f820116820180604052508101906116e0919061573d565b90506116f18360000151838361255c565b9450505050915091565b606060698054610c5690615709565b6101cc602052816000526040600020818154811061172757600080fd5b6000918252602090912060029091020180546001909101549092506001600160a01b0381169150600160a01b900465ffffffffffff1683565b3360008181526066602090815260408083206001600160a01b0387168452909152812054909190838110156117a85760405163189dd6af60e31b815260040160405180910390fd5b6117b582868684036124ad565b506001949350505050565b600033610ce78185856125ce565b6117d6612eff565b6101c3546001600160a01b03908116908616036117f257600080fd5b6000866002811115611806576118066158f0565b03611892576040516370a0823160e01b81523060048201526000906001600160a01b038716906370a0823190602401602060405180830381865afa158015611852573d6000803e3d6000fd5b505050506040513d601f19601f82011682018060405250810190611876919061573d565b905061188c6001600160a01b0387163383612f7c565b506119c2565b60018660028111156118a6576118a66158f0565b036119595760005b8381101561188c57856001600160a01b03166342842e0e30338888868181106118d9576118d9615756565b6040516001600160e01b031960e088901b1681526001600160a01b03958616600482015294909316602485015250602090910201356044820152606401600060405180830381600087803b15801561193057600080fd5b505af1158015611944573d6000803e3d6000fd5b5050505080611952906157d0565b90506118ae565b604051631759616b60e11b81526001600160a01b03861690632eb2c2d69061198f90309033908990899089908990600401615906565b600060405180830381600087803b1580156119a957600080fd5b505af11580156119bd573d6000803e3d6000fd5b505050505b505050505050565b6101c454600090611131906001600160a01b031683612fce565b60006119ee6128dd565b6119f860036126d9565b6101c65460009060ff1615611a875760005b8a811015611a8157898982818110611a2457611a24615756565b90506020020135600003611a4b5760405163c4c8a67760e01b815260040160405180910390fd5b898982818110611a5d57611a5d615756565b9050602002013582611a6f91906157a1565b9150611a7a816157d0565b9050611a0a565b50611a8a565b50885b808614611aaa576040516322d2bba960e21b815260040160405180910390fd5b506000611ab561153c565b925060009150611ac790508783615782565b6101c4549091506001600160a01b031660008580611b4a57506040516306df336560e51b81523360048201526001600160a01b0383169063dbe66ca090602401602060405180830381865afa158015611b24573d6000803e3d6000fd5b505050506040513d601f19601f82011682018060405250810190611b489190615965565b155b90506000806000611b928d8d808060200260200160405190810160405280939291908181526020018383602002808284376000920191909152508e9250889150899050613282565b9250925092508315611bb057611bad346001888686866136fe565b97505b50505050505050611bc4848b8b8b8b612936565b50611bcf3482612edc565b7fcf2fcb072d2992e835a4daadd1e6ebba9a675539a451596a6f594fdb61ba92248a8a8a8a8a8a89604051611c0a9796959493929190615982565b60405180910390a1611c1c600160c955565b9998505050505050505050565b611c3161243b565b61153a6000611da0565b611c43612eff565b6000670de0b6b3a7640000611c5760675490565b611c6191906159dc565b90506004811115611c855760405163d6ce581160e01b815260040160405180910390fd5b604080516000808252602082019092526101c4549091611cb191839186916001600160a01b0316613282565b50506101c354604080516001600160a01b03928316815260208101869052918616908201527f1f6d756c685d4969a551099165b59f836b4d2cc7e036e623f0248c28bff91db5915060600160405180910390a150506101c380546001600160a01b031916905550565b611d2261243b565b6101c4546101c554604051639814f40f60e01b815260048101919091526024810185905260448101849052606481018390526001600160a01b0390911690639814f40f90608401600060405180830381600087803b158015611d8357600080fd5b505af1158015611d97573d6000803e3d6000fd5b50505050505050565b611da861243b565b6101c6805474ffffffffffffffffffffffffffffffffffffffff0019166101006001600160a01b038416908102919091179091556040519081527f60a0f5b9f9e81e98216071b85826681c796256fe3d1354ecb675580fba64fa699060200160405180910390a150565b60006001600160a01b0383163014611e3d57604051635079ff7560e11b815260040160405180910390fd5b600061108f565b611e4c61243b565b610c0a84848080601f01602080910402602001604051908101604052809392919081815260200183838082843760009201919091525050604080516020601f88018190048102820181019092528681529250869150859081908401838280828437600092019190915250613bce92505050565b600054610100900460ff1615808015611edf5750600054600160ff909116105b80611ef95750303b158015611ef9575060005460ff166001145b611f615760405162461bcd60e51b815260206004820152602e60248201527f496e697469616c697a61626c653a20636f6e747261637420697320616c72656160448201526d191e481a5b9a5d1a585b1a5e995960921b60648201526084015b60405180910390fd5b6000805460ff191660011790558015611f84576000805461ff0019166101001790555b611f8c613c25565b611fff88888080601f01602080910402602001604051908101604052809392919081815260200183838082843760009201919091525050604080516020601f8c018190048102820181019092528a815292508a9150899081908401838280828437600092019190915250613c5492505050565b6001600160a01b0384166120265760405163d92e233d60e01b815260040160405180910390fd5b6101c380546001600160a01b03199081166001600160a01b038716179091556101c4805433921682179055604080516304c94c4160e31b8152905163264a6208916004808201926020929091908290030181865afa15801561208c573d6000803e3d6000fd5b505050506040513d601f19601f820116820180604052508101906120b0919061573d565b6101c58190556101c6805460ff19168515159081179091556101c7805460ff60a01b1916600160a01b86151590810291909117909155604080516001600160a01b038916815260208101939093528201527f18ecce5c418b882a3d89e5b6cc8100dc3383309b8e78525266fe1283a7f934d69060600160405180910390a261213b6001806001611185565b8015612181576000805461ff0019169055604051600181527f7f26b83ff96e1f2b6a682f133852f6798a09c465da95921460cefb38474024989060200160405180910390a15b5050505050505050565b60006121986101c86126c3565b905090565b6101c754600090600160a01b900460ff16156121bb57506001919050565b6101c7546001600160a01b0316806121d65750600092915050565b6040516384ca9f8560e01b81526001600160a01b038216906384ca9f8590612202908690600401614f99565b602060405180830381865afa15801561221f573d6000803e3d6000fd5b505050506040513d601f19601f8201168201806040525081019061108f9190615965565b61224b612eff565b6001600160a01b03811661227257604051633a247dd760e11b815260040160405180910390fd5b61227b81612f2a565b50565b60006122886128dd565b61229260026126d9565b600083156122ac5734156122a557600080fd5b50826122af565b50345b856122cb336122c683670de0b6b3a7640000615782565b613c85565b60006122d561153c565b509150600090506122e68383615782565b6101c4549091506001600160a01b03166000878061236957506040516306df336560e51b81523360048201526001600160a01b0383169063dbe66ca090602401602060405180830381865afa158015612343573d6000803e3d6000fd5b505050506040513d601f19601f820116820180604052508101906123679190615965565b155b905060008060006123bd8f8f80806020026020016040519081016040528093929190818152602001838360200280828437600081840152601f19601f820116905080830192505050505050508e8688613282565b92509250925083156123dd576123da8960003411888686866136fe565b99505b34156123ed576123ed348b612edc565b7fddf3c6319e89d061b877ebc529b0fd59410499b5bf683cffa46d5807dd13c6008f8f8f604051612420939291906159fe565b60405180910390a15050505050505050506113fc600160c955565b6101c65461010090046001600160a01b031661247c576033546001600160a01b0316331461153a576040516330cd747160e01b815260040160405180910390fd5b6101c65461010090046001600160a01b0316331461153a5760405163607e454560e11b815260040160405180910390fd5b6001600160a01b0383166124d45760405163eb3b083560e01b815260040160405180910390fd5b6001600160a01b0382166124fb5760405163076e33c360e31b815260040160405180910390fd5b6001600160a01b0383811660008181526066602090815260408083209487168084529482529182902085905590518481527f8c5be1e5ebec7d5bd14f71427d1e84f3dd0314c0f7b2291e5b200ac8c7c3b925910160405180910390a3505050565b60006110688465ffffffffffff168484613d46565b6001600160a01b038381166000908152606660209081526040808320938616835292905220546000198114610c0a57818110156125c1576040516313be252b60e01b815260040160405180910390fd5b610c0a84848484036124ad565b6001600160a01b0383166125f557604051630b07e54560e11b815260040160405180910390fd5b6001600160a01b03821661261c57604051633a954ecd60e21b815260040160405180910390fd5b6001600160a01b0383166000908152606560205260409020548181101561265657604051635dd58b8b60e01b815260040160405180910390fd5b6001600160a01b0380851660008181526065602052604080822086860390559286168082529083902080548601905591517fddf252ad1be2c89b69c2b068fc378daa952ba7f163c4a11628f55a4df523b3ef906126b69086815260200190565b60405180910390a3610c0a565b6000610c41825490565b600061108f8383613d9e565b6101c45460405163f6aacfb160e01b8152600481018390526001600160a01b039091169063f6aacfb190602401602060405180830381865afa158015612723573d6000803e3d6000fd5b505050506040513d601f19601f820116820180604052508101906127479190615965565b801561275e57506033546001600160a01b03163314155b1561227b576040516313d0ff5960e31b815260040160405180910390fd5b600061278785611405565b8411156127a757604051631b8e3c7960e11b815260040160405180910390fd5b60006127b38686611e12565b90506127bf8786612c22565b6040516323e30c8b60e01b81527f439148f0bbc682ca079e46d6e2c2f0c1e3b820f1a291b069d8882abf8cf18dd9906001600160a01b038916906323e30c8b906128179033908b908b9088908c908c90600401615a2b565b6020604051808303816000875af1158015612836573d6000803e3d6000fd5b505050506040513d601f19601f8201168201806040525081019061285a919061573d565b14612878576040516303a6a98b60e41b815260040160405180910390fd5b600061288e8830612889858a6157a1565b612571565b8115806128a257506001600160a01b038116155b156128ba576128b5886122c684896157a1565b6128cf565b6128c48887613c85565b6128cf8882846125ce565b506001979650505050505050565b600260c9540361292f5760405162461bcd60e51b815260206004820152601f60248201527f5265656e7472616e637947756172643a207265656e7472616e742063616c6c006044820152606401611f58565b600260c955565b600061297485858080602002602001604051908101604052809392919081815260200183836020028082843760009201919091525061219d92505050565b61299157604051637c75aa6f60e11b815260040160405180910390fd5b6101c65460ff16612a5d576101c3546001600160a01b031660005b85811015612a525760008787838181106129c8576129c8615756565b9050602002013590506129db8382613dc8565b6129e76101c882614128565b5060408051808201825265ffffffffffff42811682526001600160a01b03808d16602080850191825260009687526101cb905293909420915182549351909416600160301b026001600160d01b0319909316931692909217179055612a4b816157d0565b90506129ac565b508491506113fc9050565b6101c354604051631759616b60e11b81526001600160a01b0390911690632eb2c2d690612a9890339030908a908a908a908a90600401615906565b600060405180830381600087803b158015612ab257600080fd5b505af1158015612ac6573d6000803e3d6000fd5b505050506000805b85811015612c1a576000878783818110612aea57612aea615756565b9050602002013590506000868684818110612b0757612b07615756565b90506020020135905080600003612b315760405163c4c8a67760e01b815260040160405180910390fd5b60008281526101ca60205260408120549003612b5557612b536101c883614128565b505b60008281526101ca602052604081208054839290612b749084906157a1565b90915550612b84905081856157a1565b60009283526101cc6020908152604080852081516060810183529485526001600160a01b03808f1686850190815265ffffffffffff428116948801948552835460018181018655948a5295909820965160029095029096019384559451920180549151909516600160a01b026001600160d01b03199091169190931617919091179091559150612c13816157d0565b9050612ace565b5090506113fc565b6001600160a01b038216612c4857604051622e076360e81b815260040160405180910390fd5b8060676000828254612c5a91906157a1565b90915550506001600160a01b0382166000818152606560209081526040808320805486019055518481527fddf252ad1be2c89b69c2b068fc378daa952ba7f163c4a11628f55a4df523b3ef910160405180910390a35b5050565b6101c4546040516306df336560e51b81523360048201526000916001600160a01b031690819063dbe66ca090602401602060405180830381865afa158015612d00573d6000803e3d6000fd5b505050506040513d601f19601f82011682018060405250810190612d249190615965565b15612d33576000915050610c41565b6000612d3f8286612fce565b90935090508215612ed45782841015612d6b5760405163311c9fd160e01b815260040160405180910390fd5b7f00000000000000000000000000000000000000000000000000000000000000006001600160a01b031663d0e30db0846040518263ffffffff1660e01b81526004016000604051808303818588803b158015612dc657600080fd5b505af1158015612dda573d6000803e3d6000fd5b505060405163a9059cbb60e01b81526001600160a01b038581166004830152602482018890527f000000000000000000000000000000000000000000000000000000000000000016935063a9059cbb925060440190506020604051808303816000875af1158015612e4f573d6000803e3d6000fd5b505050506040513d601f19601f82011682018060405250810190612e739190615965565b506101c5546040516391c05b0b60e01b815260048101919091526001600160a01b038216906391c05b0b90602401600060405180830381600087803b158015612ebb57600080fd5b505af1158015612ecf573d6000803e3d6000fd5b505050505b505092915050565b6000612ee882846157b9565b90508015612efa57612efa3382614134565b505050565b6033546001600160a01b0316331461153a57604051633e8be92f60e01b815260040160405180910390fd5b603380546001600160a01b038381166001600160a01b0319831681179093556040519116919082907f8be0079c531659141344cd1fd0a4f28419497f9722a3daafe3b4186f6b6457e090600090a35050565b604080516001600160a01b038416602482015260448082018490528251808303909101815260649091019091526020810180516001600160e01b031663a9059cbb60e01b179052612efa9084906141a8565b600080836001600160a01b0316630d43e8ad6040518163ffffffff1660e01b8152600401602060405180830381865afa15801561300f573d6000803e3d6000fd5b505050506040513d601f19601f8201168201806040525081019061303391906157e9565b90506000816001600160a01b0316631eae8f916040518163ffffffff1660e01b8152600401602060405180830381865afa158015613075573d6000803e3d6000fd5b505050506040513d601f19601f8201168201806040525081019061309991906157e9565b9050600080826001600160a01b0316632a9c99e930866001600160a01b03166334c53b896040518163ffffffff1660e01b8152600401602060405180830381865afa1580156130ec573d6000803e3d6000fd5b505050506040513d601f19601f820116820180604052508101906131109190615a70565b6040516001600160e01b031960e085901b1681526001600160a01b03909216600483015262ffffff1660248201526044016040805180830381865afa15801561315d573d6000803e3d6000fd5b505050506040513d601f19601f820116820180604052508101906131819190615a95565b9150915080613196576000945050505061327b565b6101c45460405163d444a47d60e01b81526001600160a01b038481166004830152600092169063d444a47d90602401602060405180830381865afa1580156131e2573d6000803e3d6000fd5b505050506040513d601f19601f82011682018060405250810190613206919061573d565b90508060000361321d57600095505050505061327b565b6001600160a01b037f0000000000000000000000000000000000000000000000000000000000000000163010156132645761325d8782600160601b61427a565b9550613276565b61327387600160601b8361427a565b95505b505050505b9250929050565b6101c6546101c354600091606091829160ff16906001600160a01b0316848088156133fa57876001600160a01b03166368d052e96040518163ffffffff1660e01b8152600401602060405180830381865afa1580156132e5573d6000803e3d6000fd5b505050506040513d601f19601f82011682018060405250810190613309919061573d565b9150876001600160a01b0316631362ba226040518163ffffffff1660e01b8152600401602060405180830381865afa158015613349573d6000803e3d6000fd5b505050506040513d601f19601f8201168201806040525081019061336d919061573d565b90508a516001600160401b0381111561338857613388614e1f565b6040519080825280602002602001820160405280156133b1578160200160208202803683370190505b5095508a516001600160401b038111156133cd576133cd614e1f565b6040519080825280602002602001820160405280156133f6578160200160208202803683370190505b5094505b60005b8b518110156136e65760008c828151811061341a5761341a615756565b6020026020010151905085156136045760008181526101ca60205260409020546134456001826157b9565b60008381526101ca6020526040902055600181900361346c5761346a6101c88361432c565b505b604051637921219560e11b81523060048201526001600160a01b038e81166024830152604482018490526001606483015260a06084830152600060a483015287169063f242432a9060c401600060405180830381600087803b1580156134d157600080fd5b505af11580156134e5573d6000803e3d6000fd5b50505060008381526101cd60209081526040808320546101cc90925282208054919350908390811061351957613519615756565b6000918252602090912060029091020180549091506135396001826157b9565b825560018190036135605761354f8360016157a1565b60008681526101cd60205260409020555b8e156135fb57600182015460009061358890600160a01b900465ffffffffffff168a8a61255c565b9050613594818f6157a1565b9d50808d88815181106135a9576135a9615756565b602090810291909101015260018301548c516001600160a01b03909116908d90899081106135d9576135d9615756565b60200260200101906001600160a01b031690816001600160a01b031681525050505b505050506136d5565b8a156136bd5760008181526101cb6020908152604080832081518083019092525465ffffffffffff8116808352600160301b9091046001600160a01b031692820192909252919061365690878761255c565b9050613662818c6157a1565b9a50808a858151811061367757613677615756565b602002602001018181525050816020015189858151811061369a5761369a615756565b60200260200101906001600160a01b031690816001600160a01b03168152505050505b6136c96101c88261432c565b506136d5858d83614338565b506136df816157d0565b90506133fd565b506136f08b614519565b505050509450945094915050565b6101c4546000908190819061371c906001600160a01b031688612fce565b90925090508115613bc25760008087156137df578861373b8986615782565b61374591906159dc565b9150670de0b6b3a76400006101c460009054906101000a90046001600160a01b03166001600160a01b031663f3746ca96040518163ffffffff1660e01b8152600401602060405180830381865afa1580156137a4573d6000803e3d6000fd5b505050506040513d601f19601f820116820180604052508101906137c8919061573d565b6137d29084615782565b6137dc91906159dc565b90505b6137e982856157a1565b9450848b101561380c5760405163311c9fd160e01b815260040160405180910390fd5b891561388b577f00000000000000000000000000000000000000000000000000000000000000006001600160a01b031663d0e30db0866040518263ffffffff1660e01b81526004016000604051808303818588803b15801561386d57600080fd5b505af1158015613881573d6000803e3d6000fd5b5050505050613924565b6040516323b872dd60e01b8152336004820152306024820152604481018690527f00000000000000000000000000000000000000000000000000000000000000006001600160a01b0316906323b872dd906064016020604051808303816000875af11580156138fe573d6000803e3d6000fd5b505050506040513d601f19601f820116820180604052508101906139229190615965565b505b6001600160a01b037f00000000000000000000000000000000000000000000000000000000000000001663a9059cbb8461395e84896157b9565b6040516001600160e01b031960e085901b1681526001600160a01b03909216600483015260248201526044016020604051808303816000875af11580156139a9573d6000803e3d6000fd5b505050506040513d601f19601f820116820180604052508101906139cd9190615965565b506101c5546040516391c05b0b60e01b815260048101919091526001600160a01b038416906391c05b0b90602401600060405180830381600087803b158015613a1557600080fd5b505af1158015613a29573d6000803e3d6000fd5b5050505060005b8751811015613bbe576000888281518110613a4d57613a4d615756565b60200260200101511115613bb657600089898381518110613a7057613a70615756565b602002602001015184613a839190615782565b613a8d91906159dc565b90507f00000000000000000000000000000000000000000000000000000000000000006001600160a01b031663a9059cbb898481518110613ad057613ad0615756565b6020026020010151836040518363ffffffff1660e01b8152600401613b0a9291906001600160a01b03929092168252602082015260400190565b6020604051808303816000875af1158015613b29573d6000803e3d6000fd5b505050506040513d601f19601f82011682018060405250810190613b4d9190615965565b507f6145d458e7bea9ad415c7534924b89223228b66d9db99bd80f9889d213da059c888381518110613b8157613b81615756565b602002602001015182604051613bac9291906001600160a01b03929092168252602082015260400190565b60405180910390a1505b600101613a30565b5050505b50509695505050505050565b6068613bda8382615b0a565b506069613be78282615b0a565b507f30f5c4b652f95e2a697bda3258896c421eee4f29adce8fe38060f47f7aed91ad8282604051613c19929190615bc9565b60405180910390a15050565b600054610100900460ff16613c4c5760405162461bcd60e51b8152600401611f5890615bee565b61153a614589565b600054610100900460ff16613c7b5760405162461bcd60e51b8152600401611f5890615bee565b612cb082826145b9565b6001600160a01b038216613cac5760405163b817eee760e01b815260040160405180910390fd5b6001600160a01b03821660009081526065602052604090205481811015613ce657604051630bba337f60e11b815260040160405180910390fd5b6001600160a01b03831660008181526065602090815260408083208686039055606780548790039055518581529192917fddf252ad1be2c89b69c2b068fc378daa952ba7f163c4a11628f55a4df523b3ef910160405180910390a3505050565b600080613d5385426157b9565b90506000613d6185836145f9565b90506000613d71610e10866159dc565b86901c9050808210613d9157613d8781836157b9565b935050505061108f565b5060009695505050505050565b6000826000018281548110613db557613db5615756565b9060005260206000200154905092915050565b60606001600160a01b03831673b47e3cd837ddf8e4c57f05d70ab865de6e193bbb14801590613e1457506001600160a01b0383167306012c8cf97bead5deae237070f9587f8e7a266d14155b15613f09576101c3546040516331a9108f60e11b81526004810184905230916001600160a01b031690636352211e90602401602060405180830381865afa158015613e63573d6000803e3d6000fd5b505050506040513d601f19601f82011682018060405250810190613e8791906157e9565b6001600160a01b031603613ebf57613ea16101c883614686565b15612efa57604051631d1a087d60e31b815260040160405180910390fd5b6040513360248201523060448201526064810183905260840160408051601f198184030181529190526020810180516001600160e01b0316632142170760e11b17905290506140a6565b73b47e3cd837ddf8e4c57f05d70ab865de6e193bba196001600160a01b0384160161406057600082604051602401613f4391815260200190565b60408051601f198184030181529181526020820180516001600160e01b0316630b02f02d60e31b1790525190915060009081906001600160a01b03871690613f8c908590615c39565b600060405180830381855afa9150503d8060008114613fc7576040519150601f19603f3d011682016040523d82523d6000602084013e613fcc565b606091505b5091509150600081806020019051810190613fe791906157e9565b9050821580613fff57506001600160a01b0381163314155b1561401d57604051631022318760e21b815260040160405180910390fd5b6040516024810187905260440160408051601f198184030181529190526020810180516001600160e01b031663104c9fd360e31b17905294506140a69350505050565b6040513360248201523060448201526064810183905260840160408051601f198184030181529190526020810180516001600160e01b03166323b872dd60e01b17905290505b600080846001600160a01b0316836040516140c19190615c39565b6000604051808303816000865af19150503d80600081146140fe576040519150601f19603f3d011682016040523d82523d6000602084013e614103565b606091505b50915091508181906119c25760405162461bcd60e51b8152600401611f589190614d0a565b600061108f838361469e565b6000826001600160a01b03168260405160006040518083038185875af1925050503d8060008114614181576040519150601f19603f3d011682016040523d82523d6000602084013e614186565b606091505b5050905080612efa5760405163260e7d5b60e11b815260040160405180910390fd5b60006141fd826040518060400160405280602081526020017f5361666545524332303a206c6f772d6c6576656c2063616c6c206661696c6564815250856001600160a01b03166146ed9092919063ffffffff16565b805190915015612efa578080602001905181019061421b9190615965565b612efa5760405162461bcd60e51b815260206004820152602a60248201527f5361666545524332303a204552433230206f7065726174696f6e20646964206e6044820152691bdd081cdd58d8d9595960b21b6064820152608401611f58565b60008080600019858709858702925082811083820303915050806000036142b357600084116142a857600080fd5b50829004905061108f565b8084116142bf57600080fd5b6000848688096000868103871696879004966002600389028118808a02820302808a02820302808a02820302808a02820302808a02820302808a02909103029181900381900460010186841190950394909402919094039290920491909117919091029150509392505050565b600061108f83836146fc565b60606001600160a01b03841673b47e3cd837ddf8e4c57f05d70ab865de6e193bbb1480159061438457506001600160a01b0384167306012c8cf97bead5deae237070f9587f8e7a266d14155b156143dc576040513060248201526001600160a01b03841660448201526064810183905260840160408051601f198184030181529190526020810180516001600160e01b0316632142170760e11b1790529050614497565b73b47e3cd837ddf8e4c57f05d70ab865de6e193bba196001600160a01b0385160161444e576040516001600160a01b03841660248201526044810183905260640160408051601f198184030181529190526020810180516001600160e01b03166322dca8bb60e21b1790529050614497565b6040516001600160a01b03841660248201526044810183905260640160408051601f198184030181529190526020810180516001600160e01b031663a9059cbb60e01b17905290505b600080856001600160a01b0316836040516144b29190615c39565b6000604051808303816000865af19150503d80600081146144ef576040519150601f19603f3d011682016040523d82523d6000602084013e6144f4565b606091505b5091509150818190611d975760405162461bcd60e51b8152600401611f589190614d0a565b6101c7546001600160a01b03168061452f575050565b604051632f17cda960e11b81526001600160a01b03821690635e2f9b529061455b908590600401614f99565b600060405180830381600087803b15801561457557600080fd5b505af11580156119c2573d6000803e3d6000fd5b600054610100900460ff166145b05760405162461bcd60e51b8152600401611f5890615bee565b61153a33612f2a565b600054610100900460ff166145e05760405162461bcd60e51b8152600401611f5890615bee565b60686145ec8382615b0a565b506069612efa8282615b0a565b600080610e10614611670de0b6b3a764000085615782565b61461b91906159dc565b90506000614631670de0b6b3a7640000836159dc565b905084811c600061464a670de0b6b3a764000084615782565b61465490856157b9565b90506000670de0b6b3a764000061466e8362010000615782565b61467891906159dc565b90506000611c1c82856147ef565b6000818152600183016020526040812054151561108f565b60008181526001830160205260408120546146e557508154600181810184556000848152602080822090930184905584548482528286019093526040902091909155610c41565b506000610c41565b60606110688484600085614b0f565b600081815260018301602052604081205480156147e55760006147206001836157b9565b8554909150600090614734906001906157b9565b905081811461479957600086600001828154811061475457614754615756565b906000526020600020015490508087600001848154811061477757614777615756565b6000918252602080832090910192909255918252600188019052604090208390555b85548690806147aa576147aa615c55565b600190038181906000526020600020016000905590558560010160008681526020019081526020016000206000905560019350505050610c41565b6000915050610c41565b6000600183161561482257670de0b6b3a7640000614815670de0ad151d09418084615782565b61481f91906159dc565b91505b600283161561485357670de0b6b3a7640000614846670de0a3769959680084615782565b61485091906159dc565b91505b600483161561488457670de0b6b3a7640000614877670de09039a5fa510084615782565b61488191906159dc565b91505b60088316156148b557670de0b6b3a76400006148a8670de069c00f3e120084615782565b6148b291906159dc565b91505b60108316156148e657670de0b6b3a76400006148d9670de01cce21c9440084615782565b6148e391906159dc565b91505b602083161561491757670de0b6b3a764000061490a670ddf82ef46ce100084615782565b61491491906159dc565b91505b604083161561494857670de0b6b3a764000061493b670dde4f458f8e8d8084615782565b61494591906159dc565b91505b608083161561497957670de0b6b3a764000061496c670ddbe84213d5f08084615782565b61497691906159dc565b91505b6101008316156149ab57670de0b6b3a764000061499e670dd71b7aa6df5b8084615782565b6149a891906159dc565b91505b6102008316156149dd57670de0b6b3a76400006149d0670dcd86e7f28cde0084615782565b6149da91906159dc565b91505b610400831615614a0f57670de0b6b3a7640000614a02670dba71a3084ad68084615782565b614a0c91906159dc565b91505b610800831615614a4157670de0b6b3a7640000614a34670d94961b13dbde8084615782565b614a3e91906159dc565b91505b611000831615614a7357670de0b6b3a7640000614a66670d4a171c35c9838084615782565b614a7091906159dc565b91505b612000831615614aa557670de0b6b3a7640000614a98670cb9da519ccfb70084615782565b614aa291906159dc565b91505b614000831615614ad757670de0b6b3a7640000614aca670bab76d59c18d68084615782565b614ad491906159dc565b91505b618000831615614b0957670de0b6b3a7640000614afc6709d025defee4df8084615782565b614b0691906159dc565b91505b50919050565b606082471015614b705760405162461bcd60e51b815260206004820152602660248201527f416464726573733a20696e73756666696369656e742062616c616e636520666f6044820152651c8818d85b1b60d21b6064820152608401611f58565b600080866001600160a01b03168587604051614b8c9190615c39565b60006040518083038185875af1925050503d8060008114614bc9576040519150601f19603f3d011682016040523d82523d6000602084013e614bce565b606091505b5091509150614bdf87838387614bea565b979650505050505050565b60608315614c59578251600003614c52576001600160a01b0385163b614c525760405162461bcd60e51b815260206004820152601d60248201527f416464726573733a2063616c6c20746f206e6f6e2d636f6e74726163740000006044820152606401611f58565b5081611068565b6110688383815115614c6e5781518083602001fd5b8060405162461bcd60e51b8152600401611f589190614d0a565b600060208284031215614c9a57600080fd5b81356001600160e01b03198116811461108f57600080fd5b60005b83811015614ccd578181015183820152602001614cb5565b83811115610c0a5750506000910152565b60008151808452614cf6816020860160208601614cb2565b601f01601f19169290920160200192915050565b60208152600061108f6020830184614cde565b6001600160a01b038116811461227b57600080fd5b60008060408385031215614d4557600080fd5b8235614d5081614d1d565b946020939093013593505050565b60008060408385031215614d7157600080fd5b50508035926020909101359150565b600081518084526020808501945080840160005b83811015614db057815187529582019590820190600101614d94565b509495945050505050565b83815260006020606081840152614dd56060840186614d80565b838103604085015284518082528286019183019060005b81811015614e115783516001600160a01b031683529284019291840191600101614dec565b509098975050505050505050565b634e487b7160e01b600052604160045260246000fd5b604051601f8201601f191681016001600160401b0381118282101715614e5d57614e5d614e1f565b604052919050565b600082601f830112614e7657600080fd5b81356001600160401b03811115614e8f57614e8f614e1f565b614ea2601f8201601f1916602001614e35565b818152846020838601011115614eb757600080fd5b816020850160208301376000918101602001919091529392505050565b60008060008060808587031215614eea57600080fd5b8435614ef581614d1d565b93506020850135614f0581614d1d565b92506040850135915060608501356001600160401b03811115614f2757600080fd5b614f3387828801614e65565b91505092959194509250565b600060208284031215614f5157600080fd5b5035919050565b600080600060608486031215614f6d57600080fd5b8335614f7881614d1d565b92506020840135614f8881614d1d565b929592945050506040919091013590565b60208152600061108f6020830184614d80565b801515811461227b57600080fd5b600080600060608486031215614fcf57600080fd5b8335614fda81614fac565b92506020840135614fea81614fac565b91506040840135614ffa81614fac565b809150509250925092565b60008083601f84011261501757600080fd5b5081356001600160401b0381111561502e57600080fd5b60208301915083602082850101111561327b57600080fd5b60008060006040848603121561505b57600080fd5b8335925060208401356001600160401b0381111561507857600080fd5b61508486828701615005565b9497909650939450505050565b6000806000806000608086880312156150a957600080fd5b85356150b481614d1d565b945060208601356150c481614d1d565b93506040860135925060608601356001600160401b038111156150e657600080fd5b6150f288828901615005565b969995985093965092949392505050565b60006020828403121561511557600080fd5b813561108f81614d1d565b60008083601f84011261513257600080fd5b5081356001600160401b0381111561514957600080fd5b6020830191508360208260051b850101111561327b57600080fd5b6000806000806000806080878903121561517d57600080fd5b86356001600160401b038082111561519457600080fd5b6151a08a838b01615120565b909850965060208901359150808211156151b957600080fd5b506151c689828a01615120565b90955093505060408701356151da81614d1d565b915060608701356151ea81614d1d565b809150509295509295509295565b6000806000806000806080878903121561521157600080fd5b86356003811061522057600080fd5b9550602087013561523081614d1d565b945060408701356001600160401b038082111561524c57600080fd5b6152588a838b01615120565b9096509450606089013591508082111561527157600080fd5b5061527e89828a01615120565b979a9699509497509295939492505050565b600080600080600080600080600060c08a8c0312156152ae57600080fd5b89356001600160401b03808211156152c557600080fd5b6152d18d838e01615120565b909b50995060208c01359150808211156152ea57600080fd5b6152f68d838e01615120565b909950975060408c013591508082111561530f57600080fd5b5061531c8c828d01615120565b90965094505060608a013561533081614d1d565b925060808a013561534081614d1d565b915060a08a013561535081614fac565b809150509295985092959850929598565b600082601f83011261537257600080fd5b813560206001600160401b0382111561538d5761538d614e1f565b8160051b61539c828201614e35565b92835284810182019282810190878511156153b657600080fd5b83870192505b84831015614bdf578235825291830191908301906153bc565b600080600080600060a086880312156153ed57600080fd5b85356153f881614d1d565b9450602086013561540881614d1d565b935060408601356001600160401b038082111561542457600080fd5b61543089838a01615361565b9450606088013591508082111561544657600080fd5b61545289838a01615361565b9350608088013591508082111561546857600080fd5b5061547588828901614e65565b9150509295509295909350565b60008060006060848603121561549757600080fd5b505081359360208301359350604090920135919050565b600080604083850312156154c157600080fd5b82356154cc81614d1d565b915060208301356154dc81614d1d565b809150509250929050565b600080600080604085870312156154fd57600080fd5b84356001600160401b038082111561551457600080fd5b61552088838901615005565b9096509450602087013591508082111561553957600080fd5b5061554687828801615005565b95989497509550505050565b600080600080600080600060a0888a03121561556d57600080fd5b87356001600160401b038082111561558457600080fd5b6155908b838c01615005565b909950975060208a01359150808211156155a957600080fd5b506155b68a828b01615005565b90965094505060408801356155ca81614d1d565b925060608801356155da81614fac565b915060808801356155ea81614fac565b8091505092959891949750929550565b60006020828403121561560c57600080fd5b81356001600160401b0381111561562257600080fd5b61106884828501615361565b600080600080600060a0868803121561564657600080fd5b853561565181614d1d565b9450602086013561566181614d1d565b9350604086013592506060860135915060808601356001600160401b0381111561568a57600080fd5b61547588828901614e65565b6000806000806000608086880312156156ae57600080fd5b85356001600160401b038111156156c457600080fd5b6156d088828901615120565b90965094505060208601356156e481614d1d565b92506040860135915060608601356156fb81614fac565b809150509295509295909350565b600181811c9082168061571d57607f821691505b602082108103614b0957634e487b7160e01b600052602260045260246000fd5b60006020828403121561574f57600080fd5b5051919050565b634e487b7160e01b600052603260045260246000fd5b634e487b7160e01b600052601160045260246000fd5b600081600019048311821515161561579c5761579c61576c565b500290565b600082198211156157b4576157b461576c565b500190565b6000828210156157cb576157cb61576c565b500390565b6000600182016157e2576157e261576c565b5060010190565b6000602082840312156157fb57600080fd5b815161108f81614d1d565b81835281816020850137506000828201602090810191909152601f909101601f19169091010190565b8381526040602082015260006113fc604083018486615806565b81835260006001600160fb1b0383111561586257600080fd5b8260051b8083602087013760009401602001938452509192915050565b606081526000615893606083018789615849565b82810360208401526158a6818688615849565b9150506001600160a01b03831660408301529695505050505050565b6000806000606084860312156158d757600080fd5b8351925060208401519150604084015190509250925092565b634e487b7160e01b600052602160045260246000fd5b60006001600160a01b03808916835280881660208401525060a0604083015261593360a083018688615849565b8281036060840152615946818587615849565b8381036080909401939093525050600081526020019695505050505050565b60006020828403121561597757600080fd5b815161108f81614fac565b60808152600061599660808301898b615849565b82810360208401526159a981888a615849565b905082810360408401526159be818688615849565b9150506001600160a01b038316606083015298975050505050505050565b6000826159f957634e487b7160e01b600052601260045260246000fd5b500490565b604081526000615a12604083018587615849565b90506001600160a01b0383166020830152949350505050565b60006001600160a01b03808916835280881660208401525085604083015284606083015260a06080830152615a6460a083018486615806565b98975050505050505050565b600060208284031215615a8257600080fd5b815162ffffff8116811461108f57600080fd5b60008060408385031215615aa857600080fd5b8251615ab381614d1d565b60208401519092506154dc81614fac565b601f821115612efa57600081815260208120601f850160051c81016020861015615aeb5750805b601f850160051c820191505b818110156119c257828155600101615af7565b81516001600160401b03811115615b2357615b23614e1f565b615b3781615b318454615709565b84615ac4565b602080601f831160018114615b6c5760008415615b545750858301515b600019600386901b1c1916600185901b1785556119c2565b600085815260208120601f198616915b82811015615b9b57888601518255948401946001909101908401615b7c565b5085821015615bb95787850151600019600388901b60f8161c191681555b5050505050600190811b01905550565b604081526000615bdc6040830185614cde565b82810360208401526113fc8185614cde565b6020808252602b908201527f496e697469616c697a61626c653a20636f6e7472616374206973206e6f74206960408201526a6e697469616c697a696e6760a81b606082015260800190565b60008251615c4b818460208701614cb2565b9190910192915050565b634e487b7160e01b600052603160045260246000fdfea164736f6c634300080f000a"
}