{
  "address": "0x666738678c6FbdE71bb7Ca7B4DD1d41AFF218d7F",
  "abi": [
    {
      "anonymous": false,
      "inputs": [
        {
          "indexed": false,
          "internalType": "uint256",
          "name": "vaultId",
          "type": "uint256"
        }
      ],
      "name": "DisableVaultFees",
      "type": "event"
    },
    {
      "anonymous": false,
      "inputs": [
        {
          "indexed": false,
          "internalType": "address",
          "name": "feeExcluded",
          "type": "address"
        },
        {
          "indexed": false,
          "internalType": "bool",
          "name": "excluded",
          "type": "bool"
        }
      ],
      "name": "FeeExclusion",
      "type": "event"
    },
    {
      "anonymous": false,
      "inputs": [
        {
          "indexed": false,
          "internalType": "address",
          "name": "oldEligManager",
          "type": "address"
        },
        {
          "indexed": false,
          "internalType": "address",
          "name": "newEligManager",
          "type": "address"
        }
      ],
      "name": "NewEligibilityManager",
      "type": "event"
    },
    {
      "anonymous": false,
      "inputs": [
        {
          "indexed": false,
          "internalType": "address",
          "name": "oldDistributor",
          "type": "address"
        },
        {
          "indexed": false,
          "internalType": "address",
          "name": "newDistributor",
          "type": "address"
        }
      ],
      "name": "NewFeeDistributor",
      "type": "event"
    },
    {
      "anonymous": false,
      "inputs": [
        {
          "indexed": true,
          "internalType": "uint256",
          "name": "vaultId",
          "type": "uint256"
        },
        {
          "indexed": false,
          "internalType": "address",
          "name": "vaultAddress",
          "type": "address"
        },
        {
          "indexed": false,
          "internalType": "address",
          "name": "assetAddress",
          "type": "address"
        }
      ],
      "name": "NewVault",
      "type": "event"
    },
    {
      "anonymous": false,
      "inputs": [
        {
          "indexed": false,
          "internalType": "address",
          "name": "oldZap",
          "type": "address"
        },
        {
          "indexed": false,
          "internalType": "address",
          "name": "newZap",
          "type": "address"
        }
      ],
      "name": "NewZapContract",
      "type": "event"
    },
    {
      "anonymous": false,
      "inputs": [
        {
          "indexed": true,
          "internalType": "address",
          "name": "previousOwner",
          "type": "address"
        },
        {
          "indexed": true,
          "internalType": "address",
          "name": "newOwner",
          "type": "address"
        }
      ],
      "name": "OwnershipTransferred",
      "type": "event"
    },
    {
      "anonymous": false,
      "inputs": [
        {
          "indexed": false,
          "internalType": "address",
          "name": "addr",
          "type": "address"
        },
        {
          "indexed": false,
          "internalType": "bool",
          "name": "isGuardian",
          "type": "bool"
        }
      ],
      "name": "SetIsGuardian",
      "type": "event"
    },
    {
      "anonymous": false,
      "inputs": [
        {
          "indexed": false,
          "internalType": "uint256",
          "name": "lockId",
          "type": "uint256"
        },
        {
          "indexed": false,
          "internalType": "bool",
          "name": "paused",
          "type": "bool"
        }
      ],
      "name": "SetPaused",
      "type": "event"
    },
    {
      "anonymous": false,
      "inputs": [
        {
          "indexed": false,
          "internalType": "uint256",
          "name": "mintFee",
          "type": "uint256"
        },
        {
          "indexed": false,
          "internalType": "uint256",
          "name": "randomRedeemFee",
          "type": "uint256"
        },
        {
          "indexed": false,
          "internalType": "uint256",
          "name": "targetRedeemFee",
          "type": "uint256"
        },
        {
          "indexed": false,
          "internalType": "uint256",
          "name": "randomSwapFee",
          "type": "uint256"
        },
        {
          "indexed": false,
          "internalType": "uint256",
          "name": "targetSwapFee",
          "type": "uint256"
        }
      ],
      "name": "UpdateFactoryFees",
      "type": "event"
    },
    {
      "anonymous": false,
      "inputs": [
        {
          "indexed": false,
          "internalType": "uint256",
          "name": "vaultId",
          "type": "uint256"
        },
        {
          "indexed": false,
          "internalType": "uint256",
          "name": "mintFee",
          "type": "uint256"
        },
        {
          "indexed": false,
          "internalType": "uint256",
          "name": "randomRedeemFee",
          "type": "uint256"
        },
        {
          "indexed": false,
          "internalType": "uint256",
          "name": "targetRedeemFee",
          "type": "uint256"
        },
        {
          "indexed": false,
          "internalType": "uint256",
          "name": "randomSwapFee",
          "type": "uint256"
        },
        {
          "indexed": false,
          "internalType": "uint256",
          "name": "targetSwapFee",
          "type": "uint256"
        }
      ],
      "name": "UpdateVaultFees",
      "type": "event"
    },
    {
      "anonymous": false,
      "inputs": [
        {
          "indexed": false,
          "internalType": "address",
          "name": "zap",
          "type": "address"
        },
        {
          "indexed": false,
          "internalType": "bool",
          "name": "excluded",
          "type": "bool"
        }
      ],
      "name": "UpdatedZapContract",
      "type": "event"
    },
    {
      "anonymous": false,
      "inputs": [
        {
          "indexed": true,
          "internalType": "address",
          "name": "childImplementation",
          "type": "address"
        }
      ],
      "name": "Upgraded",
      "type": "event"
    },
    {
      "inputs": [
        {
          "internalType": "address",
          "name": "_vaultImpl",
          "type": "address"
        },
        {
          "internalType": "address",
          "name": "_feeDistributor",
          "type": "address"
        }
      ],
      "name": "__NFTXVaultFactory_init",
      "outputs": [],
      "stateMutability": "nonpayable",
      "type": "function"
    },
    {
      "inputs": [
        {
          "internalType": "address",
          "name": "childImplementation_",
          "type": "address"
        }
      ],
      "name": "__UpgradeableBeacon__init",
      "outputs": [],
      "stateMutability": "nonpayable",
      "type": "function"
    },
    {
      "inputs": [],
      "name": "allVaults",
      "outputs": [
        {
          "internalType": "address[]",
          "name": "",
          "type": "address[]"
        }
      ],
      "stateMutability": "view",
      "type": "function"
    },
    {
      "inputs": [],
      "name": "childImplementation",
      "outputs": [
        {
          "internalType": "address",
          "name": "",
          "type": "address"
        }
      ],
      "stateMutability": "view",
      "type": "function"
    },
    {
      "inputs": [
        {
          "internalType": "string",
          "name": "name",
          "type": "string"
        },
        {
          "internalType": "string",
          "name": "symbol",
          "type": "string"
        },
        {
          "internalType": "address",
          "name": "_assetAddress",
          "type": "address"
        },
        {
          "internalType": "bool",
          "name": "is1155",
          "type": "bool"
        },
        {
          "internalType": "bool",
          "name": "allowAllItems",
          "type": "bool"
        }
      ],
      "name": "createVault",
      "outputs": [
        {
          "internalType": "uint256",
          "name": "",
          "type": "uint256"
        }
      ],
      "stateMutability": "nonpayable",
      "type": "function"
    },
    {
      "inputs": [
        {
          "internalType": "uint256",
          "name": "vaultId",
          "type": "uint256"
        }
      ],
      "name": "disableVaultFees",
      "outputs": [],
      "stateMutability": "nonpayable",
      "type": "function"
    },
    {
      "inputs": [],
      "name": "eligibilityManager",
      "outputs": [
        {
          "internalType": "address",
          "name": "",
          "type": "address"
        }
      ],
      "stateMutability": "view",
      "type": "function"
    },
    {
      "inputs": [
        {
          "internalType": "address",
          "name": "",
          "type": "address"
        }
      ],
      "name": "excludedFromFees",
      "outputs": [
        {
          "internalType": "bool",
          "name": "",
          "type": "bool"
        }
      ],
      "stateMutability": "view",
      "type": "function"
    },
    {
      "inputs": [],
      "name": "factoryMintFee",
      "outputs": [
        {
          "internalType": "uint64",
          "name": "",
          "type": "uint64"
        }
      ],
      "stateMutability": "view",
      "type": "function"
    },
    {
      "inputs": [],
      "name": "factoryRandomRedeemFee",
      "outputs": [
        {
          "internalType": "uint64",
          "name": "",
          "type": "uint64"
        }
      ],
      "stateMutability": "view",
      "type": "function"
    },
    {
      "inputs": [],
      "name": "factoryRandomSwapFee",
      "outputs": [
        {
          "internalType": "uint64",
          "name": "",
          "type": "uint64"
        }
      ],
      "stateMutability": "view",
      "type": "function"
    },
    {
      "inputs": [],
      "name": "factoryTargetRedeemFee",
      "outputs": [
        {
          "internalType": "uint64",
          "name": "",
          "type": "uint64"
        }
      ],
      "stateMutability": "view",
      "type": "function"
    },
    {
      "inputs": [],
      "name": "factoryTargetSwapFee",
      "outputs": [
        {
          "internalType": "uint64",
          "name": "",
          "type": "uint64"
        }
      ],
      "stateMutability": "view",
      "type": "function"
    },
    {
      "inputs": [],
      "name": "feeDistributor",
      "outputs": [
        {
          "internalType": "address",
          "name": "",
          "type": "address"
        }
      ],
      "stateMutability": "view",
      "type": "function"
    },
    {
      "inputs": [],
      "name": "implementation",
      "outputs": [
        {
          "internalType": "address",
          "name": "",
          "type": "address"
        }
      ],
      "stateMutability": "view",
      "type": "function"
    },
    {
      "inputs": [
        {
          "internalType": "address",
          "name": "",
          "type": "address"
        }
      ],
      "name": "isGuardian",
      "outputs": [
        {
          "internalType": "bool",
          "name": "",
          "type": "bool"
        }
      ],
      "stateMutability": "view",
      "type": "function"
    },
    {
      "inputs": [
        {
          "internalType": "uint256",
          "name": "lockId",
          "type": "uint256"
        }
      ],
      "name": "isLocked",
      "outputs": [
        {
          "internalType": "bool",
          "name": "",
          "type": "bool"
        }
      ],
      "stateMutability": "view",
      "type": "function"
    },
    {
      "inputs": [
        {
          "internalType": "uint256",
          "name": "",
          "type": "uint256"
        }
      ],
      "name": "isPaused",
      "outputs": [
        {
          "internalType": "bool",
          "name": "",
          "type": "bool"
        }
      ],
      "stateMutability": "view",
      "type": "function"
    },
    {
      "inputs": [],
      "name": "numVaults",
      "outputs": [
        {
          "internalType": "uint256",
          "name": "",
          "type": "uint256"
        }
      ],
      "stateMutability": "view",
      "type": "function"
    },
    {
      "inputs": [
        {
          "internalType": "uint256",
          "name": "lockId",
          "type": "uint256"
        }
      ],
      "name": "onlyOwnerIfPaused",
      "outputs": [],
      "stateMutability": "view",
      "type": "function"
    },
    {
      "inputs": [],
      "name": "owner",
      "outputs": [
        {
          "internalType": "address",
          "name": "",
          "type": "address"
        }
      ],
      "stateMutability": "view",
      "type": "function"
    },
    {
      "inputs": [
        {
          "internalType": "uint256",
          "name": "lockId",
          "type": "uint256"
        }
      ],
      "name": "pause",
      "outputs": [],
      "stateMutability": "nonpayable",
      "type": "function"
    },
    {
      "inputs": [],
      "name": "renounceOwnership",
      "outputs": [],
      "stateMutability": "nonpayable",
      "type": "function"
    },
    {
      "inputs": [
        {
          "internalType": "address",
          "name": "_eligibilityManager",
          "type": "address"
        }
      ],
      "name": "setEligibilityManager",
      "outputs": [],
      "stateMutability": "nonpayable",
      "type": "function"
    },
    {
      "inputs": [
        {
          "internalType": "uint256",
          "name": "mintFee",
          "type": "uint256"
        },
        {
          "internalType": "uint256",
          "name": "randomRedeemFee",
          "type": "uint256"
        },
        {
          "internalType": "uint256",
          "name": "targetRedeemFee",
          "type": "uint256"
        },
        {
          "internalType": "uint256",
          "name": "randomSwapFee",
          "type": "uint256"
        },
        {
          "internalType": "uint256",
          "name": "targetSwapFee",
          "type": "uint256"
        }
      ],
      "name": "setFactoryFees",
      "outputs": [],
      "stateMutability": "nonpayable",
      "type": "function"
    },
    {
      "inputs": [
        {
          "internalType": "address",
          "name": "_feeDistributor",
          "type": "address"
        }
      ],
      "name": "setFeeDistributor",
      "outputs": [],
      "stateMutability": "nonpayable",
      "type": "function"
    },
    {
      "inputs": [
        {
          "internalType": "address",
          "name": "_excludedAddr",
          "type": "address"
        },
        {
          "internalType": "bool",
          "name": "excluded",
          "type": "bool"
        }
      ],
      "name": "setFeeExclusion",
      "outputs": [],
      "stateMutability": "nonpayable",
      "type": "function"
    },
    {
      "inputs": [
        {
          "internalType": "address",
          "name": "addr",
          "type": "address"
        },
        {
          "internalType": "bool",
          "name": "_isGuardian",
          "type": "bool"
        }
      ],
      "name": "setIsGuardian",
      "outputs": [],
      "stateMutability": "nonpayable",
      "type": "function"
    },
    {
      "inputs": [
        {
          "internalType": "uint256",
          "name": "vaultId",
          "type": "uint256"
        },
        {
          "internalType": "uint256",
          "name": "mintFee",
          "type": "uint256"
        },
        {
          "internalType": "uint256",
          "name": "randomRedeemFee",
          "type": "uint256"
        },
        {
          "internalType": "uint256",
          "name": "targetRedeemFee",
          "type": "uint256"
        },
        {
          "internalType": "uint256",
          "name": "randomSwapFee",
          "type": "uint256"
        },
        {
          "internalType": "uint256",
          "name": "targetSwapFee",
          "type": "uint256"
        }
      ],
      "name": "setVaultFees",
      "outputs": [],
      "stateMutability": "nonpayable",
      "type": "function"
    },
    {
      "inputs": [
        {
          "internalType": "address",
          "name": "_zapContract",
          "type": "address"
        },
        {
          "internalType": "bool",
          "name": "_excluded",
          "type": "bool"
        }
      ],
      "name": "setZapContract",
      "outputs": [],
      "stateMutability": "nonpayable",
      "type": "function"
    },
    {
      "inputs": [
        {
          "internalType": "address",
          "name": "newOwner",
          "type": "address"
        }
      ],
      "name": "transferOwnership",
      "outputs": [],
      "stateMutability": "nonpayable",
      "type": "function"
    },
    {
      "inputs": [
        {
          "internalType": "uint256",
          "name": "lockId",
          "type": "uint256"
        }
      ],
      "name": "unpause",
      "outputs": [],
      "stateMutability": "nonpayable",
      "type": "function"
    },
    {
      "inputs": [
        {
          "internalType": "address",
          "name": "newChildImplementation",
          "type": "address"
        }
      ],
      "name": "upgradeChildTo",
      "outputs": [],
      "stateMutability": "nonpayable",
      "type": "function"
    },
    {
      "inputs": [
        {
          "internalType": "uint256",
          "name": "vaultId",
          "type": "uint256"
        }
      ],
      "name": "vault",
      "outputs": [
        {
          "internalType": "address",
          "name": "",
          "type": "address"
        }
      ],
      "stateMutability": "view",
      "type": "function"
    },
    {
      "inputs": [
        {
          "internalType": "uint256",
          "name": "vaultId",
          "type": "uint256"
        }
      ],
      "name": "vaultFees",
      "outputs": [
        {
          "internalType": "uint256",
          "name": "",
          "type": "uint256"
        },
        {
          "internalType": "uint256",
          "name": "",
          "type": "uint256"
        },
        {
          "internalType": "uint256",
          "name": "",
          "type": "uint256"
        },
        {
          "internalType": "uint256",
          "name": "",
          "type": "uint256"
        },
        {
          "internalType": "uint256",
          "name": "",
          "type": "uint256"
        }
      ],
      "stateMutability": "view",
      "type": "function"
    },
    {
      "inputs": [
        {
          "internalType": "address",
          "name": "assetAddress",
          "type": "address"
        }
      ],
      "name": "vaultsForAsset",
      "outputs": [
        {
          "internalType": "address[]",
          "name": "",
          "type": "address[]"
        }
      ],
      "stateMutability": "view",
      "type": "function"
    },
    {
      "inputs": [],
      "name": "zapContract",
      "outputs": [
        {
          "internalType": "address",
          "name": "",
          "type": "address"
        }
      ],
      "stateMutability": "view",
      "type": "function"
    },
    {
      "inputs": [
        {
          "internalType": "address",
          "name": "",
          "type": "address"
        }
      ],
      "name": "zapContracts",
      "outputs": [
        {
          "internalType": "bool",
          "name": "",
          "type": "bool"
        }
      ],
      "stateMutability": "view",
      "type": "function"
    }
  ],
  "transactionHash": "0xc11ac333cfbad55f7912dab7f2981ec9aee7b8d63fd0a42af5b437872e39cbe8",
  "args": [],
  "numDeployments": 1,
  "solcInputHash": "bec004d9b1b2142a40b20f41be4e23d6",
  "bytecode": "0x608060405234801561001057600080fd5b50612e9f806100206000396000f3fe60806040523480156200001157600080fd5b5060043610620002c75760003560e01c80637c0f44a2116200017c578063c6172ecd11620000e9578063ef8658db1162000097578063f6aacfb1116200007a578063f6aacfb1146200067e578063fabc1cbc14620006a4578063fc21c3f814620006bb57600080fd5b8063ef8658db1462000650578063f2fde38b146200066757600080fd5b8063da52571611620000cc578063da52571614620004bd578063dbe66ca01462000613578063e5956027146200063957600080fd5b8063c6172ecd14620005d6578063ccfc2e8d14620005fc57600080fd5b806390f434d811620001475780639e1a8824116200012a5780639e1a88241462000584578063bdf2a43c1462000599578063c182f2b214620005bf57600080fd5b806390f434d814620005565780639b084d1b146200056d57600080fd5b80637c0f44a214620004f55780637c77b616146200051657806381a36fb6146200052d5780638da5cb5b146200054457600080fd5b806323845fb511620002385780633ec93d9c11620001e65780635c60da1b11620001c95780635c60da1b14620004bd5780636d14584614620004cf578063715018a614620004eb57600080fd5b80633ec93d9c146200048f57806340f2d55514620004a657600080fd5b8063264a6208116200021b578063264a6208146200044e57806330b94cd5146200046157806336b92a23146200047857600080fd5b806323845fb514620004235780632549dad9146200043a57600080fd5b8063136439dd11620002965780631f1713fc11620002795780631f1713fc14620003b5578063219962d214620003cc5780632206137914620003e357600080fd5b8063136439dd146200038857806314c77faa14620003a157600080fd5b8063063effeb14620002cc57806309d25e7914620002ee5780630c68ba2114620003245780630d43e8ad146200035b575b600080fd5b620002d6620006d0565b604051620002e5919062002212565b60405180910390f35b6071546200030a90600160801b900467ffffffffffffffff1681565b60405167ffffffffffffffff9091168152602001620002e5565b6200034a620003353660046200227e565b60656020526000908152604090205460ff1681565b6040519015158152602001620002e5565b606a546200036f906001600160a01b031681565b6040516001600160a01b039091168152602001620002e5565b6200039f62000399366004620022a3565b62000734565b005b606b546200036f906001600160a01b031681565b6200039f620003c63660046200227e565b620007f1565b6200039f620003dd366004620022bd565b6200084a565b620003fa620003f4366004620022a3565b62000c5a565b604080519586526020860194909452928401919091526060830152608082015260a001620002e5565b6200039f6200043436600462002312565b62000d9a565b6069546200036f906001600160a01b031681565b606e545b604051908152602001620002e5565b6200039f6200047236600462002312565b62000e48565b6200039f6200048936600462002312565b62000f01565b6200039f620004a03660046200234a565b62000fba565b6200039f620004b73660046200227e565b620010c9565b6067546001600160a01b03166200036f565b6071546200030a90600160c01b900467ffffffffffffffff1681565b6200039f6200117d565b6071546200030a9068010000000000000000900467ffffffffffffffff1681565b6200039f62000527366004620022a3565b62001212565b6200036f6200053e366004620022a3565b62001289565b6033546001600160a01b03166200036f565b620002d6620005673660046200227e565b620012bc565b6200039f6200057e36600462002379565b62001334565b6071546200030a9067ffffffffffffffff1681565b6200034a620005aa366004620022a3565b60666020526000908152604090205460ff1681565b6200039f620005d0366004620022a3565b620015f3565b6200034a620005e73660046200227e565b60736020526000908152604090205460ff1681565b6200039f6200060d3660046200227e565b62001709565b6200034a620006243660046200227e565b606f6020526000908152604090205460ff1681565b6200039f6200064a3660046200227e565b620017d1565b620004526200066136600462002460565b62001895565b6200039f620006783660046200227e565b62001aa8565b6200034a6200068f366004620022a3565b60009081526066602052604090205460ff1690565b6200039f620006b5366004620022a3565b62001bcd565b6072546200030a9067ffffffffffffffff1681565b6060606e8054806020026020016040519081016040528092919081815260200182805480156200072a57602002820191906000526020600020905b81546001600160a01b031681526001909101906020018083116200070b575b5050505050905090565b3360009081526065602052604090205460ff16620007995760405162461bcd60e51b815260206004820152600b60248201527f43616e277420706175736500000000000000000000000000000000000000000060448201526064015b60405180910390fd5b600081815260666020908152604091829020805460ff191660019081179091558251848152918201527f77f1fcfcce67dc392d64f842056d2ec06c80986c47c910f7e79c5b23a2738d7491015b60405180910390a150565b6033546001600160a01b031633146200083c5760405162461bcd60e51b8152602060048201819052602482015260008051602062002e73833981519152604482015260640162000790565b620008478162001c66565b50565b6033546001600160a01b03163314620008df576000606e878154811062000875576200087562002503565b6000918252602090912001546001600160a01b03169050338114620008dd5760405162461bcd60e51b815260206004820152600e60248201527f4e6f742066726f6d207661756c74000000000000000000000000000000000000604482015260640162000790565b505b6706f05b59d3b200008511156200092e5760405162461bcd60e51b815260206004820152601260248201527121b0b73737ba101f1018171a9032ba3432b960711b604482015260640162000790565b6706f05b59d3b200008411156200097d5760405162461bcd60e51b815260206004820152601260248201527121b0b73737ba101f1018171a9032ba3432b960711b604482015260640162000790565b6706f05b59d3b20000831115620009cc5760405162461bcd60e51b815260206004820152601260248201527121b0b73737ba101f1018171a9032ba3432b960711b604482015260640162000790565b6706f05b59d3b2000082111562000a1b5760405162461bcd60e51b815260206004820152601260248201527121b0b73737ba101f1018171a9032ba3432b960711b604482015260640162000790565b6706f05b59d3b2000081111562000a6a5760405162461bcd60e51b815260206004820152601260248201527121b0b73737ba101f1018171a9032ba3432b960711b604482015260640162000790565b6040518060c001604052806001151581526020018667ffffffffffffffff1681526020018567ffffffffffffffff1681526020018467ffffffffffffffff1681526020018367ffffffffffffffff1681526020018267ffffffffffffffff168152506070600088815260200190815260200160002060008201518160000160006101000a81548160ff02191690831515021790555060208201518160000160016101000a81548167ffffffffffffffff021916908367ffffffffffffffff16021790555060408201518160000160096101000a81548167ffffffffffffffff021916908367ffffffffffffffff16021790555060608201518160000160116101000a81548167ffffffffffffffff021916908367ffffffffffffffff16021790555060808201518160010160006101000a81548167ffffffffffffffff021916908367ffffffffffffffff16021790555060a08201518160010160086101000a81548167ffffffffffffffff021916908367ffffffffffffffff1602179055509050507fd9ffbc90281646bcb01af117b3e6cd6ad280ffe01a9b09f6576155b4fa3f45c986868686868660405162000c4a96959493929190958652602086019490945260408501929092526060840152608083015260a082015260c00190565b60405180910390a1505050505050565b6000818152607060209081526040808320815160c081018352815460ff8116158015835267ffffffffffffffff61010083048116968401969096526901000000000000000000820486169483019490945271010000000000000000000000000000000000900484166060820152600190910154808416608083015268010000000000000000900490921660a0830152829182918291829162000d5257806020015167ffffffffffffffff16816040015167ffffffffffffffff16826060015167ffffffffffffffff16836080015167ffffffffffffffff168460a0015167ffffffffffffffff16955095509550955095505062000d91565b505060715460725467ffffffffffffffff808316965068010000000000000000830481169550600160801b830481169450600160c01b90920482169250165b91939590929450565b6033546001600160a01b0316331462000de55760405162461bcd60e51b8152602060048201819052602482015260008051602062002e73833981519152604482015260640162000790565b6001600160a01b038216600081815260656020908152604091829020805460ff19168515159081179091558251938452908301527fd0b6b573d5442f7c29fd50d9735ae341581c25c6ed07748d50eda519f1ffa88a910160405180910390a15050565b6033546001600160a01b0316331462000e935760405162461bcd60e51b8152602060048201819052602482015260008051602062002e73833981519152604482015260640162000790565b604080516001600160a01b038416815282151560208201527f7091fe081ceb2a09a20e86451ff5cba0b3ed3a6fc7fb6557147601a616459035910160405180910390a16001600160a01b03919091166000908152606f60205260409020805460ff1916911515919091179055565b6033546001600160a01b0316331462000f4c5760405162461bcd60e51b8152602060048201819052602482015260008051602062002e73833981519152604482015260640162000790565b604080516001600160a01b038416815282151560208201527f076cbcb8e3c3f3f0bded4ccdaa7a15ce585507cb08d4b919280e3b691b8aec30910160405180910390a16001600160a01b03919091166000908152607360205260409020805460ff1916911515919091179055565b600054610100900460ff168062000fd4575060005460ff16155b620010395760405162461bcd60e51b815260206004820152602e60248201527f496e697469616c697a61626c653a20636f6e747261637420697320616c72656160448201526d191e481a5b9a5d1a585b1a5e995960921b606482015260840162000790565b600054610100900460ff161580156200105c576000805461ffff19166101011790555b6200106662001d26565b6200107183620017d1565b6200107c8262001709565b620010b167016345785d8a000066b1a2bc2ec5000067016345785d8a000066b1a2bc2ec5000067016345785d8a000062001334565b8015620010c4576000805461ff00191690555b505050565b6033546001600160a01b03163314620011145760405162461bcd60e51b8152602060048201819052602482015260008051602062002e73833981519152604482015260640162000790565b606b54604080516001600160a01b03928316815291831660208301527fdd1b73e02786644d6e9994c9d513f1058320c4ff857e1a76ded4c77f83ab3ea9910160405180910390a1606b80546001600160a01b0319166001600160a01b0392909216919091179055565b6033546001600160a01b03163314620011c85760405162461bcd60e51b8152602060048201819052602482015260008051602062002e73833981519152604482015260640162000790565b6033546040516000916001600160a01b0316907f8be0079c531659141344cd1fd0a4f28419497f9722a3daafe3b4186f6b6457e0908390a3603380546001600160a01b0319169055565b60008181526066602052604090205460ff1615806200123b57506033546001600160a01b031633145b620008475760405162461bcd60e51b815260206004820152600660248201527f5061757365640000000000000000000000000000000000000000000000000000604482015260640162000790565b6000606e8281548110620012a157620012a162002503565b6000918252602090912001546001600160a01b031692915050565b6001600160a01b0381166000908152606d60209081526040918290208054835181840281018401909452808452606093928301828280156200132857602002820191906000526020600020905b81546001600160a01b0316815260019091019060200180831162001309575b50505050509050919050565b6033546001600160a01b031633146200137f5760405162461bcd60e51b8152602060048201819052602482015260008051602062002e73833981519152604482015260640162000790565b6706f05b59d3b20000851115620013ce5760405162461bcd60e51b815260206004820152601260248201527121b0b73737ba101f1018171a9032ba3432b960711b604482015260640162000790565b6706f05b59d3b200008411156200141d5760405162461bcd60e51b815260206004820152601260248201527121b0b73737ba101f1018171a9032ba3432b960711b604482015260640162000790565b6706f05b59d3b200008311156200146c5760405162461bcd60e51b815260206004820152601260248201527121b0b73737ba101f1018171a9032ba3432b960711b604482015260640162000790565b6706f05b59d3b20000821115620014bb5760405162461bcd60e51b815260206004820152601260248201527121b0b73737ba101f1018171a9032ba3432b960711b604482015260640162000790565b6706f05b59d3b200008111156200150a5760405162461bcd60e51b815260206004820152601260248201527121b0b73737ba101f1018171a9032ba3432b960711b604482015260640162000790565b6071805467ffffffffffffffff8781166fffffffffffffffffffffffffffffffff19909216919091176801000000000000000087831602176fffffffffffffffffffffffffffffffff16600160801b8683160277ffffffffffffffffffffffffffffffffffffffffffffffff1617600160c01b85831602179091556072805467ffffffffffffffff1916918316919091179055604080518681526020810186905290810184905260608101839052608081018290527f5ece4b6d3e9829ead7e8adb5ab3a10f91b8547a80e9e96264fc5fe012f10937a9060a00160405180910390a15050505050565b6033546001600160a01b0316331462001688576000606e82815481106200161e576200161e62002503565b6000918252602090912001546001600160a01b03169050338114620016865760405162461bcd60e51b815260206004820152600960248201527f4e6f74207661756c740000000000000000000000000000000000000000000000604482015260640162000790565b505b6000818152607060205260409081902080547fffffffffffffff0000000000000000000000000000000000000000000000000016815560010180546fffffffffffffffffffffffffffffffff19169055517f52fa46cefef72586d9ef48406d9aa3772833013b97e06ad9bbb4f812b105aa6890620007e69083815260200190565b6033546001600160a01b03163314620017545760405162461bcd60e51b8152602060048201819052602482015260008051602062002e73833981519152604482015260640162000790565b6001600160a01b0381166200176857600080fd5b606a54604080516001600160a01b03928316815291831660208301527ff50858c0e53e1daa79884af03c6b676de789362564e7c27ff542914c0b513ea7910160405180910390a1606a80546001600160a01b0319166001600160a01b0392909216919091179055565b600054610100900460ff1680620017eb575060005460ff16155b620018505760405162461bcd60e51b815260206004820152602e60248201527f496e697469616c697a61626c653a20636f6e747261637420697320616c72656160448201526d191e481a5b9a5d1a585b1a5e995960921b606482015260840162000790565b600054610100900460ff1615801562001873576000805461ffff19166101011790555b6200187e8262001c66565b801562001891576000805461ff00191690555b5050565b6000620018a3600062001212565b606a546001600160a01b0316620018fd5760405162461bcd60e51b815260206004820152601860248201527f4e4654583a2046656520726563656976657220756e7365740000000000000000604482015260640162000790565b6000620019126067546001600160a01b031690565b6001600160a01b0316036200196a5760405162461bcd60e51b815260206004820181905260248201527f4e4654583a205661756c7420696d706c656d656e746174696f6e20756e736574604482015260640162000790565b60006200197b878787878762001de7565b606e80546001600160a01b038881166000908152606d6020908152604080832080546001808201835591855292842090920180548886166001600160a01b0319918216811790925587549384018855969093527f9930d9ff0dee0ef5ca2f7710ea66b8f84dd0f5f5351ecffe72b952cd9db7142a9091018054909516909117909355606a549251630674f4a960e21b81526004810183905293945090929116906319d3d2a490602401600060405180830381600087803b15801562001a3f57600080fd5b505af115801562001a54573d6000803e3d6000fd5b5050604080516001600160a01b0380871682528a1660208201528493507fb94e8fc8ad4a054390a833a774eabcd7c0547c9a62d1fafb5c54dd761c6f0aac92500160405180910390a2979650505050505050565b6033546001600160a01b0316331462001af35760405162461bcd60e51b8152602060048201819052602482015260008051602062002e73833981519152604482015260640162000790565b6001600160a01b03811662001b715760405162461bcd60e51b815260206004820152602660248201527f4f776e61626c653a206e6577206f776e657220697320746865207a65726f206160448201527f6464726573730000000000000000000000000000000000000000000000000000606482015260840162000790565b6033546040516001600160a01b038084169216907f8be0079c531659141344cd1fd0a4f28419497f9722a3daafe3b4186f6b6457e090600090a3603380546001600160a01b0319166001600160a01b0392909216919091179055565b6033546001600160a01b0316331462001c185760405162461bcd60e51b8152602060048201819052602482015260008051602062002e73833981519152604482015260640162000790565b6000818152606660209081526040808320805460ff191690558051848152918201929092527f77f1fcfcce67dc392d64f842056d2ec06c80986c47c910f7e79c5b23a2738d749101620007e6565b803b62001cdc5760405162461bcd60e51b815260206004820152603960248201527f5570677261646561626c65426561636f6e3a206368696c6420696d706c656d6560448201527f6e746174696f6e206973206e6f74206120636f6e747261637400000000000000606482015260840162000790565b606780546001600160a01b0319166001600160a01b0383169081179091556040517fbc7cd75a20ee27fd9adebab32041f755214dbc6bffa90cc0225b39da2e5c2d3b90600090a250565b600054610100900460ff168062001d40575060005460ff16155b62001da55760405162461bcd60e51b815260206004820152602e60248201527f496e697469616c697a61626c653a20636f6e747261637420697320616c72656160448201526d191e481a5b9a5d1a585b1a5e995960921b606482015260840162000790565b600054610100900460ff1615801562001dc8576000805461ffff19166101011790555b62001dd262001f9e565b801562000847576000805461ff001916905550565b6000803060405162001df99062002204565b6001600160a01b039091168152604060208201819052600090820152606001604051809103906000f08015801562001e35573d6000803e3d6000fd5b506040516339e1163160e21b81529091506001600160a01b0382169063e78458c49062001e6f908a908a908a908a908a9060040162002569565b600060405180830381600087803b15801562001e8a57600080fd5b505af115801562001e9f573d6000803e3d6000fd5b505060405163d0ebdbe760e01b81523360048201526001600160a01b038416925063d0ebdbe79150602401600060405180830381600087803b15801562001ee557600080fd5b505af115801562001efa573d6000803e3d6000fd5b50505050806001600160a01b031663f2fde38b62001f206033546001600160a01b031690565b6040517fffffffff0000000000000000000000000000000000000000000000000000000060e084901b1681526001600160a01b039091166004820152602401600060405180830381600087803b15801562001f7a57600080fd5b505af115801562001f8f573d6000803e3d6000fd5b50929998505050505050505050565b600054610100900460ff168062001fb8575060005460ff16155b6200201d5760405162461bcd60e51b815260206004820152602e60248201527f496e697469616c697a61626c653a20636f6e747261637420697320616c72656160448201526d191e481a5b9a5d1a585b1a5e995960921b606482015260840162000790565b600054610100900460ff1615801562002040576000805461ffff19166101011790555b6200204a62002054565b62001dd26200210a565b600054610100900460ff16806200206e575060005460ff16155b620020d35760405162461bcd60e51b815260206004820152602e60248201527f496e697469616c697a61626c653a20636f6e747261637420697320616c72656160448201526d191e481a5b9a5d1a585b1a5e995960921b606482015260840162000790565b600054610100900460ff1615801562001dd2576000805461ffff1916610101179055801562000847576000805461ff001916905550565b600054610100900460ff168062002124575060005460ff16155b620021895760405162461bcd60e51b815260206004820152602e60248201527f496e697469616c697a61626c653a20636f6e747261637420697320616c72656160448201526d191e481a5b9a5d1a585b1a5e995960921b606482015260840162000790565b600054610100900460ff16158015620021ac576000805461ffff19166101011790555b603380546001600160a01b0319163390811790915560405181906000907f8be0079c531659141344cd1fd0a4f28419497f9722a3daafe3b4186f6b6457e0908290a350801562000847576000805461ff001916905550565b6108b780620025bc83390190565b6020808252825182820181905260009190848201906040850190845b81811015620022555783516001600160a01b0316835292840192918401916001016200222e565b50909695505050505050565b80356001600160a01b03811681146200227957600080fd5b919050565b6000602082840312156200229157600080fd5b6200229c8262002261565b9392505050565b600060208284031215620022b657600080fd5b5035919050565b60008060008060008060c08789031215620022d757600080fd5b505084359660208601359650604086013595606081013595506080810135945060a0013592509050565b803580151581146200227957600080fd5b600080604083850312156200232657600080fd5b620023318362002261565b9150620023416020840162002301565b90509250929050565b600080604083850312156200235e57600080fd5b620023698362002261565b9150620023416020840162002261565b600080600080600060a086880312156200239257600080fd5b505083359560208501359550604085013594606081013594506080013592509050565b634e487b7160e01b600052604160045260246000fd5b600082601f830112620023dd57600080fd5b813567ffffffffffffffff80821115620023fb57620023fb620023b5565b604051601f8301601f19908116603f01168101908282118183101715620024265762002426620023b5565b816040528381528660208588010111156200244057600080fd5b836020870160208301376000602085830101528094505050505092915050565b600080600080600060a086880312156200247957600080fd5b853567ffffffffffffffff808211156200249257600080fd5b620024a089838a01620023cb565b96506020880135915080821115620024b757600080fd5b50620024c688828901620023cb565b945050620024d76040870162002261565b9250620024e76060870162002301565b9150620024f76080870162002301565b90509295509295909350565b634e487b7160e01b600052603260045260246000fd5b6000815180845260005b81811015620025415760208185018101518683018201520162002523565b8181111562002554576000602083870101525b50601f01601f19169290920160200192915050565b60a0815260006200257e60a083018862002519565b828103602084015262002592818862002519565b6001600160a01b039690961660408401525050911515606083015215156080909101529291505056fe60806040526040516108b73803806108b783398101604081905261002291610418565b61004d60017fa3f0ad74e5423aebfd80d3ef4346578335a9a72aeaee59ff6cb3582b35133d516104d8565b60008051602061087683398151915214610069576100696104fd565b610073828261007a565b505061057d565b61008d8261022660201b6100291760201c565b6100ec5760405162461bcd60e51b815260206004820152602560248201527f426561636f6e50726f78793a20626561636f6e206973206e6f74206120636f6e6044820152641d1c9858dd60da1b60648201526084015b60405180910390fd5b610160826001600160a01b031663da5257166040518163ffffffff1660e01b8152600401602060405180830381865afa15801561012d573d6000803e3d6000fd5b505050506040513d601f19601f820116820180604052508101906101519190610513565b61022660201b6100291760201c565b6101d25760405162461bcd60e51b815260206004820152603460248201527f426561636f6e50726f78793a20626561636f6e20696d706c656d656e7461746960448201527f6f6e206973206e6f74206120636f6e747261637400000000000000000000000060648201526084016100e3565b6000805160206108768339815191528281558151156102215761021f6101f661022c565b83604051806060016040528060218152602001610896602191396102aa60201b61002f1760201c565b505b505050565b3b151590565b60006102446000805160206108768339815191525490565b6001600160a01b031663da5257166040518163ffffffff1660e01b8152600401602060405180830381865afa158015610281573d6000803e3d6000fd5b505050506040513d601f19601f820116820180604052508101906102a59190610513565b905090565b6060833b6103095760405162461bcd60e51b815260206004820152602660248201527f416464726573733a2064656c65676174652063616c6c20746f206e6f6e2d636f6044820152651b9d1c9858dd60d21b60648201526084016100e3565b600080856001600160a01b031685604051610324919061052e565b600060405180830381855af49150503d806000811461035f576040519150601f19603f3d011682016040523d82523d6000602084013e610364565b606091505b509092509050610375828286610381565b925050505b9392505050565b6060831561039057508161037a565b8251156103a05782518084602001fd5b8160405162461bcd60e51b81526004016100e3919061054a565b80516001600160a01b03811681146103d157600080fd5b919050565b634e487b7160e01b600052604160045260246000fd5b60005b838110156104075781810151838201526020016103ef565b8381111561021f5750506000910152565b6000806040838503121561042b57600080fd5b610434836103ba565b60208401519092506001600160401b038082111561045157600080fd5b818501915085601f83011261046557600080fd5b815181811115610477576104776103d6565b604051601f8201601f19908116603f0116810190838211818310171561049f5761049f6103d6565b816040528281528860208487010111156104b857600080fd5b6104c98360208301602088016103ec565b80955050505050509250929050565b6000828210156104f857634e487b7160e01b600052601160045260246000fd5b500390565b634e487b7160e01b600052600160045260246000fd5b60006020828403121561052557600080fd5b61037a826103ba565b600082516105408184602087016103ec565b9190910192915050565b60208152600082518060208401526105698160408501602087016103ec565b601f01601f19169190910160400192915050565b6102ea8061058c6000396000f3fe60806040523661001357610011610017565b005b6100115b61002761002261012e565b6101cb565b565b3b151590565b6060833b6100aa5760405162461bcd60e51b815260206004820152602660248201527f416464726573733a2064656c65676174652063616c6c20746f206e6f6e2d636f60448201527f6e7472616374000000000000000000000000000000000000000000000000000060648201526084015b60405180910390fd5b6000808573ffffffffffffffffffffffffffffffffffffffff16856040516100d29190610258565b600060405180830381855af49150503d806000811461010d576040519150601f19603f3d011682016040523d82523d6000602084013e610112565b606091505b50915091506101228282866101ef565b925050505b9392505050565b60006101587fa3f0ad74e5423aebfd80d3ef4346578335a9a72aeaee59ff6cb3582b35133d505490565b73ffffffffffffffffffffffffffffffffffffffff1663da5257166040518163ffffffff1660e01b8152600401602060405180830381865afa1580156101a2573d6000803e3d6000fd5b505050506040513d601f19601f820116820180604052508101906101c69190610274565b905090565b3660008037600080366000845af43d6000803e8080156101ea573d6000f35b3d6000fd5b606083156101fe575081610127565b82511561020e5782518084602001fd5b8160405162461bcd60e51b81526004016100a191906102aa565b60005b8381101561024357818101518382015260200161022b565b83811115610252576000848401525b50505050565b6000825161026a818460208701610228565b9190910192915050565b60006020828403121561028657600080fd5b815173ffffffffffffffffffffffffffffffffffffffff8116811461012757600080fd5b60208152600082518060208401526102c9816040850160208701610228565b601f01601f1916919091016040019291505056fea164736f6c634300080f000aa3f0ad74e5423aebfd80d3ef4346578335a9a72aeaee59ff6cb3582b35133d50426561636f6e50726f78793a2066756e6374696f6e2063616c6c206661696c65644f776e61626c653a2063616c6c6572206973206e6f7420746865206f776e6572a164736f6c634300080f000a",
  "devdoc": {
    "kind": "dev",
    "methods": {
      "__UpgradeableBeacon__init(address)": {
        "details": "Sets the address of the initial implementation, and the deployer account as the owner who can upgrade the beacon."
      },
      "childImplementation()": {
        "details": "Returns the current child implementation address."
      },
      "owner()": {
        "details": "Returns the address of the current owner."
      },
      "renounceOwnership()": {
        "details": "Leaves the contract without owner. It will not be possible to call `onlyOwner` functions anymore. Can only be called by the current owner. NOTE: Renouncing ownership will leave the contract without an owner, thereby removing any functionality that is only available to the owner."
      },
      "transferOwnership(address)": {
        "details": "Transfers ownership of the contract to a new account (`newOwner`). Can only be called by the current owner."
      },
      "upgradeChildTo(address)": {
        "details": "Upgrades the beacon to a new implementation. Emits an {Upgraded} event. Requirements: - msg.sender must be the owner of the contract. - `newChildImplementation` must be a contract."
      }
    },
    "version": 1
  },
  "userdoc": {
    "kind": "user",
    "methods": {},
    "version": 1
  },
  "storageLayout": {
    "storage": [
      {
        "astId": 31626,
        "contract": "src/v2/NFTXVaultFactoryUpgradeable.sol:NFTXVaultFactoryUpgradeable",
        "label": "_initialized",
        "offset": 0,
        "slot": "0",
        "type": "t_bool"
      },
      {
        "astId": 31629,
        "contract": "src/v2/NFTXVaultFactoryUpgradeable.sol:NFTXVaultFactoryUpgradeable",
        "label": "_initializing",
        "offset": 1,
        "slot": "0",
        "type": "t_bool"
      },
      {
        "astId": 35493,
        "contract": "src/v2/NFTXVaultFactoryUpgradeable.sol:NFTXVaultFactoryUpgradeable",
        "label": "__gap",
        "offset": 0,
        "slot": "1",
        "type": "t_array(t_uint256)50_storage"
      },
      {
        "astId": 36259,
        "contract": "src/v2/NFTXVaultFactoryUpgradeable.sol:NFTXVaultFactoryUpgradeable",
        "label": "_owner",
        "offset": 0,
        "slot": "51",
        "type": "t_address"
      },
      {
        "astId": 36378,
        "contract": "src/v2/NFTXVaultFactoryUpgradeable.sol:NFTXVaultFactoryUpgradeable",
        "label": "__gap",
        "offset": 0,
        "slot": "52",
        "type": "t_array(t_uint256)49_storage"
      },
      {
        "astId": 36409,
        "contract": "src/v2/NFTXVaultFactoryUpgradeable.sol:NFTXVaultFactoryUpgradeable",
        "label": "isGuardian",
        "offset": 0,
        "slot": "101",
        "type": "t_mapping(t_address,t_bool)"
      },
      {
        "astId": 36413,
        "contract": "src/v2/NFTXVaultFactoryUpgradeable.sol:NFTXVaultFactoryUpgradeable",
        "label": "isPaused",
        "offset": 0,
        "slot": "102",
        "type": "t_mapping(t_uint256,t_bool)"
      },
      {
        "astId": 32319,
        "contract": "src/v2/NFTXVaultFactoryUpgradeable.sol:NFTXVaultFactoryUpgradeable",
        "label": "_childImplementation",
        "offset": 0,
        "slot": "103",
        "type": "t_address"
      },
      {
        "astId": 25150,
        "contract": "src/v2/NFTXVaultFactoryUpgradeable.sol:NFTXVaultFactoryUpgradeable",
        "label": "NOT_USED1",
        "offset": 0,
        "slot": "104",
        "type": "t_uint256"
      },
      {
        "astId": 25153,
        "contract": "src/v2/NFTXVaultFactoryUpgradeable.sol:NFTXVaultFactoryUpgradeable",
        "label": "zapContract",
        "offset": 0,
        "slot": "105",
        "type": "t_address"
      },
      {
        "astId": 25156,
        "contract": "src/v2/NFTXVaultFactoryUpgradeable.sol:NFTXVaultFactoryUpgradeable",
        "label": "feeDistributor",
        "offset": 0,
        "slot": "106",
        "type": "t_address"
      },
      {
        "astId": 25159,
        "contract": "src/v2/NFTXVaultFactoryUpgradeable.sol:NFTXVaultFactoryUpgradeable",
        "label": "eligibilityManager",
        "offset": 0,
        "slot": "107",
        "type": "t_address"
      },
      {
        "astId": 25163,
        "contract": "src/v2/NFTXVaultFactoryUpgradeable.sol:NFTXVaultFactoryUpgradeable",
        "label": "NOT_USED3",
        "offset": 0,
        "slot": "108",
        "type": "t_mapping(t_uint256,t_address)"
      },
      {
        "astId": 25168,
        "contract": "src/v2/NFTXVaultFactoryUpgradeable.sol:NFTXVaultFactoryUpgradeable",
        "label": "_vaultsForAsset",
        "offset": 0,
        "slot": "109",
        "type": "t_mapping(t_address,t_array(t_address)dyn_storage)"
      },
      {
        "astId": 25171,
        "contract": "src/v2/NFTXVaultFactoryUpgradeable.sol:NFTXVaultFactoryUpgradeable",
        "label": "vaults",
        "offset": 0,
        "slot": "110",
        "type": "t_array(t_address)dyn_storage"
      },
      {
        "astId": 25176,
        "contract": "src/v2/NFTXVaultFactoryUpgradeable.sol:NFTXVaultFactoryUpgradeable",
        "label": "excludedFromFees",
        "offset": 0,
        "slot": "111",
        "type": "t_mapping(t_address,t_bool)"
      },
      {
        "astId": 25194,
        "contract": "src/v2/NFTXVaultFactoryUpgradeable.sol:NFTXVaultFactoryUpgradeable",
        "label": "_vaultFees",
        "offset": 0,
        "slot": "112",
        "type": "t_mapping(t_uint256,t_struct(VaultFees)25189_storage)"
      },
      {
        "astId": 25197,
        "contract": "src/v2/NFTXVaultFactoryUpgradeable.sol:NFTXVaultFactoryUpgradeable",
        "label": "factoryMintFee",
        "offset": 0,
        "slot": "113",
        "type": "t_uint64"
      },
      {
        "astId": 25200,
        "contract": "src/v2/NFTXVaultFactoryUpgradeable.sol:NFTXVaultFactoryUpgradeable",
        "label": "factoryRandomRedeemFee",
        "offset": 8,
        "slot": "113",
        "type": "t_uint64"
      },
      {
        "astId": 25203,
        "contract": "src/v2/NFTXVaultFactoryUpgradeable.sol:NFTXVaultFactoryUpgradeable",
        "label": "factoryTargetRedeemFee",
        "offset": 16,
        "slot": "113",
        "type": "t_uint64"
      },
      {
        "astId": 25206,
        "contract": "src/v2/NFTXVaultFactoryUpgradeable.sol:NFTXVaultFactoryUpgradeable",
        "label": "factoryRandomSwapFee",
        "offset": 24,
        "slot": "113",
        "type": "t_uint64"
      },
      {
        "astId": 25209,
        "contract": "src/v2/NFTXVaultFactoryUpgradeable.sol:NFTXVaultFactoryUpgradeable",
        "label": "factoryTargetSwapFee",
        "offset": 0,
        "slot": "114",
        "type": "t_uint64"
      },
      {
        "astId": 25214,
        "contract": "src/v2/NFTXVaultFactoryUpgradeable.sol:NFTXVaultFactoryUpgradeable",
        "label": "zapContracts",
        "offset": 0,
        "slot": "115",
        "type": "t_mapping(t_address,t_bool)"
      }
    ],
    "types": {
      "t_address": {
        "encoding": "inplace",
        "label": "address",
        "numberOfBytes": "20"
      },
      "t_array(t_address)dyn_storage": {
        "base": "t_address",
        "encoding": "dynamic_array",
        "label": "address[]",
        "numberOfBytes": "32"
      },
      "t_array(t_uint256)49_storage": {
        "base": "t_uint256",
        "encoding": "inplace",
        "label": "uint256[49]",
        "numberOfBytes": "1568"
      },
      "t_array(t_uint256)50_storage": {
        "base": "t_uint256",
        "encoding": "inplace",
        "label": "uint256[50]",
        "numberOfBytes": "1600"
      },
      "t_bool": {
        "encoding": "inplace",
        "label": "bool",
        "numberOfBytes": "1"
      },
      "t_mapping(t_address,t_array(t_address)dyn_storage)": {
        "encoding": "mapping",
        "key": "t_address",
        "label": "mapping(address => address[])",
        "numberOfBytes": "32",
        "value": "t_array(t_address)dyn_storage"
      },
      "t_mapping(t_address,t_bool)": {
        "encoding": "mapping",
        "key": "t_address",
        "label": "mapping(address => bool)",
        "numberOfBytes": "32",
        "value": "t_bool"
      },
      "t_mapping(t_uint256,t_address)": {
        "encoding": "mapping",
        "key": "t_uint256",
        "label": "mapping(uint256 => address)",
        "numberOfBytes": "32",
        "value": "t_address"
      },
      "t_mapping(t_uint256,t_bool)": {
        "encoding": "mapping",
        "key": "t_uint256",
        "label": "mapping(uint256 => bool)",
        "numberOfBytes": "32",
        "value": "t_bool"
      },
      "t_mapping(t_uint256,t_struct(VaultFees)25189_storage)": {
        "encoding": "mapping",
        "key": "t_uint256",
        "label": "mapping(uint256 => struct NFTXVaultFactoryUpgradeable.VaultFees)",
        "numberOfBytes": "32",
        "value": "t_struct(VaultFees)25189_storage"
      },
      "t_struct(VaultFees)25189_storage": {
        "encoding": "inplace",
        "label": "struct NFTXVaultFactoryUpgradeable.VaultFees",
        "members": [
          {
            "astId": 25178,
            "contract": "src/v2/NFTXVaultFactoryUpgradeable.sol:NFTXVaultFactoryUpgradeable",
            "label": "active",
            "offset": 0,
            "slot": "0",
            "type": "t_bool"
          },
          {
            "astId": 25180,
            "contract": "src/v2/NFTXVaultFactoryUpgradeable.sol:NFTXVaultFactoryUpgradeable",
            "label": "mintFee",
            "offset": 1,
            "slot": "0",
            "type": "t_uint64"
          },
          {
            "astId": 25182,
            "contract": "src/v2/NFTXVaultFactoryUpgradeable.sol:NFTXVaultFactoryUpgradeable",
            "label": "randomRedeemFee",
            "offset": 9,
            "slot": "0",
            "type": "t_uint64"
          },
          {
            "astId": 25184,
            "contract": "src/v2/NFTXVaultFactoryUpgradeable.sol:NFTXVaultFactoryUpgradeable",
            "label": "targetRedeemFee",
            "offset": 17,
            "slot": "0",
            "type": "t_uint64"
          },
          {
            "astId": 25186,
            "contract": "src/v2/NFTXVaultFactoryUpgradeable.sol:NFTXVaultFactoryUpgradeable",
            "label": "randomSwapFee",
            "offset": 0,
            "slot": "1",
            "type": "t_uint64"
          },
          {
            "astId": 25188,
            "contract": "src/v2/NFTXVaultFactoryUpgradeable.sol:NFTXVaultFactoryUpgradeable",
            "label": "targetSwapFee",
            "offset": 8,
            "slot": "1",
            "type": "t_uint64"
          }
        ],
        "numberOfBytes": "64"
      },
      "t_uint256": {
        "encoding": "inplace",
        "label": "uint256",
        "numberOfBytes": "32"
      },
      "t_uint64": {
        "encoding": "inplace",
        "label": "uint64",
        "numberOfBytes": "8"
      }
    }
  }
}