{
  "address": "0xd5f7Fe1954C5c772Dd562CbcF1e26a6D75Bc0351",
  "abi": [
    {
      "inputs": [
        {
          "internalType": "contract INonfungiblePositionManager",
          "name": "positionManager_",
          "type": "address"
        },
        {
          "internalType": "contract SwapRouter",
          "name": "router_",
          "type": "address"
        },
        {
          "internalType": "contract IQuoterV2",
          "name": "quoter_",
          "type": "address"
        },
        {
          "internalType": "contract INFTXVaultFactory",
          "name": "nftxVaultFactory_",
          "type": "address"
        }
      ],
      "stateMutability": "nonpayable",
      "type": "constructor"
    },
    {
      "inputs": [],
      "name": "UnableToSendETH",
      "type": "error"
    },
    {
      "anonymous": false,
      "inputs": [
        {
          "indexed": true,
          "internalType": "address",
          "name": "previousOwner",
          "type": "address"
        },
        {
          "indexed": true,
          "internalType": "address",
          "name": "newOwner",
          "type": "address"
        }
      ],
      "name": "OwnershipTransferred",
      "type": "event"
    },
    {
      "inputs": [],
      "name": "CRYPTO_PUNKS",
      "outputs": [
        {
          "internalType": "address",
          "name": "",
          "type": "address"
        }
      ],
      "stateMutability": "view",
      "type": "function"
    },
    {
      "inputs": [],
      "name": "WETH",
      "outputs": [
        {
          "internalType": "address",
          "name": "",
          "type": "address"
        }
      ],
      "stateMutability": "view",
      "type": "function"
    },
    {
      "inputs": [
        {
          "components": [
            {
              "internalType": "address",
              "name": "vtoken",
              "type": "address"
            },
            {
              "internalType": "uint256",
              "name": "vTokensAmount",
              "type": "uint256"
            },
            {
              "internalType": "uint256[]",
              "name": "nftIds",
              "type": "uint256[]"
            },
            {
              "internalType": "int24",
              "name": "tickLower",
              "type": "int24"
            },
            {
              "internalType": "int24",
              "name": "tickUpper",
              "type": "int24"
            },
            {
              "internalType": "uint24",
              "name": "fee",
              "type": "uint24"
            },
            {
              "internalType": "uint160",
              "name": "sqrtPriceX96",
              "type": "uint160"
            },
            {
              "internalType": "uint256",
              "name": "deadline",
              "type": "uint256"
            }
          ],
          "internalType": "struct INFTXRouter.AddLiquidityParams",
          "name": "params",
          "type": "tuple"
        }
      ],
      "name": "addLiquidity",
      "outputs": [
        {
          "internalType": "uint256",
          "name": "positionId",
          "type": "uint256"
        }
      ],
      "stateMutability": "payable",
      "type": "function"
    },
    {
      "inputs": [
        {
          "components": [
            {
              "internalType": "address",
              "name": "vtoken",
              "type": "address"
            },
            {
              "internalType": "uint256[]",
              "name": "nftIds",
              "type": "uint256[]"
            },
            {
              "internalType": "uint256",
              "name": "deadline",
              "type": "uint256"
            },
            {
              "internalType": "uint24",
              "name": "fee",
              "type": "uint24"
            },
            {
              "internalType": "uint160",
              "name": "sqrtPriceLimitX96",
              "type": "uint160"
            }
          ],
          "internalType": "struct INFTXRouter.BuyNFTsParams",
          "name": "params",
          "type": "tuple"
        }
      ],
      "name": "buyNFTs",
      "outputs": [],
      "stateMutability": "payable",
      "type": "function"
    },
    {
      "inputs": [
        {
          "internalType": "address",
          "name": "vToken_",
          "type": "address"
        },
        {
          "internalType": "uint24",
          "name": "fee",
          "type": "uint24"
        }
      ],
      "name": "computePool",
      "outputs": [
        {
          "internalType": "address",
          "name": "",
          "type": "address"
        }
      ],
      "stateMutability": "view",
      "type": "function"
    },
    {
      "inputs": [
        {
          "internalType": "address",
          "name": "vToken_",
          "type": "address"
        },
        {
          "internalType": "uint24",
          "name": "fee",
          "type": "uint24"
        }
      ],
      "name": "getPool",
      "outputs": [
        {
          "internalType": "address",
          "name": "pool",
          "type": "address"
        }
      ],
      "stateMutability": "view",
      "type": "function"
    },
    {
      "inputs": [
        {
          "internalType": "uint256",
          "name": "vaultId",
          "type": "uint256"
        },
        {
          "internalType": "uint24",
          "name": "fee",
          "type": "uint24"
        }
      ],
      "name": "getPoolExists",
      "outputs": [
        {
          "internalType": "address",
          "name": "pool",
          "type": "address"
        },
        {
          "internalType": "bool",
          "name": "exists",
          "type": "bool"
        }
      ],
      "stateMutability": "view",
      "type": "function"
    },
    {
      "inputs": [
        {
          "internalType": "address",
          "name": "vtoken",
          "type": "address"
        }
      ],
      "name": "isVToken0",
      "outputs": [
        {
          "internalType": "bool",
          "name": "",
          "type": "bool"
        }
      ],
      "stateMutability": "view",
      "type": "function"
    },
    {
      "inputs": [],
      "name": "nftxVaultFactory",
      "outputs": [
        {
          "internalType": "contract INFTXVaultFactory",
          "name": "",
          "type": "address"
        }
      ],
      "stateMutability": "view",
      "type": "function"
    },
    {
      "inputs": [
        {
          "internalType": "address",
          "name": "",
          "type": "address"
        },
        {
          "internalType": "address",
          "name": "",
          "type": "address"
        },
        {
          "internalType": "uint256",
          "name": "",
          "type": "uint256"
        },
        {
          "internalType": "bytes",
          "name": "",
          "type": "bytes"
        }
      ],
      "name": "onERC721Received",
      "outputs": [
        {
          "internalType": "bytes4",
          "name": "",
          "type": "bytes4"
        }
      ],
      "stateMutability": "nonpayable",
      "type": "function"
    },
    {
      "inputs": [],
      "name": "owner",
      "outputs": [
        {
          "internalType": "address",
          "name": "",
          "type": "address"
        }
      ],
      "stateMutability": "view",
      "type": "function"
    },
    {
      "inputs": [],
      "name": "positionManager",
      "outputs": [
        {
          "internalType": "contract INonfungiblePositionManager",
          "name": "",
          "type": "address"
        }
      ],
      "stateMutability": "view",
      "type": "function"
    },
    {
      "inputs": [
        {
          "internalType": "address",
          "name": "vtoken",
          "type": "address"
        },
        {
          "internalType": "uint256[]",
          "name": "nftIds",
          "type": "uint256[]"
        },
        {
          "internalType": "uint24",
          "name": "fee",
          "type": "uint24"
        },
        {
          "internalType": "uint160",
          "name": "sqrtPriceLimitX96",
          "type": "uint160"
        }
      ],
      "name": "quoteBuyNFTs",
      "outputs": [
        {
          "internalType": "uint256",
          "name": "ethRequired",
          "type": "uint256"
        }
      ],
      "stateMutability": "nonpayable",
      "type": "function"
    },
    {
      "inputs": [],
      "name": "quoter",
      "outputs": [
        {
          "internalType": "contract IQuoterV2",
          "name": "",
          "type": "address"
        }
      ],
      "stateMutability": "view",
      "type": "function"
    },
    {
      "inputs": [
        {
          "components": [
            {
              "internalType": "uint256",
              "name": "positionId",
              "type": "uint256"
            },
            {
              "internalType": "address",
              "name": "vtoken",
              "type": "address"
            },
            {
              "internalType": "uint256[]",
              "name": "nftIds",
              "type": "uint256[]"
            },
            {
              "internalType": "bool",
              "name": "receiveVTokens",
              "type": "bool"
            },
            {
              "internalType": "uint128",
              "name": "liquidity",
              "type": "uint128"
            },
            {
              "internalType": "uint24",
              "name": "swapPoolFee",
              "type": "uint24"
            },
            {
              "internalType": "uint256",
              "name": "amount0Min",
              "type": "uint256"
            },
            {
              "internalType": "uint256",
              "name": "amount1Min",
              "type": "uint256"
            },
            {
              "internalType": "uint256",
              "name": "deadline",
              "type": "uint256"
            }
          ],
          "internalType": "struct INFTXRouter.RemoveLiquidityParams",
          "name": "params",
          "type": "tuple"
        }
      ],
      "name": "removeLiquidity",
      "outputs": [],
      "stateMutability": "nonpayable",
      "type": "function"
    },
    {
      "inputs": [],
      "name": "renounceOwnership",
      "outputs": [],
      "stateMutability": "nonpayable",
      "type": "function"
    },
    {
      "inputs": [
        {
          "internalType": "contract IERC20",
          "name": "token",
          "type": "address"
        }
      ],
      "name": "rescueTokens",
      "outputs": [],
      "stateMutability": "nonpayable",
      "type": "function"
    },
    {
      "inputs": [],
      "name": "router",
      "outputs": [
        {
          "internalType": "contract SwapRouter",
          "name": "",
          "type": "address"
        }
      ],
      "stateMutability": "view",
      "type": "function"
    },
    {
      "inputs": [
        {
          "components": [
            {
              "internalType": "address",
              "name": "vtoken",
              "type": "address"
            },
            {
              "internalType": "uint256[]",
              "name": "nftIds",
              "type": "uint256[]"
            },
            {
              "internalType": "uint256",
              "name": "deadline",
              "type": "uint256"
            },
            {
              "internalType": "uint24",
              "name": "fee",
              "type": "uint24"
            },
            {
              "internalType": "uint256",
              "name": "amountOutMinimum",
              "type": "uint256"
            },
            {
              "internalType": "uint160",
              "name": "sqrtPriceLimitX96",
              "type": "uint160"
            }
          ],
          "internalType": "struct INFTXRouter.SellNFTsParams",
          "name": "params",
          "type": "tuple"
        }
      ],
      "name": "sellNFTs",
      "outputs": [
        {
          "internalType": "uint256",
          "name": "wethReceived",
          "type": "uint256"
        }
      ],
      "stateMutability": "nonpayable",
      "type": "function"
    },
    {
      "inputs": [
        {
          "internalType": "address",
          "name": "newOwner",
          "type": "address"
        }
      ],
      "name": "transferOwnership",
      "outputs": [],
      "stateMutability": "nonpayable",
      "type": "function"
    },
    {
      "stateMutability": "payable",
      "type": "receive"
    }
  ],
  "transactionHash": "0x649d40e7914dcf983c4589424991e8228483d52fe2f04687efb9f4ef44ea9328",
  "args": [
    "0x7398417C94D02556c371fe1e7a11D1bddAFE73F3",
    "0xA2D1e7c0E7D3eD6B485f3Fe8533Fa5667b5Ec1ba",
    "0x009941e51253244349c6034761382b01f06dBA99",
    "0x666738678c6FbdE71bb7Ca7B4DD1d41AFF218d7F"
  ],
  "numDeployments": 5,
  "solcInputHash": "94ae116036003a31596d02f92da6e647",
  "bytecode": "0x6101206040523480156200001257600080fd5b506040516200363e3803806200363e833981016040819052620000359162000145565b6200004033620000dc565b6001600160a01b0380851660a081905284821660c05283821660e05290821661010052604080516312a9293f60e21b81529051634aa4a4fc916004808201926020929091908290030181865afa1580156200009f573d6000803e3d6000fd5b505050506040513d601f19601f82011682018060405250810190620000c59190620001ad565b6001600160a01b031660805250620001d492505050565b600080546001600160a01b038381166001600160a01b0319831681178455604051919092169283917f8be0079c531659141344cd1fd0a4f28419497f9722a3daafe3b4186f6b6457e09190a35050565b6001600160a01b03811681146200014257600080fd5b50565b600080600080608085870312156200015c57600080fd5b845162000169816200012c565b60208601519094506200017c816200012c565b60408601519093506200018f816200012c565b6060860151909250620001a2816200012c565b939692955090935050565b600060208284031215620001c057600080fd5b8151620001cd816200012c565b9392505050565b60805160a05160c05160e0516101005161335a620002e4600039600081816102d001526106620152600081816103e501526108da015260008181610479015281816106f301528181610b5501528181610bea015281816116580152818161185401528181611be301528181611c6601528181612000015261214101526000818161032c015281816110b2015281816111be0152818161130101528181611455015281816118be0152611a610152600081816103b1015281816104c0015281816107920152818161085401528181610c2e01528181610d300152818161114f0152818161118f0152818161169401528181611cc101528181611f260152818161209f01526121c7015261335a6000f3fe6080604052600436106101625760003560e01c80637ca3d2f8116100c0578063c8a2818411610074578063f2fde38b11610059578063f2fde38b14610447578063f887ea4014610467578063f932e32a1461049b57600080fd5b8063c8a2818414610407578063de6a4abf1461042757600080fd5b80639519cc2b116100a55780639519cc2b1461037f578063ad5c46481461039f578063c6bbd5a7146103d357600080fd5b80637ca3d2f81461034e5780638da5cb5b1461036157600080fd5b80631d328136116101175780636efdf4ce116100fc5780636efdf4ce146102f2578063715018a614610305578063791b98bc1461031a57600080fd5b80631d3281361461027e5780633801daf1146102be57600080fd5b806306eba3521161014857806306eba352146101d4578063089be64c14610202578063150b7a021461022257600080fd5b8062ae3bf81461016e5780630500a30e1461019057600080fd5b3661016957005b600080fd5b34801561017a57600080fd5b5061018e610189366004612a21565b6104f7565b005b34801561019c57600080fd5b506101b06101ab366004612a56565b61065b565b604080516001600160a01b0390931683529015156020830152015b60405180910390f35b3480156101e057600080fd5b506101f46101ef366004612af8565b610828565b6040519081526020016101cb565b34801561020e57600080fd5b506101f461021d366004612bc4565b610955565b34801561022e57600080fd5b5061024d61023d366004612bff565b630a85bd0160e11b949350505050565b6040517fffffffff0000000000000000000000000000000000000000000000000000000090911681526020016101cb565b34801561028a57600080fd5b506102a673b47e3cd837ddf8e4c57f05d70ab865de6e193bbb81565b6040516001600160a01b0390911681526020016101cb565b3480156102ca57600080fd5b506102a67f000000000000000000000000000000000000000000000000000000000000000081565b6101f4610300366004612cc3565b610e06565b34801561031157600080fd5b5061018e6115cc565b34801561032657600080fd5b506102a67f000000000000000000000000000000000000000000000000000000000000000081565b61018e61035c366004612cff565b611632565b34801561036d57600080fd5b506000546001600160a01b03166102a6565b34801561038b57600080fd5b5061018e61039a366004612d3a565b6118bc565b3480156103ab57600080fd5b506102a67f000000000000000000000000000000000000000000000000000000000000000081565b3480156103df57600080fd5b506102a67f000000000000000000000000000000000000000000000000000000000000000081565b34801561041357600080fd5b506102a6610422366004612d76565b611ffc565b34801561043357600080fd5b506102a6610442366004612d76565b61213a565b34801561045357600080fd5b5061018e610462366004612a21565b6121f8565b34801561047357600080fd5b506102a67f000000000000000000000000000000000000000000000000000000000000000081565b3480156104a757600080fd5b506104e76104b6366004612a21565b6001600160a01b037f0000000000000000000000000000000000000000000000000000000000000000811691161090565b60405190151581526020016101cb565b6000546001600160a01b031633146105565760405162461bcd60e51b815260206004820181905260248201527f4f776e61626c653a2063616c6c6572206973206e6f7420746865206f776e657260448201526064015b60405180910390fd5b6001600160a01b038116156105ea576040516370a0823160e01b81523060048201526000906001600160a01b038316906370a0823190602401602060405180830381865afa1580156105ac573d6000803e3d6000fd5b505050506040513d601f19601f820116820180604052508101906105d09190612da2565b90506105e66001600160a01b03831633836122d7565b5050565b6040514790600090339083908381818185875af1925050503d806000811461062e576040519150601f19603f3d011682016040523d82523d6000602084013e610633565b606091505b50509050806106555760405163260e7d5b60e11b815260040160405180910390fd5b50505b50565b60008060007f00000000000000000000000000000000000000000000000000000000000000006001600160a01b03166381a36fb6866040518263ffffffff1660e01b81526004016106ae91815260200190565b602060405180830381865afa1580156106cb573d6000803e3d6000fd5b505050506040513d601f19601f820116820180604052508101906106ef9190612dbb565b90507f00000000000000000000000000000000000000000000000000000000000000006001600160a01b031663c45a01556040518163ffffffff1660e01b8152600401602060405180830381865afa15801561074f573d6000803e3d6000fd5b505050506040513d601f19601f820116820180604052508101906107739190612dbb565b604051630b4c774160e11b81526001600160a01b0383811660048301527f00000000000000000000000000000000000000000000000000000000000000008116602483015262ffffff871660448301529190911690631698ee8290606401602060405180830381865afa1580156107ee573d6000803e3d6000fd5b505050506040513d601f19601f820116820180604052508101906108129190612dbb565b956001600160a01b038716151595509350505050565b6000808451670de0b6b3a76400006108409190612dee565b6040805160a0810182526001600160a01b037f0000000000000000000000000000000000000000000000000000000000000000811682528981166020830190815282840185815262ffffff8a8116606086019081528a8516608087019081529651635e90b82560e11b81529551851660048701529251841660248601529051604485015290511660648301529151821660848201529192507f0000000000000000000000000000000000000000000000000000000000000000169063bd21704a9060a4016080604051808303816000875af1158015610923573d6000803e3d6000fd5b505050506040513d601f19601f820116820180604052508101906109479190612e0d565b509198975050505050505050565b6000806109656020840184612a21565b6001600160a01b0316631ba46cfd6040518163ffffffff1660e01b8152600401602060405180830381865afa1580156109a2573d6000803e3d6000fd5b505050506040513d601f19601f820116820180604052508101906109c69190612dbb565b905060005b6109d86020850185612e5f565b9050811015610a8e57610a21826109f26020870187612e5f565b84818110610a0257610a02612eb0565b90506020020135866000016020810190610a1c9190612a21565b612329565b73b47e3cd837ddf8e4c57f05d70ab865de6e193bba196001600160a01b03831601610a8657610a8682610a576020870187612e5f565b84818110610a6757610a67612eb0565b90506020020135866000016020810190610a819190612a21565b61257e565b6001016109cb565b5060606000610aa06020860186612a21565b6001600160a01b0316633d5d190c610abb6020880188612e5f565b856040518463ffffffff1660e01b8152600401610ada93929190612f15565b6020604051808303816000875af1158015610af9573d6000803e3d6000fd5b505050506040513d601f19601f82011682018060405250810190610b1d9190612da2565b610b2f90670de0b6b3a7640000612dee565b9050610b3e6020860186612a21565b60405163095ea7b360e01b81526001600160a01b037f00000000000000000000000000000000000000000000000000000000000000008116600483015260248201849052919091169063095ea7b3906044016020604051808303816000875af1158015610baf573d6000803e3d6000fd5b505050506040513d601f19601f82011682018060405250810190610bd39190612f7c565b506040805161010081019091526001600160a01b037f0000000000000000000000000000000000000000000000000000000000000000169063414bf3899080610c1f60208a018a612a21565b6001600160a01b0390811682527f0000000000000000000000000000000000000000000000000000000000000000166020820152604001610c6660808a0160608b01612f99565b62ffffff168152602001306001600160a01b0316815260200188604001358152602001848152602001886080013581526020018860a0016020810190610cac9190612a21565b6001600160a01b03168152506040518263ffffffff1660e01b8152600401610cd49190612fb4565b6020604051808303816000875af1158015610cf3573d6000803e3d6000fd5b505050506040513d601f19601f82011682018060405250810190610d179190612da2565b604051632e1a7d4d60e01b8152600481018290529094507f00000000000000000000000000000000000000000000000000000000000000006001600160a01b031690632e1a7d4d90602401600060405180830381600087803b158015610d7c57600080fd5b505af1158015610d90573d6000803e3d6000fd5b50506040516000925033915086908381818185875af1925050503d8060008114610dd6576040519150601f19603f3d011682016040523d82523d6000602084013e610ddb565b606091505b5050905080610dfd5760405163260e7d5b60e11b815260040160405180910390fd5b50505050919050565b600060208201358015610e9b57610e206020840184612a21565b6040516323b872dd60e01b8152336004820152306024820152604481018390526001600160a01b0391909116906323b872dd906064016020604051808303816000875af1158015610e75573d6000803e3d6000fd5b505050506040513d601f19601f82011682018060405250810190610e999190612f7c565b505b6000610eaa6040850185612e5f565b9050111561108e576000610ec16020850185612a21565b6001600160a01b0316631ba46cfd6040518163ffffffff1660e01b8152600401602060405180830381865afa158015610efe573d6000803e3d6000fd5b505050506040513d601f19601f82011682018060405250810190610f229190612dbb565b905060005b610f346040860186612e5f565b9050811015610fe057610f7882610f4e6040880188612e5f565b84818110610f5e57610f5e612eb0565b90506020020135876000016020810190610a1c9190612a21565b73b47e3cd837ddf8e4c57f05d70ab865de6e193bba196001600160a01b03831601610fd857610fd882610fae6040880188612e5f565b84818110610fbe57610fbe612eb0565b90506020020135876000016020810190610a819190612a21565b600101610f27565b506060610ff06020860186612a21565b6001600160a01b0316633d5d190c61100b6040880188612e5f565b846040518463ffffffff1660e01b815260040161102a93929190612f15565b6020604051808303816000875af1158015611049573d6000803e3d6000fd5b505050506040513d601f19601f8201168201806040525081019061106d9190612da2565b61107f90670de0b6b3a7640000612dee565b6110899084613022565b925050505b61109b6020840184612a21565b60405163095ea7b360e01b81526001600160a01b037f00000000000000000000000000000000000000000000000000000000000000008116600483015260248201849052919091169063095ea7b3906044016020604051808303816000875af115801561110c573d6000803e3d6000fd5b505050506040513d601f19601f820116820180604052508101906111309190612f7c565b5060006111436104b66020860186612a21565b905060008082611180577f000000000000000000000000000000000000000000000000000000000000000061117b6020880188612a21565b6111af565b61118d6020870187612a21565b7f00000000000000000000000000000000000000000000000000000000000000005b90925090506001600160a01b037f0000000000000000000000000000000000000000000000000000000000000000166313ead56283836111f560c08b0160a08c01612f99565b61120560e08c0160c08d01612a21565b6040517fffffffff0000000000000000000000000000000000000000000000000000000060e087901b1681526001600160a01b039485166004820152928416602484015262ffffff90911660448301529190911660648201526084016020604051808303816000875af1158015611280573d6000803e3d6000fd5b505050506040513d601f19601f820116820180604052508101906112a49190612dbb565b5060008060008086156112da5787935061138888116112c45760006112d0565b6112d06113888961303a565b91503492506112ff565b34935087925061138888116112f05760006112fc565b6112fc6113888961303a565b90505b7f00000000000000000000000000000000000000000000000000000000000000006001600160a01b03166388316456346040518061016001604052808a6001600160a01b03168152602001896001600160a01b031681526020018e60a001602081019061136c9190612f99565b62ffffff1681526020018e60600160208101906113899190613051565b60020b81526020018e60800160208101906113a49190613051565b60020b8152602001888152602001878152602001868152602001858152602001336001600160a01b031681526020018e60e001358152506040518363ffffffff1660e01b81526004016113f79190613074565b60806040518083038185885af1158015611415573d6000803e3d6000fd5b50505050506040513d601f19601f8201168201806040525081019061143a9190613156565b505060405163073db96d60e21b8152336004820152919a50507f00000000000000000000000000000000000000000000000000000000000000006001600160a01b031690631cf6e5b490602401600060405180830381600087803b1580156114a157600080fd5b505af11580156114b5573d6000803e3d6000fd5b50600092506114ca91505060208c018c612a21565b6040516370a0823160e01b81523060048201526001600160a01b0391909116906370a0823190602401602060405180830381865afa158015611510573d6000803e3d6000fd5b505050506040513d601f19601f820116820180604052508101906115349190612da2565b905080156115be5761154960208c018c612a21565b60405163a9059cbb60e01b8152336004820152602481018390526001600160a01b03919091169063a9059cbb906044016020604051808303816000875af1158015611598573d6000803e3d6000fd5b505050506040513d601f19601f820116820180604052508101906115bc9190612f7c565b505b505050505050505050919050565b6000546001600160a01b031633146116265760405162461bcd60e51b815260206004820181905260248201527f4f776e61626c653a2063616c6c6572206973206e6f7420746865206f776e6572604482015260640161054d565b61163060006125ed565b565b60006116416020830183612e5f565b6116549150670de0b6b3a7640000612dee565b90507f00000000000000000000000000000000000000000000000000000000000000006001600160a01b031663db3e2198346040518061010001604052807f00000000000000000000000000000000000000000000000000000000000000006001600160a01b031681526020018660000160208101906116d49190612a21565b6001600160a01b031681526020016116f26080880160608901612f99565b62ffffff168152602001306001600160a01b03168152602001866040013581526020018581526020013481526020018660800160208101906117349190612a21565b6001600160a01b03168152506040518363ffffffff1660e01b815260040161175c9190612fb4565b60206040518083038185885af115801561177a573d6000803e3d6000fd5b50505050506040513d601f19601f8201168201806040525081019061179f9190612da2565b506117ad6020830183612a21565b6001600160a01b0316639d54def66117c86020850185612e5f565b90506117d76020860186612e5f565b336040518563ffffffff1660e01b81526004016117f79493929190613194565b6000604051808303816000875af1158015611816573d6000803e3d6000fd5b505050506040513d6000823e601f3d908101601f1916820160405261183e91908101906131c8565b5060405163073db96d60e21b81523360048201527f00000000000000000000000000000000000000000000000000000000000000006001600160a01b031690631cf6e5b490602401600060405180830381600087803b1580156118a057600080fd5b505af11580156118b4573d6000803e3d6000fd5b505050505050565b7f00000000000000000000000000000000000000000000000000000000000000006001600160a01b0316630c49ccbe6040518060a0016040528084600001358152602001846080016020810190611913919061324e565b6fffffffffffffffffffffffffffffffff1681526020018460c0013581526020018460e0013581526020018461010001358152506040518263ffffffff1660e01b81526004016119aa9190600060a082019050825182526fffffffffffffffffffffffffffffffff602084015116602083015260408301516040830152606083015160608301526080830151608083015292915050565b60408051808303816000875af11580156119c8573d6000803e3d6000fd5b505050506040513d601f19601f820116820180604052508101906119ec919061326b565b5050604080516080810182528235815230602082019081526fffffffffffffffffffffffffffffffff82840181815260608401828152945163fc6f786560e01b81529351600485015291516001600160a01b0390811660248501529151811660448401529251909216606482015260009182917f00000000000000000000000000000000000000000000000000000000000000009091169063fc6f78659060840160408051808303816000875af1158015611aab573d6000803e3d6000fd5b505050506040513d601f19601f82011682018060405250810190611acf919061326b565b90925090506000611ae96104b66040860160208701612a21565b905060008082611afa578385611afd565b84845b9092509050611b12608087016060880161328f565b15611ba057611b276040870160208801612a21565b60405163a9059cbb60e01b8152336004820152602481018490526001600160a01b03919091169063a9059cbb906044016020604051808303816000875af1158015611b76573d6000803e3d6000fd5b505050506040513d601f19601f82011682018060405250810190611b9a9190612f7c565b50611f10565b6000611bb4670de0b6b3a7640000846132ac565b90508015611f0e57611bcc6040880160208901612a21565b60405163095ea7b360e01b81526001600160a01b037f00000000000000000000000000000000000000000000000000000000000000008116600483015260248201849052919091169063095ea7b3906044016020604051808303816000875af1158015611c3d573d6000803e3d6000fd5b505050506040513d601f19601f82011682018060405250810190611c619190612f7c565b5060007f00000000000000000000000000000000000000000000000000000000000000006001600160a01b031663414bf3896040518061010001604052808b6020016020810190611cb29190612a21565b6001600160a01b0390811682527f0000000000000000000000000000000000000000000000000000000000000000166020820152604001611cf960c08d0160a08e01612f99565b62ffffff168152602001306001600160a01b031681526020014281526020018581526020016000815260200160006001600160a01b03168152506040518263ffffffff1660e01b8152600401611d4f9190612fb4565b6020604051808303816000875af1158015611d6e573d6000803e3d6000fd5b505050506040513d601f19601f82011682018060405250810190611d929190612da2565b9050611d9e8184613022565b9250611db06040890160208a01612a21565b6001600160a01b0316639d54def6611dcb60408b018b612e5f565b9050611dda60408c018c612e5f565b336040518563ffffffff1660e01b8152600401611dfa9493929190613194565b6000604051808303816000875af1158015611e19573d6000803e3d6000fd5b505050506040513d6000823e601f3d908101601f19168201604052611e4191908101906131c8565b506000611e5160408a018a612e5f565b611e649150670de0b6b3a7640000612dee565b9050600081611e73858861303a565b611e7d919061303a565b90508015611f0a57611e9560408b0160208c01612a21565b60405163a9059cbb60e01b8152336004820152602481018390526001600160a01b03919091169063a9059cbb906044016020604051808303816000875af1158015611ee4573d6000803e3d6000fd5b505050506040513d601f19601f82011682018060405250810190611f089190612f7c565b505b5050505b505b604051632e1a7d4d60e01b8152600481018290527f00000000000000000000000000000000000000000000000000000000000000006001600160a01b031690632e1a7d4d90602401600060405180830381600087803b158015611f7257600080fd5b505af1158015611f86573d6000803e3d6000fd5b50506040516000925033915083908381818185875af1925050503d8060008114611fcc576040519150601f19603f3d011682016040523d82523d6000602084013e611fd1565b606091505b5050905080611ff35760405163260e7d5b60e11b815260040160405180910390fd5b50505050505050565b60007f00000000000000000000000000000000000000000000000000000000000000006001600160a01b031663c45a01556040518163ffffffff1660e01b8152600401602060405180830381865afa15801561205c573d6000803e3d6000fd5b505050506040513d601f19601f820116820180604052508101906120809190612dbb565b604051630b4c774160e11b81526001600160a01b0385811660048301527f00000000000000000000000000000000000000000000000000000000000000008116602483015262ffffff851660448301529190911690631698ee8290606401602060405180830381865afa1580156120fb573d6000803e3d6000fd5b505050506040513d601f19601f8201168201806040525081019061211f9190612dbb565b90506001600160a01b03811661213457600080fd5b92915050565b60006121f17f00000000000000000000000000000000000000000000000000000000000000006001600160a01b031663c45a01556040518163ffffffff1660e01b8152600401602060405180830381865afa15801561219d573d6000803e3d6000fd5b505050506040513d601f19601f820116820180604052508101906121c19190612dbb565b6121ec857f000000000000000000000000000000000000000000000000000000000000000086612655565b6126c0565b9392505050565b6000546001600160a01b031633146122525760405162461bcd60e51b815260206004820181905260248201527f4f776e61626c653a2063616c6c6572206973206e6f7420746865206f776e6572604482015260640161054d565b6001600160a01b0381166122ce5760405162461bcd60e51b815260206004820152602660248201527f4f776e61626c653a206e6577206f776e657220697320746865207a65726f206160448201527f6464726573730000000000000000000000000000000000000000000000000000606482015260840161054d565b610658816125ed565b604080516001600160a01b038416602482015260448082018490528251808303909101815260649091019091526020810180516001600160e01b031663a9059cbb60e01b179052610655908490612765565b60606001600160a01b03841673b47e3cd837ddf8e4c57f05d70ab865de6e193bbb146123a2576040513360248201526001600160a01b03831660448201526064810184905260840160408051601f198184030181529190526020810180516001600160e01b0316632142170760e11b17905290506124fc565b6000836040516024016123b791815260200190565b60408051601f198184030181529181526020820180516001600160e01b0316630b02f02d60e31b1790525190915060009081906001600160a01b038816906124009085906132fe565b600060405180830381855afa9150503d806000811461243b576040519150601f19603f3d011682016040523d82523d6000602084013e612440565b606091505b509150915060008180602001905181019061245b9190612dbb565b905082801561247257506001600160a01b03811633145b6124be5760405162461bcd60e51b815260206004820152601160248201527f4e6f7420746865204e4654206f776e6572000000000000000000000000000000604482015260640161054d565b6040516024810188905260440160408051601f198184030181529190526020810180516001600160e01b031663104c9fd360e31b1790529450505050505b600080856001600160a01b03168360405161251791906132fe565b6000604051808303816000865af19150503d8060008114612554576040519150601f19603f3d011682016040523d82523d6000602084013e612559565b606091505b5091509150818190611ff35760405162461bcd60e51b815260040161054d919061331a565b604051602481018390526000604482018190526001600160a01b03831660648301529060840160408051601f198184030181529181526020820180516001600160e01b031663bf31196f60e01b1790525190915060009081906001600160a01b038716906125179085906132fe565b600080546001600160a01b038381167fffffffffffffffffffffffff0000000000000000000000000000000000000000831681178455604051919092169283917f8be0079c531659141344cd1fd0a4f28419497f9722a3daafe3b4186f6b6457e09190a35050565b6040805160608101825260008082526020820181905291810191909152826001600160a01b0316846001600160a01b03161115612690579192915b50604080516060810182526001600160a01b03948516815292909316602083015262ffffff169181019190915290565b600081602001516001600160a01b031682600001516001600160a01b0316106126e857600080fd5b815160208084015160408086015181516001600160a01b0395861694810194909452939091169082015262ffffff90911660608201526121f190608001604051602081830303815290604052805190602001207f25e3ec08b5481ab6736bacbc1babb737902563de379be5263db365452e048cc160001b8561284a565b60006127ba826040518060400160405280602081526020017f5361666545524332303a206c6f772d6c6576656c2063616c6c206661696c6564815250856001600160a01b03166128749092919063ffffffff16565b80519091501561065557808060200190518101906127d89190612f7c565b6106555760405162461bcd60e51b815260206004820152602a60248201527f5361666545524332303a204552433230206f7065726174696f6e20646964206e60448201527f6f74207375636365656400000000000000000000000000000000000000000000606482015260840161054d565b6000604051836040820152846020820152828152600b8101905060ff815360559020949350505050565b6060612883848460008561288b565b949350505050565b6060824710156129035760405162461bcd60e51b815260206004820152602660248201527f416464726573733a20696e73756666696369656e742062616c616e636520666f60448201527f722063616c6c0000000000000000000000000000000000000000000000000000606482015260840161054d565b6001600160a01b0385163b61295a5760405162461bcd60e51b815260206004820152601d60248201527f416464726573733a2063616c6c20746f206e6f6e2d636f6e7472616374000000604482015260640161054d565b600080866001600160a01b0316858760405161297691906132fe565b60006040518083038185875af1925050503d80600081146129b3576040519150601f19603f3d011682016040523d82523d6000602084013e6129b8565b606091505b50915091506129c88282866129d3565b979650505050505050565b606083156129e25750816121f1565b8251156129f25782518084602001fd5b8160405162461bcd60e51b815260040161054d919061331a565b6001600160a01b038116811461065857600080fd5b600060208284031215612a3357600080fd5b81356121f181612a0c565b803562ffffff81168114612a5157600080fd5b919050565b60008060408385031215612a6957600080fd5b82359150612a7960208401612a3e565b90509250929050565b634e487b7160e01b600052604160045260246000fd5b604051601f8201601f1916810167ffffffffffffffff81118282101715612ac157612ac1612a82565b604052919050565b600067ffffffffffffffff821115612ae357612ae3612a82565b5060051b60200190565b8035612a5181612a0c565b60008060008060808587031215612b0e57600080fd5b8435612b1981612a0c565b935060208581013567ffffffffffffffff811115612b3657600080fd5b8601601f81018813612b4757600080fd5b8035612b5a612b5582612ac9565b612a98565b81815260059190911b8201830190838101908a831115612b7957600080fd5b928401925b82841015612b9757833582529284019290840190612b7e565b8097505050505050612bab60408601612a3e565b9150612bb960608601612aed565b905092959194509250565b600060208284031215612bd657600080fd5b813567ffffffffffffffff811115612bed57600080fd5b820160c081850312156121f157600080fd5b60008060008060808587031215612c1557600080fd5b8435612c2081612a0c565b9350602085810135612c3181612a0c565b935060408601359250606086013567ffffffffffffffff80821115612c5557600080fd5b818801915088601f830112612c6957600080fd5b813581811115612c7b57612c7b612a82565b612c8d601f8201601f19168501612a98565b91508082528984828501011115612ca357600080fd5b808484018584013760008482840101525080935050505092959194509250565b600060208284031215612cd557600080fd5b813567ffffffffffffffff811115612cec57600080fd5b820161010081850312156121f157600080fd5b600060208284031215612d1157600080fd5b813567ffffffffffffffff811115612d2857600080fd5b820160a081850312156121f157600080fd5b600060208284031215612d4c57600080fd5b813567ffffffffffffffff811115612d6357600080fd5b820161012081850312156121f157600080fd5b60008060408385031215612d8957600080fd5b8235612d9481612a0c565b9150612a7960208401612a3e565b600060208284031215612db457600080fd5b5051919050565b600060208284031215612dcd57600080fd5b81516121f181612a0c565b634e487b7160e01b600052601160045260246000fd5b6000816000190483118215151615612e0857612e08612dd8565b500290565b60008060008060808587031215612e2357600080fd5b845193506020850151612e3581612a0c565b604086015190935063ffffffff81168114612e4f57600080fd5b6060959095015193969295505050565b6000808335601e19843603018112612e7657600080fd5b83018035915067ffffffffffffffff821115612e9157600080fd5b6020019150600581901b3603821315612ea957600080fd5b9250929050565b634e487b7160e01b600052603260045260246000fd5b81835260007f07ffffffffffffffffffffffffffffffffffffffffffffffffffffffffffffff831115612ef857600080fd5b8260051b8083602087013760009401602001938452509192915050565b604081526000612f29604083018587612ec6565b82810360208481019190915284518083528582019282019060005b81811015612f6057845183529383019391830191600101612f44565b509098975050505050505050565b801515811461065857600080fd5b600060208284031215612f8e57600080fd5b81516121f181612f6e565b600060208284031215612fab57600080fd5b6121f182612a3e565b610100810161213482846001600160a01b0380825116835280602083015116602084015262ffffff60408301511660408401528060608301511660608401526080820151608084015260a082015160a084015260c082015160c08401528060e08301511660e0840152505050565b6000821982111561303557613035612dd8565b500190565b60008282101561304c5761304c612dd8565b500390565b60006020828403121561306357600080fd5b81358060020b81146121f157600080fd5b81516001600160a01b03168152610160810160208301516130a060208401826001600160a01b03169052565b5060408301516130b7604084018262ffffff169052565b5060608301516130cc606084018260020b9052565b5060808301516130e1608084018260020b9052565b5060a083015160a083015260c083015160c083015260e083015160e083015261010080840151818401525061012080840151613127828501826001600160a01b03169052565b505061014092830151919092015290565b6fffffffffffffffffffffffffffffffff8116811461065857600080fd5b6000806000806080858703121561316c57600080fd5b84519350602085015161317e81613138565b6040860151606090960151949790965092505050565b8481526060602082015260006131ae606083018587612ec6565b90506001600160a01b038316604083015295945050505050565b600060208083850312156131db57600080fd5b825167ffffffffffffffff8111156131f257600080fd5b8301601f8101851361320357600080fd5b8051613211612b5582612ac9565b81815260059190911b8201830190838101908783111561323057600080fd5b928401925b828410156129c857835182529284019290840190613235565b60006020828403121561326057600080fd5b81356121f181613138565b6000806040838503121561327e57600080fd5b505080516020909101519092909150565b6000602082840312156132a157600080fd5b81356121f181612f6e565b6000826132c957634e487b7160e01b600052601260045260246000fd5b500690565b60005b838110156132e95781810151838201526020016132d1565b838111156132f8576000848401525b50505050565b600082516133108184602087016132ce565b9190910192915050565b60208152600082518060208401526133398160408501602087016132ce565b601f01601f1916919091016040019291505056fea164736f6c634300080f000a",
  "devdoc": {
    "author": "@apoorvlathey",
    "kind": "dev",
    "methods": {
      "onERC721Received(address,address,uint256,bytes)": {
        "details": "See {IERC721Receiver-onERC721Received}. Always returns `IERC721Receiver.onERC721Received.selector`."
      },
      "owner()": {
        "details": "Returns the address of the current owner."
      },
      "quoteBuyNFTs(address,uint256[],uint24,uint160)": {
        "details": "This function is not gas efficient and should _not_ be called on chain."
      },
      "renounceOwnership()": {
        "details": "Leaves the contract without owner. It will not be possible to call `onlyOwner` functions anymore. Can only be called by the current owner. NOTE: Renouncing ownership will leave the contract without an owner, thereby removing any functionality that is only available to the owner."
      },
      "rescueTokens(address)": {
        "params": {
          "token": "ERC20 token address or address(0) in case of ETH"
        }
      },
      "transferOwnership(address)": {
        "details": "Transfers ownership of the contract to a new account (`newOwner`). Can only be called by the current owner."
      }
    },
    "title": "NFTX Router",
    "version": 1
  },
  "userdoc": {
    "kind": "user",
    "methods": {
      "addLiquidity((address,uint256,uint256[],int24,int24,uint24,uint160,uint256))": {
        "notice": "User should have given NFT approval to vtoken contract, else revert"
      },
      "computePool(address,uint24)": {
        "notice": "Compute the pool address corresponding to vToken"
      },
      "getPool(address,uint24)": {
        "notice": "Get deployed pool address for vToken. Reverts if pool doesn't exist"
      },
      "getPoolExists(uint256,uint24)": {
        "notice": "Get deployed pool address for vaultId. `exists` is false if pool doesn't exist. `vaultId` must be valid."
      },
      "isVToken0(address)": {
        "notice": "Checks if vToken is token0 or not"
      },
      "sellNFTs((address,uint256[],uint256,uint24,uint256,uint160))": {
        "notice": "User should have given NFT approval to vtoken contract, else revert"
      }
    },
    "notice": "Router to facilitate vault tokens minting/burning + addition/removal of concentrated liquidity",
    "version": 1
  },
  "storageLayout": {
    "storage": [
      {
        "astId": 2942,
        "contract": "src/NFTXRouter.sol:NFTXRouter",
        "label": "_owner",
        "offset": 0,
        "slot": "0",
        "type": "t_address"
      }
    ],
    "types": {
      "t_address": {
        "encoding": "inplace",
        "label": "address",
        "numberOfBytes": "20"
      }
    }
  }
}