{
  "address": "0x17Ee4Acc187FBE2077F744598d4090f4386C560c",
  "abi": [
    {
      "inputs": [
        {
          "internalType": "contract INFTXVaultFactoryV3",
          "name": "nftxVaultFactory_",
          "type": "address"
        },
        {
          "internalType": "contract IUniswapV3Factory",
          "name": "ammFactory_",
          "type": "address"
        },
        {
          "internalType": "contract INFTXInventoryStakingV3",
          "name": "inventoryStaking_",
          "type": "address"
        },
        {
          "internalType": "contract INFTXRouter",
          "name": "nftxRouter_",
          "type": "address"
        },
        {
          "internalType": "address",
          "name": "treasury_",
          "type": "address"
        }
      ],
      "stateMutability": "nonpayable",
      "type": "constructor"
    },
    {
      "inputs": [],
      "name": "FeeTierNotEnabled",
      "type": "error"
    },
    {
      "inputs": [],
      "name": "IdOutOfBounds",
      "type": "error"
    },
    {
      "inputs": [],
      "name": "SenderNotNFTXRouter",
      "type": "error"
    },
    {
      "inputs": [],
      "name": "ZeroAddress",
      "type": "error"
    },
    {
      "anonymous": false,
      "inputs": [
        {
          "indexed": false,
          "internalType": "address",
          "name": "nftxRouter",
          "type": "address"
        }
      ],
      "name": "NewNFTXRouter",
      "type": "event"
    },
    {
      "anonymous": false,
      "inputs": [
        {
          "indexed": false,
          "internalType": "uint24",
          "name": "rewardFeeTier",
          "type": "uint24"
        }
      ],
      "name": "NewRewardFeeTier",
      "type": "event"
    },
    {
      "anonymous": false,
      "inputs": [
        {
          "indexed": true,
          "internalType": "address",
          "name": "previousOwner",
          "type": "address"
        },
        {
          "indexed": true,
          "internalType": "address",
          "name": "newOwner",
          "type": "address"
        }
      ],
      "name": "OwnershipTransferred",
      "type": "event"
    },
    {
      "anonymous": false,
      "inputs": [
        {
          "indexed": false,
          "internalType": "bool",
          "name": "paused",
          "type": "bool"
        }
      ],
      "name": "PauseDistribution",
      "type": "event"
    },
    {
      "anonymous": false,
      "inputs": [
        {
          "indexed": false,
          "internalType": "address",
          "name": "oldTreasury",
          "type": "address"
        },
        {
          "indexed": false,
          "internalType": "address",
          "name": "newTreasury",
          "type": "address"
        }
      ],
      "name": "UpdateTreasuryAddress",
      "type": "event"
    },
    {
      "anonymous": false,
      "inputs": [
        {
          "indexed": false,
          "internalType": "uint256",
          "name": "vaultId",
          "type": "uint256"
        },
        {
          "indexed": false,
          "internalType": "uint256",
          "name": "amount",
          "type": "uint256"
        }
      ],
      "name": "WethDistributedToInventory",
      "type": "event"
    },
    {
      "anonymous": false,
      "inputs": [
        {
          "indexed": false,
          "internalType": "uint256",
          "name": "vaultId",
          "type": "uint256"
        },
        {
          "indexed": false,
          "internalType": "uint256",
          "name": "amount",
          "type": "uint256"
        }
      ],
      "name": "WethDistributedToPool",
      "type": "event"
    },
    {
      "inputs": [],
      "name": "WETH",
      "outputs": [
        {
          "internalType": "contract IERC20",
          "name": "",
          "type": "address"
        }
      ],
      "stateMutability": "view",
      "type": "function"
    },
    {
      "inputs": [],
      "name": "allocTotal",
      "outputs": [
        {
          "internalType": "uint256",
          "name": "",
          "type": "uint256"
        }
      ],
      "stateMutability": "view",
      "type": "function"
    },
    {
      "inputs": [],
      "name": "ammFactory",
      "outputs": [
        {
          "internalType": "contract IUniswapV3Factory",
          "name": "",
          "type": "address"
        }
      ],
      "stateMutability": "view",
      "type": "function"
    },
    {
      "inputs": [
        {
          "internalType": "uint24",
          "name": "rewardFeeTier_",
          "type": "uint24"
        }
      ],
      "name": "changeRewardFeeTier",
      "outputs": [],
      "stateMutability": "nonpayable",
      "type": "function"
    },
    {
      "inputs": [
        {
          "internalType": "uint256",
          "name": "vaultId",
          "type": "uint256"
        }
      ],
      "name": "distribute",
      "outputs": [],
      "stateMutability": "nonpayable",
      "type": "function"
    },
    {
      "inputs": [
        {
          "internalType": "address",
          "name": "pool",
          "type": "address"
        },
        {
          "internalType": "address",
          "name": "vToken",
          "type": "address"
        },
        {
          "internalType": "uint256",
          "name": "vTokenAmount",
          "type": "uint256"
        }
      ],
      "name": "distributeVTokensToPool",
      "outputs": [],
      "stateMutability": "nonpayable",
      "type": "function"
    },
    {
      "inputs": [],
      "name": "distributionPaused",
      "outputs": [
        {
          "internalType": "bool",
          "name": "",
          "type": "bool"
        }
      ],
      "stateMutability": "view",
      "type": "function"
    },
    {
      "inputs": [
        {
          "internalType": "uint256",
          "name": "",
          "type": "uint256"
        }
      ],
      "name": "feeReceivers",
      "outputs": [
        {
          "internalType": "address",
          "name": "receiver",
          "type": "address"
        },
        {
          "internalType": "uint256",
          "name": "allocPoint",
          "type": "uint256"
        },
        {
          "internalType": "enum INFTXFeeDistributorV3.ReceiverType",
          "name": "receiverType",
          "type": "uint8"
        }
      ],
      "stateMutability": "view",
      "type": "function"
    },
    {
      "inputs": [],
      "name": "inventoryStaking",
      "outputs": [
        {
          "internalType": "contract INFTXInventoryStakingV3",
          "name": "",
          "type": "address"
        }
      ],
      "stateMutability": "view",
      "type": "function"
    },
    {
      "inputs": [],
      "name": "nftxRouter",
      "outputs": [
        {
          "internalType": "contract INFTXRouter",
          "name": "",
          "type": "address"
        }
      ],
      "stateMutability": "view",
      "type": "function"
    },
    {
      "inputs": [],
      "name": "nftxVaultFactory",
      "outputs": [
        {
          "internalType": "contract INFTXVaultFactoryV3",
          "name": "",
          "type": "address"
        }
      ],
      "stateMutability": "view",
      "type": "function"
    },
    {
      "inputs": [],
      "name": "owner",
      "outputs": [
        {
          "internalType": "address",
          "name": "",
          "type": "address"
        }
      ],
      "stateMutability": "view",
      "type": "function"
    },
    {
      "inputs": [
        {
          "internalType": "bool",
          "name": "pause",
          "type": "bool"
        }
      ],
      "name": "pauseFeeDistribution",
      "outputs": [],
      "stateMutability": "nonpayable",
      "type": "function"
    },
    {
      "inputs": [],
      "name": "renounceOwnership",
      "outputs": [],
      "stateMutability": "nonpayable",
      "type": "function"
    },
    {
      "inputs": [
        {
          "internalType": "contract IERC20",
          "name": "token",
          "type": "address"
        }
      ],
      "name": "rescueTokens",
      "outputs": [],
      "stateMutability": "nonpayable",
      "type": "function"
    },
    {
      "inputs": [],
      "name": "rewardFeeTier",
      "outputs": [
        {
          "internalType": "uint24",
          "name": "",
          "type": "uint24"
        }
      ],
      "stateMutability": "view",
      "type": "function"
    },
    {
      "inputs": [
        {
          "internalType": "contract INFTXRouter",
          "name": "nftxRouter_",
          "type": "address"
        }
      ],
      "name": "setNFTXRouter",
      "outputs": [],
      "stateMutability": "nonpayable",
      "type": "function"
    },
    {
      "inputs": [
        {
          "components": [
            {
              "internalType": "address",
              "name": "receiver",
              "type": "address"
            },
            {
              "internalType": "uint256",
              "name": "allocPoint",
              "type": "uint256"
            },
            {
              "internalType": "enum INFTXFeeDistributorV3.ReceiverType",
              "name": "receiverType",
              "type": "uint8"
            }
          ],
          "internalType": "struct INFTXFeeDistributorV3.FeeReceiver[]",
          "name": "feeReceivers_",
          "type": "tuple[]"
        }
      ],
      "name": "setReceivers",
      "outputs": [],
      "stateMutability": "nonpayable",
      "type": "function"
    },
    {
      "inputs": [
        {
          "internalType": "address",
          "name": "treasury_",
          "type": "address"
        }
      ],
      "name": "setTreasuryAddress",
      "outputs": [],
      "stateMutability": "nonpayable",
      "type": "function"
    },
    {
      "inputs": [
        {
          "internalType": "address",
          "name": "newOwner",
          "type": "address"
        }
      ],
      "name": "transferOwnership",
      "outputs": [],
      "stateMutability": "nonpayable",
      "type": "function"
    },
    {
      "inputs": [],
      "name": "treasury",
      "outputs": [
        {
          "internalType": "address",
          "name": "",
          "type": "address"
        }
      ],
      "stateMutability": "view",
      "type": "function"
    }
  ],
  "transactionHash": "0xb13f79b56034cecadf11c83818a6c29e81f1ede5056900472da593ee0200b262",
  "args": [
    "0x1d552A0e6c2f680872C4a88b1e7def05F1858dF0",
    "0xf25081B098c5929A26F562aa2502795fE89BC73f",
    "0xEf771a17e6970d8B4b208a76e94F175277554230",
    "0x3b79692Eb189a68E513ad5628A419950E5773e35",
    "0xb06a64615842CbA9b3Bdb7e6F726F3a5BD20daC2"
  ],
  "numDeployments": 1,
  "solcInputHash": "16be5a94346e7291ba6138ed7339e301",
  "bytecode": "0x6101006040523480156200001257600080fd5b5060405162002475380380620024758339810160408190526200003591620004da565b6200004033620002c2565b600180556001600160a01b0385166200006c5760405163d92e233d60e01b815260040160405180910390fd5b6001600160a01b038416620000945760405163d92e233d60e01b815260040160405180910390fd5b6001600160a01b038316620000bc5760405163d92e233d60e01b815260040160405180910390fd5b6001600160a01b038216620000e45760405163d92e233d60e01b815260040160405180910390fd5b6001600160a01b0380861660805284811660a05283811660c052604080516315ab88c960e31b815290519184169163ad5c46489160048082019260209290919082900301816000875af115801562000140573d6000803e3d6000fd5b505050506040513d601f19601f820116820180604052508101906200016691906200055a565b6001600160a01b0390811660e05260028054600380548585166001600160a01b031990911617905562ffffff19928516630100000002929092166001600160b81b0319909216919091176127101781556040805182815260608101909152600091602082015b620001ee60408051606081018252600080825260208201819052909182015290565b815260200190600190039081620001cc579050506040805160608101825260008152670b1a2bc2ec500000602082015291925081016001815250816000815181106200023e576200023e62000597565b60200260200101819052506040518060600160405280856001600160a01b031681526020016702c68af0bb14000081526020016000600281111562000287576200028762000581565b81525081600181518110620002a057620002a062000597565b6020908102919091010152620002b68162000312565b505050505050620005d4565b600080546001600160a01b038381166001600160a01b0319831681178455604051919092169283917f8be0079c531659141344cd1fd0a4f28419497f9722a3daafe3b4186f6b6457e09190a35050565b6000546001600160a01b03163314620003715760405162461bcd60e51b815260206004820181905260248201527f4f776e61626c653a2063616c6c6572206973206e6f7420746865206f776e6572604482015260640160405180910390fd5b6200037f6005600062000466565b8051600090815b818110156200045e576005848281518110620003a657620003a662000597565b602090810291909101810151825460018082018555600094855293839020825160039092020180546001600160a01b0319166001600160a01b03909216919091178155918101518284015560408101516002808401805493959293909260ff199091169184908111156200041e576200041e62000581565b021790555050508381815181106200043a576200043a62000597565b60200260200101516020015183620004539190620005ad565b925060010162000386565b505060045550565b50805460008255600302906000526020600020908101906200048991906200048c565b50565b5b80821115620004c05780546001600160a01b03191681556000600182015560028101805460ff191690556003016200048d565b5090565b6001600160a01b03811681146200048957600080fd5b600080600080600060a08688031215620004f357600080fd5b85516200050081620004c4565b60208701519095506200051381620004c4565b60408701519094506200052681620004c4565b60608701519093506200053981620004c4565b60808701519092506200054c81620004c4565b809150509295509295909350565b6000602082840312156200056d57600080fd5b81516200057a81620004c4565b9392505050565b634e487b7160e01b600052602160045260246000fd5b634e487b7160e01b600052603260045260246000fd5b60008219821115620005cf57634e487b7160e01b600052601160045260246000fd5b500190565b60805160a05160c05160e051611e0c6200066960003960008181610331015281816108ac0152818161095901528181610a9701528181610c56015281816111b301528181611427015281816114b3015261158b0152600081816102ad01528181610cda015281816111d401526112190152600081816103580152610dd301526000818161021901526108160152611e0c6000f3fe608060405234801561001057600080fd5b50600436106101765760003560e01c8063715018a6116100d8578063aaaf67731161008c578063dacda92f11610066578063dacda92f14610353578063f2fde38b1461037a578063f78ab5211461038d57600080fd5b8063aaaf677314610306578063ac4f974714610319578063ad5c46481461032c57600080fd5b80638c0fd23d116100bd5780638c0fd23d146102cf5780638da5cb5b146102e257806391c05b0b146102f357600080fd5b8063715018a6146102a057806374a1b0b0146102a857600080fd5b80633801daf11161012f5780635b381760116101145780635b3817601461025857806361d027b31461027a5780636605bfda1461028d57600080fd5b80633801daf1146102145780634912300d1461023b57600080fd5b80630930126f116101605780630930126f146101ac5780631eae8f91146101bf57806334c53b89146101f157600080fd5b8062ae3bf81461017b5780630813195114610190575b600080fd5b61018e6101893660046119a2565b6103a0565b005b61019960045481565b6040519081526020015b60405180910390f35b61018e6101ba3660046119a2565b610484565b6002546101d990630100000090046001600160a01b031681565b6040516001600160a01b0390911681526020016101a3565b6002546102009062ffffff1681565b60405162ffffff90911681526020016101a3565b6101d97f000000000000000000000000000000000000000000000000000000000000000081565b6006546102489060ff1681565b60405190151581526020016101a3565b61026b6102663660046119bf565b61057b565b6040516101a3939291906119ee565b6003546101d9906001600160a01b031681565b61018e61029b3660046119a2565b6105bb565b61018e6106a5565b6101d97f000000000000000000000000000000000000000000000000000000000000000081565b61018e6102dd366004611a3f565b61070b565b6000546001600160a01b03166101d9565b61018e6103013660046119bf565b6107a6565b61018e610314366004611a5c565b610b14565b61018e610327366004611a9d565b610d5f565b6101d97f000000000000000000000000000000000000000000000000000000000000000081565b6101d97f000000000000000000000000000000000000000000000000000000000000000081565b61018e6103883660046119a2565b610eaf565b61018e61039b366004611b32565b610f91565b6000546001600160a01b031633146103ff5760405162461bcd60e51b815260206004820181905260248201527f4f776e61626c653a2063616c6c6572206973206e6f7420746865206f776e657260448201526064015b60405180910390fd5b6040516370a0823160e01b81523060048201526000906001600160a01b038316906370a0823190602401602060405180830381865afa158015610446573d6000803e3d6000fd5b505050506040513d601f19601f8201168201806040525081019061046a9190611c1d565b90506104806001600160a01b03831633836110d1565b5050565b6000546001600160a01b031633146104de5760405162461bcd60e51b815260206004820181905260248201527f4f776e61626c653a2063616c6c6572206973206e6f7420746865206f776e657260448201526064016103f6565b6001600160a01b0381166105055760405163d92e233d60e01b815260040160405180910390fd5b600280547fffffffffffffffffff0000000000000000000000000000000000000000ffffff1663010000006001600160a01b038416908102919091179091556040519081527fb7fdf6455f8380e5359e20e0860588d5f0f3e46d20e3fa6774cc0b568c5872a5906020015b60405180910390a150565b6005818154811061058b57600080fd5b60009182526020909120600390910201805460018201546002909201546001600160a01b03909116925060ff1683565b6000546001600160a01b031633146106155760405162461bcd60e51b815260206004820181905260248201527f4f776e61626c653a2063616c6c6572206973206e6f7420746865206f776e657260448201526064016103f6565b6001600160a01b03811661063c5760405163d92e233d60e01b815260040160405180910390fd5b600354604080516001600160a01b03928316815291831660208301527f5634a90413b79beba6c5f37aa8f19d1aee84a5320ff20ac7bd1ac63280867d5c910160405180910390a1600380546001600160a01b0319166001600160a01b0392909216919091179055565b6000546001600160a01b031633146106ff5760405162461bcd60e51b815260206004820181905260248201527f4f776e61626c653a2063616c6c6572206973206e6f7420746865206f776e657260448201526064016103f6565b610709600061113d565b565b6000546001600160a01b031633146107655760405162461bcd60e51b815260206004820181905260248201527f4f776e61626c653a2063616c6c6572206973206e6f7420746865206f776e657260448201526064016103f6565b6006805460ff19168215159081179091556040519081527fb008f183388020de01fd4365e295aa904b691f98e63fd033f74f75273b6b285f90602001610570565b6002600154036107f85760405162461bcd60e51b815260206004820152601f60248201527f5265656e7472616e637947756172643a207265656e7472616e742063616c6c0060448201526064016103f6565b60026001556040516340d1b7db60e11b8152600481018290526000907f00000000000000000000000000000000000000000000000000000000000000006001600160a01b0316906381a36fb690602401602060405180830381865afa158015610865573d6000803e3d6000fd5b505050506040513d601f19601f820116820180604052508101906108899190611c36565b6040516370a0823160e01b81523060048201529091506000906001600160a01b037f000000000000000000000000000000000000000000000000000000000000000016906370a0823190602401602060405180830381865afa1580156108f3573d6000803e3d6000fd5b505050506040513d601f19601f820116820180604052508101906109179190611c1d565b60065490915060ff168061092b5750600454155b156109d05760035460405163a9059cbb60e01b81526001600160a01b039182166004820152602481018390527f00000000000000000000000000000000000000000000000000000000000000009091169063a9059cbb906044016020604051808303816000875af11580156109a4573d6000803e3d6000fd5b505050506040513d601f19601f820116820180604052508101906109c89190611c53565b505050610b0d565b600554600090815b81811015610a67576000600582815481106109f5576109f5611c70565b906000526020600020906003020190506000600454826001015487610a1a9190611c9c565b610a249190611cbb565b610a2e9086611cdd565b90506000610a3e83838b8b61118d565b905080610a5457610a4f8287611cdd565b610a57565b60005b95508360010193505050506109d8565b508115610b085760035460405163a9059cbb60e01b81526001600160a01b039182166004820152602481018490527f00000000000000000000000000000000000000000000000000000000000000009091169063a9059cbb906044016020604051808303816000875af1158015610ae2573d6000803e3d6000fd5b505050506040513d601f19601f82011682018060405250810190610b069190611c53565b505b505050505b5060018055565b600254630100000090046001600160a01b03163314610b465760405163108d185f60e21b815260040160405180910390fd5b6000836001600160a01b0316631a6865026040518163ffffffff1660e01b8152600401602060405180830381865afa158015610b86573d6000803e3d6000fd5b505050506040513d601f19601f82011682018060405250810190610baa9190611cf5565b6fffffffffffffffffffffffffffffffff1690508015610cc35760405163a9059cbb60e01b81526001600160a01b0385811660048301526024820184905284169063a9059cbb906044016020604051808303816000875af1158015610c13573d6000803e3d6000fd5b505050506040513d601f19601f82011682018060405250810190610c379190611c53565b50604051637b4beb2160e01b8152600481018390526001600160a01b037f00000000000000000000000000000000000000000000000000000000000000008116858216106024830152851690637b4beb2190604401600060405180830381600087803b158015610ca657600080fd5b505af1158015610cba573d6000803e3d6000fd5b50505050610d59565b60405163a9059cbb60e01b81526001600160a01b037f0000000000000000000000000000000000000000000000000000000000000000811660048301526024820184905284169063a9059cbb906044015b6020604051808303816000875af1158015610d33573d6000803e3d6000fd5b505050506040513d601f19601f82011682018060405250810190610d579190611c53565b505b50505050565b6000546001600160a01b03163314610db95760405162461bcd60e51b815260206004820181905260248201527f4f776e61626c653a2063616c6c6572206973206e6f7420746865206f776e657260448201526064016103f6565b6040516322afcccb60e01b815262ffffff821660048201527f00000000000000000000000000000000000000000000000000000000000000006001600160a01b0316906322afcccb90602401602060405180830381865afa158015610e22573d6000803e3d6000fd5b505050506040513d601f19601f82011682018060405250810190610e469190611d27565b60020b600003610e6957604051631d0f037f60e31b815260040160405180910390fd5b6002805462ffffff191662ffffff83169081179091556040519081527f99f9c13fed3542074de077aa4fac4b3c9205274c2f3ee03c553f30d4f8d9adb090602001610570565b6000546001600160a01b03163314610f095760405162461bcd60e51b815260206004820181905260248201527f4f776e61626c653a2063616c6c6572206973206e6f7420746865206f776e657260448201526064016103f6565b6001600160a01b038116610f855760405162461bcd60e51b815260206004820152602660248201527f4f776e61626c653a206e6577206f776e657220697320746865207a65726f206160448201527f646472657373000000000000000000000000000000000000000000000000000060648201526084016103f6565b610f8e8161113d565b50565b6000546001600160a01b03163314610feb5760405162461bcd60e51b815260206004820181905260248201527f4f776e61626c653a2063616c6c6572206973206e6f7420746865206f776e657260448201526064016103f6565b610ff76005600061193b565b8051600090815b818110156110c957600584828151811061101a5761101a611c70565b602090810291909101810151825460018082018555600094855293839020825160039092020180546001600160a01b0319166001600160a01b03909216919091178155918101518284015560408101516002808401805493959293909260ff1990911691849081111561108f5761108f6119d8565b021790555050508381815181106110a8576110a8611c70565b602002602001015160200151836110bf9190611cdd565b9250600101610ffe565b505060045550565b604080516001600160a01b038416602482015260448082018490528251808303909101815260649091019091526020810180517bffffffffffffffffffffffffffffffffffffffffffffffffffffffff1663a9059cbb60e01b179052611138908490611608565b505050565b600080546001600160a01b038381166001600160a01b0319831681178455604051919092169283917f8be0079c531659141344cd1fd0a4f28419497f9722a3daafe3b4186f6b6457e09190a35050565b60008060028087015460ff16908111156111a9576111a96119d8565b036112d7576111f97f00000000000000000000000000000000000000000000000000000000000000007f0000000000000000000000000000000000000000000000000000000000000000866116ed565b60405163370fb8e760e01b815260048101849052602481018590526000907f00000000000000000000000000000000000000000000000000000000000000006001600160a01b03169063370fb8e7906044016020604051808303816000875af115801561126a573d6000803e3d6000fd5b505050506040513d601f19601f8201168201806040525081019061128e9190611c53565b905080156112d05760408051858152602081018790527fbda0f4fbed983dc98b9f10bf4fc29804c53ecf95f3d16d1f566f9bc7cfb8b936910160405180910390a15b9050611600565b600160028087015460ff16908111156112f2576112f26119d8565b0361156357600254604051630280518760e11b81526004810185905262ffffff82166024820152600091829163010000009091046001600160a01b031690630500a30e906044016040805180830381865afa158015611355573d6000803e3d6000fd5b505050506040513d601f19601f820116820180604052508101906113799190611d4a565b91509150801561155c576000826001600160a01b0316631a6865026040518163ffffffff1660e01b8152600401602060405180830381865afa1580156113c3573d6000803e3d6000fd5b505050506040513d601f19601f820116820180604052508101906113e79190611cf5565b6fffffffffffffffffffffffffffffffff169050801561155a5760405163a9059cbb60e01b81526001600160a01b038481166004830152602482018990527f0000000000000000000000000000000000000000000000000000000000000000169063a9059cbb906044016020604051808303816000875af1158015611470573d6000803e3d6000fd5b505050506040513d601f19601f820116820180604052508101906114949190611c53565b50604051637b4beb2160e01b8152600481018890526001600160a01b037f00000000000000000000000000000000000000000000000000000000000000008116878216116024830152841690637b4beb2190604401600060405180830381600087803b15801561150357600080fd5b505af1158015611517573d6000803e3d6000fd5b505060408051898152602081018b90527f54b10aa70480627b36183b21f9e50af4c4b5e74b2acc503ad372a535bacd5de0935001905060405180910390a1600193505b505b5050611600565b845460405163a9059cbb60e01b81526001600160a01b039182166004820152602481018690527f00000000000000000000000000000000000000000000000000000000000000009091169063a9059cbb906044016020604051808303816000875af11580156115d6573d6000803e3d6000fd5b505050506040513d601f19601f820116820180604052508101906115fa9190611c53565b50600190505b949350505050565b600061165d826040518060400160405280602081526020017f5361666545524332303a206c6f772d6c6576656c2063616c6c206661696c6564815250856001600160a01b03166117a19092919063ffffffff16565b805190915015611138578080602001905181019061167b9190611c53565b6111385760405162461bcd60e51b815260206004820152602a60248201527f5361666545524332303a204552433230206f7065726174696f6e20646964206e60448201527f6f7420737563636565640000000000000000000000000000000000000000000060648201526084016103f6565b604051636eb1769f60e11b81523060048201526001600160a01b0383811660248301526000919085169063dd62ed3e90604401602060405180830381865afa15801561173d573d6000803e3d6000fd5b505050506040513d601f19601f820116820180604052508101906117619190611c1d565b905080821115610d595760405163095ea7b360e01b81526001600160a01b038481166004830152600019602483015285169063095ea7b390604401610d14565b60606117b084846000856117ba565b90505b9392505050565b6060824710156118325760405162461bcd60e51b815260206004820152602660248201527f416464726573733a20696e73756666696369656e742062616c616e636520666f60448201527f722063616c6c000000000000000000000000000000000000000000000000000060648201526084016103f6565b6001600160a01b0385163b6118895760405162461bcd60e51b815260206004820152601d60248201527f416464726573733a2063616c6c20746f206e6f6e2d636f6e747261637400000060448201526064016103f6565b600080866001600160a01b031685876040516118a59190611db0565b60006040518083038185875af1925050503d80600081146118e2576040519150601f19603f3d011682016040523d82523d6000602084013e6118e7565b606091505b50915091506118f7828286611902565b979650505050505050565b606083156119115750816117b3565b8251156119215782518084602001fd5b8160405162461bcd60e51b81526004016103f69190611dcc565b5080546000825560030290600052602060002090810190610f8e91905b808211156119895780546001600160a01b03191681556000600182015560028101805460ff19169055600301611958565b5090565b6001600160a01b0381168114610f8e57600080fd5b6000602082840312156119b457600080fd5b81356117b38161198d565b6000602082840312156119d157600080fd5b5035919050565b634e487b7160e01b600052602160045260246000fd5b6001600160a01b0384168152602081018390526060810160038310611a2357634e487b7160e01b600052602160045260246000fd5b826040830152949350505050565b8015158114610f8e57600080fd5b600060208284031215611a5157600080fd5b81356117b381611a31565b600080600060608486031215611a7157600080fd5b8335611a7c8161198d565b92506020840135611a8c8161198d565b929592945050506040919091013590565b600060208284031215611aaf57600080fd5b813562ffffff811681146117b357600080fd5b634e487b7160e01b600052604160045260246000fd5b6040516060810167ffffffffffffffff81118282101715611afb57611afb611ac2565b60405290565b604051601f8201601f1916810167ffffffffffffffff81118282101715611b2a57611b2a611ac2565b604052919050565b60006020808385031215611b4557600080fd5b823567ffffffffffffffff80821115611b5d57600080fd5b818501915085601f830112611b7157600080fd5b813581811115611b8357611b83611ac2565b611b91848260051b01611b01565b81815284810192506060918202840185019188831115611bb057600080fd5b938501935b82851015611c115780858a031215611bcd5760008081fd5b611bd5611ad8565b8535611be08161198d565b8152858701358782015260408087013560038110611bfe5760008081fd5b9082015284529384019392850192611bb5565b50979650505050505050565b600060208284031215611c2f57600080fd5b5051919050565b600060208284031215611c4857600080fd5b81516117b38161198d565b600060208284031215611c6557600080fd5b81516117b381611a31565b634e487b7160e01b600052603260045260246000fd5b634e487b7160e01b600052601160045260246000fd5b6000816000190483118215151615611cb657611cb6611c86565b500290565b600082611cd857634e487b7160e01b600052601260045260246000fd5b500490565b60008219821115611cf057611cf0611c86565b500190565b600060208284031215611d0757600080fd5b81516fffffffffffffffffffffffffffffffff811681146117b357600080fd5b600060208284031215611d3957600080fd5b81518060020b81146117b357600080fd5b60008060408385031215611d5d57600080fd5b8251611d688161198d565b6020840151909250611d7981611a31565b809150509250929050565b60005b83811015611d9f578181015183820152602001611d87565b83811115610d595750506000910152565b60008251611dc2818460208701611d84565b9190910192915050565b6020815260008251806020840152611deb816040850160208701611d84565b601f01601f1916919091016040019291505056fea164736f6c634300080f000a",
  "devdoc": {
    "author": "@apoorvlathey",
    "kind": "dev",
    "methods": {
      "changeRewardFeeTier(uint24)": {
        "params": {
          "rewardFeeTier_": "New reward fee tier"
        }
      },
      "distribute(uint256)": {
        "details": "called by other contracts like NFTXVault, after transferring WETH to distribute in the same tx"
      },
      "distributeVTokensToPool(address,address,uint256)": {
        "details": "called by NFTXRouter, after it sends the vTokens to this contract"
      },
      "owner()": {
        "details": "Returns the address of the current owner."
      },
      "renounceOwnership()": {
        "details": "Leaves the contract without owner. It will not be possible to call `onlyOwner` functions anymore. Can only be called by the current owner. NOTE: Renouncing ownership will leave the contract without an owner, thereby removing any functionality that is only available to the owner."
      },
      "transferOwnership(address)": {
        "details": "Transfers ownership of the contract to a new account (`newOwner`). Can only be called by the current owner."
      }
    },
    "title": "NFTX Fee Distributor V3",
    "version": 1
  },
  "userdoc": {
    "kind": "user",
    "methods": {
      "changeRewardFeeTier(uint24)": {
        "notice": "Updating reward fee tier here won't change cardinality for existing UniV3 pools already deployed with `rewardFeeTier_`. That has to be increased externally for each pool. If the new rewardFeeTier pool doesn't exist for a vToken, then the corresponding vault fees would immediately become 0, till liquidity is provided in the new pool."
      },
      "distribute(uint256)": {
        "notice": "Distributes current WETH balance with the `feeReceivers` for `vaultId`"
      },
      "distributeVTokensToPool(address,address,uint256)": {
        "notice": "Distributes vTokens to NFTX AMM pool, can only be called by NFTXRouter"
      }
    },
    "notice": "Allows distribution of vault fees between multiple receivers including inventory stakers and NFTX AMM liquidity providers.",
    "version": 1
  },
  "storageLayout": {
    "storage": [
      {
        "astId": 4846,
        "contract": "src/NFTXFeeDistributorV3.sol:NFTXFeeDistributorV3",
        "label": "_owner",
        "offset": 0,
        "slot": "0",
        "type": "t_address"
      },
      {
        "astId": 5445,
        "contract": "src/NFTXFeeDistributorV3.sol:NFTXFeeDistributorV3",
        "label": "_status",
        "offset": 0,
        "slot": "1",
        "type": "t_uint256"
      },
      {
        "astId": 7280,
        "contract": "src/NFTXFeeDistributorV3.sol:NFTXFeeDistributorV3",
        "label": "rewardFeeTier",
        "offset": 0,
        "slot": "2",
        "type": "t_uint24"
      },
      {
        "astId": 7284,
        "contract": "src/NFTXFeeDistributorV3.sol:NFTXFeeDistributorV3",
        "label": "nftxRouter",
        "offset": 3,
        "slot": "2",
        "type": "t_contract(INFTXRouter)18706"
      },
      {
        "astId": 7287,
        "contract": "src/NFTXFeeDistributorV3.sol:NFTXFeeDistributorV3",
        "label": "treasury",
        "offset": 0,
        "slot": "3",
        "type": "t_address"
      },
      {
        "astId": 7290,
        "contract": "src/NFTXFeeDistributorV3.sol:NFTXFeeDistributorV3",
        "label": "allocTotal",
        "offset": 0,
        "slot": "4",
        "type": "t_uint256"
      },
      {
        "astId": 7295,
        "contract": "src/NFTXFeeDistributorV3.sol:NFTXFeeDistributorV3",
        "label": "feeReceivers",
        "offset": 0,
        "slot": "5",
        "type": "t_array(t_struct(FeeReceiver)17843_storage)dyn_storage"
      },
      {
        "astId": 7298,
        "contract": "src/NFTXFeeDistributorV3.sol:NFTXFeeDistributorV3",
        "label": "distributionPaused",
        "offset": 0,
        "slot": "6",
        "type": "t_bool"
      }
    ],
    "types": {
      "t_address": {
        "encoding": "inplace",
        "label": "address",
        "numberOfBytes": "20"
      },
      "t_array(t_struct(FeeReceiver)17843_storage)dyn_storage": {
        "base": "t_struct(FeeReceiver)17843_storage",
        "encoding": "dynamic_array",
        "label": "struct INFTXFeeDistributorV3.FeeReceiver[]",
        "numberOfBytes": "32"
      },
      "t_bool": {
        "encoding": "inplace",
        "label": "bool",
        "numberOfBytes": "1"
      },
      "t_contract(INFTXRouter)18706": {
        "encoding": "inplace",
        "label": "contract INFTXRouter",
        "numberOfBytes": "20"
      },
      "t_enum(ReceiverType)17835": {
        "encoding": "inplace",
        "label": "enum INFTXFeeDistributorV3.ReceiverType",
        "numberOfBytes": "1"
      },
      "t_struct(FeeReceiver)17843_storage": {
        "encoding": "inplace",
        "label": "struct INFTXFeeDistributorV3.FeeReceiver",
        "members": [
          {
            "astId": 17837,
            "contract": "src/NFTXFeeDistributorV3.sol:NFTXFeeDistributorV3",
            "label": "receiver",
            "offset": 0,
            "slot": "0",
            "type": "t_address"
          },
          {
            "astId": 17839,
            "contract": "src/NFTXFeeDistributorV3.sol:NFTXFeeDistributorV3",
            "label": "allocPoint",
            "offset": 0,
            "slot": "1",
            "type": "t_uint256"
          },
          {
            "astId": 17842,
            "contract": "src/NFTXFeeDistributorV3.sol:NFTXFeeDistributorV3",
            "label": "receiverType",
            "offset": 0,
            "slot": "2",
            "type": "t_enum(ReceiverType)17835"
          }
        ],
        "numberOfBytes": "96"
      },
      "t_uint24": {
        "encoding": "inplace",
        "label": "uint24",
        "numberOfBytes": "3"
      },
      "t_uint256": {
        "encoding": "inplace",
        "label": "uint256",
        "numberOfBytes": "32"
      }
    }
  }
}