{
  "address": "0x70Fa5EFbc29C10466C89d53Af9D0666c60bfDe9E",
  "abi": [
    {
      "anonymous": false,
      "inputs": [
        {
          "indexed": false,
          "internalType": "uint8",
          "name": "version",
          "type": "uint8"
        }
      ],
      "name": "Initialized",
      "type": "event"
    },
    {
      "anonymous": false,
      "inputs": [
        {
          "indexed": false,
          "internalType": "uint256",
          "name": "rangeStart",
          "type": "uint256"
        },
        {
          "indexed": false,
          "internalType": "uint256",
          "name": "rangeEnd",
          "type": "uint256"
        }
      ],
      "name": "NFTXEligibilityInit",
      "type": "event"
    },
    {
      "anonymous": false,
      "inputs": [
        {
          "indexed": false,
          "internalType": "uint256",
          "name": "rangeStart",
          "type": "uint256"
        },
        {
          "indexed": false,
          "internalType": "uint256",
          "name": "rangeEnd",
          "type": "uint256"
        }
      ],
      "name": "RangeSet",
      "type": "event"
    },
    {
      "inputs": [
        {
          "internalType": "uint256",
          "name": "_rangeStart",
          "type": "uint256"
        },
        {
          "internalType": "uint256",
          "name": "_rangeEnd",
          "type": "uint256"
        }
      ],
      "name": "__NFTXEligibility_init",
      "outputs": [],
      "stateMutability": "nonpayable",
      "type": "function"
    },
    {
      "inputs": [
        {
          "internalType": "bytes",
          "name": "_configData",
          "type": "bytes"
        }
      ],
      "name": "__NFTXEligibility_init_bytes",
      "outputs": [],
      "stateMutability": "nonpayable",
      "type": "function"
    },
    {
      "inputs": [
        {
          "internalType": "uint256[]",
          "name": "tokenIds",
          "type": "uint256[]"
        }
      ],
      "name": "afterMintHook",
      "outputs": [],
      "stateMutability": "nonpayable",
      "type": "function"
    },
    {
      "inputs": [
        {
          "internalType": "uint256[]",
          "name": "tokenIds",
          "type": "uint256[]"
        }
      ],
      "name": "afterRedeemHook",
      "outputs": [],
      "stateMutability": "nonpayable",
      "type": "function"
    },
    {
      "inputs": [
        {
          "internalType": "uint256[]",
          "name": "tokenIds",
          "type": "uint256[]"
        }
      ],
      "name": "beforeMintHook",
      "outputs": [],
      "stateMutability": "nonpayable",
      "type": "function"
    },
    {
      "inputs": [
        {
          "internalType": "uint256[]",
          "name": "tokenIds",
          "type": "uint256[]"
        }
      ],
      "name": "beforeRedeemHook",
      "outputs": [],
      "stateMutability": "nonpayable",
      "type": "function"
    },
    {
      "inputs": [
        {
          "internalType": "uint256[]",
          "name": "tokenIds",
          "type": "uint256[]"
        }
      ],
      "name": "checkAllEligible",
      "outputs": [
        {
          "internalType": "bool",
          "name": "",
          "type": "bool"
        }
      ],
      "stateMutability": "view",
      "type": "function"
    },
    {
      "inputs": [
        {
          "internalType": "uint256[]",
          "name": "tokenIds",
          "type": "uint256[]"
        }
      ],
      "name": "checkAllIneligible",
      "outputs": [
        {
          "internalType": "bool",
          "name": "",
          "type": "bool"
        }
      ],
      "stateMutability": "view",
      "type": "function"
    },
    {
      "inputs": [
        {
          "internalType": "uint256[]",
          "name": "tokenIds",
          "type": "uint256[]"
        }
      ],
      "name": "checkEligible",
      "outputs": [
        {
          "internalType": "bool[]",
          "name": "",
          "type": "bool[]"
        }
      ],
      "stateMutability": "view",
      "type": "function"
    },
    {
      "inputs": [
        {
          "internalType": "uint256",
          "name": "tokenId",
          "type": "uint256"
        }
      ],
      "name": "checkIsEligible",
      "outputs": [
        {
          "internalType": "bool",
          "name": "",
          "type": "bool"
        }
      ],
      "stateMutability": "view",
      "type": "function"
    },
    {
      "inputs": [],
      "name": "finalized",
      "outputs": [
        {
          "internalType": "bool",
          "name": "",
          "type": "bool"
        }
      ],
      "stateMutability": "view",
      "type": "function"
    },
    {
      "inputs": [],
      "name": "name",
      "outputs": [
        {
          "internalType": "string",
          "name": "",
          "type": "string"
        }
      ],
      "stateMutability": "pure",
      "type": "function"
    },
    {
      "inputs": [],
      "name": "rangeEnd",
      "outputs": [
        {
          "internalType": "uint256",
          "name": "",
          "type": "uint256"
        }
      ],
      "stateMutability": "view",
      "type": "function"
    },
    {
      "inputs": [],
      "name": "rangeStart",
      "outputs": [
        {
          "internalType": "uint256",
          "name": "",
          "type": "uint256"
        }
      ],
      "stateMutability": "view",
      "type": "function"
    },
    {
      "inputs": [],
      "name": "targetAsset",
      "outputs": [
        {
          "internalType": "address",
          "name": "",
          "type": "address"
        }
      ],
      "stateMutability": "pure",
      "type": "function"
    }
  ],
  "transactionHash": "0xaedce36f150789af62c68ccc6a61b98582a9c432ecec2fedbc415a2eab1c1d39",
  "args": [],
  "numDeployments": 1,
  "solcInputHash": "86b1d24146f3ebe063a3e2d32a72fbad",
  "bytecode": "0x608060405234801561001057600080fd5b5061090d806100206000396000f3fe608060405234801561001057600080fd5b50600436106100f55760003560e01c80636c47d59511610097578063b3f05b9711610066578063b3f05b97146101ee578063bd8affde14610157578063ca373f28146101f5578063d2a096e81461020857600080fd5b80636c47d595146101575780636cd91260146101a25780637920c127146101c257806384ca9f85146101cb57600080fd5b80633d4403ac116100d35780633d4403ac146101695780634998b7f3146101785780635c99ee011461018b5780635e2f9b521461015757600080fd5b806306fdde03146100fa578063264b1b601461014257806336eb086214610157575b600080fd5b604080518082018252600581527f52616e676500000000000000000000000000000000000000000000000000000060208201529051610139919061068d565b60405180910390f35b6101556101503660046106e2565b61021b565b005b610155610165366004610704565b5050565b60405160008152602001610139565b61015561018636600461078f565b6103f7565b61019460025481565b604051908152602001610139565b6101b56101b0366004610704565b610527565b6040516101399190610840565b61019460015481565b6101de6101d9366004610704565b6105dc565b6040519015158152602001610139565b60016101de565b6101de610203366004610704565b61062a565b6101de610216366004610886565b61066e565b600054610100900460ff161580801561023b5750600054600160ff909116105b806102555750303b158015610255575060005460ff166001145b6102bd5760405162461bcd60e51b815260206004820152602e60248201527f496e697469616c697a61626c653a20636f6e747261637420697320616c72656160448201526d191e481a5b9a5d1a585b1a5e995960921b60648201526084015b60405180910390fd5b6000805460ff1916600117905580156102e0576000805461ff0019166101001790555b818311156103305760405162461bcd60e51b815260206004820152600b60248201527f7374617274203e20656e6400000000000000000000000000000000000000000060448201526064016102b4565b6001839055600282905560408051848152602081018490527f2aa006707091dbb6a3c123c2b234325bd71d72a53ba791b7227967655a550957910160405180910390a160408051848152602081018490527f89321eb999f10a080658dd5e8e1ad2ad210be9e3d965c97d0fff3380159664fd910160405180910390a180156103f2576000805461ff0019169055604051600181527f7f26b83ff96e1f2b6a682f133852f6798a09c465da95921460cefb38474024989060200160405180910390a15b505050565b600054610100900460ff16158080156104175750600054600160ff909116105b806104315750303b158015610431575060005460ff166001145b6104945760405162461bcd60e51b815260206004820152602e60248201527f496e697469616c697a61626c653a20636f6e747261637420697320616c72656160448201526d191e481a5b9a5d1a585b1a5e995960921b60648201526084016102b4565b6000805460ff1916600117905580156104b7576000805461ff0019166101001790555b600080838060200190518101906104ce919061089f565b915091506104dc828261021b565b50508015610165576000805461ff0019169055604051600181527f7f26b83ff96e1f2b6a682f133852f6798a09c465da95921460cefb38474024989060200160405180910390a15050565b60608160008167ffffffffffffffff81111561054557610545610779565b60405190808252806020026020018201604052801561056e578160200160208202803683370190505b50905060005b828110156105d15761059d868683818110610591576105916108c3565b90506020020135610675565b8282815181106105af576105af6108c3565b91151560209283029190910190910152806105c9816108d9565b915050610574565b509150505b92915050565b600081815b8181101561061f576105fe858583818110610591576105916108c3565b61060d576000925050506105d6565b80610617816108d9565b9150506105e1565b506001949350505050565b600081815b8181101561061f5761064c858583818110610591576105916108c3565b1561065c576000925050506105d6565b80610666816108d9565b91505061062f565b60006105d6825b600060015482101580156105d6575050600254101590565b600060208083528351808285015260005b818110156106ba5785810183015185820160400152820161069e565b818111156106cc576000604083870101525b50601f01601f1916929092016040019392505050565b600080604083850312156106f557600080fd5b50508035926020909101359150565b6000806020838503121561071757600080fd5b823567ffffffffffffffff8082111561072f57600080fd5b818501915085601f83011261074357600080fd5b81358181111561075257600080fd5b8660208260051b850101111561076757600080fd5b60209290920196919550909350505050565b634e487b7160e01b600052604160045260246000fd5b6000602082840312156107a157600080fd5b813567ffffffffffffffff808211156107b957600080fd5b818401915084601f8301126107cd57600080fd5b8135818111156107df576107df610779565b604051601f8201601f19908116603f0116810190838211818310171561080757610807610779565b8160405282815287602084870101111561082057600080fd5b826020860160208301376000928101602001929092525095945050505050565b6020808252825182820181905260009190848201906040850190845b8181101561087a57835115158352928401929184019160010161085c565b50909695505050505050565b60006020828403121561089857600080fd5b5035919050565b600080604083850312156108b257600080fd5b505080516020909101519092909150565b634e487b7160e01b600052603260045260246000fd5b6000600182016108f957634e487b7160e01b600052601160045260246000fd5b506001019056fea164736f6c634300080f000a",
  "devdoc": {
    "kind": "dev",
    "methods": {},
    "version": 1
  },
  "userdoc": {
    "kind": "user",
    "methods": {},
    "version": 1
  },
  "storageLayout": {
    "storage": [
      {
        "astId": 276,
        "contract": "src/v2/eligibility/NFTXRangeEligibility.sol:NFTXRangeEligibility",
        "label": "_initialized",
        "offset": 0,
        "slot": "0",
        "type": "t_uint8"
      },
      {
        "astId": 279,
        "contract": "src/v2/eligibility/NFTXRangeEligibility.sol:NFTXRangeEligibility",
        "label": "_initializing",
        "offset": 1,
        "slot": "0",
        "type": "t_bool"
      },
      {
        "astId": 42159,
        "contract": "src/v2/eligibility/NFTXRangeEligibility.sol:NFTXRangeEligibility",
        "label": "rangeStart",
        "offset": 0,
        "slot": "1",
        "type": "t_uint256"
      },
      {
        "astId": 42161,
        "contract": "src/v2/eligibility/NFTXRangeEligibility.sol:NFTXRangeEligibility",
        "label": "rangeEnd",
        "offset": 0,
        "slot": "2",
        "type": "t_uint256"
      }
    ],
    "types": {
      "t_bool": {
        "encoding": "inplace",
        "label": "bool",
        "numberOfBytes": "1"
      },
      "t_uint256": {
        "encoding": "inplace",
        "label": "uint256",
        "numberOfBytes": "32"
      },
      "t_uint8": {
        "encoding": "inplace",
        "label": "uint8",
        "numberOfBytes": "1"
      }
    }
  }
}