{
  "address": "0x134b737A7D4C4586A3cf63E50a308006b3932224",
  "abi": [
    {
      "anonymous": false,
      "inputs": [
        {
          "indexed": false,
          "internalType": "uint8",
          "name": "version",
          "type": "uint8"
        }
      ],
      "name": "Initialized",
      "type": "event"
    },
    {
      "anonymous": false,
      "inputs": [],
      "name": "NFTXEligibilityInit",
      "type": "event"
    },
    {
      "inputs": [],
      "name": "__NFTXEligibility_init",
      "outputs": [],
      "stateMutability": "nonpayable",
      "type": "function"
    },
    {
      "inputs": [
        {
          "internalType": "bytes",
          "name": "",
          "type": "bytes"
        }
      ],
      "name": "__NFTXEligibility_init_bytes",
      "outputs": [],
      "stateMutability": "nonpayable",
      "type": "function"
    },
    {
      "inputs": [
        {
          "internalType": "uint256[]",
          "name": "tokenIds",
          "type": "uint256[]"
        }
      ],
      "name": "afterMintHook",
      "outputs": [],
      "stateMutability": "nonpayable",
      "type": "function"
    },
    {
      "inputs": [
        {
          "internalType": "uint256[]",
          "name": "tokenIds",
          "type": "uint256[]"
        }
      ],
      "name": "afterRedeemHook",
      "outputs": [],
      "stateMutability": "nonpayable",
      "type": "function"
    },
    {
      "inputs": [
        {
          "internalType": "uint256[]",
          "name": "tokenIds",
          "type": "uint256[]"
        }
      ],
      "name": "beforeMintHook",
      "outputs": [],
      "stateMutability": "nonpayable",
      "type": "function"
    },
    {
      "inputs": [
        {
          "internalType": "uint256[]",
          "name": "tokenIds",
          "type": "uint256[]"
        }
      ],
      "name": "beforeRedeemHook",
      "outputs": [],
      "stateMutability": "nonpayable",
      "type": "function"
    },
    {
      "inputs": [
        {
          "internalType": "uint256[]",
          "name": "tokenIds",
          "type": "uint256[]"
        }
      ],
      "name": "checkAllEligible",
      "outputs": [
        {
          "internalType": "bool",
          "name": "",
          "type": "bool"
        }
      ],
      "stateMutability": "view",
      "type": "function"
    },
    {
      "inputs": [
        {
          "internalType": "uint256[]",
          "name": "tokenIds",
          "type": "uint256[]"
        }
      ],
      "name": "checkAllIneligible",
      "outputs": [
        {
          "internalType": "bool",
          "name": "",
          "type": "bool"
        }
      ],
      "stateMutability": "view",
      "type": "function"
    },
    {
      "inputs": [
        {
          "internalType": "uint256[]",
          "name": "tokenIds",
          "type": "uint256[]"
        }
      ],
      "name": "checkEligible",
      "outputs": [
        {
          "internalType": "bool[]",
          "name": "",
          "type": "bool[]"
        }
      ],
      "stateMutability": "view",
      "type": "function"
    },
    {
      "inputs": [
        {
          "internalType": "uint256",
          "name": "tokenId",
          "type": "uint256"
        }
      ],
      "name": "checkIsEligible",
      "outputs": [
        {
          "internalType": "bool",
          "name": "",
          "type": "bool"
        }
      ],
      "stateMutability": "view",
      "type": "function"
    },
    {
      "inputs": [],
      "name": "finalized",
      "outputs": [
        {
          "internalType": "bool",
          "name": "",
          "type": "bool"
        }
      ],
      "stateMutability": "view",
      "type": "function"
    },
    {
      "inputs": [],
      "name": "name",
      "outputs": [
        {
          "internalType": "string",
          "name": "",
          "type": "string"
        }
      ],
      "stateMutability": "pure",
      "type": "function"
    },
    {
      "inputs": [],
      "name": "targetAsset",
      "outputs": [
        {
          "internalType": "address",
          "name": "",
          "type": "address"
        }
      ],
      "stateMutability": "pure",
      "type": "function"
    }
  ],
  "transactionHash": "0xa97e90a74ef2607a4b3ac29cdaf23e7b7dea25a82ad43851dc6c3cae73b66f2a",
  "args": [],
  "numDeployments": 1,
  "solcInputHash": "86b1d24146f3ebe063a3e2d32a72fbad",
  "bytecode": "0x608060405234801561001057600080fd5b506108df806100206000396000f3fe608060405234801561001057600080fd5b50600436106100df5760003560e01c80636cd912601161008c578063b3f05b9711610066578063b3f05b97146101c0578063bd8affde1461012c578063ca373f28146101c7578063d2a096e8146101da57600080fd5b80636cd912601461017557806384ca9f8514610195578063b1eb9f87146101b857600080fd5b80634998b7f3116100bd5780634998b7f3146101625780635e2f9b521461012c5780636c47d5951461012c57600080fd5b806306fdde03146100e457806336eb08621461012c5780633d4403ac14610140575b600080fd5b604080518082018252600981527f47656e304b69747479000000000000000000000000000000000000000000000060208201529051610123919061060e565b60405180910390f35b61013e61013a366004610663565b5050565b005b6040517306012c8cf97bead5deae237070f9587f8e7a266d8152602001610123565b61013e6101703660046106ee565b6101ed565b610188610183366004610663565b610303565b604051610123919061079f565b6101a86101a3366004610663565b6103b8565b6040519015158152602001610123565b61013e610406565b60016101a8565b6101a86101d5366004610663565b610538565b6101a86101e83660046107e5565b61057c565b600054610100900460ff161580801561020d5750600054600160ff909116105b806102275750303b158015610227575060005460ff166001145b61028f5760405162461bcd60e51b815260206004820152602e60248201527f496e697469616c697a61626c653a20636f6e747261637420697320616c72656160448201526d191e481a5b9a5d1a585b1a5e995960921b60648201526084015b60405180910390fd5b6000805460ff1916600117905580156102b2576000805461ff0019166101001790555b6102ba610406565b801561013a576000805461ff0019169055604051600181527f7f26b83ff96e1f2b6a682f133852f6798a09c465da95921460cefb38474024989060200160405180910390a15050565b60608160008167ffffffffffffffff811115610321576103216106d8565b60405190808252806020026020018201604052801561034a578160200160208202803683370190505b50905060005b828110156103ad5761037986868381811061036d5761036d6107fe565b90506020020135610583565b82828151811061038b5761038b6107fe565b91151560209283029190910190910152806103a581610814565b915050610350565b509150505b92915050565b600081815b818110156103fb576103da85858381811061036d5761036d6107fe565b6103e9576000925050506103b2565b806103f381610814565b9150506103bd565b506001949350505050565b600054610100900460ff16158080156104265750600054600160ff909116105b806104405750303b158015610440575060005460ff166001145b6104a35760405162461bcd60e51b815260206004820152602e60248201527f496e697469616c697a61626c653a20636f6e747261637420697320616c72656160448201526d191e481a5b9a5d1a585b1a5e995960921b6064820152608401610286565b6000805460ff1916600117905580156104c6576000805461ff0019166101001790555b6040517fb708568a0e67d40b1324a610ddd779500570f113513f944a791cc7b8b4970dec90600090a18015610535576000805461ff0019169055604051600181527f7f26b83ff96e1f2b6a682f133852f6798a09c465da95921460cefb38474024989060200160405180910390a15b50565b600081815b818110156103fb5761055a85858381811061036d5761036d6107fe565b1561056a576000925050506103b2565b8061057481610814565b91505061053d565b60006103b2825b60405163e98b7f4d60e01b81526004810182905260009081907306012c8cf97bead5deae237070f9587f8e7a266d9063e98b7f4d9060240161014060405180830381865afa1580156105d9573d6000803e3d6000fd5b505050506040513d601f19601f820116820180604052508101906105fd9190610850565b50159b9a5050505050505050505050565b600060208083528351808285015260005b8181101561063b5785810183015185820160400152820161061f565b8181111561064d576000604083870101525b50601f01601f1916929092016040019392505050565b6000806020838503121561067657600080fd5b823567ffffffffffffffff8082111561068e57600080fd5b818501915085601f8301126106a257600080fd5b8135818111156106b157600080fd5b8660208260051b85010111156106c657600080fd5b60209290920196919550909350505050565b634e487b7160e01b600052604160045260246000fd5b60006020828403121561070057600080fd5b813567ffffffffffffffff8082111561071857600080fd5b818401915084601f83011261072c57600080fd5b81358181111561073e5761073e6106d8565b604051601f8201601f19908116603f01168101908382118183101715610766576107666106d8565b8160405282815287602084870101111561077f57600080fd5b826020860160208301376000928101602001929092525095945050505050565b6020808252825182820181905260009190848201906040850190845b818110156107d95783511515835292840192918401916001016107bb565b50909695505050505050565b6000602082840312156107f757600080fd5b5035919050565b634e487b7160e01b600052603260045260246000fd5b60006001820161083457634e487b7160e01b600052601160045260246000fd5b5060010190565b8051801515811461084b57600080fd5b919050565b6000806000806000806000806000806101408b8d03121561087057600080fd5b6108798b61083b565b995061088760208c0161083b565b985060408b0151975060608b0151965060808b0151955060a08b0151945060c08b0151935060e08b015192506101008b015191506101208b015190509295989b9194979a509295985056fea164736f6c634300080f000a",
  "devdoc": {
    "kind": "dev",
    "methods": {},
    "version": 1
  },
  "userdoc": {
    "kind": "user",
    "methods": {},
    "version": 1
  },
  "storageLayout": {
    "storage": [
      {
        "astId": 276,
        "contract": "src/v2/eligibility/NFTXGen0KittyEligibility.sol:NFTXGen0KittyEligibility",
        "label": "_initialized",
        "offset": 0,
        "slot": "0",
        "type": "t_uint8"
      },
      {
        "astId": 279,
        "contract": "src/v2/eligibility/NFTXGen0KittyEligibility.sol:NFTXGen0KittyEligibility",
        "label": "_initializing",
        "offset": 1,
        "slot": "0",
        "type": "t_bool"
      }
    ],
    "types": {
      "t_bool": {
        "encoding": "inplace",
        "label": "bool",
        "numberOfBytes": "1"
      },
      "t_uint8": {
        "encoding": "inplace",
        "label": "uint8",
        "numberOfBytes": "1"
      }
    }
  }
}