{
  "address": "0xF62d69f9Fe3fDD0c4496615D12926e9ec6Cc454F",
  "abi": [
    {
      "inputs": [
        {
          "internalType": "contract INonfungiblePositionManager",
          "name": "positionManager_",
          "type": "address"
        },
        {
          "internalType": "contract SwapRouter",
          "name": "router_",
          "type": "address"
        },
        {
          "internalType": "contract IQuoterV2",
          "name": "quoter_",
          "type": "address"
        },
        {
          "internalType": "contract INFTXVaultFactory",
          "name": "nftxVaultFactory_",
          "type": "address"
        },
        {
          "internalType": "contract IPermitAllowanceTransfer",
          "name": "PERMIT2_",
          "type": "address"
        }
      ],
      "stateMutability": "nonpayable",
      "type": "constructor"
    },
    {
      "inputs": [],
      "name": "UnableToSendETH",
      "type": "error"
    },
    {
      "anonymous": false,
      "inputs": [
        {
          "indexed": true,
          "internalType": "address",
          "name": "previousOwner",
          "type": "address"
        },
        {
          "indexed": true,
          "internalType": "address",
          "name": "newOwner",
          "type": "address"
        }
      ],
      "name": "OwnershipTransferred",
      "type": "event"
    },
    {
      "inputs": [],
      "name": "CRYPTO_PUNKS",
      "outputs": [
        {
          "internalType": "address",
          "name": "",
          "type": "address"
        }
      ],
      "stateMutability": "view",
      "type": "function"
    },
    {
      "inputs": [],
      "name": "PERMIT2",
      "outputs": [
        {
          "internalType": "contract IPermitAllowanceTransfer",
          "name": "",
          "type": "address"
        }
      ],
      "stateMutability": "view",
      "type": "function"
    },
    {
      "inputs": [],
      "name": "WETH",
      "outputs": [
        {
          "internalType": "address",
          "name": "",
          "type": "address"
        }
      ],
      "stateMutability": "view",
      "type": "function"
    },
    {
      "inputs": [
        {
          "components": [
            {
              "internalType": "uint256",
              "name": "vaultId",
              "type": "uint256"
            },
            {
              "internalType": "uint256",
              "name": "vTokensAmount",
              "type": "uint256"
            },
            {
              "internalType": "uint256[]",
              "name": "nftIds",
              "type": "uint256[]"
            },
            {
              "internalType": "int24",
              "name": "tickLower",
              "type": "int24"
            },
            {
              "internalType": "int24",
              "name": "tickUpper",
              "type": "int24"
            },
            {
              "internalType": "uint24",
              "name": "fee",
              "type": "uint24"
            },
            {
              "internalType": "uint160",
              "name": "sqrtPriceX96",
              "type": "uint160"
            },
            {
              "internalType": "uint256",
              "name": "deadline",
              "type": "uint256"
            }
          ],
          "internalType": "struct INFTXRouter.AddLiquidityParams",
          "name": "params",
          "type": "tuple"
        }
      ],
      "name": "addLiquidity",
      "outputs": [
        {
          "internalType": "uint256",
          "name": "positionId",
          "type": "uint256"
        }
      ],
      "stateMutability": "payable",
      "type": "function"
    },
    {
      "inputs": [
        {
          "components": [
            {
              "internalType": "uint256",
              "name": "vaultId",
              "type": "uint256"
            },
            {
              "internalType": "uint256",
              "name": "vTokensAmount",
              "type": "uint256"
            },
            {
              "internalType": "uint256[]",
              "name": "nftIds",
              "type": "uint256[]"
            },
            {
              "internalType": "int24",
              "name": "tickLower",
              "type": "int24"
            },
            {
              "internalType": "int24",
              "name": "tickUpper",
              "type": "int24"
            },
            {
              "internalType": "uint24",
              "name": "fee",
              "type": "uint24"
            },
            {
              "internalType": "uint160",
              "name": "sqrtPriceX96",
              "type": "uint160"
            },
            {
              "internalType": "uint256",
              "name": "deadline",
              "type": "uint256"
            }
          ],
          "internalType": "struct INFTXRouter.AddLiquidityParams",
          "name": "params",
          "type": "tuple"
        },
        {
          "internalType": "bytes",
          "name": "encodedPermit2",
          "type": "bytes"
        }
      ],
      "name": "addLiquidityWithPermit2",
      "outputs": [
        {
          "internalType": "uint256",
          "name": "positionId",
          "type": "uint256"
        }
      ],
      "stateMutability": "payable",
      "type": "function"
    },
    {
      "inputs": [
        {
          "components": [
            {
              "internalType": "uint256",
              "name": "vaultId",
              "type": "uint256"
            },
            {
              "internalType": "uint256[]",
              "name": "nftIds",
              "type": "uint256[]"
            },
            {
              "internalType": "uint256",
              "name": "deadline",
              "type": "uint256"
            },
            {
              "internalType": "uint24",
              "name": "fee",
              "type": "uint24"
            },
            {
              "internalType": "uint160",
              "name": "sqrtPriceLimitX96",
              "type": "uint160"
            }
          ],
          "internalType": "struct INFTXRouter.BuyNFTsParams",
          "name": "params",
          "type": "tuple"
        }
      ],
      "name": "buyNFTs",
      "outputs": [],
      "stateMutability": "payable",
      "type": "function"
    },
    {
      "inputs": [
        {
          "internalType": "address",
          "name": "vToken_",
          "type": "address"
        },
        {
          "internalType": "uint24",
          "name": "fee",
          "type": "uint24"
        }
      ],
      "name": "computePool",
      "outputs": [
        {
          "internalType": "address",
          "name": "",
          "type": "address"
        }
      ],
      "stateMutability": "view",
      "type": "function"
    },
    {
      "inputs": [
        {
          "internalType": "address",
          "name": "vToken_",
          "type": "address"
        },
        {
          "internalType": "uint24",
          "name": "fee",
          "type": "uint24"
        }
      ],
      "name": "getPool",
      "outputs": [
        {
          "internalType": "address",
          "name": "pool",
          "type": "address"
        }
      ],
      "stateMutability": "view",
      "type": "function"
    },
    {
      "inputs": [
        {
          "internalType": "uint256",
          "name": "vaultId",
          "type": "uint256"
        },
        {
          "internalType": "uint24",
          "name": "fee",
          "type": "uint24"
        }
      ],
      "name": "getPoolExists",
      "outputs": [
        {
          "internalType": "address",
          "name": "pool",
          "type": "address"
        },
        {
          "internalType": "bool",
          "name": "exists",
          "type": "bool"
        }
      ],
      "stateMutability": "view",
      "type": "function"
    },
    {
      "inputs": [
        {
          "internalType": "address",
          "name": "vToken_",
          "type": "address"
        },
        {
          "internalType": "uint24",
          "name": "fee",
          "type": "uint24"
        }
      ],
      "name": "getPoolExists",
      "outputs": [
        {
          "internalType": "address",
          "name": "pool",
          "type": "address"
        },
        {
          "internalType": "bool",
          "name": "exists",
          "type": "bool"
        }
      ],
      "stateMutability": "view",
      "type": "function"
    },
    {
      "inputs": [
        {
          "internalType": "address",
          "name": "vtoken",
          "type": "address"
        }
      ],
      "name": "isVToken0",
      "outputs": [
        {
          "internalType": "bool",
          "name": "",
          "type": "bool"
        }
      ],
      "stateMutability": "view",
      "type": "function"
    },
    {
      "inputs": [],
      "name": "nftxVaultFactory",
      "outputs": [
        {
          "internalType": "contract INFTXVaultFactory",
          "name": "",
          "type": "address"
        }
      ],
      "stateMutability": "view",
      "type": "function"
    },
    {
      "inputs": [
        {
          "internalType": "address",
          "name": "",
          "type": "address"
        },
        {
          "internalType": "address",
          "name": "",
          "type": "address"
        },
        {
          "internalType": "uint256",
          "name": "",
          "type": "uint256"
        },
        {
          "internalType": "bytes",
          "name": "",
          "type": "bytes"
        }
      ],
      "name": "onERC721Received",
      "outputs": [
        {
          "internalType": "bytes4",
          "name": "",
          "type": "bytes4"
        }
      ],
      "stateMutability": "nonpayable",
      "type": "function"
    },
    {
      "inputs": [],
      "name": "owner",
      "outputs": [
        {
          "internalType": "address",
          "name": "",
          "type": "address"
        }
      ],
      "stateMutability": "view",
      "type": "function"
    },
    {
      "inputs": [],
      "name": "positionManager",
      "outputs": [
        {
          "internalType": "contract INonfungiblePositionManager",
          "name": "",
          "type": "address"
        }
      ],
      "stateMutability": "view",
      "type": "function"
    },
    {
      "inputs": [
        {
          "internalType": "address",
          "name": "vtoken",
          "type": "address"
        },
        {
          "internalType": "uint256",
          "name": "nftsCount",
          "type": "uint256"
        },
        {
          "internalType": "uint24",
          "name": "fee",
          "type": "uint24"
        },
        {
          "internalType": "uint160",
          "name": "sqrtPriceLimitX96",
          "type": "uint160"
        }
      ],
      "name": "quoteBuyNFTs",
      "outputs": [
        {
          "internalType": "uint256",
          "name": "ethRequired",
          "type": "uint256"
        }
      ],
      "stateMutability": "nonpayable",
      "type": "function"
    },
    {
      "inputs": [],
      "name": "quoter",
      "outputs": [
        {
          "internalType": "contract IQuoterV2",
          "name": "",
          "type": "address"
        }
      ],
      "stateMutability": "view",
      "type": "function"
    },
    {
      "inputs": [
        {
          "components": [
            {
              "internalType": "uint256",
              "name": "positionId",
              "type": "uint256"
            },
            {
              "internalType": "uint256",
              "name": "vaultId",
              "type": "uint256"
            },
            {
              "internalType": "uint256[]",
              "name": "nftIds",
              "type": "uint256[]"
            },
            {
              "internalType": "uint128",
              "name": "liquidity",
              "type": "uint128"
            },
            {
              "internalType": "uint256",
              "name": "amount0Min",
              "type": "uint256"
            },
            {
              "internalType": "uint256",
              "name": "amount1Min",
              "type": "uint256"
            },
            {
              "internalType": "uint256",
              "name": "deadline",
              "type": "uint256"
            }
          ],
          "internalType": "struct INFTXRouter.RemoveLiquidityParams",
          "name": "params",
          "type": "tuple"
        }
      ],
      "name": "removeLiquidity",
      "outputs": [],
      "stateMutability": "payable",
      "type": "function"
    },
    {
      "inputs": [],
      "name": "renounceOwnership",
      "outputs": [],
      "stateMutability": "nonpayable",
      "type": "function"
    },
    {
      "inputs": [
        {
          "internalType": "contract IERC20",
          "name": "token",
          "type": "address"
        }
      ],
      "name": "rescueTokens",
      "outputs": [],
      "stateMutability": "nonpayable",
      "type": "function"
    },
    {
      "inputs": [],
      "name": "router",
      "outputs": [
        {
          "internalType": "contract SwapRouter",
          "name": "",
          "type": "address"
        }
      ],
      "stateMutability": "view",
      "type": "function"
    },
    {
      "inputs": [
        {
          "components": [
            {
              "internalType": "uint256",
              "name": "vaultId",
              "type": "uint256"
            },
            {
              "internalType": "uint256[]",
              "name": "nftIds",
              "type": "uint256[]"
            },
            {
              "internalType": "uint256",
              "name": "deadline",
              "type": "uint256"
            },
            {
              "internalType": "uint24",
              "name": "fee",
              "type": "uint24"
            },
            {
              "internalType": "uint256",
              "name": "amountOutMinimum",
              "type": "uint256"
            },
            {
              "internalType": "uint160",
              "name": "sqrtPriceLimitX96",
              "type": "uint160"
            }
          ],
          "internalType": "struct INFTXRouter.SellNFTsParams",
          "name": "params",
          "type": "tuple"
        }
      ],
      "name": "sellNFTs",
      "outputs": [
        {
          "internalType": "uint256",
          "name": "wethReceived",
          "type": "uint256"
        }
      ],
      "stateMutability": "payable",
      "type": "function"
    },
    {
      "inputs": [
        {
          "internalType": "address",
          "name": "newOwner",
          "type": "address"
        }
      ],
      "name": "transferOwnership",
      "outputs": [],
      "stateMutability": "nonpayable",
      "type": "function"
    },
    {
      "stateMutability": "payable",
      "type": "receive"
    }
  ],
  "transactionHash": "0x702495b9ddbab9208c5b9b21306a4db8e7b3814228b0c6e0af294a18a329e9ad",
  "args": [
    "0x7398417C94D02556c371fe1e7a11D1bddAFE73F3",
    "0xA2D1e7c0E7D3eD6B485f3Fe8533Fa5667b5Ec1ba",
    "0x009941e51253244349c6034761382b01f06dBA99",
    "0xD4dB45012231b667F8530F3965f65329d0D5b5F4",
    "0x000000000022d473030f116ddee9f6b43ac78ba3"
  ],
  "numDeployments": 6,
  "solcInputHash": "9222f6b98937f29b801390260551c588",
  "bytecode": "0x6101406040523480156200001257600080fd5b50604051620041033803806200410383398101604081905262000035916200014d565b6200004033620000e4565b6001600160a01b0380861660c081905285821660e052848216610100528382166101205290821660a052604080516312a9293f60e21b81529051634aa4a4fc916004808201926020929091908290030181865afa158015620000a6573d6000803e3d6000fd5b505050506040513d601f19601f82011682018060405250810190620000cc9190620001cd565b6001600160a01b031660805250620001f49350505050565b600080546001600160a01b038381166001600160a01b0319831681178455604051919092169283917f8be0079c531659141344cd1fd0a4f28419497f9722a3daafe3b4186f6b6457e09190a35050565b6001600160a01b03811681146200014a57600080fd5b50565b600080600080600060a086880312156200016657600080fd5b8551620001738162000134565b6020870151909550620001868162000134565b6040870151909450620001998162000134565b6060870151909350620001ac8162000134565b6080870151909250620001bf8162000134565b809150509295509295909350565b600060208284031215620001e057600080fd5b8151620001ed8162000134565b9392505050565b60805160a05160c05160e0516101005161012051613d996200036a600039600081816102f7015281816106d0015281816108b101528181610f9e01528181611530015281816119a101528181611bfd015261249c01526000818161044001526112170152600081816104e70152818161076101528181610ada01528181610b5d01528181610e4f01528181611aaa01528181611cc801528181611e950152611f07015260008181610394015281816113110152818161149901528181612890015281816129a701528181612b1d0152612c8101526000818161034b0152818161103101526110f60152600081816103f90152818161052e0152818161080001528181610ba701528181610ca201528181610d7101528181610eee01528181611191015281816115ad01528181611682015281816118af01528181611b4901528181611d0401528181611f8d01528181612525015281816125be0152818161291d0152818161295001526129780152613d996000f3fe6080604052600436106101835760003560e01c8063791b98bc116100d6578063c8a281841161007f578063f2fde38b11610059578063f2fde38b146104b5578063f887ea40146104d5578063f932e32a1461050957600080fd5b8063c8a2818414610462578063ca9a514214610482578063de6a4abf1461049557600080fd5b8063ad5c4648116100b0578063ad5c4648146103e7578063c03b7b591461041b578063c6bbd5a71461042e57600080fd5b8063791b98bc146103825780638da5cb5b146103b657806399d5c122146103d457600080fd5b80632a9c99e911610138578063470b78b311610112578063470b78b3146103195780636afdd85014610339578063715018a61461036d57600080fd5b80632a9c99e9146102b25780633026107c146102d25780633801daf1146102e557600080fd5b8063150b7a0211610169578063150b7a02146101f55780631839d560146102515780631d3281361461027257600080fd5b8062ae3bf81461018f5780630500a30e146101b157600080fd5b3661018a57005b600080fd5b34801561019b57600080fd5b506101af6101aa36600461334f565b610565565b005b3480156101bd57600080fd5b506101d16101cc366004613384565b6106c9565b604080516001600160a01b0390931683529015156020830152015b60405180910390f35b34801561020157600080fd5b506102206102103660046134aa565b630a85bd0160e11b949350505050565b6040517fffffffff0000000000000000000000000000000000000000000000000000000090911681526020016101ec565b61026461025f366004613516565b610896565b6040519081526020016101ec565b34801561027e57600080fd5b5061029a73b47e3cd837ddf8e4c57f05d70ab865de6e193bbb81565b6040516001600160a01b0390911681526020016101ec565b3480156102be57600080fd5b506101d16102cd366004613551565b610e4a565b6102646102e0366004613596565b610f83565b3480156102f157600080fd5b5061029a7f000000000000000000000000000000000000000000000000000000000000000081565b34801561032557600080fd5b5061026461033436600461362d565b611168565b34801561034557600080fd5b5061029a7f000000000000000000000000000000000000000000000000000000000000000081565b34801561037957600080fd5b506101af611292565b34801561038e57600080fd5b5061029a7f000000000000000000000000000000000000000000000000000000000000000081565b3480156103c257600080fd5b506000546001600160a01b031661029a565b6101af6103e236600461367e565b6112f8565b3480156103f357600080fd5b5061029a7f000000000000000000000000000000000000000000000000000000000000000081565b6102646104293660046136b9565b611986565b34801561043a57600080fd5b5061029a7f000000000000000000000000000000000000000000000000000000000000000081565b34801561046e57600080fd5b5061029a61047d366004613551565b611aa6565b6101af6104903660046136ee565b611be4565b3480156104a157600080fd5b5061029a6104b0366004613551565b611f00565b3480156104c157600080fd5b506101af6104d036600461334f565b611fb7565b3480156104e157600080fd5b5061029a7f000000000000000000000000000000000000000000000000000000000000000081565b34801561051557600080fd5b5061055561052436600461334f565b6001600160a01b037f0000000000000000000000000000000000000000000000000000000000000000811691161090565b60405190151581526020016101ec565b6000546001600160a01b031633146105c45760405162461bcd60e51b815260206004820181905260248201527f4f776e61626c653a2063616c6c6572206973206e6f7420746865206f776e657260448201526064015b60405180910390fd5b6001600160a01b03811615610658576040516370a0823160e01b81523060048201526000906001600160a01b038316906370a0823190602401602060405180830381865afa15801561061a573d6000803e3d6000fd5b505050506040513d601f19601f8201168201806040525081019061063e9190613729565b90506106546001600160a01b0383163383612096565b5050565b6040514790600090339083908381818185875af1925050503d806000811461069c576040519150601f19603f3d011682016040523d82523d6000602084013e6106a1565b606091505b50509050806106c35760405163260e7d5b60e11b815260040160405180910390fd5b50505b50565b60008060007f00000000000000000000000000000000000000000000000000000000000000006001600160a01b03166381a36fb6866040518263ffffffff1660e01b815260040161071c91815260200190565b602060405180830381865afa158015610739573d6000803e3d6000fd5b505050506040513d601f19601f8201168201806040525081019061075d9190613742565b90507f00000000000000000000000000000000000000000000000000000000000000006001600160a01b031663c45a01556040518163ffffffff1660e01b8152600401602060405180830381865afa1580156107bd573d6000803e3d6000fd5b505050506040513d601f19601f820116820180604052508101906107e19190613742565b604051630b4c774160e11b81526001600160a01b0383811660048301527f00000000000000000000000000000000000000000000000000000000000000008116602483015262ffffff871660448301529190911690631698ee8290606401602060405180830381865afa15801561085c573d6000803e3d6000fd5b505050506040513d601f19601f820116820180604052508101906108809190613742565b956001600160a01b038716151595509350505050565b6040516340d1b7db60e11b81528135600482015260009081907f00000000000000000000000000000000000000000000000000000000000000006001600160a01b0316906381a36fb690602401602060405180830381865afa158015610900573d6000803e3d6000fd5b505050506040513d601f19601f820116820180604052508101906109249190613742565b90506000816001600160a01b0316631ba46cfd6040518163ffffffff1660e01b8152600401602060405180830381865afa158015610966573d6000803e3d6000fd5b505050506040513d601f19601f8201168201806040525081019061098a9190613742565b905060005b61099c602086018661375f565b9050811015610a2e576109d3826109b6602088018861375f565b848181106109c6576109c66137b0565b90506020020135856120e8565b73b47e3cd837ddf8e4c57f05d70ab865de6e193bba196001600160a01b03831601610a2657610a2682610a09602088018861375f565b84818110610a1957610a196137b0565b9050602002013585612346565b60010161098f565b50606060006001600160a01b038416633d5d190c610a4f602089018961375f565b856040518463ffffffff1660e01b8152600401610a6e93929190613815565b6020604051808303816000875af1158015610a8d573d6000803e3d6000fd5b505050506040513d601f19601f82011682018060405250810190610ab19190613729565b610ac390670de0b6b3a7640000613884565b60405163095ea7b360e01b81526001600160a01b037f000000000000000000000000000000000000000000000000000000000000000081166004830152602482018390529192509085169063095ea7b3906044016020604051808303816000875af1158015610b36573d6000803e3d6000fd5b505050506040513d601f19601f82011682018060405250810190610b5a91906138a3565b507f00000000000000000000000000000000000000000000000000000000000000006001600160a01b031663414bf389604051806101000160405280876001600160a01b031681526020017f00000000000000000000000000000000000000000000000000000000000000006001600160a01b03168152602001896060016020810190610be791906138c5565b62ffffff168152602001306001600160a01b0316815260200189604001358152602001848152602001896080013581526020018960a0016020810190610c2d919061334f565b6001600160a01b03168152506040518263ffffffff1660e01b8152600401610c5591906138e0565b6020604051808303816000875af1158015610c74573d6000803e3d6000fd5b505050506040513d601f19601f82011682018060405250810190610c989190613729565b94503415610d23577f00000000000000000000000000000000000000000000000000000000000000006001600160a01b031663d0e30db0346040518263ffffffff1660e01b81526004016000604051808303818588803b158015610cfb57600080fd5b505af1158015610d0f573d6000803e3d6000fd5b50505050503485610d20919061394e565b94505b6000610d3d85610d3660208a018a61375f565b90506123b5565b9050610d4c8735826001612492565b6000610d588288613966565b604051632e1a7d4d60e01b8152600481018290529091507f00000000000000000000000000000000000000000000000000000000000000006001600160a01b031690632e1a7d4d90602401600060405180830381600087803b158015610dbd57600080fd5b505af1158015610dd1573d6000803e3d6000fd5b50506040516000925033915083908381818185875af1925050503d8060008114610e17576040519150601f19603f3d011682016040523d82523d6000602084013e610e1c565b606091505b5050905080610e3e5760405163260e7d5b60e11b815260040160405180910390fd5b50505050505050919050565b6000807f00000000000000000000000000000000000000000000000000000000000000006001600160a01b031663c45a01556040518163ffffffff1660e01b8152600401602060405180830381865afa158015610eab573d6000803e3d6000fd5b505050506040513d601f19601f82011682018060405250810190610ecf9190613742565b604051630b4c774160e11b81526001600160a01b0386811660048301527f00000000000000000000000000000000000000000000000000000000000000008116602483015262ffffff861660448301529190911690631698ee8290606401602060405180830381865afa158015610f4a573d6000803e3d6000fd5b505050506040513d601f19601f82011682018060405250810190610f6e9190613742565b946001600160a01b0386161515945092505050565b6040516340d1b7db60e11b81528335600482015260009081907f00000000000000000000000000000000000000000000000000000000000000006001600160a01b0316906381a36fb690602401602060405180830381865afa158015610fed573d6000803e3d6000fd5b505050506040513d601f19601f820116820180604052508101906110119190613742565b905082156110b5576000808061102986880188613993565b9250925092507f00000000000000000000000000000000000000000000000000000000000000006001600160a01b0316632b67b5708484846040518463ffffffff1660e01b815260040161107f93929190613adb565b600060405180830381600087803b15801561109957600080fd5b505af11580156110ad573d6000803e3d6000fd5b505050505050505b60208501351561115357604051631b63c28b60e11b81523360048201523060248201526001600160a01b0360208701358116604483015282811660648301527f000000000000000000000000000000000000000000000000000000000000000016906336c7851690608401600060405180830381600087803b15801561113a57600080fd5b505af115801561114e573d6000803e3d6000fd5b505050505b61115d8582612682565b9150505b9392505050565b60008061117d85670de0b6b3a7640000613884565b6040805160a0810182526001600160a01b037f0000000000000000000000000000000000000000000000000000000000000000811682528981166020830190815282840185815262ffffff8a8116606086019081528a8516608087019081529651635e90b82560e11b81529551851660048701529251841660248601529051604485015290511660648301529151821660848201529192507f0000000000000000000000000000000000000000000000000000000000000000169063bd21704a9060a4016080604051808303816000875af1158015611260573d6000803e3d6000fd5b505050506040513d601f19601f820116820180604052508101906112849190613b5a565b509198975050505050505050565b6000546001600160a01b031633146112ec5760405162461bcd60e51b815260206004820181905260248201527f4f776e61626c653a2063616c6c6572206973206e6f7420746865206f776e657260448201526064016105bb565b6112f66000612dd8565b565b6040805160a08101909152813581526001600160a01b037f00000000000000000000000000000000000000000000000000000000000000001690630c49ccbe906020810161134c6080860160608701613bca565b6fffffffffffffffffffffffffffffffff168152602001846080013581526020018460a0013581526020018460c001358152506040518263ffffffff1660e01b81526004016113e29190600060a082019050825182526fffffffffffffffffffffffffffffffff602084015116602083015260408301516040830152606083015160608301526080830151608083015292915050565b60408051808303816000875af1158015611400573d6000803e3d6000fd5b505050506040513d601f19601f820116820180604052508101906114249190613be7565b5050604080516080810182528235815230602082019081526fffffffffffffffffffffffffffffffff82840181815260608401828152945163fc6f786560e01b81529351600485015291516001600160a01b0390811660248501529151811660448401529251909216606482015260009182917f00000000000000000000000000000000000000000000000000000000000000009091169063fc6f78659060840160408051808303816000875af11580156114e3573d6000803e3d6000fd5b505050506040513d601f19601f820116820180604052508101906115079190613be7565b6040516340d1b7db60e11b81526020860135600482015291935091506000906001600160a01b037f000000000000000000000000000000000000000000000000000000000000000016906381a36fb690602401602060405180830381865afa158015611577573d6000803e3d6000fd5b505050506040513d601f19601f8201168201806040525081019061159b9190613742565b905060006115d4826001600160a01b037f0000000000000000000000000000000000000000000000000000000000000000811691161090565b9050600080826115e55784866115e8565b85855b90925090506115fa604088018861375f565b905060000361167a5760405163a9059cbb60e01b8152336004820152602481018390526001600160a01b0385169063a9059cbb906044016020604051808303816000875af1158015611650573d6000803e3d6000fd5b505050506040513d601f19601f8201168201806040525081019061167491906138a3565b50611899565b3415611703577f00000000000000000000000000000000000000000000000000000000000000006001600160a01b031663d0e30db0346040518263ffffffff1660e01b81526004016000604051808303818588803b1580156116db57600080fd5b505af11580156116ef573d6000803e3d6000fd5b50505050503481611700919061394e565b90505b600061174d8561171660408b018b61375f565b80806020026020016040519081016040528093929190818152602001838360200280828437600092019190915250612e4092505050565b905061175f8860200135826001612492565b6117698183613966565b91506001600160a01b03851663deb190f161178760408b018b61375f565b336040518463ffffffff1660e01b81526004016117a693929190613c0b565b6020604051808303816000875af11580156117c5573d6000803e3d6000fd5b505050506040513d601f19601f820116820180604052508101906117e99190613729565b5060006117f960408a018a61375f565b61180c9150670de0b6b3a7640000613884565b9050600061181a8286613966565b905080156118955760405163a9059cbb60e01b8152336004820152602481018290526001600160a01b0388169063a9059cbb906044016020604051808303816000875af115801561186f573d6000803e3d6000fd5b505050506040513d601f19601f8201168201806040525081019061189391906138a3565b505b5050505b604051632e1a7d4d60e01b8152600481018290527f00000000000000000000000000000000000000000000000000000000000000006001600160a01b031690632e1a7d4d90602401600060405180830381600087803b1580156118fb57600080fd5b505af115801561190f573d6000803e3d6000fd5b50506040516000925033915083908381818185875af1925050503d8060008114611955576040519150601f19603f3d011682016040523d82523d6000602084013e61195a565b606091505b505090508061197c5760405163260e7d5b60e11b815260040160405180910390fd5b5050505050505050565b6040516340d1b7db60e11b81528135600482015260009081907f00000000000000000000000000000000000000000000000000000000000000006001600160a01b0316906381a36fb690602401602060405180830381865afa1580156119f0573d6000803e3d6000fd5b505050506040513d601f19601f82011682018060405250810190611a149190613742565b9050602083013515611a9c576040516323b872dd60e01b8152336004820152306024820152602084013560448201526001600160a01b038216906323b872dd906064016020604051808303816000875af1158015611a76573d6000803e3d6000fd5b505050506040513d601f19601f82011682018060405250810190611a9a91906138a3565b505b6111618382612682565b60007f00000000000000000000000000000000000000000000000000000000000000006001600160a01b031663c45a01556040518163ffffffff1660e01b8152600401602060405180830381865afa158015611b06573d6000803e3d6000fd5b505050506040513d601f19601f82011682018060405250810190611b2a9190613742565b604051630b4c774160e11b81526001600160a01b0385811660048301527f00000000000000000000000000000000000000000000000000000000000000008116602483015262ffffff851660448301529190911690631698ee8290606401602060405180830381865afa158015611ba5573d6000803e3d6000fd5b505050506040513d601f19601f82011682018060405250810190611bc99190613742565b90506001600160a01b038116611bde57600080fd5b92915050565b6040516340d1b7db60e11b8152813560048201526000907f00000000000000000000000000000000000000000000000000000000000000006001600160a01b0316906381a36fb690602401602060405180830381865afa158015611c4c573d6000803e3d6000fd5b505050506040513d601f19601f82011682018060405250810190611c709190613742565b90506000611c81602084018461375f565b611c949150670de0b6b3a7640000613884565b90506000611ca983611716602087018761375f565b9050611cb88435826000612492565b6000611cc48234613966565b90507f00000000000000000000000000000000000000000000000000000000000000006001600160a01b031663db3e2198826040518061010001604052807f00000000000000000000000000000000000000000000000000000000000000006001600160a01b03168152602001886001600160a01b03168152602001896060016020810190611d5391906138c5565b62ffffff168152602001306001600160a01b0316815260200189604001358152602001878152602001858152602001896080016020810190611d95919061334f565b6001600160a01b03168152506040518363ffffffff1660e01b8152600401611dbd91906138e0565b60206040518083038185885af1158015611ddb573d6000803e3d6000fd5b50505050506040513d601f19601f82011682018060405250810190611e009190613729565b506001600160a01b03841663deb190f1611e1d602088018861375f565b336040518463ffffffff1660e01b8152600401611e3c93929190613c0b565b6020604051808303816000875af1158015611e5b573d6000803e3d6000fd5b505050506040513d601f19601f82011682018060405250810190611e7f9190613729565b5060405163073db96d60e21b81523360048201527f00000000000000000000000000000000000000000000000000000000000000006001600160a01b031690631cf6e5b490602401600060405180830381600087803b158015611ee157600080fd5b505af1158015611ef5573d6000803e3d6000fd5b505050505050505050565b60006111617f00000000000000000000000000000000000000000000000000000000000000006001600160a01b031663c45a01556040518163ffffffff1660e01b8152600401602060405180830381865afa158015611f63573d6000803e3d6000fd5b505050506040513d601f19601f82011682018060405250810190611f879190613742565b611fb2857f000000000000000000000000000000000000000000000000000000000000000086612ed3565b612f3e565b6000546001600160a01b031633146120115760405162461bcd60e51b815260206004820181905260248201527f4f776e61626c653a2063616c6c6572206973206e6f7420746865206f776e657260448201526064016105bb565b6001600160a01b03811661208d5760405162461bcd60e51b815260206004820152602660248201527f4f776e61626c653a206e6577206f776e657220697320746865207a65726f206160448201527f646472657373000000000000000000000000000000000000000000000000000060648201526084016105bb565b6106c681612dd8565b604080516001600160a01b038416602482015260448082018490528251808303909101815260649091019091526020810180516001600160e01b031663a9059cbb60e01b1790526106c3908490612fe3565b60606001600160a01b03841673b47e3cd837ddf8e4c57f05d70ab865de6e193bbb14612161576040513360248201526001600160a01b03831660448201526064810184905260840160408051601f198184030181529190526020810180516001600160e01b0316632142170760e11b17905290506122bb565b60008360405160240161217691815260200190565b60408051601f198184030181529181526020820180516001600160e01b0316630b02f02d60e31b1790525190915060009081906001600160a01b038816906121bf908590613c38565b600060405180830381855afa9150503d80600081146121fa576040519150601f19603f3d011682016040523d82523d6000602084013e6121ff565b606091505b509150915060008180602001905181019061221a9190613742565b905082801561223157506001600160a01b03811633145b61227d5760405162461bcd60e51b815260206004820152601160248201527f4e6f7420746865204e4654206f776e657200000000000000000000000000000060448201526064016105bb565b6040516024810188905260440160408051601f198184030181529190526020810180516001600160e01b031663104c9fd360e31b1790529450505050505b600080856001600160a01b0316836040516122d69190613c38565b6000604051808303816000865af19150503d8060008114612313576040519150601f19603f3d011682016040523d82523d6000602084013e612318565b606091505b509150915081819061233d5760405162461bcd60e51b81526004016105bb9190613c54565b50505050505050565b604051602481018390526000604482018190526001600160a01b03831660648301529060840160408051601f198184030181529181526020820180516001600160e01b031663bf31196f60e01b1790525190915060009081906001600160a01b038716906122d6908590613c38565b6000826001600160a01b031663b8517b7883856001600160a01b03166313966db56040518163ffffffff1660e01b8152600401602060405180830381865afa158015612405573d6000803e3d6000fd5b505050506040513d601f19601f820116820180604052508101906124299190613729565b6124339190613884565b6040518263ffffffff1660e01b815260040161245191815260200190565b602060405180830381865afa15801561246e573d6000803e3d6000fd5b505050506040513d601f19601f820116820180604052508101906111619190613729565b81156106c35760007f00000000000000000000000000000000000000000000000000000000000000006001600160a01b0316630d43e8ad6040518163ffffffff1660e01b8152600401602060405180830381865afa1580156124f8573d6000803e3d6000fd5b505050506040513d601f19601f8201168201806040525081019061251c9190613742565b905081612598577f00000000000000000000000000000000000000000000000000000000000000006001600160a01b031663d0e30db0846040518263ffffffff1660e01b81526004016000604051808303818588803b15801561257e57600080fd5b505af1158015612592573d6000803e3d6000fd5b50505050505b60405163a9059cbb60e01b81526001600160a01b038281166004830152602482018590527f0000000000000000000000000000000000000000000000000000000000000000169063a9059cbb906044016020604051808303816000875af1158015612607573d6000803e3d6000fd5b505050506040513d601f19601f8201168201806040525081019061262b91906138a3565b506040516391c05b0b60e01b8152600481018590526001600160a01b038216906391c05b0b90602401600060405180830381600087803b15801561266e57600080fd5b505af115801561197c573d6000803e3d6000fd5b600060208301353482612698604087018761375f565b90501115612879576000846001600160a01b0316631ba46cfd6040518163ffffffff1660e01b8152600401602060405180830381865afa1580156126e0573d6000803e3d6000fd5b505050506040513d601f19601f820116820180604052508101906127049190613742565b905060005b612716604088018861375f565b90508110156127a85761274d8261273060408a018a61375f565b84818110612740576127406137b0565b90506020020135886120e8565b73b47e3cd837ddf8e4c57f05d70ab865de6e193bba196001600160a01b038316016127a0576127a08261278360408a018a61375f565b84818110612793576127936137b0565b9050602002013588612346565b600101612709565b5060606001600160a01b038616633d5d190c6127c760408a018a61375f565b846040518463ffffffff1660e01b81526004016127e693929190613815565b6020604051808303816000875af1158015612805573d6000803e3d6000fd5b505050506040513d601f19601f820116820180604052508101906128299190613729565b61283b90670de0b6b3a7640000613884565b612845908561394e565b9350600061285a87610d3660408b018b61375f565b90506128698835826000612492565b6128738185613966565b93505050505b60405163095ea7b360e01b81526001600160a01b037f0000000000000000000000000000000000000000000000000000000000000000811660048301526024820184905285169063095ea7b3906044016020604051808303816000875af11580156128e8573d6000803e3d6000fd5b505050506040513d601f19601f8201168201806040525081019061290c91906138a3565b506000612944856001600160a01b037f0000000000000000000000000000000000000000000000000000000000000000811691161090565b905060008082612975577f000000000000000000000000000000000000000000000000000000000000000087612998565b867f00000000000000000000000000000000000000000000000000000000000000005b90925090506001600160a01b037f0000000000000000000000000000000000000000000000000000000000000000166313ead56283836129de60c08d0160a08e016138c5565b6129ee60e08e0160c08f0161334f565b6040517fffffffff0000000000000000000000000000000000000000000000000000000060e087901b1681526001600160a01b039485166004820152928416602484015262ffffff90911660448301529190911660648201526084016020604051808303816000875af1158015612a69573d6000803e3d6000fd5b505050506040513d601f19601f82011682018060405250810190612a8d9190613742565b50612ab96040518060800160405280600081526020016000815260200160008152602001600081525090565b8315612aef578581526113888611612ad2576000612ade565b612ade61138887613966565b604082015260208101859052612b1b565b848152602081018690526113888611612b09576000612b15565b612b1561138887613966565b60608201525b7f00000000000000000000000000000000000000000000000000000000000000006001600160a01b0316638831645686604051806101600160405280876001600160a01b03168152602001866001600160a01b031681526020018d60a0016020810190612b8891906138c5565b62ffffff1681526020018d6060016020810190612ba59190613c67565b60020b81526020018d6080016020810190612bc09190613c67565b60020b815260200185600001518152602001856020015181526020018560400151815260200185606001518152602001336001600160a01b031681526020018d60e001358152506040518363ffffffff1660e01b8152600401612c239190613c8a565b60806040518083038185885af1158015612c41573d6000803e3d6000fd5b50505050506040513d601f19601f82011682018060405250810190612c669190613d4e565b505060405163073db96d60e21b8152336004820152919850507f00000000000000000000000000000000000000000000000000000000000000006001600160a01b031690631cf6e5b490602401600060405180830381600087803b158015612ccd57600080fd5b505af1158015612ce1573d6000803e3d6000fd5b50506040516370a0823160e01b8152306004820152600092506001600160a01b038b1691506370a0823190602401602060405180830381865afa158015612d2c573d6000803e3d6000fd5b505050506040513d601f19601f82011682018060405250810190612d509190613729565b90508015612dcb5760405163a9059cbb60e01b8152336004820152602481018290526001600160a01b038a169063a9059cbb906044016020604051808303816000875af1158015612da5573d6000803e3d6000fd5b505050506040513d601f19601f82011682018060405250810190612dc991906138a3565b505b5050505050505092915050565b600080546001600160a01b038381167fffffffffffffffffffffffff0000000000000000000000000000000000000000831681178455604051919092169283917f8be0079c531659141344cd1fd0a4f28419497f9722a3daafe3b4186f6b6457e09190a35050565b6000826001600160a01b031663b8517b78612e5b85856130c8565b8451866001600160a01b031663feb8eba56040518163ffffffff1660e01b8152600401602060405180830381865afa158015612e9b573d6000803e3d6000fd5b505050506040513d601f19601f82011682018060405250810190612ebf9190613729565b612ec99190613884565b612433919061394e565b6040805160608101825260008082526020820181905291810191909152826001600160a01b0316846001600160a01b03161115612f0e579192915b50604080516060810182526001600160a01b03948516815292909316602083015262ffffff169181019190915290565b600081602001516001600160a01b031682600001516001600160a01b031610612f6657600080fd5b815160208084015160408086015181516001600160a01b0395861694810194909452939091169082015262ffffff909116606082015261116190608001604051602081830303815290604052805190602001207f25e3ec08b5481ab6736bacbc1babb737902563de379be5263db365452e048cc160001b85613178565b6000613038826040518060400160405280602081526020017f5361666545524332303a206c6f772d6c6576656c2063616c6c206661696c6564815250856001600160a01b03166131a29092919063ffffffff16565b8051909150156106c3578080602001905181019061305691906138a3565b6106c35760405162461bcd60e51b815260206004820152602a60248201527f5361666545524332303a204552433230206f7065726174696f6e20646964206e60448201527f6f7420737563636565640000000000000000000000000000000000000000000060648201526084016105bb565b6000805b825181101561317157836001600160a01b031663d23923b68483815181106130f6576130f66137b0565b60200260200101516040518263ffffffff1660e01b815260040161311c91815260200190565b602060405180830381865afa158015613139573d6000803e3d6000fd5b505050506040513d601f19601f8201168201806040525081019061315d9190613729565b613167908361394e565b91506001016130cc565b5092915050565b6000604051836040820152846020820152828152600b8101905060ff815360559020949350505050565b60606131b184846000856131b9565b949350505050565b6060824710156132315760405162461bcd60e51b815260206004820152602660248201527f416464726573733a20696e73756666696369656e742062616c616e636520666f60448201527f722063616c6c000000000000000000000000000000000000000000000000000060648201526084016105bb565b6001600160a01b0385163b6132885760405162461bcd60e51b815260206004820152601d60248201527f416464726573733a2063616c6c20746f206e6f6e2d636f6e747261637400000060448201526064016105bb565b600080866001600160a01b031685876040516132a49190613c38565b60006040518083038185875af1925050503d80600081146132e1576040519150601f19603f3d011682016040523d82523d6000602084013e6132e6565b606091505b50915091506132f6828286613301565b979650505050505050565b60608315613310575081611161565b8251156133205782518084602001fd5b8160405162461bcd60e51b81526004016105bb9190613c54565b6001600160a01b03811681146106c657600080fd5b60006020828403121561336157600080fd5b81356111618161333a565b803562ffffff8116811461337f57600080fd5b919050565b6000806040838503121561339757600080fd5b823591506133a76020840161336c565b90509250929050565b803561337f8161333a565b634e487b7160e01b600052604160045260246000fd5b6040516060810167ffffffffffffffff811182821017156133f4576133f46133bb565b60405290565b6040516080810167ffffffffffffffff811182821017156133f4576133f46133bb565b600082601f83011261342e57600080fd5b813567ffffffffffffffff80821115613449576134496133bb565b604051601f8301601f19908116603f01168101908282118183101715613471576134716133bb565b8160405283815286602085880101111561348a57600080fd5b836020870160208301376000602085830101528094505050505092915050565b600080600080608085870312156134c057600080fd5b84356134cb8161333a565b935060208501356134db8161333a565b925060408501359150606085013567ffffffffffffffff8111156134fe57600080fd5b61350a8782880161341d565b91505092959194509250565b60006020828403121561352857600080fd5b813567ffffffffffffffff81111561353f57600080fd5b820160c0818503121561116157600080fd5b6000806040838503121561356457600080fd5b823561356f8161333a565b91506133a76020840161336c565b6000610100828403121561359057600080fd5b50919050565b6000806000604084860312156135ab57600080fd5b833567ffffffffffffffff808211156135c357600080fd5b6135cf8783880161357d565b945060208601359150808211156135e557600080fd5b818601915086601f8301126135f957600080fd5b81358181111561360857600080fd5b87602082850101111561361a57600080fd5b6020830194508093505050509250925092565b6000806000806080858703121561364357600080fd5b843561364e8161333a565b9350602085013592506136636040860161336c565b915060608501356136738161333a565b939692955090935050565b60006020828403121561369057600080fd5b813567ffffffffffffffff8111156136a757600080fd5b820160e0818503121561116157600080fd5b6000602082840312156136cb57600080fd5b813567ffffffffffffffff8111156136e257600080fd5b6131b18482850161357d565b60006020828403121561370057600080fd5b813567ffffffffffffffff81111561371757600080fd5b820160a0818503121561116157600080fd5b60006020828403121561373b57600080fd5b5051919050565b60006020828403121561375457600080fd5b81516111618161333a565b6000808335601e1984360301811261377657600080fd5b83018035915067ffffffffffffffff82111561379157600080fd5b6020019150600581901b36038213156137a957600080fd5b9250929050565b634e487b7160e01b600052603260045260246000fd5b81835260007f07ffffffffffffffffffffffffffffffffffffffffffffffffffffffffffffff8311156137f857600080fd5b8260051b8083602087013760009401602001938452509192915050565b6040815260006138296040830185876137c6565b82810360208481019190915284518083528582019282019060005b8181101561386057845183529383019391830191600101613844565b509098975050505050505050565b634e487b7160e01b600052601160045260246000fd5b600081600019048311821515161561389e5761389e61386e565b500290565b6000602082840312156138b557600080fd5b8151801515811461116157600080fd5b6000602082840312156138d757600080fd5b6111618261336c565b6101008101611bde82846001600160a01b0380825116835280602083015116602084015262ffffff60408301511660408401528060608301511660608401526080820151608084015260a082015160a084015260c082015160c08401528060e08301511660e0840152505050565b600082198211156139615761396161386e565b500190565b6000828210156139785761397861386e565b500390565b803565ffffffffffff8116811461337f57600080fd5b60008060008385036101008112156139aa57600080fd5b84356139b58161333a565b9350601f190160c08112156139c957600080fd5b6139d16133d1565b60808212156139df57600080fd5b6139e76133fa565b915060208601356139f78161333a565b82526040860135613a078161333a565b6020830152613a186060870161397d565b6040830152613a296080870161397d565b6060830152818152613a3d60a087016133b0565b602082015260c0860135604082015292505060e084013567ffffffffffffffff811115613a6957600080fd5b613a758682870161341d565b9150509250925092565b60005b83811015613a9a578181015183820152602001613a82565b83811115613aa9576000848401525b50505050565b60008151808452613ac7816020860160208601613a7f565b601f01601f19169290920160200192915050565b60006101006001600160a01b0380871684528551818151166020860152816020820151166040860152604081015165ffffffffffff80821660608801528060608401511660808801525050508060208701511660a085015250604085015160c08401528060e0840152613b5081840185613aaf565b9695505050505050565b60008060008060808587031215613b7057600080fd5b845193506020850151613b828161333a565b604086015190935063ffffffff81168114613b9c57600080fd5b6060959095015193969295505050565b6fffffffffffffffffffffffffffffffff811681146106c657600080fd5b600060208284031215613bdc57600080fd5b813561116181613bac565b60008060408385031215613bfa57600080fd5b505080516020909101519092909150565b604081526000613c1f6040830185876137c6565b90506001600160a01b0383166020830152949350505050565b60008251613c4a818460208701613a7f565b9190910192915050565b6020815260006111616020830184613aaf565b600060208284031215613c7957600080fd5b81358060020b811461116157600080fd5b81516001600160a01b0316815261016081016020830151613cb660208401826001600160a01b03169052565b506040830151613ccd604084018262ffffff169052565b506060830151613ce2606084018260020b9052565b506080830151613cf7608084018260020b9052565b5060a083015160a083015260c083015160c083015260e083015160e083015261010080840151818401525061012080840151613d3d828501826001600160a01b03169052565b505061014092830151919092015290565b60008060008060808587031215613d6457600080fd5b845193506020850151613d7681613bac565b604086015160609096015194979096509250505056fea164736f6c634300080f000a",
  "devdoc": {
    "author": "@apoorvlathey",
    "details": "This router must be excluded from the vault fees, as vault fees handled via custom logic here.",
    "kind": "dev",
    "methods": {
      "onERC721Received(address,address,uint256,bytes)": {
        "details": "See {IERC721Receiver-onERC721Received}. Always returns `IERC721Receiver.onERC721Received.selector`."
      },
      "owner()": {
        "details": "Returns the address of the current owner."
      },
      "quoteBuyNFTs(address,uint256,uint24,uint160)": {
        "details": "This function is not gas efficient and should _not_ be called on chain."
      },
      "renounceOwnership()": {
        "details": "Leaves the contract without owner. It will not be possible to call `onlyOwner` functions anymore. Can only be called by the current owner. NOTE: Renouncing ownership will leave the contract without an owner, thereby removing any functionality that is only available to the owner."
      },
      "rescueTokens(address)": {
        "params": {
          "token": "ERC20 token address or address(0) in case of ETH"
        }
      },
      "transferOwnership(address)": {
        "details": "Transfers ownership of the contract to a new account (`newOwner`). Can only be called by the current owner."
      }
    },
    "title": "NFTX Router",
    "version": 1
  },
  "userdoc": {
    "kind": "user",
    "methods": {
      "computePool(address,uint24)": {
        "notice": "Compute the pool address corresponding to vToken"
      },
      "getPool(address,uint24)": {
        "notice": "Get deployed pool address for vToken. Reverts if pool doesn't exist"
      },
      "getPoolExists(address,uint24)": {
        "notice": "Get deployed pool address for vToken. `exists` is false if pool doesn't exist."
      },
      "getPoolExists(uint256,uint24)": {
        "notice": "Get deployed pool address for vaultId. `exists` is false if pool doesn't exist. `vaultId` must be valid."
      },
      "isVToken0(address)": {
        "notice": "Checks if vToken is token0 or not"
      }
    },
    "notice": "Router to facilitate vault tokens minting/burning + addition/removal of concentrated liquidity",
    "version": 1
  },
  "storageLayout": {
    "storage": [
      {
        "astId": 2942,
        "contract": "src/NFTXRouter.sol:NFTXRouter",
        "label": "_owner",
        "offset": 0,
        "slot": "0",
        "type": "t_address"
      }
    ],
    "types": {
      "t_address": {
        "encoding": "inplace",
        "label": "address",
        "numberOfBytes": "20"
      }
    }
  }
}