{
  "address": "0x713d883982338a9AC3Dd2A7960cAF7Df2Aaf499c",
  "abi": [
    {
      "inputs": [
        {
          "internalType": "contract INonfungiblePositionManager",
          "name": "positionManager_",
          "type": "address"
        },
        {
          "internalType": "contract SwapRouter",
          "name": "router_",
          "type": "address"
        },
        {
          "internalType": "contract IQuoterV2",
          "name": "quoter_",
          "type": "address"
        },
        {
          "internalType": "contract INFTXVaultFactory",
          "name": "nftxVaultFactory_",
          "type": "address"
        }
      ],
      "stateMutability": "nonpayable",
      "type": "constructor"
    },
    {
      "inputs": [],
      "name": "UnableToSendETH",
      "type": "error"
    },
    {
      "anonymous": false,
      "inputs": [
        {
          "indexed": true,
          "internalType": "address",
          "name": "previousOwner",
          "type": "address"
        },
        {
          "indexed": true,
          "internalType": "address",
          "name": "newOwner",
          "type": "address"
        }
      ],
      "name": "OwnershipTransferred",
      "type": "event"
    },
    {
      "inputs": [],
      "name": "CRYPTO_PUNKS",
      "outputs": [
        {
          "internalType": "address",
          "name": "",
          "type": "address"
        }
      ],
      "stateMutability": "view",
      "type": "function"
    },
    {
      "inputs": [],
      "name": "WETH",
      "outputs": [
        {
          "internalType": "address",
          "name": "",
          "type": "address"
        }
      ],
      "stateMutability": "view",
      "type": "function"
    },
    {
      "inputs": [
        {
          "components": [
            {
              "internalType": "address",
              "name": "vtoken",
              "type": "address"
            },
            {
              "internalType": "uint256",
              "name": "vTokensAmount",
              "type": "uint256"
            },
            {
              "internalType": "uint256[]",
              "name": "nftIds",
              "type": "uint256[]"
            },
            {
              "internalType": "int24",
              "name": "tickLower",
              "type": "int24"
            },
            {
              "internalType": "int24",
              "name": "tickUpper",
              "type": "int24"
            },
            {
              "internalType": "uint24",
              "name": "fee",
              "type": "uint24"
            },
            {
              "internalType": "uint160",
              "name": "sqrtPriceX96",
              "type": "uint160"
            },
            {
              "internalType": "uint256",
              "name": "deadline",
              "type": "uint256"
            }
          ],
          "internalType": "struct INFTXRouter.AddLiquidityParams",
          "name": "params",
          "type": "tuple"
        }
      ],
      "name": "addLiquidity",
      "outputs": [
        {
          "internalType": "uint256",
          "name": "positionId",
          "type": "uint256"
        }
      ],
      "stateMutability": "payable",
      "type": "function"
    },
    {
      "inputs": [
        {
          "components": [
            {
              "internalType": "address",
              "name": "vtoken",
              "type": "address"
            },
            {
              "internalType": "uint256[]",
              "name": "nftIds",
              "type": "uint256[]"
            },
            {
              "internalType": "uint256",
              "name": "deadline",
              "type": "uint256"
            },
            {
              "internalType": "uint24",
              "name": "fee",
              "type": "uint24"
            },
            {
              "internalType": "uint160",
              "name": "sqrtPriceLimitX96",
              "type": "uint160"
            }
          ],
          "internalType": "struct INFTXRouter.BuyNFTsParams",
          "name": "params",
          "type": "tuple"
        }
      ],
      "name": "buyNFTs",
      "outputs": [],
      "stateMutability": "payable",
      "type": "function"
    },
    {
      "inputs": [
        {
          "internalType": "address",
          "name": "vToken_",
          "type": "address"
        },
        {
          "internalType": "uint24",
          "name": "fee",
          "type": "uint24"
        }
      ],
      "name": "computePool",
      "outputs": [
        {
          "internalType": "address",
          "name": "",
          "type": "address"
        }
      ],
      "stateMutability": "view",
      "type": "function"
    },
    {
      "inputs": [
        {
          "internalType": "address",
          "name": "vToken_",
          "type": "address"
        },
        {
          "internalType": "uint24",
          "name": "fee",
          "type": "uint24"
        }
      ],
      "name": "getPool",
      "outputs": [
        {
          "internalType": "address",
          "name": "pool",
          "type": "address"
        }
      ],
      "stateMutability": "view",
      "type": "function"
    },
    {
      "inputs": [
        {
          "internalType": "uint256",
          "name": "vaultId",
          "type": "uint256"
        },
        {
          "internalType": "uint24",
          "name": "fee",
          "type": "uint24"
        }
      ],
      "name": "getPoolExists",
      "outputs": [
        {
          "internalType": "address",
          "name": "pool",
          "type": "address"
        },
        {
          "internalType": "bool",
          "name": "exists",
          "type": "bool"
        }
      ],
      "stateMutability": "view",
      "type": "function"
    },
    {
      "inputs": [
        {
          "internalType": "address",
          "name": "vtoken",
          "type": "address"
        }
      ],
      "name": "isVToken0",
      "outputs": [
        {
          "internalType": "bool",
          "name": "",
          "type": "bool"
        }
      ],
      "stateMutability": "view",
      "type": "function"
    },
    {
      "inputs": [],
      "name": "nftxVaultFactory",
      "outputs": [
        {
          "internalType": "contract INFTXVaultFactory",
          "name": "",
          "type": "address"
        }
      ],
      "stateMutability": "view",
      "type": "function"
    },
    {
      "inputs": [
        {
          "internalType": "address",
          "name": "",
          "type": "address"
        },
        {
          "internalType": "address",
          "name": "",
          "type": "address"
        },
        {
          "internalType": "uint256",
          "name": "",
          "type": "uint256"
        },
        {
          "internalType": "bytes",
          "name": "",
          "type": "bytes"
        }
      ],
      "name": "onERC721Received",
      "outputs": [
        {
          "internalType": "bytes4",
          "name": "",
          "type": "bytes4"
        }
      ],
      "stateMutability": "nonpayable",
      "type": "function"
    },
    {
      "inputs": [],
      "name": "owner",
      "outputs": [
        {
          "internalType": "address",
          "name": "",
          "type": "address"
        }
      ],
      "stateMutability": "view",
      "type": "function"
    },
    {
      "inputs": [],
      "name": "positionManager",
      "outputs": [
        {
          "internalType": "contract INonfungiblePositionManager",
          "name": "",
          "type": "address"
        }
      ],
      "stateMutability": "view",
      "type": "function"
    },
    {
      "inputs": [
        {
          "internalType": "address",
          "name": "vtoken",
          "type": "address"
        },
        {
          "internalType": "uint256[]",
          "name": "nftIds",
          "type": "uint256[]"
        },
        {
          "internalType": "uint24",
          "name": "fee",
          "type": "uint24"
        },
        {
          "internalType": "uint160",
          "name": "sqrtPriceLimitX96",
          "type": "uint160"
        }
      ],
      "name": "quoteBuyNFTs",
      "outputs": [
        {
          "internalType": "uint256",
          "name": "ethRequired",
          "type": "uint256"
        }
      ],
      "stateMutability": "nonpayable",
      "type": "function"
    },
    {
      "inputs": [],
      "name": "quoter",
      "outputs": [
        {
          "internalType": "contract IQuoterV2",
          "name": "",
          "type": "address"
        }
      ],
      "stateMutability": "view",
      "type": "function"
    },
    {
      "inputs": [
        {
          "components": [
            {
              "internalType": "uint256",
              "name": "positionId",
              "type": "uint256"
            },
            {
              "internalType": "address",
              "name": "vtoken",
              "type": "address"
            },
            {
              "internalType": "uint256[]",
              "name": "nftIds",
              "type": "uint256[]"
            },
            {
              "internalType": "bool",
              "name": "receiveVTokens",
              "type": "bool"
            },
            {
              "internalType": "uint128",
              "name": "liquidity",
              "type": "uint128"
            },
            {
              "internalType": "uint24",
              "name": "swapPoolFee",
              "type": "uint24"
            },
            {
              "internalType": "uint256",
              "name": "amount0Min",
              "type": "uint256"
            },
            {
              "internalType": "uint256",
              "name": "amount1Min",
              "type": "uint256"
            },
            {
              "internalType": "uint256",
              "name": "deadline",
              "type": "uint256"
            }
          ],
          "internalType": "struct INFTXRouter.RemoveLiquidityParams",
          "name": "params",
          "type": "tuple"
        }
      ],
      "name": "removeLiquidity",
      "outputs": [],
      "stateMutability": "nonpayable",
      "type": "function"
    },
    {
      "inputs": [],
      "name": "renounceOwnership",
      "outputs": [],
      "stateMutability": "nonpayable",
      "type": "function"
    },
    {
      "inputs": [
        {
          "internalType": "contract IERC20",
          "name": "token",
          "type": "address"
        }
      ],
      "name": "rescueTokens",
      "outputs": [],
      "stateMutability": "nonpayable",
      "type": "function"
    },
    {
      "inputs": [],
      "name": "router",
      "outputs": [
        {
          "internalType": "contract SwapRouter",
          "name": "",
          "type": "address"
        }
      ],
      "stateMutability": "view",
      "type": "function"
    },
    {
      "inputs": [
        {
          "components": [
            {
              "internalType": "address",
              "name": "vtoken",
              "type": "address"
            },
            {
              "internalType": "uint256[]",
              "name": "nftIds",
              "type": "uint256[]"
            },
            {
              "internalType": "uint256",
              "name": "deadline",
              "type": "uint256"
            },
            {
              "internalType": "uint24",
              "name": "fee",
              "type": "uint24"
            },
            {
              "internalType": "uint256",
              "name": "amountOutMinimum",
              "type": "uint256"
            },
            {
              "internalType": "uint160",
              "name": "sqrtPriceLimitX96",
              "type": "uint160"
            }
          ],
          "internalType": "struct INFTXRouter.SellNFTsParams",
          "name": "params",
          "type": "tuple"
        }
      ],
      "name": "sellNFTs",
      "outputs": [
        {
          "internalType": "uint256",
          "name": "wethReceived",
          "type": "uint256"
        }
      ],
      "stateMutability": "nonpayable",
      "type": "function"
    },
    {
      "inputs": [
        {
          "internalType": "address",
          "name": "newOwner",
          "type": "address"
        }
      ],
      "name": "transferOwnership",
      "outputs": [],
      "stateMutability": "nonpayable",
      "type": "function"
    },
    {
      "stateMutability": "payable",
      "type": "receive"
    }
  ],
  "transactionHash": "0x2a5b80aaea5fb90b756e4286fad947d56f31a56fc86994dbc5cd04aadcc6cb56",
  "args": [
    "0x8C993B148fe48273e0ca8f5189a017024D7E593b",
    "0x7769e8DDCd668218CFf37b91c20f21D8813399b6",
    "0xBAeC994bCCD3Fd06Ab2A4E53f04EaB68Fd8E338e",
    "0x666738678c6FbdE71bb7Ca7B4DD1d41AFF218d7F"
  ],
  "numDeployments": 3,
  "solcInputHash": "6af12fc1ac3060e549b29142ecba5bb9",
  "bytecode": "0x6101206040523480156200001257600080fd5b5060405162003fe138038062003fe1833981016040819052620000359162000145565b6200004033620000dc565b6001600160a01b0380851660a081905284821660c05283821660e05290821661010052604080516312a9293f60e21b81529051634aa4a4fc916004808201926020929091908290030181865afa1580156200009f573d6000803e3d6000fd5b505050506040513d601f19601f82011682018060405250810190620000c59190620001ad565b6001600160a01b031660805250620001d492505050565b600080546001600160a01b038381166001600160a01b0319831681178455604051919092169283917f8be0079c531659141344cd1fd0a4f28419497f9722a3daafe3b4186f6b6457e09190a35050565b6001600160a01b03811681146200014257600080fd5b50565b600080600080608085870312156200015c57600080fd5b845162000169816200012c565b60208601519094506200017c816200012c565b60408601519093506200018f816200012c565b6060860151909250620001a2816200012c565b939692955090935050565b600060208284031215620001c057600080fd5b8151620001cd816200012c565b9392505050565b60805160a05160c05160e05161010051613cf6620002eb600039600081816102f401526106be01526000818161042101526109420152600081816104c60152818161075301528181610be901528181610c81015281816116ed015281816118ff01528181611cac01528181611d32015281816120f5015261223e0152600081816103590152818161118b015281816112a3015281816113df0152818161153e015281816115ac0152818161196b0152611b140152600081816103eb01528181610511015281816107f5015281816108bc01528181610cc701528181610dd20152818161122f015281816112740152818161172901528181611d8f015281816120160152818161219701526122c80152613cf66000f3fe6080604052600436106200017e5760003560e01c80637ca3d2f811620000cf578063c8a28184116200007d578063f2fde38b1162000060578063f2fde38b146200048d578063f887ea4014620004b2578063f932e32a14620004e857600080fd5b8063c8a281841462000443578063de6a4abf146200046857600080fd5b80639519cc2b11620000b25780639519cc2b14620003b2578063ad5c464814620003d7578063c6bbd5a7146200040d57600080fd5b80637ca3d2f8146200037b5780638da5cb5b146200039257600080fd5b80631d328136116200012d5780636efdf4ce11620001105780636efdf4ce1462000316578063715018a6146200032d578063791b98bc146200034557600080fd5b80631d328136146200029d5780633801daf114620002e057600080fd5b806306eba352116200016257806306eba35214620001fb578063089be64c146200022f578063150b7a02146200025457600080fd5b8062ae3bf8146200018b5780630500a30e14620001b257600080fd5b366200018657005b600080fd5b3480156200019857600080fd5b50620001b0620001aa36600462002b75565b62000549565b005b348015620001bf57600080fd5b50620001d7620001d136600462002bae565b620006b7565b604080516001600160a01b0390931683529015156020830152015b60405180910390f35b3480156200020857600080fd5b50620002206200021a36600462002c5b565b6200088e565b604051908152602001620001f2565b3480156200023c57600080fd5b50620002206200024e36600462002d37565b620009c0565b3480156200026157600080fd5b50620002836200027336600462002d75565b630a85bd0160e11b949350505050565b6040516001600160e01b03199091168152602001620001f2565b348015620002aa57600080fd5b50620002c773b47e3cd837ddf8e4c57f05d70ab865de6e193bbb81565b6040516001600160a01b039091168152602001620001f2565b348015620002ed57600080fd5b50620002c77f000000000000000000000000000000000000000000000000000000000000000081565b620002206200032736600462002e46565b62000ead565b3480156200033a57600080fd5b50620001b062001659565b3480156200035257600080fd5b50620002c77f000000000000000000000000000000000000000000000000000000000000000081565b620001b06200038c36600462002e85565b620016c3565b3480156200039f57600080fd5b506000546001600160a01b0316620002c7565b348015620003bf57600080fd5b50620001b0620003d136600462002ec3565b62001969565b348015620003e457600080fd5b50620002c77f000000000000000000000000000000000000000000000000000000000000000081565b3480156200041a57600080fd5b50620002c77f000000000000000000000000000000000000000000000000000000000000000081565b3480156200045057600080fd5b50620002c76200046236600462002f02565b620020f1565b3480156200047557600080fd5b50620002c76200048736600462002f02565b62002236565b3480156200049a57600080fd5b50620001b0620004ac36600462002b75565b620022fb565b348015620004bf57600080fd5b50620002c77f000000000000000000000000000000000000000000000000000000000000000081565b348015620004f557600080fd5b50620005386200050736600462002b75565b6001600160a01b037f0000000000000000000000000000000000000000000000000000000000000000811691161090565b6040519015158152602001620001f2565b6000546001600160a01b03163314620005a95760405162461bcd60e51b815260206004820181905260248201527f4f776e61626c653a2063616c6c6572206973206e6f7420746865206f776e657260448201526064015b60405180910390fd5b6001600160a01b0381161562000643576040516370a0823160e01b81523060048201526000906001600160a01b038316906370a0823190602401602060405180830381865afa15801562000601573d6000803e3d6000fd5b505050506040513d601f19601f8201168201806040525081019062000627919062002f33565b90506200063f6001600160a01b0383163383620023e0565b5050565b6040514790600090339083908381818185875af1925050503d806000811462000689576040519150601f19603f3d011682016040523d82523d6000602084013e6200068e565b606091505b5050905080620006b15760405163260e7d5b60e11b815260040160405180910390fd5b50505b50565b60008060007f00000000000000000000000000000000000000000000000000000000000000006001600160a01b03166381a36fb6866040518263ffffffff1660e01b81526004016200070b91815260200190565b602060405180830381865afa15801562000729573d6000803e3d6000fd5b505050506040513d601f19601f820116820180604052508101906200074f919062002f4d565b90507f00000000000000000000000000000000000000000000000000000000000000006001600160a01b031663c45a01556040518163ffffffff1660e01b8152600401602060405180830381865afa158015620007b0573d6000803e3d6000fd5b505050506040513d601f19601f82011682018060405250810190620007d6919062002f4d565b604051630b4c774160e11b81526001600160a01b0383811660048301527f00000000000000000000000000000000000000000000000000000000000000008116602483015262ffffff871660448301529190911690631698ee8290606401602060405180830381865afa15801562000852573d6000803e3d6000fd5b505050506040513d601f19601f8201168201806040525081019062000878919062002f4d565b956001600160a01b038716151595509350505050565b6000808451670de0b6b3a7640000620008a8919062002f83565b6040805160a0810182526001600160a01b037f0000000000000000000000000000000000000000000000000000000000000000811682528981166020830190815282840185815262ffffff8a8116606086019081528a8516608087019081529651635e90b82560e11b81529551851660048701529251841660248601529051604485015290511660648301529151821660848201529192507f0000000000000000000000000000000000000000000000000000000000000000169063bd21704a9060a4016080604051808303816000875af11580156200098c573d6000803e3d6000fd5b505050506040513d601f19601f82011682018060405250810190620009b2919062002fa5565b509198975050505050505050565b600080620009d2602084018462002b75565b6001600160a01b0316631ba46cfd6040518163ffffffff1660e01b8152600401602060405180830381865afa15801562000a10573d6000803e3d6000fd5b505050506040513d601f19601f8201168201806040525081019062000a36919062002f4d565b905060005b62000a4a602085018562002ffb565b905081101562000b155762000a9d8262000a68602087018762002ffb565b8481811062000a7b5762000a7b6200304f565b9050602002013586600001602081019062000a97919062002b75565b62002434565b73b47e3cd837ddf8e4c57f05d70ab865de6e193bba196001600160a01b0383160162000b0c5762000b0c8262000ad7602087018762002ffb565b8481811062000aea5762000aea6200304f565b9050602002013586600001602081019062000b06919062002b75565b6200269c565b60010162000a3b565b506060600062000b29602086018662002b75565b6001600160a01b0316633d5d190c62000b46602088018862002ffb565b856040518463ffffffff1660e01b815260040162000b6793929190620030b5565b6020604051808303816000875af115801562000b87573d6000803e3d6000fd5b505050506040513d601f19601f8201168201806040525081019062000bad919062002f33565b62000bc190670de0b6b3a764000062002f83565b905062000bd2602086018662002b75565b60405163095ea7b360e01b81526001600160a01b037f00000000000000000000000000000000000000000000000000000000000000008116600483015260248201849052919091169063095ea7b3906044016020604051808303816000875af115801562000c44573d6000803e3d6000fd5b505050506040513d601f19601f8201168201806040525081019062000c6a919062003121565b506040805161010081019091526001600160a01b037f0000000000000000000000000000000000000000000000000000000000000000169063414bf389908062000cb860208a018a62002b75565b6001600160a01b0390811682527f000000000000000000000000000000000000000000000000000000000000000016602082015260400162000d0160808a0160608b0162003141565b62ffffff168152602001306001600160a01b0316815260200188604001358152602001848152602001886080013581526020018860a001602081019062000d49919062002b75565b6001600160a01b03168152506040518263ffffffff1660e01b815260040162000d7391906200315f565b6020604051808303816000875af115801562000d93573d6000803e3d6000fd5b505050506040513d601f19601f8201168201806040525081019062000db9919062002f33565b604051632e1a7d4d60e01b8152600481018290529094507f00000000000000000000000000000000000000000000000000000000000000006001600160a01b031690632e1a7d4d90602401600060405180830381600087803b15801562000e1f57600080fd5b505af115801562000e34573d6000803e3d6000fd5b50506040516000925033915086908381818185875af1925050503d806000811462000e7c576040519150601f19603f3d011682016040523d82523d6000602084013e62000e81565b606091505b505090508062000ea45760405163260e7d5b60e11b815260040160405180910390fd5b50505050919050565b60006020820135801562000f485762000eca602084018462002b75565b6040516323b872dd60e01b8152336004820152306024820152604481018390526001600160a01b0391909116906323b872dd906064016020604051808303816000875af115801562000f20573d6000803e3d6000fd5b505050506040513d601f19601f8201168201806040525081019062000f46919062003121565b505b600062000f59604085018562002ffb565b905011156200116557600062000f73602085018562002b75565b6001600160a01b0316631ba46cfd6040518163ffffffff1660e01b8152600401602060405180830381865afa15801562000fb1573d6000803e3d6000fd5b505050506040513d601f19601f8201168201806040525081019062000fd7919062002f4d565b905060005b62000feb604086018662002ffb565b9050811015620010aa57620010388262001009604088018862002ffb565b848181106200101c576200101c6200304f565b9050602002013587600001602081019062000a97919062002b75565b73b47e3cd837ddf8e4c57f05d70ab865de6e193bba196001600160a01b03831601620010a157620010a18262001072604088018862002ffb565b848181106200108557620010856200304f565b9050602002013587600001602081019062000b06919062002b75565b60010162000fdc565b506060620010bc602086018662002b75565b6001600160a01b0316633d5d190c620010d9604088018862002ffb565b846040518463ffffffff1660e01b8152600401620010fa93929190620030b5565b6020604051808303816000875af11580156200111a573d6000803e3d6000fd5b505050506040513d601f19601f8201168201806040525081019062001140919062002f33565b6200115490670de0b6b3a764000062002f83565b620011609084620031ce565b925050505b62001174602084018462002b75565b60405163095ea7b360e01b81526001600160a01b037f00000000000000000000000000000000000000000000000000000000000000008116600483015260248201849052919091169063095ea7b3906044016020604051808303816000875af1158015620011e6573d6000803e3d6000fd5b505050506040513d601f19601f820116820180604052508101906200120c919062003121565b5060006200122262000507602086018662002b75565b90506000808262001263577f00000000000000000000000000000000000000000000000000000000000000006200125d602088018862002b75565b62001294565b62001272602087018762002b75565b7f00000000000000000000000000000000000000000000000000000000000000005b90925090506001600160a01b037f0000000000000000000000000000000000000000000000000000000000000000166313ead5628383620012dc60c08b0160a08c0162003141565b620012ee60e08c0160c08d0162002b75565b6040516001600160e01b031960e087901b1681526001600160a01b039485166004820152928416602484015262ffffff90911660448301529190911660648201526084016020604051808303816000875af115801562001352573d6000803e3d6000fd5b505050506040513d601f19601f8201168201806040525081019062001378919062002f4d565b506000806000808615620013b45787935061138888116200139b576000620013a9565b620013a961138889620031e9565b9150349250620013dd565b3493508792506113888811620013cc576000620013da565b620013da61138889620031e9565b90505b7f00000000000000000000000000000000000000000000000000000000000000006001600160a01b03166388316456346040518061016001604052808a6001600160a01b03168152602001896001600160a01b031681526020018e60a00160208101906200144c919062003141565b62ffffff1681526020018e60600160208101906200146b919062003203565b60020b81526020018e608001602081019062001488919062003203565b60020b8152602001888152602001878152602001868152602001858152602001336001600160a01b031681526020018e60e001358152506040518363ffffffff1660e01b8152600401620014dd919062003228565b60806040518083038185885af1158015620014fc573d6000803e3d6000fd5b50505050506040513d601f19601f8201168201806040525081019062001523919062003310565b505060405163073db96d60e21b8152336004820152919a50507f00000000000000000000000000000000000000000000000000000000000000006001600160a01b031690631cf6e5b490602401600060405180830381600087803b1580156200158b57600080fd5b505af1158015620015a0573d6000803e3d6000fd5b50506001600160a01b037f000000000000000000000000000000000000000000000000000000000000000016915063df2ab5bb9050620015e460208d018d62002b75565b6040516001600160e01b031960e084901b1681526001600160a01b03909116600482015260006024820152336044820152606401600060405180830381600087803b1580156200163357600080fd5b505af115801562001648573d6000803e3d6000fd5b505050505050505050505050919050565b6000546001600160a01b03163314620016b55760405162461bcd60e51b815260206004820181905260248201527f4f776e61626c653a2063616c6c6572206973206e6f7420746865206f776e65726044820152606401620005a0565b620016c160006200270d565b565b6000620016d4602083018362002ffb565b620016e99150670de0b6b3a764000062002f83565b90507f00000000000000000000000000000000000000000000000000000000000000006001600160a01b031663db3e2198346040518061010001604052807f00000000000000000000000000000000000000000000000000000000000000006001600160a01b031681526020018660000160208101906200176b919062002b75565b6001600160a01b031681526020016200178b608088016060890162003141565b62ffffff168152602001306001600160a01b0316815260200186604001358152602001858152602001348152602001866080016020810190620017cf919062002b75565b6001600160a01b03168152506040518363ffffffff1660e01b8152600401620017f991906200315f565b60206040518083038185885af115801562001818573d6000803e3d6000fd5b50505050506040513d601f19601f820116820180604052508101906200183f919062002f33565b506200184f602083018362002b75565b6001600160a01b0316639d54def66200186c602085018562002ffb565b90506200187d602086018662002ffb565b336040518563ffffffff1660e01b81526004016200189f949392919062003351565b6000604051808303816000875af1158015620018bf573d6000803e3d6000fd5b505050506040513d6000823e601f3d908101601f19168201604052620018e9919081019062003387565b5060405163073db96d60e21b81523360048201527f00000000000000000000000000000000000000000000000000000000000000006001600160a01b031690631cf6e5b490602401600060405180830381600087803b1580156200194c57600080fd5b505af115801562001961573d6000803e3d6000fd5b505050505050565b7f00000000000000000000000000000000000000000000000000000000000000006001600160a01b0316630c49ccbe6040518060a0016040528084600001358152602001846080016020810190620019c2919062003416565b6fffffffffffffffffffffffffffffffff1681526020018460c0013581526020018460e0013581526020018461010001358152506040518263ffffffff1660e01b815260040162001a5a9190600060a082019050825182526fffffffffffffffffffffffffffffffff602084015116602083015260408301516040830152606083015160608301526080830151608083015292915050565b60408051808303816000875af115801562001a79573d6000803e3d6000fd5b505050506040513d601f19601f8201168201806040525081019062001a9f919062003436565b5050604080516080810182528235815230602082019081526fffffffffffffffffffffffffffffffff82840181815260608401828152945163fc6f786560e01b81529351600485015291516001600160a01b0390811660248501529151811660448401529251909216606482015260009182917f00000000000000000000000000000000000000000000000000000000000000009091169063fc6f78659060840160408051808303816000875af115801562001b5f573d6000803e3d6000fd5b505050506040513d601f19601f8201168201806040525081019062001b85919062003436565b9092509050600062001ba262000507604086016020870162002b75565b90506000808262001bb557838562001bb8565b84845b909250905062001bcf60808701606088016200345b565b1562001c645762001be7604087016020880162002b75565b60405163a9059cbb60e01b8152336004820152602481018490526001600160a01b03919091169063a9059cbb906044016020604051808303816000875af115801562001c37573d6000803e3d6000fd5b505050506040513d601f19601f8201168201806040525081019062001c5d919062003121565b5062002000565b600062001c7a670de0b6b3a7640000846200347b565b9050801562001ffe5762001c95604088016020890162002b75565b60405163095ea7b360e01b81526001600160a01b037f00000000000000000000000000000000000000000000000000000000000000008116600483015260248201849052919091169063095ea7b3906044016020604051808303816000875af115801562001d07573d6000803e3d6000fd5b505050506040513d601f19601f8201168201806040525081019062001d2d919062003121565b5060007f00000000000000000000000000000000000000000000000000000000000000006001600160a01b031663414bf3896040518061010001604052808b602001602081019062001d80919062002b75565b6001600160a01b0390811682527f000000000000000000000000000000000000000000000000000000000000000016602082015260400162001dc960c08d0160a08e0162003141565b62ffffff168152602001306001600160a01b031681526020014281526020018581526020016000815260200160006001600160a01b03168152506040518263ffffffff1660e01b815260040162001e2191906200315f565b6020604051808303816000875af115801562001e41573d6000803e3d6000fd5b505050506040513d601f19601f8201168201806040525081019062001e67919062002f33565b905062001e758184620031ce565b925062001e896040890160208a0162002b75565b6001600160a01b0316639d54def662001ea660408b018b62002ffb565b905062001eb760408c018c62002ffb565b336040518563ffffffff1660e01b815260040162001ed9949392919062003351565b6000604051808303816000875af115801562001ef9573d6000803e3d6000fd5b505050506040513d6000823e601f3d908101601f1916820160405262001f23919081019062003387565b50600062001f3560408a018a62002ffb565b62001f4a9150670de0b6b3a764000062002f83565b905060008162001f5b8588620031e9565b62001f679190620031e9565b9050801562001ffa5762001f8260408b0160208c0162002b75565b60405163a9059cbb60e01b8152336004820152602481018390526001600160a01b03919091169063a9059cbb906044016020604051808303816000875af115801562001fd2573d6000803e3d6000fd5b505050506040513d601f19601f8201168201806040525081019062001ff8919062003121565b505b5050505b505b604051632e1a7d4d60e01b8152600481018290527f00000000000000000000000000000000000000000000000000000000000000006001600160a01b031690632e1a7d4d90602401600060405180830381600087803b1580156200206357600080fd5b505af115801562002078573d6000803e3d6000fd5b50506040516000925033915083908381818185875af1925050503d8060008114620020c0576040519150601f19603f3d011682016040523d82523d6000602084013e620020c5565b606091505b5050905080620020e85760405163260e7d5b60e11b815260040160405180910390fd5b50505050505050565b60007f00000000000000000000000000000000000000000000000000000000000000006001600160a01b031663c45a01556040518163ffffffff1660e01b8152600401602060405180830381865afa15801562002152573d6000803e3d6000fd5b505050506040513d601f19601f8201168201806040525081019062002178919062002f4d565b604051630b4c774160e11b81526001600160a01b0385811660048301527f00000000000000000000000000000000000000000000000000000000000000008116602483015262ffffff851660448301529190911690631698ee8290606401602060405180830381865afa158015620021f4573d6000803e3d6000fd5b505050506040513d601f19601f820116820180604052508101906200221a919062002f4d565b90506001600160a01b0381166200223057600080fd5b92915050565b6000620022f47f00000000000000000000000000000000000000000000000000000000000000006001600160a01b031663c45a01556040518163ffffffff1660e01b8152600401602060405180830381865afa1580156200229b573d6000803e3d6000fd5b505050506040513d601f19601f82011682018060405250810190620022c1919062002f4d565b620022ee857f00000000000000000000000000000000000000000000000000000000000000008662002775565b620027e1565b9392505050565b6000546001600160a01b03163314620023575760405162461bcd60e51b815260206004820181905260248201527f4f776e61626c653a2063616c6c6572206973206e6f7420746865206f776e65726044820152606401620005a0565b6001600160a01b038116620023d55760405162461bcd60e51b815260206004820152602660248201527f4f776e61626c653a206e6577206f776e657220697320746865207a65726f206160448201527f64647265737300000000000000000000000000000000000000000000000000006064820152608401620005a0565b620006b4816200270d565b604080516001600160a01b038416602482015260448082018490528251808303909101815260649091019091526020810180516001600160e01b031663a9059cbb60e01b179052620006b190849062002892565b60606001600160a01b03841673b47e3cd837ddf8e4c57f05d70ab865de6e193bbb14620024af576040513360248201526001600160a01b03831660448201526064810184905260840160408051601f198184030181529190526020810180516001600160e01b0316632142170760e11b179052905062002613565b600083604051602401620024c591815260200190565b60408051601f198184030181529181526020820180516001600160e01b0316630b02f02d60e31b1790525190915060009081906001600160a01b0388169062002510908590620034d1565b600060405180830381855afa9150503d80600081146200254d576040519150601f19603f3d011682016040523d82523d6000602084013e62002552565b606091505b50915091506000818060200190518101906200256f919062002f4d565b90508280156200258757506001600160a01b03811633145b620025d55760405162461bcd60e51b815260206004820152601160248201527f4e6f7420746865204e4654206f776e65720000000000000000000000000000006044820152606401620005a0565b6040516024810188905260440160408051601f198184030181529190526020810180516001600160e01b031663104c9fd360e31b1790529450505050505b600080856001600160a01b031683604051620026309190620034d1565b6000604051808303816000865af19150503d80600081146200266f576040519150601f19603f3d011682016040523d82523d6000602084013e62002674565b606091505b5091509150818190620020e85760405162461bcd60e51b8152600401620005a09190620034ef565b604051602481018390526000604482018190526001600160a01b03831660648301529060840160408051601f198184030181529181526020820180516001600160e01b031663bf31196f60e01b1790525190915060009081906001600160a01b0387169062002630908590620034d1565b600080546001600160a01b038381167fffffffffffffffffffffffff0000000000000000000000000000000000000000831681178455604051919092169283917f8be0079c531659141344cd1fd0a4f28419497f9722a3daafe3b4186f6b6457e09190a35050565b6040805160608101825260008082526020820181905291810191909152826001600160a01b0316846001600160a01b03161115620027b1579192915b50604080516060810182526001600160a01b03948516815292909316602083015262ffffff169181019190915290565b600081602001516001600160a01b031682600001516001600160a01b0316106200280a57600080fd5b815160208084015160408086015181516001600160a01b0395861694810194909452939091169082015262ffffff9091166060820152620022f4906080016040516020818303038152906040528051906020012060405180602001620028709062002b51565b6020820181038252601f19601f8201166040525080519060200120856200297e565b6000620028e9826040518060400160405280602081526020017f5361666545524332303a206c6f772d6c6576656c2063616c6c206661696c6564815250856001600160a01b0316620029a89092919063ffffffff16565b805190915015620006b157808060200190518101906200290a919062003121565b620006b15760405162461bcd60e51b815260206004820152602a60248201527f5361666545524332303a204552433230206f7065726174696f6e20646964206e60448201527f6f742073756363656564000000000000000000000000000000000000000000006064820152608401620005a0565b6000604051836040820152846020820152828152600b8101905060ff815360559020949350505050565b6060620029b98484600085620029c1565b949350505050565b60608247101562002a3b5760405162461bcd60e51b815260206004820152602660248201527f416464726573733a20696e73756666696369656e742062616c616e636520666f60448201527f722063616c6c00000000000000000000000000000000000000000000000000006064820152608401620005a0565b6001600160a01b0385163b62002a945760405162461bcd60e51b815260206004820152601d60248201527f416464726573733a2063616c6c20746f206e6f6e2d636f6e74726163740000006044820152606401620005a0565b600080866001600160a01b0316858760405162002ab29190620034d1565b60006040518083038185875af1925050503d806000811462002af1576040519150601f19603f3d011682016040523d82523d6000602084013e62002af6565b606091505b509150915062002b0882828662002b13565b979650505050505050565b6060831562002b24575081620022f4565b82511562002b355782518084602001fd5b8160405162461bcd60e51b8152600401620005a09190620034ef565b6107c5806200352583390190565b6001600160a01b0381168114620006b457600080fd5b60006020828403121562002b8857600080fd5b8135620022f48162002b5f565b803562ffffff8116811462002ba957600080fd5b919050565b6000806040838503121562002bc257600080fd5b8235915062002bd46020840162002b95565b90509250929050565b634e487b7160e01b600052604160045260246000fd5b604051601f8201601f1916810167ffffffffffffffff8111828210171562002c1f5762002c1f62002bdd565b604052919050565b600067ffffffffffffffff82111562002c445762002c4462002bdd565b5060051b60200190565b803562002ba98162002b5f565b6000806000806080858703121562002c7257600080fd5b843562002c7f8162002b5f565b935060208581013567ffffffffffffffff81111562002c9d57600080fd5b8601601f8101881362002caf57600080fd5b803562002cc662002cc08262002c27565b62002bf3565b81815260059190911b8201830190838101908a83111562002ce657600080fd5b928401925b8284101562002d065783358252928401929084019062002ceb565b809750505050505062002d1c6040860162002b95565b915062002d2c6060860162002c4e565b905092959194509250565b60006020828403121562002d4a57600080fd5b813567ffffffffffffffff81111562002d6257600080fd5b820160c08185031215620022f457600080fd5b6000806000806080858703121562002d8c57600080fd5b843562002d998162002b5f565b935060208581013562002dac8162002b5f565b935060408601359250606086013567ffffffffffffffff8082111562002dd157600080fd5b818801915088601f83011262002de657600080fd5b81358181111562002dfb5762002dfb62002bdd565b62002e0f601f8201601f1916850162002bf3565b9150808252898482850101111562002e2657600080fd5b808484018584013760008482840101525080935050505092959194509250565b60006020828403121562002e5957600080fd5b813567ffffffffffffffff81111562002e7157600080fd5b82016101008185031215620022f457600080fd5b60006020828403121562002e9857600080fd5b813567ffffffffffffffff81111562002eb057600080fd5b820160a08185031215620022f457600080fd5b60006020828403121562002ed657600080fd5b813567ffffffffffffffff81111562002eee57600080fd5b82016101208185031215620022f457600080fd5b6000806040838503121562002f1657600080fd5b823562002f238162002b5f565b915062002bd46020840162002b95565b60006020828403121562002f4657600080fd5b5051919050565b60006020828403121562002f6057600080fd5b8151620022f48162002b5f565b634e487b7160e01b600052601160045260246000fd5b600081600019048311821515161562002fa05762002fa062002f6d565b500290565b6000806000806080858703121562002fbc57600080fd5b84519350602085015162002fd08162002b5f565b604086015190935063ffffffff8116811462002feb57600080fd5b6060959095015193969295505050565b6000808335601e198436030181126200301357600080fd5b83018035915067ffffffffffffffff8211156200302f57600080fd5b6020019150600581901b36038213156200304857600080fd5b9250929050565b634e487b7160e01b600052603260045260246000fd5b81835260007f07ffffffffffffffffffffffffffffffffffffffffffffffffffffffffffffff8311156200309857600080fd5b8260051b8083602087013760009401602001938452509192915050565b604081526000620030cb60408301858762003065565b82810360208481019190915284518083528582019282019060005b818110156200310457845183529383019391830191600101620030e6565b509098975050505050505050565b8015158114620006b457600080fd5b6000602082840312156200313457600080fd5b8151620022f48162003112565b6000602082840312156200315457600080fd5b620022f48262002b95565b61010081016200223082846001600160a01b0380825116835280602083015116602084015262ffffff60408301511660408401528060608301511660608401526080820151608084015260a082015160a084015260c082015160c08401528060e08301511660e0840152505050565b60008219821115620031e457620031e462002f6d565b500190565b600082821015620031fe57620031fe62002f6d565b500390565b6000602082840312156200321657600080fd5b81358060020b8114620022f457600080fd5b81516001600160a01b03168152610160810160208301516200325560208401826001600160a01b03169052565b5060408301516200326d604084018262ffffff169052565b50606083015162003283606084018260020b9052565b50608083015162003299608084018260020b9052565b5060a083015160a083015260c083015160c083015260e083015160e083015261010080840151818401525061012080840151620032e0828501826001600160a01b03169052565b505061014092830151919092015290565b6fffffffffffffffffffffffffffffffff81168114620006b457600080fd5b600080600080608085870312156200332757600080fd5b8451935060208501516200333b81620032f1565b6040860151606090960151949790965092505050565b8481526060602082015260006200336d60608301858762003065565b90506001600160a01b038316604083015295945050505050565b600060208083850312156200339b57600080fd5b825167ffffffffffffffff811115620033b357600080fd5b8301601f81018513620033c557600080fd5b8051620033d662002cc08262002c27565b81815260059190911b82018301908381019087831115620033f657600080fd5b928401925b8284101562002b0857835182529284019290840190620033fb565b6000602082840312156200342957600080fd5b8135620022f481620032f1565b600080604083850312156200344a57600080fd5b505080516020909101519092909150565b6000602082840312156200346e57600080fd5b8135620022f48162003112565b6000826200349957634e487b7160e01b600052601260045260246000fd5b500690565b60005b83811015620034bb578181015183820152602001620034a1565b83811115620034cb576000848401525b50505050565b60008251620034e58184602087016200349e565b9190910192915050565b6020815260008251806020840152620035108160408501602087016200349e565b601f01601f1916919091016040019291505056fe608060405261002f60017fa3f0ad74e5423aebfd80d3ef4346578335a9a72aeaee59ff6cb3582b35133d516103c1565b6000805160206107848339815191521461004b5761004b6103e6565b61006a336040518060200160405280600081525061006f60201b60201c565b6104a0565b6100828261021b60201b6100291760201c565b6100e15760405162461bcd60e51b815260206004820152602560248201527f426561636f6e50726f78793a20626561636f6e206973206e6f74206120636f6e6044820152641d1c9858dd60da1b60648201526084015b60405180910390fd5b610155826001600160a01b0316635c60da1b6040518163ffffffff1660e01b8152600401602060405180830381865afa158015610122573d6000803e3d6000fd5b505050506040513d601f19601f8201168201806040525081019061014691906103fc565b61021b60201b6100291760201c565b6101c75760405162461bcd60e51b815260206004820152603460248201527f426561636f6e50726f78793a20626561636f6e20696d706c656d656e7461746960448201527f6f6e206973206e6f74206120636f6e747261637400000000000000000000000060648201526084016100d8565b600080516020610784833981519152828155815115610216576102146101eb61022a565b836040518060600160405280602181526020016107a4602191396102a860201b6100381760201c565b505b505050565b6001600160a01b03163b151590565b60006102426000805160206107848339815191525490565b6001600160a01b0316635c60da1b6040518163ffffffff1660e01b8152600401602060405180830381865afa15801561027f573d6000803e3d6000fd5b505050506040513d601f19601f820116820180604052508101906102a391906103fc565b905090565b60606001600160a01b0384163b6103105760405162461bcd60e51b815260206004820152602660248201527f416464726573733a2064656c65676174652063616c6c20746f206e6f6e2d636f6044820152651b9d1c9858dd60d21b60648201526084016100d8565b600080856001600160a01b03168560405161032b9190610451565b600060405180830381855af49150503d8060008114610366576040519150601f19603f3d011682016040523d82523d6000602084013e61036b565b606091505b50909250905061037c828286610388565b925050505b9392505050565b60608315610397575081610381565b8251156103a75782518084602001fd5b8160405162461bcd60e51b81526004016100d8919061046d565b6000828210156103e157634e487b7160e01b600052601160045260246000fd5b500390565b634e487b7160e01b600052600160045260246000fd5b60006020828403121561040e57600080fd5b81516001600160a01b038116811461038157600080fd5b60005b83811015610440578181015183820152602001610428565b838111156102145750506000910152565b60008251610463818460208701610425565b9190910192915050565b602081526000825180602084015261048c816040850160208701610425565b601f01601f19169190910160400192915050565b6102d5806104af6000396000f3fe60806040523661001357610011610017565b005b6100115b610027610022610133565b6101c3565b565b6001600160a01b03163b151590565b60606001600160a01b0384163b6100bc5760405162461bcd60e51b815260206004820152602660248201527f416464726573733a2064656c65676174652063616c6c20746f206e6f6e2d636f60448201527f6e7472616374000000000000000000000000000000000000000000000000000060648201526084015b60405180910390fd5b600080856001600160a01b0316856040516100d79190610250565b600060405180830381855af49150503d8060008114610112576040519150601f19603f3d011682016040523d82523d6000602084013e610117565b606091505b50915091506101278282866101e7565b925050505b9392505050565b600061015d7fa3f0ad74e5423aebfd80d3ef4346578335a9a72aeaee59ff6cb3582b35133d505490565b6001600160a01b0316635c60da1b6040518163ffffffff1660e01b8152600401602060405180830381865afa15801561019a573d6000803e3d6000fd5b505050506040513d601f19601f820116820180604052508101906101be919061026c565b905090565b3660008037600080366000845af43d6000803e8080156101e2573d6000f35b3d6000fd5b606083156101f657508161012c565b8251156102065782518084602001fd5b8160405162461bcd60e51b81526004016100b39190610295565b60005b8381101561023b578181015183820152602001610223565b8381111561024a576000848401525b50505050565b60008251610262818460208701610220565b9190910192915050565b60006020828403121561027e57600080fd5b81516001600160a01b038116811461012c57600080fd5b60208152600082518060208401526102b4816040850160208701610220565b601f01601f1916919091016040019291505056fea164736f6c634300080f000aa3f0ad74e5423aebfd80d3ef4346578335a9a72aeaee59ff6cb3582b35133d50426561636f6e50726f78793a2066756e6374696f6e2063616c6c206661696c6564a164736f6c634300080f000a",
  "devdoc": {
    "author": "@apoorvlathey",
    "kind": "dev",
    "methods": {
      "onERC721Received(address,address,uint256,bytes)": {
        "details": "See {IERC721Receiver-onERC721Received}. Always returns `IERC721Receiver.onERC721Received.selector`."
      },
      "owner()": {
        "details": "Returns the address of the current owner."
      },
      "quoteBuyNFTs(address,uint256[],uint24,uint160)": {
        "details": "This function is not gas efficient and should _not_ be called on chain."
      },
      "renounceOwnership()": {
        "details": "Leaves the contract without owner. It will not be possible to call `onlyOwner` functions anymore. Can only be called by the current owner. NOTE: Renouncing ownership will leave the contract without an owner, thereby removing any functionality that is only available to the owner."
      },
      "rescueTokens(address)": {
        "params": {
          "token": "ERC20 token address or address(0) in case of ETH"
        }
      },
      "transferOwnership(address)": {
        "details": "Transfers ownership of the contract to a new account (`newOwner`). Can only be called by the current owner."
      }
    },
    "title": "NFTX Router",
    "version": 1
  },
  "userdoc": {
    "kind": "user",
    "methods": {
      "addLiquidity((address,uint256,uint256[],int24,int24,uint24,uint160,uint256))": {
        "notice": "User should have given NFT approval to vtoken contract, else revert"
      },
      "computePool(address,uint24)": {
        "notice": "Compute the pool address corresponding to vToken"
      },
      "getPool(address,uint24)": {
        "notice": "Get deployed pool address for vToken. Reverts if pool doesn't exist"
      },
      "getPoolExists(uint256,uint24)": {
        "notice": "Get deployed pool address for vaultId. `exists` is false if pool doesn't exist. `vaultId` must be valid."
      },
      "isVToken0(address)": {
        "notice": "Checks if vToken is token0 or not"
      },
      "sellNFTs((address,uint256[],uint256,uint24,uint256,uint160))": {
        "notice": "User should have given NFT approval to vtoken contract, else revert"
      }
    },
    "notice": "Router to facilitate vault tokens minting/burning + addition/removal of concentrated liquidity",
    "version": 1
  },
  "storageLayout": {
    "storage": [
      {
        "astId": 2942,
        "contract": "src/NFTXRouter.sol:NFTXRouter",
        "label": "_owner",
        "offset": 0,
        "slot": "0",
        "type": "t_address"
      }
    ],
    "types": {
      "t_address": {
        "encoding": "inplace",
        "label": "address",
        "numberOfBytes": "20"
      }
    }
  }
}