{
  "address": "0x7fC70F01af5C3Fa4b903Fe269757c307cB9535C6",
  "abi": [
    {
      "inputs": [],
      "name": "InsufficientETHSent",
      "type": "error"
    },
    {
      "inputs": [],
      "name": "T",
      "type": "error"
    },
    {
      "inputs": [],
      "name": "UnableToRefundETH",
      "type": "error"
    },
    {
      "anonymous": false,
      "inputs": [
        {
          "indexed": true,
          "internalType": "address",
          "name": "owner",
          "type": "address"
        },
        {
          "indexed": true,
          "internalType": "address",
          "name": "spender",
          "type": "address"
        },
        {
          "indexed": false,
          "internalType": "uint256",
          "name": "value",
          "type": "uint256"
        }
      ],
      "name": "Approval",
      "type": "event"
    },
    {
      "anonymous": false,
      "inputs": [
        {
          "indexed": false,
          "internalType": "uint256",
          "name": "moduleIndex",
          "type": "uint256"
        },
        {
          "indexed": false,
          "internalType": "address",
          "name": "eligibilityAddr",
          "type": "address"
        }
      ],
      "name": "EligibilityDeployed",
      "type": "event"
    },
    {
      "anonymous": false,
      "inputs": [
        {
          "indexed": false,
          "internalType": "bool",
          "name": "enabled",
          "type": "bool"
        }
      ],
      "name": "EnableMintUpdated",
      "type": "event"
    },
    {
      "anonymous": false,
      "inputs": [
        {
          "indexed": false,
          "internalType": "bool",
          "name": "enabled",
          "type": "bool"
        }
      ],
      "name": "EnableTargetRedeemUpdated",
      "type": "event"
    },
    {
      "anonymous": false,
      "inputs": [
        {
          "indexed": false,
          "internalType": "bool",
          "name": "enabled",
          "type": "bool"
        }
      ],
      "name": "EnableTargetSwapUpdated",
      "type": "event"
    },
    {
      "anonymous": false,
      "inputs": [
        {
          "indexed": false,
          "internalType": "address",
          "name": "manager",
          "type": "address"
        }
      ],
      "name": "ManagerSet",
      "type": "event"
    },
    {
      "anonymous": false,
      "inputs": [
        {
          "indexed": false,
          "internalType": "uint256[]",
          "name": "nftIds",
          "type": "uint256[]"
        },
        {
          "indexed": false,
          "internalType": "uint256[]",
          "name": "amounts",
          "type": "uint256[]"
        },
        {
          "indexed": false,
          "internalType": "address",
          "name": "to",
          "type": "address"
        }
      ],
      "name": "Minted",
      "type": "event"
    },
    {
      "anonymous": false,
      "inputs": [
        {
          "indexed": true,
          "internalType": "address",
          "name": "previousOwner",
          "type": "address"
        },
        {
          "indexed": true,
          "internalType": "address",
          "name": "newOwner",
          "type": "address"
        }
      ],
      "name": "OwnershipTransferred",
      "type": "event"
    },
    {
      "anonymous": false,
      "inputs": [
        {
          "indexed": false,
          "internalType": "uint256[]",
          "name": "specificIds",
          "type": "uint256[]"
        },
        {
          "indexed": false,
          "internalType": "address",
          "name": "to",
          "type": "address"
        }
      ],
      "name": "Redeemed",
      "type": "event"
    },
    {
      "anonymous": false,
      "inputs": [
        {
          "indexed": false,
          "internalType": "uint256[]",
          "name": "nftIds",
          "type": "uint256[]"
        },
        {
          "indexed": false,
          "internalType": "uint256[]",
          "name": "amounts",
          "type": "uint256[]"
        },
        {
          "indexed": false,
          "internalType": "uint256[]",
          "name": "specificIds",
          "type": "uint256[]"
        },
        {
          "indexed": false,
          "internalType": "address",
          "name": "to",
          "type": "address"
        }
      ],
      "name": "Swapped",
      "type": "event"
    },
    {
      "anonymous": false,
      "inputs": [
        {
          "indexed": true,
          "internalType": "address",
          "name": "from",
          "type": "address"
        },
        {
          "indexed": true,
          "internalType": "address",
          "name": "to",
          "type": "address"
        },
        {
          "indexed": false,
          "internalType": "uint256",
          "name": "value",
          "type": "uint256"
        }
      ],
      "name": "Transfer",
      "type": "event"
    },
    {
      "anonymous": false,
      "inputs": [
        {
          "indexed": true,
          "internalType": "uint256",
          "name": "vaultId",
          "type": "uint256"
        },
        {
          "indexed": false,
          "internalType": "address",
          "name": "assetAddress",
          "type": "address"
        },
        {
          "indexed": false,
          "internalType": "bool",
          "name": "is1155",
          "type": "bool"
        },
        {
          "indexed": false,
          "internalType": "bool",
          "name": "allowAllItems",
          "type": "bool"
        }
      ],
      "name": "VaultInit",
      "type": "event"
    },
    {
      "inputs": [
        {
          "internalType": "string",
          "name": "_name",
          "type": "string"
        },
        {
          "internalType": "string",
          "name": "_symbol",
          "type": "string"
        },
        {
          "internalType": "address",
          "name": "_assetAddress",
          "type": "address"
        },
        {
          "internalType": "bool",
          "name": "_is1155",
          "type": "bool"
        },
        {
          "internalType": "bool",
          "name": "_allowAllItems",
          "type": "bool"
        }
      ],
      "name": "__NFTXVault_init",
      "outputs": [],
      "stateMutability": "nonpayable",
      "type": "function"
    },
    {
      "inputs": [],
      "name": "allHoldings",
      "outputs": [
        {
          "internalType": "uint256[]",
          "name": "",
          "type": "uint256[]"
        }
      ],
      "stateMutability": "view",
      "type": "function"
    },
    {
      "inputs": [
        {
          "internalType": "uint256[]",
          "name": "tokenIds",
          "type": "uint256[]"
        }
      ],
      "name": "allValidNFTs",
      "outputs": [
        {
          "internalType": "bool",
          "name": "",
          "type": "bool"
        }
      ],
      "stateMutability": "view",
      "type": "function"
    },
    {
      "inputs": [],
      "name": "allowAllItems",
      "outputs": [
        {
          "internalType": "bool",
          "name": "",
          "type": "bool"
        }
      ],
      "stateMutability": "view",
      "type": "function"
    },
    {
      "inputs": [
        {
          "internalType": "address",
          "name": "owner",
          "type": "address"
        },
        {
          "internalType": "address",
          "name": "spender",
          "type": "address"
        }
      ],
      "name": "allowance",
      "outputs": [
        {
          "internalType": "uint256",
          "name": "",
          "type": "uint256"
        }
      ],
      "stateMutability": "view",
      "type": "function"
    },
    {
      "inputs": [
        {
          "internalType": "address",
          "name": "spender",
          "type": "address"
        },
        {
          "internalType": "uint256",
          "name": "amount",
          "type": "uint256"
        }
      ],
      "name": "approve",
      "outputs": [
        {
          "internalType": "bool",
          "name": "",
          "type": "bool"
        }
      ],
      "stateMutability": "nonpayable",
      "type": "function"
    },
    {
      "inputs": [],
      "name": "assetAddress",
      "outputs": [
        {
          "internalType": "address",
          "name": "",
          "type": "address"
        }
      ],
      "stateMutability": "view",
      "type": "function"
    },
    {
      "inputs": [
        {
          "internalType": "address",
          "name": "account",
          "type": "address"
        }
      ],
      "name": "balanceOf",
      "outputs": [
        {
          "internalType": "uint256",
          "name": "",
          "type": "uint256"
        }
      ],
      "stateMutability": "view",
      "type": "function"
    },
    {
      "inputs": [],
      "name": "decimals",
      "outputs": [
        {
          "internalType": "uint8",
          "name": "",
          "type": "uint8"
        }
      ],
      "stateMutability": "view",
      "type": "function"
    },
    {
      "inputs": [
        {
          "internalType": "address",
          "name": "spender",
          "type": "address"
        },
        {
          "internalType": "uint256",
          "name": "subtractedValue",
          "type": "uint256"
        }
      ],
      "name": "decreaseAllowance",
      "outputs": [
        {
          "internalType": "bool",
          "name": "",
          "type": "bool"
        }
      ],
      "stateMutability": "nonpayable",
      "type": "function"
    },
    {
      "inputs": [
        {
          "internalType": "uint256",
          "name": "moduleIndex",
          "type": "uint256"
        },
        {
          "internalType": "bytes",
          "name": "initData",
          "type": "bytes"
        }
      ],
      "name": "deployEligibilityStorage",
      "outputs": [
        {
          "internalType": "address",
          "name": "",
          "type": "address"
        }
      ],
      "stateMutability": "nonpayable",
      "type": "function"
    },
    {
      "inputs": [],
      "name": "disableVaultFees",
      "outputs": [],
      "stateMutability": "nonpayable",
      "type": "function"
    },
    {
      "inputs": [],
      "name": "eligibilityStorage",
      "outputs": [
        {
          "internalType": "contract INFTXEligibility",
          "name": "",
          "type": "address"
        }
      ],
      "stateMutability": "view",
      "type": "function"
    },
    {
      "inputs": [],
      "name": "enableMint",
      "outputs": [
        {
          "internalType": "bool",
          "name": "",
          "type": "bool"
        }
      ],
      "stateMutability": "view",
      "type": "function"
    },
    {
      "inputs": [],
      "name": "finalizeVault",
      "outputs": [],
      "stateMutability": "nonpayable",
      "type": "function"
    },
    {
      "inputs": [
        {
          "internalType": "address",
          "name": "token",
          "type": "address"
        },
        {
          "internalType": "uint256",
          "name": "amount",
          "type": "uint256"
        }
      ],
      "name": "flashFee",
      "outputs": [
        {
          "internalType": "uint256",
          "name": "",
          "type": "uint256"
        }
      ],
      "stateMutability": "view",
      "type": "function"
    },
    {
      "inputs": [
        {
          "internalType": "contract IERC3156FlashBorrowerUpgradeable",
          "name": "receiver",
          "type": "address"
        },
        {
          "internalType": "address",
          "name": "token",
          "type": "address"
        },
        {
          "internalType": "uint256",
          "name": "amount",
          "type": "uint256"
        },
        {
          "internalType": "bytes",
          "name": "data",
          "type": "bytes"
        }
      ],
      "name": "flashLoan",
      "outputs": [
        {
          "internalType": "bool",
          "name": "",
          "type": "bool"
        }
      ],
      "stateMutability": "nonpayable",
      "type": "function"
    },
    {
      "inputs": [
        {
          "internalType": "uint256",
          "name": "tokenId",
          "type": "uint256"
        }
      ],
      "name": "getVTokenPremium",
      "outputs": [
        {
          "internalType": "uint256",
          "name": "",
          "type": "uint256"
        }
      ],
      "stateMutability": "view",
      "type": "function"
    },
    {
      "inputs": [
        {
          "internalType": "address",
          "name": "spender",
          "type": "address"
        },
        {
          "internalType": "uint256",
          "name": "addedValue",
          "type": "uint256"
        }
      ],
      "name": "increaseAllowance",
      "outputs": [
        {
          "internalType": "bool",
          "name": "",
          "type": "bool"
        }
      ],
      "stateMutability": "nonpayable",
      "type": "function"
    },
    {
      "inputs": [],
      "name": "is1155",
      "outputs": [
        {
          "internalType": "bool",
          "name": "",
          "type": "bool"
        }
      ],
      "stateMutability": "view",
      "type": "function"
    },
    {
      "inputs": [],
      "name": "manager",
      "outputs": [
        {
          "internalType": "address",
          "name": "",
          "type": "address"
        }
      ],
      "stateMutability": "view",
      "type": "function"
    },
    {
      "inputs": [
        {
          "internalType": "address",
          "name": "token",
          "type": "address"
        }
      ],
      "name": "maxFlashLoan",
      "outputs": [
        {
          "internalType": "uint256",
          "name": "",
          "type": "uint256"
        }
      ],
      "stateMutability": "view",
      "type": "function"
    },
    {
      "inputs": [
        {
          "internalType": "uint256[]",
          "name": "tokenIds",
          "type": "uint256[]"
        },
        {
          "internalType": "uint256[]",
          "name": "amounts",
          "type": "uint256[]"
        }
      ],
      "name": "mint",
      "outputs": [
        {
          "internalType": "uint256",
          "name": "nftCount",
          "type": "uint256"
        }
      ],
      "stateMutability": "payable",
      "type": "function"
    },
    {
      "inputs": [],
      "name": "mintFee",
      "outputs": [
        {
          "internalType": "uint256",
          "name": "",
          "type": "uint256"
        }
      ],
      "stateMutability": "view",
      "type": "function"
    },
    {
      "inputs": [
        {
          "internalType": "uint256[]",
          "name": "tokenIds",
          "type": "uint256[]"
        },
        {
          "internalType": "uint256[]",
          "name": "amounts",
          "type": "uint256[]"
        },
        {
          "internalType": "address",
          "name": "to",
          "type": "address"
        }
      ],
      "name": "mintTo",
      "outputs": [
        {
          "internalType": "uint256",
          "name": "nftCount",
          "type": "uint256"
        }
      ],
      "stateMutability": "payable",
      "type": "function"
    },
    {
      "inputs": [],
      "name": "name",
      "outputs": [
        {
          "internalType": "string",
          "name": "",
          "type": "string"
        }
      ],
      "stateMutability": "view",
      "type": "function"
    },
    {
      "inputs": [
        {
          "internalType": "uint256",
          "name": "holdingsIndex",
          "type": "uint256"
        }
      ],
      "name": "nftIdAt",
      "outputs": [
        {
          "internalType": "uint256",
          "name": "",
          "type": "uint256"
        }
      ],
      "stateMutability": "view",
      "type": "function"
    },
    {
      "inputs": [
        {
          "internalType": "address",
          "name": "",
          "type": "address"
        },
        {
          "internalType": "address",
          "name": "",
          "type": "address"
        },
        {
          "internalType": "uint256[]",
          "name": "",
          "type": "uint256[]"
        },
        {
          "internalType": "uint256[]",
          "name": "",
          "type": "uint256[]"
        },
        {
          "internalType": "bytes",
          "name": "",
          "type": "bytes"
        }
      ],
      "name": "onERC1155BatchReceived",
      "outputs": [
        {
          "internalType": "bytes4",
          "name": "",
          "type": "bytes4"
        }
      ],
      "stateMutability": "nonpayable",
      "type": "function"
    },
    {
      "inputs": [
        {
          "internalType": "address",
          "name": "",
          "type": "address"
        },
        {
          "internalType": "address",
          "name": "",
          "type": "address"
        },
        {
          "internalType": "uint256",
          "name": "",
          "type": "uint256"
        },
        {
          "internalType": "uint256",
          "name": "",
          "type": "uint256"
        },
        {
          "internalType": "bytes",
          "name": "",
          "type": "bytes"
        }
      ],
      "name": "onERC1155Received",
      "outputs": [
        {
          "internalType": "bytes4",
          "name": "",
          "type": "bytes4"
        }
      ],
      "stateMutability": "nonpayable",
      "type": "function"
    },
    {
      "inputs": [
        {
          "internalType": "address",
          "name": "",
          "type": "address"
        },
        {
          "internalType": "address",
          "name": "",
          "type": "address"
        },
        {
          "internalType": "uint256",
          "name": "",
          "type": "uint256"
        },
        {
          "internalType": "bytes",
          "name": "",
          "type": "bytes"
        }
      ],
      "name": "onERC721Received",
      "outputs": [
        {
          "internalType": "bytes4",
          "name": "",
          "type": "bytes4"
        }
      ],
      "stateMutability": "nonpayable",
      "type": "function"
    },
    {
      "inputs": [],
      "name": "owner",
      "outputs": [
        {
          "internalType": "address",
          "name": "",
          "type": "address"
        }
      ],
      "stateMutability": "view",
      "type": "function"
    },
    {
      "inputs": [
        {
          "internalType": "uint256[]",
          "name": "specificIds",
          "type": "uint256[]"
        }
      ],
      "name": "redeem",
      "outputs": [
        {
          "internalType": "uint256",
          "name": "ethFees",
          "type": "uint256"
        }
      ],
      "stateMutability": "payable",
      "type": "function"
    },
    {
      "inputs": [
        {
          "internalType": "uint256[]",
          "name": "specificIds",
          "type": "uint256[]"
        },
        {
          "internalType": "address",
          "name": "to",
          "type": "address"
        }
      ],
      "name": "redeemTo",
      "outputs": [
        {
          "internalType": "uint256",
          "name": "ethFees",
          "type": "uint256"
        }
      ],
      "stateMutability": "payable",
      "type": "function"
    },
    {
      "inputs": [],
      "name": "renounceOwnership",
      "outputs": [],
      "stateMutability": "nonpayable",
      "type": "function"
    },
    {
      "inputs": [
        {
          "internalType": "uint256",
          "name": "_mintFee",
          "type": "uint256"
        },
        {
          "internalType": "uint256",
          "name": "_targetRedeemFee",
          "type": "uint256"
        },
        {
          "internalType": "uint256",
          "name": "_targetSwapFee",
          "type": "uint256"
        }
      ],
      "name": "setFees",
      "outputs": [],
      "stateMutability": "nonpayable",
      "type": "function"
    },
    {
      "inputs": [
        {
          "internalType": "address",
          "name": "_manager",
          "type": "address"
        }
      ],
      "name": "setManager",
      "outputs": [],
      "stateMutability": "nonpayable",
      "type": "function"
    },
    {
      "inputs": [
        {
          "internalType": "bool",
          "name": "_enableMint",
          "type": "bool"
        },
        {
          "internalType": "bool",
          "name": "_enableTargetRedeem",
          "type": "bool"
        },
        {
          "internalType": "bool",
          "name": "_enableTargetSwap",
          "type": "bool"
        }
      ],
      "name": "setVaultFeatures",
      "outputs": [],
      "stateMutability": "nonpayable",
      "type": "function"
    },
    {
      "inputs": [
        {
          "internalType": "string",
          "name": "name_",
          "type": "string"
        },
        {
          "internalType": "string",
          "name": "symbol_",
          "type": "string"
        }
      ],
      "name": "setVaultMetadata",
      "outputs": [],
      "stateMutability": "nonpayable",
      "type": "function"
    },
    {
      "inputs": [
        {
          "internalType": "bytes4",
          "name": "interfaceId",
          "type": "bytes4"
        }
      ],
      "name": "supportsInterface",
      "outputs": [
        {
          "internalType": "bool",
          "name": "",
          "type": "bool"
        }
      ],
      "stateMutability": "view",
      "type": "function"
    },
    {
      "inputs": [
        {
          "internalType": "uint256[]",
          "name": "tokenIds",
          "type": "uint256[]"
        },
        {
          "internalType": "uint256[]",
          "name": "amounts",
          "type": "uint256[]"
        },
        {
          "internalType": "uint256[]",
          "name": "specificIds",
          "type": "uint256[]"
        }
      ],
      "name": "swap",
      "outputs": [
        {
          "internalType": "uint256",
          "name": "ethFees",
          "type": "uint256"
        }
      ],
      "stateMutability": "payable",
      "type": "function"
    },
    {
      "inputs": [
        {
          "internalType": "uint256[]",
          "name": "tokenIds",
          "type": "uint256[]"
        },
        {
          "internalType": "uint256[]",
          "name": "amounts",
          "type": "uint256[]"
        },
        {
          "internalType": "uint256[]",
          "name": "specificIds",
          "type": "uint256[]"
        },
        {
          "internalType": "address",
          "name": "to",
          "type": "address"
        }
      ],
      "name": "swapTo",
      "outputs": [
        {
          "internalType": "uint256",
          "name": "ethFees",
          "type": "uint256"
        }
      ],
      "stateMutability": "payable",
      "type": "function"
    },
    {
      "inputs": [],
      "name": "symbol",
      "outputs": [
        {
          "internalType": "string",
          "name": "",
          "type": "string"
        }
      ],
      "stateMutability": "view",
      "type": "function"
    },
    {
      "inputs": [],
      "name": "targetRedeemFee",
      "outputs": [
        {
          "internalType": "uint256",
          "name": "",
          "type": "uint256"
        }
      ],
      "stateMutability": "view",
      "type": "function"
    },
    {
      "inputs": [],
      "name": "targetSwapFee",
      "outputs": [
        {
          "internalType": "uint256",
          "name": "",
          "type": "uint256"
        }
      ],
      "stateMutability": "view",
      "type": "function"
    },
    {
      "inputs": [
        {
          "internalType": "uint256",
          "name": "",
          "type": "uint256"
        }
      ],
      "name": "tokenDepositedAt",
      "outputs": [
        {
          "internalType": "uint256",
          "name": "",
          "type": "uint256"
        }
      ],
      "stateMutability": "view",
      "type": "function"
    },
    {
      "inputs": [],
      "name": "totalHoldings",
      "outputs": [
        {
          "internalType": "uint256",
          "name": "",
          "type": "uint256"
        }
      ],
      "stateMutability": "view",
      "type": "function"
    },
    {
      "inputs": [],
      "name": "totalSupply",
      "outputs": [
        {
          "internalType": "uint256",
          "name": "",
          "type": "uint256"
        }
      ],
      "stateMutability": "view",
      "type": "function"
    },
    {
      "inputs": [
        {
          "internalType": "address",
          "name": "recipient",
          "type": "address"
        },
        {
          "internalType": "uint256",
          "name": "amount",
          "type": "uint256"
        }
      ],
      "name": "transfer",
      "outputs": [
        {
          "internalType": "bool",
          "name": "",
          "type": "bool"
        }
      ],
      "stateMutability": "nonpayable",
      "type": "function"
    },
    {
      "inputs": [
        {
          "internalType": "address",
          "name": "sender",
          "type": "address"
        },
        {
          "internalType": "address",
          "name": "recipient",
          "type": "address"
        },
        {
          "internalType": "uint256",
          "name": "amount",
          "type": "uint256"
        }
      ],
      "name": "transferFrom",
      "outputs": [
        {
          "internalType": "bool",
          "name": "",
          "type": "bool"
        }
      ],
      "stateMutability": "nonpayable",
      "type": "function"
    },
    {
      "inputs": [
        {
          "internalType": "address",
          "name": "newOwner",
          "type": "address"
        }
      ],
      "name": "transferOwnership",
      "outputs": [],
      "stateMutability": "nonpayable",
      "type": "function"
    },
    {
      "inputs": [
        {
          "internalType": "uint256",
          "name": "vTokenAmount",
          "type": "uint256"
        }
      ],
      "name": "vTokenToETH",
      "outputs": [
        {
          "internalType": "uint256",
          "name": "ethAmount",
          "type": "uint256"
        }
      ],
      "stateMutability": "view",
      "type": "function"
    },
    {
      "inputs": [],
      "name": "vaultFactory",
      "outputs": [
        {
          "internalType": "contract INFTXVaultFactory",
          "name": "",
          "type": "address"
        }
      ],
      "stateMutability": "view",
      "type": "function"
    },
    {
      "inputs": [],
      "name": "vaultFees",
      "outputs": [
        {
          "internalType": "uint256",
          "name": "",
          "type": "uint256"
        },
        {
          "internalType": "uint256",
          "name": "",
          "type": "uint256"
        },
        {
          "internalType": "uint256",
          "name": "",
          "type": "uint256"
        }
      ],
      "stateMutability": "view",
      "type": "function"
    },
    {
      "inputs": [],
      "name": "vaultId",
      "outputs": [
        {
          "internalType": "uint256",
          "name": "",
          "type": "uint256"
        }
      ],
      "stateMutability": "view",
      "type": "function"
    },
    {
      "inputs": [],
      "name": "version",
      "outputs": [
        {
          "internalType": "string",
          "name": "",
          "type": "string"
        }
      ],
      "stateMutability": "pure",
      "type": "function"
    }
  ],
  "transactionHash": "0x9730cdec886aff757dae2285990111387b1dd470370cdc2ee1f06f1bd22bfbea",
  "args": [],
  "numDeployments": 2,
  "solcInputHash": "9222f6b98937f29b801390260551c588",
  "bytecode": "0x608060405234801561001057600080fd5b50615c9f80620000216000396000f3fe60806040526004361061035f5760003560e01c8063715018a6116101c6578063d23923b6116100f7578063e78458c411610095578063f23a6e611161006f578063f23a6e6114610a08578063f2fde38b14610a34578063f9afb26a14610a54578063feb8eba514610a6757600080fd5b8063e78458c4146109b3578063e9ec2e99146109d3578063f1d20dd4146109e857600080fd5b8063d9d98ce4116100d1578063d9d98ce41461091a578063dd62ed3e1461093a578063deb190f114610980578063e0a8b97a1461099357600080fd5b8063d23923b6146108c7578063d6ee4a93146108e7578063d8a06f73146108fa57600080fd5b8063a9059cbb11610164578063bc197c811161013e578063bc197c8114610846578063c3cb8c1414610872578063cec10c1114610887578063d0ebdbe7146108a757600080fd5b8063a9059cbb146107f3578063b10402ea14610813578063b8517b781461082657600080fd5b80638da5cb5b116101a05780638da5cb5b146107805780638f878a431461079e57806395d89b41146107be578063a457c2d7146107d357600080fd5b8063715018a61461072857806372188e3f1461073d5780638c8508141461076d57600080fd5b806335dca76c116102a057806354fd4d501161023e578063613255ab11610218578063613255ab1461068457806361cc06c5146106a45780636b948a35146106d257806370a08231146106f257600080fd5b806354fd4d50146105fe5780635877aee6146106445780635cffe9de1461066457600080fd5b806344b28d591161027a57806344b28d591461057d57806345a0b6521461059e578063481c6a75146105be57806354f78d7f146105de57600080fd5b806335dca76c14610535578063395093511461054a5780633d5d190c1461056a57600080fd5b8063150b7a021161030d57806323b872dd116102e757806323b872dd146104c157806325705d8d146104e1578063313ce5671461050357806333194c0a1461051f57600080fd5b8063150b7a021461043057806318160ddd146104745780631ba46cfd1461048957600080fd5b806306fdde031161033e57806306fdde03146103cb578063095ea7b3146103ed57806313966db51461040d57600080fd5b80625181611461036457806301ffc9a71461037b57806306f26dc2146103b0575b600080fd5b34801561037057600080fd5b50610379610a7c565b005b34801561038757600080fd5b5061039b610396366004614b5d565b610aed565b60405190151581526020015b60405180910390f35b3480156103bc57600080fd5b506101045461039b9060ff1681565b3480156103d757600080fd5b506103e0610b24565b6040516103a79190614bdf565b3480156103f957600080fd5b5061039b610408366004614c07565b610bb6565b34801561041957600080fd5b50610422610bcc565b6040519081526020016103a7565b34801561043c57600080fd5b5061045b61044b366004614cea565b630a85bd0160e11b949350505050565b6040516001600160e01b031990911681526020016103a7565b34801561048057600080fd5b50606754610422565b34801561049557600080fd5b5060fd546104a9906001600160a01b031681565b6040516001600160a01b0390911681526020016103a7565b3480156104cd57600080fd5b5061039b6104dc366004614d56565b610c50565b3480156104ed57600080fd5b506104f6610d1d565b6040516103a79190614dd2565b34801561050f57600080fd5b50604051601281526020016103a7565b34801561052b57600080fd5b5061042260fb5481565b34801561054157600080fd5b50610422610dc0565b34801561055657600080fd5b5061039b610565366004614c07565b610e43565b610422610578366004614e2a565b610e7a565b34801561058957600080fd5b506101045461039b9062010000900460ff1681565b3480156105aa57600080fd5b506104226105b9366004614e96565b610ef4565b3480156105ca57600080fd5b5060fc546104a9906001600160a01b031681565b3480156105ea57600080fd5b506103796105f9366004614ebd565b610f02565b34801561060a57600080fd5b5060408051808201909152600681527f76312e302e36000000000000000000000000000000000000000000000000000060208201526103e0565b34801561065057600080fd5b506104a961065f366004614f4a565b610fcd565b34801561067057600080fd5b5061039b61067f366004614cea565b611190565b34801561069057600080fd5b5061042261069f366004614f96565b6111a8565b3480156106b057600080fd5b506104226106bf366004614e96565b6101096020526000908152604090205481565b3480156106de57600080fd5b506101045461039b90610100900460ff1681565b3480156106fe57600080fd5b5061042261070d366004614f96565b6001600160a01b031660009081526065602052604090205490565b34801561073457600080fd5b506103796111d0565b34801561074957600080fd5b50610752611274565b604080519384526020840192909252908201526060016103a7565b61042261077b366004615042565b6112f5565b34801561078c57600080fd5b506033546001600160a01b03166104a9565b3480156107aa57600080fd5b5060ff546104a9906001600160a01b031681565b3480156107ca57600080fd5b506103e06114ff565b3480156107df57600080fd5b5061039b6107ee366004614c07565b61150e565b3480156107ff57600080fd5b5061039b61080e366004614c07565b6115c1565b6104226108213660046150dd565b6115ce565b34801561083257600080fd5b50610422610841366004614e96565b611729565b34801561085257600080fd5b5061045b61086136600461514a565b63bc197c8160e01b95945050505050565b34801561087e57600080fd5b50610379611742565b34801561089357600080fd5b506103796108a23660046151f8565b61174e565b3480156108b357600080fd5b506103796108c2366004614f96565b6117d2565b3480156108d357600080fd5b506104226108e2366004614e96565b61182e565b6104226108f5366004615224565b61192a565b34801561090657600080fd5b5060fe546104a9906001600160a01b031681565b34801561092657600080fd5b50610422610935366004614c07565b6119d7565b34801561094657600080fd5b506104226109553660046152be565b6001600160a01b03918216600090815260666020908152604080832093909416825291909152205490565b61042261098e3660046152f7565b611a3a565b34801561099f57600080fd5b506103796109ae36600461533e565b611b48565b3480156109bf57600080fd5b506103796109ce36600461539e565b611bc3565b3480156109df57600080fd5b50610422611dee565b3480156109f457600080fd5b5061039b610a0336600461543c565b611e00565b348015610a1457600080fd5b5061045b610a23366004615471565b63f23a6e6160e01b95945050505050565b348015610a4057600080fd5b50610379610a4f366004614f96565b611ea3565b610422610a623660046154da565b611fd5565b348015610a7357600080fd5b50610422612015565b610a84612098565b60fe5460fb546040516360c1795960e11b81526001600160a01b039092169163c182f2b291610ab99160040190815260200190565b600060405180830381600087803b158015610ad357600080fd5b505af1158015610ae7573d6000803e3d6000fd5b50505050565b60006001600160e01b03198216630271189760e51b1480610b1e57506301ffc9a760e01b6001600160e01b03198316145b92915050565b606060688054610b339061551c565b80601f0160208091040260200160405190810160405280929190818152602001828054610b5f9061551c565b8015610bac5780601f10610b8157610100808354040283529160200191610bac565b820191906000526020600020905b815481529060010190602001808311610b8f57829003601f168201915b5050505050905090565b6000610bc333848461215c565b50600192915050565b60fe5460fb54604051632206137960e01b815260009283926001600160a01b0390911691632206137991610c069160040190815260200190565b606060405180830381865afa158015610c23573d6000803e3d6000fd5b505050506040513d601f19601f82011682018060405250810190610c479190615550565b50909392505050565b6000610c5d848484612281565b6001600160a01b038416600090815260666020908152604080832033845290915290205482811015610cfc5760405162461bcd60e51b815260206004820152602860248201527f45524332303a207472616e7366657220616d6f756e742065786365656473206160448201527f6c6c6f77616e636500000000000000000000000000000000000000000000000060648201526084015b60405180910390fd5b610d108533610d0b8685615594565b61215c565b60019150505b9392505050565b60606000610d2c610105612488565b905060008167ffffffffffffffff811115610d4957610d49614c33565b604051908082528060200260200182016040528015610d72578160200160208202803683370190505b50905060005b82811015610db957610d8c61010582612492565b828281518110610d9e57610d9e6155ab565b6020908102919091010152610db2816155c1565b9050610d78565b5092915050565b60fe5460fb54604051632206137960e01b815260009283926001600160a01b0390911691632206137991610dfa9160040190815260200190565b606060405180830381865afa158015610e17573d6000803e3d6000fd5b505050506040513d601f19601f82011682018060405250810190610e3b9190615550565b949350505050565b3360008181526066602090815260408083206001600160a01b03871684529091528120549091610bc3918590610d0b9086906155da565b6000610eeb858580806020026020016040519081016040528093929190818152602001838360200280828437600092019190915250506040805160208089028281018201909352888252909350889250879182918501908490808284376000920191909152503392506115ce915050565b95945050505050565b6000610b1e61010583612492565b610f0a612098565b6101048054841515620100000262ff0000199091161790556040517fc604be2f834727754dc1ec1225c14d1ecde48e7d12fa7b745dfb137a3db998bd90610f5690851515815260200190565b60405180910390a160405182151581527f64b60f32742df47d4ccb5b31ca12fee1bc20695467bfe8fa058b00ec446c15639060200160405180910390a160405181151581527fbfb092a6cb2d49526b6982acab35d64782cf1c05f8c8f0dd88008b288bfa5af59060200160405180910390a1505050565b6000610fd7612098565b60ff546001600160a01b03161561103b5760405162461bcd60e51b815260206004820152602260248201527f4e4654585661756c743a20656c69676962696c69747920616c72656164792073604482015261195d60f21b6064820152608401610cf3565b60fe5460408051630a63bfd560e11b815290516000926001600160a01b0316916314c77faa9160048083019260209291908290030181865afa158015611085573d6000803e3d6000fd5b505050506040513d601f19601f820116820180604052508101906110a991906155f2565b90506000816001600160a01b031663576ff9088787876040518463ffffffff1660e01b81526004016110dd9392919061560f565b6020604051808303816000875af11580156110fc573d6000803e3d6000fd5b505050506040513d601f19601f8201168201806040525081019061112091906155f2565b60ff80546001600160a01b0319166001600160a01b038316908117909155610104805461ff00191690556040805189815260208101929092529192507fe14c63b3d4272158635bee1d1b95b51bb8de042ee95a15cbfaf2865b4d0af811910160405180910390a195945050505050565b600061119c600461249e565b610eeb85858585612570565b60006001600160a01b03821630146111c1576000610b1e565b606754610b1e90600019615594565b6033546001600160a01b0316331461122a5760405162461bcd60e51b815260206004820181905260248201527f4f776e61626c653a2063616c6c6572206973206e6f7420746865206f776e65726044820152606401610cf3565b6033546040516000916001600160a01b0316907f8be0079c531659141344cd1fd0a4f28419497f9722a3daafe3b4186f6b6457e0908390a3603380546001600160a01b0319169055565b60fe5460fb54604051632206137960e01b81526004810191909152600091829182916001600160a01b031690632206137990602401606060405180830381865afa1580156112c6573d6000803e3d6000fd5b505050506040513d601f19601f820116820180604052508101906112ea9190615550565b925092509250909192565b6000600260c954036113495760405162461bcd60e51b815260206004820152601f60248201527f5265656e7472616e637947756172643a207265656e7472616e742063616c6c006044820152606401610cf3565b600260c955611358600361249e565b6101045460009060ff16156114055760005b86518110156113ff576000868281518110611387576113876155ab565b60200260200101519050806000036113e15760405162461bcd60e51b815260206004820152601b60248201527f4e4654585661756c743a207472616e7366657272696e67203c203100000000006044820152606401610cf3565b6113eb81846155da565b925050806113f8906155c1565b905061136a565b50611409565b5084515b835181146114595760405162461bcd60e51b815260206004820152601f60248201527f4e4654585661756c743a2052616e646f6d20737761702064697361626c6564006044820152606401610cf3565b6000611463611274565b9250505060008551826114769190615645565b905060006114848787612753565b905061149961149382846155da565b346128b4565b94506114a58989612b00565b506114b03486612d50565b7fcf2fcb072d2992e835a4daadd1e6ebba9a675539a451596a6f594fdb61ba9224898989896040516114e59493929190615664565b60405180910390a15050600160c955509095945050505050565b606060698054610b339061551c565b3360009081526066602090815260408083206001600160a01b0386168452909152812054828110156115a85760405162461bcd60e51b815260206004820152602560248201527f45524332303a2064656372656173656420616c6c6f77616e63652062656c6f7760448201527f207a65726f0000000000000000000000000000000000000000000000000000006064820152608401610cf3565b6115b73385610d0b8685615594565b5060019392505050565b6000610bc3338484612281565b6000600260c954036116225760405162461bcd60e51b815260206004820152601f60248201527f5265656e7472616e637947756172643a207265656e7472616e742063616c6c006044820152606401610cf3565b600260c955611631600161249e565b6101045462010000900460ff1661168a5760405162461bcd60e51b815260206004820152601360248201527f4d696e74696e67206e6f7420656e61626c6564000000000000000000000000006044820152606401610cf3565b6116948484612b00565b90506116b1826116ac83670de0b6b3a7640000615645565b612dd2565b6000816116bc610bcc565b6116c69190615645565b905060006116d482346128b4565b90506116e03482612d50565b7f1f72ad2a14447fa756b6f5aca53504645af79813493aca2d906b69e4aaeb9492868686604051611713939291906156b8565b60405180910390a15050600160c9559392505050565b60fe54600090610db9906001600160a01b031683612eb1565b61174c60006117d2565b565b611756612098565b60fe5460fb54604051639814f40f60e01b815260048101919091526024810185905260448101849052606481018390526001600160a01b0390911690639814f40f90608401600060405180830381600087803b1580156117b557600080fd5b505af11580156117c9573d6000803e3d6000fd5b50505050505050565b6117da612098565b60fc80546001600160a01b0319166001600160a01b0383169081179091556040519081527f60a0f5b9f9e81e98216071b85826681c796256fe3d1354ecb675580fba64fa699060200160405180910390a150565b6000818152610109602090815260408083205460fe5482516368d052e960e01b81529251610b1e9492936001600160a01b03909216926368d052e992600480820193918290030181865afa15801561188a573d6000803e3d6000fd5b505050506040513d601f19601f820116820180604052508101906118ae91906156f7565b60fe60009054906101000a90046001600160a01b03166001600160a01b0316631362ba226040518163ffffffff1660e01b8152600401602060405180830381865afa158015611901573d6000803e3d6000fd5b505050506040513d601f19601f8201168201806040525081019061192591906156f7565b613143565b60006119cc87878080602002602001604051908101604052809392919081815260200183836020028082843760009201919091525050604080516020808b0282810182019093528a82529093508a92508991829185019084908082843760009201919091525050604080516020808a028281018201909352898252909350899250889182918501908490808284376000920191909152503392506112f5915050565b979650505050505050565b60006001600160a01b0383163014611a315760405162461bcd60e51b815260206004820152601b60248201527f4552433230466c6173684d696e743a2077726f6e6720746f6b656e00000000006044820152606401610cf3565b50600092915050565b6000600260c95403611a8e5760405162461bcd60e51b815260206004820152601f60248201527f5265656e7472616e637947756172643a207265656e7472616e742063616c6c006044820152606401610cf3565b600260c9819055611a9e9061249e565b8251611abb33611ab683670de0b6b3a7640000615645565b61319b565b6000611ac5611274565b50915060009050611ad68383615645565b90506000611ae48787612753565b9050611af361149382846155da565b9450611aff3486612d50565b7fddf3c6319e89d061b877ebc529b0fd59410499b5bf683cffa46d5807dd13c6008787604051611b30929190615710565b60405180910390a15050600160c95550909392505050565b611b50612098565b610ae784848080601f01602080910402602001604051908101604052809392919081815260200183838082843760009201919091525050604080516020601f880181900481028201810190925286815292508691508590819084018382808284376000920191909152506132ea92505050565b600054610100900460ff1680611bdc575060005460ff16155b611c3f5760405162461bcd60e51b815260206004820152602e60248201527f496e697469616c697a61626c653a20636f6e747261637420697320616c72656160448201526d191e481a5b9a5d1a585b1a5e995960921b6064820152608401610cf3565b600054610100900460ff16158015611c61576000805461ffff19166101011790555b611c69613303565b611c7386866133c5565b6001600160a01b038416611cc95760405162461bcd60e51b815260206004820152601360248201527f417373657420213d2061646472657373283029000000000000000000000000006044820152606401610cf3565b60fd80546001600160a01b03199081166001600160a01b0387161790915560fe805433921682179055604080516304c94c4160e31b8152905163264a6208916004808201926020929091908290030181865afa158015611d2d573d6000803e3d6000fd5b505050506040513d601f19601f82011682018060405250810190611d5191906156f7565b60fb8190556101048054841515610100810261ff001988151590811661ffff199094169390931717909255604080516001600160a01b038916815260208101929092528101919091527f18ecce5c418b882a3d89e5b6cc8100dc3383309b8e78525266fe1283a7f934d69060600160405180910390a2611dd46001806001610f02565b8015611de6576000805461ff00191690555b505050505050565b6000611dfb610105612488565b905090565b61010454600090610100900460ff1615611e1c57506001919050565b60ff546001600160a01b031680611e365750600092915050565b6040516384ca9f8560e01b81526001600160a01b038216906384ca9f8590611e62908690600401614dd2565b602060405180830381865afa158015611e7f573d6000803e3d6000fd5b505050506040513d601f19601f82011682018060405250810190610d16919061573b565b6033546001600160a01b03163314611efd5760405162461bcd60e51b815260206004820181905260248201527f4f776e61626c653a2063616c6c6572206973206e6f7420746865206f776e65726044820152606401610cf3565b6001600160a01b038116611f795760405162461bcd60e51b815260206004820152602660248201527f4f776e61626c653a206e6577206f776e657220697320746865207a65726f206160448201527f64647265737300000000000000000000000000000000000000000000000000006064820152608401610cf3565b6033546040516001600160a01b038084169216907f8be0079c531659141344cd1fd0a4f28419497f9722a3daafe3b4186f6b6457e090600090a3603380546001600160a01b0319166001600160a01b0392909216919091179055565b6000610d16838380806020026020016040519081016040528093929190818152602001838360200280828437600092019190915250339250611a3a915050565b60fe5460fb54604051632206137960e01b815260009283926001600160a01b039091169163220613799161204f9160040190815260200190565b606060405180830381865afa15801561206c573d6000803e3d6000fd5b505050506040513d601f19601f820116820180604052508101906120909190615550565b509392505050565b60fc546001600160a01b0316612102576033546001600160a01b0316331461174c5760405162461bcd60e51b815260206004820152600960248201527f4e6f74206f776e657200000000000000000000000000000000000000000000006044820152606401610cf3565b60fc546001600160a01b0316331461174c5760405162461bcd60e51b815260206004820152600b60248201527f4e6f74206d616e616765720000000000000000000000000000000000000000006044820152606401610cf3565b6001600160a01b0383166121be5760405162461bcd60e51b8152602060048201526024808201527f45524332303a20617070726f76652066726f6d20746865207a65726f206164646044820152637265737360e01b6064820152608401610cf3565b6001600160a01b03821661221f5760405162461bcd60e51b815260206004820152602260248201527f45524332303a20617070726f766520746f20746865207a65726f206164647265604482015261737360f01b6064820152608401610cf3565b6001600160a01b0383811660008181526066602090815260408083209487168084529482529182902085905590518481527f8c5be1e5ebec7d5bd14f71427d1e84f3dd0314c0f7b2291e5b200ac8c7c3b92591015b60405180910390a3505050565b6001600160a01b0383166122fd5760405162461bcd60e51b815260206004820152602560248201527f45524332303a207472616e736665722066726f6d20746865207a65726f20616460448201527f64726573730000000000000000000000000000000000000000000000000000006064820152608401610cf3565b6001600160a01b03821661235f5760405162461bcd60e51b815260206004820152602360248201527f45524332303a207472616e7366657220746f20746865207a65726f206164647260448201526265737360e81b6064820152608401610cf3565b6001600160a01b038316600090815260656020526040902054818110156123ee5760405162461bcd60e51b815260206004820152602660248201527f45524332303a207472616e7366657220616d6f756e742065786365656473206260448201527f616c616e636500000000000000000000000000000000000000000000000000006064820152608401610cf3565b6123f88282615594565b6001600160a01b03808616600090815260656020526040808220939093559085168152908120805484929061242e9084906155da565b92505081905550826001600160a01b0316846001600160a01b03167fddf252ad1be2c89b69c2b068fc378daa952ba7f163c4a11628f55a4df523b3ef8460405161247a91815260200190565b60405180910390a350505050565b6000610b1e825490565b6000610d16838361348b565b60fe5460405163f6aacfb160e01b8152600481018390526001600160a01b039091169063f6aacfb190602401602060405180830381865afa1580156124e7573d6000803e3d6000fd5b505050506040513d601f19601f8201168201806040525081019061250b919061573b565b158061252157506033546001600160a01b031633145b61256d5760405162461bcd60e51b815260206004820152600660248201527f50617573656400000000000000000000000000000000000000000000000000006044820152606401610cf3565b50565b60008061257d85856119d7565b90506125898685612dd2565b6040516323e30c8b60e01b81527f439148f0bbc682ca079e46d6e2c2f0c1e3b820f1a291b069d8882abf8cf18dd9906001600160a01b038816906323e30c8b906125df9033908a908a9088908b90600401615758565b6020604051808303816000875af11580156125fe573d6000803e3d6000fd5b505050506040513d601f19601f8201168201806040525081019061262291906156f7565b1461267b5760405162461bcd60e51b8152602060048201526024808201527f4552433230466c6173684d696e743a20696e76616c69642072657475726e2076604482015263616c756560e01b6064820152608401610cf3565b6001600160a01b03861660009081526066602090815260408083203084529091529020546126a982866155da565b81101561271e5760405162461bcd60e51b815260206004820152602f60248201527f4552433230466c6173684d696e743a20616c6c6f77616e636520646f6573206e60448201527f6f7420616c6c6f7720726566756e6400000000000000000000000000000000006064820152608401610cf3565b61273887308461272e8986615594565b610d0b9190615594565b61274687611ab684886155da565b5060019695505050505050565b6101045460fd5460009160ff16906001600160a01b0316825b85518110156128a2576000868281518110612789576127896155ab565b602002602001015190508315612864576000818152610107602052604081208054600192906127b9908490615594565b90915550506000818152610107602052604081205490036127e2576127e0610105826134b5565b505b604051637921219560e11b81523060048201526001600160a01b038781166024830152604482018390526001606483015260a06084830152600060a483015284169063f242432a9060c401600060405180830381600087803b15801561284757600080fd5b505af115801561285b573d6000803e3d6000fd5b50505050612891565b61286d8161182e565b61287790866155da565b9450612885610105826134b5565b506128918387836134c1565b5061289b816155c1565b905061276c565b506128ac856136a1565b505092915050565b60fe546040516306df336560e51b81523360048201526000916001600160a01b031690819063dbe66ca090602401602060405180830381865afa1580156128ff573d6000803e3d6000fd5b505050506040513d601f19601f82011682018060405250810190612923919061573b565b15612932576000915050610b1e565b600061293e8286612eb1565b9093509050828410156129645760405163311c9fd160e01b815260040160405180910390fd5b82156128ac576000816001600160a01b031663ad5c46486040518163ffffffff1660e01b8152600401602060405180830381865afa1580156129aa573d6000803e3d6000fd5b505050506040513d601f19601f820116820180604052508101906129ce91906155f2565b9050806001600160a01b031663d0e30db0856040518263ffffffff1660e01b81526004016000604051808303818588803b158015612a0b57600080fd5b505af1158015612a1f573d6000803e3d6000fd5b505060405163a9059cbb60e01b81526001600160a01b038681166004830152602482018990528516935063a9059cbb925060440190506020604051808303816000875af1158015612a74573d6000803e3d6000fd5b505050506040513d601f19601f82011682018060405250810190612a98919061573b565b5060fb546040516391c05b0b60e01b815260048101919091526001600160a01b038316906391c05b0b90602401600060405180830381600087803b158015612adf57600080fd5b505af1158015612af3573d6000803e3d6000fd5b5050505050505092915050565b6000612b0b83611e00565b612b575760405162461bcd60e51b815260206004820152601760248201527f4e4654585661756c743a206e6f7420656c696769626c650000000000000000006044820152606401610cf3565b82516101045460ff1615612cd75760fd54604051631759616b60e11b81526001600160a01b0390911690632eb2c2d690612b9b903390309089908990600401615790565b600060405180830381600087803b158015612bb557600080fd5b505af1158015612bc9573d6000803e3d6000fd5b505050506000805b82811015612ccd576000868281518110612bed57612bed6155ab565b602002602001015190506000868381518110612c0b57612c0b6155ab565b6020026020010151905080600003612c655760405162461bcd60e51b815260206004820152601b60248201527f4e4654585661756c743a207472616e7366657272696e67203c203100000000006044820152606401610cf3565b600082815261010760205260408120549003612c8957612c8761010583613710565b505b6000828152610107602052604081208054839290612ca89084906155da565b90915550612cb8905081856155da565b9350505080612cc6906155c1565b9050612bd1565b509150610b1e9050565b60fd546001600160a01b031660005b82811015612d45576000868281518110612d0257612d026155ab565b60200260200101519050612d16838261371c565b612d2261010582613710565b50600090815261010960205260409020429055612d3e816155c1565b9050612ce6565b508192505050610b1e565b6000612d5c8284615594565b90508015612dcd57604051600090339083908381818185875af1925050503d8060008114612da6576040519150601f19603f3d011682016040523d82523d6000602084013e612dab565b606091505b5050905080610ae75760405163a238bf4d60e01b815260040160405180910390fd5b505050565b6001600160a01b038216612e285760405162461bcd60e51b815260206004820152601f60248201527f45524332303a206d696e7420746f20746865207a65726f2061646472657373006044820152606401610cf3565b8060676000828254612e3a91906155da565b90915550506001600160a01b03821660009081526065602052604081208054839290612e679084906155da565b90915550506040518181526001600160a01b038316906000907fddf252ad1be2c89b69c2b068fc378daa952ba7f163c4a11628f55a4df523b3ef9060200160405180910390a35050565b600080836001600160a01b0316630d43e8ad6040518163ffffffff1660e01b8152600401602060405180830381865afa158015612ef2573d6000803e3d6000fd5b505050506040513d601f19601f82011682018060405250810190612f1691906155f2565b90506000816001600160a01b0316631eae8f916040518163ffffffff1660e01b8152600401602060405180830381865afa158015612f58573d6000803e3d6000fd5b505050506040513d601f19601f82011682018060405250810190612f7c91906155f2565b9050600080826001600160a01b0316632a9c99e930866001600160a01b0316632bbfb8686040518163ffffffff1660e01b8152600401602060405180830381865afa158015612fcf573d6000803e3d6000fd5b505050506040513d601f19601f82011682018060405250810190612ff391906157eb565b6040516001600160e01b031960e085901b1681526001600160a01b03909216600483015262ffffff1660248201526044016040805180830381865afa158015613040573d6000803e3d6000fd5b505050506040513d601f19601f820116820180604052508101906130649190615810565b9150915080613079576000945050505061313c565b600061308483613adc565b90508060000361309b57600095505050505061313c565b604051637c99719560e11b81523060048201526000906001600160a01b0386169063f932e32a90602401602060405180830381865afa1580156130e2573d6000803e3d6000fd5b505050506040513d601f19601f82011682018060405250810190613106919061573b565b905080156131245761311d8883600160601b613ff3565b9650613136565b61313388600160601b84613ff3565b96505b50505050505b9250929050565b6000806131508542615594565b9050600061315e85836140a5565b9050600061316e610e1086615855565b86901c905080821061318e576131848183615594565b9350505050610d16565b5060009695505050505050565b6001600160a01b0382166131fb5760405162461bcd60e51b815260206004820152602160248201527f45524332303a206275726e2066726f6d20746865207a65726f206164647265736044820152607360f81b6064820152608401610cf3565b6001600160a01b0382166000908152606560205260409020548181101561326f5760405162461bcd60e51b815260206004820152602260248201527f45524332303a206275726e20616d6f756e7420657863656564732062616c616e604482015261636560f01b6064820152608401610cf3565b6132798282615594565b6001600160a01b038416600090815260656020526040812091909155606780548492906132a7908490615594565b90915550506040518281526000906001600160a01b038516907fddf252ad1be2c89b69c2b068fc378daa952ba7f163c4a11628f55a4df523b3ef90602001612274565b60686132f683826158af565b506069612dcd82826158af565b600054610100900460ff168061331c575060005460ff16155b61337f5760405162461bcd60e51b815260206004820152602e60248201527f496e697469616c697a61626c653a20636f6e747261637420697320616c72656160448201526d191e481a5b9a5d1a585b1a5e995960921b6064820152608401610cf3565b600054610100900460ff161580156133a1576000805461ffff19166101011790555b6133a961413f565b6133b16141f0565b801561256d576000805461ff001916905550565b600054610100900460ff16806133de575060005460ff16155b6134415760405162461bcd60e51b815260206004820152602e60248201527f496e697469616c697a61626c653a20636f6e747261637420697320616c72656160448201526d191e481a5b9a5d1a585b1a5e995960921b6064820152608401610cf3565b600054610100900460ff16158015613463576000805461ffff19166101011790555b61346b61413f565b61347583836142e5565b8015612dcd576000805461ff0019169055505050565b60008260000182815481106134a2576134a26155ab565b9060005260206000200154905092915050565b6000610d1683836143b3565b7306012c8cf97bead5deae237070f9587f8e7a266d73b47e3cd837ddf8e4c57f05d70ab865de6e193bbb60607306012c8cf97bead5deae237070f9587f8e7a266c196001600160a01b0387160161355f576040516001600160a01b03861660248201526044810185905260640160408051601f198184030181529190526020810180516001600160e01b031663a9059cbb60e01b1790529050613614565b816001600160a01b0316866001600160a01b0316036135c5576040516001600160a01b03861660248201526044810185905260640160408051601f198184030181529190526020810180516001600160e01b03166322dca8bb60e21b1790529050613614565b6040513060248201526001600160a01b03861660448201526064810185905260840160408051601f198184030181529190526020810180516001600160e01b0316632142170760e11b17905290505b600080876001600160a01b03168360405161362f919061596f565b6000604051808303816000865af19150503d806000811461366c576040519150601f19603f3d011682016040523d82523d6000602084013e613671565b606091505b50915091508181906136965760405162461bcd60e51b8152600401610cf39190614bdf565b505050505050505050565b60ff546001600160a01b0316806136b6575050565b604051632f17cda960e11b81526001600160a01b03821690635e2f9b52906136e2908590600401614dd2565b600060405180830381600087803b1580156136fc57600080fd5b505af1158015611de6573d6000803e3d6000fd5b6000610d1683836144a6565b7306012c8cf97bead5deae237070f9587f8e7a266d73b47e3cd837ddf8e4c57f05d70ab865de6e193bbb60607306012c8cf97bead5deae237070f9587f8e7a266c196001600160a01b038616016137b7576040513360248201523060448201526064810185905260840160408051601f198184030181529190526020810180516001600160e01b03166323b872dd60e01b1790529050613a50565b816001600160a01b0316856001600160a01b03160361392f576000846040516024016137e591815260200190565b60408051601f198184030181529181526020820180516001600160e01b0316630b02f02d60e31b1790525190915060009081906001600160a01b0389169061382e90859061596f565b600060405180830381855afa9150503d8060008114613869576040519150601f19603f3d011682016040523d82523d6000602084013e61386e565b606091505b509150915060008180602001905181019061388991906155f2565b90508280156138a057506001600160a01b03811633145b6138ec5760405162461bcd60e51b815260206004820152601160248201527f4e6f7420746865204e4654206f776e65720000000000000000000000000000006044820152606401610cf3565b6040516024810189905260440160408051601f198184030181529190526020810180516001600160e01b031663104c9fd360e31b1790529450613a509350505050565b60fd546040516331a9108f60e11b81526004810186905230916001600160a01b031690636352211e90602401602060405180830381865afa158015613978573d6000803e3d6000fd5b505050506040513d601f19601f8201168201806040525081019061399c91906155f2565b6001600160a01b031603613a0a576139b6610105856144f5565b15613a035760405162461bcd60e51b815260206004820152601a60248201527f547279696e6720746f2075736520616e206f776e6564204e46540000000000006044820152606401610cf3565b5050505050565b6040513360248201523060448201526064810185905260840160408051601f198184030181529190526020810180516001600160e01b0316632142170760e11b17905290505b600080866001600160a01b031683604051613a6b919061596f565b6000604051808303816000865af19150503d8060008114613aa8576040519150601f19603f3d011682016040523d82523d6000602084013e613aad565b606091505b5091509150818190613ad25760405162461bcd60e51b8152600401610cf39190614bdf565b5050505050505050565b60408051600280825260608201835260009283929190602083019080368337505060fe54604080516303c1d5df60e41b815290519394506001600160a01b0390911692633c1d5df0925060048083019260209291908290030181865afa158015613b4a573d6000803e3d6000fd5b505050506040513d601f19601f82011682018060405250810190613b6e91906159a4565b81600081518110613b8157613b816155ab565b602002602001019063ffffffff16908163ffffffff1681525050600081600181518110613bb057613bb06155ab565b602002602001019063ffffffff16908163ffffffff1681525050600080846001600160a01b031663883bdbfd60e01b84604051602401613bf091906159bf565b60408051601f198184030181529181526020820180516001600160e01b03166001600160e01b0319909416939093179092529051613c2e919061596f565b600060405180830381855afa9150503d8060008114613c69576040519150601f19603f3d011682016040523d82523d6000602084013e613c6e565b606091505b509150915081613f535760405160206024820152600360448201526213d31160ea1b606482015260840160408051601f19818403018152919052602080820180516001600160e01b031662461bcd60e51b178152915190912082519183019190912014613ce057506000949350505050565b600080866001600160a01b0316633850c7bd6040518163ffffffff1660e01b815260040160e060405180830381865afa158015613d21573d6000803e3d6000fd5b505050506040513d601f19601f82011682018060405250810190613d459190615a1b565b505050935093505050600080886001600160a01b031663252c09d784866001613d6e9190615aba565b613d789190615ae0565b6040516001600160e01b031960e084901b16815261ffff9091166004820152602401608060405180830381865afa158015613db7573d6000803e3d6000fd5b505050506040513d601f19601f82011682018060405250810190613ddb9190615b13565b93505050915080613e565760405163252c09d760e01b8152600060048201526001600160a01b038a169063252c09d790602401608060405180830381865afa158015613e2b573d6000803e3d6000fd5b505050506040513d601f19601f82011682018060405250810190613e4f9190615b13565b5091935050505b613e6663ffffffff831642615594565b87600081518110613e7957613e796155ab565b602002602001019063ffffffff16908163ffffffff1681525050886001600160a01b031663883bdbfd60e01b88604051602401613eb691906159bf565b60408051601f198184030181529181526020820180516001600160e01b03166001600160e01b0319909416939093179092529051613ef4919061596f565b600060405180830381855afa9150503d8060008114613f2f576040519150601f19603f3d011682016040523d82523d6000602084013e613f34565b606091505b50909650945085613f4e5750600098975050505050505050565b505050505b600081806020019051810190613f699190615b61565b90506000613fdd85600081518110613f8357613f836155ab565b602002602001015160030b83600081518110613fa157613fa16155ab565b602002602001015184600181518110613fbc57613fbc6155ab565b6020026020010151613fce9190615bee565b613fd89190615c3e565b61450d565b90506119cc6001600160a01b03821680600160601b5b600080806000198587098587029250828110838203039150508060000361402c576000841161402157600080fd5b508290049050610d16565b80841161403857600080fd5b6000848688096000868103871696879004966002600389028118808a02820302808a02820302808a02820302808a02820302808a02820302808a02909103029181900381900460010186841190950394909402919094039290920491909117919091029150509392505050565b600080610e106140bd670de0b6b3a764000085615645565b6140c79190615855565b905060006140dd670de0b6b3a764000083615855565b905084811c60006140f6670de0b6b3a764000084615645565b6141009085615594565b90506000670de0b6b3a764000061411a8362010000615645565b6141249190615855565b90506000614132828561483d565b9998505050505050505050565b600054610100900460ff1680614158575060005460ff16155b6141bb5760405162461bcd60e51b815260206004820152602e60248201527f496e697469616c697a61626c653a20636f6e747261637420697320616c72656160448201526d191e481a5b9a5d1a585b1a5e995960921b6064820152608401610cf3565b600054610100900460ff161580156133b1576000805461ffff1916610101179055801561256d576000805461ff001916905550565b600054610100900460ff1680614209575060005460ff16155b61426c5760405162461bcd60e51b815260206004820152602e60248201527f496e697469616c697a61626c653a20636f6e747261637420697320616c72656160448201526d191e481a5b9a5d1a585b1a5e995960921b6064820152608401610cf3565b600054610100900460ff1615801561428e576000805461ffff19166101011790555b603380546001600160a01b0319163390811790915560405181906000907f8be0079c531659141344cd1fd0a4f28419497f9722a3daafe3b4186f6b6457e0908290a350801561256d576000805461ff001916905550565b600054610100900460ff16806142fe575060005460ff16155b6143615760405162461bcd60e51b815260206004820152602e60248201527f496e697469616c697a61626c653a20636f6e747261637420697320616c72656160448201526d191e481a5b9a5d1a585b1a5e995960921b6064820152608401610cf3565b600054610100900460ff16158015614383576000805461ffff19166101011790555b606861438f84826158af565b50606961439c83826158af565b508015612dcd576000805461ff0019169055505050565b6000818152600183016020526040812054801561449c5760006143d7600183615594565b85549091506000906143eb90600190615594565b905081811461445057600086600001828154811061440b5761440b6155ab565b906000526020600020015490508087600001848154811061442e5761442e6155ab565b6000918252602080832090910192909255918252600188019052604090208390555b855486908061446157614461615c7c565b600190038181906000526020600020016000905590558560010160008681526020019081526020016000206000905560019350505050610b1e565b6000915050610b1e565b60008181526001830160205260408120546144ed57508154600181810184556000848152602080822090930184905584548482528286019093526040902091909155610b1e565b506000610b1e565b60008181526001830160205260408120541515610d16565b60008060008360020b12614524578260020b61452c565b8260020b6000035b9050620d89e8811115614552576040516315e4079d60e11b815260040160405180910390fd5b60008160011660000361457657700100000000000000000000000000000000614588565b6ffffcb933bd6fad37aa2d162d1a5940015b70ffffffffffffffffffffffffffffffffff16905060028216156145bc576ffff97272373d413259a46990580e213a0260801c5b60048216156145db576ffff2e50f5f656932ef12357cf3c7fdcc0260801c5b60088216156145fa576fffe5caca7e10e4e61c3624eaa0941cd00260801c5b6010821615614619576fffcb9843d60f6159c9db58835c9266440260801c5b6020821615614638576fff973b41fa98c081472e6896dfb254c00260801c5b6040821615614657576fff2ea16466c96a3843ec78b326b528610260801c5b6080821615614676576ffe5dee046a99a2a811c461f1969c30530260801c5b610100821615614696576ffcbe86c7900a88aedcffc83b479aa3a40260801c5b6102008216156146b6576ff987a7253ac413176f2b074cf7815e540260801c5b6104008216156146d6576ff3392b0822b70005940c7a398e4b70f30260801c5b6108008216156146f6576fe7159475a2c29b7443b29c7fa6e889d90260801c5b611000821615614716576fd097f3bdfd2022b8845ad8f792aa58250260801c5b612000821615614736576fa9f746462d870fdf8a65dc1f90e061e50260801c5b614000821615614756576f70d869a156d2a1b890bb3df62baf32f70260801c5b618000821615614776576f31be135f97d08fd981231505542fcfa60260801c5b62010000821615614797576f09aa508b5b7a84e1c677de54f3e99bc90260801c5b620200008216156147b7576e5d6af8dedb81196699c329225ee6040260801c5b620400008216156147d6576d2216e584f5fa1ea926041bedfe980260801c5b620800008216156147f3576b048a170391f7dc42444e8fa20260801c5b60008460020b13156148145780600019816148105761481061583f565b0490505b64010000000081061561482857600161482b565b60005b60ff16602082901c0192505050919050565b6000600183161561487057670de0b6b3a7640000614863670de0ad151d09418084615645565b61486d9190615855565b91505b60028316156148a157670de0b6b3a7640000614894670de0a3769959680084615645565b61489e9190615855565b91505b60048316156148d257670de0b6b3a76400006148c5670de09039a5fa510084615645565b6148cf9190615855565b91505b600883161561490357670de0b6b3a76400006148f6670de069c00f3e120084615645565b6149009190615855565b91505b601083161561493457670de0b6b3a7640000614927670de01cce21c9440084615645565b6149319190615855565b91505b602083161561496557670de0b6b3a7640000614958670ddf82ef46ce100084615645565b6149629190615855565b91505b604083161561499657670de0b6b3a7640000614989670dde4f458f8e8d8084615645565b6149939190615855565b91505b60808316156149c757670de0b6b3a76400006149ba670ddbe84213d5f08084615645565b6149c49190615855565b91505b6101008316156149f957670de0b6b3a76400006149ec670dd71b7aa6df5b8084615645565b6149f69190615855565b91505b610200831615614a2b57670de0b6b3a7640000614a1e670dcd86e7f28cde0084615645565b614a289190615855565b91505b610400831615614a5d57670de0b6b3a7640000614a50670dba71a3084ad68084615645565b614a5a9190615855565b91505b610800831615614a8f57670de0b6b3a7640000614a82670d94961b13dbde8084615645565b614a8c9190615855565b91505b611000831615614ac157670de0b6b3a7640000614ab4670d4a171c35c9838084615645565b614abe9190615855565b91505b612000831615614af357670de0b6b3a7640000614ae6670cb9da519ccfb70084615645565b614af09190615855565b91505b614000831615614b2557670de0b6b3a7640000614b18670bab76d59c18d68084615645565b614b229190615855565b91505b618000831615614b5757670de0b6b3a7640000614b4a6709d025defee4df8084615645565b614b549190615855565b91505b50919050565b600060208284031215614b6f57600080fd5b81356001600160e01b031981168114610d1657600080fd5b60005b83811015614ba2578181015183820152602001614b8a565b83811115610ae75750506000910152565b60008151808452614bcb816020860160208601614b87565b601f01601f19169290920160200192915050565b602081526000610d166020830184614bb3565b6001600160a01b038116811461256d57600080fd5b60008060408385031215614c1a57600080fd5b8235614c2581614bf2565b946020939093013593505050565b634e487b7160e01b600052604160045260246000fd5b604051601f8201601f1916810167ffffffffffffffff81118282101715614c7257614c72614c33565b604052919050565b600082601f830112614c8b57600080fd5b813567ffffffffffffffff811115614ca557614ca5614c33565b614cb8601f8201601f1916602001614c49565b818152846020838601011115614ccd57600080fd5b816020850160208301376000918101602001919091529392505050565b60008060008060808587031215614d0057600080fd5b8435614d0b81614bf2565b93506020850135614d1b81614bf2565b925060408501359150606085013567ffffffffffffffff811115614d3e57600080fd5b614d4a87828801614c7a565b91505092959194509250565b600080600060608486031215614d6b57600080fd5b8335614d7681614bf2565b92506020840135614d8681614bf2565b929592945050506040919091013590565b600081518084526020808501945080840160005b83811015614dc757815187529582019590820190600101614dab565b509495945050505050565b602081526000610d166020830184614d97565b60008083601f840112614df757600080fd5b50813567ffffffffffffffff811115614e0f57600080fd5b6020830191508360208260051b850101111561313c57600080fd5b60008060008060408587031215614e4057600080fd5b843567ffffffffffffffff80821115614e5857600080fd5b614e6488838901614de5565b90965094506020870135915080821115614e7d57600080fd5b50614e8a87828801614de5565b95989497509550505050565b600060208284031215614ea857600080fd5b5035919050565b801515811461256d57600080fd5b600080600060608486031215614ed257600080fd5b8335614edd81614eaf565b92506020840135614eed81614eaf565b91506040840135614efd81614eaf565b809150509250925092565b60008083601f840112614f1a57600080fd5b50813567ffffffffffffffff811115614f3257600080fd5b60208301915083602082850101111561313c57600080fd5b600080600060408486031215614f5f57600080fd5b83359250602084013567ffffffffffffffff811115614f7d57600080fd5b614f8986828701614f08565b9497909650939450505050565b600060208284031215614fa857600080fd5b8135610d1681614bf2565b600067ffffffffffffffff821115614fcd57614fcd614c33565b5060051b60200190565b600082601f830112614fe857600080fd5b81356020614ffd614ff883614fb3565b614c49565b82815260059290921b8401810191818101908684111561501c57600080fd5b8286015b848110156150375780358352918301918301615020565b509695505050505050565b6000806000806080858703121561505857600080fd5b843567ffffffffffffffff8082111561507057600080fd5b61507c88838901614fd7565b9550602087013591508082111561509257600080fd5b61509e88838901614fd7565b945060408701359150808211156150b457600080fd5b506150c187828801614fd7565b92505060608501356150d281614bf2565b939692955090935050565b6000806000606084860312156150f257600080fd5b833567ffffffffffffffff8082111561510a57600080fd5b61511687838801614fd7565b9450602086013591508082111561512c57600080fd5b5061513986828701614fd7565b9250506040840135614efd81614bf2565b600080600080600060a0868803121561516257600080fd5b853561516d81614bf2565b9450602086013561517d81614bf2565b9350604086013567ffffffffffffffff8082111561519a57600080fd5b6151a689838a01614fd7565b945060608801359150808211156151bc57600080fd5b6151c889838a01614fd7565b935060808801359150808211156151de57600080fd5b506151eb88828901614c7a565b9150509295509295909350565b60008060006060848603121561520d57600080fd5b505081359360208301359350604090920135919050565b6000806000806000806060878903121561523d57600080fd5b863567ffffffffffffffff8082111561525557600080fd5b6152618a838b01614de5565b9098509650602089013591508082111561527a57600080fd5b6152868a838b01614de5565b9096509450604089013591508082111561529f57600080fd5b506152ac89828a01614de5565b979a9699509497509295939492505050565b600080604083850312156152d157600080fd5b82356152dc81614bf2565b915060208301356152ec81614bf2565b809150509250929050565b6000806040838503121561530a57600080fd5b823567ffffffffffffffff81111561532157600080fd5b61532d85828601614fd7565b92505060208301356152ec81614bf2565b6000806000806040858703121561535457600080fd5b843567ffffffffffffffff8082111561536c57600080fd5b61537888838901614f08565b9096509450602087013591508082111561539157600080fd5b50614e8a87828801614f08565b600080600080600060a086880312156153b657600080fd5b853567ffffffffffffffff808211156153ce57600080fd5b6153da89838a01614c7a565b965060208801359150808211156153f057600080fd5b506153fd88828901614c7a565b945050604086013561540e81614bf2565b9250606086013561541e81614eaf565b9150608086013561542e81614eaf565b809150509295509295909350565b60006020828403121561544e57600080fd5b813567ffffffffffffffff81111561546557600080fd5b610e3b84828501614fd7565b600080600080600060a0868803121561548957600080fd5b853561549481614bf2565b945060208601356154a481614bf2565b93506040860135925060608601359150608086013567ffffffffffffffff8111156154ce57600080fd5b6151eb88828901614c7a565b600080602083850312156154ed57600080fd5b823567ffffffffffffffff81111561550457600080fd5b61551085828601614de5565b90969095509350505050565b600181811c9082168061553057607f821691505b602082108103614b5757634e487b7160e01b600052602260045260246000fd5b60008060006060848603121561556557600080fd5b8351925060208401519150604084015190509250925092565b634e487b7160e01b600052601160045260246000fd5b6000828210156155a6576155a661557e565b500390565b634e487b7160e01b600052603260045260246000fd5b6000600182016155d3576155d361557e565b5060010190565b600082198211156155ed576155ed61557e565b500190565b60006020828403121561560457600080fd5b8151610d1681614bf2565b83815260406020820152816040820152818360608301376000818301606090810191909152601f909201601f1916010192915050565b600081600019048311821515161561565f5761565f61557e565b500290565b6080815260006156776080830187614d97565b82810360208401526156898187614d97565b9050828103604084015261569d8186614d97565b9150506001600160a01b038316606083015295945050505050565b6060815260006156cb6060830186614d97565b82810360208401526156dd8186614d97565b9150506001600160a01b0383166040830152949350505050565b60006020828403121561570957600080fd5b5051919050565b6040815260006157236040830185614d97565b90506001600160a01b03831660208301529392505050565b60006020828403121561574d57600080fd5b8151610d1681614eaf565b60006001600160a01b03808816835280871660208401525084604083015283606083015260a060808301526119cc60a0830184614bb3565b60006001600160a01b03808716835280861660208401525060a060408301526157bc60a0830185614d97565b82810360608401526157ce8185614d97565b838103608090940193909352505060008152602001949350505050565b6000602082840312156157fd57600080fd5b815162ffffff81168114610d1657600080fd5b6000806040838503121561582357600080fd5b825161582e81614bf2565b60208401519092506152ec81614eaf565b634e487b7160e01b600052601260045260246000fd5b6000826158645761586461583f565b500490565b601f821115612dcd57600081815260208120601f850160051c810160208610156158905750805b601f850160051c820191505b81811015611de65782815560010161589c565b815167ffffffffffffffff8111156158c9576158c9614c33565b6158dd816158d7845461551c565b84615869565b602080601f83116001811461591257600084156158fa5750858301515b600019600386901b1c1916600185901b178555611de6565b600085815260208120601f198616915b8281101561594157888601518255948401946001909101908401615922565b508582101561595f5787850151600019600388901b60f8161c191681555b5050505050600190811b01905550565b60008251615981818460208701614b87565b9190910192915050565b805163ffffffff8116811461599f57600080fd5b919050565b6000602082840312156159b657600080fd5b610d168261598b565b6020808252825182820181905260009190848201906040850190845b818110156159fd57835163ffffffff16835292840192918401916001016159db565b50909695505050505050565b805161ffff8116811461599f57600080fd5b600080600080600080600060e0888a031215615a3657600080fd5b8751615a4181614bf2565b8097505060208801518060020b8114615a5957600080fd5b9550615a6760408901615a09565b9450615a7560608901615a09565b9350615a8360808901615a09565b925060a088015160ff81168114615a9957600080fd5b60c0890151909250615aaa81614eaf565b8091505092959891949750929550565b600061ffff808316818516808303821115615ad757615ad761557e565b01949350505050565b600061ffff80841680615af557615af561583f565b92169190910692915050565b8051600681900b811461599f57600080fd5b60008060008060808587031215615b2957600080fd5b615b328561598b565b9350615b4060208601615b01565b92506040850151615b5081614bf2565b60608601519092506150d281614eaf565b60006020808385031215615b7457600080fd5b825167ffffffffffffffff811115615b8b57600080fd5b8301601f81018513615b9c57600080fd5b8051615baa614ff882614fb3565b81815260059190911b82018301908381019087831115615bc957600080fd5b928401925b828410156119cc57615bdf84615b01565b82529284019290840190615bce565b60008160060b8360060b6000811281667fffffffffffff1901831281151615615c1957615c1961557e565b81667fffffffffffff018313811615615c3457615c3461557e565b5090039392505050565b60008160060b8360060b80615c5557615c5561583f565b667fffffffffffff19821460001982141615615c7357615c7361557e565b90059392505050565b634e487b7160e01b600052603160045260246000fdfea164736f6c634300080f000a",
  "devdoc": {
    "kind": "dev",
    "methods": {
      "allowance(address,address)": {
        "details": "See {IERC20-allowance}."
      },
      "approve(address,uint256)": {
        "details": "See {IERC20-approve}. Requirements: - `spender` cannot be the zero address."
      },
      "balanceOf(address)": {
        "details": "See {IERC20-balanceOf}."
      },
      "decimals()": {
        "details": "Returns the number of decimals used to get its user representation. For example, if `decimals` equals `2`, a balance of `505` tokens should be displayed to a user as `5,05` (`505 / 10 ** 2`). Tokens usually opt for a value of 18, imitating the relationship between Ether and Wei. This is the value {ERC20} uses, unless this function is overridden; NOTE: This information is only used for _display_ purposes: it in no way affects any of the arithmetic of the contract, including {IERC20-balanceOf} and {IERC20-transfer}."
      },
      "decreaseAllowance(address,uint256)": {
        "details": "Atomically decreases the allowance granted to `spender` by the caller. This is an alternative to {approve} that can be used as a mitigation for problems described in {IERC20-approve}. Emits an {Approval} event indicating the updated allowance. Requirements: - `spender` cannot be the zero address. - `spender` must have allowance for the caller of at least `subtractedValue`."
      },
      "flashFee(address,uint256)": {
        "details": "Returns the fee applied when doing flash loans. By default this implementation has 0 fees. This function can be overloaded to make the flash loan mechanism deflationary.",
        "params": {
          "amount": "The amount of tokens to be loaned.",
          "token": "The token to be flash loaned."
        },
        "returns": {
          "_0": "The fees applied to the corresponding flash loan."
        }
      },
      "flashLoan(address,address,uint256,bytes)": {
        "details": "Performs a flash loan. New tokens are minted and sent to the `receiver`, who is required to implement the {IERC3156FlashBorrower} interface. By the end of the flash loan, the receiver is expected to own amount + fee tokens and have them approved back to the token contract itself so they can be burned.",
        "params": {
          "amount": "The amount of tokens to be loaned.",
          "data": "An arbitrary datafield that is passed to the receiver.",
          "receiver": "The receiver of the flash loan. Should implement the {IERC3156FlashBorrower.onFlashLoan} interface.",
          "token": "The token to be flash loaned. Only `address(this)` is supported."
        },
        "returns": {
          "_0": "`true` is the flash loan was successfull."
        }
      },
      "increaseAllowance(address,uint256)": {
        "details": "Atomically increases the allowance granted to `spender` by the caller. This is an alternative to {approve} that can be used as a mitigation for problems described in {IERC20-approve}. Emits an {Approval} event indicating the updated allowance. Requirements: - `spender` cannot be the zero address."
      },
      "maxFlashLoan(address)": {
        "details": "Returns the maximum amount of tokens available for loan.",
        "params": {
          "token": "The address of the token that is requested."
        },
        "returns": {
          "_0": "The amont of token that can be loaned."
        }
      },
      "name()": {
        "details": "Returns the name of the token."
      },
      "onERC721Received(address,address,uint256,bytes)": {
        "details": "See {IERC721Receiver-onERC721Received}. Always returns `IERC721Receiver.onERC721Received.selector`."
      },
      "owner()": {
        "details": "Returns the address of the current owner."
      },
      "renounceOwnership()": {
        "details": "Leaves the contract without owner. It will not be possible to call `onlyOwner` functions anymore. Can only be called by the current owner. NOTE: Renouncing ownership will leave the contract without an owner, thereby removing any functionality that is only available to the owner."
      },
      "supportsInterface(bytes4)": {
        "details": "See {IERC165-supportsInterface}."
      },
      "symbol()": {
        "details": "Returns the symbol of the token, usually a shorter version of the name."
      },
      "totalSupply()": {
        "details": "See {IERC20-totalSupply}."
      },
      "transfer(address,uint256)": {
        "details": "See {IERC20-transfer}. Requirements: - `recipient` cannot be the zero address. - the caller must have a balance of at least `amount`."
      },
      "transferFrom(address,address,uint256)": {
        "details": "See {IERC20-transferFrom}. Emits an {Approval} event indicating the updated allowance. This is not required by the EIP. See the note at the beginning of {ERC20}. Requirements: - `sender` and `recipient` cannot be the zero address. - `sender` must have a balance of at least `amount`. - the caller must have allowance for ``sender``'s tokens of at least `amount`."
      },
      "transferOwnership(address)": {
        "details": "Transfers ownership of the contract to a new account (`newOwner`). Can only be called by the current owner."
      }
    },
    "version": 1
  },
  "userdoc": {
    "kind": "user",
    "methods": {},
    "version": 1
  },
  "storageLayout": {
    "storage": [
      {
        "astId": 38757,
        "contract": "src/v2/NFTXVaultUpgradeable.sol:NFTXVaultUpgradeable",
        "label": "_initialized",
        "offset": 0,
        "slot": "0",
        "type": "t_bool"
      },
      {
        "astId": 38760,
        "contract": "src/v2/NFTXVaultUpgradeable.sol:NFTXVaultUpgradeable",
        "label": "_initializing",
        "offset": 1,
        "slot": "0",
        "type": "t_bool"
      },
      {
        "astId": 42624,
        "contract": "src/v2/NFTXVaultUpgradeable.sol:NFTXVaultUpgradeable",
        "label": "__gap",
        "offset": 0,
        "slot": "1",
        "type": "t_array(t_uint256)50_storage"
      },
      {
        "astId": 43390,
        "contract": "src/v2/NFTXVaultUpgradeable.sol:NFTXVaultUpgradeable",
        "label": "_owner",
        "offset": 0,
        "slot": "51",
        "type": "t_address"
      },
      {
        "astId": 43509,
        "contract": "src/v2/NFTXVaultUpgradeable.sol:NFTXVaultUpgradeable",
        "label": "__gap",
        "offset": 0,
        "slot": "52",
        "type": "t_array(t_uint256)49_storage"
      },
      {
        "astId": 40452,
        "contract": "src/v2/NFTXVaultUpgradeable.sol:NFTXVaultUpgradeable",
        "label": "_balances",
        "offset": 0,
        "slot": "101",
        "type": "t_mapping(t_address,t_uint256)"
      },
      {
        "astId": 40458,
        "contract": "src/v2/NFTXVaultUpgradeable.sol:NFTXVaultUpgradeable",
        "label": "_allowances",
        "offset": 0,
        "slot": "102",
        "type": "t_mapping(t_address,t_mapping(t_address,t_uint256))"
      },
      {
        "astId": 40460,
        "contract": "src/v2/NFTXVaultUpgradeable.sol:NFTXVaultUpgradeable",
        "label": "_totalSupply",
        "offset": 0,
        "slot": "103",
        "type": "t_uint256"
      },
      {
        "astId": 40462,
        "contract": "src/v2/NFTXVaultUpgradeable.sol:NFTXVaultUpgradeable",
        "label": "_name",
        "offset": 0,
        "slot": "104",
        "type": "t_string_storage"
      },
      {
        "astId": 40464,
        "contract": "src/v2/NFTXVaultUpgradeable.sol:NFTXVaultUpgradeable",
        "label": "_symbol",
        "offset": 0,
        "slot": "105",
        "type": "t_string_storage"
      },
      {
        "astId": 40982,
        "contract": "src/v2/NFTXVaultUpgradeable.sol:NFTXVaultUpgradeable",
        "label": "__gap",
        "offset": 0,
        "slot": "106",
        "type": "t_array(t_uint256)45_storage"
      },
      {
        "astId": 40432,
        "contract": "src/v2/NFTXVaultUpgradeable.sol:NFTXVaultUpgradeable",
        "label": "__gap",
        "offset": 0,
        "slot": "151",
        "type": "t_array(t_uint256)50_storage"
      },
      {
        "astId": 43683,
        "contract": "src/v2/NFTXVaultUpgradeable.sol:NFTXVaultUpgradeable",
        "label": "_status",
        "offset": 0,
        "slot": "201",
        "type": "t_uint256"
      },
      {
        "astId": 43726,
        "contract": "src/v2/NFTXVaultUpgradeable.sol:NFTXVaultUpgradeable",
        "label": "__gap",
        "offset": 0,
        "slot": "202",
        "type": "t_array(t_uint256)49_storage"
      },
      {
        "astId": 32361,
        "contract": "src/v2/NFTXVaultUpgradeable.sol:NFTXVaultUpgradeable",
        "label": "vaultId",
        "offset": 0,
        "slot": "251",
        "type": "t_uint256"
      },
      {
        "astId": 32364,
        "contract": "src/v2/NFTXVaultUpgradeable.sol:NFTXVaultUpgradeable",
        "label": "manager",
        "offset": 0,
        "slot": "252",
        "type": "t_address"
      },
      {
        "astId": 32367,
        "contract": "src/v2/NFTXVaultUpgradeable.sol:NFTXVaultUpgradeable",
        "label": "assetAddress",
        "offset": 0,
        "slot": "253",
        "type": "t_address"
      },
      {
        "astId": 32371,
        "contract": "src/v2/NFTXVaultUpgradeable.sol:NFTXVaultUpgradeable",
        "label": "vaultFactory",
        "offset": 0,
        "slot": "254",
        "type": "t_contract(INFTXVaultFactory)37185"
      },
      {
        "astId": 32375,
        "contract": "src/v2/NFTXVaultUpgradeable.sol:NFTXVaultUpgradeable",
        "label": "eligibilityStorage",
        "offset": 0,
        "slot": "255",
        "type": "t_contract(INFTXEligibility)36097"
      },
      {
        "astId": 32377,
        "contract": "src/v2/NFTXVaultUpgradeable.sol:NFTXVaultUpgradeable",
        "label": "UNUSED_FEE4",
        "offset": 0,
        "slot": "256",
        "type": "t_uint256"
      },
      {
        "astId": 32379,
        "contract": "src/v2/NFTXVaultUpgradeable.sol:NFTXVaultUpgradeable",
        "label": "UNUSED_FEE1",
        "offset": 0,
        "slot": "257",
        "type": "t_uint256"
      },
      {
        "astId": 32381,
        "contract": "src/v2/NFTXVaultUpgradeable.sol:NFTXVaultUpgradeable",
        "label": "UNUSED_FEE2",
        "offset": 0,
        "slot": "258",
        "type": "t_uint256"
      },
      {
        "astId": 32383,
        "contract": "src/v2/NFTXVaultUpgradeable.sol:NFTXVaultUpgradeable",
        "label": "UNUSED_FEE3",
        "offset": 0,
        "slot": "259",
        "type": "t_uint256"
      },
      {
        "astId": 32386,
        "contract": "src/v2/NFTXVaultUpgradeable.sol:NFTXVaultUpgradeable",
        "label": "is1155",
        "offset": 0,
        "slot": "260",
        "type": "t_bool"
      },
      {
        "astId": 32389,
        "contract": "src/v2/NFTXVaultUpgradeable.sol:NFTXVaultUpgradeable",
        "label": "allowAllItems",
        "offset": 1,
        "slot": "260",
        "type": "t_bool"
      },
      {
        "astId": 32392,
        "contract": "src/v2/NFTXVaultUpgradeable.sol:NFTXVaultUpgradeable",
        "label": "enableMint",
        "offset": 2,
        "slot": "260",
        "type": "t_bool"
      },
      {
        "astId": 32394,
        "contract": "src/v2/NFTXVaultUpgradeable.sol:NFTXVaultUpgradeable",
        "label": "UNUSED_FEE5",
        "offset": 3,
        "slot": "260",
        "type": "t_bool"
      },
      {
        "astId": 32396,
        "contract": "src/v2/NFTXVaultUpgradeable.sol:NFTXVaultUpgradeable",
        "label": "UNUSED_FEE6",
        "offset": 4,
        "slot": "260",
        "type": "t_bool"
      },
      {
        "astId": 32399,
        "contract": "src/v2/NFTXVaultUpgradeable.sol:NFTXVaultUpgradeable",
        "label": "holdings",
        "offset": 0,
        "slot": "261",
        "type": "t_struct(UintSet)43169_storage"
      },
      {
        "astId": 32403,
        "contract": "src/v2/NFTXVaultUpgradeable.sol:NFTXVaultUpgradeable",
        "label": "quantity1155",
        "offset": 0,
        "slot": "263",
        "type": "t_mapping(t_uint256,t_uint256)"
      },
      {
        "astId": 32405,
        "contract": "src/v2/NFTXVaultUpgradeable.sol:NFTXVaultUpgradeable",
        "label": "UNUSED_FEE7",
        "offset": 0,
        "slot": "264",
        "type": "t_bool"
      },
      {
        "astId": 32407,
        "contract": "src/v2/NFTXVaultUpgradeable.sol:NFTXVaultUpgradeable",
        "label": "UNUSED_FEE8",
        "offset": 1,
        "slot": "264",
        "type": "t_bool"
      },
      {
        "astId": 32411,
        "contract": "src/v2/NFTXVaultUpgradeable.sol:NFTXVaultUpgradeable",
        "label": "tokenDepositedAt",
        "offset": 0,
        "slot": "265",
        "type": "t_mapping(t_uint256,t_uint256)"
      }
    ],
    "types": {
      "t_address": {
        "encoding": "inplace",
        "label": "address",
        "numberOfBytes": "20"
      },
      "t_array(t_bytes32)dyn_storage": {
        "base": "t_bytes32",
        "encoding": "dynamic_array",
        "label": "bytes32[]",
        "numberOfBytes": "32"
      },
      "t_array(t_uint256)45_storage": {
        "base": "t_uint256",
        "encoding": "inplace",
        "label": "uint256[45]",
        "numberOfBytes": "1440"
      },
      "t_array(t_uint256)49_storage": {
        "base": "t_uint256",
        "encoding": "inplace",
        "label": "uint256[49]",
        "numberOfBytes": "1568"
      },
      "t_array(t_uint256)50_storage": {
        "base": "t_uint256",
        "encoding": "inplace",
        "label": "uint256[50]",
        "numberOfBytes": "1600"
      },
      "t_bool": {
        "encoding": "inplace",
        "label": "bool",
        "numberOfBytes": "1"
      },
      "t_bytes32": {
        "encoding": "inplace",
        "label": "bytes32",
        "numberOfBytes": "32"
      },
      "t_contract(INFTXEligibility)36097": {
        "encoding": "inplace",
        "label": "contract INFTXEligibility",
        "numberOfBytes": "20"
      },
      "t_contract(INFTXVaultFactory)37185": {
        "encoding": "inplace",
        "label": "contract INFTXVaultFactory",
        "numberOfBytes": "20"
      },
      "t_mapping(t_address,t_mapping(t_address,t_uint256))": {
        "encoding": "mapping",
        "key": "t_address",
        "label": "mapping(address => mapping(address => uint256))",
        "numberOfBytes": "32",
        "value": "t_mapping(t_address,t_uint256)"
      },
      "t_mapping(t_address,t_uint256)": {
        "encoding": "mapping",
        "key": "t_address",
        "label": "mapping(address => uint256)",
        "numberOfBytes": "32",
        "value": "t_uint256"
      },
      "t_mapping(t_bytes32,t_uint256)": {
        "encoding": "mapping",
        "key": "t_bytes32",
        "label": "mapping(bytes32 => uint256)",
        "numberOfBytes": "32",
        "value": "t_uint256"
      },
      "t_mapping(t_uint256,t_uint256)": {
        "encoding": "mapping",
        "key": "t_uint256",
        "label": "mapping(uint256 => uint256)",
        "numberOfBytes": "32",
        "value": "t_uint256"
      },
      "t_string_storage": {
        "encoding": "bytes",
        "label": "string",
        "numberOfBytes": "32"
      },
      "t_struct(Set)42771_storage": {
        "encoding": "inplace",
        "label": "struct EnumerableSetUpgradeable.Set",
        "members": [
          {
            "astId": 42766,
            "contract": "src/v2/NFTXVaultUpgradeable.sol:NFTXVaultUpgradeable",
            "label": "_values",
            "offset": 0,
            "slot": "0",
            "type": "t_array(t_bytes32)dyn_storage"
          },
          {
            "astId": 42770,
            "contract": "src/v2/NFTXVaultUpgradeable.sol:NFTXVaultUpgradeable",
            "label": "_indexes",
            "offset": 0,
            "slot": "1",
            "type": "t_mapping(t_bytes32,t_uint256)"
          }
        ],
        "numberOfBytes": "64"
      },
      "t_struct(UintSet)43169_storage": {
        "encoding": "inplace",
        "label": "struct EnumerableSetUpgradeable.UintSet",
        "members": [
          {
            "astId": 43168,
            "contract": "src/v2/NFTXVaultUpgradeable.sol:NFTXVaultUpgradeable",
            "label": "_inner",
            "offset": 0,
            "slot": "0",
            "type": "t_struct(Set)42771_storage"
          }
        ],
        "numberOfBytes": "64"
      },
      "t_uint256": {
        "encoding": "inplace",
        "label": "uint256",
        "numberOfBytes": "32"
      }
    }
  }
}