{
  "address": "0x7a2dF02C818E1234DF54E34916e3f6E369D6f1C1",
  "abi": [
    {
      "inputs": [
        {
          "internalType": "contract INFTXInventoryStakingV3",
          "name": "inventoryStaking_",
          "type": "address"
        },
        {
          "internalType": "contract INFTXRouter",
          "name": "nftxRouter_",
          "type": "address"
        },
        {
          "internalType": "address",
          "name": "treasury_",
          "type": "address"
        }
      ],
      "stateMutability": "nonpayable",
      "type": "constructor"
    },
    {
      "inputs": [],
      "name": "AddressIsZero",
      "type": "error"
    },
    {
      "inputs": [],
      "name": "IdOutOfBounds",
      "type": "error"
    },
    {
      "anonymous": false,
      "inputs": [
        {
          "indexed": false,
          "internalType": "address",
          "name": "receiver",
          "type": "address"
        },
        {
          "indexed": false,
          "internalType": "uint256",
          "name": "allocPoint",
          "type": "uint256"
        }
      ],
      "name": "AddFeeReceiver",
      "type": "event"
    },
    {
      "anonymous": false,
      "inputs": [
        {
          "indexed": true,
          "internalType": "address",
          "name": "previousOwner",
          "type": "address"
        },
        {
          "indexed": true,
          "internalType": "address",
          "name": "newOwner",
          "type": "address"
        }
      ],
      "name": "OwnershipTransferred",
      "type": "event"
    },
    {
      "anonymous": false,
      "inputs": [
        {
          "indexed": false,
          "internalType": "bool",
          "name": "paused",
          "type": "bool"
        }
      ],
      "name": "PauseDistribution",
      "type": "event"
    },
    {
      "anonymous": false,
      "inputs": [
        {
          "indexed": false,
          "internalType": "address",
          "name": "receiver",
          "type": "address"
        }
      ],
      "name": "RemoveFeeReceiver",
      "type": "event"
    },
    {
      "anonymous": false,
      "inputs": [
        {
          "indexed": false,
          "internalType": "address",
          "name": "oldReceiver",
          "type": "address"
        },
        {
          "indexed": false,
          "internalType": "address",
          "name": "newReceiver",
          "type": "address"
        }
      ],
      "name": "UpdateFeeReceiverAddress",
      "type": "event"
    },
    {
      "anonymous": false,
      "inputs": [
        {
          "indexed": false,
          "internalType": "address",
          "name": "receiver",
          "type": "address"
        },
        {
          "indexed": false,
          "internalType": "uint256",
          "name": "allocPoint",
          "type": "uint256"
        }
      ],
      "name": "UpdateFeeReceiverAlloc",
      "type": "event"
    },
    {
      "anonymous": false,
      "inputs": [
        {
          "indexed": false,
          "internalType": "address",
          "name": "newTreasury",
          "type": "address"
        }
      ],
      "name": "UpdateTreasuryAddress",
      "type": "event"
    },
    {
      "inputs": [],
      "name": "REWARD_FEE_TIER",
      "outputs": [
        {
          "internalType": "uint24",
          "name": "",
          "type": "uint24"
        }
      ],
      "stateMutability": "view",
      "type": "function"
    },
    {
      "inputs": [],
      "name": "WETH",
      "outputs": [
        {
          "internalType": "contract IERC20",
          "name": "",
          "type": "address"
        }
      ],
      "stateMutability": "view",
      "type": "function"
    },
    {
      "inputs": [
        {
          "internalType": "address",
          "name": "receiver",
          "type": "address"
        },
        {
          "internalType": "uint256",
          "name": "allocPoint",
          "type": "uint256"
        },
        {
          "internalType": "enum INFTXFeeDistributorV3.ReceiverType",
          "name": "receiverType",
          "type": "uint8"
        }
      ],
      "name": "addReceiver",
      "outputs": [],
      "stateMutability": "nonpayable",
      "type": "function"
    },
    {
      "inputs": [],
      "name": "allocTotal",
      "outputs": [
        {
          "internalType": "uint256",
          "name": "",
          "type": "uint256"
        }
      ],
      "stateMutability": "view",
      "type": "function"
    },
    {
      "inputs": [
        {
          "internalType": "uint256",
          "name": "receiverId",
          "type": "uint256"
        },
        {
          "internalType": "address",
          "name": "receiver",
          "type": "address"
        },
        {
          "internalType": "enum INFTXFeeDistributorV3.ReceiverType",
          "name": "receiverType",
          "type": "uint8"
        }
      ],
      "name": "changeReceiverAddress",
      "outputs": [],
      "stateMutability": "nonpayable",
      "type": "function"
    },
    {
      "inputs": [
        {
          "internalType": "uint256",
          "name": "receiverId",
          "type": "uint256"
        },
        {
          "internalType": "uint256",
          "name": "allocPoint",
          "type": "uint256"
        }
      ],
      "name": "changeReceiverAlloc",
      "outputs": [],
      "stateMutability": "nonpayable",
      "type": "function"
    },
    {
      "inputs": [
        {
          "internalType": "uint256",
          "name": "vaultId",
          "type": "uint256"
        }
      ],
      "name": "distribute",
      "outputs": [],
      "stateMutability": "nonpayable",
      "type": "function"
    },
    {
      "inputs": [],
      "name": "distributionPaused",
      "outputs": [
        {
          "internalType": "bool",
          "name": "",
          "type": "bool"
        }
      ],
      "stateMutability": "view",
      "type": "function"
    },
    {
      "inputs": [
        {
          "internalType": "uint256",
          "name": "",
          "type": "uint256"
        }
      ],
      "name": "feeReceivers",
      "outputs": [
        {
          "internalType": "address",
          "name": "receiver",
          "type": "address"
        },
        {
          "internalType": "uint256",
          "name": "allocPoint",
          "type": "uint256"
        },
        {
          "internalType": "enum INFTXFeeDistributorV3.ReceiverType",
          "name": "receiverType",
          "type": "uint8"
        }
      ],
      "stateMutability": "view",
      "type": "function"
    },
    {
      "inputs": [
        {
          "internalType": "uint256",
          "name": "vaultId",
          "type": "uint256"
        }
      ],
      "name": "initializeVaultReceivers",
      "outputs": [],
      "stateMutability": "nonpayable",
      "type": "function"
    },
    {
      "inputs": [],
      "name": "inventoryStaking",
      "outputs": [
        {
          "internalType": "contract INFTXInventoryStakingV3",
          "name": "",
          "type": "address"
        }
      ],
      "stateMutability": "view",
      "type": "function"
    },
    {
      "inputs": [],
      "name": "nftxRouter",
      "outputs": [
        {
          "internalType": "contract INFTXRouter",
          "name": "",
          "type": "address"
        }
      ],
      "stateMutability": "view",
      "type": "function"
    },
    {
      "inputs": [],
      "name": "nftxVaultFactory",
      "outputs": [
        {
          "internalType": "contract INFTXVaultFactory",
          "name": "",
          "type": "address"
        }
      ],
      "stateMutability": "view",
      "type": "function"
    },
    {
      "inputs": [],
      "name": "owner",
      "outputs": [
        {
          "internalType": "address",
          "name": "",
          "type": "address"
        }
      ],
      "stateMutability": "view",
      "type": "function"
    },
    {
      "inputs": [
        {
          "internalType": "bool",
          "name": "pause",
          "type": "bool"
        }
      ],
      "name": "pauseFeeDistribution",
      "outputs": [],
      "stateMutability": "nonpayable",
      "type": "function"
    },
    {
      "inputs": [
        {
          "internalType": "uint256",
          "name": "receiverId",
          "type": "uint256"
        }
      ],
      "name": "removeReceiver",
      "outputs": [],
      "stateMutability": "nonpayable",
      "type": "function"
    },
    {
      "inputs": [],
      "name": "renounceOwnership",
      "outputs": [],
      "stateMutability": "nonpayable",
      "type": "function"
    },
    {
      "inputs": [
        {
          "internalType": "contract IERC20",
          "name": "token",
          "type": "address"
        }
      ],
      "name": "rescueTokens",
      "outputs": [],
      "stateMutability": "nonpayable",
      "type": "function"
    },
    {
      "inputs": [
        {
          "internalType": "address",
          "name": "treasury_",
          "type": "address"
        }
      ],
      "name": "setTreasuryAddress",
      "outputs": [],
      "stateMutability": "nonpayable",
      "type": "function"
    },
    {
      "inputs": [
        {
          "internalType": "address",
          "name": "newOwner",
          "type": "address"
        }
      ],
      "name": "transferOwnership",
      "outputs": [],
      "stateMutability": "nonpayable",
      "type": "function"
    },
    {
      "inputs": [],
      "name": "treasury",
      "outputs": [
        {
          "internalType": "address",
          "name": "",
          "type": "address"
        }
      ],
      "stateMutability": "view",
      "type": "function"
    }
  ],
  "transactionHash": "0x1ff2790edb57f05cbd0481d85f6e8de249b93577d0e09e9d41dca47a42467f36",
  "args": [
    "0xF8ac4aE079DB547D0f4e7f145E0AdFc79B9a7eD2",
    "0xDe3324e86a5FFA94773d80Ce010f5B97e330170e",
    "0x000000000000000000000000000000000000dEaD"
  ],
  "numDeployments": 2,
  "solcInputHash": "38b3870e801b2a622508b25f9b53a5a3",
  "bytecode": "0x60e06040523480156200001157600080fd5b50604051620020ae380380620020ae833981016040819052620000349162000356565b6200003f336200017c565b60018081905550826001600160a01b0316633801daf16040518163ffffffff1660e01b8152600401602060405180830381865afa15801562000085573d6000803e3d6000fd5b505050506040513d601f19601f82011682018060405250810190620000ab9190620003aa565b6001600160a01b0390811660805283811660a052604080516315ab88c960e31b815290519184169163ad5c46489160048082019260209290919082900301816000875af115801562000101573d6000803e3d6000fd5b505050506040513d601f19601f82011682018060405250810190620001279190620003aa565b6001600160a01b0390811660c052600280546001600160a01b03199081168584161790915560038054909116918316919091179055620001736000670b1a2bc2ec5000006001620001cc565b5050506200040e565b600080546001600160a01b038381166001600160a01b0319831681178455604051919092169283917f8be0079c531659141344cd1fd0a4f28419497f9722a3daafe3b4186f6b6457e09190a35050565b60006040518060600160405280856001600160a01b03168152602001848152602001836002811115620002035762000203620003d1565b9052600580546001808201835560009290925282517f036b6384b5eca791c62761152d0c79bb0604c104a5fb6f4eb0703f3154bb3db0600390920291820180546001600160a01b0319166001600160a01b0390921691909117815560208401517f036b6384b5eca791c62761152d0c79bb0604c104a5fb6f4eb0703f3154bb3db183015560408401517f036b6384b5eca791c62761152d0c79bb0604c104a5fb6f4eb0703f3154bb3db2909201805494955085949193909160ff191690836002811115620002d557620002d5620003d1565b021790555050508260046000828254620002f09190620003e7565b9091555050604080516001600160a01b0386168152602081018590527f555ceefe9e17f4ae5f15e17c385a8eb55c46bddb25897aeabadcda1815dd5a75910160405180910390a150505050565b6001600160a01b03811681146200035357600080fd5b50565b6000806000606084860312156200036c57600080fd5b835162000379816200033d565b60208501519093506200038c816200033d565b60408501519092506200039f816200033d565b809150509250925092565b600060208284031215620003bd57600080fd5b8151620003ca816200033d565b9392505050565b634e487b7160e01b600052602160045260246000fd5b600082198211156200040957634e487b7160e01b600052601160045260246000fd5b500190565b60805160a05160c051611c2a6200048460003960008181610311015281816107b50152818161086201528181610995015281816111a20152818161132d0152818161162001526116be0152600081816102a001528181610467015261105b01526000818161020c015261071f0152611c2a6000f3fe608060405234801561001057600080fd5b50600436106101765760003560e01c8063715018a6116100d8578063aa4630651161008c578063b59bef6011610066578063b59bef6014610346578063daf4761814610359578063f2fde38b1461036c57600080fd5b8063aa463065146102f9578063ad5c46481461030c578063af0568471461033357600080fd5b80638c0fd23d116100bd5780638c0fd23d146102c25780638da5cb5b146102d557806391c05b0b146102e657600080fd5b8063715018a61461029357806374a1b0b01461029b57600080fd5b80633801daf11161012f5780635b381760116101145780635b3817601461024b57806361d027b31461026d5780636605bfda1461028057600080fd5b80633801daf1146102075780634912300d1461022e57600080fd5b806319d3d2a41161016057806319d3d2a4146101ac5780631eae8f91146101bf5780632bbfb868146101ea57600080fd5b8062ae3bf81461017b5780630813195114610190575b600080fd5b61018e6101893660046118e0565b61037f565b005b61019960045481565b6040519081526020015b60405180910390f35b61018e6101ba3660046118fd565b610451565b6002546101d2906001600160a01b031681565b6040516001600160a01b0390911681526020016101a3565b6101f361271081565b60405162ffffff90911681526020016101a3565b6101d27f000000000000000000000000000000000000000000000000000000000000000081565b60065461023b9060ff1681565b60405190151581526020016101a3565b61025e6102593660046118fd565b6104ce565b6040516101a39392919061192c565b6003546101d2906001600160a01b031681565b61018e61028e3660046118e0565b61050e565b61018e6105d2565b6101d27f000000000000000000000000000000000000000000000000000000000000000081565b61018e6102d036600461197d565b610626565b6000546001600160a01b03166101d2565b61018e6102f43660046118fd565b6106af565b61018e61030736600461199a565b610a11565b6101d27f000000000000000000000000000000000000000000000000000000000000000081565b61018e6103413660046118fd565b610b26565b61018e6103543660046119d0565b610d23565b61018e610367366004611a0e565b610e26565b61018e61037a3660046118e0565b610e7e565b6000546001600160a01b031633146103cc5760405162461bcd60e51b81526020600482018190526024820152600080516020611bfe83398151915260448201526064015b60405180910390fd5b6040516370a0823160e01b81523060048201526000906001600160a01b038316906370a0823190602401602060405180830381865afa158015610413573d6000803e3d6000fd5b505050506040513d601f19601f820116820180604052508101906104379190611a43565b905061044d6001600160a01b0383163383610f4e565b5050565b60405163f0f2a4d760e01b8152600481018290527f00000000000000000000000000000000000000000000000000000000000000006001600160a01b03169063f0f2a4d790602401600060405180830381600087803b1580156104b357600080fd5b505af11580156104c7573d6000803e3d6000fd5b5050505050565b600581815481106104de57600080fd5b60009182526020909120600390910201805460018201546002909201546001600160a01b03909116925060ff1683565b6000546001600160a01b031633146105565760405162461bcd60e51b81526020600482018190526024820152600080516020611bfe83398151915260448201526064016103c3565b6001600160a01b03811661057d5760405163867915ab60e01b815260040160405180910390fd5b600380546001600160a01b0319166001600160a01b0383169081179091556040519081527f30d36c1dd67e2019526263df539f65050c3b537a6acf65766b5da7de7128cf36906020015b60405180910390a150565b6000546001600160a01b0316331461061a5760405162461bcd60e51b81526020600482018190526024820152600080516020611bfe83398151915260448201526064016103c3565b6106246000610fb5565b565b6000546001600160a01b0316331461066e5760405162461bcd60e51b81526020600482018190526024820152600080516020611bfe83398151915260448201526064016103c3565b6006805460ff19168215159081179091556040519081527fb008f183388020de01fd4365e295aa904b691f98e63fd033f74f75273b6b285f906020016105c7565b6002600154036107015760405162461bcd60e51b815260206004820152601f60248201527f5265656e7472616e637947756172643a207265656e7472616e742063616c6c0060448201526064016103c3565b60026001556040516340d1b7db60e11b8152600481018290526000907f00000000000000000000000000000000000000000000000000000000000000006001600160a01b0316906381a36fb690602401602060405180830381865afa15801561076e573d6000803e3d6000fd5b505050506040513d601f19601f820116820180604052508101906107929190611a5c565b6040516370a0823160e01b81523060048201529091506000906001600160a01b037f000000000000000000000000000000000000000000000000000000000000000016906370a0823190602401602060405180830381865afa1580156107fc573d6000803e3d6000fd5b505050506040513d601f19601f820116820180604052508101906108209190611a43565b60065490915060ff16806108345750600454155b156108d95760035460405163a9059cbb60e01b81526001600160a01b039182166004820152602481018390527f00000000000000000000000000000000000000000000000000000000000000009091169063a9059cbb906044016020604051808303816000875af11580156108ad573d6000803e3d6000fd5b505050506040513d601f19601f820116820180604052508101906108d19190611a79565b505050610a0a565b6000805b600554811015610965576000600582815481106108fc576108fc611a96565b9060005260206000209060030201905060006004548260010154866109219190611ac2565b61092b9190611ae1565b6109359085611b03565b9050600061094583838a8a611005565b9050806109525781610955565b60005b94508360010193505050506108dd565b508015610a065760035460405163a9059cbb60e01b81526001600160a01b039182166004820152602481018390527f00000000000000000000000000000000000000000000000000000000000000009091169063a9059cbb906044016020604051808303816000875af11580156109e0573d6000803e3d6000fd5b505050506040513d601f19601f82011682018060405250810190610a049190611a79565b505b5050505b5060018055565b6000546001600160a01b03163314610a595760405162461bcd60e51b81526020600482018190526024820152600080516020611bfe83398151915260448201526064016103c3565b6005548210610a7b576040516374095be360e11b815260040160405180910390fd5b600060058381548110610a9057610a90611a96565b90600052602060002090600302019050806001015460046000828254610ab69190611b1b565b90915550506001810182905560048054839190600090610ad7908490611b03565b90915550508054604080516001600160a01b039092168252602082018490527fbf9a378b372297e179e435cdca3b5215960b36e3489288832cbdc7f323ff987d910160405180910390a1505050565b6000546001600160a01b03163314610b6e5760405162461bcd60e51b81526020600482018190526024820152600080516020611bfe83398151915260448201526064016103c3565b600554808210610b91576040516374095be360e11b815260040160405180910390fd5b7fef79c7490a6b7ae3d254565a3bdf2a58d73afe9877306e1c74121209a552702160058381548110610bc557610bc5611a96565b6000918252602091829020600390910201546040516001600160a01b0390911681520160405180910390a160058281548110610c0357610c03611a96565b90600052602060002090600302016001015460046000828254610c269190611b1b565b9091555060059050610c39600183611b1b565b81548110610c4957610c49611a96565b906000526020600020906003020160058381548110610c6a57610c6a611a96565b60009182526020909120825460039092020180546001600160a01b0319166001600160a01b0390921691909117815560018083015481830155600280840154818401805460ff90921693909260ff19909216918490811115610cce57610cce611916565b02179055509050506005805480610ce757610ce7611b32565b60008281526020812060036000199093019283020180546001600160a01b03191681556001810191909155600201805460ff1916905590555050565b6000546001600160a01b03163314610d6b5760405162461bcd60e51b81526020600482018190526024820152600080516020611bfe83398151915260448201526064016103c3565b600060058481548110610d8057610d80611a96565b6000918252602090912060039091020180546001600160a01b038581166001600160a01b03198316178355600280840180549495509190921692859260ff19909116906001908490811115610dd757610dd7611916565b0217905550604080516001600160a01b038084168252861660208201527f466bf064fd123a99d87cf265d40a3335a650757a2a5ece87ce6f888419f56d32910160405180910390a15050505050565b6000546001600160a01b03163314610e6e5760405162461bcd60e51b81526020600482018190526024820152600080516020611bfe83398151915260448201526064016103c3565b610e798383836113aa565b505050565b6000546001600160a01b03163314610ec65760405162461bcd60e51b81526020600482018190526024820152600080516020611bfe83398151915260448201526064016103c3565b6001600160a01b038116610f425760405162461bcd60e51b815260206004820152602660248201527f4f776e61626c653a206e6577206f776e657220697320746865207a65726f206160448201527f646472657373000000000000000000000000000000000000000000000000000060648201526084016103c3565b610f4b81610fb5565b50565b604080516001600160a01b038416602482015260448082018490528251808303909101815260649091019091526020810180517bffffffffffffffffffffffffffffffffffffffffffffffffffffffff1663a9059cbb60e01b179052610e79908490611513565b600080546001600160a01b038381166001600160a01b0319831681178455604051919092169283917f8be0079c531659141344cd1fd0a4f28419497f9722a3daafe3b4186f6b6457e09190a35050565b60008060028087015460ff169081111561102157611021611916565b036110d957845461103b906001600160a01b0316856115f8565b6040516379b6a96d60e11b815260048101849052602481018590526000907f00000000000000000000000000000000000000000000000000000000000000006001600160a01b03169063f36d52da906044016020604051808303816000875af11580156110ac573d6000803e3d6000fd5b505050506040513d601f19601f820116820180604052508101906110d09190611a79565b91506113a29050565b600160028087015460ff16908111156110f4576110f4611916565b0361130557600254604051630280518760e11b815260048101859052612710602482015260009182916001600160a01b0390911690630500a30e906044016040805180830381865afa15801561114e573d6000803e3d6000fd5b505050506040513d601f19601f820116820180604052508101906111729190611b48565b9150915080156112fe5760405163a9059cbb60e01b81526001600160a01b038381166004830152602482018890527f0000000000000000000000000000000000000000000000000000000000000000169063a9059cbb906044016020604051808303816000875af11580156111eb573d6000803e3d6000fd5b505050506040513d601f19601f8201168201806040525081019061120f9190611a79565b50600254604051637c99719560e11b81526001600160a01b03868116600483015284811692637b4beb21928a929091169063f932e32a90602401602060405180830381865afa158015611266573d6000803e3d6000fd5b505050506040513d601f19601f8201168201806040525081019061128a9190611a79565b6040517fffffffff0000000000000000000000000000000000000000000000000000000060e085901b1681526004810192909252156024820152604401600060405180830381600087803b1580156112e157600080fd5b505af11580156112f5573d6000803e3d6000fd5b50505050600192505b50506113a2565b845460405163a9059cbb60e01b81526001600160a01b039182166004820152602481018690527f00000000000000000000000000000000000000000000000000000000000000009091169063a9059cbb906044016020604051808303816000875af1158015611378573d6000803e3d6000fd5b505050506040513d601f19601f8201168201806040525081019061139c9190611a79565b50600190505b949350505050565b60006040518060600160405280856001600160a01b031681526020018481526020018360028111156113de576113de611916565b9052600580546001808201835560009290925282517f036b6384b5eca791c62761152d0c79bb0604c104a5fb6f4eb0703f3154bb3db0600390920291820180546001600160a01b0319166001600160a01b0390921691909117815560208401517f036b6384b5eca791c62761152d0c79bb0604c104a5fb6f4eb0703f3154bb3db183015560408401517f036b6384b5eca791c62761152d0c79bb0604c104a5fb6f4eb0703f3154bb3db2909201805494955085949193909160ff1916908360028111156114ad576114ad611916565b0217905550505082600460008282546114c69190611b03565b9091555050604080516001600160a01b0386168152602081018590527f555ceefe9e17f4ae5f15e17c385a8eb55c46bddb25897aeabadcda1815dd5a75910160405180910390a150505050565b6000611568826040518060400160405280602081526020017f5361666545524332303a206c6f772d6c6576656c2063616c6c206661696c6564815250856001600160a01b03166117319092919063ffffffff16565b805190915015610e7957808060200190518101906115869190611a79565b610e795760405162461bcd60e51b815260206004820152602a60248201527f5361666545524332303a204552433230206f7065726174696f6e20646964206e60448201527f6f7420737563636565640000000000000000000000000000000000000000000060648201526084016103c3565b604051636eb1769f60e11b81523060048201526001600160a01b0383811660248301526000917f00000000000000000000000000000000000000000000000000000000000000009091169063dd62ed3e90604401602060405180830381865afa158015611669573d6000803e3d6000fd5b505050506040513d601f19601f8201168201806040525081019061168d9190611a43565b905080821115610e795760405163095ea7b360e01b81526001600160a01b03848116600483015260001960248301527f0000000000000000000000000000000000000000000000000000000000000000169063095ea7b3906044016020604051808303816000875af1158015611707573d6000803e3d6000fd5b505050506040513d601f19601f8201168201806040525081019061172b9190611a79565b50505050565b6060611740848460008561174a565b90505b9392505050565b6060824710156117c25760405162461bcd60e51b815260206004820152602660248201527f416464726573733a20696e73756666696369656e742062616c616e636520666f60448201527f722063616c6c000000000000000000000000000000000000000000000000000060648201526084016103c3565b6001600160a01b0385163b6118195760405162461bcd60e51b815260206004820152601d60248201527f416464726573733a2063616c6c20746f206e6f6e2d636f6e747261637400000060448201526064016103c3565b600080866001600160a01b031685876040516118359190611bae565b60006040518083038185875af1925050503d8060008114611872576040519150601f19603f3d011682016040523d82523d6000602084013e611877565b606091505b5091509150611887828286611892565b979650505050505050565b606083156118a1575081611743565b8251156118b15782518084602001fd5b8160405162461bcd60e51b81526004016103c39190611bca565b6001600160a01b0381168114610f4b57600080fd5b6000602082840312156118f257600080fd5b8135611743816118cb565b60006020828403121561190f57600080fd5b5035919050565b634e487b7160e01b600052602160045260246000fd5b6001600160a01b038416815260208101839052606081016003831061196157634e487b7160e01b600052602160045260246000fd5b826040830152949350505050565b8015158114610f4b57600080fd5b60006020828403121561198f57600080fd5b81356117438161196f565b600080604083850312156119ad57600080fd5b50508035926020909101359150565b8035600381106119cb57600080fd5b919050565b6000806000606084860312156119e557600080fd5b8335925060208401356119f7816118cb565b9150611a05604085016119bc565b90509250925092565b600080600060608486031215611a2357600080fd5b8335611a2e816118cb565b925060208401359150611a05604085016119bc565b600060208284031215611a5557600080fd5b5051919050565b600060208284031215611a6e57600080fd5b8151611743816118cb565b600060208284031215611a8b57600080fd5b81516117438161196f565b634e487b7160e01b600052603260045260246000fd5b634e487b7160e01b600052601160045260246000fd5b6000816000190483118215151615611adc57611adc611aac565b500290565b600082611afe57634e487b7160e01b600052601260045260246000fd5b500490565b60008219821115611b1657611b16611aac565b500190565b600082821015611b2d57611b2d611aac565b500390565b634e487b7160e01b600052603160045260246000fd5b60008060408385031215611b5b57600080fd5b8251611b66816118cb565b6020840151909250611b778161196f565b809150509250929050565b60005b83811015611b9d578181015183820152602001611b85565b8381111561172b5750506000910152565b60008251611bc0818460208701611b82565b9190910192915050565b6020815260008251806020840152611be9816040850160208701611b82565b601f01601f1916919091016040019291505056fe4f776e61626c653a2063616c6c6572206973206e6f7420746865206f776e6572a164736f6c634300080f000a",
  "devdoc": {
    "author": "@apoorvlathey",
    "kind": "dev",
    "methods": {
      "owner()": {
        "details": "Returns the address of the current owner."
      },
      "renounceOwnership()": {
        "details": "Leaves the contract without owner. It will not be possible to call `onlyOwner` functions anymore. Can only be called by the current owner. NOTE: Renouncing ownership will leave the contract without an owner, thereby removing any functionality that is only available to the owner."
      },
      "transferOwnership(address)": {
        "details": "Transfers ownership of the contract to a new account (`newOwner`). Can only be called by the current owner."
      }
    },
    "title": "NFTX Fee Distributor V3",
    "version": 1
  },
  "userdoc": {
    "kind": "user",
    "methods": {
      "distributionPaused()": {
        "notice": "// Overriding with the following functions doesn't work: function feeReceivers(uint256) external view returns ( address receiver, uint256 allocPoint, uint8 receiverType ); function feeReceivers(uint256) external view returns (FeeReceiver memory);"
      }
    },
    "notice": "Allows distribution of vault fees between multiple receivers including inventory stakers and NFTX AMM liquidity providers.",
    "version": 1
  },
  "storageLayout": {
    "storage": [
      {
        "astId": 7,
        "contract": "src/NFTXFeeDistributorV3.sol:NFTXFeeDistributorV3",
        "label": "_owner",
        "offset": 0,
        "slot": "0",
        "type": "t_address"
      },
      {
        "astId": 115,
        "contract": "src/NFTXFeeDistributorV3.sol:NFTXFeeDistributorV3",
        "label": "_status",
        "offset": 0,
        "slot": "1",
        "type": "t_uint256"
      },
      {
        "astId": 1324,
        "contract": "src/NFTXFeeDistributorV3.sol:NFTXFeeDistributorV3",
        "label": "nftxRouter",
        "offset": 0,
        "slot": "2",
        "type": "t_contract(INFTXRouter)3421"
      },
      {
        "astId": 1327,
        "contract": "src/NFTXFeeDistributorV3.sol:NFTXFeeDistributorV3",
        "label": "treasury",
        "offset": 0,
        "slot": "3",
        "type": "t_address"
      },
      {
        "astId": 1330,
        "contract": "src/NFTXFeeDistributorV3.sol:NFTXFeeDistributorV3",
        "label": "allocTotal",
        "offset": 0,
        "slot": "4",
        "type": "t_uint256"
      },
      {
        "astId": 1334,
        "contract": "src/NFTXFeeDistributorV3.sol:NFTXFeeDistributorV3",
        "label": "feeReceivers",
        "offset": 0,
        "slot": "5",
        "type": "t_array(t_struct(FeeReceiver)3053_storage)dyn_storage"
      },
      {
        "astId": 1337,
        "contract": "src/NFTXFeeDistributorV3.sol:NFTXFeeDistributorV3",
        "label": "distributionPaused",
        "offset": 0,
        "slot": "6",
        "type": "t_bool"
      }
    ],
    "types": {
      "t_address": {
        "encoding": "inplace",
        "label": "address",
        "numberOfBytes": "20"
      },
      "t_array(t_struct(FeeReceiver)3053_storage)dyn_storage": {
        "base": "t_struct(FeeReceiver)3053_storage",
        "encoding": "dynamic_array",
        "label": "struct INFTXFeeDistributorV3.FeeReceiver[]",
        "numberOfBytes": "32"
      },
      "t_bool": {
        "encoding": "inplace",
        "label": "bool",
        "numberOfBytes": "1"
      },
      "t_contract(INFTXRouter)3421": {
        "encoding": "inplace",
        "label": "contract INFTXRouter",
        "numberOfBytes": "20"
      },
      "t_enum(ReceiverType)3045": {
        "encoding": "inplace",
        "label": "enum INFTXFeeDistributorV3.ReceiverType",
        "numberOfBytes": "1"
      },
      "t_struct(FeeReceiver)3053_storage": {
        "encoding": "inplace",
        "label": "struct INFTXFeeDistributorV3.FeeReceiver",
        "members": [
          {
            "astId": 3047,
            "contract": "src/NFTXFeeDistributorV3.sol:NFTXFeeDistributorV3",
            "label": "receiver",
            "offset": 0,
            "slot": "0",
            "type": "t_address"
          },
          {
            "astId": 3049,
            "contract": "src/NFTXFeeDistributorV3.sol:NFTXFeeDistributorV3",
            "label": "allocPoint",
            "offset": 0,
            "slot": "1",
            "type": "t_uint256"
          },
          {
            "astId": 3052,
            "contract": "src/NFTXFeeDistributorV3.sol:NFTXFeeDistributorV3",
            "label": "receiverType",
            "offset": 0,
            "slot": "2",
            "type": "t_enum(ReceiverType)3045"
          }
        ],
        "numberOfBytes": "96"
      },
      "t_uint256": {
        "encoding": "inplace",
        "label": "uint256",
        "numberOfBytes": "32"
      }
    }
  }
}