{
  "address": "0x0EB33c14C9ea0bA13B23f75848632e0DF52A100e",
  "abi": [
    {
      "inputs": [
        {
          "internalType": "contract IWETH9",
          "name": "WETH_",
          "type": "address"
        }
      ],
      "stateMutability": "nonpayable",
      "type": "constructor"
    },
    {
      "inputs": [],
      "name": "EligibilityAlreadySet",
      "type": "error"
    },
    {
      "inputs": [],
      "name": "InsufficientETHSent",
      "type": "error"
    },
    {
      "inputs": [],
      "name": "MintingDisabled",
      "type": "error"
    },
    {
      "inputs": [],
      "name": "NFTAlreadyOwned",
      "type": "error"
    },
    {
      "inputs": [],
      "name": "NotEligible",
      "type": "error"
    },
    {
      "inputs": [],
      "name": "NotManager",
      "type": "error"
    },
    {
      "inputs": [],
      "name": "NotNFTOwner",
      "type": "error"
    },
    {
      "inputs": [],
      "name": "NotOwner",
      "type": "error"
    },
    {
      "inputs": [],
      "name": "Paused",
      "type": "error"
    },
    {
      "inputs": [],
      "name": "TokenLengthMismatch",
      "type": "error"
    },
    {
      "inputs": [],
      "name": "TransferAmountIsZero",
      "type": "error"
    },
    {
      "inputs": [],
      "name": "UnableToSendETH",
      "type": "error"
    },
    {
      "inputs": [],
      "name": "ZeroAddress",
      "type": "error"
    },
    {
      "anonymous": false,
      "inputs": [
        {
          "indexed": true,
          "internalType": "address",
          "name": "owner",
          "type": "address"
        },
        {
          "indexed": true,
          "internalType": "address",
          "name": "spender",
          "type": "address"
        },
        {
          "indexed": false,
          "internalType": "uint256",
          "name": "value",
          "type": "uint256"
        }
      ],
      "name": "Approval",
      "type": "event"
    },
    {
      "anonymous": false,
      "inputs": [
        {
          "indexed": false,
          "internalType": "uint256",
          "name": "moduleIndex",
          "type": "uint256"
        },
        {
          "indexed": false,
          "internalType": "address",
          "name": "eligibilityAddr",
          "type": "address"
        }
      ],
      "name": "EligibilityDeployed",
      "type": "event"
    },
    {
      "anonymous": false,
      "inputs": [
        {
          "indexed": false,
          "internalType": "bool",
          "name": "enabled",
          "type": "bool"
        }
      ],
      "name": "EnableMintUpdated",
      "type": "event"
    },
    {
      "anonymous": false,
      "inputs": [
        {
          "indexed": false,
          "internalType": "bool",
          "name": "enabled",
          "type": "bool"
        }
      ],
      "name": "EnableRedeemUpdated",
      "type": "event"
    },
    {
      "anonymous": false,
      "inputs": [
        {
          "indexed": false,
          "internalType": "bool",
          "name": "enabled",
          "type": "bool"
        }
      ],
      "name": "EnableSwapUpdated",
      "type": "event"
    },
    {
      "anonymous": false,
      "inputs": [
        {
          "indexed": false,
          "internalType": "uint8",
          "name": "version",
          "type": "uint8"
        }
      ],
      "name": "Initialized",
      "type": "event"
    },
    {
      "anonymous": false,
      "inputs": [
        {
          "indexed": false,
          "internalType": "address",
          "name": "manager",
          "type": "address"
        }
      ],
      "name": "ManagerSet",
      "type": "event"
    },
    {
      "anonymous": false,
      "inputs": [
        {
          "indexed": false,
          "internalType": "uint256[]",
          "name": "nftIds",
          "type": "uint256[]"
        },
        {
          "indexed": false,
          "internalType": "uint256[]",
          "name": "amounts",
          "type": "uint256[]"
        },
        {
          "indexed": false,
          "internalType": "address",
          "name": "to",
          "type": "address"
        }
      ],
      "name": "Minted",
      "type": "event"
    },
    {
      "anonymous": false,
      "inputs": [
        {
          "indexed": true,
          "internalType": "address",
          "name": "previousOwner",
          "type": "address"
        },
        {
          "indexed": true,
          "internalType": "address",
          "name": "newOwner",
          "type": "address"
        }
      ],
      "name": "OwnershipTransferred",
      "type": "event"
    },
    {
      "anonymous": false,
      "inputs": [
        {
          "indexed": false,
          "internalType": "uint256[]",
          "name": "specificIds",
          "type": "uint256[]"
        },
        {
          "indexed": false,
          "internalType": "address",
          "name": "to",
          "type": "address"
        }
      ],
      "name": "Redeemed",
      "type": "event"
    },
    {
      "anonymous": false,
      "inputs": [
        {
          "indexed": false,
          "internalType": "uint256[]",
          "name": "nftIds",
          "type": "uint256[]"
        },
        {
          "indexed": false,
          "internalType": "uint256[]",
          "name": "amounts",
          "type": "uint256[]"
        },
        {
          "indexed": false,
          "internalType": "uint256[]",
          "name": "specificIds",
          "type": "uint256[]"
        },
        {
          "indexed": false,
          "internalType": "address",
          "name": "to",
          "type": "address"
        }
      ],
      "name": "Swapped",
      "type": "event"
    },
    {
      "anonymous": false,
      "inputs": [
        {
          "indexed": true,
          "internalType": "address",
          "name": "from",
          "type": "address"
        },
        {
          "indexed": true,
          "internalType": "address",
          "name": "to",
          "type": "address"
        },
        {
          "indexed": false,
          "internalType": "uint256",
          "name": "value",
          "type": "uint256"
        }
      ],
      "name": "Transfer",
      "type": "event"
    },
    {
      "anonymous": false,
      "inputs": [
        {
          "indexed": true,
          "internalType": "uint256",
          "name": "vaultId",
          "type": "uint256"
        },
        {
          "indexed": false,
          "internalType": "address",
          "name": "assetAddress",
          "type": "address"
        },
        {
          "indexed": false,
          "internalType": "bool",
          "name": "is1155",
          "type": "bool"
        },
        {
          "indexed": false,
          "internalType": "bool",
          "name": "allowAllItems",
          "type": "bool"
        }
      ],
      "name": "VaultInit",
      "type": "event"
    },
    {
      "inputs": [],
      "name": "WETH",
      "outputs": [
        {
          "internalType": "contract IWETH9",
          "name": "",
          "type": "address"
        }
      ],
      "stateMutability": "view",
      "type": "function"
    },
    {
      "inputs": [
        {
          "internalType": "string",
          "name": "name_",
          "type": "string"
        },
        {
          "internalType": "string",
          "name": "symbol_",
          "type": "string"
        },
        {
          "internalType": "address",
          "name": "assetAddress_",
          "type": "address"
        },
        {
          "internalType": "bool",
          "name": "is1155_",
          "type": "bool"
        },
        {
          "internalType": "bool",
          "name": "allowAllItems_",
          "type": "bool"
        }
      ],
      "name": "__NFTXVault_init",
      "outputs": [],
      "stateMutability": "nonpayable",
      "type": "function"
    },
    {
      "inputs": [],
      "name": "allHoldings",
      "outputs": [
        {
          "internalType": "uint256[]",
          "name": "",
          "type": "uint256[]"
        }
      ],
      "stateMutability": "view",
      "type": "function"
    },
    {
      "inputs": [
        {
          "internalType": "uint256[]",
          "name": "tokenIds",
          "type": "uint256[]"
        }
      ],
      "name": "allValidNFTs",
      "outputs": [
        {
          "internalType": "bool",
          "name": "",
          "type": "bool"
        }
      ],
      "stateMutability": "view",
      "type": "function"
    },
    {
      "inputs": [],
      "name": "allowAllItems",
      "outputs": [
        {
          "internalType": "bool",
          "name": "",
          "type": "bool"
        }
      ],
      "stateMutability": "view",
      "type": "function"
    },
    {
      "inputs": [
        {
          "internalType": "address",
          "name": "owner",
          "type": "address"
        },
        {
          "internalType": "address",
          "name": "spender",
          "type": "address"
        }
      ],
      "name": "allowance",
      "outputs": [
        {
          "internalType": "uint256",
          "name": "",
          "type": "uint256"
        }
      ],
      "stateMutability": "view",
      "type": "function"
    },
    {
      "inputs": [
        {
          "internalType": "address",
          "name": "spender",
          "type": "address"
        },
        {
          "internalType": "uint256",
          "name": "amount",
          "type": "uint256"
        }
      ],
      "name": "approve",
      "outputs": [
        {
          "internalType": "bool",
          "name": "",
          "type": "bool"
        }
      ],
      "stateMutability": "nonpayable",
      "type": "function"
    },
    {
      "inputs": [],
      "name": "assetAddress",
      "outputs": [
        {
          "internalType": "address",
          "name": "",
          "type": "address"
        }
      ],
      "stateMutability": "view",
      "type": "function"
    },
    {
      "inputs": [
        {
          "internalType": "address",
          "name": "account",
          "type": "address"
        }
      ],
      "name": "balanceOf",
      "outputs": [
        {
          "internalType": "uint256",
          "name": "",
          "type": "uint256"
        }
      ],
      "stateMutability": "view",
      "type": "function"
    },
    {
      "inputs": [],
      "name": "decimals",
      "outputs": [
        {
          "internalType": "uint8",
          "name": "",
          "type": "uint8"
        }
      ],
      "stateMutability": "view",
      "type": "function"
    },
    {
      "inputs": [
        {
          "internalType": "address",
          "name": "spender",
          "type": "address"
        },
        {
          "internalType": "uint256",
          "name": "subtractedValue",
          "type": "uint256"
        }
      ],
      "name": "decreaseAllowance",
      "outputs": [
        {
          "internalType": "bool",
          "name": "",
          "type": "bool"
        }
      ],
      "stateMutability": "nonpayable",
      "type": "function"
    },
    {
      "inputs": [
        {
          "internalType": "uint256",
          "name": "moduleIndex",
          "type": "uint256"
        },
        {
          "internalType": "bytes",
          "name": "initData",
          "type": "bytes"
        }
      ],
      "name": "deployEligibilityStorage",
      "outputs": [
        {
          "internalType": "address",
          "name": "",
          "type": "address"
        }
      ],
      "stateMutability": "nonpayable",
      "type": "function"
    },
    {
      "inputs": [
        {
          "internalType": "uint256",
          "name": "",
          "type": "uint256"
        },
        {
          "internalType": "uint256",
          "name": "",
          "type": "uint256"
        }
      ],
      "name": "depositInfo1155",
      "outputs": [
        {
          "internalType": "uint256",
          "name": "qty",
          "type": "uint256"
        },
        {
          "internalType": "address",
          "name": "depositor",
          "type": "address"
        },
        {
          "internalType": "uint48",
          "name": "timestamp",
          "type": "uint48"
        }
      ],
      "stateMutability": "view",
      "type": "function"
    },
    {
      "inputs": [
        {
          "internalType": "uint256",
          "name": "tokenId",
          "type": "uint256"
        }
      ],
      "name": "depositInfo1155Length",
      "outputs": [
        {
          "internalType": "uint256",
          "name": "",
          "type": "uint256"
        }
      ],
      "stateMutability": "view",
      "type": "function"
    },
    {
      "inputs": [],
      "name": "disableVaultFees",
      "outputs": [],
      "stateMutability": "nonpayable",
      "type": "function"
    },
    {
      "inputs": [],
      "name": "eligibilityStorage",
      "outputs": [
        {
          "internalType": "contract INFTXEligibility",
          "name": "",
          "type": "address"
        }
      ],
      "stateMutability": "view",
      "type": "function"
    },
    {
      "inputs": [],
      "name": "enableMint",
      "outputs": [
        {
          "internalType": "bool",
          "name": "",
          "type": "bool"
        }
      ],
      "stateMutability": "view",
      "type": "function"
    },
    {
      "inputs": [],
      "name": "finalizeVault",
      "outputs": [],
      "stateMutability": "nonpayable",
      "type": "function"
    },
    {
      "inputs": [
        {
          "internalType": "address",
          "name": "token",
          "type": "address"
        },
        {
          "internalType": "uint256",
          "name": "amount",
          "type": "uint256"
        }
      ],
      "name": "flashFee",
      "outputs": [
        {
          "internalType": "uint256",
          "name": "",
          "type": "uint256"
        }
      ],
      "stateMutability": "view",
      "type": "function"
    },
    {
      "inputs": [
        {
          "internalType": "contract IERC3156FlashBorrowerUpgradeable",
          "name": "receiver",
          "type": "address"
        },
        {
          "internalType": "address",
          "name": "token",
          "type": "address"
        },
        {
          "internalType": "uint256",
          "name": "amount",
          "type": "uint256"
        },
        {
          "internalType": "bytes",
          "name": "data",
          "type": "bytes"
        }
      ],
      "name": "flashLoan",
      "outputs": [
        {
          "internalType": "bool",
          "name": "",
          "type": "bool"
        }
      ],
      "stateMutability": "nonpayable",
      "type": "function"
    },
    {
      "inputs": [
        {
          "internalType": "uint256",
          "name": "tokenId",
          "type": "uint256"
        },
        {
          "internalType": "uint256",
          "name": "amount",
          "type": "uint256"
        }
      ],
      "name": "getVTokenPremium1155",
      "outputs": [
        {
          "internalType": "uint256",
          "name": "netPremium",
          "type": "uint256"
        },
        {
          "internalType": "uint256[]",
          "name": "premiums",
          "type": "uint256[]"
        },
        {
          "internalType": "address[]",
          "name": "depositors",
          "type": "address[]"
        }
      ],
      "stateMutability": "view",
      "type": "function"
    },
    {
      "inputs": [
        {
          "internalType": "uint256",
          "name": "tokenId",
          "type": "uint256"
        }
      ],
      "name": "getVTokenPremium721",
      "outputs": [
        {
          "internalType": "uint256",
          "name": "premium",
          "type": "uint256"
        },
        {
          "internalType": "address",
          "name": "depositor",
          "type": "address"
        }
      ],
      "stateMutability": "view",
      "type": "function"
    },
    {
      "inputs": [
        {
          "internalType": "address",
          "name": "spender",
          "type": "address"
        },
        {
          "internalType": "uint256",
          "name": "addedValue",
          "type": "uint256"
        }
      ],
      "name": "increaseAllowance",
      "outputs": [
        {
          "internalType": "bool",
          "name": "",
          "type": "bool"
        }
      ],
      "stateMutability": "nonpayable",
      "type": "function"
    },
    {
      "inputs": [],
      "name": "is1155",
      "outputs": [
        {
          "internalType": "bool",
          "name": "",
          "type": "bool"
        }
      ],
      "stateMutability": "view",
      "type": "function"
    },
    {
      "inputs": [],
      "name": "manager",
      "outputs": [
        {
          "internalType": "address",
          "name": "",
          "type": "address"
        }
      ],
      "stateMutability": "view",
      "type": "function"
    },
    {
      "inputs": [
        {
          "internalType": "address",
          "name": "token",
          "type": "address"
        }
      ],
      "name": "maxFlashLoan",
      "outputs": [
        {
          "internalType": "uint256",
          "name": "",
          "type": "uint256"
        }
      ],
      "stateMutability": "view",
      "type": "function"
    },
    {
      "inputs": [
        {
          "internalType": "uint256[]",
          "name": "tokenIds",
          "type": "uint256[]"
        },
        {
          "internalType": "uint256[]",
          "name": "amounts",
          "type": "uint256[]"
        },
        {
          "internalType": "address",
          "name": "to",
          "type": "address"
        }
      ],
      "name": "mint",
      "outputs": [
        {
          "internalType": "uint256",
          "name": "vTokensMinted",
          "type": "uint256"
        }
      ],
      "stateMutability": "payable",
      "type": "function"
    },
    {
      "inputs": [],
      "name": "name",
      "outputs": [
        {
          "internalType": "string",
          "name": "",
          "type": "string"
        }
      ],
      "stateMutability": "view",
      "type": "function"
    },
    {
      "inputs": [
        {
          "internalType": "uint256",
          "name": "holdingsIndex",
          "type": "uint256"
        }
      ],
      "name": "nftIdAt",
      "outputs": [
        {
          "internalType": "uint256",
          "name": "",
          "type": "uint256"
        }
      ],
      "stateMutability": "view",
      "type": "function"
    },
    {
      "inputs": [
        {
          "internalType": "address",
          "name": "",
          "type": "address"
        },
        {
          "internalType": "address",
          "name": "",
          "type": "address"
        },
        {
          "internalType": "uint256[]",
          "name": "",
          "type": "uint256[]"
        },
        {
          "internalType": "uint256[]",
          "name": "",
          "type": "uint256[]"
        },
        {
          "internalType": "bytes",
          "name": "",
          "type": "bytes"
        }
      ],
      "name": "onERC1155BatchReceived",
      "outputs": [
        {
          "internalType": "bytes4",
          "name": "",
          "type": "bytes4"
        }
      ],
      "stateMutability": "nonpayable",
      "type": "function"
    },
    {
      "inputs": [
        {
          "internalType": "address",
          "name": "",
          "type": "address"
        },
        {
          "internalType": "address",
          "name": "",
          "type": "address"
        },
        {
          "internalType": "uint256",
          "name": "",
          "type": "uint256"
        },
        {
          "internalType": "uint256",
          "name": "",
          "type": "uint256"
        },
        {
          "internalType": "bytes",
          "name": "",
          "type": "bytes"
        }
      ],
      "name": "onERC1155Received",
      "outputs": [
        {
          "internalType": "bytes4",
          "name": "",
          "type": "bytes4"
        }
      ],
      "stateMutability": "nonpayable",
      "type": "function"
    },
    {
      "inputs": [
        {
          "internalType": "address",
          "name": "",
          "type": "address"
        },
        {
          "internalType": "address",
          "name": "",
          "type": "address"
        },
        {
          "internalType": "uint256",
          "name": "",
          "type": "uint256"
        },
        {
          "internalType": "bytes",
          "name": "",
          "type": "bytes"
        }
      ],
      "name": "onERC721Received",
      "outputs": [
        {
          "internalType": "bytes4",
          "name": "",
          "type": "bytes4"
        }
      ],
      "stateMutability": "nonpayable",
      "type": "function"
    },
    {
      "inputs": [],
      "name": "owner",
      "outputs": [
        {
          "internalType": "address",
          "name": "",
          "type": "address"
        }
      ],
      "stateMutability": "view",
      "type": "function"
    },
    {
      "inputs": [
        {
          "internalType": "uint256",
          "name": "",
          "type": "uint256"
        }
      ],
      "name": "pointerIndex1155",
      "outputs": [
        {
          "internalType": "uint256",
          "name": "",
          "type": "uint256"
        }
      ],
      "stateMutability": "view",
      "type": "function"
    },
    {
      "inputs": [
        {
          "internalType": "uint256[]",
          "name": "idsOut",
          "type": "uint256[]"
        },
        {
          "internalType": "address",
          "name": "to",
          "type": "address"
        },
        {
          "internalType": "uint256",
          "name": "wethAmount",
          "type": "uint256"
        },
        {
          "internalType": "bool",
          "name": "forceFees",
          "type": "bool"
        }
      ],
      "name": "redeem",
      "outputs": [
        {
          "internalType": "uint256",
          "name": "ethFees",
          "type": "uint256"
        }
      ],
      "stateMutability": "payable",
      "type": "function"
    },
    {
      "inputs": [],
      "name": "renounceOwnership",
      "outputs": [],
      "stateMutability": "nonpayable",
      "type": "function"
    },
    {
      "inputs": [
        {
          "internalType": "contract IERC1155Upgradeable",
          "name": "nft",
          "type": "address"
        },
        {
          "internalType": "uint256[]",
          "name": "ids",
          "type": "uint256[]"
        },
        {
          "internalType": "uint256[]",
          "name": "amounts",
          "type": "uint256[]"
        }
      ],
      "name": "rescueERC1155",
      "outputs": [],
      "stateMutability": "nonpayable",
      "type": "function"
    },
    {
      "inputs": [
        {
          "internalType": "contract IERC721Upgradeable",
          "name": "nft",
          "type": "address"
        },
        {
          "internalType": "uint256[]",
          "name": "ids",
          "type": "uint256[]"
        }
      ],
      "name": "rescueERC721",
      "outputs": [],
      "stateMutability": "nonpayable",
      "type": "function"
    },
    {
      "inputs": [
        {
          "internalType": "contract IERC20Upgradeable",
          "name": "token",
          "type": "address"
        }
      ],
      "name": "rescueTokens",
      "outputs": [],
      "stateMutability": "nonpayable",
      "type": "function"
    },
    {
      "inputs": [
        {
          "internalType": "uint256",
          "name": "mintFee_",
          "type": "uint256"
        },
        {
          "internalType": "uint256",
          "name": "redeemFee_",
          "type": "uint256"
        },
        {
          "internalType": "uint256",
          "name": "swapFee_",
          "type": "uint256"
        }
      ],
      "name": "setFees",
      "outputs": [],
      "stateMutability": "nonpayable",
      "type": "function"
    },
    {
      "inputs": [
        {
          "internalType": "address",
          "name": "manager_",
          "type": "address"
        }
      ],
      "name": "setManager",
      "outputs": [],
      "stateMutability": "nonpayable",
      "type": "function"
    },
    {
      "inputs": [
        {
          "internalType": "bool",
          "name": "enableMint_",
          "type": "bool"
        },
        {
          "internalType": "bool",
          "name": "enableRedeem_",
          "type": "bool"
        },
        {
          "internalType": "bool",
          "name": "enableSwap_",
          "type": "bool"
        }
      ],
      "name": "setVaultFeatures",
      "outputs": [],
      "stateMutability": "nonpayable",
      "type": "function"
    },
    {
      "inputs": [
        {
          "internalType": "string",
          "name": "name_",
          "type": "string"
        },
        {
          "internalType": "string",
          "name": "symbol_",
          "type": "string"
        }
      ],
      "name": "setVaultMetadata",
      "outputs": [],
      "stateMutability": "nonpayable",
      "type": "function"
    },
    {
      "inputs": [
        {
          "internalType": "bytes4",
          "name": "interfaceId",
          "type": "bytes4"
        }
      ],
      "name": "supportsInterface",
      "outputs": [
        {
          "internalType": "bool",
          "name": "",
          "type": "bool"
        }
      ],
      "stateMutability": "view",
      "type": "function"
    },
    {
      "inputs": [
        {
          "internalType": "uint256[]",
          "name": "idsIn",
          "type": "uint256[]"
        },
        {
          "internalType": "uint256[]",
          "name": "amounts",
          "type": "uint256[]"
        },
        {
          "internalType": "uint256[]",
          "name": "idsOut",
          "type": "uint256[]"
        },
        {
          "internalType": "address",
          "name": "to",
          "type": "address"
        },
        {
          "internalType": "bool",
          "name": "forceFees",
          "type": "bool"
        }
      ],
      "name": "swap",
      "outputs": [
        {
          "internalType": "uint256",
          "name": "ethFees",
          "type": "uint256"
        }
      ],
      "stateMutability": "payable",
      "type": "function"
    },
    {
      "inputs": [],
      "name": "symbol",
      "outputs": [
        {
          "internalType": "string",
          "name": "",
          "type": "string"
        }
      ],
      "stateMutability": "view",
      "type": "function"
    },
    {
      "inputs": [
        {
          "internalType": "uint256",
          "name": "",
          "type": "uint256"
        }
      ],
      "name": "tokenDepositInfo",
      "outputs": [
        {
          "internalType": "uint48",
          "name": "timestamp",
          "type": "uint48"
        },
        {
          "internalType": "address",
          "name": "depositor",
          "type": "address"
        }
      ],
      "stateMutability": "view",
      "type": "function"
    },
    {
      "inputs": [],
      "name": "totalHoldings",
      "outputs": [
        {
          "internalType": "uint256",
          "name": "",
          "type": "uint256"
        }
      ],
      "stateMutability": "view",
      "type": "function"
    },
    {
      "inputs": [],
      "name": "totalSupply",
      "outputs": [
        {
          "internalType": "uint256",
          "name": "",
          "type": "uint256"
        }
      ],
      "stateMutability": "view",
      "type": "function"
    },
    {
      "inputs": [
        {
          "internalType": "address",
          "name": "to",
          "type": "address"
        },
        {
          "internalType": "uint256",
          "name": "amount",
          "type": "uint256"
        }
      ],
      "name": "transfer",
      "outputs": [
        {
          "internalType": "bool",
          "name": "",
          "type": "bool"
        }
      ],
      "stateMutability": "nonpayable",
      "type": "function"
    },
    {
      "inputs": [
        {
          "internalType": "address",
          "name": "from",
          "type": "address"
        },
        {
          "internalType": "address",
          "name": "to",
          "type": "address"
        },
        {
          "internalType": "uint256",
          "name": "amount",
          "type": "uint256"
        }
      ],
      "name": "transferFrom",
      "outputs": [
        {
          "internalType": "bool",
          "name": "",
          "type": "bool"
        }
      ],
      "stateMutability": "nonpayable",
      "type": "function"
    },
    {
      "inputs": [
        {
          "internalType": "address",
          "name": "newOwner",
          "type": "address"
        }
      ],
      "name": "transferOwnership",
      "outputs": [],
      "stateMutability": "nonpayable",
      "type": "function"
    },
    {
      "inputs": [
        {
          "internalType": "uint256",
          "name": "vTokenAmount",
          "type": "uint256"
        }
      ],
      "name": "vTokenToETH",
      "outputs": [
        {
          "internalType": "uint256",
          "name": "ethAmount",
          "type": "uint256"
        }
      ],
      "stateMutability": "view",
      "type": "function"
    },
    {
      "inputs": [],
      "name": "vaultFactory",
      "outputs": [
        {
          "internalType": "contract INFTXVaultFactoryV3",
          "name": "",
          "type": "address"
        }
      ],
      "stateMutability": "view",
      "type": "function"
    },
    {
      "inputs": [],
      "name": "vaultFees",
      "outputs": [
        {
          "internalType": "uint256",
          "name": "mintFee",
          "type": "uint256"
        },
        {
          "internalType": "uint256",
          "name": "redeemFee",
          "type": "uint256"
        },
        {
          "internalType": "uint256",
          "name": "swapFee",
          "type": "uint256"
        }
      ],
      "stateMutability": "view",
      "type": "function"
    },
    {
      "inputs": [],
      "name": "vaultId",
      "outputs": [
        {
          "internalType": "uint256",
          "name": "",
          "type": "uint256"
        }
      ],
      "stateMutability": "view",
      "type": "function"
    },
    {
      "inputs": [],
      "name": "version",
      "outputs": [
        {
          "internalType": "string",
          "name": "",
          "type": "string"
        }
      ],
      "stateMutability": "pure",
      "type": "function"
    }
  ],
  "transactionHash": "0xa1ea84ef73973998e1a71d6650eabf56de1fdb5c281b8fe12a9ed8eaee682556",
  "args": [
    "0xB4FBF271143F4FBf7B91A5ded31805e42b2208d6"
  ],
  "numDeployments": 1,
  "solcInputHash": "8595b142aecb570711b516061483b661",
  "bytecode": "0x60a06040523480156200001157600080fd5b5060405162005e5e38038062005e5e833981016040819052620000349162000046565b6001600160a01b031660805262000078565b6000602082840312156200005957600080fd5b81516001600160a01b03811681146200007157600080fd5b9392505050565b608051615d99620000c5600039600081816109a901528181612c6501528181612cfe01528181612d7f01528181612eae0152818161390a0152818161399f0152613cd20152615d996000f3fe6080604052600436106103745760003560e01c80636b948a35116101d1578063b8517b7811610102578063dd62ed3e116100a0578063f1d20dd41161006f578063f1d20dd414610b48578063f23a6e6114610b68578063f2fde38b14610b94578063f69094f414610bb457600080fd5b8063dd62ed3e14610aad578063e0a8b97a14610af3578063e78458c414610b13578063e9ec2e9914610b3357600080fd5b8063cec10c11116100dc578063cec10c1114610a2c578063d0ebdbe714610a4c578063d8a06f7314610a6c578063d9d98ce414610a8d57600080fd5b8063b8517b78146109cb578063bc197c81146109eb578063c3cb8c1414610a1757600080fd5b806393cd14a01161016f578063a1db849311610149578063a1db849314610929578063a457c2d714610957578063a9059cbb14610977578063ad5c46481461099757600080fd5b806393cd14a0146108b657806395d89b41146108c95780639c515546146108de57600080fd5b806372188e3f116101ab57806372188e3f1461080a5780638bb41c271461083a5780638da5cb5b146108775780638f878a431461089557600080fd5b80636b948a351461079d57806370a08231146107bf578063715018a6146107f557600080fd5b8063313ce567116102ab578063481c6a751161024957806354fd4d501161022357806354fd4d501461070e5780635877aee61461073d5780635cffe9de1461075d578063613255ab1461077d57600080fd5b8063481c6a75146106a85780634a756419146106ce57806354f78d7f146106ee57600080fd5b80633c1b6d10116102855780633c1b6d101461061857806341c5c7641461063857806344b28d591461066657806345a0b6521461068857600080fd5b8063313ce567146105c557806333194c0a146105e157806339509351146105f857600080fd5b8063150b7a02116103185780631ba46cfd116102f25780631ba46cfd1461053757806321e53e761461057057806323b872dd1461058357806325705d8d146105a357600080fd5b8063150b7a021461047157806318160ddd146104aa57806318499039146104c957600080fd5b806306f26dc21161035457806306f26dc2146103e557806306fdde0314610400578063095ea7b314610422578063114f8aa11461044257600080fd5b806251816114610379578062ae3bf81461039057806301ffc9a7146103b0575b600080fd5b34801561038557600080fd5b5061038e610bc7565b005b34801561039c57600080fd5b5061038e6103ab366004614e22565b610c3a565b3480156103bc57600080fd5b506103d06103cb366004614e3f565b610cc7565b60405190151581526020015b60405180910390f35b3480156103f157600080fd5b506101c6546103d09060ff1681565b34801561040c57600080fd5b50610415610cfe565b6040516103dc9190614e95565b34801561042e57600080fd5b506103d061043d366004614ec8565b610d90565b34801561044e57600080fd5b5061046261045d366004614ef4565b610da8565b6040516103dc93929190614f51565b34801561047d57600080fd5b5061049161048c36600461506a565b611116565b6040516001600160e01b031990911681526020016103dc565b3480156104b657600080fd5b506067545b6040519081526020016103dc565b3480156104d557600080fd5b506105116104e43660046150d5565b6101cb6020526000908152604090205465ffffffffffff811690600160301b90046001600160a01b031682565b6040805165ffffffffffff90931683526001600160a01b039091166020830152016103dc565b34801561054357600080fd5b506101c354610558906001600160a01b031681565b6040516001600160a01b0390911681526020016103dc565b6104bb61057e366004615140565b611127565b34801561058f57600080fd5b506103d061059e3660046151ff565b611297565b3480156105af57600080fd5b506105b86112bd565b6040516103dc9190615240565b3480156105d157600080fd5b50604051601281526020016103dc565b3480156105ed57600080fd5b506104bb6101c55481565b34801561060457600080fd5b506103d0610613366004614ec8565b61135f565b34801561062457600080fd5b5061038e610633366004615253565b61139e565b34801561064457600080fd5b506104bb6106533660046150d5565b60009081526101cc602052604090205490565b34801561067257600080fd5b506101c7546103d090600160a81b900460ff1681565b34801561069457600080fd5b506104bb6106a33660046150d5565b611431565b3480156106b457600080fd5b506101c6546105589061010090046001600160a01b031681565b3480156106da57600080fd5b5061038e6106e93660046152d5565b61143f565b3480156106fa57600080fd5b5061038e610709366004615329565b611511565b34801561071a57600080fd5b50604080518082019091526006815265076332e302e360d41b6020820152610415565b34801561074957600080fd5b506105586107583660046153b5565b6115de565b34801561076957600080fd5b506103d06107783660046153f3565b61176c565b34801561078957600080fd5b506104bb610798366004614e22565b611791565b3480156107a957600080fd5b506101c7546103d090600160a01b900460ff1681565b3480156107cb57600080fd5b506104bb6107da366004614e22565b6001600160a01b031660009081526065602052604090205490565b34801561080157600080fd5b5061038e6117b9565b34801561081657600080fd5b5061081f6117cd565b604080519384526020840192909252908201526060016103dc565b34801561084657600080fd5b5061085a6108553660046150d5565b611850565b604080519283526001600160a01b039091166020830152016103dc565b34801561088357600080fd5b506033546001600160a01b0316610558565b3480156108a157600080fd5b506101c754610558906001600160a01b031681565b6104bb6108c4366004615454565b61198c565b3480156108d557600080fd5b50610415611a7c565b3480156108ea57600080fd5b506108fe6108f9366004614ef4565b611a8b565b604080519384526001600160a01b03909216602084015265ffffffffffff16908201526060016103dc565b34801561093557600080fd5b506104bb6109443660046150d5565b6101cd6020526000908152604090205481565b34801561096357600080fd5b506103d0610972366004614ec8565b611ae1565b34801561098357600080fd5b506103d0610992366004614ec8565b611b83565b3480156109a357600080fd5b506105587f000000000000000000000000000000000000000000000000000000000000000081565b3480156109d757600080fd5b506104bb6109e63660046150d5565b611b91565b3480156109f757600080fd5b50610491610a0636600461554b565b63bc197c8160e01b95945050505050565b348015610a2357600080fd5b5061038e611bab565b348015610a3857600080fd5b5061038e610a473660046155f8565b611bb5565b348015610a5857600080fd5b5061038e610a67366004614e22565b611c3b565b348015610a7857600080fd5b506101c454610558906001600160a01b031681565b348015610a9957600080fd5b506104bb610aa8366004614ec8565b611cad565b348015610ab957600080fd5b506104bb610ac8366004615624565b6001600160a01b03918216600090815260666020908152604080832093909416825291909152205490565b348015610aff57600080fd5b5061038e610b0e36600461565d565b611d0e565b348015610b1f57600080fd5b5061038e610b2e3660046156c8565b611d89565b348015610b3f57600080fd5b506104bb612050565b348015610b5457600080fd5b506103d0610b63366004615770565b612062565b348015610b7457600080fd5b50610491610b833660046157a4565b63f23a6e6160e01b95945050505050565b348015610ba057600080fd5b5061038e610baf366004614e22565b612108565b6104bb610bc236600461580c565b612181565b610bcf612272565b6101c4546101c5546040516360c1795960e11b81526001600160a01b039092169163c182f2b291610c069160040190815260200190565b600060405180830381600087803b158015610c2057600080fd5b505af1158015610c34573d6000803e3d6000fd5b50505050565b610c42612272565b6040516370a0823160e01b81523060048201526000906001600160a01b038316906370a0823190602401602060405180830381865afa158015610c89573d6000803e3d6000fd5b505050506040513d601f19601f82011682018060405250810190610cad9190615871565b9050610cc36001600160a01b03831633836122e4565b5050565b60006001600160e01b03198216630271189760e51b1480610cf857506301ffc9a760e01b6001600160e01b03198316145b92915050565b606060688054610d0d9061588a565b80601f0160208091040260200160405190810160405280929190818152602001828054610d399061588a565b8015610d865780601f10610d5b57610100808354040283529160200191610d86565b820191906000526020600020905b815481529060010190602001808311610d6957829003601f168201915b5050505050905090565b600033610d9e81858561233b565b5060019392505050565b600060608060008411610dba57600080fd5b836001600160401b03811115610dd257610dd2614fb5565b604051908082528060200260200182016040528015610dfb578160200160208202803683370190505b509150836001600160401b03811115610e1657610e16614fb5565b604051908082528060200260200182016040528015610e3f578160200160208202803683370190505b5060008681526101cd60209081526040808320546101c45482516368d052e960e01b8152925195965090948594936001600160a01b03909216926368d052e99260048083019391928290030181865afa158015610ea0573d6000803e3d6000fd5b505050506040513d601f19601f82011682018060405250810190610ec49190615871565b905060006101c460009054906101000a90046001600160a01b03166001600160a01b0316631362ba226040518163ffffffff1660e01b8152600401602060405180830381865afa158015610f1c573d6000803e3d6000fd5b505050506040513d601f19601f82011682018060405250810190610f409190615871565b90505b60008981526101cc60205260408120805485908110610f6457610f646158be565b60009182526020918290206040805160608101825260029390930290910180548084526001909101546001600160a01b03811694840194909452600160a01b90930465ffffffffffff1690820152915089101561104257600089610fcd8360400151868661245f565b610fd791906158ea565b9050610fe3818a615909565b985080888681518110610ff857610ff86158be565b602002602001018181525050816020015187868151811061101b5761101b6158be565b60200260200101906001600160a01b031690816001600160a01b03168152505050506110e1565b805161104e908a615921565b9850600081600001516110668360400151868661245f565b61107091906158ea565b905061107c818a615909565b985080888681518110611091576110916158be565b60200260200101818152505081602001518786815181106110b4576110b46158be565b60200260200101906001600160a01b031690816001600160a01b0316815250508460010194505050610f43565b60006110ed8585615921565b6110f8906001615909565b9050865181101561110a578087528086525b50505050509250925092565b630a85bd0160e11b5b949350505050565b6000611131612474565b61113b60036124cd565b6101c65460009060ff16156111b75760005b898110156111b1576000898983818110611169576111696158be565b905060200201359050806000036111935760405163c4c8a67760e01b815260040160405180910390fd5b61119d8184615909565b925050806111aa90615938565b905061114d565b506111ba565b50875b8085146111da576040516322d2bba960e21b815260040160405180910390fd5b60006111e46117cd565b9250600091506111f6905087836158ea565b905060008060006112098b8b8b8b612570565b92509250925061121f346001868686868e612ad0565b965061122d8f8f8f8f612fb1565b50611238348861329a565b7fcf2fcb072d2992e835a4daadd1e6ebba9a675539a451596a6f594fdb61ba92248f8f8f8f8f8f8f6040516112739796959493929190615987565b60405180910390a150505050505061128b600160c955565b98975050505050505050565b6000336112a58582856132b8565b6112b0858585613344565b60019150505b9392505050565b606060006112cc6101c86134ef565b90506000816001600160401b038111156112e8576112e8614fb5565b604051908082528060200260200182016040528015611311578160200160208202803683370190505b50905060005b828110156113585761132b6101c8826134f9565b82828151811061133d5761133d6158be565b602090810291909101015261135181615938565b9050611317565b5092915050565b3360008181526066602090815260408083206001600160a01b0387168452909152812054909190610d9e9082908690611399908790615909565b61233b565b6113a6612272565b6101c3546001600160a01b03908116908616036113c257600080fd5b604051631759616b60e11b81526001600160a01b03861690632eb2c2d6906113f8903090339089908990899089906004016159e1565b600060405180830381600087803b15801561141257600080fd5b505af1158015611426573d6000803e3d6000fd5b505050505050505050565b6000610cf86101c8836134f9565b611447612272565b6101c3546001600160a01b039081169084160361146357600080fd5b60005b81811015610c3457836001600160a01b03166342842e0e3033868686818110611491576114916158be565b6040516001600160e01b031960e088901b1681526001600160a01b03958616600482015294909316602485015250602090910201356044820152606401600060405180830381600087803b1580156114e857600080fd5b505af11580156114fc573d6000803e3d6000fd5b505050508061150a90615938565b9050611466565b611519612272565b6101c78054841515600160a81b0260ff60a81b199091161790556040517fc604be2f834727754dc1ec1225c14d1ecde48e7d12fa7b745dfb137a3db998bd9061156790851515815260200190565b60405180910390a160405182151581527f9cb1d0c0b8d946b3eb09abb16f0a2546f919a9bff8ced6d73c2a1a36a4ff95219060200160405180910390a160405181151581527f8f4dc19a0a35d805af4e9053cf101831ab5200b9b57fd5c953cee436833b892b9060200160405180910390a1505050565b60006115e8612272565b6101c7546001600160a01b031615611613576040516344a30fbf60e01b815260040160405180910390fd5b6101c45460408051630a63bfd560e11b815290516000926001600160a01b0316916314c77faa9160048083019260209291908290030181865afa15801561165e573d6000803e3d6000fd5b505050506040513d601f19601f820116820180604052508101906116829190615a40565b90506000816001600160a01b031663576ff9088787876040518463ffffffff1660e01b81526004016116b693929190615a86565b6020604051808303816000875af11580156116d5573d6000803e3d6000fd5b505050506040513d601f19601f820116820180604052508101906116f99190615a40565b6101c7805474ffffffffffffffffffffffffffffffffffffffffff19166001600160a01b0383169081179091556040805189815260208101929092529192507fe14c63b3d4272158635bee1d1b95b51bb8de042ee95a15cbfaf2865b4d0af811910160405180910390a195945050505050565b600061177860046124cd565b6117858686868686613505565b90505b95945050505050565b60006001600160a01b03821630146117aa576000610cf8565b606754610cf890600019615921565b6117c16136e4565b6117cb600061373e565b565b6101c4546101c554604051632206137960e01b81526004810191909152600091829182916001600160a01b031690632206137990602401606060405180830381865afa158015611821573d6000803e3d6000fd5b505050506040513d601f19601f820116820180604052508101906118459190615aa0565b925092509250909192565b60008181526101cb6020908152604080832081518083018352905465ffffffffffff811682526001600160a01b03600160301b90910481168285018190526101c45484516368d052e960e01b8152945191959394879491909316926368d052e992600480830193928290030181865afa1580156118d1573d6000803e3d6000fd5b505050506040513d601f19601f820116820180604052508101906118f59190615871565b905060006101c460009054906101000a90046001600160a01b03166001600160a01b0316631362ba226040518163ffffffff1660e01b8152600401602060405180830381865afa15801561194d573d6000803e3d6000fd5b505050506040513d601f19601f820116820180604052508101906119719190615871565b90506119828360000151838361245f565b9450505050915091565b6000611996612474565b6119a060016124cd565b6101c754600160a81b900460ff166119cb5760405163af79b43760e01b815260040160405180910390fd5b60006119d987878787612fb1565b90506119ed81670de0b6b3a76400006158ea565b91506119f98383613790565b6000611a036117cd565b5050905060008282611a1591906158ea565b90506000611a238234613851565b9050611a2f348261329a565b7f1f72ad2a14447fa756b6f5aca53504645af79813493aca2d906b69e4aaeb94928a8a8a8a8a604051611a66959493929190615ace565b60405180910390a150505050611788600160c955565b606060698054610d0d9061588a565b6101cc6020528160005260406000208181548110611aa857600080fd5b6000918252602090912060029091020180546001909101549092506001600160a01b0381169150600160a01b900465ffffffffffff1683565b3360008181526066602090815260408083206001600160a01b038716845290915281205490919083811015611b6b5760405162461bcd60e51b815260206004820152602560248201527f45524332303a2064656372656173656420616c6c6f77616e63652062656c6f77604482015264207a65726f60d81b60648201526084015b60405180910390fd5b611b78828686840361233b565b506001949350505050565b600033610d9e818585613344565b6101c454600090611358906001600160a01b031683613a79565b6117cb6000611c3b565b611bbd612272565b6101c4546101c554604051639814f40f60e01b815260048101919091526024810185905260448101849052606481018390526001600160a01b0390911690639814f40f90608401600060405180830381600087803b158015611c1e57600080fd5b505af1158015611c32573d6000803e3d6000fd5b50505050505050565b611c43612272565b6101c6805474ffffffffffffffffffffffffffffffffffffffff0019166101006001600160a01b038416908102919091179091556040519081527f60a0f5b9f9e81e98216071b85826681c796256fe3d1354ecb675580fba64fa699060200160405180910390a150565b60006001600160a01b0383163014611d075760405162461bcd60e51b815260206004820152601b60248201527f4552433230466c6173684d696e743a2077726f6e6720746f6b656e00000000006044820152606401611b62565b60006112b6565b611d16612272565b610c3484848080601f01602080910402602001604051908101604052809392919081815260200183838082843760009201919091525050604080516020601f88018190048102820181019092528681529250869150859081908401838280828437600092019190915250613d2d92505050565b600054610100900460ff1615808015611da95750600054600160ff909116105b80611dc35750303b158015611dc3575060005460ff166001145b611e265760405162461bcd60e51b815260206004820152602e60248201527f496e697469616c697a61626c653a20636f6e747261637420697320616c72656160448201526d191e481a5b9a5d1a585b1a5e995960921b6064820152608401611b62565b6000805460ff191660011790558015611e49576000805461ff0019166101001790555b611e51613d46565b611ec488888080601f01602080910402602001604051908101604052809392919081815260200183838082843760009201919091525050604080516020601f8c018190048102820181019092528a815292508a9150899081908401838280828437600092019190915250613d7592505050565b6001600160a01b038416611eeb5760405163d92e233d60e01b815260040160405180910390fd5b6101c380546001600160a01b03199081166001600160a01b038716179091556101c4805433921682179055604080516304c94c4160e31b8152905163264a6208916004808201926020929091908290030181865afa158015611f51573d6000803e3d6000fd5b505050506040513d601f19601f82011682018060405250810190611f759190615871565b6101c58190556101c6805460ff19168515159081179091556101c7805460ff60a01b1916600160a01b86151590810291909117909155604080516001600160a01b038916815260208101939093528201527f18ecce5c418b882a3d89e5b6cc8100dc3383309b8e78525266fe1283a7f934d69060600160405180910390a26120006001806001611511565b8015612046576000805461ff0019169055604051600181527f7f26b83ff96e1f2b6a682f133852f6798a09c465da95921460cefb38474024989060200160405180910390a15b5050505050505050565b600061205d6101c86134ef565b905090565b6101c754600090600160a01b900460ff161561208057506001919050565b6101c7546001600160a01b03168061209b5750600092915050565b6040516384ca9f8560e01b81526001600160a01b038216906384ca9f85906120c7908690600401615240565b602060405180830381865afa1580156120e4573d6000803e3d6000fd5b505050506040513d601f19601f820116820180604052508101906112b69190615b11565b6121106136e4565b6001600160a01b0381166121755760405162461bcd60e51b815260206004820152602660248201527f4f776e61626c653a206e6577206f776e657220697320746865207a65726f206160448201526564647265737360d01b6064820152608401611b62565b61217e8161373e565b50565b600061218b612474565b61219560026124cd565b600083156121af5734156121a857600080fd5b50826121b2565b50345b856121ce336121c983670de0b6b3a76400006158ea565b613da6565b60006121d86117cd565b509150600090506121e983836158ea565b905060008060006121fc8d8d8d8c612570565b9250925092506122148760003411868686868f612ad0565b9750341561222657612226348961329a565b7fddf3c6319e89d061b877ebc529b0fd59410499b5bf683cffa46d5807dd13c6008d8d8d60405161225993929190615b2e565b60405180910390a150505050505050611788600160c955565b6101c65461010090046001600160a01b03166122b3576033546001600160a01b031633146117cb576040516330cd747160e01b815260040160405180910390fd5b6101c65461010090046001600160a01b031633146117cb5760405163607e454560e11b815260040160405180910390fd5b604080516001600160a01b038416602482015260448082018490528251808303909101815260649091019091526020810180516001600160e01b031663a9059cbb60e01b179052612336908490613eda565b505050565b6001600160a01b03831661239d5760405162461bcd60e51b8152602060048201526024808201527f45524332303a20617070726f76652066726f6d20746865207a65726f206164646044820152637265737360e01b6064820152608401611b62565b6001600160a01b0382166123fe5760405162461bcd60e51b815260206004820152602260248201527f45524332303a20617070726f766520746f20746865207a65726f206164647265604482015261737360f01b6064820152608401611b62565b6001600160a01b0383811660008181526066602090815260408083209487168084529482529182902085905590518481527f8c5be1e5ebec7d5bd14f71427d1e84f3dd0314c0f7b2291e5b200ac8c7c3b925910160405180910390a3505050565b600061111f8465ffffffffffff168484613fac565b600260c954036124c65760405162461bcd60e51b815260206004820152601f60248201527f5265656e7472616e637947756172643a207265656e7472616e742063616c6c006044820152606401611b62565b600260c955565b6101c45460405163f6aacfb160e01b8152600481018390526001600160a01b039091169063f6aacfb190602401602060405180830381865afa158015612517573d6000803e3d6000fd5b505050506040513d601f19601f8201168201806040525081019061253b9190615b11565b801561255257506033546001600160a01b03163314155b1561217e576040516313d0ff5960e31b815260040160405180910390fd5b6101c6546101c3546101c454600092606092839260ff909216916001600160a01b03918216911685878061260957506040516306df336560e51b81523360048201526001600160a01b0383169063dbe66ca090602401602060405180830381865afa1580156125e3573d6000803e3d6000fd5b505050506040513d601f19601f820116820180604052508101906126079190615b11565b155b90506000808215612791576101c460009054906101000a90046001600160a01b03166001600160a01b03166368d052e96040518163ffffffff1660e01b8152600401602060405180830381865afa158015612668573d6000803e3d6000fd5b505050506040513d601f19601f8201168201806040525081019061268c9190615871565b91506101c460009054906101000a90046001600160a01b03166001600160a01b0316631362ba226040518163ffffffff1660e01b8152600401602060405180830381865afa1580156126e2573d6000803e3d6000fd5b505050506040513d601f19601f820116820180604052508101906127069190615871565b90508b6001600160401b0381111561272057612720614fb5565b604051908082528060200260200182016040528015612749578160200160208202803683370190505b5097508b6001600160401b0381111561276457612764614fb5565b60405190808252806020026020018201604052801561278d578160200160208202803683370190505b5096505b60005b8c811015612a835760008e8e838181106127b0576127b06158be565b90506020020135905087156129a15760008181526101ca602052604081208054600192906127df908490615921565b909155505060008181526101ca60205260408120549003612808576128066101c882614004565b505b604051637921219560e11b81523060048201526001600160a01b038e81166024830152604482018390526001606483015260a06084830152600060a483015288169063f242432a9060c401600060405180830381600087803b15801561286d57600080fd5b505af1158015612881573d6000803e3d6000fd5b50505060008281526101cd60209081526040808320546101cc9092528220805491935090839081106128b5576128b56158be565b6000918252602090912060029091020180549091506128d5600182615921565b825560018190036128fc576128eb836001615909565b60008581526101cd60205260409020555b871561299957600182015460009061292490600160a01b900465ffffffffffff16898961245f565b9050808f6129329190615909565b9e50808e8781518110612947576129476158be565b602090810291909101015260018301548d516001600160a01b03909116908e9088908110612977576129776158be565b60200260200101906001600160a01b031690816001600160a01b031681525050505b505050612a72565b8415612a5a5760008181526101cb6020908152604080832081518083019092525465ffffffffffff8116808352600160301b9091046001600160a01b03169282019290925291906129f390878761245f565b90506129ff818e615909565b9c50808c8581518110612a1457612a146158be565b60200260200101818152505081602001518b8581518110612a3757612a376158be565b60200260200101906001600160a01b031690816001600160a01b03168152505050505b612a666101c882614004565b50612a72878e83614010565b50612a7c81615938565b9050612794565b50612ac08d8d808060200260200160405190810160405280939291908181526020018383602002808284376000920191909152506141f192505050565b5050505050509450945094915050565b6101c4546000906001600160a01b031682158015612b5157506040516306df336560e51b81523360048201526001600160a01b0382169063dbe66ca090602401602060405180830381865afa158015612b2d573d6000803e3d6000fd5b505050506040513d601f19601f82011682018060405250810190612b519190615b11565b15612b60576000915050612fa6565b600080612b6d838a613a79565b90925090508115612fa2576000808915612c30578a612b8c8b866158ea565b612b969190615b5b565b9150670de0b6b3a76400006101c460009054906101000a90046001600160a01b03166001600160a01b031663f3746ca96040518163ffffffff1660e01b8152600401602060405180830381865afa158015612bf5573d6000803e3d6000fd5b505050506040513d601f19601f82011682018060405250810190612c199190615871565b612c2390846158ea565b612c2d9190615b5b565b90505b612c3a8285615909565b9550858d1015612c5d5760405163311c9fd160e01b815260040160405180910390fd5b8b15612cdc577f00000000000000000000000000000000000000000000000000000000000000006001600160a01b031663d0e30db0876040518263ffffffff1660e01b81526004016000604051808303818588803b158015612cbe57600080fd5b505af1158015612cd2573d6000803e3d6000fd5b5050505050612d75565b6040516323b872dd60e01b8152336004820152306024820152604481018790527f00000000000000000000000000000000000000000000000000000000000000006001600160a01b0316906323b872dd906064016020604051808303816000875af1158015612d4f573d6000803e3d6000fd5b505050506040513d601f19601f82011682018060405250810190612d739190615b11565b505b6001600160a01b037f00000000000000000000000000000000000000000000000000000000000000001663a9059cbb84612daf848a615921565b6040516001600160e01b031960e085901b1681526001600160a01b03909216600483015260248201526044016020604051808303816000875af1158015612dfa573d6000803e3d6000fd5b505050506040513d601f19601f82011682018060405250810190612e1e9190615b11565b506101c5546040516391c05b0b60e01b815260048101919091526001600160a01b038416906391c05b0b90602401600060405180830381600087803b158015612e6657600080fd5b505af1158015612e7a573d6000803e3d6000fd5b5050505060005b8951811015612f9e5760008a8281518110612e9e57612e9e6158be565b60200260200101511115612f96577f00000000000000000000000000000000000000000000000000000000000000006001600160a01b031663a9059cbb8a8381518110612eed57612eed6158be565b60200260200101518d8d8581518110612f0857612f086158be565b602002602001015186612f1b91906158ea565b612f259190615b5b565b6040516001600160e01b031960e085901b1681526001600160a01b03909216600483015260248201526044016020604051808303816000875af1158015612f70573d6000803e3d6000fd5b505050506040513d601f19601f82011682018060405250810190612f949190615b11565b505b600101612e81565b5050505b5050505b979650505050505050565b6000612fef85858080602002602001604051908101604052809392919081815260200183836020028082843760009201919091525061206292505050565b61300c57604051637c75aa6f60e11b815260040160405180910390fd5b6101c65460ff16156131dd576101c354604051631759616b60e11b81526001600160a01b0390911690632eb2c2d69061305390339030908a908a908a908a906004016159e1565b600060405180830381600087803b15801561306d57600080fd5b505af1158015613081573d6000803e3d6000fd5b505050506000805b858110156131d55760008787838181106130a5576130a56158be565b90506020020135905060008686848181106130c2576130c26158be565b905060200201359050806000036130ec5760405163c4c8a67760e01b815260040160405180910390fd5b60008281526101ca602052604081205490036131105761310e6101c883614269565b505b60008281526101ca60205260408120805483929061312f908490615909565b9091555061313f90508185615909565b60009283526101cc6020908152604080852081516060810183529485523385840190815265ffffffffffff428116938701938452825460018181018555938952949097209551600290940290950192835593519190930180549351909416600160a01b026001600160d01b03199093166001600160a01b0391909116179190911790915591506131ce81615938565b9050613089565b50905061111f565b6101c3546001600160a01b031660005b8581101561328f576000878783818110613209576132096158be565b90506020020135905061321c8382614275565b6132286101c882614269565b5060408051808201825265ffffffffffff428116825233602080840191825260009586526101cb9052929093209051815492516001600160a01b0316600160301b026001600160d01b031990931693169290921717905561328881615938565b90506131ed565b5084915061111f9050565b60006132a68284615921565b905080156123365761233633826145d5565b6001600160a01b038381166000908152606660209081526040808320938616835292905220546000198114610c3457818110156133375760405162461bcd60e51b815260206004820152601d60248201527f45524332303a20696e73756666696369656e7420616c6c6f77616e63650000006044820152606401611b62565b610c34848484840361233b565b6001600160a01b0383166133a85760405162461bcd60e51b815260206004820152602560248201527f45524332303a207472616e736665722066726f6d20746865207a65726f206164604482015264647265737360d81b6064820152608401611b62565b6001600160a01b03821661340a5760405162461bcd60e51b815260206004820152602360248201527f45524332303a207472616e7366657220746f20746865207a65726f206164647260448201526265737360e81b6064820152608401611b62565b6001600160a01b038316600090815260656020526040902054818110156134825760405162461bcd60e51b815260206004820152602660248201527f45524332303a207472616e7366657220616d6f756e7420657863656564732062604482015265616c616e636560d01b6064820152608401611b62565b6001600160a01b0380851660008181526065602052604080822086860390559286168082529083902080548601905591517fddf252ad1be2c89b69c2b068fc378daa952ba7f163c4a11628f55a4df523b3ef906134e29086815260200190565b60405180910390a3610c34565b6000610cf8825490565b60006112b68383614649565b600061351085611791565b8411156135735760405162461bcd60e51b815260206004820152602b60248201527f4552433230466c6173684d696e743a20616d6f756e742065786365656473206d60448201526a30bc233630b9b42637b0b760a91b6064820152608401611b62565b600061357f8686611cad565b905061358b8786613790565b6040516323e30c8b60e01b81527f439148f0bbc682ca079e46d6e2c2f0c1e3b820f1a291b069d8882abf8cf18dd9906001600160a01b038916906323e30c8b906135e39033908b908b9088908c908c90600401615b7d565b6020604051808303816000875af1158015613602573d6000803e3d6000fd5b505050506040513d601f19601f820116820180604052508101906136269190615871565b1461367f5760405162461bcd60e51b8152602060048201526024808201527f4552433230466c6173684d696e743a20696e76616c69642072657475726e2076604482015263616c756560e01b6064820152608401611b62565b60006136958830613690858a615909565b6132b8565b8115806136a957506001600160a01b038116155b156136c1576136bc886121c98489615909565b6136d6565b6136cb8887613da6565b6136d6888284613344565b506001979650505050505050565b6033546001600160a01b031633146117cb5760405162461bcd60e51b815260206004820181905260248201527f4f776e61626c653a2063616c6c6572206973206e6f7420746865206f776e65726044820152606401611b62565b603380546001600160a01b038381166001600160a01b0319831681179093556040519116919082907f8be0079c531659141344cd1fd0a4f28419497f9722a3daafe3b4186f6b6457e090600090a35050565b6001600160a01b0382166137e65760405162461bcd60e51b815260206004820152601f60248201527f45524332303a206d696e7420746f20746865207a65726f2061646472657373006044820152606401611b62565b80606760008282546137f89190615909565b90915550506001600160a01b0382166000818152606560209081526040808320805486019055518481527fddf252ad1be2c89b69c2b068fc378daa952ba7f163c4a11628f55a4df523b3ef910160405180910390a35050565b6101c4546040516306df336560e51b81523360048201526000916001600160a01b031690819063dbe66ca090602401602060405180830381865afa15801561389d573d6000803e3d6000fd5b505050506040513d601f19601f820116820180604052508101906138c19190615b11565b156138d0576000915050610cf8565b60006138dc8286613a79565b90935090508215613a7157828410156139085760405163311c9fd160e01b815260040160405180910390fd5b7f00000000000000000000000000000000000000000000000000000000000000006001600160a01b031663d0e30db0846040518263ffffffff1660e01b81526004016000604051808303818588803b15801561396357600080fd5b505af1158015613977573d6000803e3d6000fd5b505060405163a9059cbb60e01b81526001600160a01b038581166004830152602482018890527f000000000000000000000000000000000000000000000000000000000000000016935063a9059cbb925060440190506020604051808303816000875af11580156139ec573d6000803e3d6000fd5b505050506040513d601f19601f82011682018060405250810190613a109190615b11565b506101c5546040516391c05b0b60e01b815260048101919091526001600160a01b038216906391c05b0b90602401600060405180830381600087803b158015613a5857600080fd5b505af1158015613a6c573d6000803e3d6000fd5b505050505b505092915050565b600080836001600160a01b0316630d43e8ad6040518163ffffffff1660e01b8152600401602060405180830381865afa158015613aba573d6000803e3d6000fd5b505050506040513d601f19601f82011682018060405250810190613ade9190615a40565b90506000816001600160a01b0316631eae8f916040518163ffffffff1660e01b8152600401602060405180830381865afa158015613b20573d6000803e3d6000fd5b505050506040513d601f19601f82011682018060405250810190613b449190615a40565b9050600080826001600160a01b0316632a9c99e930866001600160a01b03166334c53b896040518163ffffffff1660e01b8152600401602060405180830381865afa158015613b97573d6000803e3d6000fd5b505050506040513d601f19601f82011682018060405250810190613bbb9190615bb6565b6040516001600160e01b031960e085901b1681526001600160a01b03909216600483015262ffffff1660248201526044016040805180830381865afa158015613c08573d6000803e3d6000fd5b505050506040513d601f19601f82011682018060405250810190613c2c9190615bdb565b9150915080613c415760009450505050613d26565b6101c45460405163d444a47d60e01b81526001600160a01b038481166004830152600092169063d444a47d90602401602060405180830381865afa158015613c8d573d6000803e3d6000fd5b505050506040513d601f19601f82011682018060405250810190613cb19190615871565b905080600003613cc8576000955050505050613d26565b6001600160a01b037f000000000000000000000000000000000000000000000000000000000000000016301015613d0f57613d088782600160601b614673565b9550613d21565b613d1e87600160601b83614673565b95505b505050505b9250929050565b6068613d398382615c50565b5060696123368282615c50565b600054610100900460ff16613d6d5760405162461bcd60e51b8152600401611b6290615d0f565b6117cb614725565b600054610100900460ff16613d9c5760405162461bcd60e51b8152600401611b6290615d0f565b610cc38282614755565b6001600160a01b038216613e065760405162461bcd60e51b815260206004820152602160248201527f45524332303a206275726e2066726f6d20746865207a65726f206164647265736044820152607360f81b6064820152608401611b62565b6001600160a01b03821660009081526065602052604090205481811015613e7a5760405162461bcd60e51b815260206004820152602260248201527f45524332303a206275726e20616d6f756e7420657863656564732062616c616e604482015261636560f01b6064820152608401611b62565b6001600160a01b03831660008181526065602090815260408083208686039055606780548790039055518581529192917fddf252ad1be2c89b69c2b068fc378daa952ba7f163c4a11628f55a4df523b3ef910160405180910390a3505050565b6000613f2f826040518060400160405280602081526020017f5361666545524332303a206c6f772d6c6576656c2063616c6c206661696c6564815250856001600160a01b031661477c9092919063ffffffff16565b8051909150156123365780806020019051810190613f4d9190615b11565b6123365760405162461bcd60e51b815260206004820152602a60248201527f5361666545524332303a204552433230206f7065726174696f6e20646964206e6044820152691bdd081cdd58d8d9595960b21b6064820152608401611b62565b600080613fb98542615921565b90506000613fc7858361478b565b90506000613fd7610e1086615b5b565b86901c9050808210613ff757613fed8183615921565b93505050506112b6565b5060009695505050505050565b60006112b68383614825565b60606001600160a01b03841673b47e3cd837ddf8e4c57f05d70ab865de6e193bbb1480159061405c57506001600160a01b0384167306012c8cf97bead5deae237070f9587f8e7a266d14155b156140b4576040513060248201526001600160a01b03841660448201526064810183905260840160408051601f198184030181529190526020810180516001600160e01b0316632142170760e11b179052905061416f565b73b47e3cd837ddf8e4c57f05d70ab865de6e193bba196001600160a01b03851601614126576040516001600160a01b03841660248201526044810183905260640160408051601f198184030181529190526020810180516001600160e01b03166322dca8bb60e21b179052905061416f565b6040516001600160a01b03841660248201526044810183905260640160408051601f198184030181529190526020810180516001600160e01b031663a9059cbb60e01b17905290505b600080856001600160a01b03168360405161418a9190615d5a565b6000604051808303816000865af19150503d80600081146141c7576040519150601f19603f3d011682016040523d82523d6000602084013e6141cc565b606091505b5091509150818190611c325760405162461bcd60e51b8152600401611b629190614e95565b6101c7546001600160a01b031680614207575050565b604051632f17cda960e11b81526001600160a01b03821690635e2f9b5290614233908590600401615240565b600060405180830381600087803b15801561424d57600080fd5b505af1158015614261573d6000803e3d6000fd5b505050505050565b60006112b68383614918565b60606001600160a01b03831673b47e3cd837ddf8e4c57f05d70ab865de6e193bbb148015906142c157506001600160a01b0383167306012c8cf97bead5deae237070f9587f8e7a266d14155b156143b6576101c3546040516331a9108f60e11b81526004810184905230916001600160a01b031690636352211e90602401602060405180830381865afa158015614310573d6000803e3d6000fd5b505050506040513d601f19601f820116820180604052508101906143349190615a40565b6001600160a01b03160361436c5761434e6101c883614967565b1561233657604051631d1a087d60e31b815260040160405180910390fd5b6040513360248201523060448201526064810183905260840160408051601f198184030181529190526020810180516001600160e01b0316632142170760e11b1790529050614553565b73b47e3cd837ddf8e4c57f05d70ab865de6e193bba196001600160a01b0384160161450d576000826040516024016143f091815260200190565b60408051601f198184030181529181526020820180516001600160e01b0316630b02f02d60e31b1790525190915060009081906001600160a01b03871690614439908590615d5a565b600060405180830381855afa9150503d8060008114614474576040519150601f19603f3d011682016040523d82523d6000602084013e614479565b606091505b50915091506000818060200190518101906144949190615a40565b90508215806144ac57506001600160a01b0381163314155b156144ca57604051631022318760e21b815260040160405180910390fd5b6040516024810187905260440160408051601f198184030181529190526020810180516001600160e01b031663104c9fd360e31b17905294506145539350505050565b6040513360248201523060448201526064810183905260840160408051601f198184030181529190526020810180516001600160e01b03166323b872dd60e01b17905290505b600080846001600160a01b03168360405161456e9190615d5a565b6000604051808303816000865af19150503d80600081146145ab576040519150601f19603f3d011682016040523d82523d6000602084013e6145b0565b606091505b50915091508181906142615760405162461bcd60e51b8152600401611b629190614e95565b6000826001600160a01b03168260405160006040518083038185875af1925050503d8060008114614622576040519150601f19603f3d011682016040523d82523d6000602084013e614627565b606091505b50509050806123365760405163260e7d5b60e11b815260040160405180910390fd5b6000826000018281548110614660576146606158be565b9060005260206000200154905092915050565b60008080600019858709858702925082811083820303915050806000036146ac57600084116146a157600080fd5b5082900490506112b6565b8084116146b857600080fd5b6000848688096000868103871696879004966002600389028118808a02820302808a02820302808a02820302808a02820302808a02820302808a02909103029181900381900460010186841190950394909402919094039290920491909117919091029150509392505050565b600054610100900460ff1661474c5760405162461bcd60e51b8152600401611b6290615d0f565b6117cb3361373e565b600054610100900460ff16613d2d5760405162461bcd60e51b8152600401611b6290615d0f565b606061111f848460008561497f565b600080610e106147a3670de0b6b3a7640000856158ea565b6147ad9190615b5b565b905060006147c3670de0b6b3a764000083615b5b565b905084811c60006147dc670de0b6b3a7640000846158ea565b6147e69085615921565b90506000670de0b6b3a764000061480083620100006158ea565b61480a9190615b5b565b905060006148188285614a4f565b9998505050505050505050565b6000818152600183016020526040812054801561490e576000614849600183615921565b855490915060009061485d90600190615921565b90508181146148c257600086600001828154811061487d5761487d6158be565b90600052602060002001549050808760000184815481106148a0576148a06158be565b6000918252602080832090910192909255918252600188019052604090208390555b85548690806148d3576148d3615d76565b600190038181906000526020600020016000905590558560010160008681526020019081526020016000206000905560019350505050610cf8565b6000915050610cf8565b600081815260018301602052604081205461495f57508154600181810184556000848152602080822090930184905584548482528286019093526040902091909155610cf8565b506000610cf8565b600081815260018301602052604081205415156112b6565b6060824710156149e05760405162461bcd60e51b815260206004820152602660248201527f416464726573733a20696e73756666696369656e742062616c616e636520666f6044820152651c8818d85b1b60d21b6064820152608401611b62565b600080866001600160a01b031685876040516149fc9190615d5a565b60006040518083038185875af1925050503d8060008114614a39576040519150601f19603f3d011682016040523d82523d6000602084013e614a3e565b606091505b5091509150612fa687838387614d6f565b60006001831615614a8257670de0b6b3a7640000614a75670de0ad151d094180846158ea565b614a7f9190615b5b565b91505b6002831615614ab357670de0b6b3a7640000614aa6670de0a37699596800846158ea565b614ab09190615b5b565b91505b6004831615614ae457670de0b6b3a7640000614ad7670de09039a5fa5100846158ea565b614ae19190615b5b565b91505b6008831615614b1557670de0b6b3a7640000614b08670de069c00f3e1200846158ea565b614b129190615b5b565b91505b6010831615614b4657670de0b6b3a7640000614b39670de01cce21c94400846158ea565b614b439190615b5b565b91505b6020831615614b7757670de0b6b3a7640000614b6a670ddf82ef46ce1000846158ea565b614b749190615b5b565b91505b6040831615614ba857670de0b6b3a7640000614b9b670dde4f458f8e8d80846158ea565b614ba59190615b5b565b91505b6080831615614bd957670de0b6b3a7640000614bcc670ddbe84213d5f080846158ea565b614bd69190615b5b565b91505b610100831615614c0b57670de0b6b3a7640000614bfe670dd71b7aa6df5b80846158ea565b614c089190615b5b565b91505b610200831615614c3d57670de0b6b3a7640000614c30670dcd86e7f28cde00846158ea565b614c3a9190615b5b565b91505b610400831615614c6f57670de0b6b3a7640000614c62670dba71a3084ad680846158ea565b614c6c9190615b5b565b91505b610800831615614ca157670de0b6b3a7640000614c94670d94961b13dbde80846158ea565b614c9e9190615b5b565b91505b611000831615614cd357670de0b6b3a7640000614cc6670d4a171c35c98380846158ea565b614cd09190615b5b565b91505b612000831615614d0557670de0b6b3a7640000614cf8670cb9da519ccfb700846158ea565b614d029190615b5b565b91505b614000831615614d3757670de0b6b3a7640000614d2a670bab76d59c18d680846158ea565b614d349190615b5b565b91505b618000831615614d6957670de0b6b3a7640000614d5c6709d025defee4df80846158ea565b614d669190615b5b565b91505b50919050565b60608315614dde578251600003614dd7576001600160a01b0385163b614dd75760405162461bcd60e51b815260206004820152601d60248201527f416464726573733a2063616c6c20746f206e6f6e2d636f6e74726163740000006044820152606401611b62565b508161111f565b61111f8383815115614df35781518083602001fd5b8060405162461bcd60e51b8152600401611b629190614e95565b6001600160a01b038116811461217e57600080fd5b600060208284031215614e3457600080fd5b81356112b681614e0d565b600060208284031215614e5157600080fd5b81356001600160e01b0319811681146112b657600080fd5b60005b83811015614e84578181015183820152602001614e6c565b83811115610c345750506000910152565b6020815260008251806020840152614eb4816040850160208701614e69565b601f01601f19169190910160400192915050565b60008060408385031215614edb57600080fd5b8235614ee681614e0d565b946020939093013593505050565b60008060408385031215614f0757600080fd5b50508035926020909101359150565b600081518084526020808501945080840160005b83811015614f4657815187529582019590820190600101614f2a565b509495945050505050565b83815260006020606081840152614f6b6060840186614f16565b838103604085015284518082528286019183019060005b81811015614fa75783516001600160a01b031683529284019291840191600101614f82565b509098975050505050505050565b634e487b7160e01b600052604160045260246000fd5b604051601f8201601f191681016001600160401b0381118282101715614ff357614ff3614fb5565b604052919050565b600082601f83011261500c57600080fd5b81356001600160401b0381111561502557615025614fb5565b615038601f8201601f1916602001614fcb565b81815284602083860101111561504d57600080fd5b816020850160208301376000918101602001919091529392505050565b6000806000806080858703121561508057600080fd5b843561508b81614e0d565b9350602085013561509b81614e0d565b92506040850135915060608501356001600160401b038111156150bd57600080fd5b6150c987828801614ffb565b91505092959194509250565b6000602082840312156150e757600080fd5b5035919050565b60008083601f84011261510057600080fd5b5081356001600160401b0381111561511757600080fd5b6020830191508360208260051b8501011115613d2657600080fd5b801515811461217e57600080fd5b60008060008060008060008060a0898b03121561515c57600080fd5b88356001600160401b038082111561517357600080fd5b61517f8c838d016150ee565b909a50985060208b013591508082111561519857600080fd5b6151a48c838d016150ee565b909850965060408b01359150808211156151bd57600080fd5b506151ca8b828c016150ee565b90955093505060608901356151de81614e0d565b915060808901356151ee81615132565b809150509295985092959890939650565b60008060006060848603121561521457600080fd5b833561521f81614e0d565b9250602084013561522f81614e0d565b929592945050506040919091013590565b6020815260006112b66020830184614f16565b60008060008060006060868803121561526b57600080fd5b853561527681614e0d565b945060208601356001600160401b038082111561529257600080fd5b61529e89838a016150ee565b909650945060408801359150808211156152b757600080fd5b506152c4888289016150ee565b969995985093965092949392505050565b6000806000604084860312156152ea57600080fd5b83356152f581614e0d565b925060208401356001600160401b0381111561531057600080fd5b61531c868287016150ee565b9497909650939450505050565b60008060006060848603121561533e57600080fd5b833561534981615132565b9250602084013561535981615132565b9150604084013561536981615132565b809150509250925092565b60008083601f84011261538657600080fd5b5081356001600160401b0381111561539d57600080fd5b602083019150836020828501011115613d2657600080fd5b6000806000604084860312156153ca57600080fd5b8335925060208401356001600160401b038111156153e757600080fd5b61531c86828701615374565b60008060008060006080868803121561540b57600080fd5b853561541681614e0d565b9450602086013561542681614e0d565b93506040860135925060608601356001600160401b0381111561544857600080fd5b6152c488828901615374565b60008060008060006060868803121561546c57600080fd5b85356001600160401b038082111561548357600080fd5b61548f89838a016150ee565b909750955060208801359150808211156154a857600080fd5b506154b5888289016150ee565b90945092505060408601356154c981614e0d565b809150509295509295909350565b600082601f8301126154e857600080fd5b813560206001600160401b0382111561550357615503614fb5565b8160051b615512828201614fcb565b928352848101820192828101908785111561552c57600080fd5b83870192505b84831015612fa657823582529183019190830190615532565b600080600080600060a0868803121561556357600080fd5b853561556e81614e0d565b9450602086013561557e81614e0d565b935060408601356001600160401b038082111561559a57600080fd5b6155a689838a016154d7565b945060608801359150808211156155bc57600080fd5b6155c889838a016154d7565b935060808801359150808211156155de57600080fd5b506155eb88828901614ffb565b9150509295509295909350565b60008060006060848603121561560d57600080fd5b505081359360208301359350604090920135919050565b6000806040838503121561563757600080fd5b823561564281614e0d565b9150602083013561565281614e0d565b809150509250929050565b6000806000806040858703121561567357600080fd5b84356001600160401b038082111561568a57600080fd5b61569688838901615374565b909650945060208701359150808211156156af57600080fd5b506156bc87828801615374565b95989497509550505050565b600080600080600080600060a0888a0312156156e357600080fd5b87356001600160401b03808211156156fa57600080fd5b6157068b838c01615374565b909950975060208a013591508082111561571f57600080fd5b5061572c8a828b01615374565b909650945050604088013561574081614e0d565b9250606088013561575081615132565b9150608088013561576081615132565b8091505092959891949750929550565b60006020828403121561578257600080fd5b81356001600160401b0381111561579857600080fd5b61111f848285016154d7565b600080600080600060a086880312156157bc57600080fd5b85356157c781614e0d565b945060208601356157d781614e0d565b9350604086013592506060860135915060808601356001600160401b0381111561580057600080fd5b6155eb88828901614ffb565b60008060008060006080868803121561582457600080fd5b85356001600160401b0381111561583a57600080fd5b615846888289016150ee565b909650945050602086013561585a81614e0d565b92506040860135915060608601356154c981615132565b60006020828403121561588357600080fd5b5051919050565b600181811c9082168061589e57607f821691505b602082108103614d6957634e487b7160e01b600052602260045260246000fd5b634e487b7160e01b600052603260045260246000fd5b634e487b7160e01b600052601160045260246000fd5b6000816000190483118215151615615904576159046158d4565b500290565b6000821982111561591c5761591c6158d4565b500190565b600082821015615933576159336158d4565b500390565b60006001820161594a5761594a6158d4565b5060010190565b81835260006001600160fb1b0383111561596a57600080fd5b8260051b8083602087013760009401602001938452509192915050565b60808152600061599b60808301898b615951565b82810360208401526159ae81888a615951565b905082810360408401526159c3818688615951565b9150506001600160a01b038316606083015298975050505050505050565b60006001600160a01b03808916835280881660208401525060a06040830152615a0e60a083018688615951565b8281036060840152615a21818587615951565b8381036080909401939093525050600081526020019695505050505050565b600060208284031215615a5257600080fd5b81516112b681614e0d565b81835281816020850137506000828201602090810191909152601f909101601f19169091010190565b838152604060208201526000611788604083018486615a5d565b600080600060608486031215615ab557600080fd5b8351925060208401519150604084015190509250925092565b606081526000615ae2606083018789615951565b8281036020840152615af5818688615951565b9150506001600160a01b03831660408301529695505050505050565b600060208284031215615b2357600080fd5b81516112b681615132565b604081526000615b42604083018587615951565b90506001600160a01b0383166020830152949350505050565b600082615b7857634e487b7160e01b600052601260045260246000fd5b500490565b60006001600160a01b03808916835280881660208401525085604083015284606083015260a0608083015261128b60a083018486615a5d565b600060208284031215615bc857600080fd5b815162ffffff811681146112b657600080fd5b60008060408385031215615bee57600080fd5b8251615bf981614e0d565b602084015190925061565281615132565b601f82111561233657600081815260208120601f850160051c81016020861015615c315750805b601f850160051c820191505b8181101561426157828155600101615c3d565b81516001600160401b03811115615c6957615c69614fb5565b615c7d81615c77845461588a565b84615c0a565b602080601f831160018114615cb25760008415615c9a5750858301515b600019600386901b1c1916600185901b178555614261565b600085815260208120601f198616915b82811015615ce157888601518255948401946001909101908401615cc2565b5085821015615cff5787850151600019600388901b60f8161c191681555b5050505050600190811b01905550565b6020808252602b908201527f496e697469616c697a61626c653a20636f6e7472616374206973206e6f74206960408201526a6e697469616c697a696e6760a81b606082015260800190565b60008251615d6c818460208701614e69565b9190910192915050565b634e487b7160e01b600052603160045260246000fdfea164736f6c634300080f000a"
}