{
  "address": "0xA87d94721858801bFa413CbafB5321411603B0e7",
  "abi": [
    {
      "anonymous": false,
      "inputs": [
        {
          "indexed": false,
          "internalType": "uint8",
          "name": "version",
          "type": "uint8"
        }
      ],
      "name": "Initialized",
      "type": "event"
    },
    {
      "anonymous": false,
      "inputs": [
        {
          "indexed": false,
          "internalType": "uint256[]",
          "name": "tokenIds",
          "type": "uint256[]"
        }
      ],
      "name": "NFTXEligibilityInit",
      "type": "event"
    },
    {
      "anonymous": false,
      "inputs": [
        {
          "indexed": false,
          "internalType": "uint256[]",
          "name": "tokenIds",
          "type": "uint256[]"
        },
        {
          "indexed": false,
          "internalType": "bool",
          "name": "isEligible",
          "type": "bool"
        }
      ],
      "name": "UniqueEligibilitiesSet",
      "type": "event"
    },
    {
      "inputs": [
        {
          "internalType": "uint256[]",
          "name": "tokenIds",
          "type": "uint256[]"
        }
      ],
      "name": "__NFTXEligibility_init",
      "outputs": [],
      "stateMutability": "nonpayable",
      "type": "function"
    },
    {
      "inputs": [
        {
          "internalType": "bytes",
          "name": "_configData",
          "type": "bytes"
        }
      ],
      "name": "__NFTXEligibility_init_bytes",
      "outputs": [],
      "stateMutability": "nonpayable",
      "type": "function"
    },
    {
      "inputs": [
        {
          "internalType": "uint256[]",
          "name": "tokenIds",
          "type": "uint256[]"
        }
      ],
      "name": "afterMintHook",
      "outputs": [],
      "stateMutability": "nonpayable",
      "type": "function"
    },
    {
      "inputs": [
        {
          "internalType": "uint256[]",
          "name": "tokenIds",
          "type": "uint256[]"
        }
      ],
      "name": "afterRedeemHook",
      "outputs": [],
      "stateMutability": "nonpayable",
      "type": "function"
    },
    {
      "inputs": [
        {
          "internalType": "uint256[]",
          "name": "tokenIds",
          "type": "uint256[]"
        }
      ],
      "name": "beforeMintHook",
      "outputs": [],
      "stateMutability": "nonpayable",
      "type": "function"
    },
    {
      "inputs": [
        {
          "internalType": "uint256[]",
          "name": "tokenIds",
          "type": "uint256[]"
        }
      ],
      "name": "beforeRedeemHook",
      "outputs": [],
      "stateMutability": "nonpayable",
      "type": "function"
    },
    {
      "inputs": [
        {
          "internalType": "uint256[]",
          "name": "tokenIds",
          "type": "uint256[]"
        }
      ],
      "name": "checkAllEligible",
      "outputs": [
        {
          "internalType": "bool",
          "name": "",
          "type": "bool"
        }
      ],
      "stateMutability": "view",
      "type": "function"
    },
    {
      "inputs": [
        {
          "internalType": "uint256[]",
          "name": "tokenIds",
          "type": "uint256[]"
        }
      ],
      "name": "checkAllIneligible",
      "outputs": [
        {
          "internalType": "bool",
          "name": "",
          "type": "bool"
        }
      ],
      "stateMutability": "view",
      "type": "function"
    },
    {
      "inputs": [
        {
          "internalType": "uint256[]",
          "name": "tokenIds",
          "type": "uint256[]"
        }
      ],
      "name": "checkEligible",
      "outputs": [
        {
          "internalType": "bool[]",
          "name": "",
          "type": "bool[]"
        }
      ],
      "stateMutability": "view",
      "type": "function"
    },
    {
      "inputs": [
        {
          "internalType": "uint256",
          "name": "tokenId",
          "type": "uint256"
        }
      ],
      "name": "checkIsEligible",
      "outputs": [
        {
          "internalType": "bool",
          "name": "",
          "type": "bool"
        }
      ],
      "stateMutability": "view",
      "type": "function"
    },
    {
      "inputs": [],
      "name": "finalized",
      "outputs": [
        {
          "internalType": "bool",
          "name": "",
          "type": "bool"
        }
      ],
      "stateMutability": "view",
      "type": "function"
    },
    {
      "inputs": [
        {
          "internalType": "uint256",
          "name": "tokenId",
          "type": "uint256"
        }
      ],
      "name": "isUniqueEligible",
      "outputs": [
        {
          "internalType": "bool",
          "name": "",
          "type": "bool"
        }
      ],
      "stateMutability": "view",
      "type": "function"
    },
    {
      "inputs": [],
      "name": "name",
      "outputs": [
        {
          "internalType": "string",
          "name": "",
          "type": "string"
        }
      ],
      "stateMutability": "pure",
      "type": "function"
    },
    {
      "inputs": [],
      "name": "targetAsset",
      "outputs": [
        {
          "internalType": "address",
          "name": "",
          "type": "address"
        }
      ],
      "stateMutability": "pure",
      "type": "function"
    }
  ],
  "transactionHash": "0xd82fc95eea1adc36dc3477f993bbc9a2a72481020946f7ef25bda4bffa9f10eb",
  "args": [],
  "numDeployments": 1,
  "solcInputHash": "86b1d24146f3ebe063a3e2d32a72fbad",
  "bytecode": "0x608060405234801561001057600080fd5b50610b85806100206000396000f3fe608060405234801561001057600080fd5b50600436106100ea5760003560e01c80636cd912601161008c578063bd8affde11610066578063bd8affde1461011e578063ca373f28146101b1578063d2a096e8146101c4578063facf895f146101d757600080fd5b80636cd912601461017757806384ca9f8514610197578063b3f05b97146101aa57600080fd5b80633d4403ac116100c85780633d4403ac146101555780634998b7f3146101645780635e2f9b521461011e5780636c47d5951461011e57600080fd5b806306fdde03146100ef57806336eb08621461011e5780633942cf3614610132575b600080fd5b6040805180820182526004815263131a5cdd60e21b602082015290516101159190610746565b60405180910390f35b61013061012c36600461079b565b5050565b005b610145610140366004610810565b6101ea565b6040519015158152602001610115565b60405160008152602001610115565b610130610172366004610870565b61021d565b61018a61018536600461079b565b61034e565b6040516101159190610905565b6101456101a536600461079b565b610403565b6001610145565b6101456101bf36600461079b565b610451565b6101456101d2366004610810565b610495565b6101306101e536600461096f565b6104a0565b6000806101f961010084610a1b565b60008181526001602052604090205490915061021581856105e4565b949350505050565b600054610100900460ff161580801561023d5750600054600160ff909116105b806102575750303b158015610257575060005460ff166001145b6102bf5760405162461bcd60e51b815260206004820152602e60248201527f496e697469616c697a61626c653a20636f6e747261637420697320616c72656160448201526d191e481a5b9a5d1a585b1a5e995960921b60648201526084015b60405180910390fd5b6000805460ff1916600117905580156102e2576000805461ff0019166101001790555b6000828060200190518101906102f89190610a2f565b9050610303816104a0565b50801561012c576000805461ff0019169055604051600181527f7f26b83ff96e1f2b6a682f133852f6798a09c465da95921460cefb3847402498906020015b60405180910390a15050565b60608160008167ffffffffffffffff81111561036c5761036c610829565b604051908082528060200260200182016040528015610395578160200160208202803683370190505b50905060005b828110156103f8576103c48686838181106103b8576103b8610ab5565b90506020020135610604565b8282815181106103d6576103d6610ab5565b91151560209283029190910190910152806103f081610acb565b91505061039b565b509150505b92915050565b600081815b81811015610446576104258585838181106103b8576103b8610ab5565b610434576000925050506103fd565b8061043e81610acb565b915050610408565b506001949350505050565b600081815b81811015610446576104738585838181106103b8576103b8610ab5565b15610483576000925050506103fd565b8061048d81610acb565b915050610456565b60006103fd82610604565b600054610100900460ff16158080156104c05750600054600160ff909116105b806104da5750303b1580156104da575060005460ff166001145b61053d5760405162461bcd60e51b815260206004820152602e60248201527f496e697469616c697a61626c653a20636f6e747261637420697320616c72656160448201526d191e481a5b9a5d1a585b1a5e995960921b60648201526084016102b6565b6000805460ff191660011790558015610560576000805461ff0019166101001790555b61056b82600161060f565b7f57c1f3c63f373f6f173119ab80d232a4a8ca7449a0bdb2f33f6188847539e7458260405161059a9190610b2d565b60405180910390a1801561012c576000805461ff0019169055604051600181527f7f26b83ff96e1f2b6a682f133852f6798a09c465da95921460cefb384740249890602001610342565b6000806105f361010084610b40565b9390931c6001908116149392505050565b60006103fd826101ea565b600080805260016020527fa6eef7e35abe7026729641147f7915573c7e97b47efa546f5f6e3230263bcb495490805b84518110156106bf57600085828151811061065b5761065b610ab5565b602002602001015190506000610100826106759190610a1b565b905083811461069d576000938452600160205260408085209590955580845293909220549291825b6106a8858388610711565b9450505080806106b790610acb565b91505061063e565b5060008181526001602052604090819020839055517ffacde3821ab1224682dd0ab6a805f71860b6ca6982ad044c8c4927ea4c6f1401906107039086908690610b54565b60405180910390a150505050565b60008061072061010085610b40565b90508215610735576001901b8417905061073f565b6001901b19841690505b9392505050565b600060208083528351808285015260005b8181101561077357858101830151858201604001528201610757565b81811115610785576000604083870101525b50601f01601f1916929092016040019392505050565b600080602083850312156107ae57600080fd5b823567ffffffffffffffff808211156107c657600080fd5b818501915085601f8301126107da57600080fd5b8135818111156107e957600080fd5b8660208260051b85010111156107fe57600080fd5b60209290920196919550909350505050565b60006020828403121561082257600080fd5b5035919050565b634e487b7160e01b600052604160045260246000fd5b604051601f8201601f1916810167ffffffffffffffff8111828210171561086857610868610829565b604052919050565b6000602080838503121561088357600080fd5b823567ffffffffffffffff8082111561089b57600080fd5b818501915085601f8301126108af57600080fd5b8135818111156108c1576108c1610829565b6108d3601f8201601f1916850161083f565b915080825286848285010111156108e957600080fd5b8084840185840137600090820190930192909252509392505050565b6020808252825182820181905260009190848201906040850190845b8181101561093f578351151583529284019291840191600101610921565b50909695505050505050565b600067ffffffffffffffff82111561096557610965610829565b5060051b60200190565b6000602080838503121561098257600080fd5b823567ffffffffffffffff81111561099957600080fd5b8301601f810185136109aa57600080fd5b80356109bd6109b88261094b565b61083f565b81815260059190911b820183019083810190878311156109dc57600080fd5b928401925b828410156109fa578335825292840192908401906109e1565b979650505050505050565b634e487b7160e01b600052601260045260246000fd5b600082610a2a57610a2a610a05565b500490565b60006020808385031215610a4257600080fd5b825167ffffffffffffffff811115610a5957600080fd5b8301601f81018513610a6a57600080fd5b8051610a786109b88261094b565b81815260059190911b82018301908381019087831115610a9757600080fd5b928401925b828410156109fa57835182529284019290840190610a9c565b634e487b7160e01b600052603260045260246000fd5b600060018201610aeb57634e487b7160e01b600052601160045260246000fd5b5060010190565b600081518084526020808501945080840160005b83811015610b2257815187529582019590820190600101610b06565b509495945050505050565b60208152600061073f6020830184610af2565b600082610b4f57610b4f610a05565b500690565b604081526000610b676040830185610af2565b90508215156020830152939250505056fea164736f6c634300080f000a",
  "devdoc": {
    "kind": "dev",
    "methods": {},
    "version": 1
  },
  "userdoc": {
    "kind": "user",
    "methods": {},
    "version": 1
  },
  "storageLayout": {
    "storage": [
      {
        "astId": 276,
        "contract": "src/v2/eligibility/NFTXListEligibility.sol:NFTXListEligibility",
        "label": "_initialized",
        "offset": 0,
        "slot": "0",
        "type": "t_uint8"
      },
      {
        "astId": 279,
        "contract": "src/v2/eligibility/NFTXListEligibility.sol:NFTXListEligibility",
        "label": "_initializing",
        "offset": 1,
        "slot": "0",
        "type": "t_bool"
      },
      {
        "astId": 42265,
        "contract": "src/v2/eligibility/NFTXListEligibility.sol:NFTXListEligibility",
        "label": "eligibleBitMap",
        "offset": 0,
        "slot": "1",
        "type": "t_mapping(t_uint256,t_uint256)"
      }
    ],
    "types": {
      "t_bool": {
        "encoding": "inplace",
        "label": "bool",
        "numberOfBytes": "1"
      },
      "t_mapping(t_uint256,t_uint256)": {
        "encoding": "mapping",
        "key": "t_uint256",
        "label": "mapping(uint256 => uint256)",
        "numberOfBytes": "32",
        "value": "t_uint256"
      },
      "t_uint256": {
        "encoding": "inplace",
        "label": "uint256",
        "numberOfBytes": "32"
      },
      "t_uint8": {
        "encoding": "inplace",
        "label": "uint8",
        "numberOfBytes": "1"
      }
    }
  }
}