{
  "address": "0x8c382E1Db8dd87E67D2D5Fc5368dbE4C385236e0",
  "abi": [
    {
      "inputs": [
        {
          "internalType": "contract IERC20",
          "name": "WETH_",
          "type": "address"
        },
        {
          "internalType": "contract IPermitAllowanceTransfer",
          "name": "PERMIT2_",
          "type": "address"
        },
        {
          "internalType": "contract INFTXVaultFactory",
          "name": "nftxVaultFactory_",
          "type": "address"
        }
      ],
      "stateMutability": "nonpayable",
      "type": "constructor"
    },
    {
      "inputs": [],
      "name": "InsufficientVTokens",
      "type": "error"
    },
    {
      "inputs": [],
      "name": "InvalidEarlyWithdrawPenalty",
      "type": "error"
    },
    {
      "inputs": [],
      "name": "NotPositionOwner",
      "type": "error"
    },
    {
      "inputs": [],
      "name": "ParentChildSame",
      "type": "error"
    },
    {
      "inputs": [],
      "name": "RedeemNotAllowedWithoutTimelock",
      "type": "error"
    },
    {
      "inputs": [],
      "name": "TimelockTooLong",
      "type": "error"
    },
    {
      "inputs": [],
      "name": "Timelocked",
      "type": "error"
    },
    {
      "inputs": [],
      "name": "VaultIdMismatch",
      "type": "error"
    },
    {
      "anonymous": false,
      "inputs": [
        {
          "indexed": true,
          "internalType": "address",
          "name": "owner",
          "type": "address"
        },
        {
          "indexed": true,
          "internalType": "address",
          "name": "approved",
          "type": "address"
        },
        {
          "indexed": true,
          "internalType": "uint256",
          "name": "tokenId",
          "type": "uint256"
        }
      ],
      "name": "Approval",
      "type": "event"
    },
    {
      "anonymous": false,
      "inputs": [
        {
          "indexed": true,
          "internalType": "address",
          "name": "owner",
          "type": "address"
        },
        {
          "indexed": true,
          "internalType": "address",
          "name": "operator",
          "type": "address"
        },
        {
          "indexed": false,
          "internalType": "bool",
          "name": "approved",
          "type": "bool"
        }
      ],
      "name": "ApprovalForAll",
      "type": "event"
    },
    {
      "anonymous": false,
      "inputs": [
        {
          "indexed": true,
          "internalType": "uint256",
          "name": "positionId",
          "type": "uint256"
        },
        {
          "indexed": false,
          "internalType": "uint256",
          "name": "wethAmount",
          "type": "uint256"
        }
      ],
      "name": "CollectWethFees",
      "type": "event"
    },
    {
      "anonymous": false,
      "inputs": [
        {
          "indexed": true,
          "internalType": "uint256",
          "name": "vaultId",
          "type": "uint256"
        },
        {
          "indexed": true,
          "internalType": "uint256",
          "name": "positionId",
          "type": "uint256"
        },
        {
          "indexed": false,
          "internalType": "uint256",
          "name": "amount",
          "type": "uint256"
        }
      ],
      "name": "Deposit",
      "type": "event"
    },
    {
      "anonymous": false,
      "inputs": [
        {
          "indexed": true,
          "internalType": "uint256",
          "name": "vaultId",
          "type": "uint256"
        },
        {
          "indexed": true,
          "internalType": "uint256",
          "name": "positionId",
          "type": "uint256"
        },
        {
          "indexed": false,
          "internalType": "uint256",
          "name": "amount",
          "type": "uint256"
        }
      ],
      "name": "DepositWithNFT",
      "type": "event"
    },
    {
      "anonymous": false,
      "inputs": [
        {
          "indexed": false,
          "internalType": "uint8",
          "name": "version",
          "type": "uint8"
        }
      ],
      "name": "Initialized",
      "type": "event"
    },
    {
      "anonymous": false,
      "inputs": [
        {
          "indexed": true,
          "internalType": "address",
          "name": "previousOwner",
          "type": "address"
        },
        {
          "indexed": true,
          "internalType": "address",
          "name": "newOwner",
          "type": "address"
        }
      ],
      "name": "OwnershipTransferred",
      "type": "event"
    },
    {
      "anonymous": false,
      "inputs": [
        {
          "indexed": false,
          "internalType": "address",
          "name": "addr",
          "type": "address"
        },
        {
          "indexed": false,
          "internalType": "bool",
          "name": "isGuardian",
          "type": "bool"
        }
      ],
      "name": "SetIsGuardian",
      "type": "event"
    },
    {
      "anonymous": false,
      "inputs": [
        {
          "indexed": false,
          "internalType": "uint256",
          "name": "lockId",
          "type": "uint256"
        },
        {
          "indexed": false,
          "internalType": "bool",
          "name": "paused",
          "type": "bool"
        }
      ],
      "name": "SetPaused",
      "type": "event"
    },
    {
      "anonymous": false,
      "inputs": [
        {
          "indexed": true,
          "internalType": "address",
          "name": "from",
          "type": "address"
        },
        {
          "indexed": true,
          "internalType": "address",
          "name": "to",
          "type": "address"
        },
        {
          "indexed": true,
          "internalType": "uint256",
          "name": "tokenId",
          "type": "uint256"
        }
      ],
      "name": "Transfer",
      "type": "event"
    },
    {
      "anonymous": false,
      "inputs": [
        {
          "indexed": false,
          "internalType": "uint256",
          "name": "newEarlyWithdrawPenaltyInWei",
          "type": "uint256"
        }
      ],
      "name": "UpdateEarlyWithdrawPenalty",
      "type": "event"
    },
    {
      "anonymous": false,
      "inputs": [
        {
          "indexed": false,
          "internalType": "uint256",
          "name": "newTimelock",
          "type": "uint256"
        }
      ],
      "name": "UpdateTimelock",
      "type": "event"
    },
    {
      "anonymous": false,
      "inputs": [
        {
          "indexed": true,
          "internalType": "uint256",
          "name": "positionId",
          "type": "uint256"
        },
        {
          "indexed": false,
          "internalType": "uint256",
          "name": "vTokenShares",
          "type": "uint256"
        },
        {
          "indexed": false,
          "internalType": "uint256",
          "name": "vTokenAmount",
          "type": "uint256"
        },
        {
          "indexed": false,
          "internalType": "uint256",
          "name": "wethAmount",
          "type": "uint256"
        }
      ],
      "name": "Withdraw",
      "type": "event"
    },
    {
      "inputs": [],
      "name": "CRYPTO_PUNKS",
      "outputs": [
        {
          "internalType": "address",
          "name": "",
          "type": "address"
        }
      ],
      "stateMutability": "view",
      "type": "function"
    },
    {
      "inputs": [],
      "name": "PERMIT2",
      "outputs": [
        {
          "internalType": "contract IPermitAllowanceTransfer",
          "name": "",
          "type": "address"
        }
      ],
      "stateMutability": "view",
      "type": "function"
    },
    {
      "inputs": [],
      "name": "WETH",
      "outputs": [
        {
          "internalType": "contract IERC20",
          "name": "",
          "type": "address"
        }
      ],
      "stateMutability": "view",
      "type": "function"
    },
    {
      "inputs": [
        {
          "internalType": "uint256",
          "name": "timelock_",
          "type": "uint256"
        },
        {
          "internalType": "uint256",
          "name": "earlyWithdrawPenaltyInWei_",
          "type": "uint256"
        },
        {
          "internalType": "contract ITimelockExcludeList",
          "name": "timelockExcludeList_",
          "type": "address"
        }
      ],
      "name": "__NFTXInventoryStaking_init",
      "outputs": [],
      "stateMutability": "nonpayable",
      "type": "function"
    },
    {
      "inputs": [
        {
          "internalType": "address",
          "name": "to",
          "type": "address"
        },
        {
          "internalType": "uint256",
          "name": "tokenId",
          "type": "uint256"
        }
      ],
      "name": "approve",
      "outputs": [],
      "stateMutability": "nonpayable",
      "type": "function"
    },
    {
      "inputs": [
        {
          "internalType": "address",
          "name": "owner",
          "type": "address"
        }
      ],
      "name": "balanceOf",
      "outputs": [
        {
          "internalType": "uint256",
          "name": "",
          "type": "uint256"
        }
      ],
      "stateMutability": "view",
      "type": "function"
    },
    {
      "inputs": [
        {
          "internalType": "uint256",
          "name": "positionId",
          "type": "uint256"
        }
      ],
      "name": "collectWethFees",
      "outputs": [],
      "stateMutability": "nonpayable",
      "type": "function"
    },
    {
      "inputs": [
        {
          "internalType": "uint256",
          "name": "parentPositionId",
          "type": "uint256"
        },
        {
          "internalType": "uint256[]",
          "name": "childPositionIds",
          "type": "uint256[]"
        }
      ],
      "name": "combinePositions",
      "outputs": [],
      "stateMutability": "nonpayable",
      "type": "function"
    },
    {
      "inputs": [
        {
          "internalType": "uint256",
          "name": "vaultId",
          "type": "uint256"
        },
        {
          "internalType": "uint256",
          "name": "amount",
          "type": "uint256"
        },
        {
          "internalType": "address",
          "name": "recipient",
          "type": "address"
        }
      ],
      "name": "deposit",
      "outputs": [
        {
          "internalType": "uint256",
          "name": "positionId",
          "type": "uint256"
        }
      ],
      "stateMutability": "nonpayable",
      "type": "function"
    },
    {
      "inputs": [
        {
          "internalType": "uint256",
          "name": "vaultId",
          "type": "uint256"
        },
        {
          "internalType": "uint256[]",
          "name": "tokenIds",
          "type": "uint256[]"
        },
        {
          "internalType": "address",
          "name": "recipient",
          "type": "address"
        }
      ],
      "name": "depositWithNFT",
      "outputs": [
        {
          "internalType": "uint256",
          "name": "positionId",
          "type": "uint256"
        }
      ],
      "stateMutability": "nonpayable",
      "type": "function"
    },
    {
      "inputs": [
        {
          "internalType": "uint256",
          "name": "vaultId",
          "type": "uint256"
        },
        {
          "internalType": "uint256",
          "name": "amount",
          "type": "uint256"
        },
        {
          "internalType": "address",
          "name": "recipient",
          "type": "address"
        },
        {
          "internalType": "bytes",
          "name": "encodedPermit2",
          "type": "bytes"
        }
      ],
      "name": "depositWithPermit2",
      "outputs": [
        {
          "internalType": "uint256",
          "name": "positionId",
          "type": "uint256"
        }
      ],
      "stateMutability": "nonpayable",
      "type": "function"
    },
    {
      "inputs": [],
      "name": "earlyWithdrawPenaltyInWei",
      "outputs": [
        {
          "internalType": "uint256",
          "name": "",
          "type": "uint256"
        }
      ],
      "stateMutability": "view",
      "type": "function"
    },
    {
      "inputs": [
        {
          "internalType": "uint256",
          "name": "tokenId",
          "type": "uint256"
        }
      ],
      "name": "getApproved",
      "outputs": [
        {
          "internalType": "address",
          "name": "",
          "type": "address"
        }
      ],
      "stateMutability": "view",
      "type": "function"
    },
    {
      "inputs": [
        {
          "internalType": "address",
          "name": "owner",
          "type": "address"
        },
        {
          "internalType": "address",
          "name": "operator",
          "type": "address"
        }
      ],
      "name": "isApprovedForAll",
      "outputs": [
        {
          "internalType": "bool",
          "name": "",
          "type": "bool"
        }
      ],
      "stateMutability": "view",
      "type": "function"
    },
    {
      "inputs": [
        {
          "internalType": "address",
          "name": "",
          "type": "address"
        }
      ],
      "name": "isGuardian",
      "outputs": [
        {
          "internalType": "bool",
          "name": "",
          "type": "bool"
        }
      ],
      "stateMutability": "view",
      "type": "function"
    },
    {
      "inputs": [
        {
          "internalType": "uint256",
          "name": "",
          "type": "uint256"
        }
      ],
      "name": "isPaused",
      "outputs": [
        {
          "internalType": "bool",
          "name": "",
          "type": "bool"
        }
      ],
      "stateMutability": "view",
      "type": "function"
    },
    {
      "inputs": [],
      "name": "name",
      "outputs": [
        {
          "internalType": "string",
          "name": "",
          "type": "string"
        }
      ],
      "stateMutability": "view",
      "type": "function"
    },
    {
      "inputs": [],
      "name": "nftxVaultFactory",
      "outputs": [
        {
          "internalType": "contract INFTXVaultFactory",
          "name": "",
          "type": "address"
        }
      ],
      "stateMutability": "view",
      "type": "function"
    },
    {
      "inputs": [
        {
          "internalType": "uint256",
          "name": "lockId",
          "type": "uint256"
        }
      ],
      "name": "onlyOwnerIfPaused",
      "outputs": [],
      "stateMutability": "view",
      "type": "function"
    },
    {
      "inputs": [],
      "name": "owner",
      "outputs": [
        {
          "internalType": "address",
          "name": "",
          "type": "address"
        }
      ],
      "stateMutability": "view",
      "type": "function"
    },
    {
      "inputs": [
        {
          "internalType": "uint256",
          "name": "tokenId",
          "type": "uint256"
        }
      ],
      "name": "ownerOf",
      "outputs": [
        {
          "internalType": "address",
          "name": "",
          "type": "address"
        }
      ],
      "stateMutability": "view",
      "type": "function"
    },
    {
      "inputs": [
        {
          "internalType": "uint256",
          "name": "lockId",
          "type": "uint256"
        }
      ],
      "name": "pause",
      "outputs": [],
      "stateMutability": "nonpayable",
      "type": "function"
    },
    {
      "inputs": [
        {
          "internalType": "uint256",
          "name": "",
          "type": "uint256"
        }
      ],
      "name": "positions",
      "outputs": [
        {
          "internalType": "uint256",
          "name": "nonce",
          "type": "uint256"
        },
        {
          "internalType": "uint256",
          "name": "vaultId",
          "type": "uint256"
        },
        {
          "internalType": "uint256",
          "name": "timelockedUntil",
          "type": "uint256"
        },
        {
          "internalType": "uint256",
          "name": "vTokenShareBalance",
          "type": "uint256"
        },
        {
          "internalType": "uint256",
          "name": "wethFeesPerVTokenShareSnapshotX128",
          "type": "uint256"
        },
        {
          "internalType": "uint256",
          "name": "wethOwed",
          "type": "uint256"
        }
      ],
      "stateMutability": "view",
      "type": "function"
    },
    {
      "inputs": [
        {
          "internalType": "uint256",
          "name": "vaultId",
          "type": "uint256"
        }
      ],
      "name": "pricePerShareVToken",
      "outputs": [
        {
          "internalType": "uint256",
          "name": "",
          "type": "uint256"
        }
      ],
      "stateMutability": "view",
      "type": "function"
    },
    {
      "inputs": [
        {
          "internalType": "uint256",
          "name": "vaultId",
          "type": "uint256"
        },
        {
          "internalType": "uint256",
          "name": "amount",
          "type": "uint256"
        },
        {
          "internalType": "bool",
          "name": "isRewardWeth",
          "type": "bool"
        }
      ],
      "name": "receiveRewards",
      "outputs": [
        {
          "internalType": "bool",
          "name": "rewardsDistributed",
          "type": "bool"
        }
      ],
      "stateMutability": "nonpayable",
      "type": "function"
    },
    {
      "inputs": [],
      "name": "renounceOwnership",
      "outputs": [],
      "stateMutability": "nonpayable",
      "type": "function"
    },
    {
      "inputs": [
        {
          "internalType": "address",
          "name": "from",
          "type": "address"
        },
        {
          "internalType": "address",
          "name": "to",
          "type": "address"
        },
        {
          "internalType": "uint256",
          "name": "tokenId",
          "type": "uint256"
        }
      ],
      "name": "safeTransferFrom",
      "outputs": [],
      "stateMutability": "nonpayable",
      "type": "function"
    },
    {
      "inputs": [
        {
          "internalType": "address",
          "name": "from",
          "type": "address"
        },
        {
          "internalType": "address",
          "name": "to",
          "type": "address"
        },
        {
          "internalType": "uint256",
          "name": "tokenId",
          "type": "uint256"
        },
        {
          "internalType": "bytes",
          "name": "data",
          "type": "bytes"
        }
      ],
      "name": "safeTransferFrom",
      "outputs": [],
      "stateMutability": "nonpayable",
      "type": "function"
    },
    {
      "inputs": [
        {
          "internalType": "address",
          "name": "operator",
          "type": "address"
        },
        {
          "internalType": "bool",
          "name": "approved",
          "type": "bool"
        }
      ],
      "name": "setApprovalForAll",
      "outputs": [],
      "stateMutability": "nonpayable",
      "type": "function"
    },
    {
      "inputs": [
        {
          "internalType": "uint256",
          "name": "earlyWithdrawPenaltyInWei_",
          "type": "uint256"
        }
      ],
      "name": "setEarlyWithdrawPenalty",
      "outputs": [],
      "stateMutability": "nonpayable",
      "type": "function"
    },
    {
      "inputs": [
        {
          "internalType": "address",
          "name": "addr",
          "type": "address"
        },
        {
          "internalType": "bool",
          "name": "_isGuardian",
          "type": "bool"
        }
      ],
      "name": "setIsGuardian",
      "outputs": [],
      "stateMutability": "nonpayable",
      "type": "function"
    },
    {
      "inputs": [
        {
          "internalType": "uint256",
          "name": "timelock_",
          "type": "uint256"
        }
      ],
      "name": "setTimelock",
      "outputs": [],
      "stateMutability": "nonpayable",
      "type": "function"
    },
    {
      "inputs": [
        {
          "internalType": "bytes4",
          "name": "interfaceId",
          "type": "bytes4"
        }
      ],
      "name": "supportsInterface",
      "outputs": [
        {
          "internalType": "bool",
          "name": "",
          "type": "bool"
        }
      ],
      "stateMutability": "view",
      "type": "function"
    },
    {
      "inputs": [],
      "name": "symbol",
      "outputs": [
        {
          "internalType": "string",
          "name": "",
          "type": "string"
        }
      ],
      "stateMutability": "view",
      "type": "function"
    },
    {
      "inputs": [],
      "name": "timelock",
      "outputs": [
        {
          "internalType": "uint256",
          "name": "",
          "type": "uint256"
        }
      ],
      "stateMutability": "view",
      "type": "function"
    },
    {
      "inputs": [],
      "name": "timelockExcludeList",
      "outputs": [
        {
          "internalType": "contract ITimelockExcludeList",
          "name": "",
          "type": "address"
        }
      ],
      "stateMutability": "view",
      "type": "function"
    },
    {
      "inputs": [
        {
          "internalType": "uint256",
          "name": "tokenId",
          "type": "uint256"
        }
      ],
      "name": "tokenURI",
      "outputs": [
        {
          "internalType": "string",
          "name": "",
          "type": "string"
        }
      ],
      "stateMutability": "view",
      "type": "function"
    },
    {
      "inputs": [
        {
          "internalType": "address",
          "name": "from",
          "type": "address"
        },
        {
          "internalType": "address",
          "name": "to",
          "type": "address"
        },
        {
          "internalType": "uint256",
          "name": "tokenId",
          "type": "uint256"
        }
      ],
      "name": "transferFrom",
      "outputs": [],
      "stateMutability": "nonpayable",
      "type": "function"
    },
    {
      "inputs": [
        {
          "internalType": "address",
          "name": "newOwner",
          "type": "address"
        }
      ],
      "name": "transferOwnership",
      "outputs": [],
      "stateMutability": "nonpayable",
      "type": "function"
    },
    {
      "inputs": [
        {
          "internalType": "uint256",
          "name": "lockId",
          "type": "uint256"
        }
      ],
      "name": "unpause",
      "outputs": [],
      "stateMutability": "nonpayable",
      "type": "function"
    },
    {
      "inputs": [
        {
          "internalType": "uint256",
          "name": "",
          "type": "uint256"
        }
      ],
      "name": "vaultGlobal",
      "outputs": [
        {
          "internalType": "uint256",
          "name": "netVTokenBalance",
          "type": "uint256"
        },
        {
          "internalType": "uint256",
          "name": "totalVTokenShares",
          "type": "uint256"
        },
        {
          "internalType": "uint256",
          "name": "globalWethFeesPerVTokenShareX128",
          "type": "uint256"
        }
      ],
      "stateMutability": "view",
      "type": "function"
    },
    {
      "inputs": [
        {
          "internalType": "uint256",
          "name": "positionId",
          "type": "uint256"
        },
        {
          "internalType": "uint256",
          "name": "vTokenShares",
          "type": "uint256"
        },
        {
          "internalType": "uint256[]",
          "name": "nftIds",
          "type": "uint256[]"
        }
      ],
      "name": "withdraw",
      "outputs": [],
      "stateMutability": "nonpayable",
      "type": "function"
    }
  ],
  "transactionHash": "0x3b30c4ca0fb0492ebfa5a1980de80a71d62187244e0333b3531abb62db2d60b9",
  "args": [
    "0xB4FBF271143F4FBf7B91A5ded31805e42b2208d6",
    "0x000000000022d473030f116ddee9f6b43ac78ba3",
    "0xD4dB45012231b667F8530F3965f65329d0D5b5F4"
  ],
  "numDeployments": 1,
  "solcInputHash": "9222f6b98937f29b801390260551c588",
  "bytecode": "0x60e0604052600160cc553480156200001657600080fd5b50604051620041a6380380620041a6833981016040819052620000399162000070565b6001600160a01b0392831660805290821660a0521660c052620000c4565b6001600160a01b03811681146200006d57600080fd5b50565b6000806000606084860312156200008657600080fd5b8351620000938162000057565b6020850151909350620000a68162000057565b6040850151909250620000b98162000057565b809150509250925092565b60805160a05160c05161405e62000148600039600081816104230152818161097f0152818161136f0152818161169501528181611824015281816119f201528181611b9f0152611f7601526000818161049f0152818161201301526120ca0152600081816105c90152818161192801528181611adf01526121fd015261405e6000f3fe608060405234801561001057600080fd5b50600436106102de5760003560e01c80637c77b61611610186578063b88d4fde116100e3578063c87b56dd11610097578063eb9eb1ad11610071578063eb9eb1ad146106fc578063f2fde38b1461070f578063fabc1cbc1461072257600080fd5b8063c87b56dd146106a4578063d33219b4146106b7578063e985e9c5146106c057600080fd5b8063bea043f6116100c8578063bea043f61461066b578063c218e1c01461067e578063c3228bd81461069157600080fd5b8063b88d4fde14610635578063bdf2a43c1461064857600080fd5b8063a22cb4651161013a578063ac7da9981161011f578063ac7da998146105b1578063ad5c4648146105c4578063b600b097146105eb57600080fd5b8063a22cb4651461058b578063a9ef68801461059e57600080fd5b80638dbdbe6d1161016b5780638dbdbe6d1461050057806395d89b411461051357806399fbab881461051b57600080fd5b80637c77b616146104dc5780638da5cb5b146104ef57600080fd5b806323845fb51161023f57806363217646116101f35780636afdd850116101cd5780636afdd8501461049a57806370a08231146104c1578063715018a6146104d457600080fd5b806363217646146104615780636352211e146104745780636958908a1461048757600080fd5b80633801daf1116102245780633801daf11461041e5780633fe55a791461044557806342842e0e1461044e57600080fd5b806323845fb5146103f857806323b872dd1461040b57600080fd5b80630db56fd911610296578063136439dd1161027b578063136439dd146103b75780631d328136146103ca5780631e891c0a146103e557600080fd5b80630db56fd91461038357806311ad9d38146103a457600080fd5b8063081812fc116102c7578063081812fc14610320578063095ea7b31461034b5780630c68ba211461036057600080fd5b806301ffc9a7146102e357806306fdde031461030b575b600080fd5b6102f66102f13660046135aa565b610735565b60405190151581526020015b60405180910390f35b610313610787565b604051610302919061361f565b61033361032e366004613632565b610819565b6040516001600160a01b039091168152602001610302565b61035e610359366004613670565b610840565b005b6102f661036e36600461369c565b60c96020526000908152604090205460ff1681565b610396610391366004613705565b61095a565b604051908152602001610302565b60cb54610333906001600160a01b031681565b61035e6103c5366004613632565b610d57565b61033373b47e3cd837ddf8e4c57f05d70ab865de6e193bbb81565b61035e6103f3366004613632565b610e0e565b61035e610406366004613772565b610e6f565b61035e6104193660046137ab565b610eda565b6103337f000000000000000000000000000000000000000000000000000000000000000081565b61039660ce5481565b61035e61045c3660046137ab565b610f51565b61035e61046f366004613632565b610f6c565b610333610482366004613632565b610fd2565b61035e6104953660046137ec565b611037565b6103337f000000000000000000000000000000000000000000000000000000000000000081565b6103966104cf36600461369c565b611227565b61035e6112c1565b61035e6104ea366004613632565b6112d5565b6097546001600160a01b0316610333565b61039661050e3660046137ec565b61134c565b610313611481565b61055e610529366004613632565b60cf60205260009081526040902080546001820154600283015460038401546004850154600590950154939492939192909186565b604080519687526020870195909552938501929092526060840152608083015260a082015260c001610302565b61035e610599366004613772565b611490565b61035e6105ac366004613825565b61149f565b6102f66105bf366004613878565b6119ee565b6103337f000000000000000000000000000000000000000000000000000000000000000081565b61061a6105f9366004613632565b60d06020526000908152604090208054600182015460029092015490919083565b60408051938452602084019290925290820152606001610302565b61035e610643366004613995565b611cb0565b6102f6610656366004613632565b60ca6020526000908152604090205460ff1681565b61035e610679366004613a01565b611d28565b61039661068c366004613a4d565b611f53565b61035e61069f366004613632565b612140565b6103136106b2366004613632565b6122b3565b61039660cd5481565b6102f66106ce366004613ae3565b6001600160a01b039182166000908152606a6020908152604080832093909416825291909152205460ff1690565b61039661070a366004613632565b612326565b61035e61071d36600461369c565b612357565b61035e610730366004613632565b6123e4565b60006001600160e01b031982166380ac58cd60e01b148061076657506001600160e01b03198216635b5e139f60e01b145b8061078157506301ffc9a760e01b6001600160e01b03198316145b92915050565b60606065805461079690613b11565b80601f01602080910402602001604051908101604052809291908181526020018280546107c290613b11565b801561080f5780601f106107e45761010080835404028352916020019161080f565b820191906000526020600020905b8154815290600101906020018083116107f257829003601f168201915b5050505050905090565b600061082482612439565b506000908152606960205260409020546001600160a01b031690565b600061084b82610fd2565b9050806001600160a01b0316836001600160a01b0316036108bd5760405162461bcd60e51b815260206004820152602160248201527f4552433732313a20617070726f76616c20746f2063757272656e74206f776e656044820152603960f91b60648201526084015b60405180910390fd5b336001600160a01b03821614806108d957506108d981336106ce565b61094b5760405162461bcd60e51b815260206004820152603d60248201527f4552433732313a20617070726f76652063616c6c6572206973206e6f7420746f60448201527f6b656e206f776e6572206f7220617070726f76656420666f7220616c6c00000060648201526084016108b4565b610955838361249d565b505050565b600061096660016112d5565b6040516340d1b7db60e11b8152600481018690526000907f00000000000000000000000000000000000000000000000000000000000000006001600160a01b0316906381a36fb690602401602060405180830381865afa1580156109ce573d6000803e3d6000fd5b505050506040513d601f19601f820116820180604052508101906109f29190613b4b565b9050600080826001600160a01b0316631ba46cfd6040518163ffffffff1660e01b8152600401602060405180830381865afa158015610a35573d6000803e3d6000fd5b505050506040513d601f19601f82011682018060405250810190610a599190613b4b565b905060005b86811015610ae457610a8982898984818110610a7c57610a7c613b68565b905060200201358661250b565b7fffffffffffffffffffffffff4b81c327c822071b3a80fa28f5479a2191e6c4456001600160a01b03831601610adc57610adc82898984818110610acf57610acf613b68565b9050602002013586612769565b600101610a5e565b50604051630f57464360e21b81526060906001600160a01b03851690633d5d190c90610b18908b908b908690600401613bcd565b6020604051808303816000875af1158015610b37573d6000803e3d6000fd5b505050506040513d601f19601f82011682018060405250810190610b5b9190613c26565b610b6d90670de0b6b3a7640000613c55565b60008a815260d060205260409020805491945092509050610b8e8382613c74565b825560cc8054610bb2918891906000610ba683613c8c565b919050559650866127d8565b60008260010154600003610bc7575082610be5565b81836001015485610bd89190613c55565b610be29190613ca5565b90505b80836001016000828254610bf99190613c74565b90915550506040805160c08101825260008152602081018c905260cb5482516340f4bdb360e11b8152336004820152602481018e905291928301916001600160a01b03909116906381e97b6690604401602060405180830381865afa158015610c66573d6000803e3d6000fd5b505050506040513d601f19601f82011682018060405250810190610c8a9190613cc7565b610ca05760cd54610c9b9042613c74565b610ca3565b60005b815260200182815260200184600201548152602001600081525060cf6000888152602001908152602001600020600082015181600001556020820151816001015560408201518160020155606082015181600301556080820151816004015560a08201518160050155905050858a7fce6e203389dd6768188f1c64eebcb31399a100861ea3fd70e82f6fbdca61d9bd86604051610d4291815260200190565b60405180910390a35050505050949350505050565b33600090815260c9602052604090205460ff16610db65760405162461bcd60e51b815260206004820152600b60248201527f43616e277420706175736500000000000000000000000000000000000000000060448201526064016108b4565b600081815260ca6020908152604091829020805460ff191660019081179091558251848152918201527f77f1fcfcce67dc392d64f842056d2ec06c80986c47c910f7e79c5b23a2738d7491015b60405180910390a150565b610e16612971565b62127500811115610e3a57604051632e3f1a4f60e11b815260040160405180910390fd5b60cd8190556040518181527f3f47be1c59f91dd77b0405841040375182d63a17283ebd12d693eafc4f4cb0a490602001610e03565b610e77612971565b6001600160a01b038216600081815260c96020908152604091829020805460ff19168515159081179091558251938452908301527fd0b6b573d5442f7c29fd50d9735ae341581c25c6ed07748d50eda519f1ffa88a910160405180910390a15050565b610ee433826129cb565b610f465760405162461bcd60e51b815260206004820152602d60248201527f4552433732313a2063616c6c6572206973206e6f7420746f6b656e206f776e6560448201526c1c881bdc88185c1c1c9bdd9959609a1b60648201526084016108b4565b610955838383612a4a565b61095583838360405180602001604052806000815250611cb0565b610f74612971565b670de0b6b3a7640000811115610f9d5760405163d4e762d360e01b815260040160405180910390fd5b60ce8190556040518181527fe67adf0c7384bc9adca9b8731cce58f5152177d298f7daf243df4a702d2c75d790602001610e03565b6000818152606760205260408120546001600160a01b0316806107815760405162461bcd60e51b815260206004820152601860248201527f4552433732313a20696e76616c696420746f6b656e204944000000000000000060448201526064016108b4565b600054610100900460ff16158080156110575750600054600160ff909116105b806110715750303b158015611071575060005460ff166001145b6110e35760405162461bcd60e51b815260206004820152602e60248201527f496e697469616c697a61626c653a20636f6e747261637420697320616c72656160448201527f647920696e697469616c697a656400000000000000000000000000000000000060648201526084016108b4565b6000805460ff191660011790558015611106576000805461ff0019166101001790555b6111616040518060400160405280601681526020017f4e46545820496e76656e746f7279205374616b696e6700000000000000000000815250604051806040016040528060048152602001631e13919560e21b815250612c37565b611169612cac565b6212750084111561118d57604051632e3f1a4f60e11b815260040160405180910390fd5b670de0b6b3a76400008311156111b65760405163d4e762d360e01b815260040160405180910390fd5b60cd84905560ce83905560cb80546001600160a01b0319166001600160a01b0384161790558015611221576000805461ff0019169055604051600181527f7f26b83ff96e1f2b6a682f133852f6798a09c465da95921460cefb38474024989060200160405180910390a15b50505050565b60006001600160a01b0382166112a55760405162461bcd60e51b815260206004820152602960248201527f4552433732313a2061646472657373207a65726f206973206e6f74206120766160448201527f6c6964206f776e6572000000000000000000000000000000000000000000000060648201526084016108b4565b506001600160a01b031660009081526068602052604090205490565b6112c9612971565b6112d36000612d1f565b565b600081815260ca602052604090205460ff1615806112fd57506097546001600160a01b031633145b6113495760405162461bcd60e51b815260206004820152600660248201527f506175736564000000000000000000000000000000000000000000000000000060448201526064016108b4565b50565b6040516340d1b7db60e11b81526004810184905260009081906001600160a01b037f000000000000000000000000000000000000000000000000000000000000000016906381a36fb690602401602060405180830381865afa1580156113b6573d6000803e3d6000fd5b505050506040513d601f19601f820116820180604052508101906113da9190613b4b565b600086815260d0602052604090819020805491516323b872dd60e01b815233600482015230602482015260448101889052929350916001600160a01b038416906323b872dd906064016020604051808303816000875af1158015611442573d6000803e3d6000fd5b505050506040513d601f19601f820116820180604052508101906114669190613cc7565b506114748787878585612d71565b93505050505b9392505050565b60606066805461079690613b11565b61149b338383612ea9565b5050565b6114a960026112d5565b336114b385610fd2565b6001600160a01b0316146114da576040516370d645e360e01b815260040160405180910390fd5b600084815260cf602052604090206003810154848110156114fa57600080fd5b600180830154600081815260d060205260408120928301548354929392611522908a90613c55565b61152c9190613ca5565b905060008560050154611548846002015488600401548c612f77565b6115529190613c74565b60028085015460048901556000600589015587015490915042116115ca57600060cd54670de0b6b3a76400006115889190613c55565b60ce5484428a6002015461159c9190613ce4565b6115a69190613c55565b6115b09190613c55565b6115ba9190613ca5565b90506115c68184613ce4565b9250505b818360000160008282546115de9190613ce4565b92505081905550888360010160008282546115f99190613ce4565b92505081905550888660030160008282546116149190613ce4565b90915550879050801561180e578660020154600003611645576040516275453960e11b815260040160405180910390fd5b600061165982670de0b6b3a7640000613c55565b90508084101561167c57604051637ba9ca1b60e01b815260040160405180910390fd5b6040516340d1b7db60e11b8152600481018790526000907f00000000000000000000000000000000000000000000000000000000000000006001600160a01b0316906381a36fb690602401602060405180830381865afa1580156116e4573d6000803e3d6000fd5b505050506040513d601f19601f820116820180604052508101906117089190613b4b565b60405163deb190f160e01b81529091506001600160a01b0382169063deb190f19061173b908e908e903390600401613cfb565b6020604051808303816000875af115801561175a573d6000803e3d6000fd5b505050506040513d601f19601f8201168201806040525081019061177e9190613c26565b50600061178b8387613ce4565b905080156118065760405163a9059cbb60e01b8152336004820152602481018290526001600160a01b0383169063a9059cbb906044016020604051808303816000875af11580156117e0573d6000803e3d6000fd5b505050506040513d601f19601f820116820180604052508101906118049190613cc7565b505b50505061190c565b6040516340d1b7db60e11b8152600481018690527f00000000000000000000000000000000000000000000000000000000000000006001600160a01b0316906381a36fb690602401602060405180830381865afa158015611873573d6000803e3d6000fd5b505050506040513d601f19601f820116820180604052508101906118979190613b4b565b60405163a9059cbb60e01b8152336004820152602481018590526001600160a01b03919091169063a9059cbb906044016020604051808303816000875af11580156118e6573d6000803e3d6000fd5b505050506040513d601f19601f8201168201806040525081019061190a9190613cc7565b505b60405163a9059cbb60e01b8152336004820152602481018390527f00000000000000000000000000000000000000000000000000000000000000006001600160a01b03169063a9059cbb906044016020604051808303816000875af1158015611979573d6000803e3d6000fd5b505050506040513d601f19601f8201168201806040525081019061199d9190613cc7565b50604080518b8152602081018590529081018390528b907fb088a38065873c9d2da855cf4a2e4aa012b28e45ead53c5b9edbcf71614cfb239060600160405180910390a25050505050505050505050565b60007f00000000000000000000000000000000000000000000000000000000000000006001600160a01b0316630d43e8ad6040518163ffffffff1660e01b8152600401602060405180830381865afa158015611a4e573d6000803e3d6000fd5b505050506040513d601f19601f82011682018060405250810190611a729190613b4b565b6001600160a01b0316336001600160a01b031614611a8f57600080fd5b600084815260d0602052604081206001810154909103611ab357600091505061147a565b600191508215611b86576040516323b872dd60e01b8152336004820152306024820152604481018590527f00000000000000000000000000000000000000000000000000000000000000006001600160a01b0316906323b872dd906064016020604051808303816000875af1158015611b30573d6000803e3d6000fd5b505050506040513d601f19601f82011682018060405250810190611b549190613cc7565b50611b6884600160801b8360010154612f8d565b816002016000828254611b7b9190613c74565b90915550611ca89050565b6040516340d1b7db60e11b8152600481018690526000907f00000000000000000000000000000000000000000000000000000000000000006001600160a01b0316906381a36fb690602401602060405180830381865afa158015611bee573d6000803e3d6000fd5b505050506040513d601f19601f82011682018060405250810190611c129190613b4b565b6040516323b872dd60e01b8152336004820152306024820152604481018790529091506001600160a01b038216906323b872dd906064016020604051808303816000875af1158015611c68573d6000803e3d6000fd5b505050506040513d601f19601f82011682018060405250810190611c8c9190613cc7565b5084826000016000828254611ca19190613c74565b9091555050505b509392505050565b611cba33836129cb565b611d1c5760405162461bcd60e51b815260206004820152602d60248201527f4552433732313a2063616c6c6572206973206e6f7420746f6b656e206f776e6560448201526c1c881bdc88185c1c1c9bdd9959609a1b60648201526084016108b4565b6112218484848461303f565b33611d3284610fd2565b6001600160a01b031614611d59576040516370d645e360e01b815260040160405180910390fd5b600083815260cf60209081526040808320600181015480855260d0909352922060028301544211611d9d5760405163774ae17d60e01b815260040160405180910390fd5b6000611db6826002015485600401548660030154612f77565b90508460005b81811015611f225788888883818110611dd757611dd7613b68565b9050602002013503611dfc5760405163b137a05d60e01b815260040160405180910390fd5b33611e1e898984818110611e1257611e12613b68565b90506020020135610fd2565b6001600160a01b031614611e45576040516370d645e360e01b815260040160405180910390fd5b600060cf60008a8a85818110611e5d57611e5d613b68565b905060200201358152602001908152602001600020905080600201544211611e985760405163774ae17d60e01b815260040160405180910390fd5b85816001015414611ebc576040516318a0f2d160e01b815260040160405180910390fd5b8060050154611ed8866002015483600401548460030154612f77565b611ee29190613c74565b611eec9085613c74565b93508060030154876003016000828254611f069190613c74565b9091555050600060038201819055600590910155600101611dbc565b508260020154856004018190555081856005016000828254611f449190613c74565b90915550505050505050505050565b6040516340d1b7db60e11b81526004810186905260009081906001600160a01b037f000000000000000000000000000000000000000000000000000000000000000016906381a36fb690602401602060405180830381865afa158015611fbd573d6000803e3d6000fd5b505050506040513d601f19601f82011682018060405250810190611fe19190613b4b565b600088815260d0602052604090208054919250908415612097576000808061200b888a018a613d3e565b9250925092507f00000000000000000000000000000000000000000000000000000000000000006001600160a01b0316632b67b5708484846040518463ffffffff1660e01b815260040161206193929190613e2a565b600060405180830381600087803b15801561207b57600080fd5b505af115801561208f573d6000803e3d6000fd5b505050505050505b604051631b63c28b60e11b81523360048201523060248201526001600160a01b03898116604483015284811660648301527f000000000000000000000000000000000000000000000000000000000000000016906336c7851690608401600060405180830381600087803b15801561210e57600080fd5b505af1158015612122573d6000803e3d6000fd5b505050506121338989898585612d71565b9998505050505050505050565b61214a60036112d5565b3361215482610fd2565b6001600160a01b03161461217b576040516370d645e360e01b815260040160405180910390fd5b600081815260cf602090815260408083206001810154845260d090925282206005820154600282015460048401546003850154949593946121bd929190612f77565b6121c79190613c74565b60028301546004858101919091556000600586015560405163a9059cbb60e01b81523391810191909152602481018290529091507f00000000000000000000000000000000000000000000000000000000000000006001600160a01b03169063a9059cbb906044016020604051808303816000875af115801561224e573d6000803e3d6000fd5b505050506040513d601f19601f820116820180604052508101906122729190613cc7565b50837f5821803eb90af20f50dd58fa8b54dcd4a6979ed2c3d8dc6d13ef91a6df56a7eb826040516122a591815260200190565b60405180910390a250505050565b60606122be82612439565b60006122d560408051602081019091526000815290565b905060008151116122f5576040518060200160405280600081525061147a565b806122ff846130c8565b604051602001612310929190613ea9565b6040516020818303038152906040529392505050565b600081815260d0602052604081206001810154815461234d90670de0b6b3a7640000613c55565b61147a9190613ca5565b61235f612971565b6001600160a01b0381166123db5760405162461bcd60e51b815260206004820152602660248201527f4f776e61626c653a206e6577206f776e657220697320746865207a65726f206160448201527f646472657373000000000000000000000000000000000000000000000000000060648201526084016108b4565b61134981612d1f565b6123ec612971565b600081815260ca60209081526040808320805460ff191690558051848152918201929092527f77f1fcfcce67dc392d64f842056d2ec06c80986c47c910f7e79c5b23a2738d749101610e03565b6000818152606760205260409020546001600160a01b03166113495760405162461bcd60e51b815260206004820152601860248201527f4552433732313a20696e76616c696420746f6b656e204944000000000000000060448201526064016108b4565b600081815260696020526040902080546001600160a01b0319166001600160a01b03841690811790915581906124d282610fd2565b6001600160a01b03167f8c5be1e5ebec7d5bd14f71427d1e84f3dd0314c0f7b2291e5b200ac8c7c3b92560405160405180910390a45050565b60606001600160a01b03841673b47e3cd837ddf8e4c57f05d70ab865de6e193bbb14612584576040513360248201526001600160a01b03831660448201526064810184905260840160408051601f198184030181529190526020810180516001600160e01b0316632142170760e11b17905290506126de565b60008360405160240161259991815260200190565b60408051601f198184030181529181526020820180516001600160e01b0316630b02f02d60e31b1790525190915060009081906001600160a01b038816906125e2908590613ed8565b600060405180830381855afa9150503d806000811461261d576040519150601f19603f3d011682016040523d82523d6000602084013e612622565b606091505b509150915060008180602001905181019061263d9190613b4b565b905082801561265457506001600160a01b03811633145b6126a05760405162461bcd60e51b815260206004820152601160248201527f4e6f7420746865204e4654206f776e657200000000000000000000000000000060448201526064016108b4565b6040516024810188905260440160408051601f198184030181529190526020810180516001600160e01b031663104c9fd360e31b1790529450505050505b600080856001600160a01b0316836040516126f99190613ed8565b6000604051808303816000865af19150503d8060008114612736576040519150601f19603f3d011682016040523d82523d6000602084013e61273b565b606091505b50915091508181906127605760405162461bcd60e51b81526004016108b4919061361f565b50505050505050565b604051602481018390526000604482018190526001600160a01b03831660648301529060840160408051601f198184030181529181526020820180516001600160e01b031663bf31196f60e01b1790525190915060009081906001600160a01b038716906126f9908590613ed8565b6001600160a01b03821661282e5760405162461bcd60e51b815260206004820181905260248201527f4552433732313a206d696e7420746f20746865207a65726f206164647265737360448201526064016108b4565b6000818152606760205260409020546001600160a01b0316156128935760405162461bcd60e51b815260206004820152601c60248201527f4552433732313a20746f6b656e20616c7265616479206d696e7465640000000060448201526064016108b4565b6128a1600083836001613168565b6000818152606760205260409020546001600160a01b0316156129065760405162461bcd60e51b815260206004820152601c60248201527f4552433732313a20746f6b656e20616c7265616479206d696e7465640000000060448201526064016108b4565b6001600160a01b038216600081815260686020908152604080832080546001019055848352606790915280822080546001600160a01b0319168417905551839291907fddf252ad1be2c89b69c2b068fc378daa952ba7f163c4a11628f55a4df523b3ef908290a45050565b6097546001600160a01b031633146112d35760405162461bcd60e51b815260206004820181905260248201527f4f776e61626c653a2063616c6c6572206973206e6f7420746865206f776e657260448201526064016108b4565b6000806129d783610fd2565b9050806001600160a01b0316846001600160a01b03161480612a1e57506001600160a01b038082166000908152606a602090815260408083209388168352929052205460ff165b80612a425750836001600160a01b0316612a3784610819565b6001600160a01b0316145b949350505050565b826001600160a01b0316612a5d82610fd2565b6001600160a01b031614612ac15760405162461bcd60e51b815260206004820152602560248201527f4552433732313a207472616e736665722066726f6d20696e636f72726563742060448201526437bbb732b960d91b60648201526084016108b4565b6001600160a01b038216612b235760405162461bcd60e51b8152602060048201526024808201527f4552433732313a207472616e7366657220746f20746865207a65726f206164646044820152637265737360e01b60648201526084016108b4565b612b308383836001613168565b826001600160a01b0316612b4382610fd2565b6001600160a01b031614612ba75760405162461bcd60e51b815260206004820152602560248201527f4552433732313a207472616e736665722066726f6d20696e636f72726563742060448201526437bbb732b960d91b60648201526084016108b4565b600081815260696020908152604080832080546001600160a01b03199081169091556001600160a01b0387811680865260688552838620805460001901905590871680865283862080546001019055868652606790945282852080549092168417909155905184937fddf252ad1be2c89b69c2b068fc378daa952ba7f163c4a11628f55a4df523b3ef91a4505050565b600054610100900460ff16612ca25760405162461bcd60e51b815260206004820152602b60248201527f496e697469616c697a61626c653a20636f6e7472616374206973206e6f74206960448201526a6e697469616c697a696e6760a81b60648201526084016108b4565b61149b82826131f0565b600054610100900460ff16612d175760405162461bcd60e51b815260206004820152602b60248201527f496e697469616c697a61626c653a20636f6e7472616374206973206e6f74206960448201526a6e697469616c697a696e6760a81b60648201526084016108b4565b6112d3613274565b609780546001600160a01b038381166001600160a01b0319831681179093556040519116919082907f8be0079c531659141344cd1fd0a4f28419497f9722a3daafe3b4186f6b6457e090600090a35050565b6000612d7d60006112d5565b612d878583613c74565b835560cc8054612dab918691906000612d9f83613c8c565b919050559250826127d8565b60008360010154600003612dc0575084612dde565b82846001015487612dd19190613c55565b612ddb9190613ca5565b90505b80846001016000828254612df29190613c74565b90915550506040805160c081018252600080825260208083018b8152838501838152606085018781526002808c01546080880190815260a088018781528b885260cf909652958890209651875592516001870155905191850191909155516003840155905160048301555160059091015551829088907f33da4f9b82b3e18a281ca2cabbe2f076925692abb593b7ea3f850009e8ec977090612e97908a815260200190565b60405180910390a35095945050505050565b816001600160a01b0316836001600160a01b031603612f0a5760405162461bcd60e51b815260206004820152601960248201527f4552433732313a20617070726f766520746f2063616c6c65720000000000000060448201526064016108b4565b6001600160a01b038381166000818152606a6020908152604080832094871680845294825291829020805460ff191686151590811790915591519182527f17307eab39ab6107e8899845ad3d59bd9653f200f220920489ca2b5937696c31910160405180910390a3505050565b6000612a42612f868486613ce4565b83600160801b5b6000808060001985870985870292508281108382030391505080600003612fc65760008411612fbb57600080fd5b50829004905061147a565b808411612fd257600080fd5b6000848688096000868103871696879004966002600389028118808a02820302808a02820302808a02820302808a02820302808a02820302808a02909103029181900381900460010186841190950394909402919094039290920491909117919091029150509392505050565b61304a848484612a4a565b613056848484846132e7565b6112215760405162461bcd60e51b815260206004820152603260248201527f4552433732313a207472616e7366657220746f206e6f6e20455243373231526560448201527f63656976657220696d706c656d656e746572000000000000000000000000000060648201526084016108b4565b606060006130d58361343e565b600101905060008167ffffffffffffffff8111156130f5576130f56138a6565b6040519080825280601f01601f19166020018201604052801561311f576020820181803683370190505b5090508181016020015b600019017f3031323334353637383961626364656600000000000000000000000000000000600a86061a8153600a850494508461312957509392505050565b6001811115611221576001600160a01b038416156131ae576001600160a01b038416600090815260686020526040812080548392906131a8908490613ce4565b90915550505b6001600160a01b03831615611221576001600160a01b038316600090815260686020526040812080548392906131e5908490613c74565b909155505050505050565b600054610100900460ff1661325b5760405162461bcd60e51b815260206004820152602b60248201527f496e697469616c697a61626c653a20636f6e7472616374206973206e6f74206960448201526a6e697469616c697a696e6760a81b60648201526084016108b4565b60656132678382613f42565b5060666109558282613f42565b600054610100900460ff166132df5760405162461bcd60e51b815260206004820152602b60248201527f496e697469616c697a61626c653a20636f6e7472616374206973206e6f74206960448201526a6e697469616c697a696e6760a81b60648201526084016108b4565b6112d3613520565b60006001600160a01b0384163b1561343357604051630a85bd0160e11b81526001600160a01b0385169063150b7a029061332b903390899088908890600401614002565b6020604051808303816000875af1925050508015613366575060408051601f3d908101601f1916820190925261336391810190614034565b60015b613419573d808015613394576040519150601f19603f3d011682016040523d82523d6000602084013e613399565b606091505b5080516000036134115760405162461bcd60e51b815260206004820152603260248201527f4552433732313a207472616e7366657220746f206e6f6e20455243373231526560448201527f63656976657220696d706c656d656e746572000000000000000000000000000060648201526084016108b4565b805181602001fd5b6001600160e01b031916630a85bd0160e11b149050612a42565b506001949350505050565b6000807a184f03e93ff9f4daa797ed6e38ed64bf6a1f0100000000000000008310613487577a184f03e93ff9f4daa797ed6e38ed64bf6a1f010000000000000000830492506040015b6d04ee2d6d415b85acef810000000083106134b3576d04ee2d6d415b85acef8100000000830492506020015b662386f26fc1000083106134d157662386f26fc10000830492506010015b6305f5e10083106134e9576305f5e100830492506008015b61271083106134fd57612710830492506004015b6064831061350f576064830492506002015b600a83106107815760010192915050565b600054610100900460ff1661358b5760405162461bcd60e51b815260206004820152602b60248201527f496e697469616c697a61626c653a20636f6e7472616374206973206e6f74206960448201526a6e697469616c697a696e6760a81b60648201526084016108b4565b6112d333612d1f565b6001600160e01b03198116811461134957600080fd5b6000602082840312156135bc57600080fd5b813561147a81613594565b60005b838110156135e25781810151838201526020016135ca565b838111156112215750506000910152565b6000815180845261360b8160208601602086016135c7565b601f01601f19169290920160200192915050565b60208152600061147a60208301846135f3565b60006020828403121561364457600080fd5b5035919050565b6001600160a01b038116811461134957600080fd5b803561366b8161364b565b919050565b6000806040838503121561368357600080fd5b823561368e8161364b565b946020939093013593505050565b6000602082840312156136ae57600080fd5b813561147a8161364b565b60008083601f8401126136cb57600080fd5b50813567ffffffffffffffff8111156136e357600080fd5b6020830191508360208260051b85010111156136fe57600080fd5b9250929050565b6000806000806060858703121561371b57600080fd5b84359350602085013567ffffffffffffffff81111561373957600080fd5b613745878288016136b9565b90945092505060408501356137598161364b565b939692955090935050565b801515811461134957600080fd5b6000806040838503121561378557600080fd5b82356137908161364b565b915060208301356137a081613764565b809150509250929050565b6000806000606084860312156137c057600080fd5b83356137cb8161364b565b925060208401356137db8161364b565b929592945050506040919091013590565b60008060006060848603121561380157600080fd5b8335925060208401359150604084013561381a8161364b565b809150509250925092565b6000806000806060858703121561383b57600080fd5b8435935060208501359250604085013567ffffffffffffffff81111561386057600080fd5b61386c878288016136b9565b95989497509550505050565b60008060006060848603121561388d57600080fd5b8335925060208401359150604084013561381a81613764565b634e487b7160e01b600052604160045260246000fd5b6040516060810167ffffffffffffffff811182821017156138df576138df6138a6565b60405290565b6040516080810167ffffffffffffffff811182821017156138df576138df6138a6565b600082601f83011261391957600080fd5b813567ffffffffffffffff80821115613934576139346138a6565b604051601f8301601f19908116603f0116810190828211818310171561395c5761395c6138a6565b8160405283815286602085880101111561397557600080fd5b836020870160208301376000602085830101528094505050505092915050565b600080600080608085870312156139ab57600080fd5b84356139b68161364b565b935060208501356139c68161364b565b925060408501359150606085013567ffffffffffffffff8111156139e957600080fd5b6139f587828801613908565b91505092959194509250565b600080600060408486031215613a1657600080fd5b83359250602084013567ffffffffffffffff811115613a3457600080fd5b613a40868287016136b9565b9497909650939450505050565b600080600080600060808688031215613a6557600080fd5b85359450602086013593506040860135613a7e8161364b565b9250606086013567ffffffffffffffff80821115613a9b57600080fd5b818801915088601f830112613aaf57600080fd5b813581811115613abe57600080fd5b896020828501011115613ad057600080fd5b9699959850939650602001949392505050565b60008060408385031215613af657600080fd5b8235613b018161364b565b915060208301356137a08161364b565b600181811c90821680613b2557607f821691505b602082108103613b4557634e487b7160e01b600052602260045260246000fd5b50919050565b600060208284031215613b5d57600080fd5b815161147a8161364b565b634e487b7160e01b600052603260045260246000fd5b81835260007f07ffffffffffffffffffffffffffffffffffffffffffffffffffffffffffffff831115613bb057600080fd5b8260051b8083602087013760009401602001938452509192915050565b604081526000613be1604083018587613b7e565b82810360208481019190915284518083528582019282019060005b81811015613c1857845183529383019391830191600101613bfc565b509098975050505050505050565b600060208284031215613c3857600080fd5b5051919050565b634e487b7160e01b600052601160045260246000fd5b6000816000190483118215151615613c6f57613c6f613c3f565b500290565b60008219821115613c8757613c87613c3f565b500190565b600060018201613c9e57613c9e613c3f565b5060010190565b600082613cc257634e487b7160e01b600052601260045260246000fd5b500490565b600060208284031215613cd957600080fd5b815161147a81613764565b600082821015613cf657613cf6613c3f565b500390565b604081526000613d0f604083018587613b7e565b90506001600160a01b0383166020830152949350505050565b803565ffffffffffff8116811461366b57600080fd5b6000806000838503610100811215613d5557600080fd5b8435613d608161364b565b9350601f190160c0811215613d7457600080fd5b613d7c6138bc565b6080821215613d8a57600080fd5b613d926138e5565b91506020860135613da28161364b565b82526040860135613db28161364b565b6020830152613dc360608701613d28565b6040830152613dd460808701613d28565b6060830152818152613de860a08701613660565b602082015260c0860135604082015292505060e084013567ffffffffffffffff811115613e1457600080fd5b613e2086828701613908565b9150509250925092565b60006101006001600160a01b0380871684528551818151166020860152816020820151166040860152604081015165ffffffffffff80821660608801528060608401511660808801525050508060208701511660a085015250604085015160c08401528060e0840152613e9f818401856135f3565b9695505050505050565b60008351613ebb8184602088016135c7565b835190830190613ecf8183602088016135c7565b01949350505050565b60008251613eea8184602087016135c7565b9190910192915050565b601f82111561095557600081815260208120601f850160051c81016020861015613f1b5750805b601f850160051c820191505b81811015613f3a57828155600101613f27565b505050505050565b815167ffffffffffffffff811115613f5c57613f5c6138a6565b613f7081613f6a8454613b11565b84613ef4565b602080601f831160018114613fa55760008415613f8d5750858301515b600019600386901b1c1916600185901b178555613f3a565b600085815260208120601f198616915b82811015613fd457888601518255948401946001909101908401613fb5565b5085821015613ff25787850151600019600388901b60f8161c191681555b5050505050600190811b01905550565b60006001600160a01b03808716835280861660208401525083604083015260806060830152613e9f60808301846135f3565b60006020828403121561404657600080fd5b815161147a8161359456fea164736f6c634300080f000a",
  "devdoc": {
    "author": "@apoorvlathey",
    "details": "lockId's: 0: deposit & depositWithPermit2 1: depositWithNFT 2: withdraw 3: collectWethFees",
    "kind": "dev",
    "methods": {
      "approve(address,uint256)": {
        "details": "See {IERC721-approve}."
      },
      "balanceOf(address)": {
        "details": "See {IERC721-balanceOf}."
      },
      "getApproved(uint256)": {
        "details": "See {IERC721-getApproved}."
      },
      "isApprovedForAll(address,address)": {
        "details": "See {IERC721-isApprovedForAll}."
      },
      "name()": {
        "details": "See {IERC721Metadata-name}."
      },
      "owner()": {
        "details": "Returns the address of the current owner."
      },
      "ownerOf(uint256)": {
        "details": "See {IERC721-ownerOf}."
      },
      "receiveRewards(uint256,uint256,bool)": {
        "details": "Can only be called by feeDistributor, after it sends the reward tokens to this contract"
      },
      "renounceOwnership()": {
        "details": "Leaves the contract without owner. It will not be possible to call `onlyOwner` functions anymore. Can only be called by the current owner. NOTE: Renouncing ownership will leave the contract without an owner, thereby removing any functionality that is only available to the owner."
      },
      "safeTransferFrom(address,address,uint256)": {
        "details": "See {IERC721-safeTransferFrom}."
      },
      "safeTransferFrom(address,address,uint256,bytes)": {
        "details": "See {IERC721-safeTransferFrom}."
      },
      "setApprovalForAll(address,bool)": {
        "details": "See {IERC721-setApprovalForAll}."
      },
      "supportsInterface(bytes4)": {
        "details": "See {IERC165-supportsInterface}."
      },
      "symbol()": {
        "details": "See {IERC721Metadata-symbol}."
      },
      "tokenURI(uint256)": {
        "details": "See {IERC721Metadata-tokenURI}."
      },
      "transferFrom(address,address,uint256)": {
        "details": "See {IERC721-transferFrom}."
      },
      "transferOwnership(address)": {
        "details": "Transfers ownership of the contract to a new account (`newOwner`). Can only be called by the current owner."
      }
    },
    "stateVariables": {
      "_nextId": {
        "details": "The ID of the next token that will be minted. Skips 0"
      },
      "earlyWithdrawPenaltyInWei": {
        "details": "the max penalty applicable. The penalty goes down linearly as the `timelockedUntil` approaches"
      },
      "positions": {
        "details": "The token ID position data"
      },
      "timelock": {
        "details": "timelock in seconds"
      },
      "vaultGlobal": {
        "details": "vaultId => VaultGlobal"
      }
    },
    "title": "NFTX Inventory Staking V3",
    "version": 1
  },
  "userdoc": {
    "kind": "user",
    "methods": {
      "depositWithNFT(uint256,uint256[],address)": {
        "notice": "This contract must be on the feeExclusion list to avoid mint fees, else revert"
      },
      "withdraw(uint256,uint256,uint256[])": {
        "notice": "This contract must be on the feeExclusion list to avoid redeem fees, else revert"
      }
    },
    "notice": "Allows users to stake vTokens to earn fees in vTokens and WETH. The position is minted as xNFT.",
    "version": 1
  },
  "storageLayout": {
    "storage": [
      {
        "astId": 138,
        "contract": "src/NFTXInventoryStakingV3Upgradeable.sol:NFTXInventoryStakingV3Upgradeable",
        "label": "_initialized",
        "offset": 0,
        "slot": "0",
        "type": "t_uint8"
      },
      {
        "astId": 141,
        "contract": "src/NFTXInventoryStakingV3Upgradeable.sol:NFTXInventoryStakingV3Upgradeable",
        "label": "_initializing",
        "offset": 1,
        "slot": "0",
        "type": "t_bool"
      },
      {
        "astId": 1756,
        "contract": "src/NFTXInventoryStakingV3Upgradeable.sol:NFTXInventoryStakingV3Upgradeable",
        "label": "__gap",
        "offset": 0,
        "slot": "1",
        "type": "t_array(t_uint256)50_storage"
      },
      {
        "astId": 2056,
        "contract": "src/NFTXInventoryStakingV3Upgradeable.sol:NFTXInventoryStakingV3Upgradeable",
        "label": "__gap",
        "offset": 0,
        "slot": "51",
        "type": "t_array(t_uint256)50_storage"
      },
      {
        "astId": 329,
        "contract": "src/NFTXInventoryStakingV3Upgradeable.sol:NFTXInventoryStakingV3Upgradeable",
        "label": "_name",
        "offset": 0,
        "slot": "101",
        "type": "t_string_storage"
      },
      {
        "astId": 331,
        "contract": "src/NFTXInventoryStakingV3Upgradeable.sol:NFTXInventoryStakingV3Upgradeable",
        "label": "_symbol",
        "offset": 0,
        "slot": "102",
        "type": "t_string_storage"
      },
      {
        "astId": 335,
        "contract": "src/NFTXInventoryStakingV3Upgradeable.sol:NFTXInventoryStakingV3Upgradeable",
        "label": "_owners",
        "offset": 0,
        "slot": "103",
        "type": "t_mapping(t_uint256,t_address)"
      },
      {
        "astId": 339,
        "contract": "src/NFTXInventoryStakingV3Upgradeable.sol:NFTXInventoryStakingV3Upgradeable",
        "label": "_balances",
        "offset": 0,
        "slot": "104",
        "type": "t_mapping(t_address,t_uint256)"
      },
      {
        "astId": 343,
        "contract": "src/NFTXInventoryStakingV3Upgradeable.sol:NFTXInventoryStakingV3Upgradeable",
        "label": "_tokenApprovals",
        "offset": 0,
        "slot": "105",
        "type": "t_mapping(t_uint256,t_address)"
      },
      {
        "astId": 349,
        "contract": "src/NFTXInventoryStakingV3Upgradeable.sol:NFTXInventoryStakingV3Upgradeable",
        "label": "_operatorApprovals",
        "offset": 0,
        "slot": "106",
        "type": "t_mapping(t_address,t_mapping(t_address,t_bool))"
      },
      {
        "astId": 1269,
        "contract": "src/NFTXInventoryStakingV3Upgradeable.sol:NFTXInventoryStakingV3Upgradeable",
        "label": "__gap",
        "offset": 0,
        "slot": "107",
        "type": "t_array(t_uint256)44_storage"
      },
      {
        "astId": 10,
        "contract": "src/NFTXInventoryStakingV3Upgradeable.sol:NFTXInventoryStakingV3Upgradeable",
        "label": "_owner",
        "offset": 0,
        "slot": "151",
        "type": "t_address"
      },
      {
        "astId": 130,
        "contract": "src/NFTXInventoryStakingV3Upgradeable.sol:NFTXInventoryStakingV3Upgradeable",
        "label": "__gap",
        "offset": 0,
        "slot": "152",
        "type": "t_array(t_uint256)49_storage"
      },
      {
        "astId": 27999,
        "contract": "src/NFTXInventoryStakingV3Upgradeable.sol:NFTXInventoryStakingV3Upgradeable",
        "label": "isGuardian",
        "offset": 0,
        "slot": "201",
        "type": "t_mapping(t_address,t_bool)"
      },
      {
        "astId": 28003,
        "contract": "src/NFTXInventoryStakingV3Upgradeable.sol:NFTXInventoryStakingV3Upgradeable",
        "label": "isPaused",
        "offset": 0,
        "slot": "202",
        "type": "t_mapping(t_uint256,t_bool)"
      },
      {
        "astId": 7826,
        "contract": "src/NFTXInventoryStakingV3Upgradeable.sol:NFTXInventoryStakingV3Upgradeable",
        "label": "timelockExcludeList",
        "offset": 0,
        "slot": "203",
        "type": "t_contract(ITimelockExcludeList)37260"
      },
      {
        "astId": 7830,
        "contract": "src/NFTXInventoryStakingV3Upgradeable.sol:NFTXInventoryStakingV3Upgradeable",
        "label": "_nextId",
        "offset": 0,
        "slot": "204",
        "type": "t_uint256"
      },
      {
        "astId": 7834,
        "contract": "src/NFTXInventoryStakingV3Upgradeable.sol:NFTXInventoryStakingV3Upgradeable",
        "label": "timelock",
        "offset": 0,
        "slot": "205",
        "type": "t_uint256"
      },
      {
        "astId": 7838,
        "contract": "src/NFTXInventoryStakingV3Upgradeable.sol:NFTXInventoryStakingV3Upgradeable",
        "label": "earlyWithdrawPenaltyInWei",
        "offset": 0,
        "slot": "206",
        "type": "t_uint256"
      },
      {
        "astId": 7845,
        "contract": "src/NFTXInventoryStakingV3Upgradeable.sol:NFTXInventoryStakingV3Upgradeable",
        "label": "positions",
        "offset": 0,
        "slot": "207",
        "type": "t_mapping(t_uint256,t_struct(Position)10914_storage)"
      },
      {
        "astId": 7852,
        "contract": "src/NFTXInventoryStakingV3Upgradeable.sol:NFTXInventoryStakingV3Upgradeable",
        "label": "vaultGlobal",
        "offset": 0,
        "slot": "208",
        "type": "t_mapping(t_uint256,t_struct(VaultGlobal)10921_storage)"
      }
    ],
    "types": {
      "t_address": {
        "encoding": "inplace",
        "label": "address",
        "numberOfBytes": "20"
      },
      "t_array(t_uint256)44_storage": {
        "base": "t_uint256",
        "encoding": "inplace",
        "label": "uint256[44]",
        "numberOfBytes": "1408"
      },
      "t_array(t_uint256)49_storage": {
        "base": "t_uint256",
        "encoding": "inplace",
        "label": "uint256[49]",
        "numberOfBytes": "1568"
      },
      "t_array(t_uint256)50_storage": {
        "base": "t_uint256",
        "encoding": "inplace",
        "label": "uint256[50]",
        "numberOfBytes": "1600"
      },
      "t_bool": {
        "encoding": "inplace",
        "label": "bool",
        "numberOfBytes": "1"
      },
      "t_contract(ITimelockExcludeList)37260": {
        "encoding": "inplace",
        "label": "contract ITimelockExcludeList",
        "numberOfBytes": "20"
      },
      "t_mapping(t_address,t_bool)": {
        "encoding": "mapping",
        "key": "t_address",
        "label": "mapping(address => bool)",
        "numberOfBytes": "32",
        "value": "t_bool"
      },
      "t_mapping(t_address,t_mapping(t_address,t_bool))": {
        "encoding": "mapping",
        "key": "t_address",
        "label": "mapping(address => mapping(address => bool))",
        "numberOfBytes": "32",
        "value": "t_mapping(t_address,t_bool)"
      },
      "t_mapping(t_address,t_uint256)": {
        "encoding": "mapping",
        "key": "t_address",
        "label": "mapping(address => uint256)",
        "numberOfBytes": "32",
        "value": "t_uint256"
      },
      "t_mapping(t_uint256,t_address)": {
        "encoding": "mapping",
        "key": "t_uint256",
        "label": "mapping(uint256 => address)",
        "numberOfBytes": "32",
        "value": "t_address"
      },
      "t_mapping(t_uint256,t_bool)": {
        "encoding": "mapping",
        "key": "t_uint256",
        "label": "mapping(uint256 => bool)",
        "numberOfBytes": "32",
        "value": "t_bool"
      },
      "t_mapping(t_uint256,t_struct(Position)10914_storage)": {
        "encoding": "mapping",
        "key": "t_uint256",
        "label": "mapping(uint256 => struct INFTXInventoryStakingV3.Position)",
        "numberOfBytes": "32",
        "value": "t_struct(Position)10914_storage"
      },
      "t_mapping(t_uint256,t_struct(VaultGlobal)10921_storage)": {
        "encoding": "mapping",
        "key": "t_uint256",
        "label": "mapping(uint256 => struct INFTXInventoryStakingV3.VaultGlobal)",
        "numberOfBytes": "32",
        "value": "t_struct(VaultGlobal)10921_storage"
      },
      "t_string_storage": {
        "encoding": "bytes",
        "label": "string",
        "numberOfBytes": "32"
      },
      "t_struct(Position)10914_storage": {
        "encoding": "inplace",
        "label": "struct INFTXInventoryStakingV3.Position",
        "members": [
          {
            "astId": 10903,
            "contract": "src/NFTXInventoryStakingV3Upgradeable.sol:NFTXInventoryStakingV3Upgradeable",
            "label": "nonce",
            "offset": 0,
            "slot": "0",
            "type": "t_uint256"
          },
          {
            "astId": 10905,
            "contract": "src/NFTXInventoryStakingV3Upgradeable.sol:NFTXInventoryStakingV3Upgradeable",
            "label": "vaultId",
            "offset": 0,
            "slot": "1",
            "type": "t_uint256"
          },
          {
            "astId": 10907,
            "contract": "src/NFTXInventoryStakingV3Upgradeable.sol:NFTXInventoryStakingV3Upgradeable",
            "label": "timelockedUntil",
            "offset": 0,
            "slot": "2",
            "type": "t_uint256"
          },
          {
            "astId": 10909,
            "contract": "src/NFTXInventoryStakingV3Upgradeable.sol:NFTXInventoryStakingV3Upgradeable",
            "label": "vTokenShareBalance",
            "offset": 0,
            "slot": "3",
            "type": "t_uint256"
          },
          {
            "astId": 10911,
            "contract": "src/NFTXInventoryStakingV3Upgradeable.sol:NFTXInventoryStakingV3Upgradeable",
            "label": "wethFeesPerVTokenShareSnapshotX128",
            "offset": 0,
            "slot": "4",
            "type": "t_uint256"
          },
          {
            "astId": 10913,
            "contract": "src/NFTXInventoryStakingV3Upgradeable.sol:NFTXInventoryStakingV3Upgradeable",
            "label": "wethOwed",
            "offset": 0,
            "slot": "5",
            "type": "t_uint256"
          }
        ],
        "numberOfBytes": "192"
      },
      "t_struct(VaultGlobal)10921_storage": {
        "encoding": "inplace",
        "label": "struct INFTXInventoryStakingV3.VaultGlobal",
        "members": [
          {
            "astId": 10916,
            "contract": "src/NFTXInventoryStakingV3Upgradeable.sol:NFTXInventoryStakingV3Upgradeable",
            "label": "netVTokenBalance",
            "offset": 0,
            "slot": "0",
            "type": "t_uint256"
          },
          {
            "astId": 10918,
            "contract": "src/NFTXInventoryStakingV3Upgradeable.sol:NFTXInventoryStakingV3Upgradeable",
            "label": "totalVTokenShares",
            "offset": 0,
            "slot": "1",
            "type": "t_uint256"
          },
          {
            "astId": 10920,
            "contract": "src/NFTXInventoryStakingV3Upgradeable.sol:NFTXInventoryStakingV3Upgradeable",
            "label": "globalWethFeesPerVTokenShareX128",
            "offset": 0,
            "slot": "2",
            "type": "t_uint256"
          }
        ],
        "numberOfBytes": "96"
      },
      "t_uint256": {
        "encoding": "inplace",
        "label": "uint256",
        "numberOfBytes": "32"
      },
      "t_uint8": {
        "encoding": "inplace",
        "label": "uint8",
        "numberOfBytes": "1"
      }
    }
  }
}