{
  "address": "0x9477a42F7350fD41d5286491b96c1214321178Ac",
  "abi": [
    {
      "anonymous": false,
      "inputs": [
        {
          "indexed": true,
          "internalType": "address",
          "name": "owner",
          "type": "address"
        },
        {
          "indexed": true,
          "internalType": "address",
          "name": "spender",
          "type": "address"
        },
        {
          "indexed": false,
          "internalType": "uint256",
          "name": "value",
          "type": "uint256"
        }
      ],
      "name": "Approval",
      "type": "event"
    },
    {
      "anonymous": false,
      "inputs": [
        {
          "indexed": false,
          "internalType": "uint256",
          "name": "moduleIndex",
          "type": "uint256"
        },
        {
          "indexed": false,
          "internalType": "address",
          "name": "eligibilityAddr",
          "type": "address"
        }
      ],
      "name": "EligibilityDeployed",
      "type": "event"
    },
    {
      "anonymous": false,
      "inputs": [
        {
          "indexed": false,
          "internalType": "bool",
          "name": "enabled",
          "type": "bool"
        }
      ],
      "name": "EnableMintUpdated",
      "type": "event"
    },
    {
      "anonymous": false,
      "inputs": [
        {
          "indexed": false,
          "internalType": "bool",
          "name": "enabled",
          "type": "bool"
        }
      ],
      "name": "EnableRandomRedeemUpdated",
      "type": "event"
    },
    {
      "anonymous": false,
      "inputs": [
        {
          "indexed": false,
          "internalType": "bool",
          "name": "enabled",
          "type": "bool"
        }
      ],
      "name": "EnableRandomSwapUpdated",
      "type": "event"
    },
    {
      "anonymous": false,
      "inputs": [
        {
          "indexed": false,
          "internalType": "bool",
          "name": "enabled",
          "type": "bool"
        }
      ],
      "name": "EnableTargetRedeemUpdated",
      "type": "event"
    },
    {
      "anonymous": false,
      "inputs": [
        {
          "indexed": false,
          "internalType": "bool",
          "name": "enabled",
          "type": "bool"
        }
      ],
      "name": "EnableTargetSwapUpdated",
      "type": "event"
    },
    {
      "anonymous": false,
      "inputs": [
        {
          "indexed": false,
          "internalType": "address",
          "name": "manager",
          "type": "address"
        }
      ],
      "name": "ManagerSet",
      "type": "event"
    },
    {
      "anonymous": false,
      "inputs": [
        {
          "indexed": false,
          "internalType": "uint256[]",
          "name": "nftIds",
          "type": "uint256[]"
        },
        {
          "indexed": false,
          "internalType": "uint256[]",
          "name": "amounts",
          "type": "uint256[]"
        },
        {
          "indexed": false,
          "internalType": "address",
          "name": "to",
          "type": "address"
        }
      ],
      "name": "Minted",
      "type": "event"
    },
    {
      "anonymous": false,
      "inputs": [
        {
          "indexed": true,
          "internalType": "address",
          "name": "previousOwner",
          "type": "address"
        },
        {
          "indexed": true,
          "internalType": "address",
          "name": "newOwner",
          "type": "address"
        }
      ],
      "name": "OwnershipTransferred",
      "type": "event"
    },
    {
      "anonymous": false,
      "inputs": [
        {
          "indexed": false,
          "internalType": "uint256[]",
          "name": "nftIds",
          "type": "uint256[]"
        },
        {
          "indexed": false,
          "internalType": "uint256[]",
          "name": "specificIds",
          "type": "uint256[]"
        },
        {
          "indexed": false,
          "internalType": "address",
          "name": "to",
          "type": "address"
        }
      ],
      "name": "Redeemed",
      "type": "event"
    },
    {
      "anonymous": false,
      "inputs": [
        {
          "indexed": false,
          "internalType": "uint256[]",
          "name": "nftIds",
          "type": "uint256[]"
        },
        {
          "indexed": false,
          "internalType": "uint256[]",
          "name": "amounts",
          "type": "uint256[]"
        },
        {
          "indexed": false,
          "internalType": "uint256[]",
          "name": "specificIds",
          "type": "uint256[]"
        },
        {
          "indexed": false,
          "internalType": "uint256[]",
          "name": "redeemedIds",
          "type": "uint256[]"
        },
        {
          "indexed": false,
          "internalType": "address",
          "name": "to",
          "type": "address"
        }
      ],
      "name": "Swapped",
      "type": "event"
    },
    {
      "anonymous": false,
      "inputs": [
        {
          "indexed": true,
          "internalType": "address",
          "name": "from",
          "type": "address"
        },
        {
          "indexed": true,
          "internalType": "address",
          "name": "to",
          "type": "address"
        },
        {
          "indexed": false,
          "internalType": "uint256",
          "name": "value",
          "type": "uint256"
        }
      ],
      "name": "Transfer",
      "type": "event"
    },
    {
      "anonymous": false,
      "inputs": [
        {
          "indexed": true,
          "internalType": "uint256",
          "name": "vaultId",
          "type": "uint256"
        },
        {
          "indexed": false,
          "internalType": "address",
          "name": "assetAddress",
          "type": "address"
        },
        {
          "indexed": false,
          "internalType": "bool",
          "name": "is1155",
          "type": "bool"
        },
        {
          "indexed": false,
          "internalType": "bool",
          "name": "allowAllItems",
          "type": "bool"
        }
      ],
      "name": "VaultInit",
      "type": "event"
    },
    {
      "inputs": [
        {
          "internalType": "string",
          "name": "_name",
          "type": "string"
        },
        {
          "internalType": "string",
          "name": "_symbol",
          "type": "string"
        },
        {
          "internalType": "address",
          "name": "_assetAddress",
          "type": "address"
        },
        {
          "internalType": "bool",
          "name": "_is1155",
          "type": "bool"
        },
        {
          "internalType": "bool",
          "name": "_allowAllItems",
          "type": "bool"
        }
      ],
      "name": "__NFTXVault_init",
      "outputs": [],
      "stateMutability": "nonpayable",
      "type": "function"
    },
    {
      "inputs": [],
      "name": "allHoldings",
      "outputs": [
        {
          "internalType": "uint256[]",
          "name": "",
          "type": "uint256[]"
        }
      ],
      "stateMutability": "view",
      "type": "function"
    },
    {
      "inputs": [
        {
          "internalType": "uint256[]",
          "name": "tokenIds",
          "type": "uint256[]"
        }
      ],
      "name": "allValidNFTs",
      "outputs": [
        {
          "internalType": "bool",
          "name": "",
          "type": "bool"
        }
      ],
      "stateMutability": "view",
      "type": "function"
    },
    {
      "inputs": [],
      "name": "allowAllItems",
      "outputs": [
        {
          "internalType": "bool",
          "name": "",
          "type": "bool"
        }
      ],
      "stateMutability": "view",
      "type": "function"
    },
    {
      "inputs": [
        {
          "internalType": "address",
          "name": "owner",
          "type": "address"
        },
        {
          "internalType": "address",
          "name": "spender",
          "type": "address"
        }
      ],
      "name": "allowance",
      "outputs": [
        {
          "internalType": "uint256",
          "name": "",
          "type": "uint256"
        }
      ],
      "stateMutability": "view",
      "type": "function"
    },
    {
      "inputs": [
        {
          "internalType": "address",
          "name": "spender",
          "type": "address"
        },
        {
          "internalType": "uint256",
          "name": "amount",
          "type": "uint256"
        }
      ],
      "name": "approve",
      "outputs": [
        {
          "internalType": "bool",
          "name": "",
          "type": "bool"
        }
      ],
      "stateMutability": "nonpayable",
      "type": "function"
    },
    {
      "inputs": [],
      "name": "assetAddress",
      "outputs": [
        {
          "internalType": "address",
          "name": "",
          "type": "address"
        }
      ],
      "stateMutability": "view",
      "type": "function"
    },
    {
      "inputs": [
        {
          "internalType": "address",
          "name": "account",
          "type": "address"
        }
      ],
      "name": "balanceOf",
      "outputs": [
        {
          "internalType": "uint256",
          "name": "",
          "type": "uint256"
        }
      ],
      "stateMutability": "view",
      "type": "function"
    },
    {
      "inputs": [],
      "name": "decimals",
      "outputs": [
        {
          "internalType": "uint8",
          "name": "",
          "type": "uint8"
        }
      ],
      "stateMutability": "view",
      "type": "function"
    },
    {
      "inputs": [
        {
          "internalType": "address",
          "name": "spender",
          "type": "address"
        },
        {
          "internalType": "uint256",
          "name": "subtractedValue",
          "type": "uint256"
        }
      ],
      "name": "decreaseAllowance",
      "outputs": [
        {
          "internalType": "bool",
          "name": "",
          "type": "bool"
        }
      ],
      "stateMutability": "nonpayable",
      "type": "function"
    },
    {
      "inputs": [
        {
          "internalType": "uint256",
          "name": "moduleIndex",
          "type": "uint256"
        },
        {
          "internalType": "bytes",
          "name": "initData",
          "type": "bytes"
        }
      ],
      "name": "deployEligibilityStorage",
      "outputs": [
        {
          "internalType": "address",
          "name": "",
          "type": "address"
        }
      ],
      "stateMutability": "nonpayable",
      "type": "function"
    },
    {
      "inputs": [],
      "name": "disableVaultFees",
      "outputs": [],
      "stateMutability": "nonpayable",
      "type": "function"
    },
    {
      "inputs": [],
      "name": "eligibilityStorage",
      "outputs": [
        {
          "internalType": "contract INFTXEligibility",
          "name": "",
          "type": "address"
        }
      ],
      "stateMutability": "view",
      "type": "function"
    },
    {
      "inputs": [],
      "name": "enableMint",
      "outputs": [
        {
          "internalType": "bool",
          "name": "",
          "type": "bool"
        }
      ],
      "stateMutability": "view",
      "type": "function"
    },
    {
      "inputs": [],
      "name": "enableRandomRedeem",
      "outputs": [
        {
          "internalType": "bool",
          "name": "",
          "type": "bool"
        }
      ],
      "stateMutability": "view",
      "type": "function"
    },
    {
      "inputs": [],
      "name": "enableRandomSwap",
      "outputs": [
        {
          "internalType": "bool",
          "name": "",
          "type": "bool"
        }
      ],
      "stateMutability": "view",
      "type": "function"
    },
    {
      "inputs": [],
      "name": "enableTargetRedeem",
      "outputs": [
        {
          "internalType": "bool",
          "name": "",
          "type": "bool"
        }
      ],
      "stateMutability": "view",
      "type": "function"
    },
    {
      "inputs": [],
      "name": "enableTargetSwap",
      "outputs": [
        {
          "internalType": "bool",
          "name": "",
          "type": "bool"
        }
      ],
      "stateMutability": "view",
      "type": "function"
    },
    {
      "inputs": [],
      "name": "finalizeVault",
      "outputs": [],
      "stateMutability": "nonpayable",
      "type": "function"
    },
    {
      "inputs": [
        {
          "internalType": "address",
          "name": "token",
          "type": "address"
        },
        {
          "internalType": "uint256",
          "name": "amount",
          "type": "uint256"
        }
      ],
      "name": "flashFee",
      "outputs": [
        {
          "internalType": "uint256",
          "name": "",
          "type": "uint256"
        }
      ],
      "stateMutability": "view",
      "type": "function"
    },
    {
      "inputs": [
        {
          "internalType": "contract IERC3156FlashBorrowerUpgradeable",
          "name": "receiver",
          "type": "address"
        },
        {
          "internalType": "address",
          "name": "token",
          "type": "address"
        },
        {
          "internalType": "uint256",
          "name": "amount",
          "type": "uint256"
        },
        {
          "internalType": "bytes",
          "name": "data",
          "type": "bytes"
        }
      ],
      "name": "flashLoan",
      "outputs": [
        {
          "internalType": "bool",
          "name": "",
          "type": "bool"
        }
      ],
      "stateMutability": "nonpayable",
      "type": "function"
    },
    {
      "inputs": [
        {
          "internalType": "address",
          "name": "spender",
          "type": "address"
        },
        {
          "internalType": "uint256",
          "name": "addedValue",
          "type": "uint256"
        }
      ],
      "name": "increaseAllowance",
      "outputs": [
        {
          "internalType": "bool",
          "name": "",
          "type": "bool"
        }
      ],
      "stateMutability": "nonpayable",
      "type": "function"
    },
    {
      "inputs": [],
      "name": "is1155",
      "outputs": [
        {
          "internalType": "bool",
          "name": "",
          "type": "bool"
        }
      ],
      "stateMutability": "view",
      "type": "function"
    },
    {
      "inputs": [],
      "name": "manager",
      "outputs": [
        {
          "internalType": "address",
          "name": "",
          "type": "address"
        }
      ],
      "stateMutability": "view",
      "type": "function"
    },
    {
      "inputs": [
        {
          "internalType": "address",
          "name": "token",
          "type": "address"
        }
      ],
      "name": "maxFlashLoan",
      "outputs": [
        {
          "internalType": "uint256",
          "name": "",
          "type": "uint256"
        }
      ],
      "stateMutability": "view",
      "type": "function"
    },
    {
      "inputs": [
        {
          "internalType": "uint256[]",
          "name": "tokenIds",
          "type": "uint256[]"
        },
        {
          "internalType": "uint256[]",
          "name": "amounts",
          "type": "uint256[]"
        }
      ],
      "name": "mint",
      "outputs": [
        {
          "internalType": "uint256",
          "name": "",
          "type": "uint256"
        }
      ],
      "stateMutability": "nonpayable",
      "type": "function"
    },
    {
      "inputs": [],
      "name": "mintFee",
      "outputs": [
        {
          "internalType": "uint256",
          "name": "",
          "type": "uint256"
        }
      ],
      "stateMutability": "view",
      "type": "function"
    },
    {
      "inputs": [
        {
          "internalType": "uint256[]",
          "name": "tokenIds",
          "type": "uint256[]"
        },
        {
          "internalType": "uint256[]",
          "name": "amounts",
          "type": "uint256[]"
        },
        {
          "internalType": "address",
          "name": "to",
          "type": "address"
        }
      ],
      "name": "mintTo",
      "outputs": [
        {
          "internalType": "uint256",
          "name": "",
          "type": "uint256"
        }
      ],
      "stateMutability": "nonpayable",
      "type": "function"
    },
    {
      "inputs": [],
      "name": "name",
      "outputs": [
        {
          "internalType": "string",
          "name": "",
          "type": "string"
        }
      ],
      "stateMutability": "view",
      "type": "function"
    },
    {
      "inputs": [
        {
          "internalType": "uint256",
          "name": "holdingsIndex",
          "type": "uint256"
        }
      ],
      "name": "nftIdAt",
      "outputs": [
        {
          "internalType": "uint256",
          "name": "",
          "type": "uint256"
        }
      ],
      "stateMutability": "view",
      "type": "function"
    },
    {
      "inputs": [
        {
          "internalType": "address",
          "name": "",
          "type": "address"
        },
        {
          "internalType": "address",
          "name": "",
          "type": "address"
        },
        {
          "internalType": "uint256[]",
          "name": "",
          "type": "uint256[]"
        },
        {
          "internalType": "uint256[]",
          "name": "",
          "type": "uint256[]"
        },
        {
          "internalType": "bytes",
          "name": "",
          "type": "bytes"
        }
      ],
      "name": "onERC1155BatchReceived",
      "outputs": [
        {
          "internalType": "bytes4",
          "name": "",
          "type": "bytes4"
        }
      ],
      "stateMutability": "nonpayable",
      "type": "function"
    },
    {
      "inputs": [
        {
          "internalType": "address",
          "name": "",
          "type": "address"
        },
        {
          "internalType": "address",
          "name": "",
          "type": "address"
        },
        {
          "internalType": "uint256",
          "name": "",
          "type": "uint256"
        },
        {
          "internalType": "uint256",
          "name": "",
          "type": "uint256"
        },
        {
          "internalType": "bytes",
          "name": "",
          "type": "bytes"
        }
      ],
      "name": "onERC1155Received",
      "outputs": [
        {
          "internalType": "bytes4",
          "name": "",
          "type": "bytes4"
        }
      ],
      "stateMutability": "nonpayable",
      "type": "function"
    },
    {
      "inputs": [
        {
          "internalType": "address",
          "name": "",
          "type": "address"
        },
        {
          "internalType": "address",
          "name": "",
          "type": "address"
        },
        {
          "internalType": "uint256",
          "name": "",
          "type": "uint256"
        },
        {
          "internalType": "bytes",
          "name": "",
          "type": "bytes"
        }
      ],
      "name": "onERC721Received",
      "outputs": [
        {
          "internalType": "bytes4",
          "name": "",
          "type": "bytes4"
        }
      ],
      "stateMutability": "nonpayable",
      "type": "function"
    },
    {
      "inputs": [],
      "name": "owner",
      "outputs": [
        {
          "internalType": "address",
          "name": "",
          "type": "address"
        }
      ],
      "stateMutability": "view",
      "type": "function"
    },
    {
      "inputs": [],
      "name": "randomRedeemFee",
      "outputs": [
        {
          "internalType": "uint256",
          "name": "",
          "type": "uint256"
        }
      ],
      "stateMutability": "view",
      "type": "function"
    },
    {
      "inputs": [],
      "name": "randomSwapFee",
      "outputs": [
        {
          "internalType": "uint256",
          "name": "",
          "type": "uint256"
        }
      ],
      "stateMutability": "view",
      "type": "function"
    },
    {
      "inputs": [
        {
          "internalType": "uint256",
          "name": "amount",
          "type": "uint256"
        },
        {
          "internalType": "uint256[]",
          "name": "specificIds",
          "type": "uint256[]"
        }
      ],
      "name": "redeem",
      "outputs": [
        {
          "internalType": "uint256[]",
          "name": "",
          "type": "uint256[]"
        }
      ],
      "stateMutability": "nonpayable",
      "type": "function"
    },
    {
      "inputs": [
        {
          "internalType": "uint256",
          "name": "amount",
          "type": "uint256"
        },
        {
          "internalType": "uint256[]",
          "name": "specificIds",
          "type": "uint256[]"
        },
        {
          "internalType": "address",
          "name": "to",
          "type": "address"
        }
      ],
      "name": "redeemTo",
      "outputs": [
        {
          "internalType": "uint256[]",
          "name": "",
          "type": "uint256[]"
        }
      ],
      "stateMutability": "nonpayable",
      "type": "function"
    },
    {
      "inputs": [],
      "name": "renounceOwnership",
      "outputs": [],
      "stateMutability": "nonpayable",
      "type": "function"
    },
    {
      "inputs": [
        {
          "internalType": "uint256",
          "name": "_mintFee",
          "type": "uint256"
        },
        {
          "internalType": "uint256",
          "name": "_randomRedeemFee",
          "type": "uint256"
        },
        {
          "internalType": "uint256",
          "name": "_targetRedeemFee",
          "type": "uint256"
        },
        {
          "internalType": "uint256",
          "name": "_randomSwapFee",
          "type": "uint256"
        },
        {
          "internalType": "uint256",
          "name": "_targetSwapFee",
          "type": "uint256"
        }
      ],
      "name": "setFees",
      "outputs": [],
      "stateMutability": "nonpayable",
      "type": "function"
    },
    {
      "inputs": [
        {
          "internalType": "address",
          "name": "_manager",
          "type": "address"
        }
      ],
      "name": "setManager",
      "outputs": [],
      "stateMutability": "nonpayable",
      "type": "function"
    },
    {
      "inputs": [
        {
          "internalType": "bool",
          "name": "_enableMint",
          "type": "bool"
        },
        {
          "internalType": "bool",
          "name": "_enableRandomRedeem",
          "type": "bool"
        },
        {
          "internalType": "bool",
          "name": "_enableTargetRedeem",
          "type": "bool"
        },
        {
          "internalType": "bool",
          "name": "_enableRandomSwap",
          "type": "bool"
        },
        {
          "internalType": "bool",
          "name": "_enableTargetSwap",
          "type": "bool"
        }
      ],
      "name": "setVaultFeatures",
      "outputs": [],
      "stateMutability": "nonpayable",
      "type": "function"
    },
    {
      "inputs": [
        {
          "internalType": "string",
          "name": "name_",
          "type": "string"
        },
        {
          "internalType": "string",
          "name": "symbol_",
          "type": "string"
        }
      ],
      "name": "setVaultMetadata",
      "outputs": [],
      "stateMutability": "nonpayable",
      "type": "function"
    },
    {
      "inputs": [
        {
          "internalType": "bytes4",
          "name": "interfaceId",
          "type": "bytes4"
        }
      ],
      "name": "supportsInterface",
      "outputs": [
        {
          "internalType": "bool",
          "name": "",
          "type": "bool"
        }
      ],
      "stateMutability": "view",
      "type": "function"
    },
    {
      "inputs": [
        {
          "internalType": "uint256[]",
          "name": "tokenIds",
          "type": "uint256[]"
        },
        {
          "internalType": "uint256[]",
          "name": "amounts",
          "type": "uint256[]"
        },
        {
          "internalType": "uint256[]",
          "name": "specificIds",
          "type": "uint256[]"
        }
      ],
      "name": "swap",
      "outputs": [
        {
          "internalType": "uint256[]",
          "name": "",
          "type": "uint256[]"
        }
      ],
      "stateMutability": "nonpayable",
      "type": "function"
    },
    {
      "inputs": [
        {
          "internalType": "uint256[]",
          "name": "tokenIds",
          "type": "uint256[]"
        },
        {
          "internalType": "uint256[]",
          "name": "amounts",
          "type": "uint256[]"
        },
        {
          "internalType": "uint256[]",
          "name": "specificIds",
          "type": "uint256[]"
        },
        {
          "internalType": "address",
          "name": "to",
          "type": "address"
        }
      ],
      "name": "swapTo",
      "outputs": [
        {
          "internalType": "uint256[]",
          "name": "",
          "type": "uint256[]"
        }
      ],
      "stateMutability": "nonpayable",
      "type": "function"
    },
    {
      "inputs": [],
      "name": "symbol",
      "outputs": [
        {
          "internalType": "string",
          "name": "",
          "type": "string"
        }
      ],
      "stateMutability": "view",
      "type": "function"
    },
    {
      "inputs": [],
      "name": "targetRedeemFee",
      "outputs": [
        {
          "internalType": "uint256",
          "name": "",
          "type": "uint256"
        }
      ],
      "stateMutability": "view",
      "type": "function"
    },
    {
      "inputs": [],
      "name": "targetSwapFee",
      "outputs": [
        {
          "internalType": "uint256",
          "name": "",
          "type": "uint256"
        }
      ],
      "stateMutability": "view",
      "type": "function"
    },
    {
      "inputs": [],
      "name": "totalHoldings",
      "outputs": [
        {
          "internalType": "uint256",
          "name": "",
          "type": "uint256"
        }
      ],
      "stateMutability": "view",
      "type": "function"
    },
    {
      "inputs": [],
      "name": "totalSupply",
      "outputs": [
        {
          "internalType": "uint256",
          "name": "",
          "type": "uint256"
        }
      ],
      "stateMutability": "view",
      "type": "function"
    },
    {
      "inputs": [
        {
          "internalType": "address",
          "name": "recipient",
          "type": "address"
        },
        {
          "internalType": "uint256",
          "name": "amount",
          "type": "uint256"
        }
      ],
      "name": "transfer",
      "outputs": [
        {
          "internalType": "bool",
          "name": "",
          "type": "bool"
        }
      ],
      "stateMutability": "nonpayable",
      "type": "function"
    },
    {
      "inputs": [
        {
          "internalType": "address",
          "name": "sender",
          "type": "address"
        },
        {
          "internalType": "address",
          "name": "recipient",
          "type": "address"
        },
        {
          "internalType": "uint256",
          "name": "amount",
          "type": "uint256"
        }
      ],
      "name": "transferFrom",
      "outputs": [
        {
          "internalType": "bool",
          "name": "",
          "type": "bool"
        }
      ],
      "stateMutability": "nonpayable",
      "type": "function"
    },
    {
      "inputs": [
        {
          "internalType": "address",
          "name": "newOwner",
          "type": "address"
        }
      ],
      "name": "transferOwnership",
      "outputs": [],
      "stateMutability": "nonpayable",
      "type": "function"
    },
    {
      "inputs": [],
      "name": "vaultFactory",
      "outputs": [
        {
          "internalType": "contract INFTXVaultFactory",
          "name": "",
          "type": "address"
        }
      ],
      "stateMutability": "view",
      "type": "function"
    },
    {
      "inputs": [],
      "name": "vaultFees",
      "outputs": [
        {
          "internalType": "uint256",
          "name": "",
          "type": "uint256"
        },
        {
          "internalType": "uint256",
          "name": "",
          "type": "uint256"
        },
        {
          "internalType": "uint256",
          "name": "",
          "type": "uint256"
        },
        {
          "internalType": "uint256",
          "name": "",
          "type": "uint256"
        },
        {
          "internalType": "uint256",
          "name": "",
          "type": "uint256"
        }
      ],
      "stateMutability": "view",
      "type": "function"
    },
    {
      "inputs": [],
      "name": "vaultId",
      "outputs": [
        {
          "internalType": "uint256",
          "name": "",
          "type": "uint256"
        }
      ],
      "stateMutability": "view",
      "type": "function"
    },
    {
      "inputs": [],
      "name": "version",
      "outputs": [
        {
          "internalType": "string",
          "name": "",
          "type": "string"
        }
      ],
      "stateMutability": "pure",
      "type": "function"
    }
  ],
  "transactionHash": "0x069140239c08a5b443b38bf402b46787e264f624239ce4dc59441ef180eeff20",
  "args": [],
  "numDeployments": 1,
  "solcInputHash": "bec004d9b1b2142a40b20f41be4e23d6",
  "bytecode": "0x608060405234801561001057600080fd5b50614925806100206000396000f3fe608060405234801561001057600080fd5b506004361061038d5760003560e01c806372188e3f116101de578063d0ebdbe71161010f578063e78458c4116100ad578063f2fde38b1161007c578063f2fde38b14610817578063f7fce3341461082a578063fcc0e38114610832578063feb8eba51461084757600080fd5b8063e78458c4146107ca578063e9ec2e99146107dd578063f1d20dd4146107e5578063f23a6e61146107f857600080fd5b8063d8a06f73116100e9578063d8a06f7314610758578063d9d98ce41461076b578063dd62ed3e1461077e578063e0a8b97a146107b757600080fd5b8063d0ebdbe71461072a578063d53f62171461073d578063d6ee4a931461074557600080fd5b8063a457c2d71161017c578063bc197c8111610156578063bc197c81146106dd578063c3cb8c14146106fc578063c4a0db9614610704578063c4ff52471461071757600080fd5b8063a457c2d7146106a4578063a9059cbb146106b7578063b10402ea146106ca57600080fd5b80638da5cb5b116101b85780638da5cb5b146106655780638f878a431461067657806395d89b41146106895780639d54def61461069157600080fd5b806372188e3f1461060c578063793096581461063c5780638c8508141461065257600080fd5b806333194c0a116102c35780635035434a11610261578063613255ab11610230578063613255ab146105b55780636b948a35146105c857806370a08231146105db578063715018a61461060457600080fd5b80635035434a1461054857806354fd4d50146105565780635877aee61461058f5780635cffe9de146105a257600080fd5b80633d5d190c1161029d5780633d5d190c146104fb57806344b28d591461050e57806345a0b65214610522578063481c6a751461053557600080fd5b806333194c0a146104d757806335dca76c146104e057806339509351146104e857600080fd5b806313966db5116103305780631ba46cfd1161030a5780631ba46cfd1461047557806323b872dd146104a057806325705d8d146104b3578063313ce567146104c857600080fd5b806313966db514610420578063150b7a021461043657806318160ddd1461046d57600080fd5b806306f26dc21161036c57806306f26dc2146103d757806306fdde03146103e5578063095ea7b3146103fa5780630d636a091461040d57600080fd5b80625181611461039257806301ffc9a71461039c57806304a66b48146103c4575b600080fd5b61039a61084f565b005b6103af6103aa366004613b3a565b6108c0565b60405190151581526020015b60405180910390f35b61039a6103d2366004613b64565b6108f7565b610104546103af9060ff1681565b6103ed61098b565b6040516103bb9190613bf7565b6103af610408366004613c1f565b610a1d565b61039a61041b366004613c59565b610a33565b610428610ba7565b6040519081526020016103bb565b610454610444366004613d81565b630a85bd0160e11b949350505050565b6040516001600160e01b031990911681526020016103bb565b606754610428565b60fd54610488906001600160a01b031681565b6040516001600160a01b0390911681526020016103bb565b6103af6104ae366004613ded565b610c2d565b6104bb610cf8565b6040516103bb9190613e69565b604051601281526020016103bb565b61042860fb5481565b610428610d9b565b6103af6104f6366004613c1f565b610e20565b610428610509366004613ec8565b610e57565b610104546103af9062010000900460ff1681565b610428610530366004613f34565b610ed1565b60fc54610488906001600160a01b031681565b610108546103af9060ff1681565b60408051808201909152600681527f76312e302e35000000000000000000000000000000000000000000000000000060208201526103ed565b61048861059d366004613f8f565b610edf565b6103af6105b0366004613d81565b6110a2565b6104286105c3366004613fdb565b6110ba565b610104546103af90610100900460ff1681565b6104286105e9366004613fdb565b6001600160a01b031660009081526065602052604090205490565b61039a6110e2565b610614611186565b604080519586526020860194909452928401919091526060830152608082015260a0016103bb565b610104546103af90640100000000900460ff1681565b6104bb61066036600461406d565b611211565b6033546001600160a01b0316610488565b60ff54610488906001600160a01b031681565b6103ed61149d565b6104bb61069f366004614108565b6114ac565b6103af6106b2366004613c1f565b6116b4565b6103af6106c5366004613c1f565b611767565b6104286106d8366004614163565b611774565b6104546106eb3660046141bf565b63bc197c8160e01b95945050505050565b61039a6118c3565b6104bb61071236600461426d565b6118cf565b610108546103af90610100900460ff1681565b61039a610738366004613fdb565b611918565b610428611974565b6104bb6107533660046142ac565b6119f9565b60fe54610488906001600160a01b031681565b610428610779366004613c1f565b611aa6565b61042861078c366004614346565b6001600160a01b03918216600090815260666020908152604080832093909416825291909152205490565b61039a6107c536600461437f565b611b09565b61039a6107d83660046143df565b611b84565b610428611db2565b6103af6107f336600461444f565b611dc4565b610454610806366004614484565b63f23a6e6160e01b95945050505050565b61039a610825366004613fdb565b611e6e565b610428611fa0565b610104546103af906301000000900460ff1681565b610428612026565b6108576120ac565b60fe5460fb546040516360c1795960e11b81526001600160a01b039092169163c182f2b29161088c9160040190815260200190565b600060405180830381600087803b1580156108a657600080fd5b505af11580156108ba573d6000803e3d6000fd5b50505050565b60006001600160e01b03198216630271189760e51b14806108f157506301ffc9a760e01b6001600160e01b03198316145b92915050565b6108ff6120ac565b60fe5460fb546040516310ccb16960e11b815260048101919091526024810187905260448101869052606481018590526084810184905260a481018390526001600160a01b039091169063219962d29060c401600060405180830381600087803b15801561096c57600080fd5b505af1158015610980573d6000803e3d6000fd5b505050505050505050565b60606068805461099a906144ed565b80601f01602080910402602001604051908101604052809291908181526020018280546109c6906144ed565b8015610a135780601f106109e857610100808354040283529160200191610a13565b820191906000526020600020905b8154815290600101906020018083116109f657829003601f168201915b5050505050905090565b6000610a2a338484612170565b50600192915050565b610a3b6120ac565b610104805463ffff000019166201000087151590810263ff0000001916919091176301000000871515021764ff0000000019166401000000008615150217909155610108805461ffff191684151561ff00191617610100841515021790556040519081527fc604be2f834727754dc1ec1225c14d1ecde48e7d12fa7b745dfb137a3db998bd9060200160405180910390a160405184151581527f835d9397f97f5df575f718046bb3e918f911d39d7edfa79aa8d40ddc7d5ce2a59060200160405180910390a160405183151581527f64b60f32742df47d4ccb5b31ca12fee1bc20695467bfe8fa058b00ec446c15639060200160405180910390a160405182151581527f7e8b58aeb3d1d3a1777185c996f374a5d3c46ef3cd25a07ec6eb2569488d50589060200160405180910390a160405181151581527fbfb092a6cb2d49526b6982acab35d64782cf1c05f8c8f0dd88008b288bfa5af59060200160405180910390a15050505050565b60fe5460fb54604051632206137960e01b815260009283926001600160a01b0390911691632206137991610be19160040190815260200190565b60a060405180830381865afa158015610bfe573d6000803e3d6000fd5b505050506040513d601f19601f82011682018060405250810190610c229190614527565b509295945050505050565b6000610c3a848484612295565b6001600160a01b038416600090815260666020908152604080832033845290915290205482811015610cd95760405162461bcd60e51b815260206004820152602860248201527f45524332303a207472616e7366657220616d6f756e742065786365656473206160448201527f6c6c6f77616e636500000000000000000000000000000000000000000000000060648201526084015b60405180910390fd5b610ced8533610ce8868561457d565b612170565b506001949350505050565b60606000610d0761010561249c565b905060008167ffffffffffffffff811115610d2457610d24613cca565b604051908082528060200260200182016040528015610d4d578160200160208202803683370190505b50905060005b82811015610d9457610d67610105826124a6565b828281518110610d7957610d79614594565b6020908102919091010152610d8d816145aa565b9050610d53565b5092915050565b60fe5460fb54604051632206137960e01b815260009283926001600160a01b0390911691632206137991610dd59160040190815260200190565b60a060405180830381865afa158015610df2573d6000803e3d6000fd5b505050506040513d601f19601f82011682018060405250810190610e169190614527565b9695505050505050565b3360008181526066602090815260408083206001600160a01b03871684529091528120549091610a2a918590610ce89086906145c3565b6000610ec885858080602002602001604051908101604052809392919081815260200183836020028082843760009201919091525050604080516020808902828101820190935288825290935088925087918291850190849080828437600092019190915250339250611774915050565b95945050505050565b60006108f1610105836124a6565b6000610ee96120ac565b60ff546001600160a01b031615610f4d5760405162461bcd60e51b815260206004820152602260248201527f4e4654585661756c743a20656c69676962696c69747920616c72656164792073604482015261195d60f21b6064820152608401610cd0565b60fe5460408051630a63bfd560e11b815290516000926001600160a01b0316916314c77faa9160048083019260209291908290030181865afa158015610f97573d6000803e3d6000fd5b505050506040513d601f19601f82011682018060405250810190610fbb91906145db565b90506000816001600160a01b031663576ff9088787876040518463ffffffff1660e01b8152600401610fef939291906145f8565b6020604051808303816000875af115801561100e573d6000803e3d6000fd5b505050506040513d601f19601f8201168201806040525081019061103291906145db565b60ff80546001600160a01b0319166001600160a01b038316908117909155610104805461ff00191690556040805189815260208101929092529192507fe14c63b3d4272158635bee1d1b95b51bb8de042ee95a15cbfaf2865b4d0af811910160405180910390a195945050505050565b60006110ae60046124b2565b610ec885858585612584565b60006001600160a01b03821630146110d35760006108f1565b6067546108f19060001961457d565b6033546001600160a01b0316331461113c5760405162461bcd60e51b815260206004820181905260248201527f4f776e61626c653a2063616c6c6572206973206e6f7420746865206f776e65726044820152606401610cd0565b6033546040516000916001600160a01b0316907f8be0079c531659141344cd1fd0a4f28419497f9722a3daafe3b4186f6b6457e0908390a3603380546001600160a01b0319169055565b60fe5460fb54604051632206137960e01b8152600481019190915260009182918291829182916001600160a01b03169063220613799060240160a060405180830381865afa1580156111dc573d6000803e3d6000fd5b505050506040513d601f19601f820116820180604052508101906112009190614527565b945094509450945094509091929394565b6060600260c954036112655760405162461bcd60e51b815260206004820152601f60248201527f5265656e7472616e637947756172643a207265656e7472616e742063616c6c006044820152606401610cd0565b600260c95561127460036124b2565b6101045460009060ff16156113215760005b865181101561131b5760008682815181106112a3576112a3614594565b60200260200101519050806000036112fd5760405162461bcd60e51b815260206004820152601b60248201527f4e4654585661756c743a207472616e7366657272696e67203c203100000000006044820152606401610cd0565b61130781846145c3565b92505080611314906145aa565b9050611286565b50611325565b5084515b835181148061133757506101085460ff165b6113835760405162461bcd60e51b815260206004820152601f60248201527f4e4654585661756c743a2052616e646f6d20737761702064697361626c6564006044820152606401610cd0565b83511580611399575061010854610100900460ff165b6113e55760405162461bcd60e51b815260206004820152601f60248201527f4e4654585661756c743a2054617267657420737761702064697361626c6564006044820152606401610cd0565b6000806113f0611186565b945094505050506000865184611406919061457d565b611410908461462e565b875161141c908461462e565b61142691906145c3565b90506114323382612767565b600061143f8589896128bb565b905061144b8a8a612a88565b507f66982ed4a058811a8004bdcec9adcb3671f2b4f1a788667a3a74959d7c09af3c8a8a8a848b60405161148395949392919061464d565b60405180910390a1600160c9559998505050505050505050565b60606069805461099a906144ed565b6060600260c954036115005760405162461bcd60e51b815260206004820152601f60248201527f5265656e7472616e637947756172643a207265656e7472616e742063616c6c006044820152606401610cd0565b600260c9819055611510906124b2565b82518414806115295750610104546301000000900460ff165b6115815760405162461bcd60e51b8152602060048201526024808201527f4e4654585661756c743a2052616e646f6d2072656465656d206e6f7420656e61604482015263189b195960e21b6064820152608401610cd0565b8251158061159a575061010454640100000000900460ff165b6115f25760405162461bcd60e51b8152602060048201526024808201527f4e4654585661756c743a205461726765742072656465656d206e6f7420656e61604482015263189b195960e21b6064820152608401610cd0565b61160d3361160886670de0b6b3a764000061462e565b612cc8565b600080611618611186565b50509250925050600085518761162e919061457d565b611638908461462e565b8651611644908461462e565b61164e91906145c3565b905061165a3382612767565b60006116678888886128bb565b90507f63b13f6307f284441e029836b0c22eb91eb62a7ad555670061157930ce884f4e81888860405161169c939291906146b6565b60405180910390a1600160c955979650505050505050565b3360009081526066602090815260408083206001600160a01b03861684529091528120548281101561174e5760405162461bcd60e51b815260206004820152602560248201527f45524332303a2064656372656173656420616c6c6f77616e63652062656c6f7760448201527f207a65726f0000000000000000000000000000000000000000000000000000006064820152608401610cd0565b61175d3385610ce8868561457d565b5060019392505050565b6000610a2a338484612295565b6000600260c954036117c85760405162461bcd60e51b815260206004820152601f60248201527f5265656e7472616e637947756172643a207265656e7472616e742063616c6c006044820152606401610cd0565b600260c9556117d760016124b2565b6101045462010000900460ff166118305760405162461bcd60e51b815260206004820152601360248201527f4d696e74696e67206e6f7420656e61626c6564000000000000000000000000006044820152606401610cd0565b600061183c8585612a88565b90506118598361185483670de0b6b3a764000061462e565b612e17565b600081611864610ba7565b61186e919061462e565b905061187a8482612767565b7f1f72ad2a14447fa756b6f5aca53504645af79813493aca2d906b69e4aaeb94928686866040516118ad939291906146b6565b60405180910390a150600160c955949350505050565b6118cd6000611918565b565b6060611910848484808060200260200160405190810160405280939291908181526020018383602002808284376000920191909152503392506114ac915050565b949350505050565b6119206120ac565b60fc80546001600160a01b0319166001600160a01b0383169081179091556040519081527f60a0f5b9f9e81e98216071b85826681c796256fe3d1354ecb675580fba64fa699060200160405180910390a150565b60fe5460fb54604051632206137960e01b815260009283926001600160a01b03909116916322061379916119ae9160040190815260200190565b60a060405180830381865afa1580156119cb573d6000803e3d6000fd5b505050506040513d601f19601f820116820180604052508101906119ef9190614527565b5095945050505050565b6060611a9b87878080602002602001604051908101604052809392919081815260200183836020028082843760009201919091525050604080516020808b0282810182019093528a82529093508a92508991829185019084908082843760009201919091525050604080516020808a02828101820190935289825290935089925088918291850190849080828437600092019190915250339250611211915050565b979650505050505050565b60006001600160a01b0383163014611b005760405162461bcd60e51b815260206004820152601b60248201527f4552433230466c6173684d696e743a2077726f6e6720746f6b656e00000000006044820152606401610cd0565b50600092915050565b611b116120ac565b6108ba84848080601f01602080910402602001604051908101604052809392919081815260200183838082843760009201919091525050604080516020601f88018190048102820181019092528681529250869150859081908401838280828437600092019190915250612ef692505050565b600054610100900460ff1680611b9d575060005460ff16155b611c005760405162461bcd60e51b815260206004820152602e60248201527f496e697469616c697a61626c653a20636f6e747261637420697320616c72656160448201526d191e481a5b9a5d1a585b1a5e995960921b6064820152608401610cd0565b600054610100900460ff16158015611c22576000805461ffff19166101011790555b611c2a612f0f565b611c348686612fd1565b6001600160a01b038416611c8a5760405162461bcd60e51b815260206004820152601360248201527f417373657420213d2061646472657373283029000000000000000000000000006044820152606401610cd0565b60fd80546001600160a01b03199081166001600160a01b0387161790915560fe805433921682179055604080516304c94c4160e31b8152905163264a6208916004808201926020929091908290030181865afa158015611cee573d6000803e3d6000fd5b505050506040513d601f19601f82011682018060405250810190611d1291906146f5565b60fb8190556101048054841515610100810261ff001988151590811661ffff199094169390931717909255604080516001600160a01b038916815260208101929092528101919091527f18ecce5c418b882a3d89e5b6cc8100dc3383309b8e78525266fe1283a7f934d69060600160405180910390a2611d986001806001806001610a33565b8015611daa576000805461ff00191690555b505050505050565b6000611dbf61010561249c565b905090565b61010454600090610100900460ff1615611de057506001919050565b60ff546001600160a01b031680611dfa5750600092915050565b6040516384ca9f8560e01b81526001600160a01b038216906384ca9f8590611e26908690600401613e69565b602060405180830381865afa158015611e43573d6000803e3d6000fd5b505050506040513d601f19601f82011682018060405250810190611e67919061470e565b9392505050565b6033546001600160a01b03163314611ec85760405162461bcd60e51b815260206004820181905260248201527f4f776e61626c653a2063616c6c6572206973206e6f7420746865206f776e65726044820152606401610cd0565b6001600160a01b038116611f445760405162461bcd60e51b815260206004820152602660248201527f4f776e61626c653a206e6577206f776e657220697320746865207a65726f206160448201527f64647265737300000000000000000000000000000000000000000000000000006064820152608401610cd0565b6033546040516001600160a01b038084169216907f8be0079c531659141344cd1fd0a4f28419497f9722a3daafe3b4186f6b6457e090600090a3603380546001600160a01b0319166001600160a01b0392909216919091179055565b60fe5460fb54604051632206137960e01b815260009283926001600160a01b0390911691632206137991611fda9160040190815260200190565b60a060405180830381865afa158015611ff7573d6000803e3d6000fd5b505050506040513d601f19601f8201168201806040525081019061201b9190614527565b509195945050505050565b60fe5460fb54604051632206137960e01b815260009283926001600160a01b03909116916322061379916120609160040190815260200190565b60a060405180830381865afa15801561207d573d6000803e3d6000fd5b505050506040513d601f19601f820116820180604052508101906120a19190614527565b509095945050505050565b60fc546001600160a01b0316612116576033546001600160a01b031633146118cd5760405162461bcd60e51b815260206004820152600960248201527f4e6f74206f776e657200000000000000000000000000000000000000000000006044820152606401610cd0565b60fc546001600160a01b031633146118cd5760405162461bcd60e51b815260206004820152600b60248201527f4e6f74206d616e616765720000000000000000000000000000000000000000006044820152606401610cd0565b6001600160a01b0383166121d25760405162461bcd60e51b8152602060048201526024808201527f45524332303a20617070726f76652066726f6d20746865207a65726f206164646044820152637265737360e01b6064820152608401610cd0565b6001600160a01b0382166122335760405162461bcd60e51b815260206004820152602260248201527f45524332303a20617070726f766520746f20746865207a65726f206164647265604482015261737360f01b6064820152608401610cd0565b6001600160a01b0383811660008181526066602090815260408083209487168084529482529182902085905590518481527f8c5be1e5ebec7d5bd14f71427d1e84f3dd0314c0f7b2291e5b200ac8c7c3b92591015b60405180910390a3505050565b6001600160a01b0383166123115760405162461bcd60e51b815260206004820152602560248201527f45524332303a207472616e736665722066726f6d20746865207a65726f20616460448201527f64726573730000000000000000000000000000000000000000000000000000006064820152608401610cd0565b6001600160a01b0382166123735760405162461bcd60e51b815260206004820152602360248201527f45524332303a207472616e7366657220746f20746865207a65726f206164647260448201526265737360e81b6064820152608401610cd0565b6001600160a01b038316600090815260656020526040902054818110156124025760405162461bcd60e51b815260206004820152602660248201527f45524332303a207472616e7366657220616d6f756e742065786365656473206260448201527f616c616e636500000000000000000000000000000000000000000000000000006064820152608401610cd0565b61240c828261457d565b6001600160a01b0380861660009081526065602052604080822093909355908516815290812080548492906124429084906145c3565b92505081905550826001600160a01b0316846001600160a01b03167fddf252ad1be2c89b69c2b068fc378daa952ba7f163c4a11628f55a4df523b3ef8460405161248e91815260200190565b60405180910390a350505050565b60006108f1825490565b6000611e678383613097565b60fe5460405163f6aacfb160e01b8152600481018390526001600160a01b039091169063f6aacfb190602401602060405180830381865afa1580156124fb573d6000803e3d6000fd5b505050506040513d601f19601f8201168201806040525081019061251f919061470e565b158061253557506033546001600160a01b031633145b6125815760405162461bcd60e51b815260206004820152600660248201527f50617573656400000000000000000000000000000000000000000000000000006044820152606401610cd0565b50565b6000806125918585611aa6565b905061259d8685612e17565b6040516323e30c8b60e01b81527f439148f0bbc682ca079e46d6e2c2f0c1e3b820f1a291b069d8882abf8cf18dd9906001600160a01b038816906323e30c8b906125f39033908a908a9088908b9060040161472b565b6020604051808303816000875af1158015612612573d6000803e3d6000fd5b505050506040513d601f19601f8201168201806040525081019061263691906146f5565b1461268f5760405162461bcd60e51b8152602060048201526024808201527f4552433230466c6173684d696e743a20696e76616c69642072657475726e2076604482015263616c756560e01b6064820152608401610cd0565b6001600160a01b03861660009081526066602090815260408083203084529091529020546126bd82866145c3565b8110156127325760405162461bcd60e51b815260206004820152602f60248201527f4552433230466c6173684d696e743a20616c6c6f77616e636520646f6573206e60448201527f6f7420616c6c6f7720726566756e6400000000000000000000000000000000006064820152608401610cd0565b61274c873084612742898661457d565b610ce8919061457d565b61275a8761160884886145c3565b5060019695505050505050565b60fe546040516306df336560e51b81523360048201526001600160a01b0390911690819063dbe66ca090602401602060405180830381865afa1580156127b1573d6000803e3d6000fd5b505050506040513d601f19601f820116820180604052508101906127d5919061470e565b156127df57505050565b81156128b6576000816001600160a01b0316630d43e8ad6040518163ffffffff1660e01b8152600401602060405180830381865afa158015612825573d6000803e3d6000fd5b505050506040513d601f19601f8201168201806040525081019061284991906145db565b9050612856848285612295565b60fb546040516391c05b0b60e01b815260048101919091526001600160a01b038216906391c05b0b90602401600060405180830381600087803b15801561289c57600080fd5b505af11580156128b0573d6000803e3d6000fd5b50505050505b505050565b6101045460fd5460609160ff16906001600160a01b031660008667ffffffffffffffff8111156128ed576128ed613cca565b604051908082528060200260200182016040528015612916578160200160208202803683370190505b50865190915060005b88811015612a7357600082821061293d576129386130c1565b612958565b88828151811061294f5761294f614594565b60200260200101515b90508084838151811061296d5761296d614594565b6020026020010181815250508515612a4a5760008181526101076020526040812080546001929061299f90849061457d565b90915550506000818152610107602052604081205490036129c8576129c66101058261315f565b505b604051637921219560e11b81523060048201526001600160a01b038981166024830152604482018390526001606483015260a06084830152600060a483015286169063f242432a9060c401600060405180830381600087803b158015612a2d57600080fd5b505af1158015612a41573d6000803e3d6000fd5b50505050612a62565b612a566101058261315f565b50612a6285898361316b565b50612a6c816145aa565b905061291f565b50612a7d82613340565b509695505050505050565b6000612a9383611dc4565b612adf5760405162461bcd60e51b815260206004820152601760248201527f4e4654585661756c743a206e6f7420656c696769626c650000000000000000006044820152606401610cd0565b82516101045460ff1615612c5f5760fd54604051631759616b60e11b81526001600160a01b0390911690632eb2c2d690612b23903390309089908990600401614763565b600060405180830381600087803b158015612b3d57600080fd5b505af1158015612b51573d6000803e3d6000fd5b505050506000805b82811015612c55576000868281518110612b7557612b75614594565b602002602001015190506000868381518110612b9357612b93614594565b6020026020010151905080600003612bed5760405162461bcd60e51b815260206004820152601b60248201527f4e4654585661756c743a207472616e7366657272696e67203c203100000000006044820152606401610cd0565b600082815261010760205260408120549003612c1157612c0f610105836133af565b505b6000828152610107602052604081208054839290612c309084906145c3565b90915550612c40905081856145c3565b9350505080612c4e906145aa565b9050612b59565b5091506108f19050565b60fd546001600160a01b031660005b82811015612cbd576000868281518110612c8a57612c8a614594565b60200260200101519050612c9e83826133bb565b612caa610105826133af565b505080612cb6906145aa565b9050612c6e565b5081925050506108f1565b6001600160a01b038216612d285760405162461bcd60e51b815260206004820152602160248201527f45524332303a206275726e2066726f6d20746865207a65726f206164647265736044820152607360f81b6064820152608401610cd0565b6001600160a01b03821660009081526065602052604090205481811015612d9c5760405162461bcd60e51b815260206004820152602260248201527f45524332303a206275726e20616d6f756e7420657863656564732062616c616e604482015261636560f01b6064820152608401610cd0565b612da6828261457d565b6001600160a01b03841660009081526065602052604081209190915560678054849290612dd490849061457d565b90915550506040518281526000906001600160a01b038516907fddf252ad1be2c89b69c2b068fc378daa952ba7f163c4a11628f55a4df523b3ef90602001612288565b6001600160a01b038216612e6d5760405162461bcd60e51b815260206004820152601f60248201527f45524332303a206d696e7420746f20746865207a65726f2061646472657373006044820152606401610cd0565b8060676000828254612e7f91906145c3565b90915550506001600160a01b03821660009081526065602052604081208054839290612eac9084906145c3565b90915550506040518181526001600160a01b038316906000907fddf252ad1be2c89b69c2b068fc378daa952ba7f163c4a11628f55a4df523b3ef9060200160405180910390a35050565b6068612f028382614804565b5060696128b68282614804565b600054610100900460ff1680612f28575060005460ff16155b612f8b5760405162461bcd60e51b815260206004820152602e60248201527f496e697469616c697a61626c653a20636f6e747261637420697320616c72656160448201526d191e481a5b9a5d1a585b1a5e995960921b6064820152608401610cd0565b600054610100900460ff16158015612fad576000805461ffff19166101011790555b612fb5613784565b612fbd613835565b8015612581576000805461ff001916905550565b600054610100900460ff1680612fea575060005460ff16155b61304d5760405162461bcd60e51b815260206004820152602e60248201527f496e697469616c697a61626c653a20636f6e747261637420697320616c72656160448201526d191e481a5b9a5d1a585b1a5e995960921b6064820152608401610cd0565b600054610100900460ff1615801561306f576000805461ffff19166101011790555b613077613784565b613081838361392a565b80156128b6576000805461ff0019169055505050565b60008260000182815481106130ae576130ae614594565b9060005260206000200154905092915050565b6000806130cf61010561249c565b6130da60014361457d565b61010054604080519240602084015282015241606090811b6bffffffffffffffffffffffff19169082015244607482015242609482015260b4016040516020818303038152906040528051906020012060001c61313791906148c4565b905061010060008154613149906145aa565b90915550613159610105826124a6565b91505090565b6000611e6783836139f8565b7306012c8cf97bead5deae237070f9587f8e7a266d73b47e3cd837ddf8e4c57f05d70ab865de6e193bbb60607306012c8cf97bead5deae237070f9587f8e7a266c196001600160a01b03871601613209576040516001600160a01b03861660248201526044810185905260640160408051601f198184030181529190526020810180516001600160e01b031663a9059cbb60e01b17905290506132be565b816001600160a01b0316866001600160a01b03160361326f576040516001600160a01b03861660248201526044810185905260640160408051601f198184030181529190526020810180516001600160e01b03166322dca8bb60e21b17905290506132be565b6040513060248201526001600160a01b03861660448201526064810185905260840160408051601f198184030181529190526020810180516001600160e01b0316632142170760e11b17905290505b600080876001600160a01b0316836040516132d991906148e6565b6000604051808303816000865af19150503d8060008114613316576040519150601f19603f3d011682016040523d82523d6000602084013e61331b565b606091505b50915091508181906109805760405162461bcd60e51b8152600401610cd09190613bf7565b60ff546001600160a01b031680613355575050565b604051632f17cda960e11b81526001600160a01b03821690635e2f9b5290613381908590600401613e69565b600060405180830381600087803b15801561339b57600080fd5b505af1158015611daa573d6000803e3d6000fd5b6000611e678383613aeb565b7306012c8cf97bead5deae237070f9587f8e7a266d73b47e3cd837ddf8e4c57f05d70ab865de6e193bbb60607306012c8cf97bead5deae237070f9587f8e7a266c196001600160a01b03861601613456576040513360248201523060448201526064810185905260840160408051601f198184030181529190526020810180516001600160e01b03166323b872dd60e01b1790529050613702565b816001600160a01b0316856001600160a01b0316036135ce5760008460405160240161348491815260200190565b60408051601f198184030181529181526020820180516001600160e01b0316630b02f02d60e31b1790525190915060009081906001600160a01b038916906134cd9085906148e6565b600060405180830381855afa9150503d8060008114613508576040519150601f19603f3d011682016040523d82523d6000602084013e61350d565b606091505b509150915060008180602001905181019061352891906145db565b905082801561353f57506001600160a01b03811633145b61358b5760405162461bcd60e51b815260206004820152601160248201527f4e6f7420746865204e4654206f776e65720000000000000000000000000000006044820152606401610cd0565b6040516024810189905260440160408051601f198184030181529190526020810180516001600160e01b031663104c9fd360e31b17905294506137029350505050565b60fd546040516331a9108f60e11b81526004810186905230916001600160a01b031690636352211e90602401602060405180830381865afa158015613617573d6000803e3d6000fd5b505050506040513d601f19601f8201168201806040525081019061363b91906145db565b6001600160a01b0316036136bc576136686101058560008181526001830160205260408120541515611e67565b156136b55760405162461bcd60e51b815260206004820152601a60248201527f547279696e6720746f2075736520616e206f776e6564204e46540000000000006044820152606401610cd0565b5050505050565b6040513360248201523060448201526064810185905260840160408051601f198184030181529190526020810180516001600160e01b0316632142170760e11b17905290505b600080866001600160a01b03168360405161371d91906148e6565b6000604051808303816000865af19150503d806000811461375a576040519150601f19603f3d011682016040523d82523d6000602084013e61375f565b606091505b50915091508181906128b05760405162461bcd60e51b8152600401610cd09190613bf7565b600054610100900460ff168061379d575060005460ff16155b6138005760405162461bcd60e51b815260206004820152602e60248201527f496e697469616c697a61626c653a20636f6e747261637420697320616c72656160448201526d191e481a5b9a5d1a585b1a5e995960921b6064820152608401610cd0565b600054610100900460ff16158015612fbd576000805461ffff19166101011790558015612581576000805461ff001916905550565b600054610100900460ff168061384e575060005460ff16155b6138b15760405162461bcd60e51b815260206004820152602e60248201527f496e697469616c697a61626c653a20636f6e747261637420697320616c72656160448201526d191e481a5b9a5d1a585b1a5e995960921b6064820152608401610cd0565b600054610100900460ff161580156138d3576000805461ffff19166101011790555b603380546001600160a01b0319163390811790915560405181906000907f8be0079c531659141344cd1fd0a4f28419497f9722a3daafe3b4186f6b6457e0908290a3508015612581576000805461ff001916905550565b600054610100900460ff1680613943575060005460ff16155b6139a65760405162461bcd60e51b815260206004820152602e60248201527f496e697469616c697a61626c653a20636f6e747261637420697320616c72656160448201526d191e481a5b9a5d1a585b1a5e995960921b6064820152608401610cd0565b600054610100900460ff161580156139c8576000805461ffff19166101011790555b60686139d48482614804565b5060696139e18382614804565b5080156128b6576000805461ff0019169055505050565b60008181526001830160205260408120548015613ae1576000613a1c60018361457d565b8554909150600090613a309060019061457d565b9050818114613a95576000866000018281548110613a5057613a50614594565b9060005260206000200154905080876000018481548110613a7357613a73614594565b6000918252602080832090910192909255918252600188019052604090208390555b8554869080613aa657613aa6614902565b6001900381819060005260206000200160009055905585600101600086815260200190815260200160002060009055600193505050506108f1565b60009150506108f1565b6000818152600183016020526040812054613b32575081546001818101845560008481526020808220909301849055845484825282860190935260409020919091556108f1565b5060006108f1565b600060208284031215613b4c57600080fd5b81356001600160e01b031981168114611e6757600080fd5b600080600080600060a08688031215613b7c57600080fd5b505083359560208501359550604085013594606081013594506080013592509050565b60005b83811015613bba578181015183820152602001613ba2565b838111156108ba5750506000910152565b60008151808452613be3816020860160208601613b9f565b601f01601f19169290920160200192915050565b602081526000611e676020830184613bcb565b6001600160a01b038116811461258157600080fd5b60008060408385031215613c3257600080fd5b8235613c3d81613c0a565b946020939093013593505050565b801515811461258157600080fd5b600080600080600060a08688031215613c7157600080fd5b8535613c7c81613c4b565b94506020860135613c8c81613c4b565b93506040860135613c9c81613c4b565b92506060860135613cac81613c4b565b91506080860135613cbc81613c4b565b809150509295509295909350565b634e487b7160e01b600052604160045260246000fd5b604051601f8201601f1916810167ffffffffffffffff81118282101715613d0957613d09613cca565b604052919050565b600082601f830112613d2257600080fd5b813567ffffffffffffffff811115613d3c57613d3c613cca565b613d4f601f8201601f1916602001613ce0565b818152846020838601011115613d6457600080fd5b816020850160208301376000918101602001919091529392505050565b60008060008060808587031215613d9757600080fd5b8435613da281613c0a565b93506020850135613db281613c0a565b925060408501359150606085013567ffffffffffffffff811115613dd557600080fd5b613de187828801613d11565b91505092959194509250565b600080600060608486031215613e0257600080fd5b8335613e0d81613c0a565b92506020840135613e1d81613c0a565b929592945050506040919091013590565b600081518084526020808501945080840160005b83811015613e5e57815187529582019590820190600101613e42565b509495945050505050565b602081526000611e676020830184613e2e565b60008083601f840112613e8e57600080fd5b50813567ffffffffffffffff811115613ea657600080fd5b6020830191508360208260051b8501011115613ec157600080fd5b9250929050565b60008060008060408587031215613ede57600080fd5b843567ffffffffffffffff80821115613ef657600080fd5b613f0288838901613e7c565b90965094506020870135915080821115613f1b57600080fd5b50613f2887828801613e7c565b95989497509550505050565b600060208284031215613f4657600080fd5b5035919050565b60008083601f840112613f5f57600080fd5b50813567ffffffffffffffff811115613f7757600080fd5b602083019150836020828501011115613ec157600080fd5b600080600060408486031215613fa457600080fd5b83359250602084013567ffffffffffffffff811115613fc257600080fd5b613fce86828701613f4d565b9497909650939450505050565b600060208284031215613fed57600080fd5b8135611e6781613c0a565b600082601f83011261400957600080fd5b8135602067ffffffffffffffff82111561402557614025613cca565b8160051b614034828201613ce0565b928352848101820192828101908785111561404e57600080fd5b83870192505b84831015611a9b57823582529183019190830190614054565b6000806000806080858703121561408357600080fd5b843567ffffffffffffffff8082111561409b57600080fd5b6140a788838901613ff8565b955060208701359150808211156140bd57600080fd5b6140c988838901613ff8565b945060408701359150808211156140df57600080fd5b506140ec87828801613ff8565b92505060608501356140fd81613c0a565b939692955090935050565b60008060006060848603121561411d57600080fd5b83359250602084013567ffffffffffffffff81111561413b57600080fd5b61414786828701613ff8565b925050604084013561415881613c0a565b809150509250925092565b60008060006060848603121561417857600080fd5b833567ffffffffffffffff8082111561419057600080fd5b61419c87838801613ff8565b945060208601359150808211156141b257600080fd5b5061414786828701613ff8565b600080600080600060a086880312156141d757600080fd5b85356141e281613c0a565b945060208601356141f281613c0a565b9350604086013567ffffffffffffffff8082111561420f57600080fd5b61421b89838a01613ff8565b9450606088013591508082111561423157600080fd5b61423d89838a01613ff8565b9350608088013591508082111561425357600080fd5b5061426088828901613d11565b9150509295509295909350565b60008060006040848603121561428257600080fd5b83359250602084013567ffffffffffffffff8111156142a057600080fd5b613fce86828701613e7c565b600080600080600080606087890312156142c557600080fd5b863567ffffffffffffffff808211156142dd57600080fd5b6142e98a838b01613e7c565b9098509650602089013591508082111561430257600080fd5b61430e8a838b01613e7c565b9096509450604089013591508082111561432757600080fd5b5061433489828a01613e7c565b979a9699509497509295939492505050565b6000806040838503121561435957600080fd5b823561436481613c0a565b9150602083013561437481613c0a565b809150509250929050565b6000806000806040858703121561439557600080fd5b843567ffffffffffffffff808211156143ad57600080fd5b6143b988838901613f4d565b909650945060208701359150808211156143d257600080fd5b50613f2887828801613f4d565b600080600080600060a086880312156143f757600080fd5b853567ffffffffffffffff8082111561440f57600080fd5b61441b89838a01613d11565b9650602088013591508082111561443157600080fd5b5061443e88828901613d11565b9450506040860135613c9c81613c0a565b60006020828403121561446157600080fd5b813567ffffffffffffffff81111561447857600080fd5b61191084828501613ff8565b600080600080600060a0868803121561449c57600080fd5b85356144a781613c0a565b945060208601356144b781613c0a565b93506040860135925060608601359150608086013567ffffffffffffffff8111156144e157600080fd5b61426088828901613d11565b600181811c9082168061450157607f821691505b60208210810361452157634e487b7160e01b600052602260045260246000fd5b50919050565b600080600080600060a0868803121561453f57600080fd5b5050835160208501516040860151606087015160809097015192989197509594509092509050565b634e487b7160e01b600052601160045260246000fd5b60008282101561458f5761458f614567565b500390565b634e487b7160e01b600052603260045260246000fd5b6000600182016145bc576145bc614567565b5060010190565b600082198211156145d6576145d6614567565b500190565b6000602082840312156145ed57600080fd5b8151611e6781613c0a565b83815260406020820152816040820152818360608301376000818301606090810191909152601f909201601f1916010192915050565b600081600019048311821515161561464857614648614567565b500290565b60a08152600061466060a0830188613e2e565b82810360208401526146728188613e2e565b905082810360408401526146868187613e2e565b9050828103606084015261469a8186613e2e565b9150506001600160a01b03831660808301529695505050505050565b6060815260006146c96060830186613e2e565b82810360208401526146db8186613e2e565b9150506001600160a01b0383166040830152949350505050565b60006020828403121561470757600080fd5b5051919050565b60006020828403121561472057600080fd5b8151611e6781613c4b565b60006001600160a01b03808816835280871660208401525084604083015283606083015260a06080830152611a9b60a0830184613bcb565b60006001600160a01b03808716835280861660208401525060a0604083015261478f60a0830185613e2e565b82810360608401526147a18185613e2e565b838103608090940193909352505060008152602001949350505050565b601f8211156128b657600081815260208120601f850160051c810160208610156147e55750805b601f850160051c820191505b81811015611daa578281556001016147f1565b815167ffffffffffffffff81111561481e5761481e613cca565b6148328161482c84546144ed565b846147be565b602080601f831160018114614867576000841561484f5750858301515b600019600386901b1c1916600185901b178555611daa565b600085815260208120601f198616915b8281101561489657888601518255948401946001909101908401614877565b50858210156148b45787850151600019600388901b60f8161c191681555b5050505050600190811b01905550565b6000826148e157634e487b7160e01b600052601260045260246000fd5b500690565b600082516148f8818460208701613b9f565b9190910192915050565b634e487b7160e01b600052603160045260246000fdfea164736f6c634300080f000a",
  "devdoc": {
    "kind": "dev",
    "methods": {
      "allowance(address,address)": {
        "details": "See {IERC20-allowance}."
      },
      "approve(address,uint256)": {
        "details": "See {IERC20-approve}. Requirements: - `spender` cannot be the zero address."
      },
      "balanceOf(address)": {
        "details": "See {IERC20-balanceOf}."
      },
      "decimals()": {
        "details": "Returns the number of decimals used to get its user representation. For example, if `decimals` equals `2`, a balance of `505` tokens should be displayed to a user as `5,05` (`505 / 10 ** 2`). Tokens usually opt for a value of 18, imitating the relationship between Ether and Wei. This is the value {ERC20} uses, unless this function is overridden; NOTE: This information is only used for _display_ purposes: it in no way affects any of the arithmetic of the contract, including {IERC20-balanceOf} and {IERC20-transfer}."
      },
      "decreaseAllowance(address,uint256)": {
        "details": "Atomically decreases the allowance granted to `spender` by the caller. This is an alternative to {approve} that can be used as a mitigation for problems described in {IERC20-approve}. Emits an {Approval} event indicating the updated allowance. Requirements: - `spender` cannot be the zero address. - `spender` must have allowance for the caller of at least `subtractedValue`."
      },
      "flashFee(address,uint256)": {
        "details": "Returns the fee applied when doing flash loans. By default this implementation has 0 fees. This function can be overloaded to make the flash loan mechanism deflationary.",
        "params": {
          "amount": "The amount of tokens to be loaned.",
          "token": "The token to be flash loaned."
        },
        "returns": {
          "_0": "The fees applied to the corresponding flash loan."
        }
      },
      "flashLoan(address,address,uint256,bytes)": {
        "details": "Performs a flash loan. New tokens are minted and sent to the `receiver`, who is required to implement the {IERC3156FlashBorrower} interface. By the end of the flash loan, the receiver is expected to own amount + fee tokens and have them approved back to the token contract itself so they can be burned.",
        "params": {
          "amount": "The amount of tokens to be loaned.",
          "data": "An arbitrary datafield that is passed to the receiver.",
          "receiver": "The receiver of the flash loan. Should implement the {IERC3156FlashBorrower.onFlashLoan} interface.",
          "token": "The token to be flash loaned. Only `address(this)` is supported."
        },
        "returns": {
          "_0": "`true` is the flash loan was successfull."
        }
      },
      "increaseAllowance(address,uint256)": {
        "details": "Atomically increases the allowance granted to `spender` by the caller. This is an alternative to {approve} that can be used as a mitigation for problems described in {IERC20-approve}. Emits an {Approval} event indicating the updated allowance. Requirements: - `spender` cannot be the zero address."
      },
      "maxFlashLoan(address)": {
        "details": "Returns the maximum amount of tokens available for loan.",
        "params": {
          "token": "The address of the token that is requested."
        },
        "returns": {
          "_0": "The amont of token that can be loaned."
        }
      },
      "name()": {
        "details": "Returns the name of the token."
      },
      "onERC721Received(address,address,uint256,bytes)": {
        "details": "See {IERC721Receiver-onERC721Received}. Always returns `IERC721Receiver.onERC721Received.selector`."
      },
      "owner()": {
        "details": "Returns the address of the current owner."
      },
      "renounceOwnership()": {
        "details": "Leaves the contract without owner. It will not be possible to call `onlyOwner` functions anymore. Can only be called by the current owner. NOTE: Renouncing ownership will leave the contract without an owner, thereby removing any functionality that is only available to the owner."
      },
      "supportsInterface(bytes4)": {
        "details": "See {IERC165-supportsInterface}."
      },
      "symbol()": {
        "details": "Returns the symbol of the token, usually a shorter version of the name."
      },
      "totalSupply()": {
        "details": "See {IERC20-totalSupply}."
      },
      "transfer(address,uint256)": {
        "details": "See {IERC20-transfer}. Requirements: - `recipient` cannot be the zero address. - the caller must have a balance of at least `amount`."
      },
      "transferFrom(address,address,uint256)": {
        "details": "See {IERC20-transferFrom}. Emits an {Approval} event indicating the updated allowance. This is not required by the EIP. See the note at the beginning of {ERC20}. Requirements: - `sender` and `recipient` cannot be the zero address. - `sender` must have a balance of at least `amount`. - the caller must have allowance for ``sender``'s tokens of at least `amount`."
      },
      "transferOwnership(address)": {
        "details": "Transfers ownership of the contract to a new account (`newOwner`). Can only be called by the current owner."
      }
    },
    "version": 1
  },
  "userdoc": {
    "kind": "user",
    "methods": {},
    "version": 1
  },
  "storageLayout": {
    "storage": [
      {
        "astId": 31626,
        "contract": "src/v2/NFTXVaultUpgradeable.sol:NFTXVaultUpgradeable",
        "label": "_initialized",
        "offset": 0,
        "slot": "0",
        "type": "t_bool"
      },
      {
        "astId": 31629,
        "contract": "src/v2/NFTXVaultUpgradeable.sol:NFTXVaultUpgradeable",
        "label": "_initializing",
        "offset": 1,
        "slot": "0",
        "type": "t_bool"
      },
      {
        "astId": 35493,
        "contract": "src/v2/NFTXVaultUpgradeable.sol:NFTXVaultUpgradeable",
        "label": "__gap",
        "offset": 0,
        "slot": "1",
        "type": "t_array(t_uint256)50_storage"
      },
      {
        "astId": 36259,
        "contract": "src/v2/NFTXVaultUpgradeable.sol:NFTXVaultUpgradeable",
        "label": "_owner",
        "offset": 0,
        "slot": "51",
        "type": "t_address"
      },
      {
        "astId": 36378,
        "contract": "src/v2/NFTXVaultUpgradeable.sol:NFTXVaultUpgradeable",
        "label": "__gap",
        "offset": 0,
        "slot": "52",
        "type": "t_array(t_uint256)49_storage"
      },
      {
        "astId": 33321,
        "contract": "src/v2/NFTXVaultUpgradeable.sol:NFTXVaultUpgradeable",
        "label": "_balances",
        "offset": 0,
        "slot": "101",
        "type": "t_mapping(t_address,t_uint256)"
      },
      {
        "astId": 33327,
        "contract": "src/v2/NFTXVaultUpgradeable.sol:NFTXVaultUpgradeable",
        "label": "_allowances",
        "offset": 0,
        "slot": "102",
        "type": "t_mapping(t_address,t_mapping(t_address,t_uint256))"
      },
      {
        "astId": 33329,
        "contract": "src/v2/NFTXVaultUpgradeable.sol:NFTXVaultUpgradeable",
        "label": "_totalSupply",
        "offset": 0,
        "slot": "103",
        "type": "t_uint256"
      },
      {
        "astId": 33331,
        "contract": "src/v2/NFTXVaultUpgradeable.sol:NFTXVaultUpgradeable",
        "label": "_name",
        "offset": 0,
        "slot": "104",
        "type": "t_string_storage"
      },
      {
        "astId": 33333,
        "contract": "src/v2/NFTXVaultUpgradeable.sol:NFTXVaultUpgradeable",
        "label": "_symbol",
        "offset": 0,
        "slot": "105",
        "type": "t_string_storage"
      },
      {
        "astId": 33851,
        "contract": "src/v2/NFTXVaultUpgradeable.sol:NFTXVaultUpgradeable",
        "label": "__gap",
        "offset": 0,
        "slot": "106",
        "type": "t_array(t_uint256)45_storage"
      },
      {
        "astId": 33301,
        "contract": "src/v2/NFTXVaultUpgradeable.sol:NFTXVaultUpgradeable",
        "label": "__gap",
        "offset": 0,
        "slot": "151",
        "type": "t_array(t_uint256)50_storage"
      },
      {
        "astId": 36552,
        "contract": "src/v2/NFTXVaultUpgradeable.sol:NFTXVaultUpgradeable",
        "label": "_status",
        "offset": 0,
        "slot": "201",
        "type": "t_uint256"
      },
      {
        "astId": 36595,
        "contract": "src/v2/NFTXVaultUpgradeable.sol:NFTXVaultUpgradeable",
        "label": "__gap",
        "offset": 0,
        "slot": "202",
        "type": "t_array(t_uint256)49_storage"
      },
      {
        "astId": 25895,
        "contract": "src/v2/NFTXVaultUpgradeable.sol:NFTXVaultUpgradeable",
        "label": "vaultId",
        "offset": 0,
        "slot": "251",
        "type": "t_uint256"
      },
      {
        "astId": 25898,
        "contract": "src/v2/NFTXVaultUpgradeable.sol:NFTXVaultUpgradeable",
        "label": "manager",
        "offset": 0,
        "slot": "252",
        "type": "t_address"
      },
      {
        "astId": 25901,
        "contract": "src/v2/NFTXVaultUpgradeable.sol:NFTXVaultUpgradeable",
        "label": "assetAddress",
        "offset": 0,
        "slot": "253",
        "type": "t_address"
      },
      {
        "astId": 25905,
        "contract": "src/v2/NFTXVaultUpgradeable.sol:NFTXVaultUpgradeable",
        "label": "vaultFactory",
        "offset": 0,
        "slot": "254",
        "type": "t_contract(INFTXVaultFactory)30536"
      },
      {
        "astId": 25909,
        "contract": "src/v2/NFTXVaultUpgradeable.sol:NFTXVaultUpgradeable",
        "label": "eligibilityStorage",
        "offset": 0,
        "slot": "255",
        "type": "t_contract(INFTXEligibility)29400"
      },
      {
        "astId": 25911,
        "contract": "src/v2/NFTXVaultUpgradeable.sol:NFTXVaultUpgradeable",
        "label": "randNonce",
        "offset": 0,
        "slot": "256",
        "type": "t_uint256"
      },
      {
        "astId": 25913,
        "contract": "src/v2/NFTXVaultUpgradeable.sol:NFTXVaultUpgradeable",
        "label": "UNUSED_FEE1",
        "offset": 0,
        "slot": "257",
        "type": "t_uint256"
      },
      {
        "astId": 25915,
        "contract": "src/v2/NFTXVaultUpgradeable.sol:NFTXVaultUpgradeable",
        "label": "UNUSED_FEE2",
        "offset": 0,
        "slot": "258",
        "type": "t_uint256"
      },
      {
        "astId": 25917,
        "contract": "src/v2/NFTXVaultUpgradeable.sol:NFTXVaultUpgradeable",
        "label": "UNUSED_FEE3",
        "offset": 0,
        "slot": "259",
        "type": "t_uint256"
      },
      {
        "astId": 25920,
        "contract": "src/v2/NFTXVaultUpgradeable.sol:NFTXVaultUpgradeable",
        "label": "is1155",
        "offset": 0,
        "slot": "260",
        "type": "t_bool"
      },
      {
        "astId": 25923,
        "contract": "src/v2/NFTXVaultUpgradeable.sol:NFTXVaultUpgradeable",
        "label": "allowAllItems",
        "offset": 1,
        "slot": "260",
        "type": "t_bool"
      },
      {
        "astId": 25926,
        "contract": "src/v2/NFTXVaultUpgradeable.sol:NFTXVaultUpgradeable",
        "label": "enableMint",
        "offset": 2,
        "slot": "260",
        "type": "t_bool"
      },
      {
        "astId": 25929,
        "contract": "src/v2/NFTXVaultUpgradeable.sol:NFTXVaultUpgradeable",
        "label": "enableRandomRedeem",
        "offset": 3,
        "slot": "260",
        "type": "t_bool"
      },
      {
        "astId": 25932,
        "contract": "src/v2/NFTXVaultUpgradeable.sol:NFTXVaultUpgradeable",
        "label": "enableTargetRedeem",
        "offset": 4,
        "slot": "260",
        "type": "t_bool"
      },
      {
        "astId": 25935,
        "contract": "src/v2/NFTXVaultUpgradeable.sol:NFTXVaultUpgradeable",
        "label": "holdings",
        "offset": 0,
        "slot": "261",
        "type": "t_struct(UintSet)36038_storage"
      },
      {
        "astId": 25939,
        "contract": "src/v2/NFTXVaultUpgradeable.sol:NFTXVaultUpgradeable",
        "label": "quantity1155",
        "offset": 0,
        "slot": "263",
        "type": "t_mapping(t_uint256,t_uint256)"
      },
      {
        "astId": 25942,
        "contract": "src/v2/NFTXVaultUpgradeable.sol:NFTXVaultUpgradeable",
        "label": "enableRandomSwap",
        "offset": 0,
        "slot": "264",
        "type": "t_bool"
      },
      {
        "astId": 25945,
        "contract": "src/v2/NFTXVaultUpgradeable.sol:NFTXVaultUpgradeable",
        "label": "enableTargetSwap",
        "offset": 1,
        "slot": "264",
        "type": "t_bool"
      }
    ],
    "types": {
      "t_address": {
        "encoding": "inplace",
        "label": "address",
        "numberOfBytes": "20"
      },
      "t_array(t_bytes32)dyn_storage": {
        "base": "t_bytes32",
        "encoding": "dynamic_array",
        "label": "bytes32[]",
        "numberOfBytes": "32"
      },
      "t_array(t_uint256)45_storage": {
        "base": "t_uint256",
        "encoding": "inplace",
        "label": "uint256[45]",
        "numberOfBytes": "1440"
      },
      "t_array(t_uint256)49_storage": {
        "base": "t_uint256",
        "encoding": "inplace",
        "label": "uint256[49]",
        "numberOfBytes": "1568"
      },
      "t_array(t_uint256)50_storage": {
        "base": "t_uint256",
        "encoding": "inplace",
        "label": "uint256[50]",
        "numberOfBytes": "1600"
      },
      "t_bool": {
        "encoding": "inplace",
        "label": "bool",
        "numberOfBytes": "1"
      },
      "t_bytes32": {
        "encoding": "inplace",
        "label": "bytes32",
        "numberOfBytes": "32"
      },
      "t_contract(INFTXEligibility)29400": {
        "encoding": "inplace",
        "label": "contract INFTXEligibility",
        "numberOfBytes": "20"
      },
      "t_contract(INFTXVaultFactory)30536": {
        "encoding": "inplace",
        "label": "contract INFTXVaultFactory",
        "numberOfBytes": "20"
      },
      "t_mapping(t_address,t_mapping(t_address,t_uint256))": {
        "encoding": "mapping",
        "key": "t_address",
        "label": "mapping(address => mapping(address => uint256))",
        "numberOfBytes": "32",
        "value": "t_mapping(t_address,t_uint256)"
      },
      "t_mapping(t_address,t_uint256)": {
        "encoding": "mapping",
        "key": "t_address",
        "label": "mapping(address => uint256)",
        "numberOfBytes": "32",
        "value": "t_uint256"
      },
      "t_mapping(t_bytes32,t_uint256)": {
        "encoding": "mapping",
        "key": "t_bytes32",
        "label": "mapping(bytes32 => uint256)",
        "numberOfBytes": "32",
        "value": "t_uint256"
      },
      "t_mapping(t_uint256,t_uint256)": {
        "encoding": "mapping",
        "key": "t_uint256",
        "label": "mapping(uint256 => uint256)",
        "numberOfBytes": "32",
        "value": "t_uint256"
      },
      "t_string_storage": {
        "encoding": "bytes",
        "label": "string",
        "numberOfBytes": "32"
      },
      "t_struct(Set)35640_storage": {
        "encoding": "inplace",
        "label": "struct EnumerableSetUpgradeable.Set",
        "members": [
          {
            "astId": 35635,
            "contract": "src/v2/NFTXVaultUpgradeable.sol:NFTXVaultUpgradeable",
            "label": "_values",
            "offset": 0,
            "slot": "0",
            "type": "t_array(t_bytes32)dyn_storage"
          },
          {
            "astId": 35639,
            "contract": "src/v2/NFTXVaultUpgradeable.sol:NFTXVaultUpgradeable",
            "label": "_indexes",
            "offset": 0,
            "slot": "1",
            "type": "t_mapping(t_bytes32,t_uint256)"
          }
        ],
        "numberOfBytes": "64"
      },
      "t_struct(UintSet)36038_storage": {
        "encoding": "inplace",
        "label": "struct EnumerableSetUpgradeable.UintSet",
        "members": [
          {
            "astId": 36037,
            "contract": "src/v2/NFTXVaultUpgradeable.sol:NFTXVaultUpgradeable",
            "label": "_inner",
            "offset": 0,
            "slot": "0",
            "type": "t_struct(Set)35640_storage"
          }
        ],
        "numberOfBytes": "64"
      },
      "t_uint256": {
        "encoding": "inplace",
        "label": "uint256",
        "numberOfBytes": "32"
      }
    }
  }
}