{
  "address": "0x2A03aC800b674F5F666c041d8f054B595286f3ba",
  "abi": [
    {
      "anonymous": false,
      "inputs": [
        {
          "indexed": false,
          "internalType": "uint8",
          "name": "version",
          "type": "uint8"
        }
      ],
      "name": "Initialized",
      "type": "event"
    },
    {
      "anonymous": false,
      "inputs": [
        {
          "indexed": false,
          "internalType": "bytes32",
          "name": "merkleRoot",
          "type": "bytes32"
        },
        {
          "indexed": false,
          "internalType": "string",
          "name": "_merkleReference",
          "type": "string"
        },
        {
          "indexed": false,
          "internalType": "string",
          "name": "_merkleLeavesURI",
          "type": "string"
        }
      ],
      "name": "NFTXEligibilityInit",
      "type": "event"
    },
    {
      "anonymous": false,
      "inputs": [
        {
          "indexed": false,
          "internalType": "uint256",
          "name": "tokenId",
          "type": "uint256"
        },
        {
          "indexed": false,
          "internalType": "bytes32",
          "name": "requestId",
          "type": "bytes32"
        },
        {
          "indexed": false,
          "internalType": "bool",
          "name": "isValid",
          "type": "bool"
        }
      ],
      "name": "PrecursoryCheckComplete",
      "type": "event"
    },
    {
      "anonymous": false,
      "inputs": [
        {
          "indexed": false,
          "internalType": "uint256",
          "name": "tokenId",
          "type": "uint256"
        },
        {
          "indexed": false,
          "internalType": "bytes32",
          "name": "requestId",
          "type": "bytes32"
        }
      ],
      "name": "PrecursoryCheckStarted",
      "type": "event"
    },
    {
      "inputs": [
        {
          "internalType": "bytes32",
          "name": "_merkleRoot",
          "type": "bytes32"
        },
        {
          "internalType": "string",
          "name": "_merkleReference",
          "type": "string"
        },
        {
          "internalType": "string",
          "name": "_merkleLeavesURI",
          "type": "string"
        },
        {
          "internalType": "uint256",
          "name": "_minExpirationTime",
          "type": "uint256"
        }
      ],
      "name": "__NFTXEligibility_init",
      "outputs": [],
      "stateMutability": "nonpayable",
      "type": "function"
    },
    {
      "inputs": [
        {
          "internalType": "bytes32",
          "name": "_merkleRoot",
          "type": "bytes32"
        },
        {
          "internalType": "string",
          "name": "_merkleReference",
          "type": "string"
        },
        {
          "internalType": "string",
          "name": "_merkleLeavesURI",
          "type": "string"
        }
      ],
      "name": "__NFTXEligibility_init",
      "outputs": [],
      "stateMutability": "nonpayable",
      "type": "function"
    },
    {
      "inputs": [
        {
          "internalType": "bytes",
          "name": "configData",
          "type": "bytes"
        }
      ],
      "name": "__NFTXEligibility_init_bytes",
      "outputs": [],
      "stateMutability": "nonpayable",
      "type": "function"
    },
    {
      "inputs": [
        {
          "internalType": "uint256[]",
          "name": "tokenIds",
          "type": "uint256[]"
        }
      ],
      "name": "afterMintHook",
      "outputs": [],
      "stateMutability": "nonpayable",
      "type": "function"
    },
    {
      "inputs": [
        {
          "internalType": "uint256[]",
          "name": "tokenIds",
          "type": "uint256[]"
        }
      ],
      "name": "afterRedeemHook",
      "outputs": [],
      "stateMutability": "nonpayable",
      "type": "function"
    },
    {
      "inputs": [
        {
          "internalType": "uint256[]",
          "name": "tokenIds",
          "type": "uint256[]"
        }
      ],
      "name": "beforeMintHook",
      "outputs": [],
      "stateMutability": "nonpayable",
      "type": "function"
    },
    {
      "inputs": [
        {
          "internalType": "uint256[]",
          "name": "tokenIds",
          "type": "uint256[]"
        }
      ],
      "name": "beforeRedeemHook",
      "outputs": [],
      "stateMutability": "nonpayable",
      "type": "function"
    },
    {
      "inputs": [
        {
          "internalType": "uint256[]",
          "name": "tokenIds",
          "type": "uint256[]"
        }
      ],
      "name": "checkAllEligible",
      "outputs": [
        {
          "internalType": "bool",
          "name": "",
          "type": "bool"
        }
      ],
      "stateMutability": "view",
      "type": "function"
    },
    {
      "inputs": [
        {
          "internalType": "uint256[]",
          "name": "tokenIds",
          "type": "uint256[]"
        }
      ],
      "name": "checkAllIneligible",
      "outputs": [
        {
          "internalType": "bool",
          "name": "",
          "type": "bool"
        }
      ],
      "stateMutability": "view",
      "type": "function"
    },
    {
      "inputs": [
        {
          "internalType": "uint256[]",
          "name": "tokenIds",
          "type": "uint256[]"
        }
      ],
      "name": "checkEligible",
      "outputs": [
        {
          "internalType": "bool[]",
          "name": "",
          "type": "bool[]"
        }
      ],
      "stateMutability": "view",
      "type": "function"
    },
    {
      "inputs": [
        {
          "internalType": "uint256",
          "name": "tokenId",
          "type": "uint256"
        }
      ],
      "name": "checkIsEligible",
      "outputs": [
        {
          "internalType": "bool",
          "name": "",
          "type": "bool"
        }
      ],
      "stateMutability": "view",
      "type": "function"
    },
    {
      "inputs": [],
      "name": "finalized",
      "outputs": [
        {
          "internalType": "bool",
          "name": "",
          "type": "bool"
        }
      ],
      "stateMutability": "view",
      "type": "function"
    },
    {
      "inputs": [],
      "name": "merkleLeavesURI",
      "outputs": [
        {
          "internalType": "string",
          "name": "",
          "type": "string"
        }
      ],
      "stateMutability": "view",
      "type": "function"
    },
    {
      "inputs": [],
      "name": "merkleReference",
      "outputs": [
        {
          "internalType": "string",
          "name": "",
          "type": "string"
        }
      ],
      "stateMutability": "view",
      "type": "function"
    },
    {
      "inputs": [],
      "name": "merkleRoot",
      "outputs": [
        {
          "internalType": "bytes32",
          "name": "",
          "type": "bytes32"
        }
      ],
      "stateMutability": "view",
      "type": "function"
    },
    {
      "inputs": [],
      "name": "minExpirationTime",
      "outputs": [
        {
          "internalType": "uint256",
          "name": "",
          "type": "uint256"
        }
      ],
      "stateMutability": "view",
      "type": "function"
    },
    {
      "inputs": [],
      "name": "name",
      "outputs": [
        {
          "internalType": "string",
          "name": "",
          "type": "string"
        }
      ],
      "stateMutability": "pure",
      "type": "function"
    },
    {
      "inputs": [
        {
          "internalType": "uint256",
          "name": "tokenId",
          "type": "uint256"
        },
        {
          "internalType": "bytes32[]",
          "name": "merkleProof",
          "type": "bytes32[]"
        }
      ],
      "name": "processToken",
      "outputs": [
        {
          "internalType": "bool",
          "name": "isValid",
          "type": "bool"
        }
      ],
      "stateMutability": "nonpayable",
      "type": "function"
    },
    {
      "inputs": [
        {
          "internalType": "uint256[]",
          "name": "tokenIds",
          "type": "uint256[]"
        },
        {
          "internalType": "bytes32[][]",
          "name": "merkleProofs",
          "type": "bytes32[][]"
        }
      ],
      "name": "processTokens",
      "outputs": [
        {
          "internalType": "bool[]",
          "name": "",
          "type": "bool[]"
        }
      ],
      "stateMutability": "nonpayable",
      "type": "function"
    },
    {
      "inputs": [
        {
          "internalType": "uint256",
          "name": "tokenId",
          "type": "uint256"
        },
        {
          "internalType": "bytes32[]",
          "name": "merkleProof",
          "type": "bytes32[]"
        }
      ],
      "name": "requiresProcessing",
      "outputs": [
        {
          "internalType": "bool",
          "name": "",
          "type": "bool"
        }
      ],
      "stateMutability": "view",
      "type": "function"
    },
    {
      "inputs": [],
      "name": "targetAsset",
      "outputs": [
        {
          "internalType": "address",
          "name": "",
          "type": "address"
        }
      ],
      "stateMutability": "pure",
      "type": "function"
    },
    {
      "inputs": [
        {
          "internalType": "bytes32",
          "name": "",
          "type": "bytes32"
        }
      ],
      "name": "validTokenHashes",
      "outputs": [
        {
          "internalType": "bool",
          "name": "",
          "type": "bool"
        }
      ],
      "stateMutability": "view",
      "type": "function"
    }
  ],
  "transactionHash": "0x7116afc8c4b67a4d5c6d6a87a4f6754fadeedde1a7beb2ec94fd66b7f3c6dc7c",
  "args": [],
  "numDeployments": 1,
  "solcInputHash": "86b1d24146f3ebe063a3e2d32a72fbad",
  "bytecode": "0x608060405234801561001057600080fd5b5061156a806100206000396000f3fe608060405234801561001057600080fd5b50600436106101825760003560e01c806383033818116100d8578063b3f05b971161008c578063ca373f2811610066578063ca373f2814610304578063d2a096e814610317578063f3c6ce7a1461032a57600080fd5b8063b3f05b97146102ea578063bd8affde146101f2578063c5fa1375146102f157600080fd5b806390541ed5116100bd57806390541ed5146102a1578063a25a38ed146102b4578063afeaaf4b146102d757600080fd5b8063830338181461026b57806384ca9f851461028e57600080fd5b80633eea06d41161013a5780635e2f9b52116101145780635e2f9b52146101f25780636c47d595146101f25780636cd912601461024b57600080fd5b80633eea06d4146102285780634998b7f3146102305780635b88331e1461024357600080fd5b806331b412d71161016b57806331b412d7146101e957806336eb0862146101f25780633d4403ac1461020657600080fd5b806306fdde03146101875780632eb4a7ab146101d2575b600080fd5b60408051808201909152601481527f454e534d65726b6c65456c69676962696c69747900000000000000000000000060208201525b6040516101c99190610e2a565b60405180910390f35b6101db60035481565b6040519081526020016101c9565b6101db60065481565b610204610200366004610e89565b5050565b005b6040517357f1887a8bf19b14fc0df6fd9b2acc9af147ea8581526020016101c9565b6101bc61033d565b61020461023e366004610f78565b6103cb565b6101bc61050b565b61025e610259366004610e89565b610518565b6040516101c99190610fc1565b61027e610279366004611007565b6105cd565b60405190151581526020016101c9565b61027e61029c366004610e89565b610647565b6102046102af366004611073565b610695565b61027e6102c23660046110e8565b60016020526000908152604090205460ff1681565b61025e6102e5366004611101565b6107b2565b600161027e565b61027e6102ff366004611007565b61087c565b61027e610312366004610e89565b610988565b61027e6103253660046110e8565b6109cc565b61020461033836600461116d565b6109d7565b6004805461034a906111da565b80601f0160208091040260200160405190810160405280929190818152602001828054610376906111da565b80156103c35780601f10610398576101008083540402835291602001916103c3565b820191906000526020600020905b8154815290600101906020018083116103a657829003601f168201915b505050505081565b600054610100900460ff16158080156103eb5750600054600160ff909116105b806104055750303b158015610405575060005460ff166001145b61046d5760405162461bcd60e51b815260206004820152602e60248201527f496e697469616c697a61626c653a20636f6e747261637420697320616c72656160448201526d191e481a5b9a5d1a585b1a5e995960921b60648201526084015b60405180910390fd5b6000805460ff191660011790558015610490576000805461ff0019166101001790555b600080600080858060200190518101906104aa9190611259565b93509350935093506104be84848484610695565b505050508015610200576000805461ff0019169055604051600181527f7f26b83ff96e1f2b6a682f133852f6798a09c465da95921460cefb38474024989060200160405180910390a15050565b6005805461034a906111da565b60608160008167ffffffffffffffff81111561053657610536610ecb565b60405190808252806020026020018201604052801561055f578160200160208202803683370190505b50905060005b828110156105c25761058e868683818110610582576105826112ce565b90506020020135610b3d565b8282815181106105a0576105a06112ce565b91151560209283029190910190910152806105ba816112fa565b915050610565565b509150505b92915050565b6000600260006105dc86610bd8565b81526020019081526020016000206000610628858580806020026020016040519081016040528093929190818152602001838360200280828437600092019190915250610bf192505050565b815260208101919091526040016000205460ff161590505b9392505050565b600081815b8181101561068a57610669858583818110610582576105826112ce565b610678576000925050506105c7565b80610682816112fa565b91505061064c565b506001949350505050565b600054610100900460ff16158080156106b55750600054600160ff909116105b806106cf5750303b1580156106cf575060005460ff166001145b6107325760405162461bcd60e51b815260206004820152602e60248201527f496e697469616c697a61626c653a20636f6e747261637420697320616c72656160448201526d191e481a5b9a5d1a585b1a5e995960921b6064820152608401610464565b6000805460ff191660011790558015610755576000805461ff0019166101001790555b6107608585856109d7565b600682905580156107ab576000805461ff0019169055604051600181527f7f26b83ff96e1f2b6a682f133852f6798a09c465da95921460cefb38474024989060200160405180910390a15b5050505050565b60608360008167ffffffffffffffff8111156107d0576107d0610ecb565b6040519080825280602002602001820160405280156107f9578160200160208202803683370190505b50905060005b828110156108715761084788888381811061081c5761081c6112ce565b90506020020135878784818110610835576108356112ce565b90506020028101906102ff9190611313565b828281518110610859576108596112ce565b911515602092830291909101909101526001016107ff565b509695505050505050565b60006108898484846105cd565b61089d5761089684610b3d565b9050610640565b60006108a885610bd8565b90506108eb848480806020026020016040519081016040528093929190818152602001838360200280828437600092019190915250506003549150849050610c21565b9150811561090e576000818152600160205260409020805460ff19168315151790555b6001600260008381526020019081526020016000206000610961878780806020026020016040519081016040528093929190818152602001838360200280828437600092019190915250610bf192505050565b81526020810191909152604001600020805460ff1916911515919091179055509392505050565b600081815b8181101561068a576109aa858583818110610582576105826112ce565b156109ba576000925050506105c7565b806109c4816112fa565b91505061098d565b60006105c782610b3d565b600054610100900460ff16158080156109f75750600054600160ff909116105b80610a115750303b158015610a11575060005460ff166001145b610a745760405162461bcd60e51b815260206004820152602e60248201527f496e697469616c697a61626c653a20636f6e747261637420697320616c72656160448201526d191e481a5b9a5d1a585b1a5e995960921b6064820152608401610464565b6000805460ff191660011790558015610a97576000805461ff0019166101001790555b60038490556004610aa884826113ac565b506005610ab583826113ac565b507feaccdf52e14d5053012b2bacdc83bfc609cca17cd4b8843968b9ab7f41eb6841848484604051610ae99392919061146c565b60405180910390a18015610b37576000805461ff0019169055604051600181527f7f26b83ff96e1f2b6a682f133852f6798a09c465da95921460cefb38474024989060200160405180910390a15b50505050565b604051636b727d4360e11b8152600481018290526000907357f1887a8bf19b14fc0df6fd9b2acc9af147ea859063d6e4fa8690602401602060405180830381865afa158015610b90573d6000803e3d6000fd5b505050506040513d601f19601f82011682018060405250810190610bb491906114a1565b600654610bc190426114ba565b1115610bcf57506000919050565b6105c782610c67565b6000610be382610c90565b805190602001209050919050565b600081604051602001610c0491906114d2565b604051602081830303815290604052805190602001209050919050565b600081815b8551811015610c5c57610c5282878381518110610c4557610c456112ce565b6020026020010151610da6565b9150600101610c26565b509092149392505050565b600060016000610c7684610bd8565b815260208101919091526040016000205460ff1692915050565b606081600003610cb75750506040805180820190915260018152600360fc1b602082015290565b8160005b8115610cd657600101610ccf600a8361151e565b9150610cbb565b60008167ffffffffffffffff811115610cf157610cf1610ecb565b6040519080825280601f01601f191660200182016040528015610d1b576020820181803683370190505b5090505b8415610d9e57610d30600183611532565b9150610d3d600a86611549565b610d489060306114ba565b60f81b818381518110610d5d57610d5d6112ce565b60200101907effffffffffffffffffffffffffffffffffffffffffffffffffffffffffffff1916908160001a905350610d97600a8661151e565b9450610d1f565b949350505050565b6000818310610dc2576000828152602084905260409020610640565b5060009182526020526040902090565b60005b83811015610ded578181015183820152602001610dd5565b83811115610b375750506000910152565b60008151808452610e16816020860160208601610dd2565b601f01601f19169290920160200192915050565b6020815260006106406020830184610dfe565b60008083601f840112610e4f57600080fd5b50813567ffffffffffffffff811115610e6757600080fd5b6020830191508360208260051b8501011115610e8257600080fd5b9250929050565b60008060208385031215610e9c57600080fd5b823567ffffffffffffffff811115610eb357600080fd5b610ebf85828601610e3d565b90969095509350505050565b634e487b7160e01b600052604160045260246000fd5b604051601f8201601f1916810167ffffffffffffffff81118282101715610f0a57610f0a610ecb565b604052919050565b600067ffffffffffffffff821115610f2c57610f2c610ecb565b50601f01601f191660200190565b6000610f4d610f4884610f12565b610ee1565b9050828152838383011115610f6157600080fd5b828260208301376000602084830101529392505050565b600060208284031215610f8a57600080fd5b813567ffffffffffffffff811115610fa157600080fd5b8201601f81018413610fb257600080fd5b610d9e84823560208401610f3a565b6020808252825182820181905260009190848201906040850190845b81811015610ffb578351151583529284019291840191600101610fdd565b50909695505050505050565b60008060006040848603121561101c57600080fd5b83359250602084013567ffffffffffffffff81111561103a57600080fd5b61104686828701610e3d565b9497909650939450505050565b600082601f83011261106457600080fd5b61064083833560208501610f3a565b6000806000806080858703121561108957600080fd5b84359350602085013567ffffffffffffffff808211156110a857600080fd5b6110b488838901611053565b945060408701359150808211156110ca57600080fd5b506110d787828801611053565b949793965093946060013593505050565b6000602082840312156110fa57600080fd5b5035919050565b6000806000806040858703121561111757600080fd5b843567ffffffffffffffff8082111561112f57600080fd5b61113b88838901610e3d565b9096509450602087013591508082111561115457600080fd5b5061116187828801610e3d565b95989497509550505050565b60008060006060848603121561118257600080fd5b83359250602084013567ffffffffffffffff808211156111a157600080fd5b6111ad87838801611053565b935060408601359150808211156111c357600080fd5b506111d086828701611053565b9150509250925092565b600181811c908216806111ee57607f821691505b60208210810361120e57634e487b7160e01b600052602260045260246000fd5b50919050565b600082601f83011261122557600080fd5b8151611233610f4882610f12565b81815284602083860101111561124857600080fd5b610d9e826020830160208701610dd2565b6000806000806080858703121561126f57600080fd5b84519350602085015167ffffffffffffffff8082111561128e57600080fd5b61129a88838901611214565b945060408701519150808211156112b057600080fd5b506112bd87828801611214565b606096909601519497939650505050565b634e487b7160e01b600052603260045260246000fd5b634e487b7160e01b600052601160045260246000fd5b60006001820161130c5761130c6112e4565b5060010190565b6000808335601e1984360301811261132a57600080fd5b83018035915067ffffffffffffffff82111561134557600080fd5b6020019150600581901b3603821315610e8257600080fd5b601f8211156113a757600081815260208120601f850160051c810160208610156113845750805b601f850160051c820191505b818110156113a357828155600101611390565b5050505b505050565b815167ffffffffffffffff8111156113c6576113c6610ecb565b6113da816113d484546111da565b8461135d565b602080601f83116001811461140f57600084156113f75750858301515b600019600386901b1c1916600185901b1785556113a3565b600085815260208120601f198616915b8281101561143e5788860151825594840194600190910190840161141f565b508582101561145c5787850151600019600388901b60f8161c191681555b5050505050600190811b01905550565b8381526060602082015260006114856060830185610dfe565b82810360408401526114978185610dfe565b9695505050505050565b6000602082840312156114b357600080fd5b5051919050565b600082198211156114cd576114cd6112e4565b500190565b815160009082906020808601845b838110156114fc578151855293820193908201906001016114e0565b50929695505050505050565b634e487b7160e01b600052601260045260246000fd5b60008261152d5761152d611508565b500490565b600082821015611544576115446112e4565b500390565b60008261155857611558611508565b50069056fea164736f6c634300080f000a",
  "devdoc": {
    "author": "Twade",
    "kind": "dev",
    "methods": {
      "__NFTXEligibility_init(bytes32,string,string)": {
        "params": {
          "_merkleRoot": "The root of our merkle tree"
        }
      },
      "__NFTXEligibility_init(bytes32,string,string,uint256)": {
        "params": {
          "_merkleLeavesURI": "API endpoint providing unencoded JSON array",
          "_merkleReference": "Public name of the merkle eligibility implementation",
          "_merkleRoot": "The root of our merkle tree",
          "_minExpirationTime": "Minimum number of seconds until ENS expiration"
        }
      },
      "__NFTXEligibility_init_bytes(bytes)": {
        "params": {
          "configData": "Encoded config data"
        }
      },
      "finalized()": {
        "returns": {
          "_0": "bool"
        }
      },
      "name()": {
        "returns": {
          "_0": "string"
        }
      },
      "processToken(uint256,bytes32[])": {
        "params": {
          "merkleProof": "Merkle proof to validate against the tokenId",
          "tokenId": "The ENS token ID being validated"
        },
        "returns": {
          "isValid": "If the token is valid"
        }
      },
      "processTokens(uint256[],bytes32[][])": {
        "params": {
          "merkleProofs": "Merkle proofs to validate against the corresponding tokenId",
          "tokenIds": "The ENS token IDs being validated"
        },
        "returns": {
          "_0": "bool[] If the token at the corresponding index is valid"
        }
      },
      "requiresProcessing(uint256,bytes32[])": {
        "details": "If this returns `true`, `processToken` should subsequently be run before checking the eligibility of the token.",
        "params": {
          "tokenId": "The ENS domain token ID"
        },
        "returns": {
          "_0": "bool If the tokenId requires precursory validation"
        }
      },
      "targetAsset()": {
        "returns": {
          "_0": "address"
        }
      }
    },
    "title": "NFTX ENS Merkle Eligibility",
    "version": 1
  },
  "userdoc": {
    "events": {
      "NFTXEligibilityInit(bytes32,string,string)": {
        "notice": "Emitted when our NFTX Eligibility is deployed"
      },
      "PrecursoryCheckComplete(uint256,bytes32,bool)": {
        "notice": "Emitted when a project validity check has been completed"
      },
      "PrecursoryCheckStarted(uint256,bytes32)": {
        "notice": "Emitted when a project validity check is started"
      }
    },
    "kind": "user",
    "methods": {
      "__NFTXEligibility_init(bytes32,string,string)": {
        "notice": "Parameters here should mirror the config struct."
      },
      "__NFTXEligibility_init(bytes32,string,string,uint256)": {
        "notice": "Parameters here should mirror the config struct."
      },
      "__NFTXEligibility_init_bytes(bytes)": {
        "notice": "Allow our eligibility module to be initialised with optional config data."
      },
      "finalized()": {
        "notice": "Confirms that our module has been finalised and won't change."
      },
      "merkleLeavesURI()": {
        "notice": "URI to JSON list of unencoded token IDs"
      },
      "merkleReference()": {
        "notice": "Merkle reference for any required frontend differentiation"
      },
      "merkleRoot()": {
        "notice": "Merkle proof to validate all eligible domains against"
      },
      "minExpirationTime()": {
        "notice": "Minimum expiration time for ENS domains in seconds"
      },
      "name()": {
        "notice": "The name of our Eligibility Module."
      },
      "processToken(uint256,bytes32[])": {
        "notice": "This will run a precursory check by encoding the token ID, creating the token hash, and then checking this against our merkle tree."
      },
      "processTokens(uint256[],bytes32[][])": {
        "notice": "This will run a number of precursory checks by encoding the token ID, creating the token hash, and then checking this against our merkle tree."
      },
      "requiresProcessing(uint256,bytes32[])": {
        "notice": "Checks if the token requires a precursory validation before it can have it's eligibility determined."
      },
      "targetAsset()": {
        "notice": "The address of our token asset contract."
      },
      "validTokenHashes(bytes32)": {
        "notice": "Internal storage of valid and processed tokens"
      }
    },
    "notice": "Allows vaults to be allow eligibility based ENS domains, allowing for minimum expiration times to be set.",
    "version": 1
  },
  "storageLayout": {
    "storage": [
      {
        "astId": 276,
        "contract": "src/v2/eligibility/NFTXENSMerkleEligibility.sol:NFTXENSMerkleEligibility",
        "label": "_initialized",
        "offset": 0,
        "slot": "0",
        "type": "t_uint8"
      },
      {
        "astId": 279,
        "contract": "src/v2/eligibility/NFTXENSMerkleEligibility.sol:NFTXENSMerkleEligibility",
        "label": "_initializing",
        "offset": 1,
        "slot": "0",
        "type": "t_bool"
      },
      {
        "astId": 41752,
        "contract": "src/v2/eligibility/NFTXENSMerkleEligibility.sol:NFTXENSMerkleEligibility",
        "label": "validTokenHashes",
        "offset": 0,
        "slot": "1",
        "type": "t_mapping(t_bytes32,t_bool)"
      },
      {
        "astId": 41758,
        "contract": "src/v2/eligibility/NFTXENSMerkleEligibility.sol:NFTXENSMerkleEligibility",
        "label": "_processedTokenHashes",
        "offset": 0,
        "slot": "2",
        "type": "t_mapping(t_bytes32,t_mapping(t_bytes32,t_bool))"
      },
      {
        "astId": 41761,
        "contract": "src/v2/eligibility/NFTXENSMerkleEligibility.sol:NFTXENSMerkleEligibility",
        "label": "merkleRoot",
        "offset": 0,
        "slot": "3",
        "type": "t_bytes32"
      },
      {
        "astId": 41764,
        "contract": "src/v2/eligibility/NFTXENSMerkleEligibility.sol:NFTXENSMerkleEligibility",
        "label": "merkleReference",
        "offset": 0,
        "slot": "4",
        "type": "t_string_storage"
      },
      {
        "astId": 41767,
        "contract": "src/v2/eligibility/NFTXENSMerkleEligibility.sol:NFTXENSMerkleEligibility",
        "label": "merkleLeavesURI",
        "offset": 0,
        "slot": "5",
        "type": "t_string_storage"
      },
      {
        "astId": 41087,
        "contract": "src/v2/eligibility/NFTXENSMerkleEligibility.sol:NFTXENSMerkleEligibility",
        "label": "minExpirationTime",
        "offset": 0,
        "slot": "6",
        "type": "t_uint256"
      }
    ],
    "types": {
      "t_bool": {
        "encoding": "inplace",
        "label": "bool",
        "numberOfBytes": "1"
      },
      "t_bytes32": {
        "encoding": "inplace",
        "label": "bytes32",
        "numberOfBytes": "32"
      },
      "t_mapping(t_bytes32,t_bool)": {
        "encoding": "mapping",
        "key": "t_bytes32",
        "label": "mapping(bytes32 => bool)",
        "numberOfBytes": "32",
        "value": "t_bool"
      },
      "t_mapping(t_bytes32,t_mapping(t_bytes32,t_bool))": {
        "encoding": "mapping",
        "key": "t_bytes32",
        "label": "mapping(bytes32 => mapping(bytes32 => bool))",
        "numberOfBytes": "32",
        "value": "t_mapping(t_bytes32,t_bool)"
      },
      "t_string_storage": {
        "encoding": "bytes",
        "label": "string",
        "numberOfBytes": "32"
      },
      "t_uint256": {
        "encoding": "inplace",
        "label": "uint256",
        "numberOfBytes": "32"
      },
      "t_uint8": {
        "encoding": "inplace",
        "label": "uint8",
        "numberOfBytes": "1"
      }
    }
  }
}