{
  "address": "0xdC69Df04C9D9026bAF9205460995F517e3b13F88",
  "abi": [
    {
      "inputs": [
        {
          "internalType": "address",
          "name": "_factory",
          "type": "address"
        },
        {
          "internalType": "address",
          "name": "_WETH9",
          "type": "address"
        },
        {
          "internalType": "address",
          "name": "_tokenDescriptor_",
          "type": "address"
        }
      ],
      "stateMutability": "nonpayable",
      "type": "constructor"
    },
    {
      "inputs": [],
      "name": "T",
      "type": "error"
    },
    {
      "anonymous": false,
      "inputs": [
        {
          "indexed": true,
          "internalType": "address",
          "name": "owner",
          "type": "address"
        },
        {
          "indexed": true,
          "internalType": "address",
          "name": "approved",
          "type": "address"
        },
        {
          "indexed": true,
          "internalType": "uint256",
          "name": "tokenId",
          "type": "uint256"
        }
      ],
      "name": "Approval",
      "type": "event"
    },
    {
      "anonymous": false,
      "inputs": [
        {
          "indexed": true,
          "internalType": "address",
          "name": "owner",
          "type": "address"
        },
        {
          "indexed": true,
          "internalType": "address",
          "name": "operator",
          "type": "address"
        },
        {
          "indexed": false,
          "internalType": "bool",
          "name": "approved",
          "type": "bool"
        }
      ],
      "name": "ApprovalForAll",
      "type": "event"
    },
    {
      "anonymous": false,
      "inputs": [
        {
          "indexed": true,
          "internalType": "uint256",
          "name": "tokenId",
          "type": "uint256"
        },
        {
          "indexed": false,
          "internalType": "address",
          "name": "recipient",
          "type": "address"
        },
        {
          "indexed": false,
          "internalType": "uint256",
          "name": "amount0",
          "type": "uint256"
        },
        {
          "indexed": false,
          "internalType": "uint256",
          "name": "amount1",
          "type": "uint256"
        }
      ],
      "name": "Collect",
      "type": "event"
    },
    {
      "anonymous": false,
      "inputs": [
        {
          "indexed": true,
          "internalType": "uint256",
          "name": "tokenId",
          "type": "uint256"
        },
        {
          "indexed": false,
          "internalType": "uint128",
          "name": "liquidity",
          "type": "uint128"
        },
        {
          "indexed": false,
          "internalType": "uint256",
          "name": "amount0",
          "type": "uint256"
        },
        {
          "indexed": false,
          "internalType": "uint256",
          "name": "amount1",
          "type": "uint256"
        }
      ],
      "name": "DecreaseLiquidity",
      "type": "event"
    },
    {
      "anonymous": false,
      "inputs": [
        {
          "indexed": true,
          "internalType": "uint256",
          "name": "tokenId",
          "type": "uint256"
        },
        {
          "indexed": false,
          "internalType": "uint128",
          "name": "liquidity",
          "type": "uint128"
        },
        {
          "indexed": false,
          "internalType": "uint256",
          "name": "amount0",
          "type": "uint256"
        },
        {
          "indexed": false,
          "internalType": "uint256",
          "name": "amount1",
          "type": "uint256"
        }
      ],
      "name": "IncreaseLiquidity",
      "type": "event"
    },
    {
      "anonymous": false,
      "inputs": [
        {
          "indexed": true,
          "internalType": "address",
          "name": "previousOwner",
          "type": "address"
        },
        {
          "indexed": true,
          "internalType": "address",
          "name": "newOwner",
          "type": "address"
        }
      ],
      "name": "OwnershipTransferred",
      "type": "event"
    },
    {
      "anonymous": false,
      "inputs": [
        {
          "indexed": true,
          "internalType": "address",
          "name": "from",
          "type": "address"
        },
        {
          "indexed": true,
          "internalType": "address",
          "name": "to",
          "type": "address"
        },
        {
          "indexed": true,
          "internalType": "uint256",
          "name": "tokenId",
          "type": "uint256"
        }
      ],
      "name": "Transfer",
      "type": "event"
    },
    {
      "inputs": [],
      "name": "DOMAIN_SEPARATOR",
      "outputs": [
        {
          "internalType": "bytes32",
          "name": "",
          "type": "bytes32"
        }
      ],
      "stateMutability": "view",
      "type": "function"
    },
    {
      "inputs": [],
      "name": "PERMIT_TYPEHASH",
      "outputs": [
        {
          "internalType": "bytes32",
          "name": "",
          "type": "bytes32"
        }
      ],
      "stateMutability": "view",
      "type": "function"
    },
    {
      "inputs": [],
      "name": "WETH9",
      "outputs": [
        {
          "internalType": "address",
          "name": "",
          "type": "address"
        }
      ],
      "stateMutability": "view",
      "type": "function"
    },
    {
      "inputs": [
        {
          "internalType": "address",
          "name": "to",
          "type": "address"
        },
        {
          "internalType": "uint256",
          "name": "tokenId",
          "type": "uint256"
        }
      ],
      "name": "approve",
      "outputs": [],
      "stateMutability": "nonpayable",
      "type": "function"
    },
    {
      "inputs": [
        {
          "internalType": "address",
          "name": "owner",
          "type": "address"
        }
      ],
      "name": "balanceOf",
      "outputs": [
        {
          "internalType": "uint256",
          "name": "",
          "type": "uint256"
        }
      ],
      "stateMutability": "view",
      "type": "function"
    },
    {
      "inputs": [],
      "name": "baseURI",
      "outputs": [
        {
          "internalType": "string",
          "name": "",
          "type": "string"
        }
      ],
      "stateMutability": "pure",
      "type": "function"
    },
    {
      "inputs": [
        {
          "internalType": "uint256",
          "name": "tokenId",
          "type": "uint256"
        }
      ],
      "name": "burn",
      "outputs": [],
      "stateMutability": "payable",
      "type": "function"
    },
    {
      "inputs": [
        {
          "components": [
            {
              "internalType": "uint256",
              "name": "tokenId",
              "type": "uint256"
            },
            {
              "internalType": "address",
              "name": "recipient",
              "type": "address"
            },
            {
              "internalType": "uint128",
              "name": "amount0Max",
              "type": "uint128"
            },
            {
              "internalType": "uint128",
              "name": "amount1Max",
              "type": "uint128"
            }
          ],
          "internalType": "struct INonfungiblePositionManager.CollectParams",
          "name": "params",
          "type": "tuple"
        }
      ],
      "name": "collect",
      "outputs": [
        {
          "internalType": "uint256",
          "name": "amount0",
          "type": "uint256"
        },
        {
          "internalType": "uint256",
          "name": "amount1",
          "type": "uint256"
        }
      ],
      "stateMutability": "payable",
      "type": "function"
    },
    {
      "inputs": [
        {
          "internalType": "address",
          "name": "token0",
          "type": "address"
        },
        {
          "internalType": "address",
          "name": "token1",
          "type": "address"
        },
        {
          "internalType": "uint24",
          "name": "fee",
          "type": "uint24"
        },
        {
          "internalType": "uint160",
          "name": "sqrtPriceX96",
          "type": "uint160"
        }
      ],
      "name": "createAndInitializePoolIfNecessary",
      "outputs": [
        {
          "internalType": "address",
          "name": "pool",
          "type": "address"
        }
      ],
      "stateMutability": "payable",
      "type": "function"
    },
    {
      "inputs": [
        {
          "components": [
            {
              "internalType": "uint256",
              "name": "tokenId",
              "type": "uint256"
            },
            {
              "internalType": "uint128",
              "name": "liquidity",
              "type": "uint128"
            },
            {
              "internalType": "uint256",
              "name": "amount0Min",
              "type": "uint256"
            },
            {
              "internalType": "uint256",
              "name": "amount1Min",
              "type": "uint256"
            },
            {
              "internalType": "uint256",
              "name": "deadline",
              "type": "uint256"
            }
          ],
          "internalType": "struct INonfungiblePositionManager.DecreaseLiquidityParams",
          "name": "params",
          "type": "tuple"
        }
      ],
      "name": "decreaseLiquidity",
      "outputs": [
        {
          "internalType": "uint256",
          "name": "amount0",
          "type": "uint256"
        },
        {
          "internalType": "uint256",
          "name": "amount1",
          "type": "uint256"
        }
      ],
      "stateMutability": "payable",
      "type": "function"
    },
    {
      "inputs": [],
      "name": "factory",
      "outputs": [
        {
          "internalType": "address",
          "name": "",
          "type": "address"
        }
      ],
      "stateMutability": "view",
      "type": "function"
    },
    {
      "inputs": [
        {
          "internalType": "uint256",
          "name": "tokenId",
          "type": "uint256"
        }
      ],
      "name": "getApproved",
      "outputs": [
        {
          "internalType": "address",
          "name": "",
          "type": "address"
        }
      ],
      "stateMutability": "view",
      "type": "function"
    },
    {
      "inputs": [
        {
          "components": [
            {
              "internalType": "uint256",
              "name": "tokenId",
              "type": "uint256"
            },
            {
              "internalType": "uint256",
              "name": "amount0Desired",
              "type": "uint256"
            },
            {
              "internalType": "uint256",
              "name": "amount1Desired",
              "type": "uint256"
            },
            {
              "internalType": "uint256",
              "name": "amount0Min",
              "type": "uint256"
            },
            {
              "internalType": "uint256",
              "name": "amount1Min",
              "type": "uint256"
            },
            {
              "internalType": "uint256",
              "name": "deadline",
              "type": "uint256"
            }
          ],
          "internalType": "struct INonfungiblePositionManager.IncreaseLiquidityParams",
          "name": "params",
          "type": "tuple"
        }
      ],
      "name": "increaseLiquidity",
      "outputs": [
        {
          "internalType": "uint128",
          "name": "liquidity",
          "type": "uint128"
        },
        {
          "internalType": "uint256",
          "name": "amount0",
          "type": "uint256"
        },
        {
          "internalType": "uint256",
          "name": "amount1",
          "type": "uint256"
        }
      ],
      "stateMutability": "payable",
      "type": "function"
    },
    {
      "inputs": [
        {
          "internalType": "address",
          "name": "owner",
          "type": "address"
        },
        {
          "internalType": "address",
          "name": "operator",
          "type": "address"
        }
      ],
      "name": "isApprovedForAll",
      "outputs": [
        {
          "internalType": "bool",
          "name": "",
          "type": "bool"
        }
      ],
      "stateMutability": "view",
      "type": "function"
    },
    {
      "inputs": [
        {
          "internalType": "uint256",
          "name": "",
          "type": "uint256"
        }
      ],
      "name": "lockedUntil",
      "outputs": [
        {
          "internalType": "uint256",
          "name": "",
          "type": "uint256"
        }
      ],
      "stateMutability": "view",
      "type": "function"
    },
    {
      "inputs": [
        {
          "components": [
            {
              "internalType": "address",
              "name": "token0",
              "type": "address"
            },
            {
              "internalType": "address",
              "name": "token1",
              "type": "address"
            },
            {
              "internalType": "uint24",
              "name": "fee",
              "type": "uint24"
            },
            {
              "internalType": "int24",
              "name": "tickLower",
              "type": "int24"
            },
            {
              "internalType": "int24",
              "name": "tickUpper",
              "type": "int24"
            },
            {
              "internalType": "uint256",
              "name": "amount0Desired",
              "type": "uint256"
            },
            {
              "internalType": "uint256",
              "name": "amount1Desired",
              "type": "uint256"
            },
            {
              "internalType": "uint256",
              "name": "amount0Min",
              "type": "uint256"
            },
            {
              "internalType": "uint256",
              "name": "amount1Min",
              "type": "uint256"
            },
            {
              "internalType": "address",
              "name": "recipient",
              "type": "address"
            },
            {
              "internalType": "uint256",
              "name": "deadline",
              "type": "uint256"
            }
          ],
          "internalType": "struct INonfungiblePositionManager.MintParams",
          "name": "params",
          "type": "tuple"
        }
      ],
      "name": "mint",
      "outputs": [
        {
          "internalType": "uint256",
          "name": "tokenId",
          "type": "uint256"
        },
        {
          "internalType": "uint128",
          "name": "liquidity",
          "type": "uint128"
        },
        {
          "internalType": "uint256",
          "name": "amount0",
          "type": "uint256"
        },
        {
          "internalType": "uint256",
          "name": "amount1",
          "type": "uint256"
        }
      ],
      "stateMutability": "payable",
      "type": "function"
    },
    {
      "inputs": [
        {
          "internalType": "bytes[]",
          "name": "data",
          "type": "bytes[]"
        }
      ],
      "name": "multicall",
      "outputs": [
        {
          "internalType": "bytes[]",
          "name": "results",
          "type": "bytes[]"
        }
      ],
      "stateMutability": "payable",
      "type": "function"
    },
    {
      "inputs": [],
      "name": "name",
      "outputs": [
        {
          "internalType": "string",
          "name": "",
          "type": "string"
        }
      ],
      "stateMutability": "view",
      "type": "function"
    },
    {
      "inputs": [],
      "name": "owner",
      "outputs": [
        {
          "internalType": "address",
          "name": "",
          "type": "address"
        }
      ],
      "stateMutability": "view",
      "type": "function"
    },
    {
      "inputs": [
        {
          "internalType": "uint256",
          "name": "tokenId",
          "type": "uint256"
        }
      ],
      "name": "ownerOf",
      "outputs": [
        {
          "internalType": "address",
          "name": "",
          "type": "address"
        }
      ],
      "stateMutability": "view",
      "type": "function"
    },
    {
      "inputs": [
        {
          "internalType": "address",
          "name": "spender",
          "type": "address"
        },
        {
          "internalType": "uint256",
          "name": "tokenId",
          "type": "uint256"
        },
        {
          "internalType": "uint256",
          "name": "deadline",
          "type": "uint256"
        },
        {
          "internalType": "uint8",
          "name": "v",
          "type": "uint8"
        },
        {
          "internalType": "bytes32",
          "name": "r",
          "type": "bytes32"
        },
        {
          "internalType": "bytes32",
          "name": "s",
          "type": "bytes32"
        }
      ],
      "name": "permit",
      "outputs": [],
      "stateMutability": "payable",
      "type": "function"
    },
    {
      "inputs": [
        {
          "internalType": "uint256",
          "name": "tokenId",
          "type": "uint256"
        }
      ],
      "name": "positions",
      "outputs": [
        {
          "internalType": "uint96",
          "name": "nonce",
          "type": "uint96"
        },
        {
          "internalType": "address",
          "name": "operator",
          "type": "address"
        },
        {
          "internalType": "address",
          "name": "token0",
          "type": "address"
        },
        {
          "internalType": "address",
          "name": "token1",
          "type": "address"
        },
        {
          "internalType": "uint24",
          "name": "fee",
          "type": "uint24"
        },
        {
          "internalType": "int24",
          "name": "tickLower",
          "type": "int24"
        },
        {
          "internalType": "int24",
          "name": "tickUpper",
          "type": "int24"
        },
        {
          "internalType": "uint128",
          "name": "liquidity",
          "type": "uint128"
        },
        {
          "internalType": "uint256",
          "name": "feeGrowthInside0LastX128",
          "type": "uint256"
        },
        {
          "internalType": "uint256",
          "name": "feeGrowthInside1LastX128",
          "type": "uint256"
        },
        {
          "internalType": "uint128",
          "name": "tokensOwed0",
          "type": "uint128"
        },
        {
          "internalType": "uint128",
          "name": "tokensOwed1",
          "type": "uint128"
        }
      ],
      "stateMutability": "view",
      "type": "function"
    },
    {
      "inputs": [],
      "name": "refundETH",
      "outputs": [],
      "stateMutability": "payable",
      "type": "function"
    },
    {
      "inputs": [
        {
          "internalType": "address",
          "name": "receiver",
          "type": "address"
        }
      ],
      "name": "refundETH",
      "outputs": [],
      "stateMutability": "payable",
      "type": "function"
    },
    {
      "inputs": [],
      "name": "renounceOwnership",
      "outputs": [],
      "stateMutability": "nonpayable",
      "type": "function"
    },
    {
      "inputs": [
        {
          "internalType": "address",
          "name": "from",
          "type": "address"
        },
        {
          "internalType": "address",
          "name": "to",
          "type": "address"
        },
        {
          "internalType": "uint256",
          "name": "tokenId",
          "type": "uint256"
        }
      ],
      "name": "safeTransferFrom",
      "outputs": [],
      "stateMutability": "nonpayable",
      "type": "function"
    },
    {
      "inputs": [
        {
          "internalType": "address",
          "name": "from",
          "type": "address"
        },
        {
          "internalType": "address",
          "name": "to",
          "type": "address"
        },
        {
          "internalType": "uint256",
          "name": "tokenId",
          "type": "uint256"
        },
        {
          "internalType": "bytes",
          "name": "_data",
          "type": "bytes"
        }
      ],
      "name": "safeTransferFrom",
      "outputs": [],
      "stateMutability": "nonpayable",
      "type": "function"
    },
    {
      "inputs": [
        {
          "internalType": "address",
          "name": "token",
          "type": "address"
        },
        {
          "internalType": "uint256",
          "name": "value",
          "type": "uint256"
        },
        {
          "internalType": "uint256",
          "name": "deadline",
          "type": "uint256"
        },
        {
          "internalType": "uint8",
          "name": "v",
          "type": "uint8"
        },
        {
          "internalType": "bytes32",
          "name": "r",
          "type": "bytes32"
        },
        {
          "internalType": "bytes32",
          "name": "s",
          "type": "bytes32"
        }
      ],
      "name": "selfPermit",
      "outputs": [],
      "stateMutability": "payable",
      "type": "function"
    },
    {
      "inputs": [
        {
          "internalType": "address",
          "name": "token",
          "type": "address"
        },
        {
          "internalType": "uint256",
          "name": "nonce",
          "type": "uint256"
        },
        {
          "internalType": "uint256",
          "name": "expiry",
          "type": "uint256"
        },
        {
          "internalType": "uint8",
          "name": "v",
          "type": "uint8"
        },
        {
          "internalType": "bytes32",
          "name": "r",
          "type": "bytes32"
        },
        {
          "internalType": "bytes32",
          "name": "s",
          "type": "bytes32"
        }
      ],
      "name": "selfPermitAllowed",
      "outputs": [],
      "stateMutability": "payable",
      "type": "function"
    },
    {
      "inputs": [
        {
          "internalType": "address",
          "name": "token",
          "type": "address"
        },
        {
          "internalType": "uint256",
          "name": "nonce",
          "type": "uint256"
        },
        {
          "internalType": "uint256",
          "name": "expiry",
          "type": "uint256"
        },
        {
          "internalType": "uint8",
          "name": "v",
          "type": "uint8"
        },
        {
          "internalType": "bytes32",
          "name": "r",
          "type": "bytes32"
        },
        {
          "internalType": "bytes32",
          "name": "s",
          "type": "bytes32"
        }
      ],
      "name": "selfPermitAllowedIfNecessary",
      "outputs": [],
      "stateMutability": "payable",
      "type": "function"
    },
    {
      "inputs": [
        {
          "internalType": "address",
          "name": "token",
          "type": "address"
        },
        {
          "internalType": "uint256",
          "name": "value",
          "type": "uint256"
        },
        {
          "internalType": "uint256",
          "name": "deadline",
          "type": "uint256"
        },
        {
          "internalType": "uint8",
          "name": "v",
          "type": "uint8"
        },
        {
          "internalType": "bytes32",
          "name": "r",
          "type": "bytes32"
        },
        {
          "internalType": "bytes32",
          "name": "s",
          "type": "bytes32"
        }
      ],
      "name": "selfPermitIfNecessary",
      "outputs": [],
      "stateMutability": "payable",
      "type": "function"
    },
    {
      "inputs": [
        {
          "internalType": "address",
          "name": "operator",
          "type": "address"
        },
        {
          "internalType": "bool",
          "name": "approved",
          "type": "bool"
        }
      ],
      "name": "setApprovalForAll",
      "outputs": [],
      "stateMutability": "nonpayable",
      "type": "function"
    },
    {
      "inputs": [
        {
          "internalType": "uint256",
          "name": "tokenId",
          "type": "uint256"
        },
        {
          "internalType": "uint256",
          "name": "timestamp",
          "type": "uint256"
        }
      ],
      "name": "setLockedUntil",
      "outputs": [],
      "stateMutability": "nonpayable",
      "type": "function"
    },
    {
      "inputs": [
        {
          "internalType": "address",
          "name": "addr",
          "type": "address"
        },
        {
          "internalType": "bool",
          "name": "isExcluded",
          "type": "bool"
        }
      ],
      "name": "setTimelockExcluded",
      "outputs": [],
      "stateMutability": "nonpayable",
      "type": "function"
    },
    {
      "inputs": [
        {
          "internalType": "bytes4",
          "name": "interfaceId",
          "type": "bytes4"
        }
      ],
      "name": "supportsInterface",
      "outputs": [
        {
          "internalType": "bool",
          "name": "",
          "type": "bool"
        }
      ],
      "stateMutability": "view",
      "type": "function"
    },
    {
      "inputs": [
        {
          "internalType": "address",
          "name": "token",
          "type": "address"
        },
        {
          "internalType": "uint256",
          "name": "amountMinimum",
          "type": "uint256"
        },
        {
          "internalType": "address",
          "name": "recipient",
          "type": "address"
        }
      ],
      "name": "sweepToken",
      "outputs": [],
      "stateMutability": "payable",
      "type": "function"
    },
    {
      "inputs": [],
      "name": "symbol",
      "outputs": [
        {
          "internalType": "string",
          "name": "",
          "type": "string"
        }
      ],
      "stateMutability": "view",
      "type": "function"
    },
    {
      "inputs": [
        {
          "internalType": "address",
          "name": "",
          "type": "address"
        }
      ],
      "name": "timelockExcluded",
      "outputs": [
        {
          "internalType": "bool",
          "name": "",
          "type": "bool"
        }
      ],
      "stateMutability": "view",
      "type": "function"
    },
    {
      "inputs": [
        {
          "internalType": "uint256",
          "name": "index",
          "type": "uint256"
        }
      ],
      "name": "tokenByIndex",
      "outputs": [
        {
          "internalType": "uint256",
          "name": "",
          "type": "uint256"
        }
      ],
      "stateMutability": "view",
      "type": "function"
    },
    {
      "inputs": [
        {
          "internalType": "address",
          "name": "owner",
          "type": "address"
        },
        {
          "internalType": "uint256",
          "name": "index",
          "type": "uint256"
        }
      ],
      "name": "tokenOfOwnerByIndex",
      "outputs": [
        {
          "internalType": "uint256",
          "name": "",
          "type": "uint256"
        }
      ],
      "stateMutability": "view",
      "type": "function"
    },
    {
      "inputs": [
        {
          "internalType": "uint256",
          "name": "tokenId",
          "type": "uint256"
        }
      ],
      "name": "tokenURI",
      "outputs": [
        {
          "internalType": "string",
          "name": "",
          "type": "string"
        }
      ],
      "stateMutability": "view",
      "type": "function"
    },
    {
      "inputs": [],
      "name": "totalSupply",
      "outputs": [
        {
          "internalType": "uint256",
          "name": "",
          "type": "uint256"
        }
      ],
      "stateMutability": "view",
      "type": "function"
    },
    {
      "inputs": [
        {
          "internalType": "address",
          "name": "from",
          "type": "address"
        },
        {
          "internalType": "address",
          "name": "to",
          "type": "address"
        },
        {
          "internalType": "uint256",
          "name": "tokenId",
          "type": "uint256"
        }
      ],
      "name": "transferFrom",
      "outputs": [],
      "stateMutability": "nonpayable",
      "type": "function"
    },
    {
      "inputs": [
        {
          "internalType": "address",
          "name": "newOwner",
          "type": "address"
        }
      ],
      "name": "transferOwnership",
      "outputs": [],
      "stateMutability": "nonpayable",
      "type": "function"
    },
    {
      "inputs": [
        {
          "internalType": "uint256",
          "name": "amount0Owed",
          "type": "uint256"
        },
        {
          "internalType": "uint256",
          "name": "amount1Owed",
          "type": "uint256"
        },
        {
          "internalType": "bytes",
          "name": "data",
          "type": "bytes"
        }
      ],
      "name": "uniswapV3MintCallback",
      "outputs": [],
      "stateMutability": "nonpayable",
      "type": "function"
    },
    {
      "inputs": [
        {
          "internalType": "uint256",
          "name": "amountMinimum",
          "type": "uint256"
        },
        {
          "internalType": "address",
          "name": "recipient",
          "type": "address"
        }
      ],
      "name": "unwrapWETH9",
      "outputs": [],
      "stateMutability": "payable",
      "type": "function"
    },
    {
      "stateMutability": "payable",
      "type": "receive"
    }
  ],
  "transactionHash": "0x19c59631e068c77c04dfa2098e5e378d4bc88e5dddb78bd065ade14be4194ebe",
  "args": [
    "0xAaB56871c2F33Fe49441D5A797bEA1587555e8DC",
    "0xB4FBF271143F4FBf7B91A5ded31805e42b2208d6",
    "0x28e1C6854cB05b92ffF477C8e9151ff7Ae726369"
  ],
  "numDeployments": 1,
  "solcInputHash": "830f43c79f0df927d62b16220291f66c",
  "bytecode": "0x610120346200048e576001600160401b03601f6200605238819003918201601f19168401918383118584101762000391578085926060946040528339810103126200048e576200004f82620004b3565b916200006c60406200006460208401620004b3565b9201620004b3565b926200007762000493565b9260118452704e46545820563320506f736974696f6e7360781b6020850152620000a062000493565b90600b82526a4e4654582d56332d504f5360a81b6020830152620000c362000493565b9160018352603160f81b602084015285518281116200039157600054600181811c9116801562000483575b60208210146200037057601f81116200042b575b50806020601f8211600114620003b357600091620003a7575b508160011b916000199060031b1c1916176000555b8051918211620003915760015490600182811c9216801562000386575b6020831014620003705781601f8493116200030c575b50602090601f8311600114620002925760009262000286575b50508160011b916000199060031b1c1916176001555b600a8054336001600160a01b0319821681179092556040519591906001600160a01b03167f8be0079c531659141344cd1fd0a4f28419497f9722a3daafe3b4186f6b6457e0600088a3602081519101206080526020815191012060a05260c05260e052760100000000000000000000000000000000000000000001600e55610100918252615b499182620004c9833960805182614809015260a0518261482f015260c0518281816108a101528181610cce0152818161227a015281816128ad01528181614adb0152614c85015260e0518281816116540152818161177a0152818161536b015261549b015251816129510152f35b0151905038806200017c565b60016000908152600080516020620060328339815191529350601f198516905b818110620002f35750908460019594939210620002d9575b505050811b0160015562000192565b015160001960f88460031b161c19169055388080620002ca565b92936020600181928786015181550195019301620002b2565b600160005290915060008051602062006032833981519152601f840160051c8101916020851062000365575b90601f859493920160051c01905b81811062000355575062000163565b6000815584935060010162000346565b909150819062000338565b634e487b7160e01b600052602260045260246000fd5b91607f16916200014d565b634e487b7160e01b600052604160045260246000fd5b9050870151386200011b565b6000808052600080516020620060128339815191529250601f198416905b8a828210620004125750509083600194939210620003f8575b5050811b0160005562000130565b89015160001960f88460031b161c191690553880620003ea565b60018495602093958493015181550194019201620003d1565b6000805260008051602062006012833981519152601f830160051c8101916020841062000478575b601f0160051c01905b8181106200046b575062000102565b600081556001016200045c565b909150819062000453565b90607f1690620000ee565b600080fd5b60408051919082016001600160401b038111838210176200039157604052565b51906001600160a01b03821682036200048e5756fe60806040526004361015610023575b361561001957600080fd5b610021615361565b005b60003560e01c806301ffc9a7146103bb57806306fdde03146103b2578063081812fc146103a9578063095ea7b3146103a05780630c49ccbe1461039757806312210e8a1461038e57806313ead5621461038557806318160ddd1461037c5780631cf6e5b414610373578063211b832c1461036a578063219f5d171461036157806323b872dd146103585780632a3ec9061461034f5780632f745c591461034657806330adf81f1461033d5780633644e5151461033457806342842e0e1461032b57806342966c68146103225780634659a4941461031957806349404b7c146103105780634aa4a4fc146103075780634f6ccce7146102fe5780636352211e146102f55780636c0360eb146102ec57806370a08231146102e3578063715018a6146102da5780637ac2ff7b146102d15780637cd78b02146102c857806388316456146102bf5780638da5cb5b146102b657806395d89b41146102ad57806399fbab88146102a45780639aebe5ad1461029b578063a22cb46514610292578063a4a78f0c14610289578063ac9650d814610280578063b88d4fde14610277578063c2e3140a1461026e578063c45a015514610265578063c87b56dd1461025c578063d348799714610253578063df2ab5bb1461024a578063e985e9c514610241578063f2fde38b14610238578063f3995c671461022f5763fc6f78650361000e5761022a612bf2565b61000e565b5061022a612bd9565b5061022a612b2a565b5061022a612abf565b5061022a612a18565b5061022a6129be565b5061022a6128d1565b5061022a61288c565b5061022a612803565b5061022a612771565b5061022a612526565b5061022a61243a565b5061022a612366565b5061022a612228565b5061022a6120ce565b5061022a611f6a565b5061022a611f42565b5061022a611c17565b5061022a611bea565b5061022a611970565b5061022a61190c565b5061022a6118e4565b5061022a611879565b5061022a61185a565b5061022a61179e565b5061022a611759565b5061022a61161e565b5061022a611605565b5061022a6114d3565b5061022a6114aa565b5061022a611486565b5061022a61144a565b5061022a611377565b5061022a61132d565b5061022a6112d4565b5061022a610ff8565b5061022a610fb4565b5061022a610f89565b5061022a610f6a565b5061022a610c19565b5061022a610bee565b5061022a6107a0565b5061022a61068e565b5061022a61064d565b5061022a610542565b5061022a6103db565b6001600160e01b03198116036103d657565b600080fd5b50346103d65760203660031901126103d65760206001600160e01b0319600435610404816103c4565b167f780e9d6300000000000000000000000000000000000000000000000000000000811490811561043b575b506040519015158152f35b7f80ac58cd0000000000000000000000000000000000000000000000000000000081149150811561049f575b8115610475575b5038610430565b7f01ffc9a7000000000000000000000000000000000000000000000000000000009150143861046e565b7f5b5e139f0000000000000000000000000000000000000000000000000000000081149150610467565b60009103126103d657565b918091926000905b8282106104f45750116104ed575050565b6000910152565b915080602091830151818601520182916104dc565b90602091610522815180928185528580860191016104d4565b601f01601f1916010190565b90602061053f928181520190610509565b90565b50346103d65760008060031936011261064a57604051908080549060019180831c92808216928315610640575b602092838610851461062c57858852602088019490811561060b57506001146105b3575b6105af876105a3818903826126d6565b6040519182918261052e565b0390f35b6000805294509192917f290decd9548b62a8d60345a988386fc84ba6bc95484008f6362f93160ef3e5635b8386106105fa57505050910190506105a3826105af3880610593565b8054858701529482019481016105de565b60ff191685525050505090151560051b0190506105a3826105af3880610593565b602482634e487b7160e01b81526022600452fd5b93607f169361056f565b80fd5b50346103d65760203660031901126103d657602061066c60043561467a565b6001600160a01b0360405191168152f35b6001600160a01b038116036103d657565b50346103d65760403660031901126103d6576004356106ac8161067d565b6024356106b88161319a565b916001600160a01b03808416809183161461073657610021936106e59133149081156106ea575b50613224565b614768565b61073091506107299061071133916001600160a01b03166000526005602052604060002090565b906001600160a01b0316600052602052604060002090565b5460ff1690565b386106df565b608460405162461bcd60e51b815260206004820152602160248201527f4552433732313a20617070726f76616c20746f2063757272656e74206f776e6560448201527f72000000000000000000000000000000000000000000000000000000000000006064820152fd5b5060a03660031901126103d6576004356107c26107bd823361339c565b614420565b6107d0608435421115613cce565b6001600160801b036107ec816107e461446b565b161515614238565b61080c610729336001600160a01b03166000526010602052604060002090565b8015610bcc575b61081c90614238565b61092461083383600052600d602052604060002090565b60018101938454918260801c9061086261085a61084e61446b565b6001600160801b031690565b831015614238565b6108d16108c56108c561089f61089a69ffffffffffffffffffff891669ffffffffffffffffffff16600052600c602052604060002090565b613c76565b7f000000000000000000000000000000000000000000000000000000000000000061582d565b6001600160a01b031690565b956108da61446b565b6040805163a34123a760e01b8152605088901c600290810b600483015260689890981c90970b60248801526001600160801b03909116604487015294958590879081906064820190565b038160008b5af1968715610bbf575b6000968798610b6c575b5092879892610a59926109a360a0610a919761096a8c9d6105af9d60443511159081610b5f575b506144a5565b61098388548060681c60020b9060501c60020b306158d4565b908b51808095819463514ea4bf60e01b8352600483019190602083019252565b03915afa928315610b52575b8c8c866000948597610af4575b50610a4f610a819360036109f387958a6109ec61084e610a59986109e760028f9e019d8e5490613537565b6142ba565b911661429e565b94610a3a610a156004830197610a1089546001600160801b031690565b61429e565b87906001600160801b03166fffffffffffffffffffffffffffffffff19825416179055565b01976109ec61084e8c6109e78d8d5490613537565b825460801c61429e565b6001600160801b036fffffffffffffffffffffffffffffffff1983549260801b169116179055565b5555610a8b61446b565b906144f0565b7f26f6a048ee9138f2c0ce266f322cb99228e8d619ae2bff30c67f8dcf9d2377b484610abb61446b565b84516001600160801b03919091168152602081019190915260408101879052606090a25191825260208201929092529081906040820190565b610a5991975061084e9550610a819360036109f36109ec97958a610b31610a4f9660a03d8111610b4b575b610b2981836126d6565b810190613d97565b50509b91509b8c9b9e9850505050959750505093506109bc565b503d610b1f565b610b5a613708565b6109af565b905060643511158f610964565b610a91949198506105af975092610a59926109a360a0610ba561096a9d978b3d8d11610bb8575b610b9d81836126d6565b81019061448f565b9c909d509497505050925092989661093d565b503d610b93565b610bc7613708565b610933565b5061081c610be483600052600f602052604060002090565b5442119050610813565b5060003660031901126103d65747610c0257005b6100214733615acc565b62ffffff8116036103d657565b5060803660031901126103d65760048035610c338161067d565b602435610c3f8161067d565b60443592610c4c84610c0c565b60643593610c598561067d565b6001600160a01b03906000610c7385841687851610614238565b604080517f1698ee820000000000000000000000000000000000000000000000000000000081526001600160a01b03808916878301908152908816602082015262ffffff8516818401529097919691908890606001039288867f0000000000000000000000000000000000000000000000000000000000000000169460209a8b9181885afa918215610f5d575b91610f40575b5080861680610e4c57505086517fa16712950000000000000000000000000000000000000000000000000000000081526001600160a01b0391821687820190815291909216602082015262ffffff909316604084015291869183918290600090829060600103925af1948515610e3f575b600095610e10575b5050831690813b156103d6576105af94610dc09260009283865180968195829463f637731d60e01b845283019190916001600160a01b036020820193169052565b03925af18015610e03575b610dea575b505b516001600160a01b0390911681529081906020820190565b80610df7610dfd92612645565b806104c9565b38610dd0565b610e0b613708565b610dcb565b610e30929550803d10610e38575b610e2881836126d6565b810190614665565b923880610d7f565b503d610e1e565b610e47613708565b610d77565b9695945097505050508351633850c7bd60e01b815260e0818481875afa908115610f33575b600091610eff575b501615610e8d575b50506105af9250610dd2565b813b156103d6576105af94610ec99260009283865180968195829463f637731d60e01b845283019190916001600160a01b036020820193169052565b03925af18015610ef2575b610edf575b80610e81565b80610df7610eec92612645565b38610ed9565b610efa613708565b610ed4565b610f20915060e03d8111610f2c575b610f1881836126d6565b810190614b78565b50505050505038610e79565b503d610f0e565b610f3b613708565b610e71565b610f579150893d8b11610e3857610e2881836126d6565b38610d06565b610f65613708565b610d00565b50346103d65760003660031901126103d6576020600854604051908152f35b5060203660031901126103d657600435610fa28161067d565b47610fa957005b610021904790615acc565b50346103d65760203660031901126103d6576001600160a01b03600435610fda8161067d565b166000526010602052602060ff604060002054166040519015158152f35b5060c03660031901126103d65761101360a435421115613cce565b60043561102a81600052600d602052604060002090565b906105af61120b6001840192611128845461110161106d61089a69ffffffffffffffffffff841669ffffffffffffffffffff16600052600c602052604060002090565b916110e161108284516001600160a01b031690565b936110d56110aa604061109f60208501516001600160a01b031690565b93015162ffffff1690565b916110c56110b66126f8565b6001600160a01b039098168852565b6001600160a01b03166020870152565b62ffffff166040850152565b306060840152605081901c60020b608084015260681c60020b60a0830152565b60243560c082015260443560e0820152606435610100820152608435610120820152614c22565b9094929691976001600160a01b0360a06111768554946111558660681c60020b8760501c60020b306158d4565b60405194858094819363514ea4bf60e01b8352600483019190602083019252565b0392165afa92831561129b575b6000918294611274575b506111fa60036111b361084e60028701946111a9865488613537565b9060801c906142ba565b946111d0610a156004830197610a1089546001600160801b031690565b0193610a59610a4f61084e6111e688548a613537565b6111f461084e8c5460801c90565b906142ba565b5555610a5986610a10835460801c90565b604080516001600160801b0386168152602081018790529081018390527f3067048beee31b25b2f1681f88dac838c8bba36af25bfb2b7cf7473a5847e35f90606090a2604051938493846040919493926001600160801b03606083019616825260208201520152565b90935061128f915060a03d8111610b4b57610b2981836126d6565b5050915090923861118d565b6112a3613708565b611183565b60609060031901126103d6576004356112c08161067d565b906024356112cd8161067d565b9060443590565b50346103d6576100216112e6366112a8565b916112f96112f4843361339c565b613295565b61356a565b801515036103d657565b60409060031901126103d6576004356113208161067d565b9060243561053f816112fe565b50346103d65761002161133f36611308565b906001600160a01b039061135882600a5416331461307b565b16600052601060205260406000209060ff801983541691151516179055565b50346103d65760403660031901126103d6576004356113958161067d565b602435906113a281613110565b8210156113e0576001600160a01b031660005260066020526040600020906000526020526105af604060002054604051918291829190602083019252565b608460405162461bcd60e51b815260206004820152602b60248201527f455243373231456e756d657261626c653a206f776e657220696e646578206f7560448201527f74206f6620626f756e64730000000000000000000000000000000000000000006064820152fd5b50346103d65760003660031901126103d65760206040517f49ecf333e5b8c95c40fdafc95c1ad136e8914a8fb55e9dc8bb01eaa83a2df9ad8152f35b50346103d65760003660031901126103d65760206114a26147dc565b604051908152f35b50346103d6576100216114bc366112a8565b90604051926114ca8461269e565b60008452613306565b5060203660031901126103d6576004356114f06107bd823361339c565b80600052600d6020526040600020600181015460801c1590816115ac575b8161159c575b5015611558578061155361153561002193600052600d602052604060002090565b60046000918281558260018201558260028201558260038201550155565b614521565b606460405162461bcd60e51b815260206004820152600b60248201527f4e6f7420636c65617265640000000000000000000000000000000000000000006044820152fd5b60049150015460801c1538611514565b60048101546001600160801b031615915061150e565b60ff8116036103d657565b60c09060031901126103d6576004356115e58161067d565b9060243590604435906064356115fa816115c2565b906084359060a43590565b50610021611612366115cd565b94939093929192615681565b5060403660031901126103d6576024356116378161067d565b6040516370a0823160e01b81523060048201526001600160a01b037f00000000000000000000000000000000000000000000000000000000000000001691602082602481865afa91821561174c575b60009261171c575b5061169d6004358310156153e6565b816116a457005b823b156103d6576040517f2e1a7d4d00000000000000000000000000000000000000000000000000000000815260048101839052610021936000908290602490829084905af1801561170f575b6116fc575b50615acc565b80610df761170992612645565b386116f6565b611717613708565b6116f1565b61173e91925060203d8111611745575b61173681836126d6565b8101906153d7565b903861168e565b503d61172c565b611754613708565b611686565b50346103d65760003660031901126103d65760206040516001600160a01b037f0000000000000000000000000000000000000000000000000000000000000000168152f35b50346103d65760203660031901126103d6576004356008548110156117f05760086000527ff3f7a9fe364faab93b216da50a3214154f22a0a2b415b23a84c8169e8b636ee30154604051908152602090f35b608460405162461bcd60e51b815260206004820152602c60248201527f455243373231456e756d657261626c653a20676c6f62616c20696e646578206f60448201527f7574206f6620626f756e647300000000000000000000000000000000000000006064820152fd5b50346103d65760203660031901126103d657602061066c60043561319a565b50346103d65760003660031901126103d65760408051908160208082526060519081818401526000905b8282106118cd575081106118c0575b601f01601f19168101030190f35b60008382840101526118b2565b6080820151868301860152859350908101906118a3565b50346103d65760203660031901126103d65760206114a26004356119078161067d565b613110565b50346103d65760008060031936011261064a57600a546001600160a01b03196001600160a01b0382169161194133841461307b565b16600a5581604051917f8be0079c531659141344cd1fd0a4f28419497f9722a3daafe3b4186f6b6457e08284a3f35b506000611a07611b53611982366115cd565b90918361199486979695421115614891565b61199c6147dc565b611a5e611a6a886119ac896149fa565b60409d8e5196879260209c8d85019586909493926080926001600160a01b0360a08401977f49ecf333e5b8c95c40fdafc95c1ad136e8914a8fb55e9dc8bb01eaa83a2df9ad8552166020840152604083015260608201520152565b0394611a1b601f19968781018352826126d6565b5190208c519283918a8301958690916042927f19010000000000000000000000000000000000000000000000000000000000008352600283015260228201520190565b038481018352826126d6565b51902093611a778861319a565b928a6001600160a01b0380861695611a9387838d1614156148dc565b3b15158e14611b90575051808801928352602083019590955260f81b7fff000000000000000000000000000000000000000000000000000000000000001660408201526106e5956001600160e01b0319949093611b37938593611b0291908490604101039081018452836126d6565b8b5180809581947f1626ba7e000000000000000000000000000000000000000000000000000000009a8b8452600484016149e3565b03915afa918215611b83575b8a92611b56575b50501614614998565b51f35b611b759250803d10611b7c575b611b6d81836126d6565b8101906136c4565b3880611b4a565b503d611b63565b611b8b613708565b611b43565b905196875260ff91909116602087015260408601919091526060850193909352508880526106e5939092899060809060015afa15611bdd575b875116611bd781151561494d565b14614998565b611be5613708565b611bc9565b50346103d65760203660031901126103d657600435600052600f6020526020604060002054604051908152f35b506101603660031901126103d657611c3461014435421115613cce565b611c3c613d19565b60006105af611c49613d25565b611cc3611c54613d3e565b91611cb9611c60613d55565b611c96611c6b613d61565b93611c86611c776126f8565b6001600160a01b03909b168b52565b6001600160a01b031660208a0152565b611ca9604095868a019062ffffff169052565b30606089015260020b6080880152565b60020b60a0860152565b60a43560c085015260c43560e0850152826101009160e43583870152611e9681611cf761012098610104358a820152614c22565b99929a91969097611d06613d31565b9a611d636001600160b01b03611d24600e546001600160b01b031690565b611d5b611d3082613d6d565b6001600160b01b031675ffffffffffffffffffffffffffffffffffffffffffff19600e541617600e55565b16809d613fab565b8c611dac60a06001600160a01b03611d8b611d7c613d55565b611d84613d61565b90306158d4565b94169389518093819263514ea4bf60e01b8352600483019190602083019252565b0381865afa918215611f35575b85918293611f04575b50611e5d611e0d611e6d939495611dd7613d19565b90611e088d611de4613d25565b90611dfc611df0613d3e565b926110c56110b6612719565b84019062ffffff169052565b6140dd565b611e53611e18613d55565b611e49611e23613d61565b93611e2c6126f8565b9e8f8d81528d6020820152019069ffffffffffffffffffff169052565b60020b60608d0152565b60020b60808b0152565b6001600160801b031660a0890152565b60c087015260e0860152840152820152611e9187600052600d602052604060002090565b613dd6565b80516001600160801b0387168152602081018390526040810184905285907f3067048beee31b25b2f1681f88dac838c8bba36af25bfb2b7cf7473a5847e35f90606090a25194859485909493926001600160801b036060936080840197845216602083015260408201520152565b611e0d9350611e6d9250611f28611e5d9160a03d8111610b4b57610b2981836126d6565b5050959150935050611dc2565b611f3d613708565b611db9565b50346103d65760003660031901126103d65760206001600160a01b03600a5416604051908152f35b50346103d65760008060031936011261064a576040519080600190815480831c92808216928315612022575b602092838610851461062c57858852602088019490811561060b5750600114611fc9576105af876105a3818903826126d6565b600160005294509192917fb10e2d527612073b26eecdfd717e6a320cf44b4afac2b0732d9fcbe2b7fa0cf65b83861061201157505050910190506105a3826105af3880610593565b805485870152948201948101611ff5565b93607f1693611f96565b99979593909c9b9a98969492916101808b019d6bffffffffffffffffffffffff168b526001600160a01b03928380921660208d01521660408b015216606089015262ffffff16608088015260020b60a087015260c0860161208e9160020b9052565b6001600160801b031660e08501526101008401526101208301526001600160801b0316610140820152610160016120cc916001600160801b03169052565b565b50346103d65760203660031901126103d6576120fe6120f9600435600052600d602052604060002090565b613b91565b61216161089a6121456040840161213569ffffffffffffffffffff61212d835169ffffffffffffffffffff1690565b161515613c2b565b5169ffffffffffffffffffff1690565b69ffffffffffffffffffff16600052600c602052604060002090565b6105af61217a83516bffffffffffffffffffffffff1690565b9161218f60208501516001600160a01b031690565b936121a182516001600160a01b031690565b916121c660406121bb60208401516001600160a01b031690565b92015162ffffff1690565b606083015160020b608084015160020b60a08501516001600160801b03169160c08601519360e08701519561221b61012061220c6101008b01516001600160801b031690565b9901516001600160801b031690565b986040519c8d9c8d61202c565b50346103d65760403660031901126103d6576122f66040517f0d43e8ad000000000000000000000000000000000000000000000000000000008152602080916001600160a01b039281818160048795867f0000000000000000000000000000000000000000000000000000000000000000165afa908115612359575b60009161233c575b506004604051809481937f1eae8f91000000000000000000000000000000000000000000000000000000008352165afa91821561232f575b600092612312575b5050163314614238565b60243561230f600435600052600f602052604060002090565b55005b6123289250803d10610e3857610e2881836126d6565b38806122ec565b612337613708565b6122e4565b6123539150823d8411610e3857610e2881836126d6565b386122ac565b612361613708565b6122a4565b50346103d65761237536611308565b6001600160a01b038216918233146123f657816123b56123c6923360005260056020526040600020906001600160a01b0316600052602052604060002090565b9060ff801983541691151516179055565b60405190151581527f17307eab39ab6107e8899845ad3d59bd9653f200f220920489ca2b5937696c3160203392a3005b606460405162461bcd60e51b815260206004820152601960248201527f4552433732313a20617070726f766520746f2063616c6c6572000000000000006044820152fd5b50612444366115cd565b604051636eb1769f60e11b81523360048201523060248201529094919391906020816044816001600160a01b038b165afa9081156124b7575b600091612499575b506000191161249057005b61002195615681565b6124b1915060203d81116117455761173681836126d6565b38612485565b6124bf613708565b61247d565b602080820190808352835180925260408301928160408460051b8301019501936000915b8483106124f85750505050505090565b9091929394958480612516600193603f198682030187528a51610509565b98019301930191949392906124e8565b5060203660031901126103d6576004803567ffffffffffffffff918282116103d657366023830112156103d657818101359283116103d657602490818301928236918660051b0101116103d65761257c84615287565b9360005b81811061259557604051806105af88826124c4565b6000806125a38385896152e1565b604093916125b5855180938193615331565b0390305af4906125c3613715565b918290156125f2575050906125ed916125dc828961533f565b526125e7818861533f565b506152d1565b612580565b8683879260448251106103d6578261262a9385612615940151830101910161423f565b925192839262461bcd60e51b8452830161052e565b0390fd5b50634e487b7160e01b600052604160045260246000fd5b67ffffffffffffffff811161265957604052565b61266161262e565b604052565b6040810190811067ffffffffffffffff82111761265957604052565b6060810190811067ffffffffffffffff82111761265957604052565b6020810190811067ffffffffffffffff82111761265957604052565b60a0810190811067ffffffffffffffff82111761265957604052565b90601f8019910116810190811067ffffffffffffffff82111761265957604052565b60405190610140820182811067ffffffffffffffff82111761265957604052565b604051906060820182811067ffffffffffffffff82111761265957604052565b604051906120cc82612666565b60209067ffffffffffffffff8111612764575b601f01601f19160190565b61276c61262e565b612759565b50346103d65760803660031901126103d65760043561278f8161067d565b60243561279b8161067d565b6064359167ffffffffffffffff83116103d657366023840112156103d6578260040135916127c883612746565b926127d660405194856126d6565b80845236602482870101116103d65760208160009260246100219801838801378501015260443591613306565b5061280d366115cd565b604051636eb1769f60e11b815233600482015230602482015290949193919081906020816044816001600160a01b038c165afa90811561287f575b600091612861575b501061285857005b610021956155e6565b612879915060203d81116117455761173681836126d6565b38612850565b612887613708565b612848565b50346103d65760003660031901126103d65760206040516001600160a01b037f0000000000000000000000000000000000000000000000000000000000000000168152f35b50346103d65760203660031901126103d6576004356129068160005260026020526001600160a01b0360406000205416151590565b156103d6576105af90604051907fe9dc637500000000000000000000000000000000000000000000000000000000825230600483015260248201526000816044816001600160a01b037f0000000000000000000000000000000000000000000000000000000000000000165afa9081156129b1575b600091612990575b506040519182918261052e565b6129ab913d8091833e6129a381836126d6565b81019061423f565b38612983565b6129b9613708565b61297b565b50346103d65760603660031901126103d65760443567ffffffffffffffff8082116103d657366023830112156103d65781600401359081116103d65736602482840101116103d65760246100219201602435600435614a59565b5060603660031901126103d657600435612a318161067d565b604435612a3d8161067d565b604051906370a0823160e01b82523060048301526020826024816001600160a01b0387165afa918215612ab2575b600092612a92575b50612a82602435831015615431565b81612a8957005b61002192615a00565b612aab91925060203d81116117455761173681836126d6565b9038612a73565b612aba613708565b612a6b565b50346103d65760403660031901126103d657602060ff612b1e600435612ae48161067d565b6001600160a01b0360243591612af98361067d565b16600052600584526040600020906001600160a01b0316600052602052604060002090565b54166040519015158152f35b50346103d65760203660031901126103d657600435612b488161067d565b6001600160a01b03612b5f81600a5416331461307b565b811615612b6f57610021906130c6565b608460405162461bcd60e51b815260206004820152602660248201527f4f776e61626c653a206e6577206f776e657220697320746865207a65726f206160448201527f64647265737300000000000000000000000000000000000000000000000000006064820152fd5b50610021612be6366115cd565b949390939291926155e6565b5060803660031901126103d657600435612c0f6107bd823361339c565b6001600160801b039081612c21614477565b1615801590613063575b612c3490614238565b6001600160a01b0380612c45613d25565b166130555730905b83612c6284600052600d602052604060002090565b916001830194855494612ca06108c561089f61089a69ffffffffffffffffffff8a1669ffffffffffffffffffff16600052600c602052604060002090565b906004860197885498868a169960801c978a98809a8060801c612edc575b505050612d7b97989950612cd0614477565b8988169088161115612ece5788935b612ce7614483565b8b89169089161115612ebf578a80935b54604080517f4f1eb3d80000000000000000000000000000000000000000000000000000000081526001600160a01b0388166004820152605083901c600290810b602483015260689390931c90920b60448301526001600160801b038089166064840152909216608482015299909788928b929091839160009190839060a4820190565b0393165af1988915612eb2575b600098899a612e73575b5091612e276105af9a9b612e5993612e03612dda85612dd48b7f40d0efd1a53d60ecbf40971b9daf7dc90178c3aadc7aab1765632738fa8b8f019c9b9a6144f0565b946144f0565b82546001600160801b031660809190911b6fffffffffffffffffffffffffffffffff1916178255565b906001600160801b03166fffffffffffffffffffffffffffffffff19825416179055565b8651938493849160409194936001600160a01b0360608501961684526001600160801b03809216602085015216910152565b0390a2519116815292909116602083015281906040820190565b85949395929a5085919950873d8911612eab575b612e9181836126d6565b8101612e9c91614508565b9990999a925090929394612d92565b503d612e87565b612eba613708565b612d88565b612ec7614483565b8093612cf7565b612ed6614477565b93612cdf565b6040805163a34123a760e01b8152605083901c600290810b600483015260689390931c90920b602483015260006044830152929b50929950918588169181806064810103816000865af18015613048575b61302b575b50612f7360a0845492612f528460681c60020b8560501c60020b306158d4565b90604051808095819463514ea4bf60e01b8352600483019190602083019252565b03915afa92831561301e575b6000918294612ff7575b5060028c019c8d54612f9b9084613537565b9360801c9384612faa916142ba565b6001600160801b0316612fbc9161429e565b9b600301928354612fcd9086613537565b90612fd7916142ba565b6001600160801b0316612fe99161429e565b9b5555889796388080612cbe565b909350613012915060a03d8111610b4b57610b2981836126d6565b50509150909238612f89565b613026613708565b612f7f565b6130429060403d8111610bb857610b9d81836126d6565b50612f32565b613050613708565b612f2d565b61305d613d25565b90612c4d565b50612c3461307261084e614483565b15159050612c2b565b1561308257565b606460405162461bcd60e51b815260206004820152602060248201527f4f776e61626c653a2063616c6c6572206973206e6f7420746865206f776e65726044820152fd5b600a54906001600160a01b0380911691826001600160a01b0319821617600a55167f8be0079c531659141344cd1fd0a4f28419497f9722a3daafe3b4186f6b6457e06000604051a3565b6001600160a01b0316801561313057600052600360205260406000205490565b608460405162461bcd60e51b815260206004820152602a60248201527f4552433732313a2062616c616e636520717565727920666f7220746865207a6560448201527f726f2061646472657373000000000000000000000000000000000000000000006064820152fd5b60005260026020526001600160a01b036040600020541680156131ba5790565b608460405162461bcd60e51b815260206004820152602960248201527f4552433732313a206f776e657220717565727920666f72206e6f6e657869737460448201527f656e7420746f6b656e00000000000000000000000000000000000000000000006064820152fd5b1561322b57565b608460405162461bcd60e51b815260206004820152603860248201527f4552433732313a20617070726f76652063616c6c6572206973206e6f74206f7760448201527f6e6572206e6f7220617070726f76656420666f7220616c6c00000000000000006064820152fd5b1561329c57565b608460405162461bcd60e51b815260206004820152603160248201527f4552433732313a207472616e736665722063616c6c6572206973206e6f74206f60448201527f776e6572206e6f7220617070726f7665640000000000000000000000000000006064820152fd5b9061332a93929161331a6112f4843361339c565b61332583838361356a565b613745565b1561333157565b60405162461bcd60e51b815260206004820152603260248201527f4552433732313a207472616e7366657220746f206e6f6e20455243373231526560448201527f63656976657220696d706c656d656e74657200000000000000000000000000006064820152608490fd5b6133bc8260005260026020526001600160a01b0360406000205416151590565b1561343a576133ca8261319a565b916001600160a01b039081831692828516841494851561340a575b505083156133f4575b50505090565b6134009192935061467a565b16143880806133ee565b60ff92955090610711613430926001600160a01b03166000526005602052604060002090565b54169238806133e5565b608460405162461bcd60e51b815260206004820152602c60248201527f4552433732313a206f70657261746f7220717565727920666f72206e6f6e657860448201526b34b9ba32b73a103a37b5b2b760a11b6064820152fd5b1561349a57565b608460405162461bcd60e51b8152602060048201526024808201527f4552433732313a207472616e7366657220746f20746865207a65726f2061646460448201527f72657373000000000000000000000000000000000000000000000000000000006064820152fd5b50634e487b7160e01b600052601160045260246000fd5b6001811061352a575b6000190190565b613532613503565b613523565b818110613542570390565b61354a613503565b0390565b600190600119811161355e570190565b613566613503565b0190565b906135748361319a565b6001600160a01b03918291828516938491160361365a576135cd613631928216946135a0861515613493565b6135ab8784836138a5565b6135b48761470c565b6001600160a01b03166000526003602052604060002090565b6135d7815461351a565b90556135f6816001600160a01b03166000526003602052604060002090565b613600815461354e565b9055613616856000526002602052604060002090565b906001600160a01b03166001600160a01b0319825416179055565b7fddf252ad1be2c89b69c2b068fc378daa952ba7f163c4a11628f55a4df523b3ef6000604051a4565b608460405162461bcd60e51b815260206004820152602560248201527f4552433732313a207472616e736665722066726f6d20696e636f72726563742060448201527f6f776e65720000000000000000000000000000000000000000000000000000006064820152fd5b908160209103126103d6575161053f816103c4565b909261053f94936080936001600160a01b03809216845216602083015260408201528160608201520190610509565b506040513d6000823e3d90fd5b3d15613740573d9061372682612746565b9161373460405193846126d6565b82523d6000602084013e565b606090565b92909190823b1561385a576137999260209260006001600160a01b036040518097819682957f150b7a02000000000000000000000000000000000000000000000000000000009b8c855233600486016136d9565b0393165af16000918161383a575b5061382c576137b4613715565b805190816138275760405162461bcd60e51b815260206004820152603260248201527f4552433732313a207472616e7366657220746f206e6f6e20455243373231526560448201527f63656976657220696d706c656d656e74657200000000000000000000000000006064820152608490fd5b602001fd5b6001600160e01b0319161490565b61385391925060203d8111611b7c57611b6d81836126d6565b90386137a7565b50505050600190565b50634e487b7160e01b600052603260045260246000fd5b9061388481613a03565b6001600160a01b03821661389c576120cc9150613a7c565b6120cc916139ca565b9091906001600160a01b0380821691826138df57506138c383613a03565b8316806138d65750506120cc9150613a7c565b0361389c575050565b81851683036138ef575b506138c3565b6139626138fb82613110565b600181106139bd575b6000190161395360009387855260076020526040852054838103613969575b5084613939896000526007602052604060002090565b556001600160a01b03166000526006602052604060002090565b90600052602052604060002090565b55386138e9565b8786526006602052604086208487526020526139b66040872054806139a584613953876001600160a01b03166000526006602052604060002090565b556000526007602052604060002090565b5538613923565b6139c5613503565b613904565b6040906139d681613110565b926001600160a01b0360009216825260066020528282208483526020528083832055815260076020522055565b6008548160005260096020528060406000205568010000000000000000811015613a6f575b6001810180600855811015613a62575b60086000527ff3f7a9fe364faab93b216da50a3214154f22a0a2b415b23a84c8169e8b636ee30155565b613a6a613863565b613a38565b613a7761262e565b613a28565b6008805460018110613b84575b600090838252600960205281613b2b60408220549560001996848881011015613b77575b868452613b1a7ff3f7a9fe364faab93b216da50a3214154f22a0a2b415b23a84c8169e8b636ee2958681015490831015613b6a575b88865280837ff3f7a9fe364faab93b216da50a3214154f22a0a2b415b23a84c8169e8b636ee301556000526009602052604060002090565b556000526009602052604060002090565b558254938415613b565784019380851015613b49575b838352015555565b613b51613863565b613b41565b602483634e487b7160e01b81526031600452fd5b613b72613863565b613ae2565b613b7f613863565b613aad565b613b8c613503565b613a89565b906120cc6004613b9f6126f8565b84546bffffffffffffffffffffffff8116825260601c602082015293600181015469ffffffffffffffffffff81166040870152613bfa90605081901c60020b6060880152606881901c60020b608088015260801c60a0870152565b600281015460c0860152600381015460e086015201546001600160801b03811661010085015260801c610120840152565b15613c3257565b606460405162461bcd60e51b815260206004820152601060248201527f496e76616c696420746f6b656e204944000000000000000000000000000000006044820152fd5b906040516060810181811067ffffffffffffffff821117613cc1575b604052604062ffffff829460016001600160a01b03918281541686520154908116602085015260a01c16910152565b613cc961262e565b613c92565b15613cd557565b606460405162461bcd60e51b815260206004820152601360248201527f5472616e73616374696f6e20746f6f206f6c64000000000000000000000000006044820152fd5b60043561053f8161067d565b60243561053f8161067d565b6101243561053f8161067d565b60443561053f81610c0c565b8060020b036103d657565b60643561053f81613d4a565b60843561053f81613d4a565b6001906001600160b01b0380911690811461355e570190565b6001600160801b038116036103d657565b908160a09103126103d6578051613dad81613d86565b9160208201519160408101519160806060830151613dca81613d86565b92015161053f81613d86565b90610a5961012060046120cc94613e22613dfc86516bffffffffffffffffffffffff1690565b82546bffffffffffffffffffffffff19166bffffffffffffffffffffffff909116178255565b613e63613e3960208701516001600160a01b031690565b82546bffffffffffffffffffffffff1660609190911b6bffffffffffffffffffffffff1916178255565b613f4a60018201613ea6613e84604089015169ffffffffffffffffffff1690565b825469ffffffffffffffffffff191669ffffffffffffffffffff909116178255565b613ee4613eb7606089015160020b90565b829081549060501b6cffffff0000000000000000000016906cffffff000000000000000000001916179055565b613f37613ef5608089015160020b90565b82907fffffffffffffffffffffffffffffffff000000ffffffffffffffffffffffffff82549160681b6fffffff00000000000000000000000000169116179055565b60a08701516001600160801b0316610a59565b60c0850151600282015560e085015160038201550192613f9d613f786101008301516001600160801b031690565b85906001600160801b03166fffffffffffffffffffffffffffffffff19825416179055565b01516001600160801b031690565b6001600160a01b03811690811561409957613fdc8360005260026020526001600160a01b0360406000205416151590565b6140555780613fee8461402b9361387a565b61400b816001600160a01b03166000526003602052604060002090565b614015815461354e565b9055613616846000526002602052604060002090565b60007fddf252ad1be2c89b69c2b068fc378daa952ba7f163c4a11628f55a4df523b3ef81604051a4565b606460405162461bcd60e51b815260206004820152601c60248201527f4552433732313a20746f6b656e20616c7265616479206d696e746564000000006044820152fd5b606460405162461bcd60e51b815260206004820152602060248201527f4552433732313a206d696e7420746f20746865207a65726f20616464726573736044820152fd5b9190916001600160a01b038091169081600052600b60205269ffffffffffffffffffff938460406000205416948515614117575b50505050565b60409293955060016141946141db92600e548060b01c91821461422b575b6001600160b01b031681840160b01b75ffffffffffffffffffffffffffffffffffffffffffff191617600e556000988952600b60205297859020805469ffffffffffffffffffff191669ffffffffffffffffffff8a1617905587612145565b6141b78685511682906001600160a01b03166001600160a01b0319825416179055565b019360208301511684906001600160a01b03166001600160a01b0319825416179055565b01517fffffffffffffffffff000000ffffffffffffffffffffffffffffffffffffffff76ffffff000000000000000000000000000000000000000083549260a01b16911617905538808080614111565b614233613503565b614135565b156103d657565b6020818303126103d65780519067ffffffffffffffff82116103d6570181601f820112156103d657805161427281612746565b9261428060405194856126d6565b818452602082840101116103d65761053f91602080850191016104d4565b906001600160801b03808093169116809203811161355e570190565b60001982820990828102928380841093039280840393146143035770010000000000000000000000000000000091838311156103d6570990828211900360801b910360801c1790565b50505060801c90565b6000198282099082810292838084109303928084039314614351576c0100000000000000000000000091838311156103d6570990828211900360a01b910360601c1790565b50505060601c90565b6c0100000000000000000000000091600019838309928260601b928380861095039480860395146143e257908291614393868411614238565b0981806000031680920460028082600302188083028203028083028203028083028203028083028203028083028203028092029003029360018380600003040190848311900302920304170290565b505091506143f1821515614238565b0490565b909160001983830992808302928380861095039480860395146143e257908291614393868411614238565b1561442757565b606460405162461bcd60e51b815260206004820152600c60248201527f4e6f7420617070726f76656400000000000000000000000000000000000000006044820152fd5b60243561053f81613d86565b60443561053f81613d86565b60643561053f81613d86565b91908260409103126103d6576020825192015190565b156144ac57565b606460405162461bcd60e51b815260206004820152601460248201527f507269636520736c69707061676520636865636b0000000000000000000000006044820152fd5b6001600160801b039182169116818110613542570390565b91908260409103126103d65760208251613dca81613d86565b61452a8161319a565b6001600160a01b03811690816145c5575061454482613a03565b61454d82613a7c565b6145568261470c565b6000908082526003602052604082208054600181106145b8575b6000190190558282526002602052604082206001600160a01b031981541690557fddf252ad1be2c89b69c2b068fc378daa952ba7f163c4a11628f55a4df523b3ef82604051a4565b6145c0613503565b614570565b61460f6145d182613110565b60018110614658575b6000190161395360009386855260076020526040852054838103614615575b5084613939886000526007602052604060002090565b55614544565b8686526006602052604086208487526020526146516040872054806139a584613953876001600160a01b03166000526006602052604060002090565b55386145f9565b614660613503565b6145da565b908160209103126103d6575161053f8161067d565b61469a8160005260026020526001600160a01b0360406000205416151590565b156146b357600052600d60205260406000205460601c90565b608460405162461bcd60e51b815260206004820152602c60248201527f4552433732313a20617070726f76656420717565727920666f72206e6f6e657860448201526b34b9ba32b73a103a37b5b2b760a11b6064820152fd5b80600052600d60205260406000206bffffffffffffffffffffffff815416905560006001600160a01b0361473f8361319a565b167f8c5be1e5ebec7d5bd14f71427d1e84f3dd0314c0f7b2291e5b200ac8c7c3b92582604051a4565b6000828152600d6020526040902080546bffffffffffffffffffffffff16606083901b6bffffffffffffffffffffffff19161790556001600160a01b03806147af8461319a565b169116907f8c5be1e5ebec7d5bd14f71427d1e84f3dd0314c0f7b2291e5b200ac8c7c3b9256000604051a4565b60405160208101907f8b73c3c69bb8fe3d512ecc4cf759cc79239f7b179b0ffacaa9a75d522b39400f82527f000000000000000000000000000000000000000000000000000000000000000060408201527f000000000000000000000000000000000000000000000000000000000000000060608201524660808201523060a082015260a0815260c0810181811067ffffffffffffffff821117614884575b60405251902090565b61488c61262e565b61487b565b1561489857565b606460405162461bcd60e51b815260206004820152600e60248201527f5065726d697420657870697265640000000000000000000000000000000000006044820152fd5b156148e357565b608460405162461bcd60e51b815260206004820152602760248201527f4552433732315065726d69743a20617070726f76616c20746f2063757272656e60448201527f74206f776e6572000000000000000000000000000000000000000000000000006064820152fd5b1561495457565b606460405162461bcd60e51b815260206004820152601160248201527f496e76616c6964207369676e61747572650000000000000000000000000000006044820152fd5b1561499f57565b606460405162461bcd60e51b815260206004820152600c60248201527f556e617574686f72697a656400000000000000000000000000000000000000006044820152fd5b60409061053f939281528160208201520190610509565b600052600d602052604060002061053f6bffffffffffffffffffffffff9182815416928314614a4c575b80546bffffffffffffffffffffffff19166bffffffffffffffffffffffff6001850116179055565b614a54613503565b614a24565b929180919281010392608084126103d657606060405194614a7986612666565b126103d657614aff606060405193614a9085612682565b8035614a9b8161067d565b85526020810135614aab8161067d565b60208601526040810135614abe81610c0c565b6040860152848752013592614ad28461067d565b602086019384527f0000000000000000000000000000000000000000000000000000000000000000615709565b5080614b42575b5081614b1157505050565b614b3b614b2d60206120cc9551016001600160a01b0390511690565b91516001600160a01b031690565b3391615491565b835151614b6391906001600160a01b031683516001600160a01b0316614b3b565b38614b06565b519061ffff821682036103d657565b908160e09103126103d6578051614b8e8161067d565b916020820151614b9d81613d4a565b91614baa60408201614b69565b91614bb760608301614b69565b91614bc460808201614b69565b9160c060a0830151614bd5816115c2565b92015161053f816112fe565b919360a09361053f96956001600160a01b036001600160801b039416855260020b602085015260020b60408401521660608201528160808201520190610509565b90600091614c3781516001600160a01b031690565b90614c4c60208201516001600160a01b031690565b92614c7c604094614c71614c658786015162ffffff1690565b916110c56110b6612719565b62ffffff1684860152565b614ca96108c5847f000000000000000000000000000000000000000000000000000000000000000061582d565b91846001600160a01b03841694815195633850c7bd60e01b875260e087600481845afa968715614e89575b8997614e63575b506080840196614d1c614cf7614cf28a5160020b90565b614eb9565b9160a0870192614d0b614cf2855160020b90565b60c08901519160e08a015193615726565b998a98614deb614da8614db6614d52614d4a614d4260608d01516001600160a01b031690565b955160020b90565b965160020b90565b97614d5b612739565b8181523360209182019081528b5183516001600160a01b03908116828501529284015183166040808301919091529093015162ffffff1660608401525116608082015291829060a0820190565b03601f1981018352826126d6565b87519b8c97889687957f3c8a7d8d00000000000000000000000000000000000000000000000000000000875260048701614be1565b03925af1938415614e56575b6000958695614e2f575b50506120cc90848661010083015111159182614e1f575b50506144a5565b6101200151111590503880614e18565b6120cc9650614e4b929550803d10610bb857610b9d81836126d6565b949094939038614e01565b614e5e613708565b614df7565b614e7c91975060e03d8111610f2c57610f1881836126d6565b5050505050509538614cdb565b614e91613708565b614cd4565b8015614ea3576000190490565b634e487b7160e01b600052601260045260246000fd5b60020b600081121561525a57806000035b620d89e88111615230576001600160a01b039160018216156152075770ffffffffffffffffffffffffffffffffff6ffffcb933bd6fad37aa2d162d1a5940015b1691600281166151eb575b600481166151cf575b600881166151b3575b60108116615197575b6020811661517b575b6040811661515f575b608090818116615144575b6101008116615129575b610200811661510e575b61040081166150f3575b61080081166150d8575b61100081166150bd575b61200081166150a2575b6140008116615087575b618000811661506c575b620100008116615051575b620200008116615037575b62040000811661501d575b6208000016615002575b50600012614ff4575b63ffffffff8116614feb5760ff60005b169060201c011690565b60ff6001614fe1565b614ffd90614e96565b614fd1565b6b048a170391f7dc42444e8fa26000929302901c9190614fc8565b6d2216e584f5fa1ea926041bedfe98909302811c92614fbe565b926e5d6af8dedb81196699c329225ee60402811c92614fb3565b926f09aa508b5b7a84e1c677de54f3e99bc902811c92614fa8565b926f31be135f97d08fd981231505542fcfa602811c92614f9d565b926f70d869a156d2a1b890bb3df62baf32f702811c92614f93565b926fa9f746462d870fdf8a65dc1f90e061e502811c92614f89565b926fd097f3bdfd2022b8845ad8f792aa582502811c92614f7f565b926fe7159475a2c29b7443b29c7fa6e889d902811c92614f75565b926ff3392b0822b70005940c7a398e4b70f302811c92614f6b565b926ff987a7253ac413176f2b074cf7815e5402811c92614f61565b926ffcbe86c7900a88aedcffc83b479aa3a402811c92614f57565b926ffe5dee046a99a2a811c461f1969c305302811c92614f4d565b916fff2ea16466c96a3843ec78b326b528610260801c91614f42565b916fff973b41fa98c081472e6896dfb254c00260801c91614f39565b916fffcb9843d60f6159c9db58835c9266440260801c91614f30565b916fffe5caca7e10e4e61c3624eaa0941cd00260801c91614f27565b916ffff2e50f5f656932ef12357cf3c7fdcc0260801c91614f1e565b916ffff97272373d413259a46990580e213a0260801c91614f15565b70ffffffffffffffffffffffffffffffffff700100000000000000000000000000000000614f0a565b60046040517f2bc80f3a000000000000000000000000000000000000000000000000000000008152fd5b80614eca565b60209067ffffffffffffffff811161527a575b60051b0190565b61528261262e565b615273565b9061529182615260565b61529e60405191826126d6565b82815280926152af601f1991615260565b019060005b8281106152c057505050565b8060606020809385010152016152b4565b600190600019811461355e570190565b9190811015615324575b60051b81013590601e19813603018212156103d657019081359167ffffffffffffffff83116103d65760200182360381136103d6579190565b61532c613863565b6152eb565b908092918237016000815290565b6020918151811015615354575b60051b010190565b61535c613863565b61534c565b6001600160a01b037f000000000000000000000000000000000000000000000000000000000000000016330361539357565b606460405162461bcd60e51b815260206004820152600960248201527f4e6f7420574554483900000000000000000000000000000000000000000000006044820152fd5b908160209103126103d6575190565b156153ed57565b606460405162461bcd60e51b815260206004820152601260248201527f496e73756666696369656e7420574554483900000000000000000000000000006044820152fd5b1561543857565b606460405162461bcd60e51b815260206004820152601260248201527f496e73756666696369656e7420746f6b656e00000000000000000000000000006044820152fd5b908160209103126103d6575161053f816112fe565b6001600160a01b037f000000000000000000000000000000000000000000000000000000000000000081169492908281168614806155dc575b156155ba57505050823b156103d657615551926020926040517fd0e30db000000000000000000000000000000000000000000000000000000000815260008160048187875af180156155ad575b61559a575b50600060405180968195829463a9059cbb60e01b845260048401602090939291936001600160a01b0360408201951681520152565b03925af1801561558d575b6155635750565b6155839060203d8111615586575b61557b81836126d6565b81019061547c565b50565b503d615571565b615595613708565b61555c565b80610df76155a792612645565b3861551c565b6155b5613708565b615517565b91945091929190811630036155d357506120cc92615a00565b6120cc93615916565b50834710156154ca565b6001600160a01b0390959293951693843b156103d65760009460e493869260ff604051998a9889977fd505accf0000000000000000000000000000000000000000000000000000000089523360048a01523060248a01526044890152606488015216608486015260a485015260c48401525af18015615674575b6156675750565b80610df76120cc92612645565b61567c613708565b615660565b6001600160a01b0390959293951693843b156103d65760009461010493869260ff604051998a9889977f8fcbaf0c0000000000000000000000000000000000000000000000000000000089523360048a01523060248a015260448901526064880152600160848801521660a486015260c485015260e48401525af18015615674576156675750565b6001600160a01b039161571b9161582d565b16908133036103d657565b9390936001600160a01b03808416818716116157a5575b818116908681168211615757575050505061053f926157ad565b84929495939516116000146157995782916157769161577c95946157ad565b93615801565b6001600160801b038181169083161015615794575090565b905090565b91505061053f92615801565b94929461573d565b916157e29161053f936001600160a01b0390818316828216116157e7575b6157d982841683831661430c565b920316916143f5565b6157ed565b916157cb565b906001600160801b0382169182036103d657565b916157e29161053f936001600160a01b039182811683831611615827575b03169061435a565b9061581f565b906001600160a01b0391828251169260208301511692838110156103d65760559361589662ffffff6040600b9601511691614da860405193849260208401968791939262ffffff9060409260608501966001600160a01b03809216865216602085015216910152565b51902090604051917f7700ec83d0dc69c0a1e228138168ca93778a8d2f0fe9a0afb44901e1d5142d486040840152602083015281520160ff81532090565b916040519160208301936bffffffffffffffffffffffff199060601b16845260e81b603483015260e81b6037820152601a815261591081612666565b51902090565b9091600080949381946040519160208301947f23b872dd0000000000000000000000000000000000000000000000000000000086526001600160a01b038092166024850152166044830152606482015260648152615973816126ba565b51925af161597f613715565b816159d1575b501561598d57565b606460405162461bcd60e51b815260206004820152600360248201527f53544600000000000000000000000000000000000000000000000000000000006044820152fd5b80518015925082156159e6575b505038615985565b6159f9925060208091830101910161547c565b38806159de565b60405163a9059cbb60e01b602082019081526001600160a01b03909316602482015260448101939093526000928392908390615a3f8160648101614da8565b51925af1615a4b613715565b81615a9d575b5015615a5957565b606460405162461bcd60e51b815260206004820152600260248201527f53540000000000000000000000000000000000000000000000000000000000006044820152fd5b8051801592508215615ab2575b505038615a51565b615ac5925060208091830101910161547c565b3880615aaa565b600080929181926020604051615ae18161269e565b84815201915af1615af0613715565b5015615af857565b606460405162461bcd60e51b815260206004820152600360248201527f53544500000000000000000000000000000000000000000000000000000000006044820152fdfea164736f6c634300080f000a290decd9548b62a8d60345a988386fc84ba6bc95484008f6362f93160ef3e563b10e2d527612073b26eecdfd717e6a320cf44b4afac2b0732d9fcbe2b7fa0cf6"
}