{
  "address": "0xF568ACe8802fC87EcF09b49AcDDcF99EffcFA7Ad",
  "abi": [
    {
      "inputs": [
        {
          "internalType": "address",
          "name": "_factory",
          "type": "address"
        },
        {
          "internalType": "address",
          "name": "_WETH9",
          "type": "address"
        },
        {
          "internalType": "address",
          "name": "_tokenDescriptor_",
          "type": "address"
        }
      ],
      "stateMutability": "nonpayable",
      "type": "constructor"
    },
    {
      "inputs": [],
      "name": "T",
      "type": "error"
    },
    {
      "anonymous": false,
      "inputs": [
        {
          "indexed": true,
          "internalType": "address",
          "name": "owner",
          "type": "address"
        },
        {
          "indexed": true,
          "internalType": "address",
          "name": "approved",
          "type": "address"
        },
        {
          "indexed": true,
          "internalType": "uint256",
          "name": "tokenId",
          "type": "uint256"
        }
      ],
      "name": "Approval",
      "type": "event"
    },
    {
      "anonymous": false,
      "inputs": [
        {
          "indexed": true,
          "internalType": "address",
          "name": "owner",
          "type": "address"
        },
        {
          "indexed": true,
          "internalType": "address",
          "name": "operator",
          "type": "address"
        },
        {
          "indexed": false,
          "internalType": "bool",
          "name": "approved",
          "type": "bool"
        }
      ],
      "name": "ApprovalForAll",
      "type": "event"
    },
    {
      "anonymous": false,
      "inputs": [
        {
          "indexed": true,
          "internalType": "uint256",
          "name": "tokenId",
          "type": "uint256"
        },
        {
          "indexed": false,
          "internalType": "address",
          "name": "recipient",
          "type": "address"
        },
        {
          "indexed": false,
          "internalType": "uint256",
          "name": "amount0",
          "type": "uint256"
        },
        {
          "indexed": false,
          "internalType": "uint256",
          "name": "amount1",
          "type": "uint256"
        }
      ],
      "name": "Collect",
      "type": "event"
    },
    {
      "anonymous": false,
      "inputs": [
        {
          "indexed": true,
          "internalType": "uint256",
          "name": "tokenId",
          "type": "uint256"
        },
        {
          "indexed": false,
          "internalType": "uint128",
          "name": "liquidity",
          "type": "uint128"
        },
        {
          "indexed": false,
          "internalType": "uint256",
          "name": "amount0",
          "type": "uint256"
        },
        {
          "indexed": false,
          "internalType": "uint256",
          "name": "amount1",
          "type": "uint256"
        }
      ],
      "name": "DecreaseLiquidity",
      "type": "event"
    },
    {
      "anonymous": false,
      "inputs": [
        {
          "indexed": true,
          "internalType": "uint256",
          "name": "tokenId",
          "type": "uint256"
        },
        {
          "indexed": false,
          "internalType": "uint128",
          "name": "liquidity",
          "type": "uint128"
        },
        {
          "indexed": false,
          "internalType": "uint256",
          "name": "amount0",
          "type": "uint256"
        },
        {
          "indexed": false,
          "internalType": "uint256",
          "name": "amount1",
          "type": "uint256"
        }
      ],
      "name": "IncreaseLiquidity",
      "type": "event"
    },
    {
      "anonymous": false,
      "inputs": [
        {
          "indexed": true,
          "internalType": "address",
          "name": "from",
          "type": "address"
        },
        {
          "indexed": true,
          "internalType": "address",
          "name": "to",
          "type": "address"
        },
        {
          "indexed": true,
          "internalType": "uint256",
          "name": "tokenId",
          "type": "uint256"
        }
      ],
      "name": "Transfer",
      "type": "event"
    },
    {
      "inputs": [],
      "name": "DOMAIN_SEPARATOR",
      "outputs": [
        {
          "internalType": "bytes32",
          "name": "",
          "type": "bytes32"
        }
      ],
      "stateMutability": "view",
      "type": "function"
    },
    {
      "inputs": [],
      "name": "PERMIT_TYPEHASH",
      "outputs": [
        {
          "internalType": "bytes32",
          "name": "",
          "type": "bytes32"
        }
      ],
      "stateMutability": "view",
      "type": "function"
    },
    {
      "inputs": [],
      "name": "WETH9",
      "outputs": [
        {
          "internalType": "address",
          "name": "",
          "type": "address"
        }
      ],
      "stateMutability": "view",
      "type": "function"
    },
    {
      "inputs": [
        {
          "internalType": "address",
          "name": "to",
          "type": "address"
        },
        {
          "internalType": "uint256",
          "name": "tokenId",
          "type": "uint256"
        }
      ],
      "name": "approve",
      "outputs": [],
      "stateMutability": "nonpayable",
      "type": "function"
    },
    {
      "inputs": [
        {
          "internalType": "address",
          "name": "owner",
          "type": "address"
        }
      ],
      "name": "balanceOf",
      "outputs": [
        {
          "internalType": "uint256",
          "name": "",
          "type": "uint256"
        }
      ],
      "stateMutability": "view",
      "type": "function"
    },
    {
      "inputs": [],
      "name": "baseURI",
      "outputs": [
        {
          "internalType": "string",
          "name": "",
          "type": "string"
        }
      ],
      "stateMutability": "pure",
      "type": "function"
    },
    {
      "inputs": [
        {
          "internalType": "uint256",
          "name": "tokenId",
          "type": "uint256"
        }
      ],
      "name": "burn",
      "outputs": [],
      "stateMutability": "payable",
      "type": "function"
    },
    {
      "inputs": [
        {
          "components": [
            {
              "internalType": "uint256",
              "name": "tokenId",
              "type": "uint256"
            },
            {
              "internalType": "address",
              "name": "recipient",
              "type": "address"
            },
            {
              "internalType": "uint128",
              "name": "amount0Max",
              "type": "uint128"
            },
            {
              "internalType": "uint128",
              "name": "amount1Max",
              "type": "uint128"
            }
          ],
          "internalType": "struct INonfungiblePositionManager.CollectParams",
          "name": "params",
          "type": "tuple"
        }
      ],
      "name": "collect",
      "outputs": [
        {
          "internalType": "uint256",
          "name": "amount0",
          "type": "uint256"
        },
        {
          "internalType": "uint256",
          "name": "amount1",
          "type": "uint256"
        }
      ],
      "stateMutability": "payable",
      "type": "function"
    },
    {
      "inputs": [
        {
          "internalType": "address",
          "name": "token0",
          "type": "address"
        },
        {
          "internalType": "address",
          "name": "token1",
          "type": "address"
        },
        {
          "internalType": "uint24",
          "name": "fee",
          "type": "uint24"
        },
        {
          "internalType": "uint160",
          "name": "sqrtPriceX96",
          "type": "uint160"
        }
      ],
      "name": "createAndInitializePoolIfNecessary",
      "outputs": [
        {
          "internalType": "address",
          "name": "pool",
          "type": "address"
        }
      ],
      "stateMutability": "payable",
      "type": "function"
    },
    {
      "inputs": [
        {
          "components": [
            {
              "internalType": "uint256",
              "name": "tokenId",
              "type": "uint256"
            },
            {
              "internalType": "uint128",
              "name": "liquidity",
              "type": "uint128"
            },
            {
              "internalType": "uint256",
              "name": "amount0Min",
              "type": "uint256"
            },
            {
              "internalType": "uint256",
              "name": "amount1Min",
              "type": "uint256"
            },
            {
              "internalType": "uint256",
              "name": "deadline",
              "type": "uint256"
            }
          ],
          "internalType": "struct INonfungiblePositionManager.DecreaseLiquidityParams",
          "name": "params",
          "type": "tuple"
        }
      ],
      "name": "decreaseLiquidity",
      "outputs": [
        {
          "internalType": "uint256",
          "name": "amount0",
          "type": "uint256"
        },
        {
          "internalType": "uint256",
          "name": "amount1",
          "type": "uint256"
        }
      ],
      "stateMutability": "payable",
      "type": "function"
    },
    {
      "inputs": [],
      "name": "factory",
      "outputs": [
        {
          "internalType": "address",
          "name": "",
          "type": "address"
        }
      ],
      "stateMutability": "view",
      "type": "function"
    },
    {
      "inputs": [
        {
          "internalType": "uint256",
          "name": "tokenId",
          "type": "uint256"
        }
      ],
      "name": "getApproved",
      "outputs": [
        {
          "internalType": "address",
          "name": "",
          "type": "address"
        }
      ],
      "stateMutability": "view",
      "type": "function"
    },
    {
      "inputs": [
        {
          "components": [
            {
              "internalType": "uint256",
              "name": "tokenId",
              "type": "uint256"
            },
            {
              "internalType": "uint256",
              "name": "amount0Desired",
              "type": "uint256"
            },
            {
              "internalType": "uint256",
              "name": "amount1Desired",
              "type": "uint256"
            },
            {
              "internalType": "uint256",
              "name": "amount0Min",
              "type": "uint256"
            },
            {
              "internalType": "uint256",
              "name": "amount1Min",
              "type": "uint256"
            },
            {
              "internalType": "uint256",
              "name": "deadline",
              "type": "uint256"
            }
          ],
          "internalType": "struct INonfungiblePositionManager.IncreaseLiquidityParams",
          "name": "params",
          "type": "tuple"
        }
      ],
      "name": "increaseLiquidity",
      "outputs": [
        {
          "internalType": "uint128",
          "name": "liquidity",
          "type": "uint128"
        },
        {
          "internalType": "uint256",
          "name": "amount0",
          "type": "uint256"
        },
        {
          "internalType": "uint256",
          "name": "amount1",
          "type": "uint256"
        }
      ],
      "stateMutability": "payable",
      "type": "function"
    },
    {
      "inputs": [
        {
          "internalType": "address",
          "name": "owner",
          "type": "address"
        },
        {
          "internalType": "address",
          "name": "operator",
          "type": "address"
        }
      ],
      "name": "isApprovedForAll",
      "outputs": [
        {
          "internalType": "bool",
          "name": "",
          "type": "bool"
        }
      ],
      "stateMutability": "view",
      "type": "function"
    },
    {
      "inputs": [
        {
          "components": [
            {
              "internalType": "address",
              "name": "token0",
              "type": "address"
            },
            {
              "internalType": "address",
              "name": "token1",
              "type": "address"
            },
            {
              "internalType": "uint24",
              "name": "fee",
              "type": "uint24"
            },
            {
              "internalType": "int24",
              "name": "tickLower",
              "type": "int24"
            },
            {
              "internalType": "int24",
              "name": "tickUpper",
              "type": "int24"
            },
            {
              "internalType": "uint256",
              "name": "amount0Desired",
              "type": "uint256"
            },
            {
              "internalType": "uint256",
              "name": "amount1Desired",
              "type": "uint256"
            },
            {
              "internalType": "uint256",
              "name": "amount0Min",
              "type": "uint256"
            },
            {
              "internalType": "uint256",
              "name": "amount1Min",
              "type": "uint256"
            },
            {
              "internalType": "address",
              "name": "recipient",
              "type": "address"
            },
            {
              "internalType": "uint256",
              "name": "deadline",
              "type": "uint256"
            }
          ],
          "internalType": "struct INonfungiblePositionManager.MintParams",
          "name": "params",
          "type": "tuple"
        }
      ],
      "name": "mint",
      "outputs": [
        {
          "internalType": "uint256",
          "name": "tokenId",
          "type": "uint256"
        },
        {
          "internalType": "uint128",
          "name": "liquidity",
          "type": "uint128"
        },
        {
          "internalType": "uint256",
          "name": "amount0",
          "type": "uint256"
        },
        {
          "internalType": "uint256",
          "name": "amount1",
          "type": "uint256"
        }
      ],
      "stateMutability": "payable",
      "type": "function"
    },
    {
      "inputs": [
        {
          "internalType": "bytes[]",
          "name": "data",
          "type": "bytes[]"
        }
      ],
      "name": "multicall",
      "outputs": [
        {
          "internalType": "bytes[]",
          "name": "results",
          "type": "bytes[]"
        }
      ],
      "stateMutability": "payable",
      "type": "function"
    },
    {
      "inputs": [],
      "name": "name",
      "outputs": [
        {
          "internalType": "string",
          "name": "",
          "type": "string"
        }
      ],
      "stateMutability": "view",
      "type": "function"
    },
    {
      "inputs": [
        {
          "internalType": "uint256",
          "name": "tokenId",
          "type": "uint256"
        }
      ],
      "name": "ownerOf",
      "outputs": [
        {
          "internalType": "address",
          "name": "",
          "type": "address"
        }
      ],
      "stateMutability": "view",
      "type": "function"
    },
    {
      "inputs": [
        {
          "internalType": "address",
          "name": "spender",
          "type": "address"
        },
        {
          "internalType": "uint256",
          "name": "tokenId",
          "type": "uint256"
        },
        {
          "internalType": "uint256",
          "name": "deadline",
          "type": "uint256"
        },
        {
          "internalType": "uint8",
          "name": "v",
          "type": "uint8"
        },
        {
          "internalType": "bytes32",
          "name": "r",
          "type": "bytes32"
        },
        {
          "internalType": "bytes32",
          "name": "s",
          "type": "bytes32"
        }
      ],
      "name": "permit",
      "outputs": [],
      "stateMutability": "payable",
      "type": "function"
    },
    {
      "inputs": [
        {
          "internalType": "uint256",
          "name": "tokenId",
          "type": "uint256"
        }
      ],
      "name": "positions",
      "outputs": [
        {
          "internalType": "uint96",
          "name": "nonce",
          "type": "uint96"
        },
        {
          "internalType": "address",
          "name": "operator",
          "type": "address"
        },
        {
          "internalType": "address",
          "name": "token0",
          "type": "address"
        },
        {
          "internalType": "address",
          "name": "token1",
          "type": "address"
        },
        {
          "internalType": "uint24",
          "name": "fee",
          "type": "uint24"
        },
        {
          "internalType": "int24",
          "name": "tickLower",
          "type": "int24"
        },
        {
          "internalType": "int24",
          "name": "tickUpper",
          "type": "int24"
        },
        {
          "internalType": "uint128",
          "name": "liquidity",
          "type": "uint128"
        },
        {
          "internalType": "uint256",
          "name": "feeGrowthInside0LastX128",
          "type": "uint256"
        },
        {
          "internalType": "uint256",
          "name": "feeGrowthInside1LastX128",
          "type": "uint256"
        },
        {
          "internalType": "uint128",
          "name": "tokensOwed0",
          "type": "uint128"
        },
        {
          "internalType": "uint128",
          "name": "tokensOwed1",
          "type": "uint128"
        }
      ],
      "stateMutability": "view",
      "type": "function"
    },
    {
      "inputs": [],
      "name": "refundETH",
      "outputs": [],
      "stateMutability": "payable",
      "type": "function"
    },
    {
      "inputs": [
        {
          "internalType": "address",
          "name": "receiver",
          "type": "address"
        }
      ],
      "name": "refundETH",
      "outputs": [],
      "stateMutability": "payable",
      "type": "function"
    },
    {
      "inputs": [
        {
          "internalType": "address",
          "name": "from",
          "type": "address"
        },
        {
          "internalType": "address",
          "name": "to",
          "type": "address"
        },
        {
          "internalType": "uint256",
          "name": "tokenId",
          "type": "uint256"
        }
      ],
      "name": "safeTransferFrom",
      "outputs": [],
      "stateMutability": "nonpayable",
      "type": "function"
    },
    {
      "inputs": [
        {
          "internalType": "address",
          "name": "from",
          "type": "address"
        },
        {
          "internalType": "address",
          "name": "to",
          "type": "address"
        },
        {
          "internalType": "uint256",
          "name": "tokenId",
          "type": "uint256"
        },
        {
          "internalType": "bytes",
          "name": "_data",
          "type": "bytes"
        }
      ],
      "name": "safeTransferFrom",
      "outputs": [],
      "stateMutability": "nonpayable",
      "type": "function"
    },
    {
      "inputs": [
        {
          "internalType": "address",
          "name": "token",
          "type": "address"
        },
        {
          "internalType": "uint256",
          "name": "value",
          "type": "uint256"
        },
        {
          "internalType": "uint256",
          "name": "deadline",
          "type": "uint256"
        },
        {
          "internalType": "uint8",
          "name": "v",
          "type": "uint8"
        },
        {
          "internalType": "bytes32",
          "name": "r",
          "type": "bytes32"
        },
        {
          "internalType": "bytes32",
          "name": "s",
          "type": "bytes32"
        }
      ],
      "name": "selfPermit",
      "outputs": [],
      "stateMutability": "payable",
      "type": "function"
    },
    {
      "inputs": [
        {
          "internalType": "address",
          "name": "token",
          "type": "address"
        },
        {
          "internalType": "uint256",
          "name": "nonce",
          "type": "uint256"
        },
        {
          "internalType": "uint256",
          "name": "expiry",
          "type": "uint256"
        },
        {
          "internalType": "uint8",
          "name": "v",
          "type": "uint8"
        },
        {
          "internalType": "bytes32",
          "name": "r",
          "type": "bytes32"
        },
        {
          "internalType": "bytes32",
          "name": "s",
          "type": "bytes32"
        }
      ],
      "name": "selfPermitAllowed",
      "outputs": [],
      "stateMutability": "payable",
      "type": "function"
    },
    {
      "inputs": [
        {
          "internalType": "address",
          "name": "token",
          "type": "address"
        },
        {
          "internalType": "uint256",
          "name": "nonce",
          "type": "uint256"
        },
        {
          "internalType": "uint256",
          "name": "expiry",
          "type": "uint256"
        },
        {
          "internalType": "uint8",
          "name": "v",
          "type": "uint8"
        },
        {
          "internalType": "bytes32",
          "name": "r",
          "type": "bytes32"
        },
        {
          "internalType": "bytes32",
          "name": "s",
          "type": "bytes32"
        }
      ],
      "name": "selfPermitAllowedIfNecessary",
      "outputs": [],
      "stateMutability": "payable",
      "type": "function"
    },
    {
      "inputs": [
        {
          "internalType": "address",
          "name": "token",
          "type": "address"
        },
        {
          "internalType": "uint256",
          "name": "value",
          "type": "uint256"
        },
        {
          "internalType": "uint256",
          "name": "deadline",
          "type": "uint256"
        },
        {
          "internalType": "uint8",
          "name": "v",
          "type": "uint8"
        },
        {
          "internalType": "bytes32",
          "name": "r",
          "type": "bytes32"
        },
        {
          "internalType": "bytes32",
          "name": "s",
          "type": "bytes32"
        }
      ],
      "name": "selfPermitIfNecessary",
      "outputs": [],
      "stateMutability": "payable",
      "type": "function"
    },
    {
      "inputs": [
        {
          "internalType": "address",
          "name": "operator",
          "type": "address"
        },
        {
          "internalType": "bool",
          "name": "approved",
          "type": "bool"
        }
      ],
      "name": "setApprovalForAll",
      "outputs": [],
      "stateMutability": "nonpayable",
      "type": "function"
    },
    {
      "inputs": [
        {
          "internalType": "bytes4",
          "name": "interfaceId",
          "type": "bytes4"
        }
      ],
      "name": "supportsInterface",
      "outputs": [
        {
          "internalType": "bool",
          "name": "",
          "type": "bool"
        }
      ],
      "stateMutability": "view",
      "type": "function"
    },
    {
      "inputs": [
        {
          "internalType": "address",
          "name": "token",
          "type": "address"
        },
        {
          "internalType": "uint256",
          "name": "amountMinimum",
          "type": "uint256"
        },
        {
          "internalType": "address",
          "name": "recipient",
          "type": "address"
        }
      ],
      "name": "sweepToken",
      "outputs": [],
      "stateMutability": "payable",
      "type": "function"
    },
    {
      "inputs": [],
      "name": "symbol",
      "outputs": [
        {
          "internalType": "string",
          "name": "",
          "type": "string"
        }
      ],
      "stateMutability": "view",
      "type": "function"
    },
    {
      "inputs": [
        {
          "internalType": "uint256",
          "name": "index",
          "type": "uint256"
        }
      ],
      "name": "tokenByIndex",
      "outputs": [
        {
          "internalType": "uint256",
          "name": "",
          "type": "uint256"
        }
      ],
      "stateMutability": "view",
      "type": "function"
    },
    {
      "inputs": [
        {
          "internalType": "address",
          "name": "owner",
          "type": "address"
        },
        {
          "internalType": "uint256",
          "name": "index",
          "type": "uint256"
        }
      ],
      "name": "tokenOfOwnerByIndex",
      "outputs": [
        {
          "internalType": "uint256",
          "name": "",
          "type": "uint256"
        }
      ],
      "stateMutability": "view",
      "type": "function"
    },
    {
      "inputs": [
        {
          "internalType": "uint256",
          "name": "tokenId",
          "type": "uint256"
        }
      ],
      "name": "tokenURI",
      "outputs": [
        {
          "internalType": "string",
          "name": "",
          "type": "string"
        }
      ],
      "stateMutability": "view",
      "type": "function"
    },
    {
      "inputs": [],
      "name": "totalSupply",
      "outputs": [
        {
          "internalType": "uint256",
          "name": "",
          "type": "uint256"
        }
      ],
      "stateMutability": "view",
      "type": "function"
    },
    {
      "inputs": [
        {
          "internalType": "address",
          "name": "from",
          "type": "address"
        },
        {
          "internalType": "address",
          "name": "to",
          "type": "address"
        },
        {
          "internalType": "uint256",
          "name": "tokenId",
          "type": "uint256"
        }
      ],
      "name": "transferFrom",
      "outputs": [],
      "stateMutability": "nonpayable",
      "type": "function"
    },
    {
      "inputs": [
        {
          "internalType": "uint256",
          "name": "amount0Owed",
          "type": "uint256"
        },
        {
          "internalType": "uint256",
          "name": "amount1Owed",
          "type": "uint256"
        },
        {
          "internalType": "bytes",
          "name": "data",
          "type": "bytes"
        }
      ],
      "name": "uniswapV3MintCallback",
      "outputs": [],
      "stateMutability": "nonpayable",
      "type": "function"
    },
    {
      "inputs": [
        {
          "internalType": "uint256",
          "name": "amountMinimum",
          "type": "uint256"
        },
        {
          "internalType": "address",
          "name": "recipient",
          "type": "address"
        }
      ],
      "name": "unwrapWETH9",
      "outputs": [],
      "stateMutability": "payable",
      "type": "function"
    },
    {
      "stateMutability": "payable",
      "type": "receive"
    }
  ],
  "transactionHash": "0x8136d3a31704eec994317eec9d66fac35b70e3c8992d82146ad5691561a7cd5f",
  "args": [
    "0x81D7bF1C11a3Cb21EFb4bFfB58866193fAd15DB9",
    "0x18Def0E9754385eC1C91e176585f1eb1fd7265f5",
    "0x60Aed2E407F24bf78D1045828c23A8b25aF374fC"
  ],
  "numDeployments": 1,
  "solcInputHash": "399da097225bca9db93d563929729fd4",
  "bytecode": "0x610120604052760100000000000000000000000000000000000000000001600d553480156200002d57600080fd5b50604051620061f5380380620061f583398101604081905262000050916200013f565b82826040518060400160405280601b81526020017f556e697377617020563320506f736974696f6e73204e46542d563100000000008152506040518060400160405280600a815260200169554e492d56332d504f5360b01b815250604051806040016040528060018152602001603160f81b81525082828160009081620000d891906200022e565b506001620000e782826200022e565b5050835160209485012060805250805192019190912060a052506001600160a01b0391821660c052811660e052166101005250620002fa9050565b80516001600160a01b03811681146200013a57600080fd5b919050565b6000806000606084860312156200015557600080fd5b620001608462000122565b9250620001706020850162000122565b9150620001806040850162000122565b90509250925092565b634e487b7160e01b600052604160045260246000fd5b600181811c90821680620001b457607f821691505b602082108103620001d557634e487b7160e01b600052602260045260246000fd5b50919050565b601f8211156200022957600081815260208120601f850160051c81016020861015620002045750805b601f850160051c820191505b81811015620002255782815560010162000210565b5050505b505050565b81516001600160401b038111156200024a576200024a62000189565b62000262816200025b84546200019f565b84620001db565b602080601f8311600181146200029a5760008415620002815750858301515b600019600386901b1c1916600185901b17855562000225565b600085815260208120601f198616915b82811015620002cb57888601518255948401946001909101908401620002aa565b5085821015620002ea5787850151600019600388901b60f8161c191681555b5050505050600190811b01905550565b60805160a05160c05160e05161010051615e54620003a16000396000612e520152600081816102b40152818161061e01528181611aa801528181611ba2015281816144ba0152818161450001526145ae0152600081816107e701528181610d1501528181611123015281816111e901528181612ede015281816131ea0152613b350152600081816105530152611e740152600081816105320152611e530152615e546000f3fe6080604052600436106102a45760003560e01c80634f6ccce71161016e578063ac9650d8116100cb578063d34879971161007f578063e985e9c511610064578063e985e9c51461085c578063f3995c67146108a5578063fc6f7865146108b857600080fd5b8063d348799714610829578063df2ab5bb1461084957600080fd5b8063c2e3140a116100b0578063c2e3140a146107c2578063c45a0155146107d5578063c87b56dd1461080957600080fd5b8063ac9650d814610782578063b88d4fde146107a257600080fd5b8063883164561161012257806399fbab881161010757806399fbab8814610717578063a22cb4651461074f578063a4a78f0c1461076f57600080fd5b806388316456146106c757806395d89b411461070257600080fd5b80636c0360eb116101535780636c0360eb1461068057806370a08231146106945780637ac2ff7b146106b457600080fd5b80634f6ccce7146106405780636352211e1461066057600080fd5b8063219f5d171161021c57806342842e0e116101d05780634659a494116101b55780634659a494146105e657806349404b7c146105f95780634aa4a4fc1461060c57600080fd5b806342842e0e146105b357806342966c68146105d357600080fd5b80632f745c59116102015780632f745c59146104a957806330adf81f146104c95780633644e515146104fd57600080fd5b8063219f5d171461045157806323b872dd1461048957600080fd5b80630c49ccbe1161027357806313ead5621161025857806313ead5621461040c57806318160ddd1461041f5780631cf6e5b41461043e57600080fd5b80630c49ccbe146103dc57806312210e8a1461040457600080fd5b806301ffc9a71461032d57806306fdde0314610362578063081812fc14610384578063095ea7b3146103bc57600080fd5b3661032857336001600160a01b037f000000000000000000000000000000000000000000000000000000000000000016146103265760405162461bcd60e51b815260206004820152600960248201527f4e6f74205745544839000000000000000000000000000000000000000000000060448201526064015b60405180910390fd5b005b600080fd5b34801561033957600080fd5b5061034d61034836600461518e565b6108cb565b60405190151581526020015b60405180910390f35b34801561036e57600080fd5b5061037761090f565b6040516103599190615203565b34801561039057600080fd5b506103a461039f366004615216565b6109a1565b6040516001600160a01b039091168152602001610359565b3480156103c857600080fd5b506103266103d7366004615244565b610a57565b6103ef6103ea366004615270565b610b88565b60408051928352602083019190915201610359565b6103266110a6565b6103a461041a36600461529b565b6110b8565b34801561042b57600080fd5b506008545b604051908152602001610359565b61032661044c3660046152f5565b6113cf565b61046461045f366004615312565b6113e2565b604080516001600160801b039094168452602084019290925290820152606001610359565b34801561049557600080fd5b506103266104a4366004615324565b611750565b3480156104b557600080fd5b506104306104c4366004615244565b6117d7565b3480156104d557600080fd5b506104307f49ecf333e5b8c95c40fdafc95c1ad136e8914a8fb55e9dc8bb01eaa83a2df9ad81565b34801561050957600080fd5b5061043060007f8b73c3c69bb8fe3d512ecc4cf759cc79239f7b179b0ffacaa9a75d522b39400f7f00000000000000000000000000000000000000000000000000000000000000007f000000000000000000000000000000000000000000000000000000000000000046604080516020810195909552840192909252606083015260808201523060a082015260c00160405160208183030381529060405280519060200120905090565b3480156105bf57600080fd5b506103266105ce366004615324565b61187f565b6103266105e1366004615216565b61189a565b6103266105f4366004615374565b6119c9565b6103266106073660046153d0565b611a77565b34801561061857600080fd5b506103a47f000000000000000000000000000000000000000000000000000000000000000081565b34801561064c57600080fd5b5061043061065b366004615216565b611c10565b34801561066c57600080fd5b506103a461067b366004615216565b611cb4565b34801561068c57600080fd5b506060610377565b3480156106a057600080fd5b506104306106af3660046152f5565b611d3f565b6103266106c2366004615374565b611dd9565b6106da6106d5366004615400565b6122c0565b604080519485526001600160801b039093166020850152918301526060820152608001610359565b34801561070e57600080fd5b50610377612858565b34801561072357600080fd5b50610737610732366004615216565b612867565b6040516103599c9b9a99989796959493929190615413565b34801561075b57600080fd5b5061032661076a3660046154c7565b612ac0565b61032661077d366004615374565b612acf565b6107956107903660046154f5565b612b76565b604051610359919061556a565b3480156107ae57600080fd5b506103266107bd366004615659565b612cce565b6103266107d0366004615374565b612d5c565b3480156107e157600080fd5b506103a47f000000000000000000000000000000000000000000000000000000000000000081565b34801561081557600080fd5b50610377610824366004615216565b612df9565b34801561083557600080fd5b50610326610844366004615708565b612ec9565b610326610857366004615788565b612f47565b34801561086857600080fd5b5061034d6108773660046157ca565b6001600160a01b03918216600090815260056020908152604080832093909416825291909152205460ff1690565b6103266108b3366004615374565b61302e565b6103ef6108c63660046157f8565b61309e565b60006001600160e01b031982167f780e9d630000000000000000000000000000000000000000000000000000000014806109095750610909826135fe565b92915050565b60606000805461091e9061580a565b80601f016020809104026020016040519081016040528092919081815260200182805461094a9061580a565b80156109975780601f1061096c57610100808354040283529160200191610997565b820191906000526020600020905b81548152906001019060200180831161097a57829003601f168201915b5050505050905090565b6000818152600260205260408120546001600160a01b0316610a2b5760405162461bcd60e51b815260206004820152602c60248201527f4552433732313a20617070726f76656420717565727920666f72206e6f6e657860448201527f697374656e7420746f6b656e0000000000000000000000000000000000000000606482015260840161031d565b506000908152600c60205260409020546c0100000000000000000000000090046001600160a01b031690565b6000610a6282611cb4565b9050806001600160a01b0316836001600160a01b031603610aeb5760405162461bcd60e51b815260206004820152602160248201527f4552433732313a20617070726f76616c20746f2063757272656e74206f776e6560448201527f7200000000000000000000000000000000000000000000000000000000000000606482015260840161031d565b336001600160a01b0382161480610b075750610b078133610877565b610b795760405162461bcd60e51b815260206004820152603860248201527f4552433732313a20617070726f76652063616c6c6572206973206e6f74206f7760448201527f6e6572206e6f7220617070726f76656420666f7220616c6c0000000000000000606482015260840161031d565b610b838383613699565b505050565b6000808235610b97338261371d565b610be35760405162461bcd60e51b815260206004820152600c60248201527f4e6f7420617070726f7665640000000000000000000000000000000000000000604482015260640161031d565b608084013580421115610c385760405162461bcd60e51b815260206004820152601360248201527f5472616e73616374696f6e20746f6f206f6c6400000000000000000000000000604482015260640161031d565b6000610c4a6040870160208801615853565b6001600160801b031611610c5d57600080fd5b84356000908152600c602090815260409182902060018101549092600160801b9091046001600160801b031691610c98918901908901615853565b6001600160801b0316816001600160801b03161015610cb657600080fd5b60018281015469ffffffffffffffffffff166000908152600b60209081526040808320815160608101835281546001600160a01b039081168252919095015490811692850192909252600160a01b90910462ffffff1690830152610d3a7f000000000000000000000000000000000000000000000000000000000000000083613824565b60018501549091506001600160a01b0382169063a34123a7906a01000000000000000000008104600290810b91600160681b9004900b610d8060408e0160208f01615853565b6040516001600160e01b031960e086901b168152600293840b60048201529190920b60248201526001600160801b03909116604482015260640160408051808303816000875af1158015610dd8573d6000803e3d6000fd5b505050506040513d601f19601f82011682018060405250810190610dfc9190615870565b909850965060408901358810801590610e19575088606001358710155b610e655760405162461bcd60e51b815260206004820152601460248201527f507269636520736c69707061676520636865636b000000000000000000000000604482015260640161031d565b6001840154600090610e959030906a01000000000000000000008104600290810b91600160681b9004900b613925565b9050600080836001600160a01b031663514ea4bf846040518263ffffffff1660e01b8152600401610ec891815260200190565b60a060405180830381865afa158015610ee5573d6000803e3d6000fd5b505050506040513d601f19601f82011682018060405250810190610f099190615894565b50509250925050610f37876002015483610f23919061590c565b876001600160801b0316600160801b613979565b610f41908c615923565b600488018054600090610f5e9084906001600160801b0316615923565b92506101000a8154816001600160801b0302191690836001600160801b03160217905550610f95876003015482610f23919061590c565b610f9f908b615923565b600488018054601090610fc3908490600160801b90046001600160801b0316615923565b82546001600160801b039182166101009390930a928302919092021990911617905550600287018290556003870181905561100460408d0160208e01615853565b61100e908761594e565b8760010160106101000a8154816001600160801b0302191690836001600160801b031602179055508b600001357f26f6a048ee9138f2c0ce266f322cb99228e8d619ae2bff30c67f8dcf9d2377b48d602001602081019061106f9190615853565b604080516001600160801b039092168252602082018f905281018d90526060015b60405180910390a2505050505050505050915091565b47156110b6576110b63347613a2b565b565b6000836001600160a01b0316856001600160a01b0316106110d857600080fd5b6040517f1698ee820000000000000000000000000000000000000000000000000000000081526001600160a01b038681166004830152858116602483015262ffffff851660448301527f00000000000000000000000000000000000000000000000000000000000000001690631698ee8290606401602060405180830381865afa15801561116a573d6000803e3d6000fd5b505050506040513d601f19601f8201168201806040525081019061118e9190615976565b90506001600160a01b0381166112d3576040517fa16712950000000000000000000000000000000000000000000000000000000081526001600160a01b038681166004830152858116602483015262ffffff851660448301527f0000000000000000000000000000000000000000000000000000000000000000169063a1671295906064016020604051808303816000875af1158015611232573d6000803e3d6000fd5b505050506040513d601f19601f820116820180604052508101906112569190615976565b6040517ff637731d0000000000000000000000000000000000000000000000000000000081526001600160a01b0384811660048301529192509082169063f637731d90602401600060405180830381600087803b1580156112b657600080fd5b505af11580156112ca573d6000803e3d6000fd5b505050506113c7565b6000816001600160a01b0316633850c7bd6040518163ffffffff1660e01b815260040160e060405180830381865afa158015611313573d6000803e3d6000fd5b505050506040513d601f19601f8201168201806040525081019061133791906159b4565b5050505050509050806001600160a01b03166000036113c5576040517ff637731d0000000000000000000000000000000000000000000000000000000081526001600160a01b03848116600483015283169063f637731d90602401600060405180830381600087803b1580156113ac57600080fd5b505af11580156113c0573d6000803e3d6000fd5b505050505b505b949350505050565b47156113df576113df8147613a2b565b50565b6000808060a08401358042111561143b5760405162461bcd60e51b815260206004820152601360248201527f5472616e73616374696f6e20746f6f206f6c6400000000000000000000000000604482015260640161031d565b84356000908152600c6020908152604080832060018082015469ffffffffffffffffffff81168652600b855283862084516060808201875282546001600160a01b039081168352929094015480831682890190815262ffffff600160a01b9092048216838901908152885161014081018a528451861681529151909416818a01529251168287015230828501526a01000000000000000000008304600290810b608080850191909152600160681b909404900b60a0830152958c013560c0820152938b013560e0850152908a0135610100840152890135610120830152929061152390613ae8565b6001870154939a509198509650915060009061155d9030906a01000000000000000000008104600290810b91600160681b9004900b613925565b9050600080836001600160a01b031663514ea4bf846040518263ffffffff1660e01b815260040161159091815260200190565b60a060405180830381865afa1580156115ad573d6000803e3d6000fd5b505050506040513d601f19601f820116820180604052508101906115d19190615894565b505092509250506116088660020154836115eb919061590c565b60018801546001600160801b03600160801b918290041690613979565b6004870180546000906116259084906001600160801b0316615923565b92506101000a8154816001600160801b0302191690836001600160801b0316021790555061165c8660030154826115eb919061590c565b600487018054601090611680908490600160801b90046001600160801b0316615923565b92506101000a8154816001600160801b0302191690836001600160801b03160217905550818660020181905550808660030181905550898660010160108282829054906101000a90046001600160801b03166116dc9190615923565b82546101009290920a6001600160801b0381810219909316918316021790915560408051918d168252602082018c905281018a90528c3591507f3067048beee31b25b2f1681f88dac838c8bba36af25bfb2b7cf7473a5847e35f9060600160405180910390a2505050505050509193909250565b61175a338261371d565b6117cc5760405162461bcd60e51b815260206004820152603160248201527f4552433732313a207472616e736665722063616c6c6572206973206e6f74206f60448201527f776e6572206e6f7220617070726f766564000000000000000000000000000000606482015260840161031d565b610b83838383613d70565b60006117e283611d3f565b82106118565760405162461bcd60e51b815260206004820152602b60248201527f455243373231456e756d657261626c653a206f776e657220696e646578206f7560448201527f74206f6620626f756e6473000000000000000000000000000000000000000000606482015260840161031d565b506001600160a01b03919091166000908152600660209081526040808320938352929052205490565b610b8383838360405180602001604052806000815250612cce565b806118a5338261371d565b6118f15760405162461bcd60e51b815260206004820152600c60248201527f4e6f7420617070726f7665640000000000000000000000000000000000000000604482015260640161031d565b6000828152600c602052604090206001810154600160801b90046001600160801b031615801561192c575060048101546001600160801b0316155b801561194a57506004810154600160801b90046001600160801b0316155b6119965760405162461bcd60e51b815260206004820152600b60248201527f4e6f7420636c6561726564000000000000000000000000000000000000000000604482015260640161031d565b6000838152600c6020526040812081815560018101829055600281018290556003810182905560040155610b8383613f55565b6040517f8fcbaf0c00000000000000000000000000000000000000000000000000000000815233600482015230602482015260448101869052606481018590526001608482015260ff841660a482015260c4810183905260e481018290526001600160a01b03871690638fcbaf0c90610104015b600060405180830381600087803b158015611a5757600080fd5b505af1158015611a6b573d6000803e3d6000fd5b50505050505050505050565b6040517f70a082310000000000000000000000000000000000000000000000000000000081523060048201526000907f00000000000000000000000000000000000000000000000000000000000000006001600160a01b0316906370a0823190602401602060405180830381865afa158015611af7573d6000803e3d6000fd5b505050506040513d601f19601f82011682018060405250810190611b1b9190615a46565b905082811015611b6d5760405162461bcd60e51b815260206004820152601260248201527f496e73756666696369656e742057455448390000000000000000000000000000604482015260640161031d565b8015610b83576040517f2e1a7d4d000000000000000000000000000000000000000000000000000000008152600481018290527f00000000000000000000000000000000000000000000000000000000000000006001600160a01b031690632e1a7d4d90602401600060405180830381600087803b158015611bee57600080fd5b505af1158015611c02573d6000803e3d6000fd5b50505050610b838282613a2b565b6000611c1b60085490565b8210611c8f5760405162461bcd60e51b815260206004820152602c60248201527f455243373231456e756d657261626c653a20676c6f62616c20696e646578206f60448201527f7574206f6620626f756e64730000000000000000000000000000000000000000606482015260840161031d565b60088281548110611ca257611ca2615a5f565b90600052602060002001549050919050565b6000818152600260205260408120546001600160a01b0316806109095760405162461bcd60e51b815260206004820152602960248201527f4552433732313a206f776e657220717565727920666f72206e6f6e657869737460448201527f656e7420746f6b656e0000000000000000000000000000000000000000000000606482015260840161031d565b60006001600160a01b038216611dbd5760405162461bcd60e51b815260206004820152602a60248201527f4552433732313a2062616c616e636520717565727920666f7220746865207a6560448201527f726f206164647265737300000000000000000000000000000000000000000000606482015260840161031d565b506001600160a01b031660009081526003602052604090205490565b83421115611e295760405162461bcd60e51b815260206004820152600e60248201527f5065726d69742065787069726564000000000000000000000000000000000000604482015260640161031d565b6000611ed460007f8b73c3c69bb8fe3d512ecc4cf759cc79239f7b179b0ffacaa9a75d522b39400f7f00000000000000000000000000000000000000000000000000000000000000007f000000000000000000000000000000000000000000000000000000000000000046604080516020810195909552840192909252606083015260808201523060a082015260c00160405160208183030381529060405280519060200120905090565b7f49ecf333e5b8c95c40fdafc95c1ad136e8914a8fb55e9dc8bb01eaa83a2df9ad8888611f0081614009565b6040805160208101959095526001600160a01b03909316928401929092526060830152608082015260a0810187905260c00160405160208183030381529060405280519060200120604051602001611f8a9291907f190100000000000000000000000000000000000000000000000000000000000081526002810192909252602282015260420190565b6040516020818303038152906040528051906020012090506000611fad87611cb4565b9050806001600160a01b0316886001600160a01b0316036120365760405162461bcd60e51b815260206004820152602760248201527f4552433732315065726d69743a20617070726f76616c20746f2063757272656e60448201527f74206f776e657200000000000000000000000000000000000000000000000000606482015260840161031d565b6001600160a01b0381163b1561219257604080516020810186905280820185905260f887901b7fff000000000000000000000000000000000000000000000000000000000000001660608201528151604181830301815260618201928390527f1626ba7e000000000000000000000000000000000000000000000000000000009092526001600160a01b03831691631626ba7e916120d8918691606501615a75565b602060405180830381865afa1580156120f5573d6000803e3d6000fd5b505050506040513d601f19601f820116820180604052508101906121199190615a8e565b7bffffffffffffffffffffffffffffffffffffffffffffffffffffffff1916631626ba7e60e01b1461218d5760405162461bcd60e51b815260206004820152600c60248201527f556e617574686f72697a65640000000000000000000000000000000000000000604482015260640161031d565b6122ac565b6040805160008082526020820180845285905260ff881692820192909252606081018690526080810185905260019060a0016020604051602081039080840390855afa1580156121e6573d6000803e3d6000fd5b5050604051601f1901519150506001600160a01b0381166122495760405162461bcd60e51b815260206004820152601160248201527f496e76616c6964207369676e6174757265000000000000000000000000000000604482015260640161031d565b816001600160a01b0316816001600160a01b0316146122aa5760405162461bcd60e51b815260206004820152600c60248201527f556e617574686f72697a65640000000000000000000000000000000000000000604482015260640161031d565b505b6122b68888613699565b5050505050505050565b60008080806101408501358042111561231b5760405162461bcd60e51b815260206004820152601360248201527f5472616e73616374696f6e20746f6f206f6c6400000000000000000000000000604482015260640161031d565b6040805161014081019091526000906123e7908061233c60208b018b6152f5565b6001600160a01b0316815260200189602001602081019061235d91906152f5565b6001600160a01b0316815260200161237b60608b0160408c01615aab565b62ffffff16815230602082015260400161239b60808b0160608c01615ac6565b60020b81526020016123b360a08b0160808c01615ac6565b60020b81526020018960a0013581526020018960c0013581526020018960e001358152602001896101000135815250613ae8565b9297509095509350905061249061240661014089016101208a016152f5565b600d805475ffffffffffffffffffffffffffffffffffffffffffff1690600061242e83615ae3565b91906101000a81548175ffffffffffffffffffffffffffffffffffffffffffff021916908375ffffffffffffffffffffffffffffffffffffffffffff16021790555075ffffffffffffffffffffffffffffffffffffffffffff16975087614075565b60006124bb306124a660808b0160608c01615ac6565b6124b660a08c0160808d01615ac6565b613925565b9050600080836001600160a01b031663514ea4bf846040518263ffffffff1660e01b81526004016124ee91815260200190565b60a060405180830381865afa15801561250b573d6000803e3d6000fd5b505050506040513d601f19601f8201168201806040525081019061252f9190615894565b5050925092505060006125a88560405180606001604052808e600001602081019061255a91906152f5565b6001600160a01b031681526020018e602001602081019061257b91906152f5565b6001600160a01b031681526020018e604001602081019061259c9190615aab565b62ffffff1690526141d0565b905060405180610140016040528060006bffffffffffffffffffffffff16815260200160006001600160a01b031681526020018269ffffffffffffffffffff1681526020018c60600160208101906126009190615ac6565b60020b815260200161261860a08e0160808f01615ac6565b60020b81526020018a6001600160801b0316815260200184815260200183815260200160006001600160801b0316815260200160006001600160801b0316815250600c60008c815260200190815260200160002060008201518160000160006101000a8154816bffffffffffffffffffffffff02191690836bffffffffffffffffffffffff160217905550602082015181600001600c6101000a8154816001600160a01b0302191690836001600160a01b0316021790555060408201518160010160006101000a81548169ffffffffffffffffffff021916908369ffffffffffffffffffff160217905550606082015181600101600a6101000a81548162ffffff021916908360020b62ffffff160217905550608082015181600101600d6101000a81548162ffffff021916908360020b62ffffff16021790555060a08201518160010160106101000a8154816001600160801b0302191690836001600160801b0316021790555060c0820151816002015560e082015181600301556101008201518160040160006101000a8154816001600160801b0302191690836001600160801b031602179055506101208201518160040160106101000a8154816001600160801b0302191690836001600160801b03160217905550905050897f3067048beee31b25b2f1681f88dac838c8bba36af25bfb2b7cf7473a5847e35f8a8a8a604051612843939291906001600160801b039390931683526020830191909152604082015260600190565b60405180910390a25050505050509193509193565b60606001805461091e9061580a565b6000818152600c6020908152604080832081516101408101835281546bffffffffffffffffffffffff811682526001600160a01b036c010000000000000000000000009091041693810193909352600181015469ffffffffffffffffffff81169284018390526a01000000000000000000008104600290810b6060860152600160681b8204810b60808601526001600160801b03600160801b92839004811660a08701529083015460c0860152600383015460e086015260049092015480831661010086015204166101208301528291829182918291829182918291829182918291829190820361299a5760405162461bcd60e51b815260206004820152601060248201527f496e76616c696420746f6b656e20494400000000000000000000000000000000604482015260640161031d565b6000600b6000836040015169ffffffffffffffffffff1669ffffffffffffffffffff1681526020019081526020016000206040518060600160405290816000820160009054906101000a90046001600160a01b03166001600160a01b03166001600160a01b031681526020016001820160009054906101000a90046001600160a01b03166001600160a01b03166001600160a01b031681526020016001820160149054906101000a900462ffffff1662ffffff1662ffffff1681525050905081600001518260200151826000015183602001518460400151866060015187608001518860a001518960c001518a60e001518b61010001518c61012001519d509d509d509d509d509d509d509d509d509d509d509d50505091939597999b5091939597999b565b612acb338383614320565b5050565b6040517fdd62ed3e000000000000000000000000000000000000000000000000000000008152336004820152306024820152600019906001600160a01b0388169063dd62ed3e90604401602060405180830381865afa158015612b36573d6000803e3d6000fd5b505050506040513d601f19601f82011682018060405250810190612b5a9190615a46565b1015612b6e57612b6e8686868686866119c9565b505050505050565b60608167ffffffffffffffff811115612b9157612b916155ea565b604051908082528060200260200182016040528015612bc457816020015b6060815260200190600190039081612baf5790505b50905060005b82811015612cc75760008030868685818110612be857612be8615a5f565b9050602002810190612bfa9190615b18565b604051612c08929190615b84565b600060405180830381855af49150503d8060008114612c43576040519150601f19603f3d011682016040523d82523d6000602084013e612c48565b606091505b509150915081612c9457604481511015612c6157600080fd5b60048101905080806020019051810190612c7b9190615b94565b60405162461bcd60e51b815260040161031d9190615203565b80848481518110612ca757612ca7615a5f565b602002602001018190525050508080612cbf90615c02565b915050612bca565b5092915050565b612cd8338361371d565b612d4a5760405162461bcd60e51b815260206004820152603160248201527f4552433732313a207472616e736665722063616c6c6572206973206e6f74206f60448201527f776e6572206e6f7220617070726f766564000000000000000000000000000000606482015260840161031d565b612d568484848461440c565b50505050565b6040517fdd62ed3e00000000000000000000000000000000000000000000000000000000815233600482015230602482015285906001600160a01b0388169063dd62ed3e90604401602060405180830381865afa158015612dc1573d6000803e3d6000fd5b505050506040513d601f19601f82011682018060405250810190612de59190615a46565b1015612b6e57612b6e86868686868661302e565b6000818152600260205260409020546060906001600160a01b0316612e1d57600080fd5b6040517fe9dc6375000000000000000000000000000000000000000000000000000000008152306004820152602481018390527f00000000000000000000000000000000000000000000000000000000000000006001600160a01b03169063e9dc637590604401600060405180830381865afa158015612ea1573d6000803e3d6000fd5b505050506040513d6000823e601f3d908101601f191682016040526109099190810190615b94565b6000612ed782840184615c1c565b9050612f077f00000000000000000000000000000000000000000000000000000000000000008260000151614495565b508415612f22578051516020820151612f22919033886144b8565b8315612f4057612f40816000015160200151826020015133876144b8565b5050505050565b6040517f70a082310000000000000000000000000000000000000000000000000000000081523060048201526000906001600160a01b038516906370a0823190602401602060405180830381865afa158015612fa7573d6000803e3d6000fd5b505050506040513d601f19601f82011682018060405250810190612fcb9190615a46565b90508281101561301d5760405162461bcd60e51b815260206004820152601260248201527f496e73756666696369656e7420746f6b656e0000000000000000000000000000604482015260640161031d565b8015612d5657612d56848383614651565b6040517fd505accf000000000000000000000000000000000000000000000000000000008152336004820152306024820152604481018690526064810185905260ff8416608482015260a4810183905260c481018290526001600160a01b0387169063d505accf9060e401611a3d565b60008082356130ad338261371d565b6130f95760405162461bcd60e51b815260206004820152600c60248201527f4e6f7420617070726f7665640000000000000000000000000000000000000000604482015260640161031d565b600061310b6060860160408701615853565b6001600160801b031611806131385750600061312d6080860160608701615853565b6001600160801b0316115b61314157600080fd5b60008061315460408701602088016152f5565b6001600160a01b0316146131775761317260408601602087016152f5565b613179565b305b85356000908152600c6020908152604080832060018082015469ffffffffffffffffffff168552600b8452828520835160608101855281546001600160a01b039081168252919092015490811694820194909452600160a01b90930462ffffff16918301919091529293509061320f7f000000000000000000000000000000000000000000000000000000000000000083613824565b600484015460018501549192506001600160801b0380821692600160801b92839004821692900416156134005760018501546040517fa34123a70000000000000000000000000000000000000000000000000000000081526a01000000000000000000008204600290810b6004830152600160681b90920490910b6024820152600060448201526001600160a01b0384169063a34123a79060640160408051808303816000875af11580156132c8573d6000803e3d6000fd5b505050506040513d601f19601f820116820180604052508101906132ec9190615870565b5050600185015460009081906001600160a01b0386169063514ea4bf906133319030906a01000000000000000000008104600290810b91600160681b9004900b613925565b6040518263ffffffff1660e01b815260040161334f91815260200190565b60a060405180830381865afa15801561336c573d6000803e3d6000fd5b505050506040513d601f19601f820116820180604052508101906133909190615894565b505092509250506133c78760020154836133aa919061590c565b60018901546001600160801b03600160801b918290041690613979565b6133d19085615923565b93506133e68760030154826133aa919061590c565b6133f09084615923565b6002880192909255600387015590505b6000806001600160801b03841661341d60608e0160408f01615853565b6001600160801b0316116134405761343b60608d0160408e01615853565b613442565b835b836001600160801b03168d606001602081019061345f9190615853565b6001600160801b0316116134825761347d60808e0160608f01615853565b613484565b835b60018901546040517f4f1eb3d80000000000000000000000000000000000000000000000000000000081526001600160a01b038c811660048301526a01000000000000000000008304600290810b6024840152600160681b90930490920b60448201526001600160801b03808516606483015283166084820152929450909250861690634f1eb3d89060a40160408051808303816000875af115801561352e573d6000803e3d6000fd5b505050506040513d601f19601f820116820180604052508101906135529190615cdb565b6001600160801b039182169c5016995061356c828561594e565b613576828561594e565b6001600160801b03918216908216600160801b027fffffffffffffffffffffffffffffffff0000000000000000000000000000000016176004890155604080516001600160a01b038b1681528483166020820152918316908201528c35907f40d0efd1a53d60ecbf40971b9daf7dc90178c3aadc7aab1765632738fa8b8f0190606001611090565b60006001600160e01b031982167f80ac58cd00000000000000000000000000000000000000000000000000000000148061366157506001600160e01b031982167f5b5e139f00000000000000000000000000000000000000000000000000000000145b8061090957507f01ffc9a7000000000000000000000000000000000000000000000000000000006001600160e01b0319831614610909565b6000818152600c6020526040902080546bffffffffffffffffffffffff166c010000000000000000000000006001600160a01b0385169081029190911790915581906136e482611cb4565b6001600160a01b03167f8c5be1e5ebec7d5bd14f71427d1e84f3dd0314c0f7b2291e5b200ac8c7c3b92560405160405180910390a45050565b6000818152600260205260408120546001600160a01b03166137a75760405162461bcd60e51b815260206004820152602c60248201527f4552433732313a206f70657261746f7220717565727920666f72206e6f6e657860448201527f697374656e7420746f6b656e0000000000000000000000000000000000000000606482015260840161031d565b60006137b283611cb4565b9050806001600160a01b0316846001600160a01b031614806137f957506001600160a01b0380821660009081526005602090815260408083209388168352929052205460ff165b806113c75750836001600160a01b0316613812846109a1565b6001600160a01b031614949350505050565b600081602001516001600160a01b031682600001516001600160a01b03161061384c57600080fd5b815160208084015160408086015181516001600160a01b0395861681860152949092168482015262ffffff90911660608085019190915281518085038201815260808501909252815191909201207fff0000000000000000000000000000000000000000000000000000000000000060a08401529085901b6bffffffffffffffffffffffff191660a183015260b58201527fd5434d767ebc6acf4874d8815d312148f989d462d9022a440475be26b89d926960d582015260f50160408051601f1981840301815291905280516020909101209392505050565b6040516bffffffffffffffffffffffff19606085901b16602082015260e883811b603483015282901b6037820152600090603a016040516020818303038152906040528051906020012090505b9392505050565b60008080600019858709858702925082811083820303915050806000036139b257600084116139a757600080fd5b508290049050613972565b8084116139be57600080fd5b6000848688096000868103871696879004966002600389028118808a02820302808a02820302808a02820302808a02820302808a02820302808a02909103029181900381900460010186841190950394909402919094039290920491909117919091029150509392505050565b604080516000808252602082019092526001600160a01b038416908390604051613a559190615d0a565b60006040518083038185875af1925050503d8060008114613a92576040519150601f19603f3d011682016040523d82523d6000602084013e613a97565b606091505b5050905080610b835760405162461bcd60e51b815260206004820152600360248201527f5354450000000000000000000000000000000000000000000000000000000000604482015260640161031d565b6000806000806000604051806060016040528087600001516001600160a01b0316815260200187602001516001600160a01b03168152602001876040015162ffffff168152509050613b5a7f000000000000000000000000000000000000000000000000000000000000000082613824565b91506000826001600160a01b0316633850c7bd6040518163ffffffff1660e01b815260040160e060405180830381865afa158015613b9c573d6000803e3d6000fd5b505050506040513d601f19601f82011682018060405250810190613bc091906159b4565b50505050505090506000613bd78860800151614793565b90506000613be88960a00151614793565b9050613bff8383838c60c001518d60e00151614acf565b9750505050816001600160a01b0316633c8a7d8d876060015188608001518960a00151896040518060400160405280888152602001336001600160a01b0316815250604051602001613c8c9190815180516001600160a01b03908116835260208083015182168185015260409283015162ffffff1692840192909252920151909116606082015260800190565b6040516020818303038152906040526040518663ffffffff1660e01b8152600401613cbb959493929190615d26565b60408051808303816000875af1158015613cd9573d6000803e3d6000fd5b505050506040513d601f19601f82011682018060405250810190613cfd9190615870565b61010088015191955093508410801590613d1c57508561012001518310155b613d685760405162461bcd60e51b815260206004820152601460248201527f507269636520736c69707061676520636865636b000000000000000000000000604482015260640161031d565b509193509193565b826001600160a01b0316613d8382611cb4565b6001600160a01b031614613dff5760405162461bcd60e51b815260206004820152602560248201527f4552433732313a207472616e736665722066726f6d20696e636f72726563742060448201527f6f776e6572000000000000000000000000000000000000000000000000000000606482015260840161031d565b6001600160a01b038216613e7a5760405162461bcd60e51b8152602060048201526024808201527f4552433732313a207472616e7366657220746f20746865207a65726f2061646460448201527f7265737300000000000000000000000000000000000000000000000000000000606482015260840161031d565b613e85838383614b93565b613e90600082613699565b6001600160a01b0383166000908152600360205260408120805460019290613eb990849061590c565b90915550506001600160a01b0382166000908152600360205260408120805460019290613ee7908490615d74565b9091555050600081815260026020526040808220805473ffffffffffffffffffffffffffffffffffffffff19166001600160a01b0386811691821790925591518493918716917fddf252ad1be2c89b69c2b068fc378daa952ba7f163c4a11628f55a4df523b3ef91a4505050565b6000613f6082611cb4565b9050613f6e81600084614b93565b613f79600083613699565b6001600160a01b0381166000908152600360205260408120805460019290613fa290849061590c565b9091555050600082815260026020526040808220805473ffffffffffffffffffffffffffffffffffffffff19169055518391906001600160a01b038416907fddf252ad1be2c89b69c2b068fc378daa952ba7f163c4a11628f55a4df523b3ef908390a45050565b6000818152600c6020526040812080546bffffffffffffffffffffffff16908261403283615d8c565b91906101000a8154816bffffffffffffffffffffffff02191690836bffffffffffffffffffffffff1602179055506bffffffffffffffffffffffff169050919050565b6001600160a01b0382166140cb5760405162461bcd60e51b815260206004820181905260248201527f4552433732313a206d696e7420746f20746865207a65726f2061646472657373604482015260640161031d565b6000818152600260205260409020546001600160a01b0316156141305760405162461bcd60e51b815260206004820152601c60248201527f4552433732313a20746f6b656e20616c7265616479206d696e74656400000000604482015260640161031d565b61413c60008383614b93565b6001600160a01b0382166000908152600360205260408120805460019290614165908490615d74565b9091555050600081815260026020526040808220805473ffffffffffffffffffffffffffffffffffffffff19166001600160a01b03861690811790915590518392907fddf252ad1be2c89b69c2b068fc378daa952ba7f163c4a11628f55a4df523b3ef908290a45050565b6001600160a01b0382166000908152600a602052604081205469ffffffffffffffffffff169081900361090957600d8054760100000000000000000000000000000000000000000000900469ffffffffffffffffffff1690601661423383615dad565b82546101009290920a69ffffffffffffffffffff8181021990931691831602179091556001600160a01b039485166000908152600a6020908152604080832080547fffffffffffffffffffffffffffffffffffffffffffff00000000000000000000169486169485179055928252600b8152908290208551815473ffffffffffffffffffffffffffffffffffffffff1916908816178155908501516001919091018054959092015195167fffffffffffffffffff000000000000000000000000000000000000000000000090941693909317600160a01b62ffffff90951694909402939093179091555090565b816001600160a01b0316836001600160a01b0316036143815760405162461bcd60e51b815260206004820152601960248201527f4552433732313a20617070726f766520746f2063616c6c657200000000000000604482015260640161031d565b6001600160a01b0383811660008181526005602090815260408083209487168084529482529182902080547fffffffffffffffffffffffffffffffffffffffffffffffffffffffffffffff001686151590811790915591519182527f17307eab39ab6107e8899845ad3d59bd9653f200f220920489ca2b5937696c31910160405180910390a3505050565b614417848484613d70565b61442384848484614c4b565b612d565760405162461bcd60e51b815260206004820152603260248201527f4552433732313a207472616e7366657220746f206e6f6e20455243373231526560448201527f63656976657220696d706c656d656e7465720000000000000000000000000000606482015260840161031d565b60006144a18383613824565b9050336001600160a01b0382161461090957600080fd5b7f00000000000000000000000000000000000000000000000000000000000000006001600160a01b0316846001600160a01b03161480156144f95750804710155b15614625577f00000000000000000000000000000000000000000000000000000000000000006001600160a01b031663d0e30db0826040518263ffffffff1660e01b81526004016000604051808303818588803b15801561455957600080fd5b505af115801561456d573d6000803e3d6000fd5b50506040517fa9059cbb0000000000000000000000000000000000000000000000000000000081526001600160a01b038681166004830152602482018690527f000000000000000000000000000000000000000000000000000000000000000016935063a9059cbb925060440190506020604051808303816000875af11580156145fb573d6000803e3d6000fd5b505050506040513d601f19601f8201168201806040525081019061461f9190615dcc565b50612d56565b306001600160a01b0384160361464557614640848383614651565b612d56565b612d5684848484614dd1565b604080516001600160a01b038481166024830152604480830185905283518084039091018152606490920183526020820180517bffffffffffffffffffffffffffffffffffffffffffffffffffffffff167fa9059cbb0000000000000000000000000000000000000000000000000000000017905291516000928392908716916146db9190615d0a565b6000604051808303816000865af19150503d8060008114614718576040519150601f19603f3d011682016040523d82523d6000602084013e61471d565b606091505b50915091508180156147475750805115806147475750808060200190518101906147479190615dcc565b612f405760405162461bcd60e51b815260206004820152600260248201527f5354000000000000000000000000000000000000000000000000000000000000604482015260640161031d565b60008060008360020b126147aa578260020b6147b2565b8260020b6000035b9050620d89e88111156147f1576040517f2bc80f3a00000000000000000000000000000000000000000000000000000000815260040160405180910390fd5b60008160011660000361480857600160801b61481a565b6ffffcb933bd6fad37aa2d162d1a5940015b70ffffffffffffffffffffffffffffffffff169050600282161561484e576ffff97272373d413259a46990580e213a0260801c5b600482161561486d576ffff2e50f5f656932ef12357cf3c7fdcc0260801c5b600882161561488c576fffe5caca7e10e4e61c3624eaa0941cd00260801c5b60108216156148ab576fffcb9843d60f6159c9db58835c9266440260801c5b60208216156148ca576fff973b41fa98c081472e6896dfb254c00260801c5b60408216156148e9576fff2ea16466c96a3843ec78b326b528610260801c5b6080821615614908576ffe5dee046a99a2a811c461f1969c30530260801c5b610100821615614928576ffcbe86c7900a88aedcffc83b479aa3a40260801c5b610200821615614948576ff987a7253ac413176f2b074cf7815e540260801c5b610400821615614968576ff3392b0822b70005940c7a398e4b70f30260801c5b610800821615614988576fe7159475a2c29b7443b29c7fa6e889d90260801c5b6110008216156149a8576fd097f3bdfd2022b8845ad8f792aa58250260801c5b6120008216156149c8576fa9f746462d870fdf8a65dc1f90e061e50260801c5b6140008216156149e8576f70d869a156d2a1b890bb3df62baf32f70260801c5b618000821615614a08576f31be135f97d08fd981231505542fcfa60260801c5b62010000821615614a29576f09aa508b5b7a84e1c677de54f3e99bc90260801c5b62020000821615614a49576e5d6af8dedb81196699c329225ee6040260801c5b62040000821615614a68576d2216e584f5fa1ea926041bedfe980260801c5b62080000821615614a85576b048a170391f7dc42444e8fa20260801c5b60008460020b1315614aa6578060001981614aa257614aa2615de9565b0490505b640100000000810615614aba576001614abd565b60005b60ff16602082901c0192505050919050565b6000836001600160a01b0316856001600160a01b03161115614aef579293925b846001600160a01b0316866001600160a01b031611614b1a57614b13858585614f1b565b9050614b8a565b836001600160a01b0316866001600160a01b03161015614b7c576000614b41878686614f1b565b90506000614b50878986614f87565b9050806001600160801b0316826001600160801b031610614b715780614b73565b815b92505050614b8a565b614b87858584614f87565b90505b95945050505050565b6001600160a01b038316614bee57614be981600880546000838152600960205260408120829055600182018355919091527ff3f7a9fe364faab93b216da50a3214154f22a0a2b415b23a84c8169e8b636ee30155565b614c11565b816001600160a01b0316836001600160a01b031614614c1157614c118382614fcd565b6001600160a01b038216614c2857610b838161506a565b826001600160a01b0316826001600160a01b031614610b8357610b838282615119565b60006001600160a01b0384163b15614dc9576040517f150b7a020000000000000000000000000000000000000000000000000000000081526001600160a01b0385169063150b7a0290614ca8903390899088908890600401615dff565b6020604051808303816000875af1925050508015614ce3575060408051601f3d908101601f19168201909252614ce091810190615a8e565b60015b614d96573d808015614d11576040519150601f19603f3d011682016040523d82523d6000602084013e614d16565b606091505b508051600003614d8e5760405162461bcd60e51b815260206004820152603260248201527f4552433732313a207472616e7366657220746f206e6f6e20455243373231526560448201527f63656976657220696d706c656d656e7465720000000000000000000000000000606482015260840161031d565b805181602001fd5b6001600160e01b0319167f150b7a02000000000000000000000000000000000000000000000000000000001490506113c7565b5060016113c7565b604080516001600160a01b0385811660248301528481166044830152606480830185905283518084039091018152608490920183526020820180517bffffffffffffffffffffffffffffffffffffffffffffffffffffffff167f23b872dd000000000000000000000000000000000000000000000000000000001790529151600092839290881691614e639190615d0a565b6000604051808303816000865af19150503d8060008114614ea0576040519150601f19603f3d011682016040523d82523d6000602084013e614ea5565b606091505b5091509150818015614ecf575080511580614ecf575080806020019051810190614ecf9190615dcc565b612b6e5760405162461bcd60e51b815260206004820152600360248201527f5354460000000000000000000000000000000000000000000000000000000000604482015260640161031d565b6000826001600160a01b0316846001600160a01b03161115614f3b579192915b6000614f67856001600160a01b0316856001600160a01b03166c01000000000000000000000000613979565b9050614b8a614f8284838888036001600160a01b0316613979565b61515d565b6000826001600160a01b0316846001600160a01b03161115614fa7579192915b6113c7614f82836c010000000000000000000000008787036001600160a01b0316613979565b60006001614fda84611d3f565b614fe4919061590c565b600083815260076020526040902054909150808214615037576001600160a01b03841660009081526006602090815260408083208584528252808320548484528184208190558352600790915290208190555b5060009182526007602090815260408084208490556001600160a01b039094168352600681528383209183525290812055565b60085460009061507c9060019061590c565b600083815260096020526040812054600880549394509092849081106150a4576150a4615a5f565b9060005260206000200154905080600883815481106150c5576150c5615a5f565b60009182526020808320909101929092558281526009909152604080822084905585825281205560088054806150fd576150fd615e31565b6001900381819060005260206000200160009055905550505050565b600061512483611d3f565b6001600160a01b039093166000908152600660209081526040808320868452825280832085905593825260079052919091209190915550565b806001600160801b038116811461517357600080fd5b919050565b6001600160e01b0319811681146113df57600080fd5b6000602082840312156151a057600080fd5b813561397281615178565b60005b838110156151c65781810151838201526020016151ae565b83811115612d565750506000910152565b600081518084526151ef8160208601602086016151ab565b601f01601f19169290920160200192915050565b60208152600061397260208301846151d7565b60006020828403121561522857600080fd5b5035919050565b6001600160a01b03811681146113df57600080fd5b6000806040838503121561525757600080fd5b82356152628161522f565b946020939093013593505050565b600060a0828403121561528257600080fd5b50919050565b803562ffffff8116811461517357600080fd5b600080600080608085870312156152b157600080fd5b84356152bc8161522f565b935060208501356152cc8161522f565b92506152da60408601615288565b915060608501356152ea8161522f565b939692955090935050565b60006020828403121561530757600080fd5b81356139728161522f565b600060c0828403121561528257600080fd5b60008060006060848603121561533957600080fd5b83356153448161522f565b925060208401356153548161522f565b929592945050506040919091013590565b60ff811681146113df57600080fd5b60008060008060008060c0878903121561538d57600080fd5b86356153988161522f565b9550602087013594506040870135935060608701356153b681615365565b9598949750929560808101359460a0909101359350915050565b600080604083850312156153e357600080fd5b8235915060208301356153f58161522f565b809150509250929050565b6000610160828403121561528257600080fd5b6bffffffffffffffffffffffff8d1681526001600160a01b038c811660208301528b811660408301528a16606082015262ffffff89166080820152600288810b60a083015287900b60c082015261018081016001600160801b03871660e083015285610100830152846101208301526154986101408301856001600160801b03169052565b6001600160801b0383166101608301529d9c50505050505050505050505050565b80151581146113df57600080fd5b600080604083850312156154da57600080fd5b82356154e58161522f565b915060208301356153f5816154b9565b6000806020838503121561550857600080fd5b823567ffffffffffffffff8082111561552057600080fd5b818501915085601f83011261553457600080fd5b81358181111561554357600080fd5b8660208260051b850101111561555857600080fd5b60209290920196919550909350505050565b6000602080830181845280855180835260408601915060408160051b870101925083870160005b828110156155dd577fffffffffffffffffffffffffffffffffffffffffffffffffffffffffffffffc08886030184526155cb8583516151d7565b94509285019290850190600101615591565b5092979650505050505050565b634e487b7160e01b600052604160045260246000fd5b604051601f8201601f1916810167ffffffffffffffff81118282101715615629576156296155ea565b604052919050565b600067ffffffffffffffff82111561564b5761564b6155ea565b50601f01601f191660200190565b6000806000806080858703121561566f57600080fd5b843561567a8161522f565b9350602085013561568a8161522f565b925060408501359150606085013567ffffffffffffffff8111156156ad57600080fd5b8501601f810187136156be57600080fd5b80356156d16156cc82615631565b615600565b8181528860208385010111156156e657600080fd5b8160208401602083013760006020838301015280935050505092959194509250565b6000806000806060858703121561571e57600080fd5b8435935060208501359250604085013567ffffffffffffffff8082111561574457600080fd5b818701915087601f83011261575857600080fd5b81358181111561576757600080fd5b88602082850101111561577957600080fd5b95989497505060200194505050565b60008060006060848603121561579d57600080fd5b83356157a88161522f565b92506020840135915060408401356157bf8161522f565b809150509250925092565b600080604083850312156157dd57600080fd5b82356157e88161522f565b915060208301356153f58161522f565b60006080828403121561528257600080fd5b600181811c9082168061581e57607f821691505b60208210810361528257634e487b7160e01b600052602260045260246000fd5b6001600160801b03811681146113df57600080fd5b60006020828403121561586557600080fd5b81356139728161583e565b6000806040838503121561588357600080fd5b505080516020909101519092909150565b600080600080600060a086880312156158ac57600080fd5b85516158b78161583e565b80955050602086015193506040860151925060608601516158d78161583e565b60808701519092506158e88161583e565b809150509295509295909350565b634e487b7160e01b600052601160045260246000fd5b60008282101561591e5761591e6158f6565b500390565b60006001600160801b03808316818516808303821115615945576159456158f6565b01949350505050565b60006001600160801b038381169083168181101561596e5761596e6158f6565b039392505050565b60006020828403121561598857600080fd5b81516139728161522f565b8060020b81146113df57600080fd5b805161ffff8116811461517357600080fd5b600080600080600080600060e0888a0312156159cf57600080fd5b87516159da8161522f565b60208901519097506159eb81615993565b95506159f9604089016159a2565b9450615a07606089016159a2565b9350615a15608089016159a2565b925060a0880151615a2581615365565b60c0890151909250615a36816154b9565b8091505092959891949750929550565b600060208284031215615a5857600080fd5b5051919050565b634e487b7160e01b600052603260045260246000fd5b8281526040602082015260006113c760408301846151d7565b600060208284031215615aa057600080fd5b815161397281615178565b600060208284031215615abd57600080fd5b61397282615288565b600060208284031215615ad857600080fd5b813561397281615993565b600075ffffffffffffffffffffffffffffffffffffffffffff808316818103615b0e57615b0e6158f6565b6001019392505050565b60008083357fffffffffffffffffffffffffffffffffffffffffffffffffffffffffffffffe1843603018112615b4d57600080fd5b83018035915067ffffffffffffffff821115615b6857600080fd5b602001915036819003821315615b7d57600080fd5b9250929050565b8183823760009101908152919050565b600060208284031215615ba657600080fd5b815167ffffffffffffffff811115615bbd57600080fd5b8201601f81018413615bce57600080fd5b8051615bdc6156cc82615631565b818152856020838501011115615bf157600080fd5b614b8a8260208301602086016151ab565b60006000198203615c1557615c156158f6565b5060010190565b60008183036080811215615c2f57600080fd5b6040516040810167ffffffffffffffff8282108183111715615c5357615c536155ea565b816040526060841215615c6557600080fd5b60a0830193508184108185111715615c7f57615c7f6155ea565b508260405284359250615c918361522f565b918252602084013591615ca38361522f565b826060830152615cb560408601615288565b6080830152815260608401359150615ccc8261522f565b60208101919091529392505050565b60008060408385031215615cee57600080fd5b8251615cf98161583e565b60208401519092506153f58161583e565b60008251615d1c8184602087016151ab565b9190910192915050565b6001600160a01b03861681528460020b60208201528360020b60408201526001600160801b038316606082015260a060808201526000615d6960a08301846151d7565b979650505050505050565b60008219821115615d8757615d876158f6565b500190565b60006bffffffffffffffffffffffff808316818103615b0e57615b0e6158f6565b600069ffffffffffffffffffff808316818103615b0e57615b0e6158f6565b600060208284031215615dde57600080fd5b8151613972816154b9565b634e487b7160e01b600052601260045260246000fd5b60006001600160a01b03808716835280861660208401525083604083015260806060830152614b8760808301846151d7565b634e487b7160e01b600052603160045260246000fdfea164736f6c634300080f000a"
}