{
  "address": "0x7C49E1Aaaefb8f5E288AA45294C7B1129Ecbf544",
  "abi": [
    {
      "inputs": [
        {
          "internalType": "address",
          "name": "_factory",
          "type": "address"
        },
        {
          "internalType": "address",
          "name": "_WETH9",
          "type": "address"
        },
        {
          "internalType": "address",
          "name": "_tokenDescriptor_",
          "type": "address"
        }
      ],
      "stateMutability": "nonpayable",
      "type": "constructor"
    },
    {
      "inputs": [],
      "name": "T",
      "type": "error"
    },
    {
      "anonymous": false,
      "inputs": [
        {
          "indexed": true,
          "internalType": "address",
          "name": "owner",
          "type": "address"
        },
        {
          "indexed": true,
          "internalType": "address",
          "name": "approved",
          "type": "address"
        },
        {
          "indexed": true,
          "internalType": "uint256",
          "name": "tokenId",
          "type": "uint256"
        }
      ],
      "name": "Approval",
      "type": "event"
    },
    {
      "anonymous": false,
      "inputs": [
        {
          "indexed": true,
          "internalType": "address",
          "name": "owner",
          "type": "address"
        },
        {
          "indexed": true,
          "internalType": "address",
          "name": "operator",
          "type": "address"
        },
        {
          "indexed": false,
          "internalType": "bool",
          "name": "approved",
          "type": "bool"
        }
      ],
      "name": "ApprovalForAll",
      "type": "event"
    },
    {
      "anonymous": false,
      "inputs": [
        {
          "indexed": true,
          "internalType": "uint256",
          "name": "tokenId",
          "type": "uint256"
        },
        {
          "indexed": false,
          "internalType": "address",
          "name": "recipient",
          "type": "address"
        },
        {
          "indexed": false,
          "internalType": "uint256",
          "name": "amount0",
          "type": "uint256"
        },
        {
          "indexed": false,
          "internalType": "uint256",
          "name": "amount1",
          "type": "uint256"
        }
      ],
      "name": "Collect",
      "type": "event"
    },
    {
      "anonymous": false,
      "inputs": [
        {
          "indexed": true,
          "internalType": "uint256",
          "name": "tokenId",
          "type": "uint256"
        },
        {
          "indexed": false,
          "internalType": "uint128",
          "name": "liquidity",
          "type": "uint128"
        },
        {
          "indexed": false,
          "internalType": "uint256",
          "name": "amount0",
          "type": "uint256"
        },
        {
          "indexed": false,
          "internalType": "uint256",
          "name": "amount1",
          "type": "uint256"
        }
      ],
      "name": "DecreaseLiquidity",
      "type": "event"
    },
    {
      "anonymous": false,
      "inputs": [
        {
          "indexed": true,
          "internalType": "uint256",
          "name": "tokenId",
          "type": "uint256"
        },
        {
          "indexed": false,
          "internalType": "uint128",
          "name": "liquidity",
          "type": "uint128"
        },
        {
          "indexed": false,
          "internalType": "uint256",
          "name": "amount0",
          "type": "uint256"
        },
        {
          "indexed": false,
          "internalType": "uint256",
          "name": "amount1",
          "type": "uint256"
        }
      ],
      "name": "IncreaseLiquidity",
      "type": "event"
    },
    {
      "anonymous": false,
      "inputs": [
        {
          "indexed": true,
          "internalType": "address",
          "name": "from",
          "type": "address"
        },
        {
          "indexed": true,
          "internalType": "address",
          "name": "to",
          "type": "address"
        },
        {
          "indexed": true,
          "internalType": "uint256",
          "name": "tokenId",
          "type": "uint256"
        }
      ],
      "name": "Transfer",
      "type": "event"
    },
    {
      "inputs": [],
      "name": "DOMAIN_SEPARATOR",
      "outputs": [
        {
          "internalType": "bytes32",
          "name": "",
          "type": "bytes32"
        }
      ],
      "stateMutability": "view",
      "type": "function"
    },
    {
      "inputs": [],
      "name": "PERMIT_TYPEHASH",
      "outputs": [
        {
          "internalType": "bytes32",
          "name": "",
          "type": "bytes32"
        }
      ],
      "stateMutability": "view",
      "type": "function"
    },
    {
      "inputs": [],
      "name": "WETH9",
      "outputs": [
        {
          "internalType": "address",
          "name": "",
          "type": "address"
        }
      ],
      "stateMutability": "view",
      "type": "function"
    },
    {
      "inputs": [
        {
          "internalType": "address",
          "name": "to",
          "type": "address"
        },
        {
          "internalType": "uint256",
          "name": "tokenId",
          "type": "uint256"
        }
      ],
      "name": "approve",
      "outputs": [],
      "stateMutability": "nonpayable",
      "type": "function"
    },
    {
      "inputs": [
        {
          "internalType": "address",
          "name": "owner",
          "type": "address"
        }
      ],
      "name": "balanceOf",
      "outputs": [
        {
          "internalType": "uint256",
          "name": "",
          "type": "uint256"
        }
      ],
      "stateMutability": "view",
      "type": "function"
    },
    {
      "inputs": [],
      "name": "baseURI",
      "outputs": [
        {
          "internalType": "string",
          "name": "",
          "type": "string"
        }
      ],
      "stateMutability": "pure",
      "type": "function"
    },
    {
      "inputs": [
        {
          "internalType": "uint256",
          "name": "tokenId",
          "type": "uint256"
        }
      ],
      "name": "burn",
      "outputs": [],
      "stateMutability": "payable",
      "type": "function"
    },
    {
      "inputs": [
        {
          "components": [
            {
              "internalType": "uint256",
              "name": "tokenId",
              "type": "uint256"
            },
            {
              "internalType": "address",
              "name": "recipient",
              "type": "address"
            },
            {
              "internalType": "uint128",
              "name": "amount0Max",
              "type": "uint128"
            },
            {
              "internalType": "uint128",
              "name": "amount1Max",
              "type": "uint128"
            }
          ],
          "internalType": "struct INonfungiblePositionManager.CollectParams",
          "name": "params",
          "type": "tuple"
        }
      ],
      "name": "collect",
      "outputs": [
        {
          "internalType": "uint256",
          "name": "amount0",
          "type": "uint256"
        },
        {
          "internalType": "uint256",
          "name": "amount1",
          "type": "uint256"
        }
      ],
      "stateMutability": "payable",
      "type": "function"
    },
    {
      "inputs": [
        {
          "internalType": "address",
          "name": "token0",
          "type": "address"
        },
        {
          "internalType": "address",
          "name": "token1",
          "type": "address"
        },
        {
          "internalType": "uint24",
          "name": "fee",
          "type": "uint24"
        },
        {
          "internalType": "uint160",
          "name": "sqrtPriceX96",
          "type": "uint160"
        }
      ],
      "name": "createAndInitializePoolIfNecessary",
      "outputs": [
        {
          "internalType": "address",
          "name": "pool",
          "type": "address"
        }
      ],
      "stateMutability": "payable",
      "type": "function"
    },
    {
      "inputs": [
        {
          "components": [
            {
              "internalType": "uint256",
              "name": "tokenId",
              "type": "uint256"
            },
            {
              "internalType": "uint128",
              "name": "liquidity",
              "type": "uint128"
            },
            {
              "internalType": "uint256",
              "name": "amount0Min",
              "type": "uint256"
            },
            {
              "internalType": "uint256",
              "name": "amount1Min",
              "type": "uint256"
            },
            {
              "internalType": "uint256",
              "name": "deadline",
              "type": "uint256"
            }
          ],
          "internalType": "struct INonfungiblePositionManager.DecreaseLiquidityParams",
          "name": "params",
          "type": "tuple"
        }
      ],
      "name": "decreaseLiquidity",
      "outputs": [
        {
          "internalType": "uint256",
          "name": "amount0",
          "type": "uint256"
        },
        {
          "internalType": "uint256",
          "name": "amount1",
          "type": "uint256"
        }
      ],
      "stateMutability": "payable",
      "type": "function"
    },
    {
      "inputs": [],
      "name": "factory",
      "outputs": [
        {
          "internalType": "address",
          "name": "",
          "type": "address"
        }
      ],
      "stateMutability": "view",
      "type": "function"
    },
    {
      "inputs": [
        {
          "internalType": "uint256",
          "name": "tokenId",
          "type": "uint256"
        }
      ],
      "name": "getApproved",
      "outputs": [
        {
          "internalType": "address",
          "name": "",
          "type": "address"
        }
      ],
      "stateMutability": "view",
      "type": "function"
    },
    {
      "inputs": [
        {
          "components": [
            {
              "internalType": "uint256",
              "name": "tokenId",
              "type": "uint256"
            },
            {
              "internalType": "uint256",
              "name": "amount0Desired",
              "type": "uint256"
            },
            {
              "internalType": "uint256",
              "name": "amount1Desired",
              "type": "uint256"
            },
            {
              "internalType": "uint256",
              "name": "amount0Min",
              "type": "uint256"
            },
            {
              "internalType": "uint256",
              "name": "amount1Min",
              "type": "uint256"
            },
            {
              "internalType": "uint256",
              "name": "deadline",
              "type": "uint256"
            }
          ],
          "internalType": "struct INonfungiblePositionManager.IncreaseLiquidityParams",
          "name": "params",
          "type": "tuple"
        }
      ],
      "name": "increaseLiquidity",
      "outputs": [
        {
          "internalType": "uint128",
          "name": "liquidity",
          "type": "uint128"
        },
        {
          "internalType": "uint256",
          "name": "amount0",
          "type": "uint256"
        },
        {
          "internalType": "uint256",
          "name": "amount1",
          "type": "uint256"
        }
      ],
      "stateMutability": "payable",
      "type": "function"
    },
    {
      "inputs": [
        {
          "internalType": "address",
          "name": "owner",
          "type": "address"
        },
        {
          "internalType": "address",
          "name": "operator",
          "type": "address"
        }
      ],
      "name": "isApprovedForAll",
      "outputs": [
        {
          "internalType": "bool",
          "name": "",
          "type": "bool"
        }
      ],
      "stateMutability": "view",
      "type": "function"
    },
    {
      "inputs": [
        {
          "internalType": "uint256",
          "name": "",
          "type": "uint256"
        }
      ],
      "name": "lockedUntil",
      "outputs": [
        {
          "internalType": "uint256",
          "name": "",
          "type": "uint256"
        }
      ],
      "stateMutability": "view",
      "type": "function"
    },
    {
      "inputs": [
        {
          "components": [
            {
              "internalType": "address",
              "name": "token0",
              "type": "address"
            },
            {
              "internalType": "address",
              "name": "token1",
              "type": "address"
            },
            {
              "internalType": "uint24",
              "name": "fee",
              "type": "uint24"
            },
            {
              "internalType": "int24",
              "name": "tickLower",
              "type": "int24"
            },
            {
              "internalType": "int24",
              "name": "tickUpper",
              "type": "int24"
            },
            {
              "internalType": "uint256",
              "name": "amount0Desired",
              "type": "uint256"
            },
            {
              "internalType": "uint256",
              "name": "amount1Desired",
              "type": "uint256"
            },
            {
              "internalType": "uint256",
              "name": "amount0Min",
              "type": "uint256"
            },
            {
              "internalType": "uint256",
              "name": "amount1Min",
              "type": "uint256"
            },
            {
              "internalType": "address",
              "name": "recipient",
              "type": "address"
            },
            {
              "internalType": "uint256",
              "name": "deadline",
              "type": "uint256"
            }
          ],
          "internalType": "struct INonfungiblePositionManager.MintParams",
          "name": "params",
          "type": "tuple"
        }
      ],
      "name": "mint",
      "outputs": [
        {
          "internalType": "uint256",
          "name": "tokenId",
          "type": "uint256"
        },
        {
          "internalType": "uint128",
          "name": "liquidity",
          "type": "uint128"
        },
        {
          "internalType": "uint256",
          "name": "amount0",
          "type": "uint256"
        },
        {
          "internalType": "uint256",
          "name": "amount1",
          "type": "uint256"
        }
      ],
      "stateMutability": "payable",
      "type": "function"
    },
    {
      "inputs": [
        {
          "internalType": "bytes[]",
          "name": "data",
          "type": "bytes[]"
        }
      ],
      "name": "multicall",
      "outputs": [
        {
          "internalType": "bytes[]",
          "name": "results",
          "type": "bytes[]"
        }
      ],
      "stateMutability": "payable",
      "type": "function"
    },
    {
      "inputs": [],
      "name": "name",
      "outputs": [
        {
          "internalType": "string",
          "name": "",
          "type": "string"
        }
      ],
      "stateMutability": "view",
      "type": "function"
    },
    {
      "inputs": [
        {
          "internalType": "uint256",
          "name": "tokenId",
          "type": "uint256"
        }
      ],
      "name": "ownerOf",
      "outputs": [
        {
          "internalType": "address",
          "name": "",
          "type": "address"
        }
      ],
      "stateMutability": "view",
      "type": "function"
    },
    {
      "inputs": [
        {
          "internalType": "address",
          "name": "spender",
          "type": "address"
        },
        {
          "internalType": "uint256",
          "name": "tokenId",
          "type": "uint256"
        },
        {
          "internalType": "uint256",
          "name": "deadline",
          "type": "uint256"
        },
        {
          "internalType": "uint8",
          "name": "v",
          "type": "uint8"
        },
        {
          "internalType": "bytes32",
          "name": "r",
          "type": "bytes32"
        },
        {
          "internalType": "bytes32",
          "name": "s",
          "type": "bytes32"
        }
      ],
      "name": "permit",
      "outputs": [],
      "stateMutability": "payable",
      "type": "function"
    },
    {
      "inputs": [
        {
          "internalType": "uint256",
          "name": "tokenId",
          "type": "uint256"
        }
      ],
      "name": "positions",
      "outputs": [
        {
          "internalType": "uint96",
          "name": "nonce",
          "type": "uint96"
        },
        {
          "internalType": "address",
          "name": "operator",
          "type": "address"
        },
        {
          "internalType": "address",
          "name": "token0",
          "type": "address"
        },
        {
          "internalType": "address",
          "name": "token1",
          "type": "address"
        },
        {
          "internalType": "uint24",
          "name": "fee",
          "type": "uint24"
        },
        {
          "internalType": "int24",
          "name": "tickLower",
          "type": "int24"
        },
        {
          "internalType": "int24",
          "name": "tickUpper",
          "type": "int24"
        },
        {
          "internalType": "uint128",
          "name": "liquidity",
          "type": "uint128"
        },
        {
          "internalType": "uint256",
          "name": "feeGrowthInside0LastX128",
          "type": "uint256"
        },
        {
          "internalType": "uint256",
          "name": "feeGrowthInside1LastX128",
          "type": "uint256"
        },
        {
          "internalType": "uint128",
          "name": "tokensOwed0",
          "type": "uint128"
        },
        {
          "internalType": "uint128",
          "name": "tokensOwed1",
          "type": "uint128"
        }
      ],
      "stateMutability": "view",
      "type": "function"
    },
    {
      "inputs": [],
      "name": "refundETH",
      "outputs": [],
      "stateMutability": "payable",
      "type": "function"
    },
    {
      "inputs": [
        {
          "internalType": "address",
          "name": "receiver",
          "type": "address"
        }
      ],
      "name": "refundETH",
      "outputs": [],
      "stateMutability": "payable",
      "type": "function"
    },
    {
      "inputs": [
        {
          "internalType": "address",
          "name": "from",
          "type": "address"
        },
        {
          "internalType": "address",
          "name": "to",
          "type": "address"
        },
        {
          "internalType": "uint256",
          "name": "tokenId",
          "type": "uint256"
        }
      ],
      "name": "safeTransferFrom",
      "outputs": [],
      "stateMutability": "nonpayable",
      "type": "function"
    },
    {
      "inputs": [
        {
          "internalType": "address",
          "name": "from",
          "type": "address"
        },
        {
          "internalType": "address",
          "name": "to",
          "type": "address"
        },
        {
          "internalType": "uint256",
          "name": "tokenId",
          "type": "uint256"
        },
        {
          "internalType": "bytes",
          "name": "_data",
          "type": "bytes"
        }
      ],
      "name": "safeTransferFrom",
      "outputs": [],
      "stateMutability": "nonpayable",
      "type": "function"
    },
    {
      "inputs": [
        {
          "internalType": "address",
          "name": "token",
          "type": "address"
        },
        {
          "internalType": "uint256",
          "name": "value",
          "type": "uint256"
        },
        {
          "internalType": "uint256",
          "name": "deadline",
          "type": "uint256"
        },
        {
          "internalType": "uint8",
          "name": "v",
          "type": "uint8"
        },
        {
          "internalType": "bytes32",
          "name": "r",
          "type": "bytes32"
        },
        {
          "internalType": "bytes32",
          "name": "s",
          "type": "bytes32"
        }
      ],
      "name": "selfPermit",
      "outputs": [],
      "stateMutability": "payable",
      "type": "function"
    },
    {
      "inputs": [
        {
          "internalType": "address",
          "name": "token",
          "type": "address"
        },
        {
          "internalType": "uint256",
          "name": "nonce",
          "type": "uint256"
        },
        {
          "internalType": "uint256",
          "name": "expiry",
          "type": "uint256"
        },
        {
          "internalType": "uint8",
          "name": "v",
          "type": "uint8"
        },
        {
          "internalType": "bytes32",
          "name": "r",
          "type": "bytes32"
        },
        {
          "internalType": "bytes32",
          "name": "s",
          "type": "bytes32"
        }
      ],
      "name": "selfPermitAllowed",
      "outputs": [],
      "stateMutability": "payable",
      "type": "function"
    },
    {
      "inputs": [
        {
          "internalType": "address",
          "name": "token",
          "type": "address"
        },
        {
          "internalType": "uint256",
          "name": "nonce",
          "type": "uint256"
        },
        {
          "internalType": "uint256",
          "name": "expiry",
          "type": "uint256"
        },
        {
          "internalType": "uint8",
          "name": "v",
          "type": "uint8"
        },
        {
          "internalType": "bytes32",
          "name": "r",
          "type": "bytes32"
        },
        {
          "internalType": "bytes32",
          "name": "s",
          "type": "bytes32"
        }
      ],
      "name": "selfPermitAllowedIfNecessary",
      "outputs": [],
      "stateMutability": "payable",
      "type": "function"
    },
    {
      "inputs": [
        {
          "internalType": "address",
          "name": "token",
          "type": "address"
        },
        {
          "internalType": "uint256",
          "name": "value",
          "type": "uint256"
        },
        {
          "internalType": "uint256",
          "name": "deadline",
          "type": "uint256"
        },
        {
          "internalType": "uint8",
          "name": "v",
          "type": "uint8"
        },
        {
          "internalType": "bytes32",
          "name": "r",
          "type": "bytes32"
        },
        {
          "internalType": "bytes32",
          "name": "s",
          "type": "bytes32"
        }
      ],
      "name": "selfPermitIfNecessary",
      "outputs": [],
      "stateMutability": "payable",
      "type": "function"
    },
    {
      "inputs": [
        {
          "internalType": "address",
          "name": "operator",
          "type": "address"
        },
        {
          "internalType": "bool",
          "name": "approved",
          "type": "bool"
        }
      ],
      "name": "setApprovalForAll",
      "outputs": [],
      "stateMutability": "nonpayable",
      "type": "function"
    },
    {
      "inputs": [
        {
          "internalType": "uint256",
          "name": "tokenId",
          "type": "uint256"
        },
        {
          "internalType": "uint256",
          "name": "timestamp",
          "type": "uint256"
        }
      ],
      "name": "setLockedUntil",
      "outputs": [],
      "stateMutability": "nonpayable",
      "type": "function"
    },
    {
      "inputs": [
        {
          "internalType": "bytes4",
          "name": "interfaceId",
          "type": "bytes4"
        }
      ],
      "name": "supportsInterface",
      "outputs": [
        {
          "internalType": "bool",
          "name": "",
          "type": "bool"
        }
      ],
      "stateMutability": "view",
      "type": "function"
    },
    {
      "inputs": [
        {
          "internalType": "address",
          "name": "token",
          "type": "address"
        },
        {
          "internalType": "uint256",
          "name": "amountMinimum",
          "type": "uint256"
        },
        {
          "internalType": "address",
          "name": "recipient",
          "type": "address"
        }
      ],
      "name": "sweepToken",
      "outputs": [],
      "stateMutability": "payable",
      "type": "function"
    },
    {
      "inputs": [],
      "name": "symbol",
      "outputs": [
        {
          "internalType": "string",
          "name": "",
          "type": "string"
        }
      ],
      "stateMutability": "view",
      "type": "function"
    },
    {
      "inputs": [
        {
          "internalType": "uint256",
          "name": "index",
          "type": "uint256"
        }
      ],
      "name": "tokenByIndex",
      "outputs": [
        {
          "internalType": "uint256",
          "name": "",
          "type": "uint256"
        }
      ],
      "stateMutability": "view",
      "type": "function"
    },
    {
      "inputs": [
        {
          "internalType": "address",
          "name": "owner",
          "type": "address"
        },
        {
          "internalType": "uint256",
          "name": "index",
          "type": "uint256"
        }
      ],
      "name": "tokenOfOwnerByIndex",
      "outputs": [
        {
          "internalType": "uint256",
          "name": "",
          "type": "uint256"
        }
      ],
      "stateMutability": "view",
      "type": "function"
    },
    {
      "inputs": [
        {
          "internalType": "uint256",
          "name": "tokenId",
          "type": "uint256"
        }
      ],
      "name": "tokenURI",
      "outputs": [
        {
          "internalType": "string",
          "name": "",
          "type": "string"
        }
      ],
      "stateMutability": "view",
      "type": "function"
    },
    {
      "inputs": [],
      "name": "totalSupply",
      "outputs": [
        {
          "internalType": "uint256",
          "name": "",
          "type": "uint256"
        }
      ],
      "stateMutability": "view",
      "type": "function"
    },
    {
      "inputs": [
        {
          "internalType": "address",
          "name": "from",
          "type": "address"
        },
        {
          "internalType": "address",
          "name": "to",
          "type": "address"
        },
        {
          "internalType": "uint256",
          "name": "tokenId",
          "type": "uint256"
        }
      ],
      "name": "transferFrom",
      "outputs": [],
      "stateMutability": "nonpayable",
      "type": "function"
    },
    {
      "inputs": [
        {
          "internalType": "uint256",
          "name": "amount0Owed",
          "type": "uint256"
        },
        {
          "internalType": "uint256",
          "name": "amount1Owed",
          "type": "uint256"
        },
        {
          "internalType": "bytes",
          "name": "data",
          "type": "bytes"
        }
      ],
      "name": "uniswapV3MintCallback",
      "outputs": [],
      "stateMutability": "nonpayable",
      "type": "function"
    },
    {
      "inputs": [
        {
          "internalType": "uint256",
          "name": "amountMinimum",
          "type": "uint256"
        },
        {
          "internalType": "address",
          "name": "recipient",
          "type": "address"
        }
      ],
      "name": "unwrapWETH9",
      "outputs": [],
      "stateMutability": "payable",
      "type": "function"
    },
    {
      "stateMutability": "payable",
      "type": "receive"
    }
  ],
  "transactionHash": "0x46109fe3713d17519628e9711aaa4b5a1b41be5a87d010a51b260d7fb2a4e1b9",
  "args": [
    "0x8206Bf754a12205C52A98d39634393F51F38718f",
    "0xB4FBF271143F4FBf7B91A5ded31805e42b2208d6",
    "0xC8Cbdc9F1d545AC5d61a7f444aAAA94c46392CC3"
  ],
  "numDeployments": 4,
  "solcInputHash": "5dfcd4ac2fc2bd94370efe37600b69e0",
  "bytecode": "0x610120346200042057601f1990601f6001600160401b0362005cdb38819003838101861685019190838311868410176200040a578086926060946040528339810103126200042057620000528362000445565b916020916200007160406200006985880162000445565b960162000445565b956200007c62000425565b906011825284820192704e46545820563320506f736974696f6e7360781b8452620000a662000425565b94600b86526a4e4654582d56332d504f5360a81b87870152620000c862000425565b9560019384885288880198603160f81b8a528651918583116200040a5760009283548881811c91168015620003ff575b84821014620003eb57868111620003a3575b5080838782116001146200034057859162000334575b50600019600383901b1c191690881b1783555b8351958611620003205786548781811c9116801562000315575b83821014620003015790818688979695949311620002a6575b5081948611600114620002425750509262000236575b5050600019600383901b1c191690821b1790555b51902060805251902060a05260c05260e052760100000000000000000000000000000000000000000001600d5561010090815260405161588091826200045b833960805182614540015260a05182614566015260c05182818161082c01528181610c370152818161209a015281816126f40152818161481201526149bc015260e05182818161150001528181611626015281816150a201526151d2015251816127980152f35b0151905038806200017c565b8783528183208897909594939116915b8282106200028c575050841162000272575b505050811b01905562000190565b015160001960f88460031b161c1916905538808062000264565b848401518655889790950194938401939081019062000252565b909192939495508784528284208680890160051c820192858a10620002f7575b9189988b929897969594930160051c01915b828110620002e857505062000166565b8581558998508a9101620002d8565b92508192620002c6565b634e487b7160e01b84526022600452602484fd5b90607f16906200014d565b634e487b7160e01b83526041600452602483fd5b90508901513862000120565b838a931690868052858720918c8789915b8383106200038b57505050831162000371575b5050811b01835562000133565b8b015160001960f88460031b161c19169055388062000364565b84015185558d96909401939283019201878e62000351565b8480528385208780840160051c820192868510620003e1575b0160051c019089905b828110620003d55750506200010a565b868155018990620003c5565b92508192620003bc565b634e487b7160e01b85526022600452602485fd5b90607f1690620000f8565b634e487b7160e01b600052604160045260246000fd5b600080fd5b60408051919082016001600160401b038111838210176200040a57604052565b51906001600160a01b0382168203620004205756fe60806040526004361015610023575b361561001957600080fd5b610021615098565b005b60003560e01c806301ffc9a71461035757806306fdde031461034e578063081812fc14610345578063095ea7b31461033c5780630c49ccbe1461033357806312210e8a1461032a57806313ead5621461032157806318160ddd146103185780631cf6e5b41461030f578063219f5d171461030657806323b872dd146102fd5780632f745c59146102f457806330adf81f146102eb5780633644e515146102e257806342842e0e146102d957806342966c68146102d05780634659a494146102c757806349404b7c146102be5780634aa4a4fc146102b55780634f6ccce7146102ac5780636352211e146102a35780636c0360eb1461029a57806370a08231146102915780637ac2ff7b146102885780637cd78b021461027f578063883164561461027657806395d89b411461026d57806399fbab88146102645780639aebe5ad1461025b578063a22cb46514610252578063a4a78f0c14610249578063ac9650d814610240578063b88d4fde14610237578063c2e3140a1461022e578063c45a015514610225578063c87b56dd1461021c578063d348799714610213578063df2ab5bb1461020a578063e985e9c514610201578063f3995c67146101f85763fc6f78650361000e576101f361298a565b61000e565b506101f3612971565b506101f3612906565b506101f361285f565b506101f3612805565b506101f3612718565b506101f36126d3565b506101f361264a565b506101f36125b8565b506101f361236d565b506101f3612281565b506101f3612190565b506101f3612048565b506101f3611eee565b506101f3611d8a565b506101f3611a5f565b506101f3611a32565b506101f36117b8565b506101f3611790565b506101f3611725565b506101f3611706565b506101f361164a565b506101f3611605565b506101f36114ca565b506101f36114b1565b506101f361137f565b506101f3611356565b506101f3611332565b506101f36112f6565b506101f3611223565b506101f36111f9565b506101f3610f1d565b506101f3610ef2565b506101f3610ed3565b506101f3610b82565b506101f3610b57565b506101f361073c565b506101f361062a565b506101f36105e9565b506101f36104de565b506101f3610377565b6001600160e01b031981160361037257565b600080fd5b50346103725760203660031901126103725760206001600160e01b03196004356103a081610360565b167f780e9d630000000000000000000000000000000000000000000000000000000081149081156103d7575b506040519015158152f35b7f80ac58cd0000000000000000000000000000000000000000000000000000000081149150811561043b575b8115610411575b50386103cc565b7f01ffc9a7000000000000000000000000000000000000000000000000000000009150143861040a565b7f5b5e139f0000000000000000000000000000000000000000000000000000000081149150610403565b600091031261037257565b918091926000905b828210610490575011610489575050565b6000910152565b91508060209183015181860152018291610478565b906020916104be81518092818552858086019101610470565b601f01601f1916010190565b9060206104db9281815201906104a5565b90565b5034610372576000806003193601126105e657604051908080549060019180831c928082169283156105dc575b60209283861085146105c85785885260208801949081156105a7575060011461054f575b61054b8761053f8189038261251d565b604051918291826104ca565b0390f35b6000805294509192917f290decd9548b62a8d60345a988386fc84ba6bc95484008f6362f93160ef3e5635b838610610596575050509101905061053f8261054b388061052f565b80548587015294820194810161057a565b60ff191685525050505090151560051b01905061053f8261054b388061052f565b602482634e487b7160e01b81526022600452fd5b93607f169361050b565b80fd5b50346103725760203660031901126103725760206106086004356143b1565b6001600160a01b0360405191168152f35b6001600160a01b0381160361037257565b50346103725760403660031901126103725760043561064881610619565b60243561065481612e9d565b916001600160a01b0380841680918316146106d25761002193610681913314908115610686575b50612f27565b61449f565b6106cc91506106c5906106ad33916001600160a01b03166000526005602052604060002090565b906001600160a01b0316600052602052604060002090565b5460ff1690565b3861067b565b608460405162461bcd60e51b815260206004820152602160248201527f4552433732313a20617070726f76616c20746f2063757272656e74206f776e6560448201527f72000000000000000000000000000000000000000000000000000000000000006064820152fd5b5060a03660031901126103725760043561075e610759823361309f565b61414a565b61076c6084354211156139de565b6001600160801b0361078881610780614195565b161515613f62565b6107a761079f83600052600e602052604060002090565b544211613f62565b6108af6107be83600052600c602052604060002090565b60018101938454918260801c906107ed6107e56107d9614195565b6001600160801b031690565b831015613f62565b61085c61085061085061082a61082569ffffffffffffffffffff891669ffffffffffffffffffff16600052600b602052604060002090565b613986565b7f0000000000000000000000000000000000000000000000000000000000000000615564565b6001600160a01b031690565b95610865614195565b6040805163a34123a760e01b8152605088901c600290810b600483015260689890981c90970b60248801526001600160801b03909116604487015294958590879081906064820190565b038160008b5af1968715610b4a575b6000968798610af7575b50928798926109e49261092e60a0610a1c976108f58c9d61054b9d60443511159081610aea575b506141cf565b61090e88548060681c60020b9060501c60020b3061560b565b908b51808095819463514ea4bf60e01b8352600483019190602083019252565b03915afa928315610add575b8c8c866000948597610a7f575b506109da610a0c93600361097e87958a6109776107d96109e49861097260028f9e019d8e549061323a565b613fe4565b9116613fc8565b946109c56109a0600483019761099b89546001600160801b031690565b613fc8565b87906001600160801b03166fffffffffffffffffffffffffffffffff19825416179055565b01976109776107d98c6109728d8d549061323a565b825460801c613fc8565b6001600160801b036fffffffffffffffffffffffffffffffff1983549260801b169116179055565b5555610a16614195565b9061421a565b7f26f6a048ee9138f2c0ce266f322cb99228e8d619ae2bff30c67f8dcf9d2377b484610a46614195565b84516001600160801b03919091168152602081019190915260408101879052606090a25191825260208201929092529081906040820190565b6109e49197506107d99550610a0c93600361097e61097797958a610abc6109da9660a03d8111610ad6575b610ab4818361251d565b810190613aa7565b50509b91509b8c9b9e985050505095975050509350610947565b503d610aaa565b610ae5613418565b61093a565b905060643511158f6108ef565b610a1c9491985061054b9750926109e49261092e60a0610b306108f59d978b3d8d11610b43575b610b28818361251d565b8101906141b9565b9c909d50949750505092509298966108c8565b503d610b1e565b610b52613418565b6108be565b5060003660031901126103725747610b6b57005b6100214733615803565b62ffffff81160361037257565b5060803660031901126103725760048035610b9c81610619565b602435610ba881610619565b60443592610bb584610b75565b60643593610bc285610619565b6001600160a01b03906000610bdc85841687851610613f62565b604080517f1698ee820000000000000000000000000000000000000000000000000000000081526001600160a01b03808916878301908152908816602082015262ffffff8516818401529097919691908890606001039288867f0000000000000000000000000000000000000000000000000000000000000000169460209a8b9181885afa918215610ec6575b91610ea9575b5080861680610db557505086517fa16712950000000000000000000000000000000000000000000000000000000081526001600160a01b0391821687820190815291909216602082015262ffffff909316604084015291869183918290600090829060600103925af1948515610da8575b600095610d79575b5050831690813b156103725761054b94610d299260009283865180968195829463f637731d60e01b845283019190916001600160a01b036020820193169052565b03925af18015610d6c575b610d53575b505b516001600160a01b0390911681529081906020820190565b80610d60610d669261248c565b80610465565b38610d39565b610d74613418565b610d34565b610d99929550803d10610da1575b610d91818361251d565b81019061439c565b923880610ce8565b503d610d87565b610db0613418565b610ce0565b9695945097505050508351633850c7bd60e01b815260e0818481875afa908115610e9c575b600091610e68575b501615610df6575b505061054b9250610d3b565b813b156103725761054b94610e329260009283865180968195829463f637731d60e01b845283019190916001600160a01b036020820193169052565b03925af18015610e5b575b610e48575b80610dea565b80610d60610e559261248c565b38610e42565b610e63613418565b610e3d565b610e89915060e03d8111610e95575b610e81818361251d565b8101906148af565b50505050505038610de2565b503d610e77565b610ea4613418565b610dda565b610ec09150893d8b11610da157610d91818361251d565b38610c6f565b610ece613418565b610c69565b5034610372576000366003190112610372576020600854604051908152f35b50602036600319011261037257600435610f0b81610619565b47610f1257005b610021904790615803565b5060c036600319011261037257610f3860a4354211156139de565b600435610f4f81600052600c602052604060002090565b9061054b611130600184019261104d8454611026610f9261082569ffffffffffffffffffff841669ffffffffffffffffffff16600052600b602052604060002090565b91611006610fa784516001600160a01b031690565b93610ffa610fcf6040610fc460208501516001600160a01b031690565b93015162ffffff1690565b91610fea610fdb61253f565b6001600160a01b039098168852565b6001600160a01b03166020870152565b62ffffff166040850152565b306060840152605081901c60020b608084015260681c60020b60a0830152565b60243560c082015260443560e0820152606435610100820152608435610120820152614959565b9094929691976001600160a01b0360a061109b85549461107a8660681c60020b8760501c60020b3061560b565b60405194858094819363514ea4bf60e01b8352600483019190602083019252565b0392165afa9283156111c0575b6000918294611199575b5061111f60036110d86107d960028701946110ce86548861323a565b9060801c90613fe4565b946110f56109a0600483019761099b89546001600160801b031690565b01936109e46109da6107d961110b88548a61323a565b6111196107d98c5460801c90565b90613fe4565b55556109e48661099b835460801c90565b604080516001600160801b0386168152602081018790529081018390527f3067048beee31b25b2f1681f88dac838c8bba36af25bfb2b7cf7473a5847e35f90606090a2604051938493846040919493926001600160801b03606083019616825260208201520152565b9093506111b4915060a03d8111610ad657610ab4818361251d565b505091509092386110b2565b6111c8613418565b6110a8565b6060906003190112610372576004356111e581610619565b906024356111f281610619565b9060443590565b50346103725761002161120b366111cd565b9161121e611219843361309f565b612f98565b61326d565b50346103725760403660031901126103725760043561124181610619565b6024359061124e81612e13565b82101561128c576001600160a01b0316600052600660205260406000209060005260205261054b604060002054604051918291829190602083019252565b608460405162461bcd60e51b815260206004820152602b60248201527f455243373231456e756d657261626c653a206f776e657220696e646578206f7560448201527f74206f6620626f756e64730000000000000000000000000000000000000000006064820152fd5b50346103725760003660031901126103725760206040517f49ecf333e5b8c95c40fdafc95c1ad136e8914a8fb55e9dc8bb01eaa83a2df9ad8152f35b503461037257600036600319011261037257602061134e614513565b604051908152f35b503461037257610021611368366111cd565b9060405192611376846124e5565b60008452613009565b5060203660031901126103725760043561139c610759823361309f565b80600052600c6020526040600020600181015460801c159081611458575b81611448575b501561140457806113ff6113e161002193600052600c602052604060002090565b60046000918281558260018201558260028201558260038201550155565b61424b565b606460405162461bcd60e51b815260206004820152600b60248201527f4e6f7420636c65617265640000000000000000000000000000000000000000006044820152fd5b60049150015460801c15386113c0565b60048101546001600160801b03161591506113ba565b60ff81160361037257565b60c09060031901126103725760043561149181610619565b9060243590604435906064356114a68161146e565b906084359060a43590565b506100216114be36611479565b949390939291926153b8565b506040366003190112610372576024356114e381610619565b6040516370a0823160e01b81523060048201526001600160a01b037f00000000000000000000000000000000000000000000000000000000000000001691602082602481865afa9182156115f8575b6000926115c8575b5061154960043583101561511d565b8161155057005b823b15610372576040517f2e1a7d4d00000000000000000000000000000000000000000000000000000000815260048101839052610021936000908290602490829084905af180156115bb575b6115a8575b50615803565b80610d606115b59261248c565b386115a2565b6115c3613418565b61159d565b6115ea91925060203d81116115f1575b6115e2818361251d565b81019061510e565b903861153a565b503d6115d8565b611600613418565b611532565b50346103725760003660031901126103725760206040516001600160a01b037f0000000000000000000000000000000000000000000000000000000000000000168152f35b50346103725760203660031901126103725760043560085481101561169c5760086000527ff3f7a9fe364faab93b216da50a3214154f22a0a2b415b23a84c8169e8b636ee30154604051908152602090f35b608460405162461bcd60e51b815260206004820152602c60248201527f455243373231456e756d657261626c653a20676c6f62616c20696e646578206f60448201527f7574206f6620626f756e647300000000000000000000000000000000000000006064820152fd5b5034610372576020366003190112610372576020610608600435612e9d565b50346103725760003660031901126103725760408051908160208082526060519081818401526000905b8282106117795750811061176c575b601f01601f19168101030190f35b600083828401015261175e565b60808201518683018601528593509081019061174f565b503461037257602036600319011261037257602061134e6004356117b381610619565b612e13565b50600061184f61199b6117ca36611479565b9091836117dc869796954211156145c8565b6117e4614513565b6118a66118b2886117f489614731565b60409d8e5196879260209c8d85019586909493926080926001600160a01b0360a08401977f49ecf333e5b8c95c40fdafc95c1ad136e8914a8fb55e9dc8bb01eaa83a2df9ad8552166020840152604083015260608201520152565b0394611863601f199687810183528261251d565b5190208c519283918a8301958690916042927f19010000000000000000000000000000000000000000000000000000000000008352600283015260228201520190565b0384810183528261251d565b519020936118bf88612e9d565b928a6001600160a01b03808616956118db87838d161415614613565b3b15158e146119d8575051808801928352602083019590955260f81b7fff00000000000000000000000000000000000000000000000000000000000000166040820152610681956001600160e01b031994909361197f93859361194a919084906041010390810184528361251d565b8b5180809581947f1626ba7e000000000000000000000000000000000000000000000000000000009a8b84526004840161471a565b03915afa9182156119cb575b8a9261199e575b505016146146cf565b51f35b6119bd9250803d106119c4575b6119b5818361251d565b8101906133d4565b3880611992565b503d6119ab565b6119d3613418565b61198b565b905196875260ff9190911660208701526040860191909152606085019390935250888052610681939092899060809060015afa15611a25575b875116611a1f811515614684565b146146cf565b611a2d613418565b611a11565b503461037257602036600319011261037257600435600052600e6020526020604060002054604051908152f35b5061016036600319011261037257611a7c610144354211156139de565b611a84613a29565b600061054b611a91613a35565b611b0b611a9c613a4e565b91611b01611aa8613a65565b611ade611ab3613a71565b93611ace611abf61253f565b6001600160a01b03909b168b52565b6001600160a01b031660208a0152565b611af1604095868a019062ffffff169052565b30606089015260020b6080880152565b60020b60a0860152565b60a43560c085015260c43560e0850152826101009160e43583870152611cde81611b3f61012098610104358a820152614959565b99929a91969097611b4e613a41565b9a611bab6001600160b01b03611b6c600d546001600160b01b031690565b611ba3611b7882613a7d565b6001600160b01b031675ffffffffffffffffffffffffffffffffffffffffffff19600d541617600d55565b16809d613cbb565b8c611bf460a06001600160a01b03611bd3611bc4613a65565b611bcc613a71565b903061560b565b94169389518093819263514ea4bf60e01b8352600483019190602083019252565b0381865afa918215611d7d575b85918293611d4c575b50611ca5611c55611cb5939495611c1f613a29565b90611c508d611c2c613a35565b90611c44611c38613a4e565b92610fea610fdb612560565b84019062ffffff169052565b613ded565b611c9b611c60613a65565b611c91611c6b613a71565b93611c7461253f565b9e8f8d81528d6020820152019069ffffffffffffffffffff169052565b60020b60608d0152565b60020b60808b0152565b6001600160801b031660a0890152565b60c087015260e0860152840152820152611cd987600052600c602052604060002090565b613ae6565b80516001600160801b0387168152602081018390526040810184905285907f3067048beee31b25b2f1681f88dac838c8bba36af25bfb2b7cf7473a5847e35f90606090a25194859485909493926001600160801b036060936080840197845216602083015260408201520152565b611c559350611cb59250611d70611ca59160a03d8111610ad657610ab4818361251d565b5050959150935050611c0a565b611d85613418565b611c01565b5034610372576000806003193601126105e6576040519080600190815480831c92808216928315611e42575b60209283861085146105c85785885260208801949081156105a75750600114611de95761054b8761053f8189038261251d565b600160005294509192917fb10e2d527612073b26eecdfd717e6a320cf44b4afac2b0732d9fcbe2b7fa0cf65b838610611e31575050509101905061053f8261054b388061052f565b805485870152948201948101611e15565b93607f1693611db6565b99979593909c9b9a98969492916101808b019d6bffffffffffffffffffffffff168b526001600160a01b03928380921660208d01521660408b015216606089015262ffffff16608088015260020b60a087015260c08601611eae9160020b9052565b6001600160801b031660e08501526101008401526101208301526001600160801b031661014082015261016001611eec916001600160801b03169052565b565b503461037257602036600319011261037257611f1e611f19600435600052600c602052604060002090565b6138a1565b611f81610825611f6560408401611f5569ffffffffffffffffffff611f4d835169ffffffffffffffffffff1690565b16151561393b565b5169ffffffffffffffffffff1690565b69ffffffffffffffffffff16600052600b602052604060002090565b61054b611f9a83516bffffffffffffffffffffffff1690565b91611faf60208501516001600160a01b031690565b93611fc182516001600160a01b031690565b91611fe66040611fdb60208401516001600160a01b031690565b92015162ffffff1690565b606083015160020b608084015160020b60a08501516001600160801b03169160c08601519360e08701519561203b61012061202c6101008b01516001600160801b031690565b9901516001600160801b031690565b986040519c8d9c8d611e4c565b5034610372576040366003190112610372576121166040517f0d43e8ad000000000000000000000000000000000000000000000000000000008152602080916001600160a01b039281818160048795867f0000000000000000000000000000000000000000000000000000000000000000165afa908115612179575b60009161215c575b506004604051809481937f1eae8f91000000000000000000000000000000000000000000000000000000008352165afa91821561214f575b600092612132575b5050163314613f62565b60243561212f600435600052600e602052604060002090565b55005b6121489250803d10610da157610d91818361251d565b388061210c565b612157613418565b612104565b6121739150823d8411610da157610d91818361251d565b386120cc565b612181613418565b6120c4565b8015150361037257565b5034610372576040366003190112610372576004356121ae81610619565b6024356121ba81612186565b6001600160a01b0382169182331461223d57816121fa61220b923360005260056020526040600020906001600160a01b0316600052602052604060002090565b9060ff801983541691151516179055565b604051901515815233907f17307eab39ab6107e8899845ad3d59bd9653f200f220920489ca2b5937696c3190602090a3005b606460405162461bcd60e51b815260206004820152601960248201527f4552433732313a20617070726f766520746f2063616c6c6572000000000000006044820152fd5b5061228b36611479565b604051636eb1769f60e11b81523360048201523060248201529094919391906020816044816001600160a01b038b165afa9081156122fe575b6000916122e0575b50600019116122d757005b610021956153b8565b6122f8915060203d81116115f1576115e2818361251d565b386122cc565b612306613418565b6122c4565b602080820190808352835180925260408301928160408460051b8301019501936000915b84831061233f5750505050505090565b909192939495848061235d600193603f198682030187528a516104a5565b980193019301919493929061232f565b506020366003190112610372576004803567ffffffffffffffff918282116103725736602383011215610372578181013592831161037257602490818301928236918660051b010111610372576123c384614fbe565b9360005b8181106123dc576040518061054b888261230b565b6000806123ea838589615018565b604093916123fc855180938193615068565b0390305af49061240a613425565b9182901561243957505090612434916124238289615076565b5261242e8188615076565b50615008565b6123c7565b8683879260448251106103725782612471938561245c9401518301019101613f69565b925192839262461bcd60e51b845283016104ca565b0390fd5b50634e487b7160e01b600052604160045260246000fd5b67ffffffffffffffff81116124a057604052565b6124a8612475565b604052565b6040810190811067ffffffffffffffff8211176124a057604052565b6060810190811067ffffffffffffffff8211176124a057604052565b6020810190811067ffffffffffffffff8211176124a057604052565b60a0810190811067ffffffffffffffff8211176124a057604052565b90601f8019910116810190811067ffffffffffffffff8211176124a057604052565b60405190610140820182811067ffffffffffffffff8211176124a057604052565b604051906060820182811067ffffffffffffffff8211176124a057604052565b60405190611eec826124ad565b60209067ffffffffffffffff81116125ab575b601f01601f19160190565b6125b3612475565b6125a0565b5034610372576080366003190112610372576004356125d681610619565b6024356125e281610619565b6064359167ffffffffffffffff831161037257366023840112156103725782600401359161260f8361258d565b9261261d604051948561251d565b80845236602482870101116103725760208160009260246100219801838801378501015260443591613009565b5061265436611479565b604051636eb1769f60e11b815233600482015230602482015290949193919081906020816044816001600160a01b038c165afa9081156126c6575b6000916126a8575b501061269f57005b6100219561531d565b6126c0915060203d81116115f1576115e2818361251d565b38612697565b6126ce613418565b61268f565b50346103725760003660031901126103725760206040516001600160a01b037f0000000000000000000000000000000000000000000000000000000000000000168152f35b50346103725760203660031901126103725760043561274d8160005260026020526001600160a01b0360406000205416151590565b156103725761054b90604051907fe9dc637500000000000000000000000000000000000000000000000000000000825230600483015260248201526000816044816001600160a01b037f0000000000000000000000000000000000000000000000000000000000000000165afa9081156127f8575b6000916127d7575b50604051918291826104ca565b6127f2913d8091833e6127ea818361251d565b810190613f69565b386127ca565b612800613418565b6127c2565b50346103725760603660031901126103725760443567ffffffffffffffff80821161037257366023830112156103725781600401359081116103725736602482840101116103725760246100219201602435600435614790565b5060603660031901126103725760043561287881610619565b60443561288481610619565b604051906370a0823160e01b82523060048301526020826024816001600160a01b0387165afa9182156128f9575b6000926128d9575b506128c9602435831015615168565b816128d057005b61002192615737565b6128f291925060203d81116115f1576115e2818361251d565b90386128ba565b612901613418565b6128b2565b503461037257604036600319011261037257602060ff61296560043561292b81610619565b6001600160a01b036024359161294083610619565b16600052600584526040600020906001600160a01b0316600052602052604060002090565b54166040519015158152f35b5061002161297e36611479565b9493909392919261531d565b506080366003190112610372576004356129a7610759823361309f565b6001600160801b0390816129b96141a1565b1615801590612dfb575b6129cc90613f62565b6001600160a01b03806129dd613a35565b16612ded5730905b836129fa84600052600c602052604060002090565b916001830194855494612a3861085061082a61082569ffffffffffffffffffff8a1669ffffffffffffffffffff16600052600b602052604060002090565b906004860197885498868a169960801c978a98809a8060801c612c74575b505050612b1397989950612a686141a1565b8988169088161115612c665788935b612a7f6141ad565b8b89169089161115612c57578a80935b54604080517f4f1eb3d80000000000000000000000000000000000000000000000000000000081526001600160a01b0388166004820152605083901c600290810b602483015260689390931c90920b60448301526001600160801b038089166064840152909216608482015299909788928b929091839160009190839060a4820190565b0393165af1988915612c4a575b600098899a612c0b575b5091612bbf61054b9a9b612bf193612b9b612b7285612b6c8b7f40d0efd1a53d60ecbf40971b9daf7dc90178c3aadc7aab1765632738fa8b8f019c9b9a61421a565b9461421a565b82546001600160801b031660809190911b6fffffffffffffffffffffffffffffffff1916178255565b906001600160801b03166fffffffffffffffffffffffffffffffff19825416179055565b8651938493849160409194936001600160a01b0360608501961684526001600160801b03809216602085015216910152565b0390a2519116815292909116602083015281906040820190565b85949395929a5085919950873d8911612c43575b612c29818361251d565b8101612c3491614232565b9990999a925090929394612b2a565b503d612c1f565b612c52613418565b612b20565b612c5f6141ad565b8093612a8f565b612c6e6141a1565b93612a77565b6040805163a34123a760e01b8152605083901c600290810b600483015260689390931c90920b602483015260006044830152929b50929950918588169181806064810103816000865af18015612de0575b612dc3575b50612d0b60a0845492612cea8460681c60020b8560501c60020b3061560b565b90604051808095819463514ea4bf60e01b8352600483019190602083019252565b03915afa928315612db6575b6000918294612d8f575b5060028c019c8d54612d33908461323a565b9360801c9384612d4291613fe4565b6001600160801b0316612d5491613fc8565b9b600301928354612d65908661323a565b90612d6f91613fe4565b6001600160801b0316612d8191613fc8565b9b5555889796388080612a56565b909350612daa915060a03d8111610ad657610ab4818361251d565b50509150909238612d21565b612dbe613418565b612d17565b612dda9060403d8111610b4357610b28818361251d565b50612cca565b612de8613418565b612cc5565b612df5613a35565b906129e5565b506129cc612e0a6107d96141ad565b151590506129c3565b6001600160a01b03168015612e3357600052600360205260406000205490565b608460405162461bcd60e51b815260206004820152602a60248201527f4552433732313a2062616c616e636520717565727920666f7220746865207a6560448201527f726f2061646472657373000000000000000000000000000000000000000000006064820152fd5b60005260026020526001600160a01b03604060002054168015612ebd5790565b608460405162461bcd60e51b815260206004820152602960248201527f4552433732313a206f776e657220717565727920666f72206e6f6e657869737460448201527f656e7420746f6b656e00000000000000000000000000000000000000000000006064820152fd5b15612f2e57565b608460405162461bcd60e51b815260206004820152603860248201527f4552433732313a20617070726f76652063616c6c6572206973206e6f74206f7760448201527f6e6572206e6f7220617070726f76656420666f7220616c6c00000000000000006064820152fd5b15612f9f57565b608460405162461bcd60e51b815260206004820152603160248201527f4552433732313a207472616e736665722063616c6c6572206973206e6f74206f60448201527f776e6572206e6f7220617070726f7665640000000000000000000000000000006064820152fd5b9061302d93929161301d611219843361309f565b61302883838361326d565b613455565b1561303457565b60405162461bcd60e51b815260206004820152603260248201527f4552433732313a207472616e7366657220746f206e6f6e20455243373231526560448201527f63656976657220696d706c656d656e74657200000000000000000000000000006064820152608490fd5b6130bf8260005260026020526001600160a01b0360406000205416151590565b1561313d576130cd82612e9d565b916001600160a01b039081831692828516841494851561310d575b505083156130f7575b50505090565b613103919293506143b1565b16143880806130f1565b60ff929550906106ad613133926001600160a01b03166000526005602052604060002090565b54169238806130e8565b608460405162461bcd60e51b815260206004820152602c60248201527f4552433732313a206f70657261746f7220717565727920666f72206e6f6e657860448201526b34b9ba32b73a103a37b5b2b760a11b6064820152fd5b1561319d57565b608460405162461bcd60e51b8152602060048201526024808201527f4552433732313a207472616e7366657220746f20746865207a65726f2061646460448201527f72657373000000000000000000000000000000000000000000000000000000006064820152fd5b50634e487b7160e01b600052601160045260246000fd5b6001811061322d575b6000190190565b613235613206565b613226565b818110613245570390565b61324d613206565b0390565b6001906001198111613261570190565b613269613206565b0190565b9061327783612e9d565b6001600160a01b03918291828516938491160361336a576132d0613341928216946132a3861515613196565b6132ae8784836135b5565b6132b787614443565b6001600160a01b03166000526003602052604060002090565b6132da815461321d565b90556132f9816001600160a01b03166000526003602052604060002090565b6133038154613251565b9055613319856000526002602052604060002090565b906001600160a01b031673ffffffffffffffffffffffffffffffffffffffff19825416179055565b7fddf252ad1be2c89b69c2b068fc378daa952ba7f163c4a11628f55a4df523b3ef6000604051a4565b608460405162461bcd60e51b815260206004820152602560248201527f4552433732313a207472616e736665722066726f6d20696e636f72726563742060448201527f6f776e65720000000000000000000000000000000000000000000000000000006064820152fd5b9081602091031261037257516104db81610360565b90926104db94936080936001600160a01b038092168452166020830152604082015281606082015201906104a5565b506040513d6000823e3d90fd5b3d15613450573d906134368261258d565b91613444604051938461251d565b82523d6000602084013e565b606090565b92909190823b1561356a576134a99260209260006001600160a01b036040518097819682957f150b7a02000000000000000000000000000000000000000000000000000000009b8c855233600486016133e9565b0393165af16000918161354a575b5061353c576134c4613425565b805190816135375760405162461bcd60e51b815260206004820152603260248201527f4552433732313a207472616e7366657220746f206e6f6e20455243373231526560448201527f63656976657220696d706c656d656e74657200000000000000000000000000006064820152608490fd5b602001fd5b6001600160e01b0319161490565b61356391925060203d81116119c4576119b5818361251d565b90386134b7565b50505050600190565b50634e487b7160e01b600052603260045260246000fd5b9061359481613713565b6001600160a01b0382166135ac57611eec915061378c565b611eec916136da565b9091906001600160a01b0380821691826135ef57506135d383613713565b8316806135e6575050611eec915061378c565b036135ac575050565b81851683036135ff575b506135d3565b61367261360b82612e13565b600181106136cd575b6000190161366360009387855260076020526040852054838103613679575b5084613649896000526007602052604060002090565b556001600160a01b03166000526006602052604060002090565b90600052602052604060002090565b55386135f9565b8786526006602052604086208487526020526136c66040872054806136b584613663876001600160a01b03166000526006602052604060002090565b556000526007602052604060002090565b5538613633565b6136d5613206565b613614565b6040906136e681612e13565b926001600160a01b0360009216825260066020528282208483526020528083832055815260076020522055565b600854816000526009602052806040600020556801000000000000000081101561377f575b6001810180600855811015613772575b60086000527ff3f7a9fe364faab93b216da50a3214154f22a0a2b415b23a84c8169e8b636ee30155565b61377a613573565b613748565b613787612475565b613738565b6008805460018110613894575b60009083825260096020528161383b60408220549560001996848881011015613887575b86845261382a7ff3f7a9fe364faab93b216da50a3214154f22a0a2b415b23a84c8169e8b636ee295868101549083101561387a575b88865280837ff3f7a9fe364faab93b216da50a3214154f22a0a2b415b23a84c8169e8b636ee301556000526009602052604060002090565b556000526009602052604060002090565b5582549384156138665784019380851015613859575b838352015555565b613861613573565b613851565b602483634e487b7160e01b81526031600452fd5b613882613573565b6137f2565b61388f613573565b6137bd565b61389c613206565b613799565b90611eec60046138af61253f565b84546bffffffffffffffffffffffff8116825260601c602082015293600181015469ffffffffffffffffffff8116604087015261390a90605081901c60020b6060880152606881901c60020b608088015260801c60a0870152565b600281015460c0860152600381015460e086015201546001600160801b03811661010085015260801c610120840152565b1561394257565b606460405162461bcd60e51b815260206004820152601060248201527f496e76616c696420746f6b656e204944000000000000000000000000000000006044820152fd5b906040516060810181811067ffffffffffffffff8211176139d1575b604052604062ffffff829460016001600160a01b03918281541686520154908116602085015260a01c16910152565b6139d9612475565b6139a2565b156139e557565b606460405162461bcd60e51b815260206004820152601360248201527f5472616e73616374696f6e20746f6f206f6c64000000000000000000000000006044820152fd5b6004356104db81610619565b6024356104db81610619565b610124356104db81610619565b6044356104db81610b75565b8060020b0361037257565b6064356104db81613a5a565b6084356104db81613a5a565b6001906001600160b01b03809116908114613261570190565b6001600160801b0381160361037257565b908160a0910312610372578051613abd81613a96565b9160208201519160408101519160806060830151613ada81613a96565b9201516104db81613a96565b906109e46101206004611eec94613b32613b0c86516bffffffffffffffffffffffff1690565b82546bffffffffffffffffffffffff19166bffffffffffffffffffffffff909116178255565b613b73613b4960208701516001600160a01b031690565b82546bffffffffffffffffffffffff1660609190911b6bffffffffffffffffffffffff1916178255565b613c5a60018201613bb6613b94604089015169ffffffffffffffffffff1690565b825469ffffffffffffffffffff191669ffffffffffffffffffff909116178255565b613bf4613bc7606089015160020b90565b829081549060501b6cffffff0000000000000000000016906cffffff000000000000000000001916179055565b613c47613c05608089015160020b90565b82907fffffffffffffffffffffffffffffffff000000ffffffffffffffffffffffffff82549160681b6fffffff00000000000000000000000000169116179055565b60a08701516001600160801b03166109e4565b60c0850151600282015560e085015160038201550192613cad613c886101008301516001600160801b031690565b85906001600160801b03166fffffffffffffffffffffffffffffffff19825416179055565b01516001600160801b031690565b6001600160a01b038116908115613da957613cec8360005260026020526001600160a01b0360406000205416151590565b613d655780613cfe84613d3b9361358a565b613d1b816001600160a01b03166000526003602052604060002090565b613d258154613251565b9055613319846000526002602052604060002090565b60007fddf252ad1be2c89b69c2b068fc378daa952ba7f163c4a11628f55a4df523b3ef81604051a4565b606460405162461bcd60e51b815260206004820152601c60248201527f4552433732313a20746f6b656e20616c7265616479206d696e746564000000006044820152fd5b606460405162461bcd60e51b815260206004820152602060248201527f4552433732313a206d696e7420746f20746865207a65726f20616464726573736044820152fd5b9190916001600160a01b038091169081600052600a60205269ffffffffffffffffffff938460406000205416948515613e27575b50505050565b6040929395506001613ea4613f0592600d548060b01c918214613f55575b6001600160b01b031681840160b01b75ffffffffffffffffffffffffffffffffffffffffffff191617600d556000988952600a60205297859020805469ffffffffffffffffffff191669ffffffffffffffffffff8a1617905587611f65565b613ed48685511682906001600160a01b031673ffffffffffffffffffffffffffffffffffffffff19825416179055565b019360208301511684906001600160a01b031673ffffffffffffffffffffffffffffffffffffffff19825416179055565b01517fffffffffffffffffff000000ffffffffffffffffffffffffffffffffffffffff76ffffff000000000000000000000000000000000000000083549260a01b16911617905538808080613e21565b613f5d613206565b613e45565b1561037257565b6020818303126103725780519067ffffffffffffffff8211610372570181601f82011215610372578051613f9c8161258d565b92613faa604051948561251d565b81845260208284010111610372576104db9160208085019101610470565b906001600160801b038080931691168092038111613261570190565b600019828209908281029283808410930392808403931461402d577001000000000000000000000000000000009183831115610372570990828211900360801b910360801c1790565b50505060801c90565b600019828209908281029283808410930392808403931461407b576c010000000000000000000000009183831115610372570990828211900360a01b910360601c1790565b50505060601c90565b6c0100000000000000000000000091600019838309928260601b9283808610950394808603951461410c579082916140bd868411613f62565b0981806000031680920460028082600302188083028203028083028203028083028203028083028203028083028203028092029003029360018380600003040190848311900302920304170290565b5050915061411b821515613f62565b0490565b9091600019838309928083029283808610950394808603951461410c579082916140bd868411613f62565b1561415157565b606460405162461bcd60e51b815260206004820152600c60248201527f4e6f7420617070726f76656400000000000000000000000000000000000000006044820152fd5b6024356104db81613a96565b6044356104db81613a96565b6064356104db81613a96565b9190826040910312610372576020825192015190565b156141d657565b606460405162461bcd60e51b815260206004820152601460248201527f507269636520736c69707061676520636865636b0000000000000000000000006044820152fd5b6001600160801b039182169116818110613245570390565b91908260409103126103725760208251613ada81613a96565b61425481612e9d565b6001600160a01b03811690816142fc575061426e82613713565b6142778261378c565b61428082614443565b6000908082526003602052604082208054600181106142ef575b60001901905582825260026020526040822073ffffffffffffffffffffffffffffffffffffffff1981541690557fddf252ad1be2c89b69c2b068fc378daa952ba7f163c4a11628f55a4df523b3ef82604051a4565b6142f7613206565b61429a565b61434661430882612e13565b6001811061438f575b600019016136636000938685526007602052604085205483810361434c575b5084613649886000526007602052604060002090565b5561426e565b8686526006602052604086208487526020526143886040872054806136b584613663876001600160a01b03166000526006602052604060002090565b5538614330565b614397613206565b614311565b9081602091031261037257516104db81610619565b6143d18160005260026020526001600160a01b0360406000205416151590565b156143ea57600052600c60205260406000205460601c90565b608460405162461bcd60e51b815260206004820152602c60248201527f4552433732313a20617070726f76656420717565727920666f72206e6f6e657860448201526b34b9ba32b73a103a37b5b2b760a11b6064820152fd5b80600052600c60205260406000206bffffffffffffffffffffffff815416905560006001600160a01b0361447683612e9d565b167f8c5be1e5ebec7d5bd14f71427d1e84f3dd0314c0f7b2291e5b200ac8c7c3b92582604051a4565b6000828152600c6020526040902080546bffffffffffffffffffffffff16606083901b6bffffffffffffffffffffffff19161790556001600160a01b03806144e684612e9d565b169116907f8c5be1e5ebec7d5bd14f71427d1e84f3dd0314c0f7b2291e5b200ac8c7c3b9256000604051a4565b60405160208101907f8b73c3c69bb8fe3d512ecc4cf759cc79239f7b179b0ffacaa9a75d522b39400f82527f000000000000000000000000000000000000000000000000000000000000000060408201527f000000000000000000000000000000000000000000000000000000000000000060608201524660808201523060a082015260a0815260c0810181811067ffffffffffffffff8211176145bb575b60405251902090565b6145c3612475565b6145b2565b156145cf57565b606460405162461bcd60e51b815260206004820152600e60248201527f5065726d697420657870697265640000000000000000000000000000000000006044820152fd5b1561461a57565b608460405162461bcd60e51b815260206004820152602760248201527f4552433732315065726d69743a20617070726f76616c20746f2063757272656e60448201527f74206f776e6572000000000000000000000000000000000000000000000000006064820152fd5b1561468b57565b606460405162461bcd60e51b815260206004820152601160248201527f496e76616c6964207369676e61747572650000000000000000000000000000006044820152fd5b156146d657565b606460405162461bcd60e51b815260206004820152600c60248201527f556e617574686f72697a656400000000000000000000000000000000000000006044820152fd5b6040906104db9392815281602082015201906104a5565b600052600c60205260406000206104db6bffffffffffffffffffffffff9182815416928314614783575b80546bffffffffffffffffffffffff19166bffffffffffffffffffffffff6001850116179055565b61478b613206565b61475b565b92918091928101039260808412610372576060604051946147b0866124ad565b12610372576148366060604051936147c7856124c9565b80356147d281610619565b855260208101356147e281610619565b602086015260408101356147f581610b75565b604086015284875201359261480984610619565b602086019384527f0000000000000000000000000000000000000000000000000000000000000000615440565b5080614879575b508161484857505050565b6148726148646020611eec9551016001600160a01b0390511690565b91516001600160a01b031690565b33916151c8565b83515161489a91906001600160a01b031683516001600160a01b0316614872565b3861483d565b519061ffff8216820361037257565b908160e09103126103725780516148c581610619565b9160208201516148d481613a5a565b916148e1604082016148a0565b916148ee606083016148a0565b916148fb608082016148a0565b9160c060a083015161490c8161146e565b9201516104db81612186565b919360a0936104db96956001600160a01b036001600160801b039416855260020b602085015260020b604084015216606082015281608082015201906104a5565b9060009161496e81516001600160a01b031690565b9061498360208201516001600160a01b031690565b926149b36040946149a861499c8786015162ffffff1690565b91610fea610fdb612560565b62ffffff1684860152565b6149e0610850847f0000000000000000000000000000000000000000000000000000000000000000615564565b91846001600160a01b03841694815195633850c7bd60e01b875260e087600481845afa968715614bc0575b8997614b9a575b506080840196614a53614a2e614a298a5160020b90565b614bf0565b9160a0870192614a42614a29855160020b90565b60c08901519160e08a01519361545d565b998a98614b22614adf614aed614a89614a81614a7960608d01516001600160a01b031690565b955160020b90565b965160020b90565b97614a92612580565b8181523360209182019081528b5183516001600160a01b03908116828501529284015183166040808301919091529093015162ffffff1660608401525116608082015291829060a0820190565b03601f19810183528261251d565b87519b8c97889687957f3c8a7d8d00000000000000000000000000000000000000000000000000000000875260048701614918565b03925af1938415614b8d575b6000958695614b66575b5050611eec90848661010083015111159182614b56575b50506141cf565b6101200151111590503880614b4f565b611eec9650614b82929550803d10610b4357610b28818361251d565b949094939038614b38565b614b95613418565b614b2e565b614bb391975060e03d8111610e9557610e81818361251d565b5050505050509538614a12565b614bc8613418565b614a0b565b8015614bda576000190490565b634e487b7160e01b600052601260045260246000fd5b60020b6000811215614f9157806000035b620d89e88111614f67576001600160a01b03916001821615614f3e5770ffffffffffffffffffffffffffffffffff6ffffcb933bd6fad37aa2d162d1a5940015b169160028116614f22575b60048116614f06575b60088116614eea575b60108116614ece575b60208116614eb2575b60408116614e96575b608090818116614e7b575b6101008116614e60575b6102008116614e45575b6104008116614e2a575b6108008116614e0f575b6110008116614df4575b6120008116614dd9575b6140008116614dbe575b6180008116614da3575b620100008116614d88575b620200008116614d6e575b620400008116614d54575b6208000016614d39575b50600012614d2b575b63ffffffff8116614d225760ff60005b169060201c011690565b60ff6001614d18565b614d3490614bcd565b614d08565b6b048a170391f7dc42444e8fa26000929302901c9190614cff565b6d2216e584f5fa1ea926041bedfe98909302811c92614cf5565b926e5d6af8dedb81196699c329225ee60402811c92614cea565b926f09aa508b5b7a84e1c677de54f3e99bc902811c92614cdf565b926f31be135f97d08fd981231505542fcfa602811c92614cd4565b926f70d869a156d2a1b890bb3df62baf32f702811c92614cca565b926fa9f746462d870fdf8a65dc1f90e061e502811c92614cc0565b926fd097f3bdfd2022b8845ad8f792aa582502811c92614cb6565b926fe7159475a2c29b7443b29c7fa6e889d902811c92614cac565b926ff3392b0822b70005940c7a398e4b70f302811c92614ca2565b926ff987a7253ac413176f2b074cf7815e5402811c92614c98565b926ffcbe86c7900a88aedcffc83b479aa3a402811c92614c8e565b926ffe5dee046a99a2a811c461f1969c305302811c92614c84565b916fff2ea16466c96a3843ec78b326b528610260801c91614c79565b916fff973b41fa98c081472e6896dfb254c00260801c91614c70565b916fffcb9843d60f6159c9db58835c9266440260801c91614c67565b916fffe5caca7e10e4e61c3624eaa0941cd00260801c91614c5e565b916ffff2e50f5f656932ef12357cf3c7fdcc0260801c91614c55565b916ffff97272373d413259a46990580e213a0260801c91614c4c565b70ffffffffffffffffffffffffffffffffff700100000000000000000000000000000000614c41565b60046040517f2bc80f3a000000000000000000000000000000000000000000000000000000008152fd5b80614c01565b60209067ffffffffffffffff8111614fb1575b60051b0190565b614fb9612475565b614faa565b90614fc882614f97565b614fd5604051918261251d565b8281528092614fe6601f1991614f97565b019060005b828110614ff757505050565b806060602080938501015201614feb565b6001906000198114613261570190565b919081101561505b575b60051b81013590601e198136030182121561037257019081359167ffffffffffffffff8311610372576020018236038113610372579190565b615063613573565b615022565b908092918237016000815290565b602091815181101561508b575b60051b010190565b615093613573565b615083565b6001600160a01b037f00000000000000000000000000000000000000000000000000000000000000001633036150ca57565b606460405162461bcd60e51b815260206004820152600960248201527f4e6f7420574554483900000000000000000000000000000000000000000000006044820152fd5b90816020910312610372575190565b1561512457565b606460405162461bcd60e51b815260206004820152601260248201527f496e73756666696369656e7420574554483900000000000000000000000000006044820152fd5b1561516f57565b606460405162461bcd60e51b815260206004820152601260248201527f496e73756666696369656e7420746f6b656e00000000000000000000000000006044820152fd5b9081602091031261037257516104db81612186565b6001600160a01b037f00000000000000000000000000000000000000000000000000000000000000008116949290828116861480615313575b156152f157505050823b1561037257615288926020926040517fd0e30db000000000000000000000000000000000000000000000000000000000815260008160048187875af180156152e4575b6152d1575b50600060405180968195829463a9059cbb60e01b845260048401602090939291936001600160a01b0360408201951681520152565b03925af180156152c4575b61529a5750565b6152ba9060203d81116152bd575b6152b2818361251d565b8101906151b3565b50565b503d6152a8565b6152cc613418565b615293565b80610d606152de9261248c565b38615253565b6152ec613418565b61524e565b919450919291908116300361530a5750611eec92615737565b611eec9361564d565b5083471015615201565b6001600160a01b0390959293951693843b156103725760009460e493869260ff604051998a9889977fd505accf0000000000000000000000000000000000000000000000000000000089523360048a01523060248a01526044890152606488015216608486015260a485015260c48401525af180156153ab575b61539e5750565b80610d60611eec9261248c565b6153b3613418565b615397565b6001600160a01b0390959293951693843b156103725760009461010493869260ff604051998a9889977f8fcbaf0c0000000000000000000000000000000000000000000000000000000089523360048a01523060248a015260448901526064880152600160848801521660a486015260c485015260e48401525af180156153ab5761539e5750565b6001600160a01b039161545291615564565b169081330361037257565b9390936001600160a01b03808416818716116154dc575b81811690868116821161548e57505050506104db926154e4565b84929495939516116000146154d05782916154ad916154b395946154e4565b93615538565b6001600160801b0381811690831610156154cb575090565b905090565b9150506104db92615538565b949294615474565b91615519916104db936001600160a01b03908183168282161161551e575b615510828416838316614036565b9203169161411f565b615524565b91615502565b906001600160801b03821691820361037257565b91615519916104db936001600160a01b03918281168383161161555e575b031690614084565b90615556565b906001600160a01b039182825116926020830151169283811015610372576055936155cd62ffffff6040600b9601511691614adf60405193849260208401968791939262ffffff9060409260608501966001600160a01b03809216865216602085015216910152565b51902090604051917f25e3ec08b5481ab6736bacbc1babb737902563de379be5263db365452e048cc16040840152602083015281520160ff81532090565b916040519160208301936bffffffffffffffffffffffff199060601b16845260e81b603483015260e81b6037820152601a8152615647816124ad565b51902090565b9091600080949381946040519160208301947f23b872dd0000000000000000000000000000000000000000000000000000000086526001600160a01b0380921660248501521660448301526064820152606481526156aa81612501565b51925af16156b6613425565b81615708575b50156156c457565b606460405162461bcd60e51b815260206004820152600360248201527f53544600000000000000000000000000000000000000000000000000000000006044820152fd5b805180159250821561571d575b5050386156bc565b61573092506020809183010191016151b3565b3880615715565b60405163a9059cbb60e01b602082019081526001600160a01b039093166024820152604481019390935260009283929083906157768160648101614adf565b51925af1615782613425565b816157d4575b501561579057565b606460405162461bcd60e51b815260206004820152600260248201527f53540000000000000000000000000000000000000000000000000000000000006044820152fd5b80518015925082156157e9575b505038615788565b6157fc92506020809183010191016151b3565b38806157e1565b600080929181926020604051615818816124e5565b84815201915af1615827613425565b501561582f57565b606460405162461bcd60e51b815260206004820152600360248201527f53544500000000000000000000000000000000000000000000000000000000006044820152fdfea164736f6c634300080f000a"
}