{
  "address": "0x2E77A788fc66c5312354aaE0df1dC1895ce556f8",
  "abi": [
    {
      "inputs": [
        {
          "internalType": "address",
          "name": "_factory",
          "type": "address"
        },
        {
          "internalType": "address",
          "name": "_WETH9",
          "type": "address"
        }
      ],
      "stateMutability": "nonpayable",
      "type": "constructor"
    },
    {
      "inputs": [],
      "name": "WETH9",
      "outputs": [
        {
          "internalType": "address",
          "name": "",
          "type": "address"
        }
      ],
      "stateMutability": "view",
      "type": "function"
    },
    {
      "inputs": [
        {
          "components": [
            {
              "internalType": "bytes",
              "name": "path",
              "type": "bytes"
            },
            {
              "internalType": "address",
              "name": "recipient",
              "type": "address"
            },
            {
              "internalType": "uint256",
              "name": "deadline",
              "type": "uint256"
            },
            {
              "internalType": "uint256",
              "name": "amountIn",
              "type": "uint256"
            },
            {
              "internalType": "uint256",
              "name": "amountOutMinimum",
              "type": "uint256"
            }
          ],
          "internalType": "struct ISwapRouter.ExactInputParams",
          "name": "params",
          "type": "tuple"
        }
      ],
      "name": "exactInput",
      "outputs": [
        {
          "internalType": "uint256",
          "name": "amountOut",
          "type": "uint256"
        }
      ],
      "stateMutability": "payable",
      "type": "function"
    },
    {
      "inputs": [
        {
          "components": [
            {
              "internalType": "address",
              "name": "tokenIn",
              "type": "address"
            },
            {
              "internalType": "address",
              "name": "tokenOut",
              "type": "address"
            },
            {
              "internalType": "uint24",
              "name": "fee",
              "type": "uint24"
            },
            {
              "internalType": "address",
              "name": "recipient",
              "type": "address"
            },
            {
              "internalType": "uint256",
              "name": "deadline",
              "type": "uint256"
            },
            {
              "internalType": "uint256",
              "name": "amountIn",
              "type": "uint256"
            },
            {
              "internalType": "uint256",
              "name": "amountOutMinimum",
              "type": "uint256"
            },
            {
              "internalType": "uint160",
              "name": "sqrtPriceLimitX96",
              "type": "uint160"
            }
          ],
          "internalType": "struct ISwapRouter.ExactInputSingleParams",
          "name": "params",
          "type": "tuple"
        }
      ],
      "name": "exactInputSingle",
      "outputs": [
        {
          "internalType": "uint256",
          "name": "amountOut",
          "type": "uint256"
        }
      ],
      "stateMutability": "payable",
      "type": "function"
    },
    {
      "inputs": [
        {
          "components": [
            {
              "internalType": "bytes",
              "name": "path",
              "type": "bytes"
            },
            {
              "internalType": "address",
              "name": "recipient",
              "type": "address"
            },
            {
              "internalType": "uint256",
              "name": "deadline",
              "type": "uint256"
            },
            {
              "internalType": "uint256",
              "name": "amountOut",
              "type": "uint256"
            },
            {
              "internalType": "uint256",
              "name": "amountInMaximum",
              "type": "uint256"
            }
          ],
          "internalType": "struct ISwapRouter.ExactOutputParams",
          "name": "params",
          "type": "tuple"
        }
      ],
      "name": "exactOutput",
      "outputs": [
        {
          "internalType": "uint256",
          "name": "amountIn",
          "type": "uint256"
        }
      ],
      "stateMutability": "payable",
      "type": "function"
    },
    {
      "inputs": [
        {
          "components": [
            {
              "internalType": "address",
              "name": "tokenIn",
              "type": "address"
            },
            {
              "internalType": "address",
              "name": "tokenOut",
              "type": "address"
            },
            {
              "internalType": "uint24",
              "name": "fee",
              "type": "uint24"
            },
            {
              "internalType": "address",
              "name": "recipient",
              "type": "address"
            },
            {
              "internalType": "uint256",
              "name": "deadline",
              "type": "uint256"
            },
            {
              "internalType": "uint256",
              "name": "amountOut",
              "type": "uint256"
            },
            {
              "internalType": "uint256",
              "name": "amountInMaximum",
              "type": "uint256"
            },
            {
              "internalType": "uint160",
              "name": "sqrtPriceLimitX96",
              "type": "uint160"
            }
          ],
          "internalType": "struct ISwapRouter.ExactOutputSingleParams",
          "name": "params",
          "type": "tuple"
        }
      ],
      "name": "exactOutputSingle",
      "outputs": [
        {
          "internalType": "uint256",
          "name": "amountIn",
          "type": "uint256"
        }
      ],
      "stateMutability": "payable",
      "type": "function"
    },
    {
      "inputs": [],
      "name": "factory",
      "outputs": [
        {
          "internalType": "address",
          "name": "",
          "type": "address"
        }
      ],
      "stateMutability": "view",
      "type": "function"
    },
    {
      "inputs": [
        {
          "internalType": "bytes[]",
          "name": "data",
          "type": "bytes[]"
        }
      ],
      "name": "multicall",
      "outputs": [
        {
          "internalType": "bytes[]",
          "name": "results",
          "type": "bytes[]"
        }
      ],
      "stateMutability": "payable",
      "type": "function"
    },
    {
      "inputs": [],
      "name": "refundETH",
      "outputs": [],
      "stateMutability": "payable",
      "type": "function"
    },
    {
      "inputs": [
        {
          "internalType": "address",
          "name": "receiver",
          "type": "address"
        }
      ],
      "name": "refundETH",
      "outputs": [],
      "stateMutability": "payable",
      "type": "function"
    },
    {
      "inputs": [
        {
          "internalType": "address",
          "name": "token",
          "type": "address"
        },
        {
          "internalType": "uint256",
          "name": "value",
          "type": "uint256"
        },
        {
          "internalType": "uint256",
          "name": "deadline",
          "type": "uint256"
        },
        {
          "internalType": "uint8",
          "name": "v",
          "type": "uint8"
        },
        {
          "internalType": "bytes32",
          "name": "r",
          "type": "bytes32"
        },
        {
          "internalType": "bytes32",
          "name": "s",
          "type": "bytes32"
        }
      ],
      "name": "selfPermit",
      "outputs": [],
      "stateMutability": "payable",
      "type": "function"
    },
    {
      "inputs": [
        {
          "internalType": "address",
          "name": "token",
          "type": "address"
        },
        {
          "internalType": "uint256",
          "name": "nonce",
          "type": "uint256"
        },
        {
          "internalType": "uint256",
          "name": "expiry",
          "type": "uint256"
        },
        {
          "internalType": "uint8",
          "name": "v",
          "type": "uint8"
        },
        {
          "internalType": "bytes32",
          "name": "r",
          "type": "bytes32"
        },
        {
          "internalType": "bytes32",
          "name": "s",
          "type": "bytes32"
        }
      ],
      "name": "selfPermitAllowed",
      "outputs": [],
      "stateMutability": "payable",
      "type": "function"
    },
    {
      "inputs": [
        {
          "internalType": "address",
          "name": "token",
          "type": "address"
        },
        {
          "internalType": "uint256",
          "name": "nonce",
          "type": "uint256"
        },
        {
          "internalType": "uint256",
          "name": "expiry",
          "type": "uint256"
        },
        {
          "internalType": "uint8",
          "name": "v",
          "type": "uint8"
        },
        {
          "internalType": "bytes32",
          "name": "r",
          "type": "bytes32"
        },
        {
          "internalType": "bytes32",
          "name": "s",
          "type": "bytes32"
        }
      ],
      "name": "selfPermitAllowedIfNecessary",
      "outputs": [],
      "stateMutability": "payable",
      "type": "function"
    },
    {
      "inputs": [
        {
          "internalType": "address",
          "name": "token",
          "type": "address"
        },
        {
          "internalType": "uint256",
          "name": "value",
          "type": "uint256"
        },
        {
          "internalType": "uint256",
          "name": "deadline",
          "type": "uint256"
        },
        {
          "internalType": "uint8",
          "name": "v",
          "type": "uint8"
        },
        {
          "internalType": "bytes32",
          "name": "r",
          "type": "bytes32"
        },
        {
          "internalType": "bytes32",
          "name": "s",
          "type": "bytes32"
        }
      ],
      "name": "selfPermitIfNecessary",
      "outputs": [],
      "stateMutability": "payable",
      "type": "function"
    },
    {
      "inputs": [
        {
          "internalType": "address",
          "name": "token",
          "type": "address"
        },
        {
          "internalType": "uint256",
          "name": "amountMinimum",
          "type": "uint256"
        },
        {
          "internalType": "address",
          "name": "recipient",
          "type": "address"
        }
      ],
      "name": "sweepToken",
      "outputs": [],
      "stateMutability": "payable",
      "type": "function"
    },
    {
      "inputs": [
        {
          "internalType": "address",
          "name": "token",
          "type": "address"
        },
        {
          "internalType": "uint256",
          "name": "amountMinimum",
          "type": "uint256"
        },
        {
          "internalType": "address",
          "name": "recipient",
          "type": "address"
        },
        {
          "internalType": "uint256",
          "name": "feeBips",
          "type": "uint256"
        },
        {
          "internalType": "address",
          "name": "feeRecipient",
          "type": "address"
        }
      ],
      "name": "sweepTokenWithFee",
      "outputs": [],
      "stateMutability": "payable",
      "type": "function"
    },
    {
      "inputs": [
        {
          "internalType": "int256",
          "name": "amount0Delta",
          "type": "int256"
        },
        {
          "internalType": "int256",
          "name": "amount1Delta",
          "type": "int256"
        },
        {
          "internalType": "bytes",
          "name": "_data",
          "type": "bytes"
        }
      ],
      "name": "uniswapV3SwapCallback",
      "outputs": [],
      "stateMutability": "nonpayable",
      "type": "function"
    },
    {
      "inputs": [
        {
          "internalType": "uint256",
          "name": "amountMinimum",
          "type": "uint256"
        },
        {
          "internalType": "address",
          "name": "recipient",
          "type": "address"
        }
      ],
      "name": "unwrapWETH9",
      "outputs": [],
      "stateMutability": "payable",
      "type": "function"
    },
    {
      "inputs": [
        {
          "internalType": "uint256",
          "name": "amountMinimum",
          "type": "uint256"
        },
        {
          "internalType": "address",
          "name": "recipient",
          "type": "address"
        },
        {
          "internalType": "uint256",
          "name": "feeBips",
          "type": "uint256"
        },
        {
          "internalType": "address",
          "name": "feeRecipient",
          "type": "address"
        }
      ],
      "name": "unwrapWETH9WithFee",
      "outputs": [],
      "stateMutability": "payable",
      "type": "function"
    },
    {
      "stateMutability": "payable",
      "type": "receive"
    }
  ],
  "transactionHash": "0xf6c276e5daf72ea7fbead5cc8fba9d7c45e6cb523c3aa29bea0e86416b0dcd45",
  "args": [
    "0xf25081B098c5929A26F562aa2502795fE89BC73f",
    "0xB4FBF271143F4FBf7B91A5ded31805e42b2208d6"
  ],
  "numDeployments": 1,
  "solcInputHash": "73f68bee321b9dcd4224617c681765ac",
  "bytecode": "0x60c06040526000196000553480156200001757600080fd5b506040516200290e3803806200290e8339810160408190526200003a916200006f565b6001600160a01b039182166080521660a052620000a7565b80516001600160a01b03811681146200006a57600080fd5b919050565b600080604083850312156200008357600080fd5b6200008e8362000052565b91506200009e6020840162000052565b90509250929050565b60805160a0516127fb620001136000396000818161013d0152818161022f015281816105e0015281816106c101528181610766015281816108470152818161182b0152818161187101526119060152600081816102e7015281816111d301526119b001526127fb6000f3fe60806040526004361061012d5760003560e01c8063c04b8d59116100a5578063df2ab5bb11610074578063f28c049811610059578063f28c049814610342578063f3995c6714610355578063fa461e331461036857600080fd5b8063df2ab5bb1461031c578063e0e189a01461032f57600080fd5b8063c04b8d59146102af578063c2e3140a146102c2578063c45a0155146102d5578063db3e21981461030957600080fd5b806349404b7c116100fc5780639b2c0a37116100e15780639b2c0a3714610269578063a4a78f0c1461027c578063ac9650d81461028f57600080fd5b806349404b7c1461020a5780634aa4a4fc1461021d57600080fd5b806312210e8a146101b65780631cf6e5b4146101be578063414bf389146101d15780634659a494146101f757600080fd5b366101b157336001600160a01b037f000000000000000000000000000000000000000000000000000000000000000016146101af5760405162461bcd60e51b815260206004820152600960248201527f4e6f74205745544839000000000000000000000000000000000000000000000060448201526064015b60405180910390fd5b005b600080fd5b6101af610388565b6101af6101cc366004611eeb565b61039a565b6101e46101df366004611f1b565b6103ad565b6040519081526020015b60405180910390f35b6101af610205366004611f38565b610533565b6101af610218366004611f9a565b6105c8565b34801561022957600080fd5b506102517f000000000000000000000000000000000000000000000000000000000000000081565b6040516001600160a01b0390911681526020016101ee565b6101af610277366004611fca565b610734565b6101af61028a366004611f38565b6108f4565b6102a261029d366004612014565b61097a565b6040516101ee91906120e1565b6101e46102bd366004612231565b610ad2565b6101af6102d0366004611f38565b610c10565b3480156102e157600080fd5b506102517f000000000000000000000000000000000000000000000000000000000000000081565b6101e4610317366004611f1b565b610c94565b6101af61032a3660046122d5565b610e23565b6101af61033d366004612317565b610ef7565b6101e4610350366004612376565b61101d565b6101af610363366004611f38565b611137565b34801561037457600080fd5b506101af6103833660046123b1565b61118e565b47156103985761039833476112a1565b565b47156103aa576103aa81476112a1565b50565b60006080820135804211156103fa5760405162461bcd60e51b8152602060048201526013602482015272151c985b9cd858dd1a5bdb881d1bdbc81bdb19606a1b60448201526064016101a6565b6104d760a08401356104126080860160608701611eeb565b610423610100870160e08801611eeb565b604080518082019091528061043b60208a018a611eeb565b61044b60608b0160408c01612431565b61045b60408c0160208d01611eeb565b604051606093841b6bffffffffffffffffffffffff19908116602083015260e89390931b7fffffff0000000000000000000000000000000000000000000000000000000000166034820152921b166037820152604b016040516020818303038152906040528152602001336001600160a01b0316815250611344565b91508260c0013582101561052d5760405162461bcd60e51b815260206004820152601360248201527f546f6f206c6974746c652072656365697665640000000000000000000000000060448201526064016101a6565b50919050565b6040516323f2ebc360e21b815233600482015230602482015260448101869052606481018590526001608482015260ff841660a482015260c4810183905260e481018290526001600160a01b03871690638fcbaf0c90610104015b600060405180830381600087803b1580156105a857600080fd5b505af11580156105bc573d6000803e3d6000fd5b50505050505050505050565b6040516370a0823160e01b81523060048201526000907f00000000000000000000000000000000000000000000000000000000000000006001600160a01b0316906370a0823190602401602060405180830381865afa15801561062f573d6000803e3d6000fd5b505050506040513d601f19601f820116820180604052508101906106539190612456565b9050828110156106a55760405162461bcd60e51b815260206004820152601260248201527f496e73756666696369656e74205745544839000000000000000000000000000060448201526064016101a6565b801561072f57604051632e1a7d4d60e01b8152600481018290527f00000000000000000000000000000000000000000000000000000000000000006001600160a01b031690632e1a7d4d90602401600060405180830381600087803b15801561070d57600080fd5b505af1158015610721573d6000803e3d6000fd5b5050505061072f82826112a1565b505050565b600082118015610745575060648211155b61074e57600080fd5b6040516370a0823160e01b81523060048201526000907f00000000000000000000000000000000000000000000000000000000000000006001600160a01b0316906370a0823190602401602060405180830381865afa1580156107b5573d6000803e3d6000fd5b505050506040513d601f19601f820116820180604052508101906107d99190612456565b90508481101561082b5760405162461bcd60e51b815260206004820152601260248201527f496e73756666696369656e74205745544839000000000000000000000000000060448201526064016101a6565b80156108ed57604051632e1a7d4d60e01b8152600481018290527f00000000000000000000000000000000000000000000000000000000000000006001600160a01b031690632e1a7d4d90602401600060405180830381600087803b15801561089357600080fd5b505af11580156108a7573d6000803e3d6000fd5b50505050600061271084836108bc9190612485565b6108c691906124a4565b905080156108d8576108d883826112a1565b6108eb856108e683856124c6565b6112a1565b505b5050505050565b604051636eb1769f60e11b8152336004820152306024820152600019906001600160a01b0388169063dd62ed3e90604401602060405180830381865afa158015610942573d6000803e3d6000fd5b505050506040513d601f19601f820116820180604052508101906109669190612456565b10156108eb576108eb868686868686610533565b60608167ffffffffffffffff81111561099557610995612143565b6040519080825280602002602001820160405280156109c857816020015b60608152602001906001900390816109b35790505b50905060005b82811015610acb57600080308686858181106109ec576109ec6124dd565b90506020028101906109fe91906124f3565b604051610a0c929190612541565b600060405180830381855af49150503d8060008114610a47576040519150601f19603f3d011682016040523d82523d6000602084013e610a4c565b606091505b509150915081610a9857604481511015610a6557600080fd5b60048101905080806020019051810190610a7f9190612551565b60405162461bcd60e51b81526004016101a691906125bf565b80848481518110610aab57610aab6124dd565b602002602001018190525050508080610ac3906125d2565b9150506109ce565b5092915050565b6000816040015180610ae14290565b1115610b255760405162461bcd60e51b8152602060048201526013602482015272151c985b9cd858dd1a5bdb881d1bdbc81bdb19606a1b60448201526064016101a6565b335b6000610b3685600001516114a0565b9050610b82856060015182610b4f578660200151610b51565b305b60006040518060400160405280610b6b8b600001516114da565b8152602001876001600160a01b0316815250611344565b60608601528015610ba2578451309250610b9b90611506565b8552610baf565b8460600151935050610bb5565b50610b27565b8360800151831015610c095760405162461bcd60e51b815260206004820152601360248201527f546f6f206c6974746c652072656365697665640000000000000000000000000060448201526064016101a6565b5050919050565b604051636eb1769f60e11b815233600482015230602482015285906001600160a01b0388169063dd62ed3e90604401602060405180830381865afa158015610c5c573d6000803e3d6000fd5b505050506040513d601f19601f82011682018060405250810190610c809190612456565b10156108eb576108eb868686868686611137565b6000608082013580421115610ce15760405162461bcd60e51b8152602060048201526013602482015272151c985b9cd858dd1a5bdb881d1bdbc81bdb19606a1b60448201526064016101a6565b610dc160a0840135610cf96080860160608701611eeb565b610d0a610100870160e08801611eeb565b6040518060400160405280886020016020810190610d289190611eeb565b610d3860608b0160408c01612431565b610d4560208c018c611eeb565b604051606093841b6bffffffffffffffffffffffff19908116602083015260e89390931b7fffffff0000000000000000000000000000000000000000000000000000000000166034820152921b166037820152604b016040516020818303038152906040528152602001336001600160a01b031681525061152f565b91508260c00135821115610e175760405162461bcd60e51b815260206004820152601260248201527f546f6f206d75636820726571756573746564000000000000000000000000000060448201526064016101a6565b50600019600055919050565b6040516370a0823160e01b81523060048201526000906001600160a01b038516906370a0823190602401602060405180830381865afa158015610e6a573d6000803e3d6000fd5b505050506040513d601f19601f82011682018060405250810190610e8e9190612456565b905082811015610ee05760405162461bcd60e51b815260206004820152601260248201527f496e73756666696369656e7420746f6b656e000000000000000000000000000060448201526064016101a6565b8015610ef157610ef18483836116c0565b50505050565b600082118015610f08575060648211155b610f1157600080fd5b6040516370a0823160e01b81523060048201526000906001600160a01b038716906370a0823190602401602060405180830381865afa158015610f58573d6000803e3d6000fd5b505050506040513d601f19601f82011682018060405250810190610f7c9190612456565b905084811015610fce5760405162461bcd60e51b815260206004820152601260248201527f496e73756666696369656e7420746f6b656e000000000000000000000000000060448201526064016101a6565b80156108eb576000612710610fe38584612485565b610fed91906124a4565b90508015611000576110008784836116c0565b611014878661100f84866124c6565b6116c0565b50505050505050565b600060408201358042111561106a5760405162461bcd60e51b8152602060048201526013602482015272151c985b9cd858dd1a5bdb881d1bdbc81bdb19606a1b60448201526064016101a6565b6110dd60608401356110826040860160208701611eeb565b604080518082019091526000908061109a89806124f3565b8080601f0160208091040260200160405190810160405280939291908181526020018383808284376000920191909152505050908252503360209091015261152f565b5060005491508260800135821115610e175760405162461bcd60e51b815260206004820152601260248201527f546f6f206d75636820726571756573746564000000000000000000000000000060448201526064016101a6565b60405163d505accf60e01b8152336004820152306024820152604481018690526064810185905260ff8416608482015260a4810183905260c481018290526001600160a01b0387169063d505accf9060e40161058e565b600084138061119d5750600083135b6111a657600080fd5b60006111b4828401846125eb565b905060008060006111c884600001516117ce565b9250925092506111fa7f000000000000000000000000000000000000000000000000000000000000000084848461180a565b5060008060008a1361122157846001600160a01b0316846001600160a01b03161089611238565b836001600160a01b0316856001600160a01b0316108a5b915091508115611257576112528587602001513384611829565b6105bc565b8551611262906114a0565b1561128757855161127290611506565b8652611281813360008961152f565b506105bc565b806000819055508394506105bc8587602001513384611829565b604080516000808252602082019092526001600160a01b0384169083906040516112cb9190612685565b60006040518083038185875af1925050503d8060008114611308576040519150601f19603f3d011682016040523d82523d6000602084013e61130d565b606091505b505090508061072f5760405162461bcd60e51b815260206004820152600360248201526253544560e81b60448201526064016101a6565b60006001600160a01b038416611358573093505b600080600061136a85600001516117ce565b919450925090506001600160a01b038083169084161060008061138e8686866119a9565b6001600160a01b031663128acb088b856113a78f6119e7565b6001600160a01b038e16156113bc578d6113f5565b876113e5576113e0600173fffd8963efd1fc6a506488495d951d5263988d266126a1565b6113f5565b6113f56401000276a360016126c9565b8d60405160200161140691906126f4565b6040516020818303038152906040526040518663ffffffff1660e01b815260040161143595949392919061272f565b60408051808303816000875af1158015611453573d6000803e3d6000fd5b505050506040513d601f19601f820116820180604052508101906114779190612774565b91509150826114865781611488565b805b61149190612798565b9b9a5050505050505050505050565b60006114ae600360146127b4565b60146114bb6003826127b4565b6114c591906127b4565b6114cf91906127b4565b825110159050919050565b6060611500600060146114ee6003826127b4565b6114f891906127b4565b8491906119fd565b92915050565b6060611500611517600360146127b4565b611523600360146127b4565b84516114f891906124c6565b60006001600160a01b038416611543573093505b600080600061155585600001516117ce565b919450925090506001600160a01b03808416908316106000806115798587866119a9565b6001600160a01b031663128acb088b856115928f6119e7565b61159b90612798565b6001600160a01b038e16156115b0578d6115e9565b876115d9576115d4600173fffd8963efd1fc6a506488495d951d5263988d266126a1565b6115e9565b6115e96401000276a360016126c9565b8d6040516020016115fa91906126f4565b6040516020818303038152906040526040518663ffffffff1660e01b815260040161162995949392919061272f565b60408051808303816000875af1158015611647573d6000803e3d6000fd5b505050506040513d601f19601f8201168201806040525081019061166b9190612774565b91509150600083611685578161168084612798565b61168f565b8261168f83612798565b90985090506001600160a01b038a166000036116b1578b81146116b157600080fd5b50505050505050949350505050565b604080516001600160a01b038481166024830152604480830185905283518084039091018152606490920183526020820180517bffffffffffffffffffffffffffffffffffffffffffffffffffffffff1663a9059cbb60e01b17905291516000928392908716916117319190612685565b6000604051808303816000865af19150503d806000811461176e576040519150601f19603f3d011682016040523d82523d6000602084013e611773565b606091505b509150915081801561179d57508051158061179d57508080602001905181019061179d91906127cc565b6108ed5760405162461bcd60e51b815260206004820152600260248201526114d560f21b60448201526064016101a6565b600080806117dc8482611b25565b92506117e9846014611b9b565b90506118016117fa600360146127b4565b8590611b25565b91509193909250565b60006118208561181b868686611c5b565b611cc6565b95945050505050565b7f00000000000000000000000000000000000000000000000000000000000000006001600160a01b0316846001600160a01b031614801561186a5750804710155b1561197d577f00000000000000000000000000000000000000000000000000000000000000006001600160a01b031663d0e30db0826040518263ffffffff1660e01b81526004016000604051808303818588803b1580156118ca57600080fd5b505af11580156118de573d6000803e3d6000fd5b505060405163a9059cbb60e01b81526001600160a01b038681166004830152602482018690527f000000000000000000000000000000000000000000000000000000000000000016935063a9059cbb925060440190506020604051808303816000875af1158015611953573d6000803e3d6000fd5b505050506040513d601f19601f8201168201806040525081019061197791906127cc565b50610ef1565b306001600160a01b0384160361199d576119988483836116c0565b610ef1565b610ef184848484611ce9565b60006119df7f00000000000000000000000000000000000000000000000000000000000000006119da868686611c5b565b611e00565b949350505050565b6000600160ff1b82106119f957600080fd5b5090565b606081611a0b81601f6127b4565b1015611a595760405162461bcd60e51b815260206004820152600e60248201527f736c6963655f6f766572666c6f7700000000000000000000000000000000000060448201526064016101a6565b611a6382846127b4565b84511015611ab35760405162461bcd60e51b815260206004820152601160248201527f736c6963655f6f75744f66426f756e647300000000000000000000000000000060448201526064016101a6565b606082158015611ad25760405191506000825260208201604052611b1c565b6040519150601f8416801560200281840101858101878315602002848b0101015b81831015611b0b578051835260209283019201611af3565b5050858452601f01601f1916604052505b50949350505050565b6000611b328260146127b4565b83511015611b825760405162461bcd60e51b815260206004820152601560248201527f746f416464726573735f6f75744f66426f756e6473000000000000000000000060448201526064016101a6565b5001602001516c01000000000000000000000000900490565b600081611ba98160036127b4565b1015611bf75760405162461bcd60e51b815260206004820152601160248201527f746f55696e7432345f6f766572666c6f7700000000000000000000000000000060448201526064016101a6565b611c028260036127b4565b83511015611c525760405162461bcd60e51b815260206004820152601460248201527f746f55696e7432345f6f75744f66426f756e647300000000000000000000000060448201526064016101a6565b50016003015190565b6040805160608101825260008082526020820181905291810191909152826001600160a01b0316846001600160a01b03161115611c96579192915b50604080516060810182526001600160a01b03948516815292909316602083015262ffffff169181019190915290565b6000611cd28383611e00565b9050336001600160a01b0382161461150057600080fd5b604080516001600160a01b0385811660248301528481166044830152606480830185905283518084039091018152608490920183526020820180517bffffffffffffffffffffffffffffffffffffffffffffffffffffffff166323b872dd60e01b1790529151600092839290881691611d629190612685565b6000604051808303816000865af19150503d8060008114611d9f576040519150601f19603f3d011682016040523d82523d6000602084013e611da4565b606091505b5091509150818015611dce575080511580611dce575080806020019051810190611dce91906127cc565b6108eb5760405162461bcd60e51b815260206004820152600360248201526229aa2360e91b60448201526064016101a6565b600081602001516001600160a01b031682600001516001600160a01b031610611e2857600080fd5b815160208084015160408086015181516001600160a01b0395861694810194909452939091169082015262ffffff9091166060820152611ea590608001604051602081830303815290604052805190602001207f7700ec83d0dc69c0a1e228138168ca93778a8d2f0fe9a0afb44901e1d5142d4860001b85611eac565b9392505050565b6000604051836040820152846020820152828152600b8101905060ff815360559020949350505050565b6001600160a01b03811681146103aa57600080fd5b600060208284031215611efd57600080fd5b8135611ea581611ed6565b6000610100828403121561052d57600080fd5b60006101008284031215611f2e57600080fd5b611ea58383611f08565b60008060008060008060c08789031215611f5157600080fd5b8635611f5c81611ed6565b95506020870135945060408701359350606087013560ff81168114611f8057600080fd5b9598949750929560808101359460a0909101359350915050565b60008060408385031215611fad57600080fd5b823591506020830135611fbf81611ed6565b809150509250929050565b60008060008060808587031215611fe057600080fd5b843593506020850135611ff281611ed6565b925060408501359150606085013561200981611ed6565b939692955090935050565b6000806020838503121561202757600080fd5b823567ffffffffffffffff8082111561203f57600080fd5b818501915085601f83011261205357600080fd5b81358181111561206257600080fd5b8660208260051b850101111561207757600080fd5b60209290920196919550909350505050565b60005b838110156120a457818101518382015260200161208c565b83811115610ef15750506000910152565b600081518084526120cd816020860160208601612089565b601f01601f19169290920160200192915050565b6000602080830181845280855180835260408601915060408160051b870101925083870160005b8281101561213657603f198886030184526121248583516120b5565b94509285019290850190600101612108565b5092979650505050505050565b634e487b7160e01b600052604160045260246000fd5b60405160a0810167ffffffffffffffff8111828210171561217c5761217c612143565b60405290565b604051601f8201601f1916810167ffffffffffffffff811182821017156121ab576121ab612143565b604052919050565b600067ffffffffffffffff8211156121cd576121cd612143565b50601f01601f191660200190565b600082601f8301126121ec57600080fd5b81356121ff6121fa826121b3565b612182565b81815284602083860101111561221457600080fd5b816020850160208301376000918101602001919091529392505050565b60006020828403121561224357600080fd5b813567ffffffffffffffff8082111561225b57600080fd5b9083019060a0828603121561226f57600080fd5b612277612159565b82358281111561228657600080fd5b612292878286016121db565b825250602083013591506122a582611ed6565b81602082015260408301356040820152606083013560608201526080830135608082015280935050505092915050565b6000806000606084860312156122ea57600080fd5b83356122f581611ed6565b925060208401359150604084013561230c81611ed6565b809150509250925092565b600080600080600060a0868803121561232f57600080fd5b853561233a81611ed6565b945060208601359350604086013561235181611ed6565b925060608601359150608086013561236881611ed6565b809150509295509295909350565b60006020828403121561238857600080fd5b813567ffffffffffffffff81111561239f57600080fd5b820160a08185031215611ea557600080fd5b600080600080606085870312156123c757600080fd5b8435935060208501359250604085013567ffffffffffffffff808211156123ed57600080fd5b818701915087601f83011261240157600080fd5b81358181111561241057600080fd5b88602082850101111561242257600080fd5b95989497505060200194505050565b60006020828403121561244357600080fd5b813562ffffff81168114611ea557600080fd5b60006020828403121561246857600080fd5b5051919050565b634e487b7160e01b600052601160045260246000fd5b600081600019048311821515161561249f5761249f61246f565b500290565b6000826124c157634e487b7160e01b600052601260045260246000fd5b500490565b6000828210156124d8576124d861246f565b500390565b634e487b7160e01b600052603260045260246000fd5b6000808335601e1984360301811261250a57600080fd5b83018035915067ffffffffffffffff82111561252557600080fd5b60200191503681900382131561253a57600080fd5b9250929050565b8183823760009101908152919050565b60006020828403121561256357600080fd5b815167ffffffffffffffff81111561257a57600080fd5b8201601f8101841361258b57600080fd5b80516125996121fa826121b3565b8181528560208385010111156125ae57600080fd5b611820826020830160208601612089565b602081526000611ea560208301846120b5565b6000600182016125e4576125e461246f565b5060010190565b6000602082840312156125fd57600080fd5b813567ffffffffffffffff8082111561261557600080fd5b908301906040828603121561262957600080fd5b60405160408101818110838211171561264457612644612143565b60405282358281111561265657600080fd5b612662878286016121db565b8252506020830135925061267583611ed6565b6020810192909252509392505050565b60008251612697818460208701612089565b9190910192915050565b60006001600160a01b03838116908316818110156126c1576126c161246f565b039392505050565b60006001600160a01b038083168185168083038211156126eb576126eb61246f565b01949350505050565b60208152600082516040602084015261271060608401826120b5565b90506001600160a01b0360208501511660408401528091505092915050565b60006001600160a01b038088168352861515602084015285604084015280851660608401525060a0608083015261276960a08301846120b5565b979650505050505050565b6000806040838503121561278757600080fd5b505080516020909101519092909150565b6000600160ff1b82016127ad576127ad61246f565b5060000390565b600082198211156127c7576127c761246f565b500190565b6000602082840312156127de57600080fd5b81518015158114611ea557600080fdfea164736f6c634300080f000a",
  "devdoc": {
    "kind": "dev",
    "methods": {
      "exactInput((bytes,address,uint256,uint256,uint256))": {
        "params": {
          "params": "The parameters necessary for the multi-hop swap, encoded as `ExactInputParams` in calldata"
        },
        "returns": {
          "amountOut": "The amount of the received token"
        }
      },
      "exactInputSingle((address,address,uint24,address,uint256,uint256,uint256,uint160))": {
        "params": {
          "params": "The parameters necessary for the swap, encoded as `ExactInputSingleParams` in calldata"
        },
        "returns": {
          "amountOut": "The amount of the received token"
        }
      },
      "exactOutput((bytes,address,uint256,uint256,uint256))": {
        "params": {
          "params": "The parameters necessary for the multi-hop swap, encoded as `ExactOutputParams` in calldata"
        },
        "returns": {
          "amountIn": "The amount of the input token"
        }
      },
      "exactOutputSingle((address,address,uint24,address,uint256,uint256,uint256,uint160))": {
        "params": {
          "params": "The parameters necessary for the swap, encoded as `ExactOutputSingleParams` in calldata"
        },
        "returns": {
          "amountIn": "The amount of the input token"
        }
      },
      "multicall(bytes[])": {
        "details": "The `msg.value` should not be trusted for any method callable from multicall.",
        "params": {
          "data": "The encoded function data for each of the calls to make to this contract"
        },
        "returns": {
          "results": "The results from each of the calls passed in via data"
        }
      },
      "refundETH()": {
        "details": "Useful for bundling with mint or increase liquidity that uses ether, or exact output swaps that use ether for the input amount"
      },
      "refundETH(address)": {
        "details": "Useful for bundling with mint or increase liquidity that uses ether, or exact output swaps that use ether for the input amount"
      },
      "selfPermit(address,uint256,uint256,uint8,bytes32,bytes32)": {
        "details": "The `owner` is always msg.sender and the `spender` is always address(this).",
        "params": {
          "deadline": "A timestamp, the current blocktime must be less than or equal to this timestamp",
          "r": "Must produce valid secp256k1 signature from the holder along with `v` and `s`",
          "s": "Must produce valid secp256k1 signature from the holder along with `r` and `v`",
          "token": "The address of the token spent",
          "v": "Must produce valid secp256k1 signature from the holder along with `r` and `s`",
          "value": "The amount that can be spent of token"
        }
      },
      "selfPermitAllowed(address,uint256,uint256,uint8,bytes32,bytes32)": {
        "details": "The `owner` is always msg.sender and the `spender` is always address(this)",
        "params": {
          "expiry": "The timestamp at which the permit is no longer valid",
          "nonce": "The current nonce of the owner",
          "r": "Must produce valid secp256k1 signature from the holder along with `v` and `s`",
          "s": "Must produce valid secp256k1 signature from the holder along with `r` and `v`",
          "token": "The address of the token spent",
          "v": "Must produce valid secp256k1 signature from the holder along with `r` and `s`"
        }
      },
      "selfPermitAllowedIfNecessary(address,uint256,uint256,uint8,bytes32,bytes32)": {
        "details": "The `owner` is always msg.sender and the `spender` is always address(this) Can be used instead of #selfPermitAllowed to prevent calls from failing due to a frontrun of a call to #selfPermitAllowed.",
        "params": {
          "expiry": "The timestamp at which the permit is no longer valid",
          "nonce": "The current nonce of the owner",
          "r": "Must produce valid secp256k1 signature from the holder along with `v` and `s`",
          "s": "Must produce valid secp256k1 signature from the holder along with `r` and `v`",
          "token": "The address of the token spent",
          "v": "Must produce valid secp256k1 signature from the holder along with `r` and `s`"
        }
      },
      "selfPermitIfNecessary(address,uint256,uint256,uint8,bytes32,bytes32)": {
        "details": "The `owner` is always msg.sender and the `spender` is always address(this). Can be used instead of #selfPermit to prevent calls from failing due to a frontrun of a call to #selfPermit",
        "params": {
          "deadline": "A timestamp, the current blocktime must be less than or equal to this timestamp",
          "r": "Must produce valid secp256k1 signature from the holder along with `v` and `s`",
          "s": "Must produce valid secp256k1 signature from the holder along with `r` and `v`",
          "token": "The address of the token spent",
          "v": "Must produce valid secp256k1 signature from the holder along with `r` and `s`",
          "value": "The amount that can be spent of token"
        }
      },
      "sweepToken(address,uint256,address)": {
        "details": "The amountMinimum parameter prevents malicious contracts from stealing the token from users",
        "params": {
          "amountMinimum": "The minimum amount of token required for a transfer",
          "recipient": "The destination address of the token",
          "token": "The contract address of the token which will be transferred to `recipient`"
        }
      },
      "sweepTokenWithFee(address,uint256,address,uint256,address)": {
        "details": "The amountMinimum parameter prevents malicious contracts from stealing the token from users"
      },
      "uniswapV3SwapCallback(int256,int256,bytes)": {
        "details": "In the implementation you must pay the pool tokens owed for the swap. The caller of this method must be checked to be a UniswapV3Pool deployed by the canonical UniswapV3Factory. amount0Delta and amount1Delta can both be 0 if no tokens were swapped.",
        "params": {
          "amount0Delta": "The amount of token0 that was sent (negative) or must be received (positive) by the pool by the end of the swap. If positive, the callback must send that amount of token0 to the pool.",
          "amount1Delta": "The amount of token1 that was sent (negative) or must be received (positive) by the pool by the end of the swap. If positive, the callback must send that amount of token1 to the pool.",
          "data": "Any data passed through by the caller via the IUniswapV3PoolActions#swap call"
        }
      },
      "unwrapWETH9(uint256,address)": {
        "details": "The amountMinimum parameter prevents malicious contracts from stealing WETH9 from users.",
        "params": {
          "amountMinimum": "The minimum amount of WETH9 to unwrap",
          "recipient": "The address receiving ETH"
        }
      },
      "unwrapWETH9WithFee(uint256,address,uint256,address)": {
        "details": "The amountMinimum parameter prevents malicious contracts from stealing WETH9 from users."
      }
    },
    "stateVariables": {
      "DEFAULT_AMOUNT_IN_CACHED": {
        "details": "Used as the placeholder value for amountInCached, because the computed amount in for an exact output swap can never actually be this value"
      },
      "amountInCached": {
        "details": "Transient storage variable used for returning the computed amount in for an exact output swap."
      }
    },
    "title": "Uniswap V3 Swap Router",
    "version": 1
  },
  "userdoc": {
    "kind": "user",
    "methods": {
      "exactInput((bytes,address,uint256,uint256,uint256))": {
        "notice": "Swaps `amountIn` of one token for as much as possible of another along the specified path"
      },
      "exactInputSingle((address,address,uint24,address,uint256,uint256,uint256,uint160))": {
        "notice": "Swaps `amountIn` of one token for as much as possible of another token"
      },
      "exactOutput((bytes,address,uint256,uint256,uint256))": {
        "notice": "Swaps as little as possible of one token for `amountOut` of another along the specified path (reversed)"
      },
      "exactOutputSingle((address,address,uint24,address,uint256,uint256,uint256,uint160))": {
        "notice": "Swaps as little as possible of one token for `amountOut` of another token"
      },
      "multicall(bytes[])": {
        "notice": "Call multiple functions in the current contract and return the data from all of them if they all succeed"
      },
      "refundETH()": {
        "notice": "Refunds any ETH balance held by this contract to the `msg.sender`"
      },
      "refundETH(address)": {
        "notice": "Refunds any ETH balance held by this contract to the `receiver`"
      },
      "selfPermit(address,uint256,uint256,uint8,bytes32,bytes32)": {
        "notice": "Permits this contract to spend a given token from `msg.sender`"
      },
      "selfPermitAllowed(address,uint256,uint256,uint8,bytes32,bytes32)": {
        "notice": "Permits this contract to spend the sender's tokens for permit signatures that have the `allowed` parameter"
      },
      "selfPermitAllowedIfNecessary(address,uint256,uint256,uint8,bytes32,bytes32)": {
        "notice": "Permits this contract to spend the sender's tokens for permit signatures that have the `allowed` parameter"
      },
      "selfPermitIfNecessary(address,uint256,uint256,uint8,bytes32,bytes32)": {
        "notice": "Permits this contract to spend a given token from `msg.sender`"
      },
      "sweepToken(address,uint256,address)": {
        "notice": "Transfers the full amount of a token held by this contract to recipient"
      },
      "sweepTokenWithFee(address,uint256,address,uint256,address)": {
        "notice": "Transfers the full amount of a token held by this contract to recipient, with a percentage between 0 (exclusive) and 1 (inclusive) going to feeRecipient"
      },
      "uniswapV3SwapCallback(int256,int256,bytes)": {
        "notice": "Called to `msg.sender` after executing a swap via IUniswapV3Pool#swap."
      },
      "unwrapWETH9(uint256,address)": {
        "notice": "Unwraps the contract's WETH9 balance and sends it to recipient as ETH."
      },
      "unwrapWETH9WithFee(uint256,address,uint256,address)": {
        "notice": "Unwraps the contract's WETH9 balance and sends it to recipient as ETH, with a percentage between 0 (exclusive), and 1 (inclusive) going to feeRecipient"
      }
    },
    "notice": "Router for stateless execution of swaps against Uniswap V3",
    "version": 1
  },
  "storageLayout": {
    "storage": [
      {
        "astId": 30342,
        "contract": "src/uniswap/v3-periphery/SwapRouter.sol:SwapRouter",
        "label": "amountInCached",
        "offset": 0,
        "slot": "0",
        "type": "t_uint256"
      }
    ],
    "types": {
      "t_uint256": {
        "encoding": "inplace",
        "label": "uint256",
        "numberOfBytes": "32"
      }
    }
  }
}