{
  "address": "0xBc903cD94e162e06e6Cd926fcA5CFFA9D1D8d2cE",
  "abi": [
    {
      "anonymous": false,
      "inputs": [
        {
          "indexed": true,
          "internalType": "uint24",
          "name": "fee",
          "type": "uint24"
        },
        {
          "indexed": true,
          "internalType": "int24",
          "name": "tickSpacing",
          "type": "int24"
        }
      ],
      "name": "FeeAmountEnabled",
      "type": "event"
    },
    {
      "anonymous": false,
      "inputs": [
        {
          "indexed": false,
          "internalType": "uint8",
          "name": "version",
          "type": "uint8"
        }
      ],
      "name": "Initialized",
      "type": "event"
    },
    {
      "anonymous": false,
      "inputs": [
        {
          "indexed": true,
          "internalType": "address",
          "name": "previousOwner",
          "type": "address"
        },
        {
          "indexed": true,
          "internalType": "address",
          "name": "newOwner",
          "type": "address"
        }
      ],
      "name": "OwnershipTransferred",
      "type": "event"
    },
    {
      "anonymous": false,
      "inputs": [
        {
          "indexed": true,
          "internalType": "address",
          "name": "token0",
          "type": "address"
        },
        {
          "indexed": true,
          "internalType": "address",
          "name": "token1",
          "type": "address"
        },
        {
          "indexed": true,
          "internalType": "uint24",
          "name": "fee",
          "type": "uint24"
        },
        {
          "indexed": false,
          "internalType": "int24",
          "name": "tickSpacing",
          "type": "int24"
        },
        {
          "indexed": false,
          "internalType": "address",
          "name": "pool",
          "type": "address"
        }
      ],
      "name": "PoolCreated",
      "type": "event"
    },
    {
      "anonymous": false,
      "inputs": [
        {
          "indexed": true,
          "internalType": "address",
          "name": "beaconImplementation",
          "type": "address"
        }
      ],
      "name": "Upgraded",
      "type": "event"
    },
    {
      "inputs": [
        {
          "internalType": "address",
          "name": "beaconImplementation_",
          "type": "address"
        }
      ],
      "name": "__UniswapV3FactoryUpgradeable_init",
      "outputs": [],
      "stateMutability": "nonpayable",
      "type": "function"
    },
    {
      "inputs": [
        {
          "internalType": "address",
          "name": "beaconImplementation_",
          "type": "address"
        }
      ],
      "name": "__UniswapV3PoolDeployerUpgradeable_init",
      "outputs": [],
      "stateMutability": "nonpayable",
      "type": "function"
    },
    {
      "inputs": [
        {
          "internalType": "address",
          "name": "beaconImplementation_",
          "type": "address"
        }
      ],
      "name": "__UpgradeableBeacon__init",
      "outputs": [],
      "stateMutability": "nonpayable",
      "type": "function"
    },
    {
      "inputs": [
        {
          "internalType": "address",
          "name": "tokenA",
          "type": "address"
        },
        {
          "internalType": "address",
          "name": "tokenB",
          "type": "address"
        },
        {
          "internalType": "uint24",
          "name": "fee",
          "type": "uint24"
        }
      ],
      "name": "createPool",
      "outputs": [
        {
          "internalType": "address",
          "name": "pool",
          "type": "address"
        }
      ],
      "stateMutability": "nonpayable",
      "type": "function"
    },
    {
      "inputs": [
        {
          "internalType": "uint24",
          "name": "fee",
          "type": "uint24"
        },
        {
          "internalType": "int24",
          "name": "tickSpacing",
          "type": "int24"
        }
      ],
      "name": "enableFeeAmount",
      "outputs": [],
      "stateMutability": "nonpayable",
      "type": "function"
    },
    {
      "inputs": [
        {
          "internalType": "uint24",
          "name": "",
          "type": "uint24"
        }
      ],
      "name": "feeAmountTickSpacing",
      "outputs": [
        {
          "internalType": "int24",
          "name": "",
          "type": "int24"
        }
      ],
      "stateMutability": "view",
      "type": "function"
    },
    {
      "inputs": [],
      "name": "feeDistributor",
      "outputs": [
        {
          "internalType": "address",
          "name": "",
          "type": "address"
        }
      ],
      "stateMutability": "view",
      "type": "function"
    },
    {
      "inputs": [
        {
          "internalType": "address",
          "name": "",
          "type": "address"
        },
        {
          "internalType": "address",
          "name": "",
          "type": "address"
        },
        {
          "internalType": "uint24",
          "name": "",
          "type": "uint24"
        }
      ],
      "name": "getPool",
      "outputs": [
        {
          "internalType": "address",
          "name": "",
          "type": "address"
        }
      ],
      "stateMutability": "view",
      "type": "function"
    },
    {
      "inputs": [],
      "name": "implementation",
      "outputs": [
        {
          "internalType": "address",
          "name": "",
          "type": "address"
        }
      ],
      "stateMutability": "view",
      "type": "function"
    },
    {
      "inputs": [],
      "name": "owner",
      "outputs": [
        {
          "internalType": "address",
          "name": "",
          "type": "address"
        }
      ],
      "stateMutability": "view",
      "type": "function"
    },
    {
      "inputs": [],
      "name": "renounceOwnership",
      "outputs": [],
      "stateMutability": "nonpayable",
      "type": "function"
    },
    {
      "inputs": [
        {
          "internalType": "address",
          "name": "feeDistributor_",
          "type": "address"
        }
      ],
      "name": "setFeeDistributor",
      "outputs": [],
      "stateMutability": "nonpayable",
      "type": "function"
    },
    {
      "inputs": [
        {
          "internalType": "address",
          "name": "newOwner",
          "type": "address"
        }
      ],
      "name": "transferOwnership",
      "outputs": [],
      "stateMutability": "nonpayable",
      "type": "function"
    },
    {
      "inputs": [
        {
          "internalType": "address",
          "name": "newBeaconImplementation",
          "type": "address"
        }
      ],
      "name": "upgradeBeaconTo",
      "outputs": [],
      "stateMutability": "nonpayable",
      "type": "function"
    }
  ],
  "transactionHash": "0xbeb4508b5f5a82d1746481427723b02a5a01db1f451bacc3908e14a602e6572f",
  "args": [],
  "numDeployments": 1,
  "solcInputHash": "657c7dfa87e94fbd1311f339ef5f8338",
  "bytecode": "0x608060405234801561001057600080fd5b506114c7806100206000396000f3fe60806040523480156200001157600080fd5b5060043610620000fd5760003560e01c80638a7c195f1162000097578063c2e83f24116200006e578063c2e83f24146200022e578063ccfc2e8d1462000245578063e5956027146200025c578063f2fde38b146200027357600080fd5b80638a7c195f14620001f65780638da5cb5b146200020d578063a1671295146200021757600080fd5b80632f11fdc311620000d85780632f11fdc314620001aa5780635c60da1b14620001c3578063715018a614620001d5578063881df84114620001df57600080fd5b80630d43e8ad14620001025780631698ee82146200013357806322afcccb1462000170575b600080fd5b60665462000116906001600160a01b031681565b6040516001600160a01b0390911681526020015b60405180910390f35b620001166200014436600462000bfa565b60686020908152600093845260408085208252928452828420905282529020546001600160a01b031681565b620001966200018136600462000c44565b60676020526000908152604090205460020b81565b60405160029190910b81526020016200012a565b620001c1620001bb36600462000c62565b6200028a565b005b6065546001600160a01b031662000116565b620001c1620002a2565b620001c1620001f036600462000c62565b620002ba565b620001c16200020736600462000c80565b620002f8565b62000116620003b3565b620001166200022836600462000bfa565b620003cd565b620001c16200023f36600462000c62565b6200055f565b620001c16200025636600462000c62565b620006e2565b620001c16200026d36600462000c62565b6200070e565b620001c16200028436600462000c62565b62000742565b62000294620007be565b6200029f8162000821565b50565b620002ac620007be565b620002b86000620008ea565b565b600054610100900460ff16620002ed5760405162461bcd60e51b8152600401620002e49062000cc1565b60405180910390fd5b6200029f816200070e565b62000302620007be565b620f42408262ffffff16106200031757600080fd5b60008160020b1380156200032f57506140008160020b125b6200033957600080fd5b62ffffff821660009081526067602052604090205460020b156200035c57600080fd5b62ffffff828116600081815260676020526040808220805462ffffff1916948616949094179093559151600284900b927fc66a3fdf07232cdd185febcc6579d408c241b47ae2f9907d84be655141eeaecc91a35050565b6000620003c86033546001600160a01b031690565b905090565b6000826001600160a01b0316846001600160a01b031603620003ee57600080fd5b600080846001600160a01b0316866001600160a01b0316106200041357848662000416565b85855b90925090506001600160a01b0382166200042f57600080fd5b62ffffff841660009081526067602052604081205460020b908190036200045557600080fd5b6001600160a01b0383811660009081526068602090815260408083208685168452825280832062ffffff8a16845290915290205416156200049557600080fd5b620004a430848488856200093c565b6001600160a01b03848116600081815260686020818152604080842089871680865290835281852062ffffff8e168087529084528286208054988a166001600160a01b0319998a1681179091558287529484528286208787528452828620818752845294829020805490971684179096558051600289900b81529182019290925294985090937f783cca1c0412dd0d695e784568c96da2e9c22ff989357a2e8b1d9b2b4e6b7118910160405180910390a45050509392505050565b600054610100900460ff1615808015620005805750600054600160ff909116105b806200059c5750303b1580156200059c575060005460ff166001145b620006015760405162461bcd60e51b815260206004820152602e60248201527f496e697469616c697a61626c653a20636f6e747261637420697320616c72656160448201526d191e481a5b9a5d1a585b1a5e995960921b6064820152608401620002e4565b6000805460ff19166001179055801562000625576000805461ff0019166101001790555b6200063082620002ba565b612710600081815260676020527f3802fd9a8c43c1aec2d4ebb0e441272d00b4901af4114cf3b21620700cc0df25805462ffffff191660c89081179091556040519092917fc66a3fdf07232cdd185febcc6579d408c241b47ae2f9907d84be655141eeaecc91a38015620006de576000805461ff0019169055604051600181527f7f26b83ff96e1f2b6a682f133852f6798a09c465da95921460cefb38474024989060200160405180910390a15b5050565b620006ec620007be565b606680546001600160a01b0319166001600160a01b0392909216919091179055565b600054610100900460ff16620007385760405162461bcd60e51b8152600401620002e49062000cc1565b6200029462000a41565b6200074c620007be565b6001600160a01b038116620007b35760405162461bcd60e51b815260206004820152602660248201527f4f776e61626c653a206e6577206f776e657220697320746865207a65726f206160448201526564647265737360d01b6064820152608401620002e4565b6200029f81620008ea565b33620007c9620003b3565b6001600160a01b031614620002b85760405162461bcd60e51b815260206004820181905260248201527f4f776e61626c653a2063616c6c6572206973206e6f7420746865206f776e65726044820152606401620002e4565b6001600160a01b0381163b620008a05760405162461bcd60e51b815260206004820152603960248201527f5570677261646561626c65426561636f6e3a206368696c6420696d706c656d6560448201527f6e746174696f6e206973206e6f74206120636f6e7472616374000000000000006064820152608401620002e4565b606580546001600160a01b0319166001600160a01b0383169081179091556040517fbc7cd75a20ee27fd9adebab32041f755214dbc6bffa90cc0225b39da2e5c2d3b90600090a250565b603380546001600160a01b038381166001600160a01b0319831681179093556040519116919082907f8be0079c531659141344cd1fd0a4f28419497f9722a3daafe3b4186f6b6457e090600090a35050565b604080516001600160a01b03808716602083015285169181019190915262ffffff83166060820152600090620009b29082906080016040516020818303038152906040528051906020012060405180602001620009999062000bbb565b601f1982820381018352601f9091011660405262000a75565b60405163857e49bf60e01b81526001600160a01b0388811660048301528781166024830152868116604483015262ffffff86166064830152600285900b60848301529192509082169063857e49bf9060a401600060405180830381600087803b15801562000a1f57600080fd5b505af115801562000a34573d6000803e3d6000fd5b5050505095945050505050565b600054610100900460ff1662000a6b5760405162461bcd60e51b8152600401620002e49062000cc1565b620002b862000b86565b60008347101562000ac95760405162461bcd60e51b815260206004820152601d60248201527f437265617465323a20696e73756666696369656e742062616c616e63650000006044820152606401620002e4565b815160000362000b1c5760405162461bcd60e51b815260206004820181905260248201527f437265617465323a2062797465636f6465206c656e677468206973207a65726f6044820152606401620002e4565b8282516020840186f590506001600160a01b03811662000b7f5760405162461bcd60e51b815260206004820152601960248201527f437265617465323a204661696c6564206f6e206465706c6f79000000000000006044820152606401620002e4565b9392505050565b600054610100900460ff1662000bb05760405162461bcd60e51b8152600401620002e49062000cc1565b620002b833620008ea565b6107ae8062000d0d83390190565b80356001600160a01b038116811462000be157600080fd5b919050565b803562ffffff8116811462000be157600080fd5b60008060006060848603121562000c1057600080fd5b62000c1b8462000bc9565b925062000c2b6020850162000bc9565b915062000c3b6040850162000be6565b90509250925092565b60006020828403121562000c5757600080fd5b62000b7f8262000be6565b60006020828403121562000c7557600080fd5b62000b7f8262000bc9565b6000806040838503121562000c9457600080fd5b62000c9f8362000be6565b915060208301358060020b811462000cb657600080fd5b809150509250929050565b6020808252602b908201527f496e697469616c697a61626c653a20636f6e7472616374206973206e6f74206960408201526a6e697469616c697a696e6760a81b60608201526080019056fe608060405261002f60017fa3f0ad74e5423aebfd80d3ef4346578335a9a72aeaee59ff6cb3582b35133d516103c1565b60008051602061076d8339815191521461004b5761004b6103e6565b61006a336040518060200160405280600081525061006f60201b60201c565b6104a0565b6100828261021b60201b6100291760201c565b6100e15760405162461bcd60e51b815260206004820152602560248201527f426561636f6e50726f78793a20626561636f6e206973206e6f74206120636f6e6044820152641d1c9858dd60da1b60648201526084015b60405180910390fd5b610155826001600160a01b0316635c60da1b6040518163ffffffff1660e01b8152600401602060405180830381865afa158015610122573d6000803e3d6000fd5b505050506040513d601f19601f8201168201806040525081019061014691906103fc565b61021b60201b6100291760201c565b6101c75760405162461bcd60e51b815260206004820152603460248201527f426561636f6e50726f78793a20626561636f6e20696d706c656d656e7461746960448201527f6f6e206973206e6f74206120636f6e747261637400000000000000000000000060648201526084016100d8565b60008051602061076d833981519152828155815115610216576102146101eb61022a565b8360405180606001604052806021815260200161078d602191396102a860201b6100381760201c565b505b505050565b6001600160a01b03163b151590565b600061024260008051602061076d8339815191525490565b6001600160a01b0316635c60da1b6040518163ffffffff1660e01b8152600401602060405180830381865afa15801561027f573d6000803e3d6000fd5b505050506040513d601f19601f820116820180604052508101906102a391906103fc565b905090565b60606001600160a01b0384163b6103105760405162461bcd60e51b815260206004820152602660248201527f416464726573733a2064656c65676174652063616c6c20746f206e6f6e2d636f6044820152651b9d1c9858dd60d21b60648201526084016100d8565b600080856001600160a01b03168560405161032b9190610451565b600060405180830381855af49150503d8060008114610366576040519150601f19603f3d011682016040523d82523d6000602084013e61036b565b606091505b50909250905061037c828286610388565b925050505b9392505050565b60608315610397575081610381565b8251156103a75782518084602001fd5b8160405162461bcd60e51b81526004016100d8919061046d565b6000828210156103e157634e487b7160e01b600052601160045260246000fd5b500390565b634e487b7160e01b600052600160045260246000fd5b60006020828403121561040e57600080fd5b81516001600160a01b038116811461038157600080fd5b60005b83811015610440578181015183820152602001610428565b838111156102145750506000910152565b60008251610463818460208701610425565b9190910192915050565b602081526000825180602084015261048c816040850160208701610425565b601f01601f19169190910160400192915050565b6102be806104af6000396000f3fe60806040523661001357610011610017565b005b6100115b61002761002261011c565b6101ac565b565b6001600160a01b03163b151590565b60606001600160a01b0384163b6100a55760405162461bcd60e51b815260206004820152602660248201527f416464726573733a2064656c65676174652063616c6c20746f206e6f6e2d636f6044820152651b9d1c9858dd60d21b60648201526084015b60405180910390fd5b600080856001600160a01b0316856040516100c09190610239565b600060405180830381855af49150503d80600081146100fb576040519150601f19603f3d011682016040523d82523d6000602084013e610100565b606091505b50915091506101108282866101d0565b925050505b9392505050565b60006101467fa3f0ad74e5423aebfd80d3ef4346578335a9a72aeaee59ff6cb3582b35133d505490565b6001600160a01b0316635c60da1b6040518163ffffffff1660e01b8152600401602060405180830381865afa158015610183573d6000803e3d6000fd5b505050506040513d601f19601f820116820180604052508101906101a79190610255565b905090565b3660008037600080366000845af43d6000803e8080156101cb573d6000f35b3d6000fd5b606083156101df575081610115565b8251156101ef5782518084602001fd5b8160405162461bcd60e51b815260040161009c919061027e565b60005b8381101561022457818101518382015260200161020c565b83811115610233576000848401525b50505050565b6000825161024b818460208701610209565b9190910192915050565b60006020828403121561026757600080fd5b81516001600160a01b038116811461011557600080fd5b602081526000825180602084015261029d816040850160208701610209565b601f01601f1916919091016040019291505056fea164736f6c634300080f000aa3f0ad74e5423aebfd80d3ef4346578335a9a72aeaee59ff6cb3582b35133d50426561636f6e50726f78793a2066756e6374696f6e2063616c6c206661696c6564a164736f6c634300080f000a"
}