{
  "address": "0x6eF7a22D6Fd2f481a10C2E3C09C081dd45790d00",
  "abi": [
    {
      "inputs": [],
      "name": "ChildImplementationIsNotAContract",
      "type": "error"
    },
    {
      "anonymous": false,
      "inputs": [
        {
          "indexed": true,
          "internalType": "uint24",
          "name": "fee",
          "type": "uint24"
        },
        {
          "indexed": true,
          "internalType": "int24",
          "name": "tickSpacing",
          "type": "int24"
        }
      ],
      "name": "FeeAmountEnabled",
      "type": "event"
    },
    {
      "anonymous": false,
      "inputs": [
        {
          "indexed": false,
          "internalType": "uint8",
          "name": "version",
          "type": "uint8"
        }
      ],
      "name": "Initialized",
      "type": "event"
    },
    {
      "anonymous": false,
      "inputs": [
        {
          "indexed": true,
          "internalType": "address",
          "name": "previousOwner",
          "type": "address"
        },
        {
          "indexed": true,
          "internalType": "address",
          "name": "newOwner",
          "type": "address"
        }
      ],
      "name": "OwnershipTransferred",
      "type": "event"
    },
    {
      "anonymous": false,
      "inputs": [
        {
          "indexed": true,
          "internalType": "address",
          "name": "token0",
          "type": "address"
        },
        {
          "indexed": true,
          "internalType": "address",
          "name": "token1",
          "type": "address"
        },
        {
          "indexed": true,
          "internalType": "uint24",
          "name": "fee",
          "type": "uint24"
        },
        {
          "indexed": false,
          "internalType": "int24",
          "name": "tickSpacing",
          "type": "int24"
        },
        {
          "indexed": false,
          "internalType": "address",
          "name": "pool",
          "type": "address"
        }
      ],
      "name": "PoolCreated",
      "type": "event"
    },
    {
      "anonymous": false,
      "inputs": [
        {
          "indexed": true,
          "internalType": "address",
          "name": "beaconImplementation",
          "type": "address"
        }
      ],
      "name": "Upgraded",
      "type": "event"
    },
    {
      "inputs": [
        {
          "internalType": "address",
          "name": "beaconImplementation_",
          "type": "address"
        },
        {
          "internalType": "uint16",
          "name": "rewardTierCardinality_",
          "type": "uint16"
        }
      ],
      "name": "__UniswapV3FactoryUpgradeable_init",
      "outputs": [],
      "stateMutability": "nonpayable",
      "type": "function"
    },
    {
      "inputs": [
        {
          "internalType": "address",
          "name": "beaconImplementation_",
          "type": "address"
        }
      ],
      "name": "__UniswapV3PoolDeployerUpgradeable_init",
      "outputs": [],
      "stateMutability": "nonpayable",
      "type": "function"
    },
    {
      "inputs": [
        {
          "internalType": "address",
          "name": "beaconImplementation_",
          "type": "address"
        }
      ],
      "name": "__UpgradeableBeacon__init",
      "outputs": [],
      "stateMutability": "nonpayable",
      "type": "function"
    },
    {
      "inputs": [
        {
          "internalType": "address",
          "name": "tokenA",
          "type": "address"
        },
        {
          "internalType": "address",
          "name": "tokenB",
          "type": "address"
        },
        {
          "internalType": "uint24",
          "name": "fee",
          "type": "uint24"
        }
      ],
      "name": "createPool",
      "outputs": [
        {
          "internalType": "address",
          "name": "pool",
          "type": "address"
        }
      ],
      "stateMutability": "nonpayable",
      "type": "function"
    },
    {
      "inputs": [
        {
          "internalType": "uint24",
          "name": "fee",
          "type": "uint24"
        },
        {
          "internalType": "int24",
          "name": "tickSpacing",
          "type": "int24"
        }
      ],
      "name": "enableFeeAmount",
      "outputs": [],
      "stateMutability": "nonpayable",
      "type": "function"
    },
    {
      "inputs": [
        {
          "internalType": "uint24",
          "name": "",
          "type": "uint24"
        }
      ],
      "name": "feeAmountTickSpacing",
      "outputs": [
        {
          "internalType": "int24",
          "name": "",
          "type": "int24"
        }
      ],
      "stateMutability": "view",
      "type": "function"
    },
    {
      "inputs": [],
      "name": "feeDistributor",
      "outputs": [
        {
          "internalType": "address",
          "name": "",
          "type": "address"
        }
      ],
      "stateMutability": "view",
      "type": "function"
    },
    {
      "inputs": [
        {
          "internalType": "address",
          "name": "",
          "type": "address"
        },
        {
          "internalType": "address",
          "name": "",
          "type": "address"
        },
        {
          "internalType": "uint24",
          "name": "",
          "type": "uint24"
        }
      ],
      "name": "getPool",
      "outputs": [
        {
          "internalType": "address",
          "name": "",
          "type": "address"
        }
      ],
      "stateMutability": "view",
      "type": "function"
    },
    {
      "inputs": [],
      "name": "implementation",
      "outputs": [
        {
          "internalType": "address",
          "name": "",
          "type": "address"
        }
      ],
      "stateMutability": "view",
      "type": "function"
    },
    {
      "inputs": [],
      "name": "owner",
      "outputs": [
        {
          "internalType": "address",
          "name": "",
          "type": "address"
        }
      ],
      "stateMutability": "view",
      "type": "function"
    },
    {
      "inputs": [],
      "name": "renounceOwnership",
      "outputs": [],
      "stateMutability": "nonpayable",
      "type": "function"
    },
    {
      "inputs": [],
      "name": "rewardTierCardinality",
      "outputs": [
        {
          "internalType": "uint16",
          "name": "",
          "type": "uint16"
        }
      ],
      "stateMutability": "view",
      "type": "function"
    },
    {
      "inputs": [
        {
          "internalType": "address",
          "name": "feeDistributor_",
          "type": "address"
        }
      ],
      "name": "setFeeDistributor",
      "outputs": [],
      "stateMutability": "nonpayable",
      "type": "function"
    },
    {
      "inputs": [
        {
          "internalType": "uint16",
          "name": "rewardTierCardinality_",
          "type": "uint16"
        }
      ],
      "name": "setRewardTierCardinality",
      "outputs": [],
      "stateMutability": "nonpayable",
      "type": "function"
    },
    {
      "inputs": [
        {
          "internalType": "address",
          "name": "newOwner",
          "type": "address"
        }
      ],
      "name": "transferOwnership",
      "outputs": [],
      "stateMutability": "nonpayable",
      "type": "function"
    },
    {
      "inputs": [
        {
          "internalType": "address",
          "name": "newBeaconImplementation",
          "type": "address"
        }
      ],
      "name": "upgradeBeaconTo",
      "outputs": [],
      "stateMutability": "nonpayable",
      "type": "function"
    }
  ],
  "transactionHash": "0x204fda616f1fbf7fbf14467c71fa93a48b7691d95e5395e5d7937d0a7f3b535f",
  "args": [],
  "numDeployments": 1,
  "solcInputHash": "1a026e3a73b34be4e4c8388e8f373078",
  "bytecode": "0x608060405234801561001057600080fd5b5061159b806100206000396000f3fe60806040523480156200001157600080fd5b5060043610620001155760003560e01c80638a7c195f11620000a3578063c93337ef116200006e578063c93337ef1462000280578063ccfc2e8d1462000297578063e595602714620002ae578063f2fde38b14620002c557600080fd5b80638a7c195f14620002315780638da5cb5b1462000248578063a16712951462000252578063c925d6b5146200026957600080fd5b80632f11fdc311620000e45780632f11fdc314620001e55780635c60da1b14620001fe578063715018a61462000210578063881df841146200021a57600080fd5b80630d43e8ad146200011a5780631698ee82146200014b57806322afcccb14620001885780632a3156f614620001c2575b600080fd5b6066546200012e906001600160a01b031681565b6040516001600160a01b0390911681526020015b60405180910390f35b6200012e6200015c36600462000cce565b60686020908152600093845260408085208252928452828420905282529020546001600160a01b031681565b620001ae6200019936600462000d1c565b60676020526000908152604090205460020b81565b60405160029190910b815260200162000142565b606954620001d19061ffff1681565b60405161ffff909116815260200162000142565b620001fc620001f636600462000d3c565b620002dc565b005b6065546001600160a01b03166200012e565b620001fc620002f4565b620001fc6200022b36600462000d3c565b6200030c565b620001fc6200024236600462000d5a565b6200034a565b6200012e62000405565b6200012e6200026336600462000cce565b6200041f565b620001fc6200027a36600462000db1565b6200064b565b620001fc6200029136600462000dcf565b6200066d565b620001fc620002a836600462000d3c565b62000803565b620001fc620002bf36600462000d3c565b6200082f565b620001fc620002d636600462000d3c565b62000863565b620002e6620008df565b620002f18162000942565b50565b620002fe620008df565b6200030a6000620009b5565b565b600054610100900460ff166200033f5760405162461bcd60e51b8152600401620003369062000e07565b60405180910390fd5b620002f1816200082f565b62000354620008df565b620f42408262ffffff16106200036957600080fd5b60008160020b1380156200038157506140008160020b125b6200038b57600080fd5b62ffffff821660009081526067602052604090205460020b15620003ae57600080fd5b62ffffff828116600081815260676020526040808220805462ffffff1916948616949094179093559151600284900b927fc66a3fdf07232cdd185febcc6579d408c241b47ae2f9907d84be655141eeaecc91a35050565b60006200041a6033546001600160a01b031690565b905090565b6000826001600160a01b0316846001600160a01b0316036200044057600080fd5b600080846001600160a01b0316866001600160a01b0316106200046557848662000468565b85855b90925090506001600160a01b0382166200048157600080fd5b62ffffff841660009081526067602052604081205460020b90819003620004a757600080fd5b6001600160a01b0383811660009081526068602090815260408083208685168452825280832062ffffff8a1684529091529020541615620004e757600080fd5b6200059030848488858a62ffffff16606660009054906101000a90046001600160a01b03166001600160a01b03166334c53b896040518163ffffffff1660e01b8152600401602060405180830381865afa1580156200054a573d6000803e3d6000fd5b505050506040513d601f19601f8201168201806040525081019062000570919062000e52565b62ffffff16146200058357600162000a07565b60695461ffff1662000a07565b6001600160a01b03848116600081815260686020818152604080842089871680865290835281852062ffffff8e168087529084528286208054988a166001600160a01b0319998a1681179091558287529484528286208787528452828620818752845294829020805490971684179096558051600289900b81529182019290925294985090937f783cca1c0412dd0d695e784568c96da2e9c22ff989357a2e8b1d9b2b4e6b7118910160405180910390a45050509392505050565b62000655620008df565b6069805461ffff191661ffff92909216919091179055565b600054610100900460ff16158080156200068e5750600054600160ff909116105b80620006aa5750303b158015620006aa575060005460ff166001145b6200070f5760405162461bcd60e51b815260206004820152602e60248201527f496e697469616c697a61626c653a20636f6e747261637420697320616c72656160448201526d191e481a5b9a5d1a585b1a5e995960921b606482015260840162000336565b6000805460ff19166001179055801562000733576000805461ff0019166101001790555b6200073e836200030c565b6069805461ffff191661ffff8416179055612710600081815260676020527f3802fd9a8c43c1aec2d4ebb0e441272d00b4901af4114cf3b21620700cc0df25805460c862ffffff1990911681179091556040519092917fc66a3fdf07232cdd185febcc6579d408c241b47ae2f9907d84be655141eeaecc91a38015620007fe576000805461ff0019169055604051600181527f7f26b83ff96e1f2b6a682f133852f6798a09c465da95921460cefb38474024989060200160405180910390a15b505050565b6200080d620008df565b606680546001600160a01b0319166001600160a01b0392909216919091179055565b600054610100900460ff16620008595760405162461bcd60e51b8152600401620003369062000e07565b620002e662000b17565b6200086d620008df565b6001600160a01b038116620008d45760405162461bcd60e51b815260206004820152602660248201527f4f776e61626c653a206e6577206f776e657220697320746865207a65726f206160448201526564647265737360d01b606482015260840162000336565b620002f181620009b5565b33620008ea62000405565b6001600160a01b0316146200030a5760405162461bcd60e51b815260206004820181905260248201527f4f776e61626c653a2063616c6c6572206973206e6f7420746865206f776e6572604482015260640162000336565b6001600160a01b0381163b6200096b5760405163935304fd60e01b815260040160405180910390fd5b606580546001600160a01b0319166001600160a01b0383169081179091556040517fbc7cd75a20ee27fd9adebab32041f755214dbc6bffa90cc0225b39da2e5c2d3b90600090a250565b603380546001600160a01b038381166001600160a01b0319831681179093556040519116919082907f8be0079c531659141344cd1fd0a4f28419497f9722a3daafe3b4186f6b6457e090600090a35050565b604080516001600160a01b03808816602083015286169181019190915262ffffff8416606082015260009062000a7d908290608001604051602081830303815290604052805190602001206040518060200162000a649062000c91565b601f1982820381018352601f9091011660405262000b4b565b6040516341b8a88560e01b81526001600160a01b0389811660048301528881166024830152878116604483015262ffffff87166064830152600286900b608483015261ffff851660a4830152919250908216906341b8a8859060c401600060405180830381600087803b15801562000af457600080fd5b505af115801562000b09573d6000803e3d6000fd5b505050509695505050505050565b600054610100900460ff1662000b415760405162461bcd60e51b8152600401620003369062000e07565b6200030a62000c5c565b60008347101562000b9f5760405162461bcd60e51b815260206004820152601d60248201527f437265617465323a20696e73756666696369656e742062616c616e6365000000604482015260640162000336565b815160000362000bf25760405162461bcd60e51b815260206004820181905260248201527f437265617465323a2062797465636f6465206c656e677468206973207a65726f604482015260640162000336565b8282516020840186f590506001600160a01b03811662000c555760405162461bcd60e51b815260206004820152601960248201527f437265617465323a204661696c6564206f6e206465706c6f7900000000000000604482015260640162000336565b9392505050565b600054610100900460ff1662000c865760405162461bcd60e51b8152600401620003369062000e07565b6200030a33620009b5565b61071c8062000e7383390190565b80356001600160a01b038116811462000cb757600080fd5b919050565b62ffffff81168114620002f157600080fd5b60008060006060848603121562000ce457600080fd5b62000cef8462000c9f565b925062000cff6020850162000c9f565b9150604084013562000d118162000cbc565b809150509250925092565b60006020828403121562000d2f57600080fd5b813562000c558162000cbc565b60006020828403121562000d4f57600080fd5b62000c558262000c9f565b6000806040838503121562000d6e57600080fd5b823562000d7b8162000cbc565b91506020830135600281900b811462000d9357600080fd5b809150509250929050565b803561ffff8116811462000cb757600080fd5b60006020828403121562000dc457600080fd5b62000c558262000d9e565b6000806040838503121562000de357600080fd5b62000dee8362000c9f565b915062000dfe6020840162000d9e565b90509250929050565b6020808252602b908201527f496e697469616c697a61626c653a20636f6e7472616374206973206e6f74206960408201526a6e697469616c697a696e6760a81b606082015260800190565b60006020828403121562000e6557600080fd5b815162000c558162000cbc56fe608060405261002f60017fa3f0ad74e5423aebfd80d3ef4346578335a9a72aeaee59ff6cb3582b35133d5161032f565b6000805160206106db8339815191521461004b5761004b610354565b61006a336040518060200160405280600081525061006f60201b60201c565b61040e565b6100828261018460201b6100291760201c565b61009f57604051635ad16b6160e11b815260040160405180910390fd5b610113826001600160a01b0316635c60da1b6040518163ffffffff1660e01b8152600401602060405180830381865afa1580156100e0573d6000803e3d6000fd5b505050506040513d601f19601f82011682018060405250810190610104919061036a565b61018460201b6100291760201c565b610130576040516361e56ea960e01b815260040160405180910390fd5b6000805160206106db83398151915282815581511561017f5761017d610154610193565b836040518060600160405280602181526020016106fb6021913961021160201b6100381760201c565b505b505050565b6001600160a01b03163b151590565b60006101ab6000805160206106db8339815191525490565b6001600160a01b0316635c60da1b6040518163ffffffff1660e01b8152600401602060405180830381865afa1580156101e8573d6000803e3d6000fd5b505050506040513d601f19601f8201168201806040525081019061020c919061036a565b905090565b60606001600160a01b0384163b61027e5760405162461bcd60e51b815260206004820152602660248201527f416464726573733a2064656c65676174652063616c6c20746f206e6f6e2d636f6044820152651b9d1c9858dd60d21b60648201526084015b60405180910390fd5b600080856001600160a01b03168560405161029991906103bf565b600060405180830381855af49150503d80600081146102d4576040519150601f19603f3d011682016040523d82523d6000602084013e6102d9565b606091505b5090925090506102ea8282866102f6565b925050505b9392505050565b606083156103055750816102ef565b8251156103155782518084602001fd5b8160405162461bcd60e51b815260040161027591906103db565b60008282101561034f57634e487b7160e01b600052601160045260246000fd5b500390565b634e487b7160e01b600052600160045260246000fd5b60006020828403121561037c57600080fd5b81516001600160a01b03811681146102ef57600080fd5b60005b838110156103ae578181015183820152602001610396565b8381111561017d5750506000910152565b600082516103d1818460208701610393565b9190910192915050565b60208152600082518060208401526103fa816040850160208701610393565b601f01601f19169190910160400192915050565b6102be8061041d6000396000f3fe60806040523661001357610011610017565b005b6100115b61002761002261011c565b6101ac565b565b6001600160a01b03163b151590565b60606001600160a01b0384163b6100a55760405162461bcd60e51b815260206004820152602660248201527f416464726573733a2064656c65676174652063616c6c20746f206e6f6e2d636f6044820152651b9d1c9858dd60d21b60648201526084015b60405180910390fd5b600080856001600160a01b0316856040516100c09190610239565b600060405180830381855af49150503d80600081146100fb576040519150601f19603f3d011682016040523d82523d6000602084013e610100565b606091505b50915091506101108282866101d0565b925050505b9392505050565b60006101467fa3f0ad74e5423aebfd80d3ef4346578335a9a72aeaee59ff6cb3582b35133d505490565b6001600160a01b0316635c60da1b6040518163ffffffff1660e01b8152600401602060405180830381865afa158015610183573d6000803e3d6000fd5b505050506040513d601f19601f820116820180604052508101906101a79190610255565b905090565b3660008037600080366000845af43d6000803e8080156101cb573d6000f35b3d6000fd5b606083156101df575081610115565b8251156101ef5782518084602001fd5b8160405162461bcd60e51b815260040161009c919061027e565b60005b8381101561022457818101518382015260200161020c565b83811115610233576000848401525b50505050565b6000825161024b818460208701610209565b9190910192915050565b60006020828403121561026757600080fd5b81516001600160a01b038116811461011557600080fd5b602081526000825180602084015261029d816040850160208701610209565b601f01601f1916919091016040019291505056fea164736f6c634300080f000aa3f0ad74e5423aebfd80d3ef4346578335a9a72aeaee59ff6cb3582b35133d50426561636f6e50726f78793a2066756e6374696f6e2063616c6c206661696c6564a164736f6c634300080f000a"
}