{
  "address": "0x81D7bF1C11a3Cb21EFb4bFfB58866193fAd15DB9",
  "abi": [
    {
      "inputs": [],
      "stateMutability": "nonpayable",
      "type": "constructor"
    },
    {
      "anonymous": false,
      "inputs": [
        {
          "indexed": true,
          "internalType": "uint24",
          "name": "fee",
          "type": "uint24"
        },
        {
          "indexed": true,
          "internalType": "int24",
          "name": "tickSpacing",
          "type": "int24"
        }
      ],
      "name": "FeeAmountEnabled",
      "type": "event"
    },
    {
      "anonymous": false,
      "inputs": [
        {
          "indexed": true,
          "internalType": "address",
          "name": "oldOwner",
          "type": "address"
        },
        {
          "indexed": true,
          "internalType": "address",
          "name": "newOwner",
          "type": "address"
        }
      ],
      "name": "OwnerChanged",
      "type": "event"
    },
    {
      "anonymous": false,
      "inputs": [
        {
          "indexed": true,
          "internalType": "address",
          "name": "token0",
          "type": "address"
        },
        {
          "indexed": true,
          "internalType": "address",
          "name": "token1",
          "type": "address"
        },
        {
          "indexed": true,
          "internalType": "uint24",
          "name": "fee",
          "type": "uint24"
        },
        {
          "indexed": false,
          "internalType": "int24",
          "name": "tickSpacing",
          "type": "int24"
        },
        {
          "indexed": false,
          "internalType": "address",
          "name": "pool",
          "type": "address"
        }
      ],
      "name": "PoolCreated",
      "type": "event"
    },
    {
      "inputs": [
        {
          "internalType": "address",
          "name": "tokenA",
          "type": "address"
        },
        {
          "internalType": "address",
          "name": "tokenB",
          "type": "address"
        },
        {
          "internalType": "uint24",
          "name": "fee",
          "type": "uint24"
        }
      ],
      "name": "createPool",
      "outputs": [
        {
          "internalType": "address",
          "name": "pool",
          "type": "address"
        }
      ],
      "stateMutability": "nonpayable",
      "type": "function"
    },
    {
      "inputs": [
        {
          "internalType": "uint24",
          "name": "fee",
          "type": "uint24"
        },
        {
          "internalType": "int24",
          "name": "tickSpacing",
          "type": "int24"
        }
      ],
      "name": "enableFeeAmount",
      "outputs": [],
      "stateMutability": "nonpayable",
      "type": "function"
    },
    {
      "inputs": [
        {
          "internalType": "uint24",
          "name": "",
          "type": "uint24"
        }
      ],
      "name": "feeAmountTickSpacing",
      "outputs": [
        {
          "internalType": "int24",
          "name": "",
          "type": "int24"
        }
      ],
      "stateMutability": "view",
      "type": "function"
    },
    {
      "inputs": [],
      "name": "feeDistributor",
      "outputs": [
        {
          "internalType": "address",
          "name": "",
          "type": "address"
        }
      ],
      "stateMutability": "view",
      "type": "function"
    },
    {
      "inputs": [
        {
          "internalType": "address",
          "name": "",
          "type": "address"
        },
        {
          "internalType": "address",
          "name": "",
          "type": "address"
        },
        {
          "internalType": "uint24",
          "name": "",
          "type": "uint24"
        }
      ],
      "name": "getPool",
      "outputs": [
        {
          "internalType": "address",
          "name": "",
          "type": "address"
        }
      ],
      "stateMutability": "view",
      "type": "function"
    },
    {
      "inputs": [],
      "name": "owner",
      "outputs": [
        {
          "internalType": "address",
          "name": "",
          "type": "address"
        }
      ],
      "stateMutability": "view",
      "type": "function"
    },
    {
      "inputs": [],
      "name": "parameters",
      "outputs": [
        {
          "internalType": "address",
          "name": "factory",
          "type": "address"
        },
        {
          "internalType": "address",
          "name": "token0",
          "type": "address"
        },
        {
          "internalType": "address",
          "name": "token1",
          "type": "address"
        },
        {
          "internalType": "uint24",
          "name": "fee",
          "type": "uint24"
        },
        {
          "internalType": "int24",
          "name": "tickSpacing",
          "type": "int24"
        }
      ],
      "stateMutability": "view",
      "type": "function"
    },
    {
      "inputs": [
        {
          "internalType": "address",
          "name": "feeDistributor_",
          "type": "address"
        }
      ],
      "name": "setFeeDistributor",
      "outputs": [],
      "stateMutability": "nonpayable",
      "type": "function"
    },
    {
      "inputs": [
        {
          "internalType": "address",
          "name": "_owner",
          "type": "address"
        }
      ],
      "name": "setOwner",
      "outputs": [],
      "stateMutability": "nonpayable",
      "type": "function"
    }
  ],
  "transactionHash": "0x330c0e8a5d8861bb9bfab6bd27acecb5b7791abccaa22baea7d069cbec746b1d",
  "args": [],
  "numDeployments": 1,
  "solcInputHash": "aa4383e879c89f4aa3efa82ca4326426",
  "bytecode": "0x608060405234801561001057600080fd5b50600380546001600160a01b031916339081179091556040516000907fb532073b38c83145e3e5135377a08bf9aab55bc0fd7c1179cd4fb995d2a5159c908290a3612710600081815260056020527f4b632c5a4ef6f776d7578f74fb35c8372275e5c1cfdfcda32b7cd51134d0fd7e805462ffffff191660c89081179091556040519092917fc66a3fdf07232cdd185febcc6579d408c241b47ae2f9907d84be655141eeaecc91a3615ff5806100c76000396000f3fe608060405234801561001057600080fd5b50600436106100935760003560e01c80638903573011610066578063890357301461014d5780638a7c195f146101c95780638da5cb5b146101dc578063a1671295146101ef578063ccfc2e8d1461020257600080fd5b80630d43e8ad1461009857806313af4035146100c85780631698ee82146100dd57806322afcccb14610117575b600080fd5b6004546100ab906001600160a01b031681565b6040516001600160a01b0390911681526020015b60405180910390f35b6100db6100d6366004610688565b610215565b005b6100ab6100eb3660046106bd565b60066020908152600093845260408085208252928452828420905282529020546001600160a01b031681565b61013a610125366004610700565b60056020526000908152604090205460020b81565b60405160029190910b81526020016100bf565b60005460015460028054610188936001600160a01b03908116938116929082169162ffffff600160a01b82041691600160b81b909104900b85565b604080516001600160a01b0396871681529486166020860152929094169183019190915262ffffff16606082015260029190910b608082015260a0016100bf565b6100db6101d736600461071b565b610288565b6003546100ab906001600160a01b031681565b6100ab6101fd3660046106bd565b61034c565b6100db610210366004610688565b6104d6565b6003546001600160a01b0316331461022c57600080fd5b6003546040516001600160a01b038084169216907fb532073b38c83145e3e5135377a08bf9aab55bc0fd7c1179cd4fb995d2a5159c90600090a3600380546001600160a01b0319166001600160a01b0392909216919091179055565b6003546001600160a01b0316331461029f57600080fd5b620f42408262ffffff16106102b357600080fd5b60008160020b1380156102ca57506140008160020b125b6102d357600080fd5b62ffffff821660009081526005602052604090205460020b156102f557600080fd5b62ffffff828116600081815260056020526040808220805462ffffff1916948616949094179093559151600284900b927fc66a3fdf07232cdd185febcc6579d408c241b47ae2f9907d84be655141eeaecc91a35050565b6000826001600160a01b0316846001600160a01b03160361036c57600080fd5b600080846001600160a01b0316866001600160a01b03161061038f578486610392565b85855b90925090506001600160a01b0382166103aa57600080fd5b62ffffff841660009081526005602052604081205460020b908190036103cf57600080fd5b6001600160a01b0383811660009081526006602090815260408083208685168452825280832062ffffff8a168452909152902054161561040e57600080fd5b61041b308484888561050f565b6001600160a01b03848116600081815260066020818152604080842089871680865290835281852062ffffff8e168087529084528286208054988a166001600160a01b0319998a1681179091558287529484528286208787528452828620818752845294829020805490971684179096558051600289900b81529182019290925294985090937f783cca1c0412dd0d695e784568c96da2e9c22ff989357a2e8b1d9b2b4e6b7118910160405180910390a45050509392505050565b6003546001600160a01b031633146104ed57600080fd5b600480546001600160a01b0319166001600160a01b0392909216919091179055565b6040805160a0810182526001600160a01b03878116808352878216602080850182905292881684860181905262ffffff888116606080880182905260028a810b6080998a0152600080546001600160a01b03199081169098178155600180549098168717909755805476ffffffffffffffffffffffffffffffffffffffffffffff19168517600160a01b84021762ffffff60b81b1916600160b81b948c169490940293909317909255875195860193909352958401529382019390935201604051602081830303815290604052805190602001206040516105ef9061065e565b8190604051809103906000f590508015801561060f573d6000803e3d6000fd5b50600080546001600160a01b0319908116909155600180549091169055600280547fffffffffffff00000000000000000000000000000000000000000000000000001690559695505050505050565b615890806200075983390190565b80356001600160a01b038116811461068357600080fd5b919050565b60006020828403121561069a57600080fd5b6106a38261066c565b9392505050565b803562ffffff8116811461068357600080fd5b6000806000606084860312156106d257600080fd5b6106db8461066c565b92506106e96020850161066c565b91506106f7604085016106aa565b90509250925092565b60006020828403121561071257600080fd5b6106a3826106aa565b6000806040838503121561072e57600080fd5b610737836106aa565b915060208301358060020b811461074d57600080fd5b80915050925092905056fe6101406040523480156200001257600080fd5b506000336001600160a01b031663890357306040518163ffffffff1660e01b815260040160a060405180830381865afa15801562000054573d6000803e3d6000fd5b505050506040513d601f19601f820116820180604052508101906200007a919062000181565b62ffffff9190911660e0526001600160a01b0391821660c05291811660a05291909116608052600281900b610100529050620000c281620000d6602090811b6200264817901c565b6001600160801b031661012052506200021b565b60008082600281900b620d89e71981620000f457620000f462000205565b05029050600083600281900b620d89e88162000114576200011462000205565b0502905060008460020b83830360020b8162000134576200013462000205565b0560010190508062ffffff166001600160801b038016816200015a576200015a62000205565b0495945050505050565b80516001600160a01b03811681146200017c57600080fd5b919050565b600080600080600060a086880312156200019a57600080fd5b620001a58662000164565b9450620001b56020870162000164565b9350620001c56040870162000164565b9250606086015162ffffff81168114620001de57600080fd5b8092505060808601518060020b8114620001f757600080fd5b809150509295509295909350565b634e487b7160e01b600052601260045260246000fd5b60805160a05160c05160e0516101005161012051615592620002fe60003960008181610490015281816142a201526142d901526000818161058c01528181610a070152818161430d015261433f0152600081816105ed01528181610b05015281816116c801526116ff0152600081816105c6015281816110e30152818161178201528181611b65015281816120e001526136520152600081816101c3015281816111b90152818161175101528181611aff0152818161205a015261353c01526000818161056501528181611c1001528181611d5b0152611f1301526155926000f3fe608060405234801561001057600080fd5b50600436106101b95760003560e01c806370cf754a116100f9578063c45a015511610097578063ddca3f4311610071578063ddca3f43146105e8578063f305839914610623578063f30dba931461062c578063f637731d1461070057600080fd5b8063c45a015514610560578063d0c93a7c14610587578063d21220a7146105c157600080fd5b806385b66729116100d357806385b66729146104d8578063883bdbfd146104eb578063a34123a71461050c578063a38807f21461051f57600080fd5b806370cf754a1461048b5780637b4beb21146104b25780638206a4d1146104c557600080fd5b80633850c7bd11610166578063490e6cbc11610140578063490e6cbc146103c45780634f1eb3d8146103d7578063514ea4bf146103ea5780635339c2961461046b57600080fd5b80633850c7bd146102f55780633c8a7d8d1461039a57806346141319146103ad57600080fd5b80631ad8b03b116101975780631ad8b03b14610255578063252c09d71461029357806332148f67146102e057600080fd5b80630dfe1681146101be578063128acb08146102025780631a6865021461022a575b600080fd5b6101e57f000000000000000000000000000000000000000000000000000000000000000081565b6040516001600160a01b0390911681526020015b60405180910390f35b610215610210366004614ddd565b610713565b604080519283526020830191909152016101f9565b60045461023d906001600160801b031681565b6040516001600160801b0390911681526020016101f9565b600354610273906001600160801b0380821691600160801b90041682565b604080516001600160801b039384168152929091166020830152016101f9565b6102a66102a1366004614e62565b611319565b6040805163ffffffff909516855260069390930b60208501526001600160a01b0390911691830191909152151560608201526080016101f9565b6102f36102ee366004614e7b565b61135e565b005b600054610349906001600160a01b03811690600160a01b810460020b9061ffff600160b81b8204811691600160c81b8104821691600160d81b8204169060ff600160e81b8204811691600160f01b90041687565b604080516001600160a01b03909816885260029690960b602088015261ffff94851695870195909552918316606086015291909116608084015260ff1660a0830152151560c082015260e0016101f9565b6102156103a8366004614ec8565b611432565b6103b660025481565b6040519081526020016101f9565b6102f36103d2366004614f16565b61165f565b6102736103e5366004614f80565b611a0e565b6104356103f8366004614e62565b60076020526000908152604090208054600182015460028301546003909301546001600160801b0392831693919281811691600160801b90041685565b604080516001600160801b039687168152602081019590955284019290925283166060830152909116608082015260a0016101f9565b6103b6610479366004614fe7565b60066020526000908152604090205481565b61023d7f000000000000000000000000000000000000000000000000000000000000000081565b6102f36104c036600461500a565b611c0e565b6102f36104d336600461504b565b611d0a565b6102736104e636600461507e565b611ebf565b6104fe6104f93660046150c3565b612176565b6040516101f9929190615138565b61021561051a3660046151bf565b6121f5565b61053261052d3660046151eb565b61234e565b6040805160069490940b84526001600160a01b03909216602084015263ffffffff16908201526060016101f9565b6101e57f000000000000000000000000000000000000000000000000000000000000000081565b6105ae7f000000000000000000000000000000000000000000000000000000000000000081565b60405160029190910b81526020016101f9565b6101e57f000000000000000000000000000000000000000000000000000000000000000081565b61060f7f000000000000000000000000000000000000000000000000000000000000000081565b60405162ffffff90911681526020016101f9565b6103b660015481565b6106a461063a366004615215565b60056020526000908152604090208054600182015460028301546003909301546001600160801b03831693600160801b909304600f0b9290600681900b90600160381b81046001600160a01b031690600160d81b810463ffffffff1690600160f81b900460ff1688565b604080516001600160801b039099168952600f9790970b602089015295870194909452606086019290925260060b60808501526001600160a01b031660a084015263ffffffff1660c0830152151560e0820152610100016101f9565b6102f361070e366004615230565b612521565b6000808560000361073657604051627ffe0360e31b815260040160405180910390fd5b6040805160e0810182526000546001600160a01b0381168252600160a01b810460020b602083015261ffff600160b81b8204811693830193909352600160c81b810483166060830152600160d81b8104909216608082015260ff600160e81b8304811660a0830152600160f01b909204909116151560c082018190526107cf576040516350dfbc4360e11b815260040160405180910390fd5b8761081a5780600001516001600160a01b0316866001600160a01b0316118015610815575073fffd8963efd1fc6a506488495d951d5263988d266001600160a01b038716105b61084c565b80600001516001600160a01b0316866001600160a01b031610801561084c57506401000276a36001600160a01b038716115b6108825760405162461bcd60e51b815260206004820152600360248201526214d41360ea1b604482015260640160405180910390fd5b6000805460ff60f01b191681556040805160c08101909152808a6108b15760048460a0015160ff16901c6108c2565b60108460a001516108c29190615263565b60ff1681526004546001600160801b031660208201526040014263ffffffff168152602001600060060b815260200160006001600160a01b031681526020016000151581525090506000808913905060006040518060e001604052808b81526020016000815260200185600001516001600160a01b03168152602001856020015160020b81526020018c6109585760025461095c565b6001545b815260200160006001600160801b0316815260200184602001516001600160801b031681525090505b8051158015906109ab5750886001600160a01b031681604001516001600160a01b031614155b15610ed9576040805160e081018252600080825260208201819052918101829052606081018290526080810182905260a0810182905260c081019190915260408201516001600160a01b031681526060820151610a2c906006907f00000000000000000000000000000000000000000000000000000000000000008f6126ca565b1515604083015260020b60208201819052620d89e7191315610a5757620d89e7196020820152610a8b565b610a64620d89e71961529b565b60020b816020015160020b1315610a8b57610a82620d89e71961529b565b60020b60208201525b610a98816020015161280c565b6001600160a01b031660608201526040820151610b29908d610ad2578b6001600160a01b031683606001516001600160a01b031611610aec565b8b6001600160a01b031683606001516001600160a01b0316105b610afa578260600151610afc565b8b5b60c085015185517f0000000000000000000000000000000000000000000000000000000000000000612b2e565b60c085015260a084015260808301526001600160a01b031660408301528215610b8b57610b5f8160c00151826080015101612d20565b825103825260a0810151610b7290612d20565b82602001818151610b8391906152bd565b905250610bce565b610b988160a00151612d20565b825101825260c08101516080820151610bb991610bb4916152fc565b612d20565b82602001818151610bca9190615314565b9052505b835160ff1615610c1a576000846000015160ff168260c0015181610bf457610bf461524d565b60c0840180519290910491829003905260a0840180519091016001600160801b03169052505b60c08201516001600160801b031615610c5957610c4d8160c00151600160801b8460c001516001600160801b0316612d36565b60808301805190910190525b80606001516001600160a01b031682604001516001600160a01b031603610e9c57806040015115610e77578360a00151610cde57610cc0846040015160008760200151886040015188602001518a606001516008612de9909695949392919063ffffffff16565b6001600160a01b0316608086015260060b6060850152600160a08501525b6000610e2382602001518e610cf557600154610cfb565b84608001515b8f610d0a578560800151610d0e565b6002545b608089015160608a01516040808c0151600296870b6000908152600560205291909120600181018054909603909555948401805490930390925560038301805463ffffffff600160d81b66ffffffffffffff196001600160a01b03600160381b8086048216909703169095029485167fffffffffff00000000000000000000000000000000000000000000000000000084161766ffffffffffffff7fffffffffff0000000000000000000000000000000000000000ffffffffffffff8516871760060b9097039690961695861781900482169097031690950266ffffffffffffff63ffffffff60d81b0119929092166001600160f81b031990951694909417919091171790915554600160801b9004600f0b90565b90508c15610e2f576000035b600081600f0b12610e4f57808360c00151610e4a9190615355565b610e67565b610e5881615380565b8360c00151610e67919061539d565b6001600160801b031660c0840152505b8b610e86578060200151610e8f565b60018160200151035b60020b6060830152610ed3565b80600001516001600160a01b031682604001516001600160a01b031614610ed357610eca8260400151612fa0565b60020b60608301525b50610985565b836020015160020b816060015160020b14610fa357600080610f2786604001518660400151886020015188602001518a606001518b6080015160086132af909695949392919063ffffffff16565b604085015160608601516000805463ffffffff60b81b1916600160c81b61ffff9586160261ffff60b81b191617600160b81b9590941694909402929092176001600160b81b031916600160a01b62ffffff909316929092026001600160a01b031916919091176001600160a01b0390911617905550610fc89050565b6040810151600080546001600160a01b0319166001600160a01b039092169190911790555b8060c001516001600160801b031683602001516001600160801b03161461100e5760c0810151600480546001600160801b0319166001600160801b039092169190911790555b8a1561105e57608081015160015560a08101516001600160801b0316156110595760a0810151600380546001600160801b031981166001600160801b03918216909301169190911790555b6110a4565b608081015160025560a08101516001600160801b0316156110a45760a0810151600380546001600160801b03808216600160801b92839004821690940116029190911790555b8115158b1515146110bd57602081015181518b036110ca565b80600001518a0381602001515b90965094508a156111ab57600085121561110c5761110c7f00000000000000000000000000000000000000000000000000000000000000008d87600003613436565b6000611116613522565b60405163fa461e3360e01b8152909150339063fa461e3390611142908a908a908e908e906004016153ee565b600060405180830381600087803b15801561115c57600080fd5b505af1158015611170573d6000803e3d6000fd5b5050505061117c613522565b61118688836152fc565b11156111a557604051635d05ca8f60e11b815260040160405180910390fd5b5061127d565b60008612156111e2576111e27f00000000000000000000000000000000000000000000000000000000000000008d88600003613436565b60006111ec613638565b60405163fa461e3360e01b8152909150339063fa461e3390611218908a908a908e908e906004016153ee565b600060405180830381600087803b15801561123257600080fd5b505af1158015611246573d6000803e3d6000fd5b50505050611252613638565b61125c87836152fc565b111561127b57604051635d05ca8f60e11b815260040160405180910390fd5b505b60408082015160c083015160608085015184518b8152602081018b90526001600160a01b03948516958101959095526001600160801b039092169084015260020b60808301528d169033907fc42079f94a6350d7e6235f29174924f928cc2ac818eb64fed8004e115fbcca679060a00160405180910390a350506000805460ff60f01b1916600160f01b17905550919890975095505050505050565b60088161ffff811061132a57600080fd5b015463ffffffff81169150600160201b810460060b90600160581b81046001600160a01b031690600160f81b900460ff1684565b600054600160f01b900460ff16611388576040516350dfbc4360e11b815260040160405180910390fd5b6000805460ff60f01b1916808255600160d81b900461ffff16906113ae60088385613684565b6000805461ffff808416600160d81b810261ffff60d81b199093169290921790925591925083161461141a576040805161ffff8085168252831660208201527fac49e518f90a358f652e4400164f05a5d8f7e35e7747279bc3a93dbf584e125a91015b60405180910390a15b50506000805460ff60f01b1916600160f01b17905550565b600080548190600160f01b900460ff1661145f576040516350dfbc4360e11b815260040160405180910390fd5b6000805460ff60f01b191690556001600160801b03851661147f57600080fd5b6000806114cd60405180608001604052808c6001600160a01b031681526020018b60020b81526020018a60020b81526020016114c38a6001600160801b0316613715565b600f0b905261372b565b925092505081935080925060008060008611156114ef576114ec613522565b91505b8415611500576114fd613638565b90505b60405163d348799760e01b8152339063d34879979061152990899089908d908d906004016153ee565b600060405180830381600087803b15801561154357600080fd5b505af1158015611557573d6000803e3d6000fd5b5050505060008611801561157a575061156e613522565b61157887846152fc565b115b156115985760405163748800af60e01b815260040160405180910390fd5b6000851180156115b757506115ab613638565b6115b586836152fc565b115b156115d557604051631072b39760e11b815260040160405180910390fd5b604080513381526001600160801b038b1660208201529081018790526060810186905260028b810b91908d900b906001600160a01b038f16907f7a53080ba414158be7ec69b987b5fb7d07dee101fe85488f0853ae16239d0bde9060800160405180910390a450506000805460ff60f01b1916600160f01b17905550919890975095505050505050565b600054600160f01b900460ff16611689576040516350dfbc4360e11b815260040160405180910390fd5b6000805460ff60f01b191690556004546001600160801b0316806116c057604051639f13f76d60e01b815260040160405180910390fd5b60006116f5867f000000000000000000000000000000000000000000000000000000000000000062ffffff16620f4240613985565b9050600061172c867f000000000000000000000000000000000000000000000000000000000000000062ffffff16620f4240613985565b90506000611738613522565b90506000611744613638565b90508815611777576117777f00000000000000000000000000000000000000000000000000000000000000008b8b613436565b87156117a8576117a87f00000000000000000000000000000000000000000000000000000000000000008b8a613436565b604051630e9cbafb60e41b8152339063e9cbafb0906117d190879087908c908c906004016153ee565b600060405180830381600087803b1580156117eb57600080fd5b505af11580156117ff573d6000803e3d6000fd5b50505050600061180d613522565b90506000611819613638565b90508161182687866152fc565b11156118455760405163f704e89960e01b815260040160405180910390fd5b8061185086856152fc565b111561186f5760405163e90c349360e01b815260040160405180910390fd5b8382038382038386146119055760008054600160e81b9004600f169081156118a9578160ff1684816118a3576118a361524d565b046118ac565b60005b90506001600160801b038116156118df57600380546001600160801b038082168401166001600160801b03199091161790555b6118f9818503600160801b8d6001600160801b0316612d36565b60018054909101905550505b80156119965760008054600160e81b900460041c600f1690811561193b578160ff1683816119355761193561524d565b0461193e565b60005b90506001600160801b0381161561197057600380546001600160801b03600160801b8083048216850182160291161790555b61198a818403600160801b8d6001600160801b0316612d36565b60028054909101905550505b604080518e8152602081018e9052908101839052606081018290526001600160a01b038f169033907fbdbdb71d7860376ba52b25a5028beea23581364a40522f6bcfb86bb1f2dca6339060800160405180910390a350506000805460ff60f01b1916600160f01b179055505050505050505050505050565b600080548190600160f01b900460ff16611a3b576040516350dfbc4360e11b815260040160405180910390fd5b6000805460ff60f01b19168155611a5560073389896139c5565b60038101549091506001600160801b0390811690861611611a765784611a85565b60038101546001600160801b03165b60038201549093506001600160801b03600160801b909104811690851611611aad5783611ac3565b6003810154600160801b90046001600160801b03165b91506001600160801b03831615611b28576003810180546001600160801b031981166001600160801b03918216869003821617909155611b28907f0000000000000000000000000000000000000000000000000000000000000000908a908616613436565b6001600160801b03821615611b8e576003810180546001600160801b03600160801b808304821686900382160291811691909117909155611b8e907f0000000000000000000000000000000000000000000000000000000000000000908a908516613436565b604080516001600160a01b038a1681526001600160801b0385811660208301528416818301529051600288810b92908a900b9133917f70935338e69775456a85ddef226c395fb668b63fa0115f5f20610b388e6ca9c0919081900360600190a4506000805460ff60f01b1916600160f01b17905590969095509350505050565b7f00000000000000000000000000000000000000000000000000000000000000006001600160a01b0316630d43e8ad6040518163ffffffff1660e01b8152600401602060405180830381865afa158015611c6c573d6000803e3d6000fd5b505050506040513d601f19601f82011682018060405250810190611c909190615418565b6001600160a01b0316336001600160a01b031614611cad57600080fd5b600081611cbc57600254611cc0565b6001545b6004549091506001600160801b031615611d0557600454611cf1908490600160801b906001600160801b0316612d36565b018115611cff576001555050565b60028190555b505050565b600054600160f01b900460ff16611d34576040516350dfbc4360e11b815260040160405180910390fd5b6000805460ff60f01b1916905560408051638da5cb5b60e01b815290516001600160a01b037f00000000000000000000000000000000000000000000000000000000000000001691638da5cb5b9160048083019260209291908290030181865afa158015611da6573d6000803e3d6000fd5b505050506040513d601f19601f82011682018060405250810190611dca9190615418565b6001600160a01b0316336001600160a01b031614611de757600080fd5b60ff82161580611e0a575060048260ff1610158015611e0a5750600a8260ff1611155b8015611e34575060ff81161580611e34575060048160ff1610158015611e345750600a8160ff1611155b611e3d57600080fd5b60008054610ff0600484901b16840160ff908116600160e81b90810260ff60e81b19841617909355919004167f973d8d92bb299f4af6ce49b52a8adb85ae46b9f214c4c4fc06ac77401237b1336010826040805160ff9390920683168252600f600486901c166020830152868316908201529084166060820152608001611411565b600080548190600160f01b900460ff16611eec576040516350dfbc4360e11b815260040160405180910390fd5b6000805460ff60f01b1916905560408051638da5cb5b60e01b815290516001600160a01b037f00000000000000000000000000000000000000000000000000000000000000001691638da5cb5b9160048083019260209291908290030181865afa158015611f5e573d6000803e3d6000fd5b505050506040513d601f19601f82011682018060405250810190611f829190615418565b6001600160a01b0316336001600160a01b031614611f9f57600080fd5b6003546001600160801b0390811690851611611fbb5783611fc8565b6003546001600160801b03165b6003549092506001600160801b03600160801b909104811690841611611fee5782612002565b600354600160801b90046001600160801b03165b90506001600160801b03821615612083576003546001600160801b039081169083160361203157600019909101905b600380546001600160801b031981166001600160801b03918216859003821617909155612083907f00000000000000000000000000000000000000000000000000000000000000009087908516613436565b6001600160801b03811615612109576003546001600160801b03600160801b9091048116908216036120b457600019015b600380546001600160801b03600160801b808304821685900382160291811691909117909155612109907f00000000000000000000000000000000000000000000000000000000000000009087908416613436565b604080516001600160801b038085168252831660208201526001600160a01b0387169133917f596b573906218d3411850b26a6b437d6c4522fdb43d2d2386263f86d50b8b151910160405180910390a36000805460ff60f01b1916600160f01b1790559094909350915050565b6060806121e942858580806020026020016040519081016040528093929190818152602001838360200280828437600092018290525054600454600896959450600160a01b820460020b935061ffff600160b81b8304811693506001600160801b0390911691600160c81b900416613a22565b915091505b9250929050565b600080548190600160f01b900460ff16612222576040516350dfbc4360e11b815260040160405180910390fd5b6000805460ff60f01b1916815560408051608081018252338152600288810b602083015287900b918101919091528190819061227b906060810161226e6001600160801b038a16613715565b600003600f0b905261372b565b925092509250816000039450806000039350600085118061229c5750600084115b156122d7576003830180546001600160801b0380821688018116600160801b92839004821688019091169091026001600160801b0319161790555b604080516001600160801b038816815260208101879052908101859052600288810b91908a900b9033907f0c396cd989a39f4459b5fa1aed6a9a8dcdbc45908acfd67e028cd568da98982c9060600160405180910390a450506000805460ff60f01b1916600160f01b179055509094909350915050565b600080600061235d8585613b6d565b600285810b6000908152600560205260408082209287900b825281206003830154600681900b93600160381b82046001600160a01b0316928492600160d81b810463ffffffff169284929091600160f81b900460ff16806123bd57600080fd5b6003820154600681900b9850600160381b81046001600160a01b03169650600160d81b810463ffffffff169450600160f81b900460ff16806123fe57600080fd5b50506040805160e0810182526000546001600160a01b0381168252600160a01b8104600290810b6020840181905261ffff600160b81b8404811695850195909552600160c81b830485166060850152600160d81b8304909416608084015260ff600160e81b8304811660a0850152600160f01b909204909116151560c08301529093508e900b131590506124a05750939094039650900393509003905061251a565b8a60020b816020015160020b121561250b57602081015160408201516004546060840151429360009384936124e99360089388938793919290916001600160801b031690612de9565b9a9003989098039b50509490960392909203965090910303925061251a915050565b50949093039650039350900390505b9250925092565b6000546001600160a01b03161561254b5760405163139816ff60e31b815260040160405180910390fd5b600061255682612fa0565b604080516080808201835263ffffffff42168083526000602080850182905284860182905260016060958601819052600160f81b909317600855855160e0810187526001600160a01b038a16808252600289900b82840181905282890185905296820185905294810184905260a0810183905260c00183905281546001600160b81b0319168417600160a01b62ffffff8916021767ffffffffffffffff60b81b19166501000001000160c81b1790915584519283528201929092528251939450909283927f98636036cb66a9c19a37435efc1e90142190214e8abeb821bdba3f2990dd4c95928290030190a150505050565b60008082600281900b620d89e719816126635761266361524d565b05029050600083600281900b620d89e8816126805761268061524d565b0502905060008460020b83830360020b8161269d5761269d61524d565b0560010190508062ffffff166001600160801b038016816126c0576126c061524d565b0495945050505050565b60008060008460020b8660020b816126e4576126e461524d565b05905060008660020b12801561271157508460020b8660020b8161270a5761270a61524d565b0760020b15155b1561271b57600019015b831561278f57600281900b600881901d600181810b600090815260208b9052604090205461010090930760ff81169190911b8001600019019283168015159550919290918561277157888360ff16860302612784565b8861277b82613bf3565b840360ff168603025b965050505050612802565b600181810160020b600881901d80830b600090815260208b9052604090205461010090920760ff81169390931b6000190119918216801515955090929190856127e557888360ff0360ff168660010101026127fb565b88836127f083613c92565b0360ff168660010101025b9650505050505b5094509492505050565b60008060008360020b12612823578260020b61282b565b8260020b6000035b9050620d89e8811115612851576040516315e4079d60e11b815260040160405180910390fd5b60008160011660000361286857600160801b61287a565b6ffffcb933bd6fad37aa2d162d1a5940015b70ffffffffffffffffffffffffffffffffff16905060028216156128ae576ffff97272373d413259a46990580e213a0260801c5b60048216156128cd576ffff2e50f5f656932ef12357cf3c7fdcc0260801c5b60088216156128ec576fffe5caca7e10e4e61c3624eaa0941cd00260801c5b601082161561290b576fffcb9843d60f6159c9db58835c9266440260801c5b602082161561292a576fff973b41fa98c081472e6896dfb254c00260801c5b6040821615612949576fff2ea16466c96a3843ec78b326b528610260801c5b6080821615612968576ffe5dee046a99a2a811c461f1969c30530260801c5b610100821615612988576ffcbe86c7900a88aedcffc83b479aa3a40260801c5b6102008216156129a8576ff987a7253ac413176f2b074cf7815e540260801c5b6104008216156129c8576ff3392b0822b70005940c7a398e4b70f30260801c5b6108008216156129e8576fe7159475a2c29b7443b29c7fa6e889d90260801c5b611000821615612a08576fd097f3bdfd2022b8845ad8f792aa58250260801c5b612000821615612a28576fa9f746462d870fdf8a65dc1f90e061e50260801c5b614000821615612a48576f70d869a156d2a1b890bb3df62baf32f70260801c5b618000821615612a68576f31be135f97d08fd981231505542fcfa60260801c5b62010000821615612a89576f09aa508b5b7a84e1c677de54f3e99bc90260801c5b62020000821615612aa9576e5d6af8dedb81196699c329225ee6040260801c5b62040000821615612ac8576d2216e584f5fa1ea926041bedfe980260801c5b62080000821615612ae5576b048a170391f7dc42444e8fa20260801c5b60008460020b1315612b06578060001981612b0257612b0261524d565b0490505b600160201b810615612b19576001612b1c565b60005b60ff16602082901c0192505050919050565b60008080806001600160a01b03808916908a161015818712801590612bb3576000612b678989620f42400362ffffff16620f4240612d36565b905082612b8057612b7b8c8c8c6001613d7c565b612b8d565b612b8d8b8d8c6001613df7565b9550858110612b9e578a9650612bad565b612baa8c8b8386613eb7565b96505b50612bfd565b81612bca57612bc58b8b8b6000613df7565b612bd7565b612bd78a8c8b6000613d7c565b9350838860000310612beb57899550612bfd565b612bfa8b8a8a60000385613f03565b95505b6001600160a01b038a8116908716148215612c6057808015612c1c5750815b612c3257612c2d878d8c6001613df7565b612c34565b855b9550808015612c41575081155b612c5757612c52878d8c6000613d7c565b612c59565b845b9450612caa565b808015612c6a5750815b612c8057612c7b8c888c6001613d7c565b612c82565b855b9550808015612c8f575081155b612ca557612ca08c888c6000613df7565b612ca7565b845b94505b81158015612cba57508860000385115b15612cc6578860000394505b818015612ce557508a6001600160a01b0316876001600160a01b031614155b15612cf4578589039350612d11565b612d0e868962ffffff168a620f42400362ffffff16613985565b93505b50505095509550955095915050565b6000600160ff1b8210612d3257600080fd5b5090565b6000808060001985870985870292508281108382030391505080600003612d6f5760008411612d6457600080fd5b508290049050612de2565b808411612d7b57600080fd5b6000848688096000868103871696879004966002600389028118808a02820302808a02820302808a02820302808a02820302808a02820302808a02909103029181900381900460010186841190950394909402919094039290920491909117919091029150505b9392505050565b6000808663ffffffff16600003612e92576000898661ffff1661ffff8110612e1357612e13615435565b60408051608081018252919092015463ffffffff808216808452600160201b830460060b6020850152600160581b83046001600160a01b031694840194909452600160f81b90910460ff16151560608301529092508a1614612e7e57612e7b818a8988613f4f565b90505b806020015181604001519250925050612f94565b868803600080612ea78c8c858c8c8c8c614014565b91509150816000015163ffffffff168363ffffffff1603612ed8578160200151826040015194509450505050612f94565b806000015163ffffffff168363ffffffff1603612f05578060200151816040015194509450505050612f94565b60008260000151826000015103905060008360000151850390508063ffffffff168263ffffffff1660060b856020015185602001510360060b81612f4b57612f4b61524d565b05028460200151018263ffffffff168263ffffffff1686604001518660400151036001600160a01b03160281612f8357612f8361524d565b048560400151019650965050505050505b97509795505050505050565b60006401000276a36001600160a01b03831610801590612fdc575073fffd8963efd1fc6a506488495d951d5263988d266001600160a01b038316105b612ff9576040516324c070df60e11b815260040160405180910390fd5b77ffffffffffffffffffffffffffffffffffffffff00000000602083901b166001600160801b03811160071b81811c67ffffffffffffffff811160061b90811c63ffffffff811160051b90811c61ffff811160041b90811c60ff8111600390811b91821c600f811160021b90811c918211600190811b92831c9790881196179094179092171790911717176080811061309a57607f810383901c91506130a4565b80607f0383901b91505b908002607f81811c60ff83811c9190911c800280831c81831c1c800280841c81841c1c800280851c81851c1c800280861c81861c1c800280871c81871c1c800280881c81881c1c800280891c81891c1c8002808a1c818a1c1c8002808b1c818b1c1c8002808c1c818c1c1c8002808d1c818d1c1c8002808e1c9c81901c9c909c1c80029c8d901c9e9d607f198f0160401b60c09190911c678000000000000000161760c19b909b1c674000000000000000169a909a1760c29990991c672000000000000000169890981760c39790971c671000000000000000169690961760c49590951c670800000000000000169490941760c59390931c670400000000000000169290921760c69190911c670200000000000000161760c79190911c600160381b161760c89190911c6680000000000000161760c99190911c6640000000000000161760ca9190911c6620000000000000161760cb9190911c6610000000000000161760cc9190911c6608000000000000161760cd9190911c66040000000000001617693627a301d71055774c8581026f028f6481ab7f045a5af012a19d003aa9198101608090811d906fdb2df09e81959a81455e260799a0632f8301901d600281810b9083900b146132a057886001600160a01b03166132858261280c565b6001600160a01b0316111561329a57816132a2565b806132a2565b815b9998505050505050505050565b6000806000898961ffff1661ffff81106132cb576132cb615435565b60408051608081018252919092015463ffffffff808216808452600160201b830460060b6020850152600160581b83046001600160a01b031694840194909452600160f81b90910460ff1615156060830152909250891690036133345788859250925050612f94565b8461ffff168461ffff1611801561335557506001850361ffff168961ffff16145b1561336257839150613366565b8491505b8161ffff168960010161ffff16816133805761338061524d565b06925061338f81898989613f4f565b8a8461ffff1661ffff81106133a6576133a6615435565b825191018054602084015160408501516060909501511515600160f81b026001600160f81b036001600160a01b03909616600160581b02959095166affffffffffffffffffffff66ffffffffffffff909216600160201b026affffffffffffffffffffff1990931663ffffffff909516949094179190911716919091179190911790555097509795505050505050565b604080516001600160a01b038481166024830152604480830185905283518084039091018152606490920183526020820180516001600160e01b031663a9059cbb60e01b1790529151600092839290871691613492919061544b565b6000604051808303816000865af19150503d80600081146134cf576040519150601f19603f3d011682016040523d82523d6000602084013e6134d4565b606091505b50915091508180156134fe5750805115806134fe5750808060200190518101906134fe9190615486565b61351b57604051638b98626560e01b815260040160405180910390fd5b5050505050565b604051306024820152600090819081906001600160a01b037f000000000000000000000000000000000000000000000000000000000000000016906370a0823160e01b906044015b60408051601f198184030181529181526020820180516001600160e01b03167fffffffff000000000000000000000000000000000000000000000000000000009094169390931790925290516135c0919061544b565b600060405180830381855afa9150503d80600081146135fb576040519150601f19603f3d011682016040523d82523d6000602084013e613600565b606091505b509150915081801561361457506020815110155b61361d57600080fd5b8080602001905181019061363191906154a3565b9250505090565b604051306024820152600090819081906001600160a01b037f000000000000000000000000000000000000000000000000000000000000000016906370a0823160e01b9060440161356a565b6000808361ffff16116136aa57604051636b93000360e11b815260040160405180910390fd5b8261ffff168261ffff16116136c0575081612de2565b825b8261ffff168161ffff16101561370c576001858261ffff1661ffff81106136eb576136eb615435565b01805463ffffffff191663ffffffff929092169190911790556001016136c2565b50909392505050565b80600f81900b811461372657600080fd5b919050565b600080600061374284602001518560400151613b6d565b6040805160e0810182526000546001600160a01b0381168252600160a01b810460020b602080840182905261ffff600160b81b8404811685870152600160c81b84048116606080870191909152600160d81b8504909116608086015260ff600160e81b8504811660a0870152600160f01b909404909316151560c0850152885190890151948901519289015193946137e09491939092909190614220565b93508460600151600f0b60001461397d57846020015160020b816020015160020b12156138355761382e613817866020015161280c565b613824876040015161280c565b8760600151614405565b925061397d565b846040015160020b816020015160020b12156139535760045460408201516001600160801b0390911690613880904260208501516060860151608087015160089493929187916132af565b6000805463ffffffff60b81b1916600160c81b61ffff9384160261ffff60b81b191617600160b81b9390921692909202179055815160408701516138d291906138c89061280c565b8860600151614405565b93506138f06138e4876020015161280c565b83516060890151614444565b925060008660600151600f0b126139155760608601516139109082615355565b61392d565b856060015161392390615380565b61392d908261539d565b600480546001600160801b0319166001600160801b03929092169190911790555061397d565b61397a613963866020015161280c565b613970876040015161280c565b8760600151614444565b91505b509193909250565b6000613992848484612d36565b9050600082806139a4576139a461524d565b8486091115612de25760001981106139bb57600080fd5b6001019392505050565b6040805160609490941b6bffffffffffffffffffffffff191660208086019190915260e893841b60348601529190921b60378401528151601a818503018152603a9093018252825192810192909220600090815292909152902090565b60608060008361ffff1611613a4a57604051636b93000360e11b815260040160405180910390fd5b865167ffffffffffffffff811115613a6457613a646154bc565b604051908082528060200260200182016040528015613a8d578160200160208202803683370190505b509150865167ffffffffffffffff811115613aaa57613aaa6154bc565b604051908082528060200260200182016040528015613ad3578160200160208202803683370190505b50905060005b8751811015613b6057613b0a8a8a8a8481518110613af957613af9615435565b60200260200101518a8a8a8a612de9565b848381518110613b1c57613b1c615435565b60200260200101848481518110613b3557613b35615435565b6001600160a01b039093166020938402919091019092019190915260069190910b9052600101613ad9565b5097509795505050505050565b8060020b8260020b12613b9357604051632fe0284f60e01b815260040160405180910390fd5b620d89e719600283900b1215613bbc5760405163135ac25d60e31b815260040160405180910390fd5b613bc9620d89e71961529b565b60020b8160020b1315613bef5760405163d7b54ab160e01b815260040160405180910390fd5b5050565b6000808211613c0157600080fd5b600160801b8210613c1457608091821c91015b680100000000000000008210613c2c57604091821c91015b600160201b8210613c3f57602091821c91015b620100008210613c5157601091821c91015b6101008210613c6257600891821c91015b60108210613c7257600491821c91015b60048210613c8257600291821c91015b6002821061372657600101919050565b6000808211613ca057600080fd5b5060ff6001600160801b03821615613cbb57607f1901613cc3565b608082901c91505b67ffffffffffffffff821615613cdc57603f1901613ce4565b604082901c91505b63ffffffff821615613cf957601f1901613d01565b602082901c91505b61ffff821615613d1457600f1901613d1c565b601082901c91505b60ff821615613d2e5760071901613d36565b600882901c91505b600f821615613d485760031901613d50565b600482901c91505b6003821615613d625760011901613d6a565b600282901c91505b60018216156137265760001901919050565b6000836001600160a01b0316856001600160a01b03161115613d9c579293925b81613dc957613dc4836001600160801b03168686036001600160a01b0316600160601b612d36565b613dec565b613dec836001600160801b03168686036001600160a01b0316600160601b613985565b90505b949350505050565b6000836001600160a01b0316856001600160a01b03161115613e17579293925b6fffffffffffffffffffffffffffffffff60601b606084901b166001600160a01b038686038116908716613e4a57600080fd5b83613e8057866001600160a01b0316613e6d8383896001600160a01b0316612d36565b81613e7a57613e7a61524d565b04613eac565b613eac613e978383896001600160a01b0316613985565b886001600160a01b0316808204910615150190565b979650505050505050565b600080856001600160a01b031611613ece57600080fd5b6000846001600160801b031611613ee457600080fd5b81613ef657613dc48585856001614473565b613dec8585856001614559565b600080856001600160a01b031611613f1a57600080fd5b6000846001600160801b031611613f3057600080fd5b81613f4257613dc48585856000614559565b613dec8585856000614473565b604080516080810182526000808252602082018190529181018290526060810191909152600085600001518503905060405180608001604052808663ffffffff1681526020018263ffffffff168660020b0288602001510160060b81526020016000856001600160801b031611613fc7576001613fc9565b845b6001600160801b031663ffffffff60801b608085901b1681613fed57613fed61524d565b048860400151016001600160a01b0316815260200160011515815250915050949350505050565b604080516080810182526000808252602082018190529181018290526060810191909152604080516080810182526000808252602082018190529181018290526060810191909152888561ffff1661ffff811061407357614073615435565b60408051608081018252919092015463ffffffff8116808352600160201b820460060b6020840152600160581b82046001600160a01b031693830193909352600160f81b900460ff161515606082015292506140d190899089614652565b156140fd57815163ffffffff888116911614612f9457816140f483898988613f4f565b91509150612f94565b888361ffff168660010161ffff16816141185761411861524d565b0661ffff1661ffff811061412e5761412e615435565b60408051608081018252929091015463ffffffff81168352600160201b810460060b60208401526001600160a01b03600160581b8204169183019190915260ff600160f81b909104161515606082018190529092506141d757604080516080810182528a5463ffffffff81168252600160201b810460060b6020830152600160581b81046001600160a01b031692820192909252600160f81b90910460ff161515606082015291505b6141e688836000015189614652565b614203576040516327e8e87560e01b815260040160405180910390fd5b6142108989898887614713565b9150915097509795505050505050565b600061422f60078787876139c5565b60015460025491925090600080600f87900b156143675760008054600454429291829161428c9160089186918591600160a01b820460020b9161ffff600160b81b82048116926001600160801b031691600160c81b900416612de9565b90925090506142c660058d8b8d8b8b87898b60007f00000000000000000000000000000000000000000000000000000000000000006148fb565b94506142fd60058c8b8d8b8b87898b60017f00000000000000000000000000000000000000000000000000000000000000006148fb565b935084156143315761433160068d7f0000000000000000000000000000000000000000000000000000000000000000614a9c565b83156143635761436360068c7f0000000000000000000000000000000000000000000000000000000000000000614a9c565b5050505b60008061437960058c8c8b8a8a614b19565b909250905061438a878a8484614bc0565b600089600f0b12156143f65783156143c65760028b810b6000908152600560205260408120818155600181018290559182018190556003909101555b82156143f65760028a810b6000908152600560205260408120818155600181018290559182018190556003909101555b50505050505095945050505050565b60008082600f0b1261442657614421610bb48585856001613df7565b613def565b614439610bb48585856000036000613df7565b600003949350505050565b60008082600f0b1261446057614421610bb48585856001613d7c565b614439610bb48585856000036000613d7c565b600081156144e55760006001600160a01b038411156144a9576144a484600160601b876001600160801b0316612d36565b6144c0565b6144c06001600160801b038616606086901b6154d2565b90506144dd6144d8826001600160a01b0389166152fc565b614d5f565b915050613def565b60006001600160a01b038411156145135761450e84600160601b876001600160801b0316613985565b614530565b614530606085901b6001600160801b038716808204910615150190565b905080866001600160a01b03161161454757600080fd5b6001600160a01b038616039050613def565b60008260000361456a575083613def565b6fffffffffffffffffffffffffffffffff60601b606085901b168215614605576001600160a01b038616848102908582816145a7576145a761524d565b04036145d7578181018281106145d5576145cb83896001600160a01b031683613985565b9350505050613def565b505b506144dd81856145f06001600160a01b038a16836154d2565b6145fa91906152fc565b808204910615150190565b6001600160a01b038616848102908582816146225761462261524d565b0414801561462f57508082115b61463857600080fd5b8082036145cb6144d8846001600160a01b038b1684613985565b60008363ffffffff168363ffffffff161115801561467c57508363ffffffff168263ffffffff1611155b15614698578163ffffffff168363ffffffff1611159050612de2565b60008463ffffffff168463ffffffff16116146bf578363ffffffff16600160201b016146c7565b8363ffffffff165b64ffffffffff16905060008563ffffffff168463ffffffff16116146f7578363ffffffff16600160201b016146ff565b8363ffffffff165b64ffffffffff169091111595945050505050565b60408051608081018252600080825260208201819052918101829052606081019190915260408051608081018252600080825260208201819052918101829052606081019190915260008361ffff168560010161ffff16816147775761477761524d565b0661ffff169050600060018561ffff16830103905060005b506002818301048961ffff871682816147aa576147aa61524d565b0661ffff81106147bc576147bc615435565b60408051608081018252929091015463ffffffff81168352600160201b810460060b60208401526001600160a01b03600160581b8204169183019190915260ff600160f81b909104161515606082018190529095506148205780600101925061478f565b898661ffff1682600101816148375761483761524d565b0661ffff811061484957614849615435565b60408051608081018252929091015463ffffffff81168352600160201b810460060b60208401526001600160a01b03600160581b8204169183019190915260ff600160f81b909104161515606082015285519094506000906148ad908b908b614652565b90508080156148c657506148c68a8a8760000151614652565b156148d157506148ee565b806148e1576001820392506148e8565b8160010193505b5061478f565b5050509550959350505050565b60028a900b600090815260208c90526040812080546001600160801b031682600f8c900b81136149345761492f8c83615355565b614947565b61493d8c615380565b614947908361539d565b9050846001600160801b0316816001600160801b0316111561497c576040516368d2be8f60e01b815260040160405180910390fd5b6001600160801b0381811615908316801591909114159450600003614a20578c60020b8e60020b13614a0857600183018b9055600283018a905560038301805466ffffffffffffff8a166001600160f81b0319909116600160381b6001600160a01b038d160266ffffffffffffff63ffffffff60d81b0119161717600160d81b63ffffffff8a16021790555b6003830180546001600160f81b0316600160f81b1790555b82546001600160801b0319166001600160801b03821617835585614a5a578254614a55908d90600160801b9004600f0b6154e6565b614a71565b8254614a71908d90600160801b9004600f0b615535565b83546001600160801b03918216600160801b0291161790925550909c9b505050505050505050505050565b8060020b8260020b81614ab157614ab161524d565b0760020b15614abf57600080fd5b600080614aed8360020b8560020b81614ada57614ada61524d565b0560020b600881901d9161010090910790565b600191820b60009081526020979097526040909620805460ff9097169190911b90951890945550505050565b600285810b60008181526020899052604080822088850b83529082209193849391929184918291908a900b12614b5a57505060018201546002830154614b6d565b8360010154880391508360020154870390505b6000808b60020b8b60020b1215614b8f57505060018301546002840154614ba2565b84600101548a0391508460020154890390505b92909803979097039b96909503949094039850939650505050505050565b6040805160a08101825285546001600160801b0390811682526001870154602083015260028701549282019290925260038601548083166060830152600160801b900490911660808201526000600f85900b8103614c485781516001600160801b0316614c4057604051632aabfc9960e11b815260040160405180910390fd5b508051614c7d565b600085600f0b12614c65578151614c60908690615355565b614c7a565b614c6e85615380565b8251614c7a919061539d565b90505b600080614ca28460200151870385600001516001600160801b0316600160801b612d36565b9150614cc68460400151860385600001516001600160801b0316600160801b612d36565b905086600f0b600014614ced5787546001600160801b0319166001600160801b0384161788555b60018801869055600288018590556001600160801b038216151580614d1b57506000816001600160801b0316115b15614d5557600388018054600160801b6001600160801b03808316860181166001600160801b031990931683178290048116850116021790555b5050505050505050565b806001600160a01b038116811461372657600080fd5b6001600160a01b0381168114614d8a57600080fd5b50565b8015158114614d8a57600080fd5b60008083601f840112614dad57600080fd5b50813567ffffffffffffffff811115614dc557600080fd5b6020830191508360208285010111156121ee57600080fd5b60008060008060008060a08789031215614df657600080fd5b8635614e0181614d75565b95506020870135614e1181614d8d565b9450604087013593506060870135614e2881614d75565b9250608087013567ffffffffffffffff811115614e4457600080fd5b614e5089828a01614d9b565b979a9699509497509295939492505050565b600060208284031215614e7457600080fd5b5035919050565b600060208284031215614e8d57600080fd5b813561ffff81168114612de257600080fd5b8035600281900b811461372657600080fd5b80356001600160801b038116811461372657600080fd5b60008060008060008060a08789031215614ee157600080fd5b8635614eec81614d75565b9550614efa60208801614e9f565b9450614f0860408801614e9f565b9350614e2860608801614eb1565b600080600080600060808688031215614f2e57600080fd5b8535614f3981614d75565b94506020860135935060408601359250606086013567ffffffffffffffff811115614f6357600080fd5b614f6f88828901614d9b565b969995985093965092949392505050565b600080600080600060a08688031215614f9857600080fd5b8535614fa381614d75565b9450614fb160208701614e9f565b9350614fbf60408701614e9f565b9250614fcd60608701614eb1565b9150614fdb60808701614eb1565b90509295509295909350565b600060208284031215614ff957600080fd5b81358060010b8114612de257600080fd5b6000806040838503121561501d57600080fd5b82359150602083013561502f81614d8d565b809150509250929050565b803560ff8116811461372657600080fd5b6000806040838503121561505e57600080fd5b6150678361503a565b91506150756020840161503a565b90509250929050565b60008060006060848603121561509357600080fd5b833561509e81614d75565b92506150ac60208501614eb1565b91506150ba60408501614eb1565b90509250925092565b600080602083850312156150d657600080fd5b823567ffffffffffffffff808211156150ee57600080fd5b818501915085601f83011261510257600080fd5b81358181111561511157600080fd5b8660208260051b850101111561512657600080fd5b60209290920196919550909350505050565b604080825283519082018190526000906020906060840190828701845b8281101561517457815160060b84529284019290840190600101615155565b5050508381038285015284518082528583019183019060005b818110156151b25783516001600160a01b03168352928401929184019160010161518d565b5090979650505050505050565b6000806000606084860312156151d457600080fd5b6151dd84614e9f565b92506150ac60208501614e9f565b600080604083850312156151fe57600080fd5b61520783614e9f565b915061507560208401614e9f565b60006020828403121561522757600080fd5b612de282614e9f565b60006020828403121561524257600080fd5b8135612de281614d75565b634e487b7160e01b600052601260045260246000fd5b600060ff8316806152765761527661524d565b8060ff84160691505092915050565b634e487b7160e01b600052601160045260246000fd5b60008160020b627fffff1981036152b4576152b4615285565b60000392915050565b60008083128015600160ff1b8501841216156152db576152db615285565b6001600160ff1b03840183138116156152f6576152f6615285565b50500390565b6000821982111561530f5761530f615285565b500190565b600080821280156001600160ff1b038490038513161561533657615336615285565b600160ff1b839003841281161561534f5761534f615285565b50500190565b60006001600160801b0380831681851680830382111561537757615377615285565b01949350505050565b600081600f0b60016001607f1b031981036152b4576152b4615285565b60006001600160801b03838116908316818110156153bd576153bd615285565b039392505050565b81835281816020850137506000828201602090810191909152601f909101601f19169091010190565b84815283602082015260606040820152600061540e6060830184866153c5565b9695505050505050565b60006020828403121561542a57600080fd5b8151612de281614d75565b634e487b7160e01b600052603260045260246000fd5b6000825160005b8181101561546c5760208186018101518583015201615452565b8181111561547b576000828501525b509190910192915050565b60006020828403121561549857600080fd5b8151612de281614d8d565b6000602082840312156154b557600080fd5b5051919050565b634e487b7160e01b600052604160045260246000fd5b6000826154e1576154e161524d565b500490565b600081600f0b83600f0b600082128260016001607f1b030382138115161561551057615510615285565b8260016001607f1b031903821281161561552c5761552c615285565b50019392505050565b600081600f0b83600f0b600081128160016001607f1b03190183128115161561556057615560615285565b8160016001607f1b0301831381161561557b5761557b615285565b509003939250505056fea164736f6c634300080f000aa164736f6c634300080f000a"
}